:020000040800F2
:10000000F0FF0010ED790508B5AD0108B9670108EA
:100010008D7A05088D7A05088D7A050800000000A4
:10002000000000000000000000000000C1AD010859
:10003000BDAD010800000000B9AD01086938020833
:100040008D7A05088D7A05088D7A05088D7A050860
:100050008D7A05088D7A0508C5400208F14102082D
:10006000B5410208794102083D410208950E010898
:10007000850E0108750E0108650E0108510E010874
:100080003D0E0108290E01088D7A05088D7A0508B4
:100090008D7A05088D7A05088D7A050801410208D8
:1000A000C18001088D290208F17F01085D2A02083C
:1000B000CD2802080D280208412702087D140108F6
:1000C0008514010871140108791401088D7A050856
:1000D0008D7A0508E13902088D7A0508453902084C
:1000E000894002088D7A0508A5FB0108217F0108D7
:1000F00091810108517E0108E5240208150E0108CE
:100100008D7A05088D7A0508712602088D7A050812
:100110008D7A05088D7A050885F803080DF7030820
:10012000010E0108ED0D0108D90D0108C50D0108EA
:10013000B10D01088D7A05088D7A05088D7A0508BC
:100140008D7A05088D7A05088D7A05087DC8010825
:100150009D0D0108890D0108750D0108A9380208D7
:10016000651401086D1401088D7A05088D7A05085B
:100170008D7A05088D7A05088D7A05088D7A05082F
:080180008D7A05088D7A05084F
:08018800947505000100000060
:100190001002010034220020302200200000000064
:1001A000BC0700081F02100048220020382200204F
:1001B00000000000418500081A023C0010440020A5
:1001C000AC4500200000000019940008270004003E
:1001D000F8420020E845002000000000BE070008AB
:1001E000381001001C420020EC45002000000000F7
:1001F000C207000814000300E05F00204C600020EC
:1002000000000000C40700080B301A00E84F00206F
:100210005060002000000000C80700081F302400C4
:10022000045000206C60002000000000E40700087B
:1002300005020400745B00209060002000000000B4
:100240000808000803010A004450002094600020C0
:10025000000000000C080008130204001C4E0020DF
:10026000A060002000000000160800081C0210001A
:1002700054760020EC7A002000000000B1830008D2
:10028000041202008C7A0020FC7A0020000000009A
:100290001A0800080F020100887A0020007B002065
:1002A000000000001C08000810100200047A002062
:1002B000047B0020000000001E0800082810100029
:1002C000F4790020087B0020000000003D7C02083B
:1002D00019000500EC790020187B002000000000C8
:1002E00020080008F8210600E4790020207B002087
:1002F000000000002608000801200C0028740020DF
:10030000287B0020000000002C0800080A7028004C
:1003100094730020347B002000000000E17B020881
:100320000EB086010C7200205C7B002000000000F3
:10033000653604080101040068710020E47C002097
:1003400000000000000000000001040060710020B7
:10035000E87C0020000000003808000802010300CB
:100360005C710020EC7C00200000000059CA0408E9
:100370002202140154970020A499002000000000DC
:10038000599600080C20CC0048870020B89A00201D
:10039000000000001DCA0408010205002C8700208F
:1003A000849B00200000000079160308000205006D
:1003B000248700208C9B002000000000000000002B
:1003C0001B021000F8860020949B00200000000013
:1003D000D98300081E00060050840020A49B002042
:1003E000000000003C0800081B100C00547F002097
:1003F000AC9B002000000000DD2B03082102F00070
:10040000D47D0020B89B00200000000035190308AF
:1004100023121000E4890020A89C002000000000A6
:100420004408000805100600DC890020B89C002064
:1004300000000000540800083710280080860020C3
:10044000C09C0020000000005A0800080E020200B4
:10045000D8890020E89C00200000000082080008E5
:1004600016100600C87D0020EC9C00200000000053
:10047000840800082F10220080990020F49C00209E
:10048000000000008A08000823100E00A08300204E
:10049000189D002000000000577C0208F5519000D4
:1004A000F87C0020289D0020000000004967030818
:1004B00026100C00C49D0020B89D00200000000004
:1004C000C10B03080A020A003CA6002090A80020E5
:1004D00000000000B9900308F6210C00A0A0002045
:1004E0009CA8002000000000AC08000803000100E8
:1004F00010A10020A8A800200000000000000000BB
:1005000003123D0050A80020ACA80020000000000D
:10051000B808000825102C0170A60020ECA80020C7
:1005200000000000000000001A000E0010B30020C0
:1005300058B4002000000000F608000820320A002D
:10054000E4B1002068B40020000000004536040833
:1005500015007000D4AF002074B40020000000002B
:10056000000000002A006000E0B30020E4B4002096
:10057000000000001D3604082C00100054B50020B7
:1005800044B5002000000000AD3304082B00240017
:1005900088B5002064B50020000000007D33040809
:1005A00029207800C0AD0020ACB50020000000007C
:1005B0000000000007020200E4B700203CB8002061
:1005C000000000000409000802000C00ECB6002046
:1005D00040B80020000000000000000006020C00EF
:1005E000BCB700204CB8002000000000B594000803
:1005F00008120F000CB7002058B8002000000000BF
:10060000FD840008F701060000B7002068B800204C
:1006100000000000060900081D020200FCB60020D0
:1006200070B80020000000000C0900080D00340024
:1006300034EF0020D0EF002000000000A1180108D6
:1006400009020100A0EE002004F0002000000000DC
:10065000100900080400800020EE002008F00020AF
:1006600000000000000000001300040000EE002065
:1006700088F000200000000014090008FD0124009B
:10068000DCED00208CF000200000000091FD01084E
:1006900018203000A8ED0020B0F00020000000007D
:1006A000BD95000806101A0088DB0020E0F000204D
:1006B00000000000C1360408FB01010084DB0020BB
:1006C000FCF00020000000002D960008FC0109004D
:1006D00050DA002000F10020000000003D960008E4
:1006E00016023F00D0D900200CF1002000000000CD
:1006F0001D8400083400100000D900204CF10020B7
:10070000000000009536040811020800D8D8002027
:100710005CF100200000000018090008121204001B
:10072000D0D8002064F1002000000000200900085B
:1007300012201000C0D8002068F100200000000046
:1007400024090008F901040030D5002078F10020C8
:100750000000000009FE0108FA010200D0CE0020CE
:100760007CF100200000000039860008020203002E
:1007700098B8002080F10020000000000000000078
:100780000C02040084B8002084F100200000000066
:100790002985000811000C0059C3002088F10020B1
:1007A0000000000021160108FE01140034C30020DF
:0C07B00094F1002000000000ED83000820
:1007BC00000020030000000003000000AE014A010D
:1007CC005E012C0164010100000001000A019A0184
:1007DC00001E0A00000000000000000000010000E4
:1007EC0000050000010203000000000000000000F2
:1007FC000000000000000000008007000000000066
:10080C00040101006C1600000000000001351118F5
:10081C00000000050000280100000401F401140090
:10082C00E8036400040A000114001E00900100009B
:10083C0000000100000000000000000000000000AB
:10084C00000000000000000020000101000020005A
:10085C003200C800D0079600140032002800B00403
:10086C0040060005500014000F0008006400010051
:10087C00010005000A000000C40900001900000076
:10088C00000000000000000000000000000000005C
:10089C00000000000000000000000000000000004C
:1008AC000000000001000000020200000000000037
:1008BC00000000000000000000000000000000002C
:1008CC00000000000000000000000000000000001C
:1008DC00000000000000000000000000000000000C
:1008EC00000000000000000001007E05EA05B405D0
:1008FC003200E803D0070000023C24010000000095
:10090C00000000002E000000002044300000000019
:10091C0001010101FFFFFFFF00000001000005586D
:08092C005246340000080000EF
:100934001A03000000000000000000000000000096
:10094400000000000000000000000000040309048F
:10095400120100020000004083042057000201023B
:100964000301000041CE0008958500089185000828
:100974008D850008A19600088985000885850008F2
:100984002C95050855AF01081191010895BA010885
:10099400000000000000000099B70108B5B6010886
:1009A400000000000000000000000000498C010865
:1009B4002D86000821860008459C0008619C0008DB
:1009C400D9850008299C00080D9C00080068214C6A
:1009D4001F0000001C0000001F0000001E0000009B
:1009E4001F0000001E0000001F0000001F00000088
:1009F4001E0000001F0000001E0000001F00000079
:100A0400FF01FF00000004010000000000000002DC
:100A140010000000070000000000000000000000BB
:100A2400010203040607080901000000A00F0000EA
:100A3400B80B00000102FFFF01000000685E0C001B
:100A4400699201085591010831BD010800000000B8
:100A5400D18C0108E9B80108A590010861B8010822
:100A640000000000000000008D8C0108218C0108AA
:100A7400158C010865AE010881AE010849AE010874
:100A84002DAE010811AE010821920108319101082F
:100A940071BC010800000000A58C010865B80108BC
:100AA40079900108C1B701080000000000000000AF
:100AB400998C01080403090412010002EF020140A9
:100AC40083045632000201020301000012010002F5
:100AD40002020040830440570002010203010000A7
:100AE40009022000010104C03209040000020806C2
:100AF400500507058102400000070501024000007F
:100B040009026400030100C032090400000103006B
:100B140000000921110100012226000705830308B2
:100B2400000A080B0102020201000904010001028B
:100B3400020100052400100105240100020424021E
:100B4400020524060102070582030800FF090402C6
:100B540000020A00000007050102400000070581A9
:100B64000240000009024300020100C032090400EF
:100B74000001020201000524001001052401000106
:100B8400042402020524060001070582030800FF6D
:100B940009040100020A00000007050102400000E8
:100BA4000705810240000000FF00000094A405082E
:100BB4000000000000000000000000000000000031
:100BC4000000000000000000000000000000000021
:100BD4000000000000FFFF0000000000AA5505010E
:100BE4000000010068A405080000000000000000E7
:100BF40000000000000000000000000000000000F1
:100C0400000000000000000000000000FF1FFF1FA4
:100C140005010905A101A1000501093009310932C5
:100C2400093309350934094009381581257F7508C8
:100C340095088102C0C0000009022200010100E001
:100C4400320904000001030102000921110100011D
:100C54002226000705830308000A000000000000A4
:100C6400010203040102030406070809F9B9010893
:100C7400FDB8010855BD01080D8D010885920108D4
:100C84001D8D0108398D0108E58C0108D58C0108FA
:100C940000000000000000002D202D2D202D2D2D02
:100CA4002D202D2D2D2D000000000000000000003F
:100CB40000000000000000AA550B010000AA55071F
:100CC400010000AA550902000000AA5503009F0074
:100CD40001000000C012000020600020000000009D
:100CE4004460002000000000FFFF0000FFFFFFFF42
:100CF400C06206080000080205030300C862060873
:100D04000100080205040300F88606080200FE013B
:100D140001100300D062060803001402000300005F
:100D2400D862060804001F0201000800E0620608F9
:100D340005001F0201010800FFFFFFFF0100000082
:100D4400517302080000000050CB0508FFFFFFFFAD
:100D5400425702000000010642570200000001064B
:100D64000101000000010101002D202D2D202D2D59
:100D74002D2D202D2D2D000000000000000000006E
:100D8400000000000000000000000000000000005F
:100D940008E20508000000000000000094E20508D5
:100DA40001000000FA000000010000000100000042
:100DB40001010000247400200000F401010000007F
:100DC400227400200000F4010100000020740020BF
:100DD4000000F401010000001E7400200000F40172
:100DE400010000001C7400200000F4010100000058
:100DF4001A7400200000F40101000000187400209F
:100E04000000F40101000000697A02082D7A02084A
:100E1400A4CF05080E740020053201000C740020D4
:100E2400E803D007010000000A740020E803D0079B
:100E34000100000008740020E803D007010000004E
:100E4400067400201E00B80B01000000147400207A
:100E540005000F00010000001674002003000A00C2
:100E640001000000047400201E00F40101000000D1
:100E740002740020140064000100000010740020BB
:100E84003200E80301000000007400200000C800E4
:100E940001000000DA73002000C80100D9730020AB
:100EA40000500100D8730020005A0100D6730020BE
:100EB4000200000030D00508CC6B0608D46B06088D
:100EC400BAEF00200100C40900000000B8EF0020C0
:100ED4000100C40900000000B6EF00200100C409AD
:100EE40000000000B4EF00200100C409000000006D
:100EF400B0EF00200100C40900000000B2EF0020A0
:100F04000100C40900000000AEEF00200100C40984
:100F140000000000ACEF00200100C4090000000044
:100F24008171002000C801008071002000C8010008
:100F34007E7100200100C800010000007C710020C7
:100F440032003075320000007A710020055A050025
:100F54007771002000FF010079710020010000007A
:100F6400100700207571002003000000ACE805089C
:100F74007671002000FF010078710020010000005C
:100F8400100700207471002003000000ACE805087D
:100F9400D1790208757902083CD00508387400201C
:100FA400EE02CA08010000003674002000C80100E7
:100FB400640000003574002000C8010064000000D3
:100FC40034740020020000001CD105086E7100205A
:100FD40080C1803E050000006C71002080C1803E0D
:100FE400050000006671002080C1803E05000000FD
:100FF4006471002080C1803E050000005F71002004
:1010040000FF0100587100206400F4010100000099
:10101400577100200400000028D1050856710020F3
:10102400020000003CD10508FB7100200D00000007
:1010340048D10508F871002000640100F671002011
:10104400320010270A000000F57100200D00000096
:1010540048D10508F47100200D00000048D10508AE
:10106400F37100200200000080D105080000000098
:10107400000000008CD105082C5B00209CFF2C0193
:10108400000000005C750020E0150C170000000053
:101094005E75002002000000C4D1050844740020DD
:1010A4000100FF7F010000004374002002000000E3
:1010B400D0D10508FD71002003000000E0D105082F
:1010C400FC71002003000000E0D10508C873002073
:1010D4000000E80301000000C67300200000E803DC
:1010E40001000000C47300200000E80301000000B8
:1010F400C27300200000E80301000000C073002058
:101104000000E80301000000BE7300200000E803B3
:1011140001000000BD73002000140100BC73002016
:1011240003000000F0D10508D47300200000F4018E
:1011340001000000D27300200000F401010000004F
:10114400D07300200000F40101000000CE730020E1
:101154000000F40101000000CC7300200000803E78
:1011640001000000CA7300200000803E010000005E
:10117400ED73002019640100EC73002002000000EC
:1011840000D20508EA730020E803D0070A00000033
:10119400E8730020006401000A000000DD730020F1
:1011A40000640100DC73002000640100E47300208B
:1011B400006401000A000000E373002000640100E1
:1011C4000A000000E2730020006401000A0000002D
:1011D400E7730020006401000A000000E6730020A9
:1011E400006401000A000000E573002000640100AF
:1011F4000A000000E173002001FF01000A00000062
:10120400E073002001FF01000A000000DF730020EA
:1012140001FF01000A000000067200200000F40132
:1012240001000000047200200000F401010000002D
:10123400027200200000F40101000000007200208E
:101244000000F40101000000FE7100200000F40120
:10125400010000009F75002000C801009E75002059
:10126400006401009D750020006401009C7500204D
:10127400006401009B750020006401009A75002041
:10128400FF0801009975002001640100DD7802085F
:10129400A17802080CD205089875002000640100AA
:1012A400967500201400E8030100000094750020E6
:1012B400E80330750A0000009275002000C80100A0
:1012C4009175002000C801009075002000C801003D
:1012D4008F750020006401000A000000AE75002034
:1012E4000000D00701000000A875002000C801001C
:1012F400A775002000C80100A675002000C80100E1
:10130400AC7500200000D00701000000A575002086
:1013140000C80100A475002000C80100A3750020C6
:1013240000C80100AA7500200000D00701000000D9
:10133400A275002000C80100A175002000C80100AA
:10134400A075002000C80100000000009576020886
:101354007CD20508F17100203900000018D305087B
:10136400F071002000C80100EE710020E803D007EE
:101374000100000058524143455246340000000029
:10138400737100200003010072710020000301004A
:10139400E1750208A575020800D405086175020804
:1013A4001575020870D405081D760208D98802084C
:1013B400F0D405087071002001030100D17A0208FD
:1013C400A57A020800D80508A17402085D74020811
:1013D40070D80508AB760208719902080CD9050883
:1013E400CD84020800000000B4D90508D58C020899
:1013F400317B020850DA0508FD760208000000007F
:10140400D0DA0508D57702088177020834DB0508AD
:101414006578020829780208D0DB0508490A030820
:101424001979020850DC0508FF7300200106010049
:1014340045770208117702084CDD0508AF09030857
:101444003D890208BCDD0508910A0308D589020814
:10145400B8DE0508FE73002001030100657602086A
:10146400357602088CDF0508FD7A020800000000CA
:10147400F0DF0508E5740208A988020854E00508AD
:101484000000000000000000E0E005084D790208BB
:101494004D8A020860E105085271002088136F1715
:1014A400010000005471002088136F170000000031
:1014B400A65000200000000000000000A4500020FE
:1014C4000000000000000000A25000200000000006
:1014D40000000000A05000200000000000000000F8
:1014E4009E50002000000000000000009C500020DE
:1014F40000000000000000002C0500200000000097
:10150400000000002A71002002000000E8E2050843
:101514005071002088136F17010000006C5B0020DD
:1015240088136F1700000000F17302080000000028
:10153400F4E205088E7500200100000048E3050868
:101544006E5B00200100000054E30508645B00208A
:10155400020000005CE30508000000000000000039
:1015640068E30508DD7302080000000004E40508D0
:10157400000000000000000058E40508000000001E
:1015840000000000C8E40508685B0020E0150C17A3
:10159400000000000100000000000100E001000064
:1015A400FFFFFFFF0801FFFFFF0000000000803F76
:1015B400FFFFFFFF0000803F00000000000000006C
:1015C40000000000FFFFFFFFFF000000D601000045
:1015D400B80B0000010000007D0000000000803F07
:1015E4000000000000000000000000000000803F38
:1015F40000000000000000000000000000000000E7
:1016040000000000000000000000000000000000D6
:10161400000000000000803F000000000000000007
:101624000000000001000000000000002CB80020B1
:1016340008000000000000001CB8002008000000A2
:101644002C810608C8880608D4880608E08806089D
:10165400EC880608F8880608747B0608983906089A
:10166400743806088C880608B06706084C87060894
:10167400BC880608C0880608C4880608388106089D
:1016840004890608088906087C3606080C890608B9
:101694001900C800F401200308000000FFFFFFFF49
:1016A400118C01080D8C0108098C0108FD8B0108BF
:1016B400F98B0108058C0108018C01080100000068
:1016C40000600240106002400000000000000000C2
:1016D400000B0000000000000000000000000000FB
:1016E4000060024028600240010000000000000089
:1016F400060C0000000000000000000000000000D4
:10170400006002404060024002000000000000004F
:10171400100D0000000000000000000000000000A8
:101724000060024058600240030000000000000016
:10173400160E000000000000000000000000000081
:1017440000600240706002400400000000000000DD
:10175400200F000000000000000000000000000056
:1017640000600240886002400500000000000000A4
:10177400261000000000000000000000000000002F
:1017840000600240A060024006000000000000006B
:101794003011000000000000000000000000000004
:1017A40000600240B8600240070000000000000032
:1017B400362F0000000000000000000000000000C0
:1017C40000640240106402400000000000000000B9
:1017D40000380000000000000000000000000000CD
:1017E4000064024028640240010000000000000080
:1017F40006390000000000000000000000000000A6
:101804000064024040640240020000000000000046
:10181400103A00000000000000000000000000007A
:10182400006402405864024003000000000000000D
:10183400163B000000000000000000000000000053
:1018440000640240706402400400000000000000D4
:10185400203C000000000000000000000000000028
:10186400006402408864024005000000000000009B
:1018740026440000000000000000000000000000FA
:1018840000640240A0640240060000000000000062
:1018940030450000000000000000000000000000CF
:1018A40000640240B8640240070000000000000029
:1018B40036460000000000000000000000000000A8
:1018C4006C63060810840608000000006DCA040852
:1018D400A0860100040000000000000000000000D9
:1018E40000000000000000000000000000000000F4
:1018F40000000000000000000000000000000000E4
:101904006C63060820890608000000009916010887
:10191400E8030000040000000000000000000000D4
:1019240000000000000000000000000000000000B3
:1019340000000000000000000000000000000000A3
:10194400F072060800370608000000003199030809
:101954007D00000006000000000000000000000000
:101964000000000000000000000000000000000073
:101974000000000000000000000000000000000063
:101984009C62060800000000000000003175010898
:10199400E803000003000000000000000000000055
:1019A4000000000000000000000000000000000033
:1019B4000000000000000000000000000000000023
:1019C40028890608000000000000000035A404086F
:1019D40010270000030000000000000000000000C9
:1019E40000000000000000000000000000000000F3
:1019F40000000000000000000000000000000000E3
:101A0400CC620608000000000D30040821580108CB
:101A14005F760000050000000000000000000000E8
:101A240000000000000000000000000000000000B2
:101A340000000000000000000000000000000000A2
:101A440028660608000000000000000071820108FA
:101A5400102700000100000000000000000000004A
:101A64000000000000000000000000000000000072
:101A74000000000000000000000000000000000062
:101A84003489060800000000000000009B160108CD
:101A9400E803000005000000000000000000000052
:101AA4000000000000000000000000000000000032
:101AB4000000000000000000000000000000000022
:101AC40040890608000000000000000021D204083C
:101AD400204E000003000000000000000000000091
:101AE40000000000000000000000000000000000F2
:101AF40000000000000000000000000000000000E2
:101B040050890608000000000000000025D00408E9
:101B1400204E000003000000000000000000000050
:101B240000000000000000000000000000000000B1
:101B340000000000000000000000000000000000A1
:101B4400608906080000000000000000AD6801087C
:101B5400400D03000300000000000000000000002E
:101B64000000000000000000000000000000000071
:101B74000000000000000000000000000000000061
:101B840030640608000000000000000095550108BC
:101B94001027000001000000000000000000000009
:101BA4000000000000000000000000000000000031
:101BB4000000000000000000000000000000000021
:101BC400B462060800000000000000003937030872
:101BD40010270000030000000000000000000000C7
:101BE40000000000000000000000000000000000F1
:101BF40000000000000000000000000000000000E1
:101C04007089060800000000000000002105030898
:101C1400A086010001000000000000000000000098
:101C240000000000000000000000000000000000B0
:101C340000000000000000000000000000000000A0
:101C4400A06206080000000000000000693A0108D4
:101C540050C300000100000000000000000000006C
:101C64000000000000000000000000000000000070
:101C74000000000000000000000000000000000060
:101C8400A86206080000000000000000B10B030871
:101C9400A086010000000000000000000000000019
:101CA4000000000000000000000000000000000030
:101CB4000000000000000000000000000000000020
:101CC400886E060800000000000000006D3701085F
:101CD400A8610000010000000000000000000000F6
:101CE40000000000000000000000000000000000F0
:101CF40000000000000000000000000000000000E0
:101D0400788906080000000000000000A17803089C
:101D1400A086010001000000000000000000000097
:101D240000000000000000000000000000000000AF
:101D3400000000000000000000000000000000009F
:101D440030660608000000000000000021190108A8
:101D5400A00F0000010000000000000000000000CF
:101D6400000000000000000000000000000000006F
:101D7400000000000000000000000000000000005F
:101D84008489060800000000000000004968030878
:101D94001027000001000000000000000000000007
:101DA400000000000000000000000000000000002F
:101DB400000000000000000000000000000000001F
:101DC4005C640608000000000000000059150108CA
:101DD400A00F00000100000000000000000000004F
:101DE40000000000000000000000000000000000EF
:101DF40000000000000000000000000000000000DF
:101E0400386406080000000000000000DD600308DC
:101E14001A41000001000000000000000000000062
:101E240000000000000000000000000000000000AE
:101E3400000000000000000000000000000000009E
:101E44009066060800000000000000003D950108AF
:101E54001027000001000000000000000000000046
:101E6400000000000000000000000000000000006E
:101E7400000000000000000000000000000000005E
:101E8400248406080000000000000000F9A00208F5
:101E94001A410000010000000000000000000000E2
:101EA400000000000000000000000000000000002E
:101EB400000000000000000000000000000000001E
:101EC400908906080000000000000000A59B01089E
:101ED400400D0300000000000000000000000000AE
:101EE40000000000000000000000000000000000EE
:101EF40000000000000000000000000000000000DE
:101F04009889060800000000000000005716010828
:101F1400400D03000000000000000000000000006D
:101F240000000000000000000000000000000000AD
:101F3400000000000000000000000000000000009D
:101F4400A08906080000000000000000C572030814
:101F540050C3000003000000000000000000000067
:101F6400000000000000000000000000000000006D
:101F7400000000000000000000000000000000005D
:101F8400AC890608000000000000000099CF040896
:101F940040420F00000000000000000000000000AC
:101FA400000000000000000000000000000000002D
:101FB400000000000000000000000000000000001D
:101FC400B88906080000000000000000F9180108A4
:101FD40050C30000000000000000000000000000EA
:101FE40000000000000000000000000000000000ED
:101FF40000000000000000000000000000000000DD
:042004000000803F19
:1080000003685A1C02601970704700BF2DE9F047E1
:10801000089C2578002B804689460CBF4FF0200A2B
:108020004FF0300A661C25B3002A26DD334601E0F6
:10803000024698B113F8011B501E0029F8D1971E73
:1080400060B13D46013D51464046C8476B1C002B80
:10805000F8DC257827EAE770013045B1041B294692
:108060004046C847301916F8015B002DF7D1BDE82E
:10807000F087002A03DC2846F9E70020EEE7571EC8
:10808000DFE700BF2DE9F04714461D4606464FF4D2
:108090007A720023204629464FF0DCFA4D4BDFF878
:1080A00048814D4A4D4F034488FB03101844D917AB
:1080B00082FB032CC1EB601088FB002887FB0327A1
:1080C0009C44474AC1EBEC2CC0EB001E82FB0C2900
:1080D000A3EB8E0E1F44434A86F806E0C1EB274708
:1080E0004FEAEC7E08EB000ACEEBA90E82FB07827A
:1080F0004FEAE0780EEB4E0EC8EB6A18ACEBCE0CF4
:10810000C8EB0818DFF8E4E086F804C0A0EB8800AC
:1081100070718EFB0303F817C0EBE21240F2B5500A
:1081200000FB1272C1EBE353B2F5896F4FEA83078C
:108130003CDA40F2DA239A4242DCB2F5B77FB4BFB0
:108140004FF0000E4FF0010E4FEA4E09DFF8A0800D
:1081500009EB0E0308EBC3031FFA8EFCD88A09EB68
:108160000E0108EBC10116310B2301E031F8020DBD
:10817000904218DD013BF9D1CE44012338F83E008E
:10818000B37007F5FA670132121ABC44F270A6F810
:1081900000C0204629464FF47A7200234FF05AFA65
:1081A0003281BDE8F0870133DBB2E9E74FF0030C21
:1081B000E64640F29650DFF838804FF00609CEE7E9
:1081C0004FF0020CDFF82880E64640F229404FF0DD
:1081D0000409C4E780BC92C7C5B3A29107452EC26B
:1081E000ABAAAA2A73B06D1689888888792D0311E5
:1081F000809205080028F0B403DA2D230B7040426A
:108200000131092804464FF0010307DD03EB830326
:108210005B00B0FBF3F2092AF8D883B10F48A0FB4A
:108220000326B4FBF3F2092A02F1570C02F13007DE
:1082300009DD03FB1244F30801F801CBEFD1002361
:108240000B70F0BC704703FB1244F30801F8017B8C
:10825000E5D100230B70F0BC704700BFCDCCCCCC77
:10826000884270B44FF0010442D301FB04F4B0FB28
:10827000F4F58D42F9D2ECB142BB092D04FB150097
:1082800005F1570605F130020EDDB4FBF1F403F8F9
:10829000016B7CB1B0FBF4F5092D04FB150005F171
:1082A000570605F13002F0DCB4FBF1F403F8012BC2
:1082B000002CEFD100221A7070BC704703F8016BDC
:1082C000B4FBF1F4002CF5D0B0FBF4F5092D04FB60
:1082D000150005F1370605F13002EFDCB4FBF1F4CF
:1082E00003F8012B002CEFD100221A7070BC7047EC
:1082F0000546002AEAD1C0E790ED057A90ED004AE4
:10830000D0ED066AD0ED014AD0ED047A90ED035A23
:10831000D0ED025AA4EE007AB0EE406AB0EE470A01
:10832000B0EE667AA4EE867A67EEC07AA5EE407A61
:10833000E5EE867A80ED057AC0ED067A704700BFDB
:10834000D0ED057A90ED013AD0ED003AD0ED064A35
:1083500090ED024A90ED077A90ED035A90ED086A8D
:10836000D0ED045AC0ED067AF0EE406A27EE830A9B
:10837000C0ED056AA3EEA60A80ED087AA4EE240AF1
:10838000A5EE470AA5EEC60A80ED070A704700BFB2
:10839000D0ED007A90ED017A30EE670AE7EE007AD0
:1083A000B0EE670AC0ED007A704700BF704700BFAB
:1083B00030B400230221012214253424C5708471B5
:1083C0000370C3728373C3734170C1714172827051
:1083D0000272827230BC7047002306214FF47A7219
:1083E0000170C0E901230373704700BF30B402215C
:1083F00032223123102540F2FF1401724270FF2116
:10840000012243710023C5700482817402700271DD
:10841000827043818381C38130BC70472DE9F04F66
:108420003149324B83B001F5E07B01902E274FF0AC
:1084300000092F481022012603E0203098420BD07B
:1084400002799742F9D102680C68A24209D0203023
:10845000984206F10106F3D1203159453AD00F79FF
:10846000E7E744794D79A542F1D19446019A214834
:1084700009EB490502EB050A57558AF8016000F53A
:1084800072751D4E624603E0A8421AD050F82C6F58
:10849000B242F9D10679A642F6D1CF6806464FF02E
:1084A000000C96468046F268BA4216D00CF1010CD8
:1084B000BCF1030F06F10C06F5D14046A842724606
:1084C000E4D14FF0FF3C203159458AF802C009F150
:1084D0000109C4D103B0BDE8F08F08693269824256
:1084E000E4D14FFA8CFCEEE7BCF2050864070608FD
:1084F000A4FD0508640706080000014030B41522F9
:10850000162317253A243B21027043703C22FF2397
:1085100085708472C1720273C370037103724372F7
:108520004373837330BC704710B41F2101240322AE
:108530000023047041708270C3705DF8044B704773
:10854000034600F11001FF221A705A70023399425B
:10855000FAD102704270027142718272C272704727
:1085600030B41D6995420AD314460A4621448D420F
:10857000996938BF2A1B214430BC4FF009BB30BC7D
:10858000704700BF002070470120704701207047EE
:10859000002070474FF40070024B10609B680B6026
:1085A0000020704738D50020013A30B4D2B28C1C7C
:1085B00004EB42040025020F092AD3B203F1300272
:1085C0008ABF37330A700B704D7002318C424FEA0C
:1085D0000010F0D130BC70470B4A0C4B10681B6880
:1085E0001A22C0180A8001D10948704710B5094BFA
:1085F00009491C680822FFF7D7FF204604220749D3
:10860000FFF7D2FF024810BDE8F7FF1FECF7FF1F8E
:1086100088010020EAF7FF1F8A0100209A0100204C
:1086200004230B8000487047A401002012230B8014
:1086300000487047A80100202322032302704370E2
:10864000704700BF0830704708307047044A054B38
:10865000126803EB421318465B689B69184700BF1A
:1086600060180020F8CE00200448054B006803EB9A
:10867000401318465B685B69184700BF601800200C
:10868000F8CE0020704700BF816170476D4B2DE927
:10869000F04F5C686C4BB3F80AE0B3F804809A8939
:1086A0004FEA0E2AB4EB0A044FEA1E6B4FF00005A6
:1086B00087B065EB0B05CDE900450746009C18899E
:1086C000019EA0FB044500FB0655E00940EA456019
:1086D0004FEA08448C46E9114FEA184510EB0408AC
:1086E000D888009C41EB0509CDE90489A0FB04452D
:1086F000B3F8028000FB0655200A40EA05604FEA05
:10870000C83429124FEA584510EB040841EB05091B
:108710000099A2FB010102FB06114FEAD05A4AEA76
:10872000412A1AF5FA634FEAE15B4BF10004B3F515
:10873000FA6FCDE9023474F10003424E64DA052485
:10874000AAFB040104FB0B1100FB0BF40AFB014420
:10875000DDE90423A0FB0A0121444D104FEA300457
:10876000121B4FEA900463EB050344EA8174B8EBF3
:108770000408CDE90423DDE9023434484FEAA105B9
:1087800069EB05094FF0FF31834274EB010326DAF0
:1087900040F6AC501AEB00024FF000014BEB010326
:1087A00002FB03F1A2FB022303EB4103D400DD0033
:1087B000101B45EA527563EB0501DDE904452418F9
:1087C0004D41CDE904450B24A2FB040104FB031138
:1087D00049104FEA3000B8EB000869EB0109DDE908
:1087E00000325343009ADDE90201A2FB02AB0BEB1E
:1087F000430B4FEADA7242EA4B02801A4FEAEB73FC
:1088000061EB0301CDE9020197B1B168A1FB082337
:1088100001FB0933540D5D1544EAC324DDE904234B
:10882000A21A65EB03031D46D30B43EA45433B60A5
:10883000BCF1000F02D0029BCCF8003007B0BDE8BD
:10884000F08F00BF60180020587A002024FAFFFF44
:108850002DE9F04FDFF8DCC1754CDCF80C502288B4
:10886000B4F90AA0C2EB25135200C2EBE502B4F939
:1088700002505B436A43B4F904501B135D43AD13CC
:1088800005EBE225B5F5FA324FEAE57B85B04BF111
:10889000FF33CDE90023DDE900325343009AA5619F
:1088A000A2FB0289CDE90201B4F9082001990098E0
:1088B00009EB43095143D31700FB0311A2FB00232B
:1088C0000B444FEAEA7B0AFB09F11F0308FB0B1379
:1088D000AAFB080119444FEA102A4AEA016A160362
:1088E0004FEA212B47EA12571AEB0602E6884BEBB8
:1088F000070312F1000A43F5004BAAFB060106FB31
:108900000B114A10CB1752EA030100F08E80B4F924
:108910001060009806FB09F1F71708FB0711A6FB8A
:1089200008673944B4F90E808B4601994FEAE8791B
:1089300008FB01F100FB0911A8FB00898944DCF860
:1089400010104FEA4947C1F5801C47EAD837B246B4
:108950004FEA4846B4F90C801AEB060A66464BEB20
:10896000070BF7174FEAC806019600260096F9078D
:10897000DDE900674FEACC7016EB0A0647EB0B0700
:1089800041EA5C01801B61EB070140F6354C8946EA
:10899000A0FB0C010CFB09114EF05CFEB4F9162093
:1089A000B4F914A04E13470B47EAC14702FB06FC7B
:1089B000D31707FB03CCA2FB07236344564307FBF3
:1089C0000366A2FB07233344560E46EAC316321849
:1089D0004FEA636747EB010380460AFB01F14FEA68
:1089E000EA7B08FB0B17AAFB08013944C60C46EAD0
:1089F000413612EB06084FEAE147B4F9122043EB87
:108A000007094FEA182141EA096113010B44029A50
:108A10000AB11B0A1360039B23B105EB8505803562
:108A20002D121D6005B0BDE8F08F0023EFE700BFF9
:108A30006C7A002060180020704770472DE9F041E3
:108A4000334B344E9A8A7489B6F91450B6F90480BF
:108A5000B6F90E70B6F920C09B69121B34895443D5
:108A6000E213B6F912401544E40294FBF5F4B6F9AA
:108A700002501444A4F57A6E0EFB0EF20EFB05F5BF
:108A80000EFB08FEB6F90C80F4611213574302FB8B
:108A900008F2121402EB6E32ED1205EBE7270232F8
:108AA000B6F90050B6F806E0921002F5004207EB66
:108AB00085070EFB02F207FA0CF74FEAD23E0237A7
:108AC0004CF25032A3EBA70742FA0CF37B4355BF9D
:108AD0005B00B3FBFEF3B3FBFEF35B0078B11A124D
:108AE00002FB02F540F6DE326A430B4D12145D4381
:108AF00002EB254202F6CF6203EB2213036021B1A1
:108B00000A235C43083424110C60BDE8F08100BFE7
:108B100060180020347A002043E3FFFF4FF4006325
:108B200003837047012380F850307047F0B4037C12
:108B3000456902681F2B37D9203B20215468994092
:108B40000C4223D010249C40D160D4605168D9409D
:108B5000CE074ED4EFF31183502282F312882A6C91
:108B60001168C90709D45468002C52D1D5E90961AC
:108B70008E4243D1012285F86420DBB283F3118851
:108B8000037C02681F2B194614D9203B082150682A
:108B90009940084200D0D1600421506801FA03F3E3
:108BA000184223D1F0BC7047202416689C4026420E
:108BB0000FD11946082310688B40184200D09360EB
:108BC0000423106803FA01F10842EBD09160F0BC75
:108BD000704710219940946091601168D940CC078A
:108BE000B8D5012101FA03F39360B3E7D360F0BC79
:108BF0007047012101FA03F3D360ABE7AF690F447B
:108C0000D7600ED82E69711A5160AC62002185F8C8
:108C10006410116841F00101DBB2116083F3118827
:108C2000AEE7711A5160AE62F0E700BFF0B4714B6D
:108C300071491A780B789A4240F07E816F4B1A780E
:108C4000002A00F0D4806E4B19786E4B002940F05A
:108C5000DB801868B3F83261048824F080042404AF
:108C6000240C048093F83041C462058845F08005E7
:108C7000058041628489012A44EA06048481A3F8BC
:108C8000321100F0B480D3F83401B3F8666204887E
:108C900024F080042404240C048093F86442C46209
:108CA000058845F08005058041628489022A44EAEE
:108CB00006048481A3F8661200F09980D3F8680254
:108CC000B3F89A63048824F080042404240C0480FC
:108CD00093F89843C462058845F080050580416299
:108CE0008489032A44EA06048481A3F89A137ED077
:108CF000D3F89C03B3F8CE64048824F080042404E1
:108D0000240C048093F8CC44C462058845F08005A7
:108D1000058041628489042A44EA06048481A3F818
:108D2000CE1464D0D3F8D004B3F80266048824F0DB
:108D300080042404240C048093F80046C46205884F
:108D400045F08005058041628489052A44EA0604CD
:108D50008481A3F802164AD0D3F80406B3F8366724
:108D6000048824F080042404240C048093F83447FD
:108D7000C462058845F08005058041628489062A21
:108D800044EA06048481A3F8361730D0D3F83807B4
:108D9000B3F86A68048824F080042404240C048056
:108DA00093F86848C462058845F0800505804162F3
:108DB0008489072A44EA06048481A3F86A1816D035
:108DC000D3F86C28B3F89E59108820F08000000476
:108DD000000C108093F89C09D062148844F0800441
:108DE00014805162908928439081A3F89E19F0BCA9
:108DF000704700BF04A0002005A00020C83100106B
:108E0000C431001004E400205C68198961602568A1
:108E1000186845F0010540F20D312560A0F84810B2
:108E20008489012A44F480748481E0D0D3F83841E5
:108E3000B3F83C51D3F834016560256845F001056D
:108E40002560A0F848108489022A44F48074848143
:108E5000CDD0D3F86C42B3F87052D3F86802656095
:108E6000256845F001052560A0F848108489032A8B
:108E700044F480748481BAD0D3F8A043B3F8A453E7
:108E8000D3F89C036560256845F001052560A0F8CE
:108E900048108489042A44F480748481A7D0D3F8CC
:108EA000D444B3F8D854D3F8D0046560256845F0AD
:108EB00001052560A0F848108489052A44F48074CF
:108EC000848194D0D3F80846B3F80C56D3F804063E
:108ED0006560256845F001052560A0F84810848983
:108EE000062A44F48074848181D0D3F83C47B3F8D7
:108EF0004057D3F838076560256845F001052560BF
:108F0000A0F848108489072A44F4807484813FF4CF
:108F10006EAFD3F87028B3F87408D3F86C3850608B
:108F2000106840F001001060A3F848109A8942F4DC
:108F300080729A81F0BC70475C00E618484D15F8C5
:108F40003660032E3FF67AAEDFE806F04D261C02AF
:108F5000E01805EBC0004468661E012C46603FF631
:108F600046AF013303F00303D8B2824208703FF4E6
:108F700065AE03EB4303DB00EA1802200021E8544E
:108F8000516034E7E11805EBC1014868461E01282D
:108F90004E603FF62CAF0DE0E118C9006818466836
:108FA000771E012E47603FF622AF02274FF0FF36B3
:108FB0006F544660E618F600AF192A48397B0068FE
:108FC0000139C9B2397389B34FF47A722344B2FBC1
:108FD000F0F200FB02F0B0F57A7F05EBC30518BF95
:108FE00001326A602AE670B11F49012600220F890A
:108FF0000132002F18BF0026824201F58671F6D19A
:10900000002E3FF41BAE174A126842F21076E018A9
:10901000B6FBF2F102FB1162012605F8306002B1E5
:109020003144234405EBC305696007E6BF68B7FB1D
:10903000F0F100FB11700327AF5500B101311C4462
:10904000013305EBC40503F00303934269603FF469
:10905000F5AD00293FF4F2AD01396960EEE500BFDE
:1090600008A00020300E0020A4DB002010B5027CF8
:1090700001681F2A4FF020030ED94C68203A934014
:109080001C4208D00B4A406800241470026822F089
:1090900001020260CB6010BD0C6893401C42FAD004
:1090A000044A406800241470026822F00102026041
:1090B0008B60F0E758C3002010B5027C01681F2ABE
:1090C0004FF020030ED94C68203A93401C4208D040
:1090D0000B4A406800241470026822F0010202600A
:1090E000CB6010BD0C6893401C42FAD0044A406823
:1090F00000241470026822F0010202608B60F0E725
:10910000178A00202DE9F041C40023189B00B749BD
:10911000CA585268958AADB2EFB2FE070B4461D4CB
:10912000BE0737D5BFF35F8F1D7EEDB2012D00F076
:10913000BB80AF4E138BBFF35F8F231801EB83030C
:109140001D7E022D00F0CE80231801EB83031D7ECF
:10915000032D05D19B7E1BB1737F002B40F01A813C
:10916000938896F91CC043F480639380231801EB25
:1091700083031B7E013363450AD1B37F00257577D6
:10918000002B40F08A80204401EB800000234375CF
:10919000BDE8F081964E17F0040F96F91CC04DD132
:1091A00017F0400700F0B280178A1D6AFFB205F879
:1091B0000C705FFA8CF56F1C93F818E07BB2DF1C23
:1091C000BE4533779C4600F00981271801EB8707DD
:1091D0003F7EBB42CAD105F1020C4FFA8CFC86F8E7
:1091E0001CC0C3E71588824E25F400652D042D0CA4
:1091F0001580158845F4806515809D7E002737779A
:10920000002D3DD0757F002D37D0231801EB83034F
:1092100001251B7E7577022B03D1138843F400636D
:109220001380231801EB83039B7D43F0010313821A
:10923000204401EB8000037EBDE8F0819F7E757FB6
:109240004FF0010E86F81EE0002F5CD0002D78D183
:10925000231801EB83035B7E002B00F0A4801388AE
:109260000CF1010C4FFA8CFC43F4007386F81CC01F
:1092700013801388DF05FCD478E7DB7DFF2BC4D097
:10928000231801EB83039D7D05F0FE051582DB7D30
:10929000FF2BCDD0FF233377CAE7938823F44073A5
:1092A0001B041B0C93806EE79B7E514E002B3FF4FA
:1092B00041AF737F002B3FF43DAF138823F48063ED
:1092C0001B041B0C1380BFF35F8F138B1388B577C0
:1092D00043F400731380938896F91CC043F48063B1
:1092E000938043E79B7E002B3FF42EAF737F002BD0
:1092F0003FF42AAF138896F91CC023F480631B0443
:109300001B0C138016E0002DA2D0A8E72D067FF5D8
:109310002DAFBCF1FF3F6DD0DD6915F80C50158203
:109320000CF1010C1D7E4FFA8CF39D429C46337765
:109330007FF41CAF938823F480631B041B0C938081
:1093400014E71F7ED3F820805FFA8CF5AE44022F1D
:109350004FFA8EFE17882DD927F480673F043F0C03
:109360001780178AFFB208F80C701788D3F820C04E
:1093700047F400731380138ADBB20CF80E30938825
:1093800005F1020C4FFA8CFC43F4806386F81CC094
:1093900093806EE7938896F91CC023F480631B04C6
:1093A0001B0C9380E2E61388012543F4807313803D
:1093B00075775EE747F400771780178AFFB208F8E1
:1093C0000C70178AD3F8208005F1030C4FFA8CFC3F
:1093D000FBB286F81CC008F80E304AE7978827F4DD
:1093E00080673F043F0C9780EFE600BF50B7002036
:1093F00060180020DD7D15829D7E37771DB91B7EAC
:10940000002B7FF415AF938823F480631B041B0C9F
:1094100093800DE71BF0B6BB38B51D4B1B78044697
:1094200000F1250593B104221A4920304FF012FFB4
:109430002846142218494FF00DFF012384F83A30D2
:10944000164B1B7873B984F83B3038BD284614227C
:1094500013494FF0FFFE012384F83A300F4B1B787D
:10946000002BF0D00F4B186859689A68DD68E560EA
:1094700020606160A260DD69186959699A69A2611A
:109480000123E5612061616184F83B3038BD00BF94
:10949000F8B60020B8B60020A0B60020F9B600202B
:1094A00088130608C0B60020014B18681AF03CBBB0
:1094B000584500200023012282710360037143712B
:1094C000C37170472DE9F84FDDE90A6489461746F4
:1094D00000212022984605464FF07EFE5EB1D6E977
:1094E00000327189EB81C3F30F432B82C2F30F4328
:1094F000EA822B83698248464DF0B6FB17F0100BC9
:1095000010D1431E70B119F803202E2A18BF09EBA1
:10951000030104D14AE011F8016D2E2E3ED013F163
:10952000FF33F8D208280246CA46A8BF08224FF0E7
:10953000000B4FF020336B602B60C5F807304946B5
:10954000284605F108064EF023FB5A4651463046A0
:109550004EF01EFB6B1EE81D13F8012FA2F16101F6
:1095600019299CBF203A1A708342F5D105F10B01ED
:1095700016F8013BA3F16102192A9CBF203B06F8B3
:10958000013CB142F4D11823C8F30F42EF722B73A0
:10959000A5F81A80AA82EC61BDE8F88FC01A00F124
:1095A000FF3BBBF1030FA8BF4FF0030B082B03F1E8
:1095B000010AA8BF0823CA441A46BAE738B53022C0
:1095C00000214FF009FE0346642440F2DC5040F2D3
:1095D0001A4140F26C7240F202251C745882132426
:1095E00019209982DA8240F2753140F643021D83D8
:1095F0009C760E2502241877D9830A201E211A840E
:10960000012283F82D0083F82E1083F8225083F86E
:109610002C409A7383F8252083F82B2019460248A2
:10962000BDE838403AF0ECBF9413060810B50021AD
:109630000446012019F052FC207010BD38B50024FA
:109640000472451EE1B2022019F048FC0134082CD6
:1096500005F8010FF6D138BD38B500240546048061
:109660002146284601342EF01BFB082CF8D100219E
:1096700085F8E210A5F8E410A5F8E610A5F8E810C2
:10968000A5F8EA10A5F8EC10A5F8EE10A5F8F01072
:10969000A5F8F2102846BDE838402EF0C3BA00BF46
:1096A0002DE9F04F002087B00C461D46012192465F
:1096B0001AF0C6FC002D63D005EB0A03DFF8D09446
:1096C000DFF8D0B4039355461CE0002D00F0C581AF
:1096D000D9F81430AB4264D0D9F81030AB4200F066
:1096E0009780D9E90631AB4252D8A94200F26F8186
:1096F000691A204649F052FF039B01359D4204F54B
:1097000000743DD0D9F82060AE42DED8D9F8308060
:10971000AE1B4FEAD60AD8F830300AF1020A9A4551
:1097200006F0070603D3D8F838309A4509D94146E0
:10973000504649F001FF8046002800F04D81C9F8ED
:10974000300098F80430002B40F0E280D8F8287000
:10975000002F00F0DF81D8F83030D8F80C20AAEBC9
:10976000030A06EBCA0A4346204602EB4A224FF49C
:109770000071B847039B01359D4204F50074C1D1C7
:10978000002108461AF05CFC002007B0BDE8F08F0D
:10979000A942ADD94FF40072002120464FF01CFDC4
:1097A000AAE7522261204123002622706270A07035
:1097B000722284F8E70184F8E631D9F82800E370D2
:1097C0004FF0FF33314684F8E42184F8E521C4F8F2
:1097D000E8014FF4F07284F8EC3184F8ED3184F84C
:1097E000EE3184F8EF31201D4FF0F6FC55216FF07B
:1097F0005502C4F8F061C4F8F461C4F8F86184F863
:10980000FC6184F8FD6184F8FE1184F8FF2173E7A0
:109810004FF40072002120464FF0DEFCD44BD54FB0
:1098200003CBEB23022223704FF0080C9026F82381
:109830004FF0580EC4F80300227484F80DC0C4F829
:10984000071084F801E0A6706375D9F81010D9F8F4
:109850000830D9F81C602273591A21624FF0FF3189
:1098600000233F20A1763E21A273E372E373637469
:10987000A374E3742375A375E3756376E376637766
:10988000A377E3772076217784F82C2007CFD9F8C7
:10989000187084F82830F61B84F8293084F82A30B0
:1098A00084F82B3084F82D3084F82E3084F82F3053
:1098B00084F8313084F8323084F8333080236662A3
:1098C000C4F8470004F1470684F840302920942367
:1098D000A94F84F846C084F8420084F843300E2033
:1098E0000D234FF0010C84F8440084F8453084F8CF
:1098F00030C0716003CF33465527AA269A60C4F85A
:109900005200C4F8561084F8FE7184F8FF61F3E643
:109910004FF40072002120464FF05EFCD8F8403032
:10992000002E61D104F12007002B77D0D8F8303019
:1099300092491122CDE900662046FFF7C3FDD8F811
:1099400040301A6C04F1400A002A79D01B6B8C4914
:10995000CDE9006638461122FFF7B4FDD8F844601F
:10996000002E3FF4C9AE4FF4E078CDE904450CE099
:109970000024CDE900C4FFF7A5FDB66CBA46A8F1F6
:1099800020080EB3B8F11F0F1ED93468356B96F856
:1099900004E011222B46214650460AF1200706F129
:1099A0001C0CBEF1000FE3D172793369019342F0D0
:1099B00021022B46CDF800C0FFF784FDB66CBA46F5
:1099C000A8F12008002EDDD1DDE9044594E6E91A6E
:1099D000204649F0E3FD8FE6231F04F5FE7243F8AD
:1099E00004BF9A42FBD187E6002BD8F844200CBF75
:1099F00001230223C3EB0613002A3FF47DAE966CCD
:109A0000013B002E3FF478AE013BB66CF9D1002E3D
:109A10003FF472AEA2464FF40078A6E7CDE90066A7
:109A20003346D9F80C1008222046FFF74BFDD8F832
:109A30004460002E3FF460AEBA464FF4F07894E7ED
:109A4000CDE900663346384611224D49FFF73AFD0D
:109A5000D8F84460002E86D14EE64FF400722946B5
:109A600020464FF0B9FB80220C2384F8BE2184F8F5
:109A7000C231D9F81000434BD9F8086084F8B851C6
:109A800083FB0032C117C1EB2232B2F5806F84F83C
:109A9000B95184F8BA5184F8BB5184F8BC5184F8A8
:109AA000BD51C4F8C601C4F8CA6142DBFF2384F883
:109AB000BF3184F8C13184F8C031324B711E83FB51
:109AC0000132CE17C6EB2232B2F5806F29DA2E4B67
:109AD00084F8C52183FB01030B442C48C6EB6313B8
:109AE000C3EB831680FB0370891B1844DE179210AA
:109AF00022F03F020131C6EBE0100A43034484F830
:109B0000C42184F8C3315522AA2384F8FE2184F8A5
:109B1000FF31F1E539464FF4007220464FF05CFB0F
:109B2000EAE5FF2384F8C33184F8C53184F8C431F1
:109B3000E9E7154B84F8C12183FB00730344134FFD
:109B4000C1EB631387FB0317C3EB831C9110A0EBDE
:109B50000C02F818DF1721F03F010132C7EBE010CB
:109B60000A43034484F8C02184F8BF31A5E700BF4D
:109B7000A8130608B4130608C4130608A0130608A1
:109B8000A413060897554541832008828180808070
:109B900038D50020DEADBEEF08B5012012F026FC5E
:109BA000174A936803F00C03042B1ED0082B18D11E
:109BB00051685368490203F03F0319D452681148B1
:109BC000B0FBF3F0C2F3881300FB03F00C4B0E4A1A
:109BD0005B68C3F3014301335B00B0FBF3F010603B
:109BE00008BD094B074A1A6008BD074B186008BD3D
:109BF000B0FBF3F05368C3F3881300FB03F0E5E711
:109C0000003802400024F400A0B8002010B5044C35
:109C100004480A46214611F0D5F8204610BD00BF81
:109C200080180020D013060810B5044C04480A46DA
:109C3000214611F0C7F8204610BD00BF8018002053
:109C4000E013060810B5044C04480A46214611F0FA
:109C5000B9F8204610BD00BF80180020EC1306089C
:109C60000A4608B5054920B1054811F0ABF803488C
:109C700008BD044811F0A6F8004808BD801800206F
:109C80001814060800140608F8B584894FF6FF7604
:109C90004FF47A7433B319B30F78013101E0B44251
:109CA00018D00589013CAD07A4B2F8D5BCB28481B7
:109CB0004FF47A7402E0BCB2B4420BD00589ED07D0
:109CC00004F1FF37F7D58589ADB20AB115700132BD
:109CD000013BDFE71AF01CFD003018BF0120F8BD82
:109CE000FF27DEE70120F8BD30B5437F83B004468F
:109CF0001BB90120637703B030BD0523ADF80430F4
:109D0000056800BFA8681AF04BF96A4601A902234A
:109D10006868FFF7B9FFA8681AF048F900BF9DF816
:109D2000013003F0010383F00100637703B030BD1D
:109D3000F8B5074C05460F46266803E023689B1BD1
:109D4000BB4204D82846FFF7CFFF0028F6D0F8BD65
:109D5000E0C20020F0B5077F83B004464FF0030C4B
:109D60000020009016461D468DF804008DF800C0B6
:109D70006FB30B0E8DF801300DF10203080C0A0AC7
:109D800099701870062120465A70FFF7D1FFE0B194
:109D9000236800BF98681AF003F9237F2268002B1C
:109DA00014BF05230423694650680022FFF76CFFA7
:109DB00023683246002158682B46FFF765FF236869
:109DC00098681AF0F3F800BF284603B0F0BD0DF113
:109DD0000103D3E7F0B5876983B0064617B13B6846
:109DE000BA885A837069DFF8A8E08389C3244FF4E6
:109DF0007A734FF0060C6D464FF6FF710EF1010EAF
:109E000003E0013B9BB28B4220D002899207F8D538
:109E1000A3B283814FF47A7302E0A3B28B4215D0D0
:109E20000289D20703F1FF34F7D5828992B20DB1CE
:109E30002A700135BCF1000F0BD00CF1FF3CFF2460
:109E4000BEF1000FE1D09EF80040D7E71AF060FCA9
:109E5000B76917B13B68BA881A839DF805009DF869
:109E600001509DF802109DF803409DF804209DF8D4
:109E7000063041EA052143EA002342EA0422012098
:109E8000A6F85010A6F85220A6F8543003B0F0BD42
:109E9000E09205082DE9F04F87B0A94A029040688A
:109EA000038823F040031B041B0C0380038823F06A
:109EB00038031B0490424FEA134300F03F8102F540
:109EC000806290420CBF3022382213430380029BF1
:109ED00002889B6842F04002028013B11A689B8896
:109EE0005383838940F2E93302E0002B00F0908134
:109EF0000289013B12F0020F9BB2F6D06B238381E3
:109F000040F2E93302E0002B00F082810289013B3C
:109F100012F0010F9BB2F6D08389838940F2E933B6
:109F200002E0002B00F071810289013B12F0020F68
:109F30009BB2F6D08023838140F2E93302E0002B0C
:109F400000F063810289013B12F0010F9BB2F6D051
:109F50008389029B9B6813B11A689B88138306232D
:109F6000784CDFF8EC81DFF8ECA1774D774E049365
:109F70009623DFF8E4C101934FF0100EDAF80430B5
:109F8000C3F30803002B40F0B280EFF31183002BE2
:109F900040F0AD802068AA6823689842FAD13368FF
:109FA0009A42F7D8D8F800704FF47A7101FB07F3A2
:109FB0009B1AB3FBF7F301FB00304FF47A774FF0B5
:109FC0000109DAF80430C3F30803002B70D1EFF372
:109FD0001183002B6CD12368A96822689342FAD1BF
:109FE00032689142F7D8D8F8002007FB02FBABEBB0
:109FF0000101B1FBF2F107FB03131B1AB3F57A7FE2
:10A00000DFD3019B013B0193B8D1029B9B6813B145
:10A010001A689B885383029B586840F2E93382890F
:10A0200002E0002B00F085800289013B12F0020F54
:10A030009BB2F6D0F523838140F2E93301E0002B97
:10A0400077D00289013B12F0010F9BB2F7D08389D0
:10A05000838940F2E93301E0002B67D00289013B9C
:10A0600012F0020F9BB2F7D0FF23838140F2E93355
:10A0700001E0002B5AD00289013B12F0010F9BB284
:10A08000F7D08389DBB20393029B9A6812B11368FD
:10A0900091881983039B682B60D0049B013B13F0CC
:10A0A000FF0304937FF464AF184607B0BDE8F08F58
:10A0B000EFF311818EF31288D5F808B02B68DB031B
:10A0C00044BFCCF80090D5F808B02368DCF8002035
:10A0D000C9B281F31188D8F80010134407FB01F2CC
:10A0E000A2EB0B02B2FBF1F207FB032385E7EFF3D0
:10A0F00011838EF31288AF682A68D20303D5012238
:10A10000CCF80020AF682068DCF80090DBB283F365
:10A110001188D8F800104FF47A72484402FB01F31A
:10A12000DB1BB3FBF1F302FB003046E71AF0F0FA59
:10A13000AAE71AF0EDFA029B586889E73022C4E6D4
:10A1400000380040E0C2002010E000E0E8C200203B
:10A15000E4C2002000ED00E0DCC2002012B1136870
:10A1600092885A83029B586840F2E933828901E061
:10A17000002B45D00289013B12F0020F9BB2F7D0B1
:10A180008C23838140F2E93301E0002B38D002892F
:10A19000013B12F0010F9BB2F7D08389838940F213
:10A1A000E9330289013B12F0020F9BB215D1002B5B
:10A1B000F7D11AF0ADFA029B9B6813B11A689B881D
:10A1C0001383059B142B04D3182B17D9543B062B50
:10A1D00014D9002007B0BDE8F08FFF23838140F23F
:10A1E000E93301E0002BE4D00289013B12F0010FBA
:10A1F0009BB2F7D08389DBB20593DCE7032054E7F9
:10A200001AF086FA029B5868C8E71AF081FAA0E6AD
:10A210001AF07EFA029B58687FE610B500F10C0434
:10A220000022212120461AF0C7FBFC2220212046D3
:10A230001AF0C2FB4022242120461AF0BDFB0C225A
:10A24000232120461AF0B8FB0022222120461AF0D2
:10A25000B3FB642019F08CF8012010BD10B500F19B
:10A260000C0401220B2120461AF0A6FB20B11D226E
:10A27000092120461AF0A0FB00F0010010BD10B526
:10A2800000F10C047022002120461AF095FB2022D8
:10A29000012120461AF090FB0022022120461AF0EC
:10A2A0008BFB642019F064F8012010BD01224821C5
:10A2B0001AF082BB012258211AF07EBB3122F42110
:10A2C0001AF07ABB044B93F820209201343202F04A
:10A2D000FC02F4211AF070BB347A00202E22F42103
:10A2E0001AF06ABB13B506230C466A4628210C30C7
:10A2F0001AF036FAF0B19DF801309DF8002042EADC
:10A30000032204219DF8033012B292FBF1F2228065
:10A310009DF8022042EA032212B29DF8043092FB1B
:10A32000F1F262809DF8052043EA02231BB293FB01
:10A33000F1F3A38002B010BD7FB5002500F10C063B
:10A340000C460D804D808D8001230DF10702062102
:10A3500030461AF005FA10B9002004B070BD9DF81F
:10A3600007305B07F8D5062302AA294630461AF0C3
:10A37000F7F90028F0D09DF809209DF8083043EA4D
:10A38000022323809DF80B209DF80A3043EA022324
:10A3900063809DF80D209DF80C3043EA0223A380D2
:10A3A000DBE713B506230C466A4603210C301AF08E
:10A3B000D7F9A0B19DF800209DF8013043EA0223AF
:10A3C00023809DF802209DF8033043EA0223A380F6
:10A3D0009DF804209DF8053043EA0223638002B013
:10A3E00010BD07B5032301AA00211AF0B9F99DF8A1
:10A3F00005309DF804001B0243EA00439DF8060067
:10A40000184303B05DF804FB08B5FFF7EAFF014B02
:10A41000986008BD6018002008B5FFF7E2FF014B07
:10A42000586008BD6018002007B506236A46F7216A
:10A430001AF096F99DF801309DF800100B4A1B01A7
:10A4400043EA01339DF8021043EA111313619DF8AA
:10A4500004309DF803101B0143EA01339DF80510F9
:10A4600043EA1113D36003B05DF804FB60180020C9
:10A4700007B5032301AAF6211AF072F99DF80530F9
:10A480009DF804201B0243EA02439DF80620134373
:10A49000054AB2F92020C2F10802D340034A936171
:10A4A00003B05DF804FB00BF347A00206018002080
:10A4B00007B5022301AAF6211AF052F99DF80420EB
:10A4C0009DF8053043EA0223024A938203B05DF807
:10A4D00004FB00BF6018002070B582B0044606235C
:10A4E0000C306A463B211AF03BF9A8B19DF80400F4
:10A4F0009DF800609DF801109DF802509DF8032022
:10A500009DF8053041EA062143EA002342EA05228C
:10A510006183A283E383012002B070BD2DE9F84F6F
:10A52000037C02681F2B86BF203B516811682022E4
:10A5300002FA03F30B4214BF012300230BB9BDE859
:10A54000F88F4569DFF87092044618F061FE4FF409
:10A55000867303FB059306465A7C002A30D1854951
:10A560005A6809781768C1B9D3F8801058890A6801
:10A5700022F001020A60BB8923EA0003BB817E4B03
:10A580001B78002B30D1237C21681F2B11D820226F
:10A5900002FA03F38B60BDE8F88F5269136823F069
:10A5A00001031360BB8923F480731B041B0CBB8164
:10A5B000E5E7203B202202FA03F3CB60BDE8F88FE9
:10A5C000D3F880606D485F8901229A7431685A68B7
:10A5D0000368156821F001013160AA89013322EA7C
:10A5E0000702AA810360CEE74FF4867303FB05934D
:10A5F000634AD3F88080D8F8003023F00103C8F80C
:10A6000000300023C8F800309045C8F80430C8F87E
:10A610000830C8F80C30C8F810304FF02103C8F8E3
:10A62000143000F08780574B98457ED0564B9845A4
:10A6300000F08480554B984500F08580544B984538
:10A6400000F08680534B984500F08680524B984529
:10A6500000F08680514B984500F08680404611F00E
:10A66000CDFD4FF4867A0AFB05FA09EB0A050123B2
:10A670006B74D5F884B018F0CBFD3B88CBF82C0177
:10A6800023F080031B044FF0FF321B0C3B80FA6267
:10A690003B880AF1340143F080033B80494438464B
:10A6A00011F0FCFED5E915702B6CD5F850C0D5E93A
:10A6B00017123B4303430B4313436A6E6F6FD8F883
:10A6C000000037491343AA6E1343AA6F3B4301406E
:10A6D00013430B430022EA64C8F80030D5E91B306D
:10A6E000D8F81410D5F880206F6C21F007010343CF
:10A6F0000B43A86C95F87C10C8F81430C8F804C057
:10A70000C8F80870C8F80C0051606B6811681868C8
:10A710006D8941F00101116083892B43838118F019
:10A7200077FD204B801B18602DE74FF4746243F8CF
:10A73000202C96E71C4B3D229A6092E74FF474124E
:10A7400043F8382C8DE74FF0746243F8502C88E7BB
:10A75000164A43F8642C84E7154A43F87C2C80E7BA
:10A76000144A43F8942C7CE74FF03D5243F8AC2C4C
:10A7700077E700BFC4310010C031001068A000208E
:10A780001060024028600240406002405860024071
:10A790007060024088600240A0600240B8600240E1
:10A7A0003F801CF060000010006002403D0000206F
:10A7B000400F002000003D20A4DB002020B10078E5
:10A7C000B0FA80F0400970470120704708B5202199
:10A7D0004EF019FD0346184623B10278202A03F1F2
:10A7E0000103F8D008BD037903F01803082B0AD041
:10A7F00002D82BB100207047102B14D0182BF9D1A0
:10A80000B0F80B007047104BB0F80B0093F9003014
:10A81000591C06BF0D4B1B78DBB203EB831300EB17
:10A82000430080B270470A4BB0F80B0093F9003038
:10A830005A1C06BF054B5B78DBB203EB031300EB3E
:10A84000430080B2704700BF41050020C0D80020FF
:10A8500040050020F0B5067906F0E003402B09D151
:10A8600044794FF0FF350023012006F00706A3428C
:10A870000BD1F0BD602B08BF45794FF001040CBF30
:10A8800004FA05F54FF0FF35EDE7042E0CD8DFE8AC
:10A8900006F0030D18242E0030B1C85CD75C784058
:10A8A00028420CBF012000200133E0E70028FBD044
:10A8B000C856D756A0EB070CDCF1000040EB0C00AB
:10A8C000F2E70028F0D031F8130032F81370784026
:10A8D00028420CBF01200020E6E70028E4D031F92F
:10A8E000130032F91370C71B78427841DCE7002867
:10A8F000DAD051F8230052F82370784028420CBF78
:10A9000001200020D0E7024B014618681AF03AB93E
:10A910004C44002038B5064D441E14F8011F286829
:10A9200019B9BDE838401AF0A5B81AF02BF9F4E7C8
:10A930004C4400200048EDE75D2D060808B5FFF700
:10A94000E9FFBDE80840F5E710B504460348FFF706
:10A95000E1FF2046BDE81040F0E700BF9412060872
:10A9600008B532B1C30600D519B11046FFF7ECFFA8
:10A970000022104608BD38B5074C084DAC4203D341
:10A98000074B00221A7038BD6288D4E901014DF0EE
:10A99000FFF81434F2E700BF90010008BC0700087C
:10A9A000A470002038B5074C074DAC4203D3074BC9
:10A9B00001221A7038BD6288D4E901104DF0E8F820
:10A9C0001434F2E790010008BC070008A4700020CE
:10A9D000024A136823EA00001060704700EE00206E
:10A9E000DFED2E7AB4EEE70AF1EE10FA4ADDDFED84
:10A9F0002C6A9FED2C7A01E0B0EE670AB4EEC70A2C
:10AA0000F1EE10FA70EE667AF6DC9FED277AF4EE3E
:10AA1000C77AF1EE10FA3ED5DFED216A9FED237A79
:10AA200001E0F0EE407AF4EEC77AF1EE10FA37EE7C
:10AA3000A60AF6D4DFED1E7AB4EEE70AF1EE10FABC
:10AA400014DDDFED167A37EEC00A60EE006A9FED86
:10AA5000196A9FED197ADFED197AA6EE867A20EE53
:10AA6000266AE6EE877AA6EE270A7047DFED147AAB
:10AA7000B4EEE70AF1EE10FA44BFDFED0B7A37EEE1
:10AA8000C00AE2E79FED087AF0EE407AF4EEC77A6A
:10AA9000F1EE10FAC0D4B0EE670ACBE7DB0F494005
:10AAA000DB0FC940E4CB1641DB0F49C0E4CB16C134
:10AAB000DB0FC93F92E741B99730083C15A82ABE81
:10AAC000DB0FC9BFF0EEC07AB0EEE07AB4EEE77A01
:10AAD000F1EE10FAB4BFB0EE676AB0EE476AB5EEB9
:10AAE000406AF1EE10FA46D0B4EEE77AF1EE10FAD1
:10AAF0008CBFF0EE675AF0EE475AC5EE866A9FEDBE
:10AB00001F3A9FED1F6A9FED1F4A9FED1F5ADFED11
:10AB10001F3ADFED1F4ADFED1F5AA6EEC36AE6EECD
:10AB2000A34AA6EE864AB7EE006AA6EE845AA6EEBF
:10AB3000A46AE6EE855AC5EE866AB4EEE77AF1EECF
:10AB400010FA48BFDFED147AF5EEC00A48BF77EE81
:10AB5000E66AF1EE10FA48BFDFED107AB5EEC00AF2
:10AB600048BF77EEE66AF1EE10FA48BFF1EE666A8A
:10AB7000B0EE660A7047DFED076ADEE739094E3D41
:10AB8000E3B59E3E88FA163E45FE7F3F99FB243F83
:10AB900069A2163EA7DFA834DB0FC93FDB0F49408F
:10ABA000DFED317A30EE277AFDEEC76A16EE903A85
:10ABB0002033402B02D99FED2D0A7047B4EEE70AEF
:10ABC000F1EE10FA4DDD9FED2A6ADFED2A6A01E011
:10ABD000B0EE677AB4EEE67AF1EE10FA77EE467AE6
:10ABE000F6DC9FED257AF4EEC77AF1EE10FA35D552
:10ABF000DFED1F6A9FED217A01E0F0EE407AF4EE7E
:10AC0000C77AF1EE10FA37EEA60AF6D4DFED167A1F
:10AC1000B4EEE70AF1EE10FA1BDCDFED197AB4EEC0
:10AC2000E70AF1EE10FA44BFDFED137A37EEC00AFF
:10AC300060EE006A9FED136A9FED137ADFED137AE1
:10AC4000A6EE867A20EE266AE6EE877AA6EE270A38
:10AC50007047DFED0F7A37EEC00AE9E7B0EE670A1A
:10AC6000D4E7F0EE477ABCE7DB0FC93F00000000F5
:10AC7000DB0FC940E4CB1641DB0F49C0E4CB16C162
:10AC8000DB0FC9BF92E741B99730083C15A82ABE2F
:10AC9000DB0F494010B44C09012250F8243001F078
:10ACA0001F0102FA01F123EA010340F824305DF8A4
:10ACB000044B704710B44C09012250F8243001F0C5
:10ACC0001F0102FA01F10B4340F824305DF8044BF8
:10ACD000704700BF4B0901F01F0150F823200123EA
:10ACE00003FA01F1114214BF18460020704700BF5B
:10ACF0002DE9F043002489B006460D461F46A046C4
:10AD000005E025290CD030460134A847039A531C8E
:10AD1000039311780029F4D1204609B0BDE8F083EF
:10AD2000931CCDE903385078302842D0A0F130038D
:10AD3000DBB2092B4FF0000945D96C282AD06428D2
:10AD400073D019D9732858D063D9752840F0828000
:10AD500007F1040C386805AB00220A216746FDF7AD
:10AD60007FFA05AB049A009329464B463046FDF71F
:10AD70004DF9039A0444CAE725283CD051D95828F4
:10AD80006BD06328C2D139783046A84704370134E4
:10AD9000039ABCE7039B5A1C03921B78642B52D086
:10ADA00016D8252B27D064D9582B18D0632BEAD07E
:10ADB000ADE7D31C03939078A0F13003DBB2092BED
:10ADC0004FF00109B9D804AA03A948F039FCB4E747
:10ADD000732B12D051D9752B2DD0782B97D1A3F18D
:10ADE0005802B2FA82F23868520905AB10210437D2
:10ADF000FDF736FAB5E7252185E73B68049A00930D
:10AE0000294600233046FDF701F904370444039A2C
:10AE10007DE76E287FF47AAF039A3B6804371C60A5
:10AE200075E700283FF478AF70E7386805A9FDF7AB
:10AE3000E1F9043795E7386805AB00220A21FDF7F0
:10AE40000FFA04378DE73B1D386805A91F46FDF74B
:10AE5000D1F986E778287FF459AFA0F15802B2FA09
:10AE600082F23868520905AB1021FDF7F9F9043771
:10AE700077E7002B3FF450AF49E76E2BCDD046E784
:10AE800010B5064C0B46024605492068FFF730FF17
:10AE90002068BDE8104019F0EDBD00BF4C44002013
:10AEA0001594000838B504460D460848FFF732FDF2
:10AEB00029462046FFF7E4FF0548FFF72BFD054B29
:10AEC0001B7813B1044B01221A7038BD9912060881
:10AED000E8270608A8450020A94500200FB407B5BB
:10AEE00004A951F8040B0191FFF7DCFFFFF722FDE5
:10AEF00003B05DF804EB04B0704713460A46014600
:10AF00000048EBE7A41206080048E7E7BD12060870
:10AF10000FB407B504A951F8040B0191FFF7C2FF64
:10AF200003B05DF804EB04B070470FB407B504A993
:10AF300051F8040B0191FFF7A3FFFFF7FBFC03B0EF
:10AF40005DF804EB04B070470FB407B504A951F8DD
:10AF5000040B0191FFF794FF03B05DF804EB04B01C
:10AF600070472DE9F843037903F0E001202928D048
:10AF700002D849B1BDE8F883402945D06029F9D10C
:10AF80002448BDE8F843D0E703F00703022B02D0C2
:10AF9000042B08D06BB9B0F80720B0F805101E4894
:10AFA000BDE8F843C1E7D0F805201B48BDE8F843E9
:10AFB000BBE7B0F90720B0F905101748BDE8F84322
:10AFC000B3E74579154E1648FFF7A4FC06EBC5021A
:10AFD000002492F804800123A04502D8BDE8F8437C
:10AFE000A8E456F8357057F824204FEA84094AB18E
:10AFF00013B90C48FFF78EFC57F809100A48FFF701
:10B00000A3FF00230134E7E741790848BDE8F8438E
:10B010008BE700BF05130608C912060838AB050800
:10B02000E0120608F1120608F5210608F4120608D7
:10B030002DE9F0411746027902F0E003402B054666
:10B040000E462BD10024584FDFF8808115E02B7974
:10B0500003F00703022B15D0032B19D0012B14BFCB
:10B06000315D31573846FFF76FFF6B79013BA342E3
:10B0700002DD4046FFF74EFC01346B79A342E6DC6B
:10B08000BDE8F08136F814103846FFF75DFFECE7B5
:10B0900036F914103846FFF757FFE6E702F00702CB
:10B0A000042A5DD8DFE802F0031D25272A00347842
:10B0B000202B3AD06DD8002BE2D1B5F80560B5F859
:10B0C000078039482146FFF73FFFB44240DB444543
:10B0D0003EDC002FD4D0424631463448BDE8F04132
:10B0E00032E796F90040202B1FD052D8002B3DD0DC
:10B0F000C6E73488DCE7B6F90040F4E7D6F800800C
:10B10000202B444611D044D8002BB9D141462648C3
:10B11000FFF71AFFD5F80510884519D8002FAFD0D2
:10B120002348BDE8F0410FE700246A79214B03EB87
:10B13000C2010979A1420BDD53F8323053F82400E3
:10B14000BDE8F041FFF7E6BB1B48BDE8F041FBE678
:10B15000FFF7F0FB224629681848BDE8F041D7E622
:10B16000202BE1D007D8002B8AD11C46B5F9056009
:10B17000B5F90780A5E7602BE6D0802B80D1317828
:10B180000F4B1048002914BF31461946BDE8F04165
:10B19000DAE6602BF1D16A791441E307D4D50A4885
:10B1A000BDE8F041D0E600BFDD1206082722060800
:10B1B0001F13060838AB0508777D06082513060817
:10B1C0001D7F0608F52106081A1306081D13060838
:10B1D0000CB407B510F020000BD079B92320FFF78D
:10B1E00092FB05A904980191FFF74AFEFFF7A2FB25
:10B1F000012003B05DF804EB02B070470020F8E7CF
:10B200000CB4C30607B500D561B905A9049801912E
:10B21000FFF736FEFFF78EFB012003B05DF804EB6D
:10B2200002B070470020F8E72DE9F04F904687B054
:10B230000C461A4600210746FFF792FB4546824618
:10B240000026B8F1000F6AD02946062220464DF0AC
:10B250009BFF0028524614BF0121002138460CBF35
:10B260004FF001094FF00009FFF77AFB824628787A
:10B2700042F0E6FB8346687942F0E2FBBBF1000F47
:10B280001CD0AB78EA789BF808E095F801B04FF451
:10B2900061714FF0190C1CFB03131CFB021229797E
:10B2A00000B1007ACDE90410CDE90232CDE900EB1E
:10B2B00033461C4A49463846FFF78AFF207842F059
:10B2C000BFFB8346607942F0BBFBBBF1000F1CD093
:10B2D000A378E2789BF808E094F801B04FF461712C
:10B2E0004FF0190C1CFB03131CFB0212217900B157
:10B2F000007ACDE90410CDE90232CDE900EB334606
:10B30000084A49463846FFF77BFF0136142E04F100
:10B31000060405F1060594D107B0BDE8F08FC146DB
:10B32000CCE700BF3F1306080EB400B584B005ABF0
:10B33000019053F8042B0649039301A8FFF7D8FCAA
:10B34000019B00221A7004B05DF804EB03B0704753
:10B350000180000870B406688E4217D90139751E45
:10B36000002311F8014F0822634013F0800F4FEAC9
:10B37000430318BF83F0D503013ADBB2F5D18D4208
:10B38000EFD1721C0260337070BC7047721C0023D6
:10B390000260337070BC70470A44914215D010B4FB
:10B3A0000139541E11F8012F0823504010F0800F6E
:10B3B0004FEA400018BF80F0D500013BC0B2F5D184
:10B3C000A142EFD15DF8044B704770474840082315
:10B3D00010F0800F4FEA400018BF80F0D500013B0D
:10B3E000C0B2F5D1704700BF0A44914215D030B4C5
:10B3F0000139551E41F2210211F8014F082380EA5C
:10B40000042004044CBF82EA40004000013B80B2AB
:10B41000F7D18D42F0D130BC7047704770B5022231
:10B420001349144C144E4FF6FF70FFF7DDFF2288CE
:10B430004AB1A518B54218D2052A16D92146FFF7F8
:10B44000D3FF2C46F3E721460222FFF7CDFF02226D
:10B45000A118FFF7C9FF094BE41A094B1C8041F6FC
:10B460000F53C31A5842584170BD0020FCE700BF7B
:10B47000004000080240000800800008FA3F000871
:10B48000A67000200F4B2DE93048D3E9004554EA5F
:10B4900005020AD1034640F201120020188098806C
:10B4A00098715A801881BDE83088074B1A6814EBF0
:10B4B000020B45F1000C5A466346FCF7E3FD012000
:10B4C000BDE8308888590020E0C2002030B40388ED
:10B4D0008278C478154DA3F5FA6303F0030101EBFC
:10B4E0004101013A02EB81029B0835F812500279C2
:10B4F000611E40F2B55404FB03132B4403EB4303DA
:10B5000002EBC3034279847909490089C3EB031331
:10B5100002EB83032144C3EB031301EB83034FF4DA
:10B520007A720021C2FB030130BC7047809205088B
:10B5300080436D382DE9F04707468CB01E46924691
:10B54000002A5CD1154614460A88B2F5FA6F36D344
:10B550008B78581E0B2832D891F803C00CF1FF30BD
:10B560001E282CD891F804E0BEF1170F27D891F8C7
:10B570000590B9F13B0F22D888793B281FD8B1F844
:10B580000880B8F57A7F1AD24FF001085EBB0989AE
:10B590000491002CB4BF2D212B21002CB8BF644294
:10B5A000CDE90290CDE905140795CDE900CE3846E6
:10B5B0002A49FFF7B9FE40460CB0BDE8F0870023EA
:10B5C0002749ADF828304FF0010C18468DF82A3085
:10B5D000ADF82C3099469E461A4698460991634626
:10B5E00009A9002ED3D0CDE90290CDE900CE38468E
:10B5F0001C49FFF799FE40460CB0BDE8F0871A4C95
:10B6000084FB0234A318D417C4EB6314C4EB0415F1
:10B61000A2EB85052DB2002D0846B8BF6D42FFF79D
:10B6200055FF4FF47A720023804689464CF012F899
:10B630003C230AFB030A4FF47A7200234046494632
:10B640004CF008F84FF47A7192B20023C1FB0A2340
:10B6500009A8FCF717FD24B209A975E750140608DC
:10B660000000010130140608898888880378202B9F
:10B67000024600F10100F9D0092BF7D02D2B00F084
:10B68000A4802B2B03BF5378B7EE000A0246B7EE17
:10B69000000AA3F13001C8B209289FED577A10D8EB
:10B6A000F2EE046A07EE901AF8EEE77A12F8013F1C
:10B6B000E7EE267AA3F13001C8B20928B0EE677A26
:10B6C000F0D92E2B63D003F0DF03452B02D020EE00
:10B6D000070A704710B451782D294FD02B2979D003
:10B6E000A1F13003092B02F101027AD800240023D2
:10B6F00003EB830301EB430312F8011FA1F13000B8
:10B700000928A3F13003F3D9B3F59A7F1A4628BF6D
:10B710004FF49A72072B6CD9DFED386A1346F7EEB7
:10B72000007A083B072B67EEA67AFAD802F00702E8
:10B73000DAB1F2EE046A012A67EEA67A15D0022A7F
:10B7400067EEA67A11D0032A67EEA67A0DD0042AF6
:10B7500067EEA67A09D0052A67EEA67A05D067EECD
:10B76000A67A062A18BF67EEA67A002C3BD087EE91
:10B77000277A5DF8044B20EE070A70479178A1F113
:10B780003003092B02F1020230D80124AFE75378CD
:10B79000A3F13001C8B2092802F1010293D8F2EEF8
:10B7A000046AF0EE665A07EE901AF8EEE77A12F89D
:10B7B000013F87EEA66AA3F13001C8B2092866EE00
:10B7C000A56A37EE067AEED97DE75378BFEE000A18
:10B7D00002465EE79178A1F13003092B02F10202E3
:10B7E00084D9F7EE007A27EE277AC2E7F7EE007ADF
:10B7F000BDE7F7EE007A9BE70000000020BCBE4CDE
:10B80000F8B5064615460846B6FBF2F434B905FB12
:10B8100014640C4B1B5D00F8013BF8BDB4FBF2F760
:10B820005FB905FB1747074B05FB1464DA5D00F8A9
:10B83000012B1B5D00F8013BF8BD3846FFF7E0FF28
:10B84000EFE700BF80140608B5EEC00ADFED677AA7
:10B85000674AF1EE10FACCBF30EE270A30EE670AE5
:10B86000DFED647A20EE270A2DE9F047FDEEC07A7D
:10B8700088B017EE904A84EAE4760023A6EBE476DB
:10B88000CDE902330493A2FB06325FEAD2080546F3
:10B8900041D105AF58483946554BA3FB0623DB0879
:10B8A00003EB8303A6EB4303002CC35C0B704FF048
:10B8B0000002ACBF20232D234A7038468DF8083093
:10B8C0004BF0D2F90128394639D0022842D003285A
:10B8D00005BF302302A802A88DF809304DF084FC82
:10B8E00002A84BF0C1F90338C4B2224602A9284687
:10B8F0004DF0B0FC00232B5528464BF0B5F92E2215
:10B90000431C02A92A542144E8184DF089FC28461A
:10B9100008B0BDE8F087394BA3FB06235B0922D1B1
:10B9200005AF35483946324AA2FB0832D20802EB4D
:10B930008202A8EB4202835C01F8013BACE73023B2
:10B9400002A88DF809308DF80A308DF80B304DF0D3
:10B950004BFCC5E7302302A88DF809308DF80A307A
:10B960004DF042FCBCE7264AA2FB06125FEA9219A0
:10B970000ED105AF204839461D4AA2FB03C2D208AA
:10B9800002EB8202A3EB4203C35C01F8013BCAE76E
:10B990001C4AA2FB06125FEA523A0ED105AF1648C6
:10B9A0003946134AA2FB09C2D20802EB8202A9EB74
:10B9B0004202825C01F8012BDEE71348B6FBF0F08F
:10B9C00058B905AF39460A20BAFBF0F200FB12A2C3
:10B9D0000948825C01F8012BE3E705AF39460A22EA
:10B9E0000193FFF70DFF019B0146ECE76F12033A4D
:10B9F000CDCCCCCC00007A44801406081F85EB51D6
:10BA0000D34D62105917B7D1A086010002B370B4AC
:10BA10008E1803E0121B14D1B14215D010F8012B7F
:10BA2000A2F14103192B11F8013BA3F1410598BF85
:10BA30002032192D03F12004ECD9D21A01D1002BA8
:10BA4000EAD1104670BC70470022104670BC7047A7
:10BA50001046704770B5044608460D464BF004F991
:10BA6000064602E014F8013F43B13246294620461B
:10BA7000FFF7CCFF0028F5D1204670BD1C462046BC
:10BA800070BD00BF4FF0FF32FFF7C0BFA0F16103F0
:10BA9000192B98BF20387047A0F14103192B98BF8C
:10BAA00020307047202805D0093804288CBF00209A
:10BAB00001207047012070472DE9F0411F460646DE
:10BAC00003461C782046FFF7EDFF1D460133002892
