:020000040800F2
:10000000F0FF001009770508794C0208C9060208BC
:10001000A9770508A9770508A97705080000000059
:10002000000000000000000000000000854C0208F5
:10003000814C0208000000007D4C02083950030882
:10004000A9770508A9770508A9770508A9770508FC
:10005000A9770508A9770508A9770508A9770508EC
:10006000A9770508A9770508A9770508511501089A
:100070004115010831150108211501080D15010868
:10008000F9140108E5140108A9770508A9770508FE
:10009000A9770508A9770508A9770508A9770508AC
:1000A000CD1F02085D410308FD1E02082D42030812
:1000B0009D400308DD3F0308113F0308391B010879
:1000C000411B01082D1B0108351B0108A9770508F4
:1000D000A9770508B5500308A95003089D500308E7
:1000E000A9770508A9770508699A02082D1E020854
:1000F0009D2002085D1D0208B53C0308D1140108CB
:10010000A9770508A9770508413E0308A9770508DE
:10011000915003088550030891FB030819FA03085E
:10012000BD140108A91401089514010881140108DF
:100130006D140108A9770508A9770508A9770508AE
:10014000A9770508A9770508A97705084167020876
:1001500059140108451401083114010879500308A5
:10016000211B0108291B0108A9770508A9770508A3
:10017000A9770508A9770508A9770508A9770508CB
:08018000A9770508A97705081D
:08018800B07205000100000047
:10019000100201002C220020282200200000000074
:1001A000BC0700081F02100040220020302200205F
:1001B00000000000758500081C021000F4450020B6
:1001C000184B002000000000B18300080412020058
:1001D000B84A0020284B002000000000BE0700089D
:1001E0000F020100B44A00202C4B00200000000048
:1001F000C007000810100200284A0020304B0020E1
:1002000000000000C207000828101000184A002053
:10021000344B0020000000004925010819000500AA
:10022000104A0020444B002000000000C4070008D2
:10023000F8210600084A00204C4B00200000000076
:10024000CA07000801200C0080440020544B002005
:1002500000000000D00700080A702800EC430020CE
:10026000604B002000000000ED2401080EB0860164
:1002700064420020884B002000000000852E040806
:1002800001010400C0410020104D002000000000CA
:100290000000000000010400B8410020144D0020BF
:1002A00000000000DC07000802010300B441002048
:1002B000184D00200000000075CA04081A023C0016
:1002C000BC4F00205851002000000000B1940008ED
:1002D00027000400984E00209451002000000000E8
:1002E000E007000838100100BC4D002098510020A4
:1002F00000000000E4070008140003005C6B00200D
:10030000C86B002000000000E80700080B301A004E
:10031000685B0020CC6B002000000000EC070008A8
:100320001F302400845B0020E86B002000000000E8
:100330000808000805020400F06600200C6C00208C
:10034000000000002C08000803010A00C45B002024
:10035000106C0020000000003008000813020400A8
:10036000CC5900201C6C0020000000003A08000856
:10037000220214017C960020CC980020000000008E
:100380001D9700080C20CC0070860020E09900200A
:100390000000000039CA040801020500548600204C
:1003A000AC9A00200000000081A5020800020500B0
:1003B0004C860020B49A00200000000000000000DD
:1003C0001B02100020860020BC9A002000000000C4
:1003D000DD8300081E00060078830020CC9A0020F0
:1003E00000000000400800081B100C007C7E00206C
:1003F000D49A002000000000E5BA02082102F000B3
:10040000FC7C0020E09A0020000000003DA80208CB
:10041000231210000C890020D09B00200000000057
:10042000480800080510060004890020E09B002011
:10043000000000005808000837102800A885002098
:10044000E89B0020000000005E0800080E02020089
:1004500000890020109C0020000000008608000891
:1004600016100600F07C0020149C00200000000004
:10047000880800082F102200A89800201C9C00204B
:10048000000000008E08000823100E00C882002023
:10049000409C00200000000061250108F5519000FB
:1004A000207C0020509C00200000000051F6020833
:1004B00026100C00EC9C0020E09C002000000000B6
:1004C000C99A02080A020A00CCA5002020A8002030
:1004D00000000000CD96030803000100A0A000204A
:1004E0002CA80020000000000000000003123D00C6
:1004F000E0A7002030A8002000000000B00800089D
:1005000025102C0100A6002070A80020000000008B
:10051000000000001A000E00CCB2002014B400202D
:1005200000000000EE08000820320A00A0B1002000
:1005300024B4002000000000652E0408150070009F
:1005400090AF002030B40020000000000000000048
:100550002A0060009CB30020A0B40020000000002E
:100560003D2E04082C00100010B5002000B500201E
:10057000000000002D2D04082B00240044B50020AD
:1005800020B5002000000000FD2C04082920780080
:100590007CAD002068B500200000000000000000D5
:1005A00007020200ACB7002004B8002000000000E1
:1005B000FC080008F6210C00A4B6002008B80020B2
:1005C000000000000009000802000C00B4B6002082
:1005D00014B80020000000000000000006020C001B
:1005E00084B7002020B80020000000004D950008CE
:1005F00008120F00D4B600202CB800200000000024
:1006000005850008F7010600C8B600203CB80020A8
:10061000000000000C0900081D020200C4B6002002
:1006200044B800200000000012090008090201007F
:100630007CEE002090EF002000000000140900086C
:1006400004008000FCED002094EF0020000000007A
:100650000000000013000400DCED002014F0002076
:100660000000000018090008FD012400B8ED00207A
:1006700018F00020000000000913030818203000C3
:1006800084ED00203CF0002000000000819600086E
:1006900006101A0064DB00206CF00020000000004F
:1006A000A13A0408FB01010060DB002088F0002073
:1006B00000000000F1960008FC0109002CDA00207F
:1006C0008CF00020000000000197000816023F0097
:1006D000ACD9002098F0002000000000258400081C
:1006E00034001000DCD80020D8F00020000000000A
:1006F000753A040811020800B4D80020E8F0002080
:10070000000000001C09000812120400ACD80020F0
:10071000F0F0002000000000240900081220100062
:100720009CD80020F4F000200000000028090008F8
:100730000D004C0000D5002004F100200000000056
:100740007DB70108F9010400C4D4002050F1002055
:100750000000000081130308FA010200ACCE002063
:1007600054F10020000000009586000802020300FA
:1007700068B8002058F100200000000000000000D0
:100780000C02040054B800205CF1002000000000BE
:100790005D85000811000C0005C3002060F10020F9
:1007A00000000000FDB40108FE011400E0C20020BA
:0C07B0006CF1002000000000F183000844
:1007BC0000000000000000050000280100000401FA
:1007CC00F4011400E8036400040A000114001E0084
:1007DC009001000020030000000000000300000056
:1007EC00AE014A015E012C01640101000000010010
:1007FC000A019A01001E0A0000000000000000001F
:10080C0000010000000500000102030000000000D0
:10081C000000000000000000000000000080070045
:10082C0000000000040101006C1600000000000034
:10083C0001000000000001000000000000000000AA
:10084C00000000000000000000000000200001017A
:10085C00000020003200C800D007960014003200BF
:10086C002800B00440060005500014000F000800DA
:10087C0064000100010005000A000000C40900002A
:10088C001900000000000000000000000000000043
:10089C00000000000000000000000000000000004C
:1008AC00000000000000000000000000000000003C
:1008BC00000000000000000000000000000000002C
:1008CC00000000000000000000000000000000001C
:1008DC00000000000000000000000000000000000C
:1008EC0001007E05EA05B4053200E803D0070000DC
:1008FC00013C0000000000000100000002020000AA
:10090C003D010000000000002700000008004530F9
:10091C000000000001010101FFFFFFFF00000001CA
:0C092C000000054F4E5834000008000089
:100938001A03000000000000000000000000000092
:10094800000000000000000000000000040309048B
:100958001201000200000040830420570002010237
:1009680003010000A9D70008F1850008ED850008FB
:10097800E985000865970008E5850008E185000815
:100988007C920508194E0208FD2F020859590208E1
:1009980000000000000000005D56020879550208BA
:1009A800000000000000000000000000352B0208D5
:1009B800898600087D860008099D0008259D000895
:1009C80035860008ED9C0008D19C00080068214C81
:1009D8001F0000001C0000001F0000001E00000097
:1009E8001F0000001E0000001F0000001F00000084
:1009F8001E0000001F0000001E0000001F00000075
:100A0800FF01FF00000004010000000000000002D8
:100A180010000000070000000000000000000000B7
:100A28000102030406070809FFFFFFFF0100000099
:100A38005D1C010800000000189D0508FFFFFFFF6E
:100A4800425702000000010642570200000001065A
:100A58000101000000010101002D202D2D202D2D68
:100A68002D2D202D2D2D000000000000000000007D
:100A7800000000000000000000000000000000006E
:100A8800DCB30508000000000000000068B4050899
:100A980001000000FA000000010000000100000051
:100AA800010100007C4400200000F4010100000066
:100AB8007A4400200000F40101000000784400207E
:100AC8000000F40101000000764400200000F40159
:100AD80001000000744400200000F401010000003F
:100AE800724400200000F40101000000704400205E
:100AF8000000F401010000007523010839230108F2
:100B080078A10508664400200532010064440020ED
:100B1800E803D0070100000062440020E803D00782
:100B28000100000060440020E803D0070100000035
:100B38005E4400201E00B80B010000006C44002039
:100B480005000F00010000006E44002003000A00A9
:100B5800010000005C4400201E00F40101000000B8
:100B68005A4400201400640001000000684400207A
:100B78003200E80301000000584400200000C800CB
:100B8800010000003244002000C801003144002068
:100B98000050010030440020005A01002E4400207B
:100BA8000200000004A20508881A0608901A060820
:100BB8007AEF00200100C4090000000078EF00204F
:100BC8000100C4090000000076EF00200100C409FC
:100BD8000000000074EF00200100C40900000000BC
:100BE80070EF00200100C4090000000072EF00202F
:100BF8000100C409000000006EEF00200100C409D4
:100C0800000000006CEF00200100C4090000000093
:100C1800D941002000C80100D841002000C80100C7
:100C2800D64100200100C80001000000D441002086
:100C38003200307532000000D2410020055A05000C
:100C4800CF41002000FF0100D14100200100000039
:100C580000040020CD4100200300000034C2050834
:100C6800CE41002000FF0100D0410020010000001B
:100C780000040020CC4100200300000034C2050815
:100C8800DD2201088122010810A2050890440020F5
:100C9800EE02CA08010000008E44002000C80100CE
:100CA800640000008D44002000C8010064000000BA
:100CB8008C44002002000000F0A20508C641002074
:100CC80080C1803E05000000C441002080C1803EF4
:100CD80005000000BE41002080C1803E05000000E4
:100CE800BC41002080C1803E05000000B7410020C3
:100CF80000FF0100B04100206400F4010100000081
:100D0800AF41002004000000FCA20508AE4100200D
:100D18000200000010A30508534200200D00000047
:100D28001CA3050850420020006401004E42002028
:100D3800320010270A0000004D4200200D0000007C
:100D48001CA305084C4200200D0000001CA3050848
:100D58004B4200200200000054A3050800000000D8
:100D68000000000060A30508A86600209CFF2C0175
:100D780000000000FC440020E0150C1700000000F3
:100D8800FE4400200200000098A305089C440020AF
:100D98000100FF7F010000009B44002002000000CA
:100DA800A4A305085542002003000000B4A30508C9
:100DB8005442002003000000B4A30508204400208A
:100DC8000000E803010000001E4400200000E803C2
:100DD800010000001C4400200000E803010000009E
:100DE8001A4400200000E803010000001844002015
:100DF8000000E80301000000164400200000E8039A
:100E080001000000154400200014010014440020D3
:100E180003000000C4A305082C4400200000F401CE
:100E2800010000002A4400200000F4010100000035
:100E3800284400200000F40101000000264400209E
:100E48000000F40101000000244400200000803E5E
:100E580001000000224400200000803E0100000044
:100E680045440020196401004444002002000000A9
:100E7800D4A3050842440020E803D0070A00000074
:100E880040440020006401000A00000035440020AE
:100E98000064010034440020006401003C44002048
:100EA800006401000A0000003B44002000640100C7
:100EB8000A0000003A440020006401000A00000013
:100EC8003F440020006401000A0000003E44002066
:100ED800006401000A0000003D4400200064010095
:100EE8000A0000003944002001FF01000A00000048
:100EF8003844002001FF01000A00000037440020A8
:100F080001FF01000A0000005E4200200000F40119
:100F1800010000005C4200200000F4010100000014
:100F28005A4200200000F40101000000584200204D
:100F38000000F40101000000564200200000F40106
:100F4800010000003F45002000C801003E45002088
:100F5800006401003D450020006401003C4500207C
:100F6800006401003B450020006401003A45002070
:100F7800FF0801003945002001640100E92101084A
:100F8800AD210108E0A305083845002000640100F0
:100F9800364500201400E803010000003445002015
:100FA800E80330750A0000003245002000C801003F
:100FB8003145002000C801003045002000C801006C
:100FC8002F450020006401000A0000004E45002063
:100FD8000000D007010000004845002000C80100BB
:100FE8004745002000C801004645002000C8010010
:100FF8004C4500200000D0070100000045450020B6
:1010080000C801004445002000C8010043450020F5
:1010180000C801004A4500200000D0070100000078
:101028004245002000C801004145002000C80100D9
:101038004045002000C8010000000000A11F010871
:1010480050A405084942002039000000ECA4050816
:101058004842002000C8010046420020E803D007AB
:10106800010000004F4D4E494E5854340000000016
:10107800CB41002000030100CA4100200003010009
:10108800ED1E0108B11E0108D4A505086D1E010852
:10109800211E010844A60508291F0108F52B01088F
:1010A800C4A60508C841002001030100DD2301088A
:1010B800B1230108D4A90508AD1D0108691D01085F
:1010C80044AA0508B71F010859410108E0AA050804
:1010D800E92701080000000088AB0508F12F010886
:1010E8003D24010824AC050809200108000000007F
:1010F800A4AC0508E12001088D20010808AD050809
:101108007121010835210108A4AD0508D1B20108F3
:101118002522010824AE05085744002001060100D5
:10112800512001081D20010820AF050837B2010829
:10113800592C010890AF050819B30108F12C0108D2
:101148008CB005085644002001030100711F0108F6
:10115800411F010860B105080924010800000000CA
:10116800C4B10508F11D0108C52B010828B20508FE
:101178000000000000000000B4B205085922010870
:10118800692D010834B30508AA41002088136F1798
:1011980001000000AC41002088136F170000000018
:1011A800265C00200000000000000000245C0020F5
:1011B8000000000000000000225C00200000000089
:1011C80000000000205C002000000000000000007B
:1011D8001E5C002000000000000000001C5C0020D5
:1011E8000000000000000000880D00200000000042
:1011F800000000008241002002000000BCB4050885
:10120800A841002088136F1701000000E86600203D
:1012180088136F1700000000FD1C01080000000083
:10122800C8B405082E450020010000001CB50508BB
:10123800EA6600200100000028B50508E0660020E5
:101248000200000030B505080000000000000000A2
:101258003CB50508E91C010800000000D8B50508E0
:1012680000000000000000002CB605080000000087
:10127800000000009CB60508E4660020E0150C1785
:101288000000000001000000A00F0000B80B0000E3
:101298000102FFFF01000000685E0C0055310208E2
:1012A80041300208F55B020800000000BD2B02086F
:1012B800AD570208912F02082557020800000000C8
:1012C80000000000792B02080D2B0208012B0208F0
:1012D800294D0208454D02080D4D0208F14C02083F
:1012E800D54C02080D3102081D300208355B020892
:1012F80000000000912B020829570208652F0208F8
:10130800855602080000000000000000852B020836
:101318000403090412010002EF020140830456325B
:101328000002010203010000120100020202004053
:101338008304405700020102030100000902200053
:10134800010104C03209040000020806500507051F
:101358008102400000070501024000000902640004
:10136800030100C032090400000103000000092144
:10137800110100012226000705830308000A080B53
:101388000102020201000904010001020201000534
:101398002400100105240100020424020205240689
:1013A8000102070582030800FF09040200020A007F
:1013B8000000070501024000000705810240000007
:1013C80009024300020100C03209040000010202C0
:1013D8000100052400100105240100010424020273
:1013E8000524060001070582030800FF090401001F
:1013F800020A0000000705010240000007058102FB
:1014080040000000FF00000064BE05080000000066
:1014180000000000000000000000000000000000C4
:1014280000000000000000000000000000000000B4
:1014380000FFFF0000000000AA55050100000100A0
:1014480038BE050800000000000000000000000091
:101458000000000000000000000000000000000084
:101468000000000000000000FF1FFF1F0501090524
:10147800A101A100050109300931093209330935F3
:101488000934094009381581257F750895088102B6
:10149800C0C0000009022200010100E03209040076
:1014A80000010301020009211101000122260007A1
:1014B80005830308000A000000000000010203047D
:1014C8000102030406070809BD580208C1570208AB
:1014D800195C0208F92B020871310208092C02086C
:1014E800252C0208D12B0208C12B0208000000009D
:1014F800000000002D202D2D202D2D2D2D202D2DEF
:101508002D2D000000000000000000000000000079
:10151800000000AA550B010000AA5507010000AA07
:10152800550902000000AA5503009F0001000000B1
:10153800C01200009C6B002000000000C06B00205F
:10154800000000000100000000000100E0010000B0
:10155800FFFFFFFF0801FFFFFF000000FFFF000083
:10156800FFFFFFFF607F0608000008020503030075
:10157800687F060801000802050403006485060860
:101588000200FE0101100300D01E06080300140229
:1015980000030000707F060804001F020100080015
:1015A800787F060805001F02010108000000803F3F
:1015B800FFFFFFFF0000803F000000000000000068
:1015C80000000000FFFFFFFFFF00000001D6010040
:1015D800B80B00007D0000000000803F0000000004
:1015E80000000000000000000000803F0000000034
:1015F80000000000000000000000000000000000E3
:1016080000000000000000000000000000000000D2
:101618000000803F00000000000000000000000003
:101628000100000000000000F4B7002008000000DE
:1016380000000000E4B7002008000000083E06088B
:1016480034870608408706084C8706085887060826
:1016580064870608F02A06086459060848580608E8
:10166800F88606081C840608B88506082887060830
:101678002C87060830870608143E06087087060877
:101688007487060898560608788706081900C8005F
:10169800F401200308000000FD2A0208F92A0208C4
:1016A800F52A0208E92A0208E52A0208F12A0208AE
:1016B800ED2A0208000040000400000401000000B8
:1016C80000600240106002400000000000000000BE
:1016D800000B0000000000000000000000000000F7
:1016E8000060024028600240010000000000000085
:1016F800060C0000000000000000000000000000D0
:10170800006002404060024002000000000000004B
:10171800100D0000000000000000000000000000A4
:101728000060024058600240030000000000000012
:10173800160E00000000000000000000000000007D
:1017480000600240706002400400000000000000D9
:10175800200F000000000000000000000000000052
:1017680000600240886002400500000000000000A0
:10177800261000000000000000000000000000002B
:1017880000600240A0600240060000000000000067
:101798003011000000000000000000000000000000
:1017A80000600240B860024007000000000000002E
:1017B800362F0000000000000000000000000000BC
:1017C80000640240106402400000000000000000B5
:1017D80000380000000000000000000000000000C9
:1017E800006402402864024001000000000000007C
:1017F80006390000000000000000000000000000A2
:101808000064024040640240020000000000000042
:10181800103A000000000000000000000000000076
:101828000064024058640240030000000000000009
:10183800163B00000000000000000000000000004F
:1018480000640240706402400400000000000000D0
:10185800203C000000000000000000000000000024
:101868000064024088640240050000000000000097
:1018780026440000000000000000000000000000F6
:1018880000640240A064024006000000000000005E
:1018980030450000000000000000000000000000CB
:1018A80000640240B8640240070000000000000025
:1018B80036460000000000000000000000000000A4
:1018C800FC7F0608F04006080000000089CA0408EA
:1018D800A0860100040000000000000000000000D5
:1018E80000000000000000000000000000000000F0
:1018F80000000000000000000000000000000000E0
:10190800FC7F06088C8706080000000075B50108F2
:10191800E8030000040000000000000000000000D0
:1019280000000000000000000000000000000000AF
:10193800000000000000000000000000000000009F
:10194800602206081457060800000000E19E0308FC
:101958007D000000060000000000000000000000FC
:10196800000000000000000000000000000000006F
:10197800000000000000000000000000000000005F
:101988004C7F060800000000000000003D1402081B
:10199800E803000003000000000000000000000051
:1019A800000000000000000000000000000000002F
:1019B800000000000000000000000000000000001F
:1019C80094870608000000000000000089A60408AB
:1019D80010270000030000000000000000000000C5
:1019E80000000000000000000000000000000000EF
:1019F80000000000000000000000000000000000DF
:101A08006C7F060800000000812A04082DF70108F1
:101A18005F760000050000000000000000000000E4
:101A280000000000000000000000000000000000AE
:101A3800000000000000000000000000000000009E
:101A4800B082060800000000000000007D210208A6
:101A58001027000001000000000000000000000046
:101A6800000000000000000000000000000000006E
:101A7800000000000000000000000000000000005E
:101A8800A0870608000000000000000077B50108E4
:101A9800E80300000500000000000000000000004E
:101AA800000000000000000000000000000000002E
:101AB800000000000000000000000000000000001E
:101AC800AC870608000000000000000029D20408C6
:101AD800204E00000300000000000000000000008D
:101AE80000000000000000000000000000000000EE
:101AF80000000000000000000000000000000000DE
:101B0800BC87060800000000000000002DD0040873
:101B1800204E00000300000000000000000000004C
:101B280000000000000000000000000000000000AD
:101B3800000000000000000000000000000000009D
:101B4800CC8706080000000000000000BD0702085E
:101B5800400D03000300000000000000000000002A
:101B6800000000000000000000000000000000006D
:101B7800000000000000000000000000000000005D
:101B8800BC8006080000000000000000A5F4010861
:101B98001027000001000000000000000000000005
:101BA800000000000000000000000000000000002D
:101BB800000000000000000000000000000000001D
:101BC800283E0608000000000000000041C6020888
:101BD80010270000030000000000000000000000C3
:101BE80000000000000000000000000000000000ED
:101BF80000000000000000000000000000000000DD
:101C0800DC8706080000000000000000A9AD0108FC
:101C1800A086010001000000000000000000000094
:101C280000000000000000000000000000000000AC
:101C3800000000000000000000000000000000009C
:101C4800507F0608000000000000000049D9010884
:101C580050C3000001000000000000000000000068
:101C6800000000000000000000000000000000006C
:101C7800000000000000000000000000000000005C
:101C8800841E06080000000000000000B99A02083F
:101C9800A086010000000000000000000000000015
:101CA800000000000000000000000000000000002C
:101CB800000000000000000000000000000000001C
:101CC800BC1D060800000000000000004DD60108F9
:101CD800A8610000010000000000000000000000F2
:101CE80000000000000000000000000000000000EC
:101CF80000000000000000000000000000000000DC
:101D0800E48706080000000000000000A907030897
:101D1800A086010001000000000000000000000093
:101D280000000000000000000000000000000000AB
:101D3800000000000000000000000000000000009B
:101D4800B8820608000000000000000001B8010881
:101D5800A00F0000010000000000000000000000CB
:101D6800000000000000000000000000000000006B
:101D7800000000000000000000000000000000005B
:101D8800F0870608000000000000000051F7020874
:101D98001027000001000000000000000000000003
:101DA800000000000000000000000000000000002B
:101DB800000000000000000000000000000000001B
:101DC800E4800608000000000000000035B40108A7
:101DD800A00F00000100000000000000000000004B
:101DE80000000000000000000000000000000000EB
:101DF80000000000000000000000000000000000DB
:101E0800F02906080000000000000000E5EF0208C5
:101E18001A4100000100000000000000000000005E
:101E280000000000000000000000000000000000AA
:101E3800000000000000000000000000000000009A
:101E48007C1D06080000000000000000293402087C
:101E58001027000001000000000000000000000042
:101E6800000000000000000000000000000000006A
:101E7800000000000000000000000000000000005A
:101E8800044106080000000000000000E1480108C5
:101E98001A410000010000000000000000000000DE
:101EA800000000000000000000000000000000002A
:101EB800000000000000000000000000000000001A
:101EC800FC8706080000000000000000953A0208A0
:101ED800400D0300000000000000000000000000AA
:101EE80000000000000000000000000000000000EA
:101EF80000000000000000000000000000000000DA
:101F080004880608000000000000000033B501083E
:101F1800400D030000000000000000000000000069
:101F280000000000000000000000000000000000A9
:101F38000000000000000000000000000000000099
:101F48000C8806080000000000000000CD0103080E
:101F580050C3000003000000000000000000000063
:101F68000000000000000000000000000000000069
:101F78000000000000000000000000000000000059
:101F8800188806080000000000000000A1CF04081F
:101F980040420F00000000000000000000000000A8
:101FA8000000000000000000000000000000000029
:101FB8000000000000000000000000000000000019
:101FC800248806080000000000000000D9B70108B6
:101FD80050C30000000000000000000000000000E6
:101FE80000000000000000000000000000000000E9
:101FF80000000000000000000000000000000000D9
:042008000000803F15
:1080000003685A1C02601970704700BF2DE9F047E1
:10801000089C2578002B804689460CBF4FF0200A2B
:108020004FF0300A661C25B3002A26DD334601E0F6
:10803000024698B113F8011B501E0029F8D1971E73
:1080400060B13D46013D51464046C8476B1C002B80
:10805000F8DC257827EAE770013045B1041B294692
:108060004046C847301916F8015B002DF7D1BDE82E
:10807000F087002A03DC2846F9E70020EEE7571EC8
:10808000DFE700BF2DE9F04714461D4606464FF4D2
:108090007A720023204629464FF06AF94D4BDFF8EB
:1080A00048814D4A4D4F034488FB03101844D917AB
:1080B00082FB032CC1EB601088FB002887FB0327A1
:1080C0009C44474AC1EBEC2CC0EB001E82FB0C2900
:1080D000A3EB8E0E1F44434A86F806E0C1EB274708
:1080E0004FEAEC7E08EB000ACEEBA90E82FB07827A
:1080F0004FEAE0780EEB4E0EC8EB6A18ACEBCE0CF4
:10810000C8EB0818DFF8E4E086F804C0A0EB8800AC
:1081100070718EFB0303F817C0EBE21240F2B5500A
:1081200000FB1272C1EBE353B2F5896F4FEA83078C
:108130003CDA40F2DA239A4242DCB2F5B77FB4BFB0
:108140004FF0000E4FF0010E4FEA4E09DFF8A0800D
:1081500009EB0E0308EBC3031FFA8EFCD88A09EB68
:108160000E0108EBC10116310B2301E031F8020DBD
:10817000904218DD013BF9D1CE44012338F83E008E
:10818000B37007F5FA670132121ABC44F270A6F810
:1081900000C0204629464FF47A7200234FF0E8F8D9
:1081A0003281BDE8F0870133DBB2E9E74FF0030C21
:1081B000E64640F29650DFF838804FF00609CEE7E9
:1081C0004FF0020CDFF82880E64640F229404FF0DD
:1081D0000409C4E780BC92C7C5B3A29107452EC26B
:1081E000ABAAAA2A73B06D1689888888792D0311E5
:1081F000A08F05080028F0B403DA2D230B7040424D
:108200000131092804464FF0010307DD03EB830326
:108210005B00B0FBF3F2092AF8D883B10F48A0FB4A
:108220000326B4FBF3F2092A02F1570C02F13007DE
:1082300009DD03FB1244F30801F801CBEFD1002361
:108240000B70F0BC704703FB1244F30801F8017B8C
:10825000E5D100230B70F0BC704700BFCDCCCCCC77
:10826000884270B44FF0010442D301FB04F4B0FB28
:10827000F4F58D42F9D2ECB142BB092D04FB150097
:1082800005F1570605F130020EDDB4FBF1F403F8F9
:10829000016B7CB1B0FBF4F5092D04FB150005F171
:1082A000570605F13002F0DCB4FBF1F403F8012BC2
:1082B000002CEFD100221A7070BC704703F8016BDC
:1082C000B4FBF1F4002CF5D0B0FBF4F5092D04FB60
:1082D000150005F1370605F13002EFDCB4FBF1F4CF
:1082E00003F8012B002CEFD100221A7070BC7047EC
:1082F0000546002AEAD1C0E790ED057A90ED004AE4
:10830000D0ED066AD0ED014AD0ED047A90ED035A23
:10831000D0ED025AA4EE007AB0EE406AB0EE470A01
:10832000B0EE667AA4EE867A67EEC07AA5EE407A61
:10833000E5EE867A80ED057AC0ED067A704700BFDB
:10834000D0ED057A90ED013AD0ED003AD0ED064A35
:1083500090ED024A90ED077A90ED035A90ED086A8D
:10836000D0ED045AC0ED067AF0EE406A27EE830A9B
:10837000C0ED056AA3EEA60A80ED087AA4EE240AF1
:10838000A5EE470AA5EEC60A80ED070A704700BFB2
:10839000D0ED007A90ED017A30EE670AE7EE007AD0
:1083A000B0EE670AC0ED007A704700BF704700BFAB
:1083B00030B42C230022182504240221C370012389
:1083C000C572C4730270827182734170417283708E
:1083D000C3710372837230BC704700BF0023062153
:1083E0004FF47A720170C0E901230373704700BF34
:1083F00030B430211423312234254FF601744170FA
:10840000C371FF21012342710022C570048281746F
:108410000372037083710371837042818281C28110
:1084200030BC70472DE9F04F3149324B83B001F534
:10843000287B019025274FF000092F4810220126A4
:1084400003E0203098420BD002799742F9D10268BC
:108450000C68A24209D02030984206F10106F3D1FF
:108460002031594541D00F79E7E744794D79A5424C
:10847000F1D19446019A214809EB490502EB050A1E
:1084800057558AF8016000F572751D4E624603E08B
:10849000A8421AD050F82C6FB242F9D10679A64200
:1084A000F6D1CF6806464FF0000C96468046F2683B
:1084B000BA420DD00CF1010CBCF1030F06F10C0611
:1084C000F5D14046A8427246E4D14FF0FF3C05E0AA
:1084D000086932698242EDD14FFA8CFC203159454E
:1084E0008AF802C009F10109BDD103B0BDE8F08FDF
:1084F00028EE0508C805060808FC0508C805060892
:1085000000000140144BFF22F0B54FF0FF34C27061
:108510000271027242724273827303F10C0EA4461E
:10852000172716261525002202EB820281189E4588
:1085300085544E708F7081F803C00C710AD093F986
:108540000620DD791E7A5F7A93F90AC093F90B4011
:108550000633E9E7F0BD00BF0090050810B41F2105
:10856000012402220023047041708270C3705DF800
:10857000044B704770B4034600F11001FF221A70DB
:108580005A7002338B42FAD10B4B4FF0FF3103F19B
:108590000F060C46002205E093F9044093F90510FC
:1085A00013F8032F00F8124000EB42059E42697059
:1085B000F2D170BC704700BF1490050830B41D693B
:1085C00095420AD314460A4621448D42996938BF20
:1085D0002A1B214430BC4FF069B930BC704700BF42
:1085E000002070470120704701207047002070472D
:1085F0004FF40070024B10609B680B6000207047C6
:10860000C8D40020013A30B4D2B28C1C04EB42042E
:108610000025020F092AD3B203F130028ABF373393
:108620000A700B704D7002318C424FEA0010F0D18D
:1086300030BC70470B4A0C4B10681B681A22C018DC
:108640000A8001D10948704710B5094B09491C68D7
:108650000822FFF7D7FF204604220749FFF7D2FF81
:10866000024810BDE8F7FF1FECF7FF1F880100204C
:10867000EAF7FF1F8A0100209A01002004230B80E3
:1086800000487047A401002012230B800048704767
:10869000A80100203E22022302704370704700BFF1
:1086A00008307047704700BF816170476D4B2DE9FE
:1086B000F04F1C686C4BB3F80AE0B3F804809A8959
:1086C0004FEA0E2AB4EB0A044FEA1E6B4FF0000586
:1086D00087B065EB0B05CDE900450746009C18897E
:1086E000019EA0FB044500FB0655E00940EA4560F9
:1086F0004FEA08448C46E9114FEA184510EB04088C
:10870000D888009C41EB0509CDE90489A0FB04450C
:10871000B3F8028000FB0655200A40EA05604FEAE4
:10872000C83429124FEA584510EB040841EB0509FB
:108730000099A2FB010102FB06114FEAD05A4AEA56
:10874000412A1AF5FA634FEAE15B4BF10004B3F5F5
:10875000FA6FCDE9023474F10003424E64DA052465
:10876000AAFB040104FB0B1100FB0BF40AFB014400
:10877000DDE90423A0FB0A0121444D104FEA300437
:10878000121B4FEA900463EB050344EA8174B8EBD3
:108790000408CDE90423DDE9023434484FEAA10599
:1087A00069EB05094FF0FF31834274EB010326DAD0
:1087B00040F6AC501AEB00024FF000014BEB010306
:1087C00002FB03F1A2FB022303EB4103D400DD0013
:1087D000101B45EA527563EB0501DDE904452418D9
:1087E0004D41CDE904450B24A2FB040104FB031118
:1087F00049104FEA3000B8EB000869EB0109DDE9E8
:1088000000325343009ADDE90201A2FB02AB0BEBFD
:10881000430B4FEADA7242EA4B02801A4FEAEB73DB
:1088200061EB0301CDE9020197B17168A1FB082357
:1088300001FB0933540D5D1544EAC324DDE904232B
:10884000A21A65EB03031D46D30B43EA45433B6085
:10885000BCF1000F02D0029BCCF8003007B0BDE89D
:10886000F08F00BF601800207C4A002024FAFFFF30
:108870002DE9F04FDFF8DCC1754CDCF80850228898
:10888000B4F90AA0C2EB25135200C2EBE502B4F919
:1088900002505B436A43B4F904501B135D43AD13AC
:1088A00005EBE225B5F5FA324FEAE57B85B04BF1F1
:1088B000FF33CDE90023DDE900325343009AA5617F
:1088C000A2FB0289CDE90201B4F9082001990098C0
:1088D00009EB43095143D31700FB0311A2FB00230B
:1088E0000B444FEAEA7B0AFB09F11F0308FB0B1359
:1088F000AAFB080119444FEA102A4AEA016A160342
:108900004FEA212B47EA12571AEB0602E6884BEB97
:10891000070312F1000A43F5004BAAFB060106FB10
:108920000B114A10CB1752EA030100F08E80B4F904
:108930001060009806FB09F1F71708FB0711A6FB6A
:1089400008673944B4F90E808B4601994FEAE879FB
:1089500008FB01F100FB0911A8FB00898944DCF840
:108960000C104FEA4947C1F5801C47EAD837B24698
:108970004FEA4846B4F90C801AEB060A66464BEB00
:10898000070BF7174FEAC806019600260096F9076D
:10899000DDE900674FEACC7016EB0A0647EB0B07E0
:1089A00041EA5C01801B61EB070140F6354C8946CA
:1089B000A0FB0C010CFB09114EF0DAFCB4F91620F7
:1089C000B4F914A04E13470B47EAC14702FB06FC5B
:1089D000D31707FB03CCA2FB07236344564307FBD3
:1089E0000366A2FB07233344560E46EAC316321829
:1089F0004FEA636747EB010380460AFB01F14FEA48
:108A0000EA7B08FB0B17AAFB08013944C60C46EAAF
:108A1000413612EB06084FEAE147B4F9122043EB66
:108A200007094FEA182141EA096113010B44029A30
:108A30000AB11B0A1360039B23B105EB8505803542
:108A40002D121D6005B0BDE8F08F0023EFE700BFD9
:108A5000984A0020601800207047704770472DE941
:108A6000F041334B334E1A8A7489B6F91450B6F973
:108A70000480B6F90E70B6F920C05B69121B348908
:108A80005443E213B6F912401544E40294FBF5F4A2
:108A9000B6F902501444A4F57A6E0EFB0EF20EFBEA
:108AA00005F50EFB08FEB6F90C80F461121357436E
:108AB00002FB08F2121402EB6E32ED1205EBE7270F
:108AC0000232B6F90050B6F806E0921002F5004204
:108AD00007EB85070EFB02F207FA0CF74FEAD23ECE
:108AE00002374CF25032A3EBA70742FA0CF37B4358
:108AF00055BF5B00B3FBFEF3B3FBFEF35B0078B145
:108B00001A1202FB02F540F6DE326A430A4D1214D5
:108B10005D4302EB254202F6CF6203EB22130360B2
:108B200021B10A235C43083424110C60BDE8F081B4
:108B300060180020584A002043E3FFFF0A4B1A68E0
:108B4000642353434FF4805293FBF2F30360074BCB
:108B50001A880A235343302293FBF2F303F584531C
:108B60001A330B60704700BF904A00208C4A0020E7
:108B70004FF40063038370474FF40063038370472F
:108B80004FF4006303837047034690F8230028B135
:108B9000002283F82320C3F81A20DA83704700BF2D
:108BA000704700BF01207047034690F85C0028B171
:108BB000002283F85C201A65A3F85420704700BF98
:108BC000704700BFF0B4037C456902681F2B37D99A
:108BD000203B2021546899400C4223D010249C4013
:108BE000D160D4605168D940CE074ED4EFF31183E1
:108BF000502282F312882A6C1168C90709D454687C
:108C0000002C52D1D5E909618E4243D1012285F869
:108C10006420DBB283F31188037C02681F2B1946A2
:108C200014D9203B082150689940084200D0D160F7
:108C30000421506801FA03F3184223D1F0BC7047B5
:108C4000202416689C4026420FD11946082310683C
:108C50008B40184200D093600423106803FA01F19E
:108C60000842EBD09160F0BC7047102199409460AD
:108C700091601168D940CC07B8D5012101FA03F3FE
:108C80009360B3E7D360F0BC7047012101FA03F3AE
:108C9000D360ABE7AF690F44D7600ED82E69711A65
:108CA0005160AC62002185F86410116841F0010147
:108CB000DBB2116083F31188AEE7711A5160AE62C6
:108CC000F0E700BFF0B4714B71491A780B789A4203
:108CD00040F07E816F4B1A78002A00F0D4806E4BF2
:108CE00019786E4B002940F0DB801868B3F83261C8
:108CF000048824F080042404240C048093F8304178
:108D0000C462058845F08005058041628489012A96
:108D100044EA06048481A3F8321100F0B480D3F849
:108D20003401B3F86662048824F080042404240C1F
:108D3000048093F86442C462058845F0800505808C
:108D400041628489022A44EA06048481A3F86612F7
:108D500000F09980D3F86802B3F89A63048824F08D
:108D600080042404240C048093F89843C46205888A
:108D700045F08005058041628489032A44EA06049F
:108D80008481A3F89A137ED0D3F89C03B3F8CE6401
:108D9000048824F080042404240C048093F8CC4438
:108DA000C462058845F08005058041628489042AF3
:108DB00044EA06048481A3F8CE1464D0D3F8D00426
:108DC000B3F80266048824F080042404240C048090
:108DD00093F80046C462058845F08005058041622D
:108DE0008489052A44EA06048481A3F802164AD03D
:108DF000D3F80406B3F83667048824F0800424040A
:108E0000240C048093F83447C462058845F080053B
:108E1000058041628489062A44EA06048481A3F815
:108E2000361730D0D3F83807B3F86A68048824F0CE
:108E300080042404240C048093F86848C4620588E4
:108E400045F08005058041628489072A44EA0604CA
:108E50008481A3F86A1816D0D3F86C28B3F89E5909
:108E6000108820F080000004000C108093F89C090A
:108E7000D062148844F080041480516290892843A1
:108E80009081A3F89E19F0BC704700BFAC9F0020F2
:108E9000AD9F00209837001094370010E0E30020C9
:108EA0005C68198961602568186845F0010540F221
:108EB0000D312560A0F848108489012A44F480749B
:108EC0008481E0D0D3F83841B3F83C51D3F8340171
:108ED0006560256845F001052560A0F84810848983
:108EE000022A44F480748481CDD0D3F86C42B3F864
:108EF0007052D3F868026560256845F00105256069
:108F0000A0F848108489032A44F480748481BAD07C
:108F1000D3F8A043B3F8A453D3F89C036560256845
:108F200045F001052560A0F848108489042A44F41E
:108F300080748481A7D0D3F8D444B3F8D854D3F83C
:108F4000D0046560256845F001052560A0F848104B
:108F50008489052A44F48074848194D0D3F8084627
:108F6000B3F80C56D3F804066560256845F0010592
:108F70002560A0F848108489062A44F4807484810E
:108F800081D0D3F83C47B3F84057D3F83807656031
:108F9000256845F001052560A0F848108489072A56
:108FA00044F4807484813FF46EAFD3F87028B3F832
:108FB0007408D3F86C385060106840F001001060FD
:108FC000A3F848109A8942F480729A81F0BC7047E5
:108FD0005C00E618484D15F83660032E3FF67AAE71
:108FE000DFE806F04D261C02E01805EBC0004468DF
:108FF000661E012C46603FF646AF013303F00303C3
:10900000D8B2824208703FF465AE03EB4303DB0045
:10901000EA1802200021E854516034E7E11805EB1A
:10902000C1014868461E01284E603FF62CAF0DE096
:10903000E118C90068184668771E012E47603FF6A0
:1090400022AF02274FF0FF366F544660E618F60055
:10905000AF192A48397B00680139C9B2397389B31D
:109060004FF47A722344B2FBF0F200FB02F0B0F549
:109070007A7F05EBC30518BF01326A602AE670B13A
:109080001F49012600220F890132002F18BF002638
:10909000824201F58671F6D1002E3FF41BAE174ACD
:1090A000126842F21076E018B6FBF2F102FB116290
:1090B000012605F8306002B13144234405EBC305B5
:1090C000696007E6BF68B7FBF0F100FB117003278A
:1090D000AF5500B101311C44013305EBC40503F069
:1090E0000303934269603FF4F5AD00293FF4F2AD0C
:1090F00001396960EEE500BFB09F00202C0E002012
:1091000080DB002010B5027C01681F2A4FF020038D
:109110000ED94C68203A93401C4208D00B4A406854
:1091200000241470026822F001020260CB6010BDBE
:109130000C6893401C42FAD0044A40680024147022
:10914000026822F0010202608B60F0E704C3002095
:1091500010B5027C01681F2A4FF020030ED94C681D
:10916000203A93401C4208D00B4A406800241470F7
:10917000026822F001020260CB6010BD0C689340CF
:109180001C42FAD0044A406800241470026822F09D
:10919000010202608B60F0E73F8900202DE9F04179
:1091A000C40023189B00B749CA585268958AADB2CB
:1091B000EFB2FE070B4461D4BE0737D5BFF35F8F14
:1091C0001D7EEDB2012D00F0BB80AF4E138BBFF3BF
:1091D0005F8F231801EB83031D7E022D00F0CE80EC
:1091E000231801EB83031D7E032D05D19B7E1BB14C
:1091F000737E002B40F01A81938896F918C043F4CF
:1092000080639380231801EB83031B7E0133634546
:109210000AD1B37E00257576002B40F08A80204469
:1092200001EB800000234375BDE8F081964E17F0F6
:10923000040F96F918C04DD117F0400700F0B28026
:10924000178A1D6AFFB205F80C705FFA8CF56F1C67
:1092500093F818E07BB2DF1CBE4533769C4600F0E5
:109260000981271801EB87073F7EBB42CAD105F170
:10927000020C4FFA8CFC86F818C0C3E71588824EA2
:1092800025F400652D042D0C1580158845F48065A6
:1092900015809D7E00273776002D3DD0757E002DF0
:1092A00037D0231801EB830301251B7E7576022B33
:1092B00003D1138843F400631380231801EB830365
:1092C0009B7D43F001031382204401EB8000037E69
:1092D000BDE8F0819F7E757E4FF0010E86F81AE0A2
:1092E000002F5CD0002D78D1231801EB83035B7E27
:1092F000002B00F0A48013880CF1010C4FFA8CFCB9
:1093000043F4007386F818C013801388DF05FCD47B
:1093100078E7DB7DFF2BC4D0231801EB83039D7D11
:1093200005F0FE051582DB7DFF2BCDD0FF233376C4
:10933000CAE7938823F440731B041B0C93806EE7E9
:109340009B7E514E002B3FF441AF737E002B3FF4C8
:109350003DAF138823F480631B041B0C1380BFF301
:109360005F8F138B1388B57643F400731380938853
:1093700096F918C043F48063938043E79B7E002BEB
:109380003FF42EAF737E002B3FF42AAF138896F97B
:1093900018C023F480631B041B0C138016E0002DFF
:1093A000A2D0A8E72D067FF52DAFBCF1FF3F6DD011
:1093B000DD6915F80C5015820CF1010C1D7E4FFA79
:1093C0008CF39D429C4633767FF41CAF938823F444
:1093D00080631B041B0C938014E71F7ED3F820804E
:1093E0005FFA8CF5AE44022F4FFA8EFE17882DD906
:1093F00027F480673F043F0C1780178AFFB208F8F4
:109400000C701788D3F820C047F400731380138AB8
:10941000DBB20CF80E30938805F1020C4FFA8CFC8D
:1094200043F4806386F818C093806EE7938896F9BA
:1094300018C023F480631B041B0C9380E2E613889E
:10944000012543F48073138075765EE747F4007757
:109450001780178AFFB208F80C70178AD3F820809B
:1094600005F1030C4FFA8CFCFBB286F818C008F823
:109470000E304AE7978827F480673F043F0C9780B7
:10948000EFE600BF18B7002060180020DD7D1582D0
:109490009D7E37761DB91B7E002B7FF415AF938818
:1094A00023F480631B041B0C93800DE72CF022BE79
:1094B00038B51D4B1B78044600F1250593B10422F5
:1094C0001A4920304FF056FD2846142218494FF013
:1094D00051FD012384F83A30164B1B7873B984F898
:1094E0003B3038BD2846142213494FF043FD012379
:1094F00084F83A300F4B1B78002BF0D00F4B1868D4
:1095000059689A68DD68E56020606160A260DD6985
:10951000186959699A69A2610123E5612061616155
:1095200084F83B3038BD00BFC0B6002074B60020C0
:109530005CB60020C1B60020B01106087CB6002041
:10954000014B18682BF012BE045100200D4B002275
:1095500070B4026003F10A062925282400EB820179
:1095600000F822404D70DC781A79CA70B3428C70D2
:1095700005D093F905209C79DD790533EEE770BCC1
:10958000704700BF289005082DE9F84FDDE90A640F
:109590008946174600212022984605464FF0ACFC2C
:1095A0005EB1D6E900327189EB81C3F30F432B82A0
:1095B000C2F30F43EA822B83698248464DF0E2F9F9
:1095C00017F0100B10D1431E70B119F803202E2A8A
:1095D00018BF09EB030104D14AE011F8016D2E2EEA
:1095E0003ED013F1FF33F8D208280246CA46A8BF7E
:1095F00008224FF0000B4FF020336B602B60C5F852
:1096000007304946284605F108064EF04FF95A46FC
:10961000514630464EF04AF96B1EE81D13F8012FF3
:10962000A2F1610119299CBF203A1A708342F5D139
:1096300005F10B0116F8013BA3F16102192A9CBF49
:10964000203B06F8013CB142F4D11823C8F30F4285
:10965000EF722B73A5F81A80AA82EC61BDE8F88F2F
:10966000C01A00F1FF3BBBF1030FA8BF4FF0030B83
:10967000082B03F1010AA8BF0823CA441A46BAE717
:1096800038B5302200214FF037FC0346642440F205
:10969000DC5040F21A4140F26C7240F202251C7418
:1096A0005882132419209982DA8240F2753140F6EB
:1096B00043021D839C760E2502241877D9830A2045
:1096C0001E211A84012283F82D0083F82E1083F8BE
:1096D000225083F82C409A7383F8252083F82B209E
:1096E00019460248BDE838403BF058B8BC1106089E
:1096F00010B50021044601202AF0D8FF207010BDCB
:1097000038B500240472451EE1B202202AF0CEFFD3
:109710000134082C05F8010FF6D138BD38B5002406
:109720000546048021462846013427F03DFA082CDE
:10973000F8D1002185F8E210A5F8E410A5F8E610AC
:10974000A5F8E810A5F8EA10A5F8EC10A5F8EE10B9
:10975000A5F8F010A5F8F2102846BDE8384027F02B
:10976000E5B900BF2DE9F04F002087B00C461D463B
:10977000012192462BF086FF002D63D005EB0A03F2
:10978000DFF8D094DFF8D0B4039355461CE0002DE9
:1097900000F0C581D9F81430AB4264D0D9F810304C
:1097A000AB4200F09780D9E90631AB4252D8A942CA
:1097B00000F26F81691A204649F0DAFC039B0135FB
:1097C0009D4204F500743DD0D9F82060AE42DED849
:1097D000D9F83080AE1B4FEAD60AD8F830300AF1FB
:1097E000020A9A4506F0070603D3D8F838309A459E
:1097F00009D94146504649F089FC8046002800F0CE
:109800004D81C9F8300098F80430002B40F0E28018
:10981000D8F82870002F00F0DF81D8F83030D8F861
:109820000C20AAEB030A06EBCA0A4346204602EBC9
:109830004A224FF40071B847039B01359D4204F55D
:109840000074C1D1002108462BF01CFF002007B096
:10985000BDE8F08FA942ADD94FF400720021204637
:109860004FF04AFBAAE752226120412300262270D2
:109870006270A070722284F8E70184F8E631D9F8AA
:109880002800E3704FF0FF33314684F8E42184F878
:10989000E521C4F8E8014FF4F07284F8EC3184F863
:1098A000ED3184F8EE3184F8EF31201D4FF024FBC8
:1098B00055216FF05502C4F8F061C4F8F461C4F8A2
:1098C000F86184F8FC6184F8FD6184F8FE1184F885
:1098D000FF2173E74FF40072002120464FF00CFB8C
:1098E000D44BD54F03CBEB23022223704FF0080C4F
:1098F0009026F8234FF0580EC4F80300227484F821
:109900000DC0C4F8071084F801E0A6706375D9F89B
:109910001010D9F80830D9F81C602273591A216246
:109920004FF0FF3100233F20A1763E21A273E37266
:10993000E3736374A374E3742375A375E3756376AB
:10994000E3766377A377E3772076217784F82C207A
:1099500007CFD9F8187084F82830F61B84F829301E
:1099600084F82A3084F82B3084F82D3084F82E3097
:1099700084F82F3084F8313084F8323084F8333072
:1099800080236662C4F8470004F1470684F840303B
:1099900029209423A94F84F846C084F8420084F813
:1099A00043300E200D234FF0010C84F8440084F85E
:1099B000453084F830C0716003CF33465527AA265E
:1099C0009A60C4F85200C4F8561084F8FE7184F806
:1099D000FF61F3E64FF40072002120464FF08CFA4D
:1099E000D8F84030002E61D104F12007002B77D049
:1099F000D8F8303092491122CDE900662046FFF7B1
:109A0000C3FDD8F840301A6C04F1400A002A79D01E
:109A10001B6B8C49CDE9006638461122FFF7B4FD77
:109A2000D8F84460002E3FF4C9AE4FF4E078CDE999
:109A300004450CE00024CDE900C4FFF7A5FDB66C99
:109A4000BA46A8F120080EB3B8F11F0F1ED934682A
:109A5000356B96F804E011222B46214650460AF158
:109A6000200706F11C0CBEF1000FE3D172793369B7
:109A7000019342F021022B46CDF800C0FFF784FD90
:109A8000B66CBA46A8F12008002EDDD1DDE9044508
:109A900094E6E91A204649F06BFB8FE6231F04F594
:109AA000FE7243F804BF9A42FBD187E6002BD8F838
:109AB00044200CBF01230223C3EB0613002A3FF40A
:109AC0007DAE966C013B002E3FF478AE013BB66C48
:109AD000F9D1002E3FF472AEA2464FF40078A6E70B
:109AE000CDE900663346D9F80C1008222046FFF76E
:109AF0004BFDD8F84460002E3FF460AEBA464FF4F8
:109B0000F07894E7CDE900663346384611224D4996
:109B1000FFF73AFDD8F84460002E86D14EE64FF4A8
:109B20000072294620464FF0E7F980220C2384F882
:109B3000BE2184F8C231D9F81000434BD9F808602F
:109B400084F8B85183FB0032C117C1EB2232B2F561
:109B5000806F84F8B95184F8BA5184F8BB5184F805
:109B6000BC5184F8BD51C4F8C601C4F8CA6142DBD7
:109B7000FF2384F8BF3184F8C13184F8C031324BFF
:109B8000711E83FB0132CE17C6EB2232B2F5806F15
:109B900029DA2E4B84F8C52183FB01030B442C48A2
:109BA000C6EB6313C3EB831680FB0370891B184459
:109BB000DE17921022F03F020131C6EBE0100A439B
:109BC000034484F8C42184F8C3315522AA2384F8BD
:109BD000FE2184F8FF31F1E539464FF4007220464A
:109BE0004FF08AF9EAE5FF2384F8C33184F8C531E0
:109BF00084F8C431E9E7154B84F8C12183FB007375
:109C00000344134FC1EB631387FB0317C3EB831CA0
:109C10009110A0EB0C02F818DF1721F03F01013280
:109C2000C7EBE0100A43034484F8C02184F8BF3135
:109C3000A5E700BFD0110608DC110608EC110608E4
:109C4000C8110608CC1106089755454183200882A3
:109C500081808080C8D40020DEADBEEF08B5012031
:109C60001CF026FB174A936803F00C03042B1ED04C
:109C7000082B18D151685368490203F03F0319D4E7
:109C800052681148B0FBF3F0C2F3881300FB03F0F5
:109C90000C4B0E4A5B68C3F3014301335B00B0FB1E
:109CA000F3F0106008BD094B074A1A6008BD074B66
:109CB000186008BDB0FBF3F05368C3F3881300FBD2
:109CC00003F0E5E7003802400024F40070B80020FB
:109CD00010B5044C04480A4621461AF0D5FF204628
:109CE00010BD00BF7C180020F811060810B5044C08
:109CF00004480A4621461AF0C7FF204610BD00BF9F
:109D00007C1800200812060810B5044C04480A46C6
:109D100021461AF0B9FF204610BD00BF7C18002074
:109D2000141206080A4608B5054920B105481AF07C
:109D3000ABFF034808BD04481AF0A6FF004808BD61
:109D40007C180020401206082812060808B58389EE
:109D500040F2E93300E0A3B10289013B12F0020FA7
:109D60009BB2F8D089B2818140F2E93300E043B17F
:109D70000289013B12F0010F9BB2F8D08089C0B27A
:109D800008BD2BF0FDFEC0B208BD00BF38B50546CA
:109D900040683B4A038823F040031B041B0C0380EC
:109DA000038823F038031B0490424FEA134305D085
:109DB00002F58062904201D043F0080303800388DB
:109DC000AA6843F04003038012B1136892885A8353
:109DD000838940F2E93301E0002B43D00289013B43
:109DE00012F0020F9BB2F7D0F523838140F2E933E2
:109DF00001E0002B36D00289013B12F0010F9BB22B
:109E0000F7D08389838940F2E93300E00BB30289FC
:109E1000013B12F0020F9BB2F8D0FF23838140F286
:109E2000E93300E0ABB10289013B12F0010F9BB2B4
:109E3000F8D08489E4B2AB6813B11A689B881383A5
:109E4000712C19D008D9AC2C14D0AF2C0ED109200C
:109E500038BD2BF095FEEEE7122C0FD0702C07D1F9
:109E6000052038BD2BF08CFE6868CBE7732C03D03F
:109E7000002038BD072038BD062038BD082038BD79
:109E8000003800402DE9F04F87B0A94A02904068A1
:109E9000038823F040031B041B0C0380038823F07A
:109EA00038031B0490424FEA134300F03F8102F550
:109EB000806290420CBF3022382213430380029B01
:109EC00002889B6842F04002028013B11A689B88A6
:109ED0005383838940F2E93302E0002B00F0908144
:109EE0000289013B12F0020F9BB2F6D06B238381F3
:109EF00040F2E93302E0002B00F082810289013B4D
:109F000012F0010F9BB2F6D08389838940F2E933C6
:109F100002E0002B00F071810289013B12F0020F78
:109F20009BB2F6D08023838140F2E93302E0002B1C
:109F300000F063810289013B12F0010F9BB2F6D061
:109F40008389029B9B6813B11A689B88138306233D
:109F5000784CDFF8EC81DFF8ECA1774D774E049375
:109F60009623DFF8E4C101934FF0100EDAF80430C5
:109F7000C3F30803002B40F0B280EFF31183002BF2
:109F800040F0AD802068AA6823689842FAD133680F
:109F90009A42F7D8D8F800704FF47A7101FB07F3B2
:109FA0009B1AB3FBF7F301FB00304FF47A774FF0C5
:109FB0000109DAF80430C3F30803002B70D1EFF382
:109FC0001183002B6CD12368A96822689342FAD1CF
:109FD00032689142F7D8D8F8002007FB02FBABEBC0
:109FE0000101B1FBF2F107FB03131B1AB3F57A7FF2
:109FF000DFD3019B013B0193B8D1029B9B6813B156
:10A000001A689B885383029B586840F2E93382891F
:10A0100002E0002B00F085800289013B12F0020F64
:10A020009BB2F6D0F523838140F2E93301E0002BA7
:10A0300077D00289013B12F0010F9BB2F7D08389E0
:10A04000838940F2E93301E0002B67D00289013BAC
:10A0500012F0020F9BB2F7D0FF23838140F2E93365
:10A0600001E0002B5AD00289013B12F0010F9BB294
:10A07000F7D08389DBB20393029B9A6812B113680D
:10A0800091881983039B682B60D0049B013B13F0DC
:10A09000FF0304937FF464AF184607B0BDE8F08F68
:10A0A000EFF311818EF31288D5F808B02B68DB032B
:10A0B00044BFCCF80090D5F808B02368DCF8002045
:10A0C000C9B281F31188D8F80010134407FB01F2DC
:10A0D000A2EB0B02B2FBF1F207FB032385E7EFF3E0
:10A0E00011838EF31288AF682A68D20303D5012248
:10A0F000CCF80020AF682068DCF80090DBB283F376
:10A100001188D8F800104FF47A72484402FB01F32A
:10A11000DB1BB3FBF1F302FB003046E72BF030FD15
:10A12000AAE72BF02DFD029B586889E73022C4E690
:10A13000003800408CC2002010E000E094C20020F3
:10A1400090C2002000ED00E088C2002012B1136828
:10A1500092885A83029B586840F2E933828901E071
:10A16000002B45D00289013B12F0020F9BB2F7D0C1
:10A170008C23838140F2E93301E0002B38D002893F
:10A18000013B12F0010F9BB2F7D08389838940F223
:10A19000E9330289013B12F0020F9BB215D1002B6B
:10A1A000F7D12BF0EDFC029B9B6813B11A689B88DA
:10A1B0001383059B142B04D3182B17D9543B062B60
:10A1C00014D9002007B0BDE8F08FFF23838140F24F
:10A1D000E93301E0002BE4D00289013B12F0010FCA
:10A1E0009BB2F7D08389DBB20593DCE7032054E709
:10A1F0002BF0C6FC029B5868C8E72BF0C1FCA0E618
:10A200002BF0BEFC029B58687FE600BFF0B5876963
:10A2100083B0064617B13B68BA885A837069DFF885
:10A22000A8E08389C3244FF47A734FF0060C6D467F
:10A230004FF6FF710EF1010E03E0013B9BB28B4222
:10A2400020D002899207F8D5A3B283814FF47A73A4
:10A2500002E0A3B28B4215D00289D20703F1FF348A
:10A26000F7D5828992B20DB12A700135BCF1000F89
:10A270000BD00CF1FF3CFF24BEF1000FE1D09EF8A3
:10A280000040D7E72BF07CFCB76917B13B68BA8870
:10A290001A839DF805009DF801509DF802109DF865
:10A2A00003409DF804209DF8063041EA052143EA69
:10A2B000002342EA04220120A6F85010A6F85220FA
:10A2C000A6F8543003B0F0BD3890050810B500F181
:10A2D0000C040022212120462BF026FEFC22202106
:10A2E00020462BF021FE4022242120462BF01CFE8C
:10A2F0000C22232120462BF017FE0022222120468B
:10A300002BF012FE64202AF01BFC012010BD10B5BA
:10A3100000F10C047022002120462BF005FE2022C3
:10A32000012120462BF000FE0022022120462BF0C6
:10A33000FBFD64202AF004FC012010BD012248210D
:10A340002BF0F2BD012258212BF0EEBD3122F42179
:10A350002BF0EABD044B93F820209201343202F036
:10A36000FC02F4212BF0E0BD584A00202E22F421FB
:10A370002BF0DABD2DE9F04F90F8583087B0072B5D
:10A38000039000F014861823CDE90433039BBE4CE0
:10A39000BE4EDFF80483BE4F1033184680226B2177
:10A3A00002932BF0C1FD6423DFF8F0E2B94801937A
:10A3B0004FF01009DEF80430C3F30803002B40F01F
:10A3C000A584EFF31183002B40F0A08425688268F8
:10A3D00023689D42FAD13B689A42F7D8D6F800C06C
:10A3E0004FF47A7101FB0CF39B1AB3FBFCF301FBF6
:10A3F00005354FF47A7C4FF0010ADEF80430C3F3E0
:10A400000803002B40F06384EFF31183002B40F02E
:10A410005E842368816822689342FAD13A68914247
:10A42000F7D832680CFB02FBABEB0101B1FBF2F198
:10A430000CFB03135B1BB3F57A7FDED3019B013B5F
:10A440000193B7D1072268210298DFF84C82904F20
:10A450002BF06AFD6423DFF844E28E4801934FF04D
:10A460001009DEF80430C3F30803002B40F0928497
:10A47000EFF31183002B40F08D84256882682368F8
:10A480009D42FAD13B689A42F7D8D6F800C04FF403
:10A490007A7101FB0CF39B1AB3FBFCF301FB05354E
:10A4A0004FF47A7C4FF0010ADEF80430C3F308035E
:10A4B000002B40F0EE83EFF31183002B40F0E98393
:10A4C0002368816822689342FAD13A689142F7D8AA
:10A4D00032680CFB02FBABEB0101B1FBF2F10CFBB0
:10A4E00003135B1BB3F57A7FDED3019B013B019322
:10A4F000B7D11A466B210298DFF89C81644F2BF08C
:10A5000013FD6423DFF894E1624801934FF01009D2
:10A51000DEF80430C3F30803002B40F01984EFF396
:10A520001183002B40F014842568826823689D42C3
:10A53000FAD13B689A42F7D8D6F800C04FF47A7146
:10A5400001FB0CF39B1AB3FBFCF301FB05354FF445
:10A550007A7C4FF0010ADEF80430C3F30803002BC5
:10A5600040F07983EFF31183002B40F0748323686C
:10A57000816822689342FAD13A689142F7D83268EA
:10A580000CFB02FBABEB0101B1FBF2F10CFB031383
:10A590005B1BB3F57A7FDED3019B013B0193B7D1FF
:10A5A00001226B210298DFF8F080394F2BF0BCFCC0
:10A5B0000F23DFF8E8E0374801934FF01009DEF889
:10A5C0000430C3F30803002B40F0CD84EFF3118374
:10A5D000002B40F0C8842568826823689D42FAD128
:10A5E0003B689A42F7D8D6F800C04FF47A7101FB65
:10A5F0000CF39B1AB3FBFCF301FB05354FF47A7C9B
:10A600004FF0010ADEF80430C3F30803002B40F0DA
:10A610000483EFF31183002B40F0FF8223688168ED
:10A6200022689342FAD13A689142F7D832680CFB1B
:10A6300002FBABEB0101B1FBF2F10CFB03135B1B63
:10A64000B3F57A7FDED3019B013B0193B7D1059A25
:10A650000298DFF844800E4F1B212BF065FC0F237E
:10A66000DFF838E00B4801934FF01009DEF80430B2
:10A67000C3F30803002B40F05484EFF31183002B45
:10A6800040F04F840CE000BF8CC2002090C200203C
:10A6900094C2002010E000E088C2002000ED00E03D
:10A6A0002568826823689D42FAD13B689A42F7D8B0
:10A6B000D6F800C04FF47A7101FB0CF39B1AB3FB80
:10A6C000FCF301FB05354FF47A7C4FF0010ADEF80C
:10A6D0000430C3F30803002B40F08182EFF31183B1
:10A6E000002B40F07C822368816822689342FAD173
:10A6F0003A689142F7D832680CFB02FBABEB0101E0
:10A70000B1FBF2F10CFB03135B1BB3F57A7FDED3D5
:10A71000019B013B0193A9D1049A0298DFF81483AD
:10A72000C24F1C212BF000FC0F23DFF80CE3C048C4
:10A7300001934FF01009DEF80430C3F30803002B37
:10A7400040F0CE83EFF31183002B40F0C9832568DE
:10A75000826823689D42FAD13B689A42F7D8D6F8BE
:10A7600000C04FF47A7101FB0CF39B1AB3FBFCF3AE
:10A7700001FB05354FF47A7C4FF0010ADEF8043016
:10A78000C3F30803002B40F00C82EFF31183002B7E
:10A7900040F007822368816822689342FAD13A68C0
:10A7A0009142F7D832680CFB02FBABEB0101B1FB25
:10A7B000F2F10CFB03135B1BB3F57A7FDED3019B35
:10A7C000013B0193B7D1039A92F85B30032B00F25F
:10A7D000EC8392F85E20012A0BD0022A40F0E58338
:10A7E000039B93F8633003F0FB03022B0CBF0022A2
:10A7F00007221A210298DFF83C828C4F2BF094FB41
:10A800000F23DFF834E28A4801934FF01009DEF895
:10A810000430C3F30803002B40F02083EFF31183CF
:10A82000002B40F01B832568826823689D42FAD183
:10A830003B689A42F7D8D6F800C04FF47A7101FB12
:10A840000CF39B1AB3FBFCF301FB05354FF47A7C48
:10A850004FF0010ADEF80430C3F30803002B40F088
:10A860008281EFF31183002B40F07D8123688168A2
:10A8700022689342FAD13A689142F7D832680CFBC9
:10A8800002FBABEB0101B1FBF2F10CFB03135B1B11
:10A89000B3F57A7FDED3019B013B0193B7D1039BD4
:10A8A000029893F86020DFF88C81604F19212BF01B
:10A8B0003BFB6423DFF880E15D4801934FF0100912
:10A8C000DEF80430C3F30803002B40F0E882EFF316
:10A8D0001183002B40F0E3822568826823689D4243
:10A8E000FAD13B689A42F7D8D6F800C04FF47A7193
:10A8F00001FB0CF39B1AB3FBFCF301FB05354FF492
:10A900007A7C4FF0010ADEF80430C3F30803002B11
:10A9100040F00B81EFF31183002B40F00681236898
:10A92000816822689342FAD13A689142F7D8326836
:10A930000CFB02FBABEB0101B1FBF2F10CFB0313CF
:10A940005B1BB3F57A7FDED3019B013B0193B7D14B
:10A950000298DFF8E080354F102237212BF0E4FA1F
:10A960000F23DFF8D4E0324801934FF01009DEF8EE
:10A970000430C3F30803002B40F04F82EFF3118340
:10A98000002B40F04A822568826823689D42FAD1F4
:10A990003B689A42F7D8D6F800C04FF47A7101FBB1
:10A9A0000CF39B1AB3FBFCF301FB05354FF47A7CE7
:10A9B0004FF0010ADEF80430C3F30803002B40F027
:10A9C0009680EFF31183002B40F09180236881681B
:10A9D00022689342FAD13A689142F7D832680CFB68
:10A9E00002FBABEB0101B1FBF2F10CFB03135B1BB0
:10A9F000B3F57A7FDED3019B013B0193B7D10F23DF
:10AA0000DFF834E00A48DFF82C80084F01934FF05C
:10AA10001009DEF80430C3F30803002B40F0DC819A
:10AA2000EFF31183002B40F0D78107E094C20020A0
:10AA300010E000E088C2002000ED00E02568826898
:10AA400023689D42FAD13B689A42F7D8D6F800C0F5
:10AA50004FF47A7101FB0CF39B1AB3FBFCF301FB7F
:10AA600005354FF47A7C4FF0010ADEF80430C3F369
:10AA70000803F3B9EFF31183DBB923688168226817
:10AA80009342FAD13A689142F7D832680CFB02FB44
:10AA9000ABEB0101B1FBF2F10CFB03135B1BB3F554
:10AAA0007A7FE2D3019B013B0193B2D107B0BDE8AD
:10AAB000F08FEFF3118189F31288D0F808B00368A2
:10AAC000DB0344BFC8F800A0D0F808B02368D8F86A
:10AAD0000020C9B281F31188316813440CFB01F2E4
:10AAE000A2EB0B02B2FBF1F20CFB0323D6E7EFF370
:10AAF000118189F31288D0F808B00368DB0344BFE2
:10AB0000C8F800A0D0F808B02368D8F80020C9B26F
:10AB100081F31188316813440CFB01F2A2EB0B02A4
:10AB2000B2FBF1F20CFB032361E7EFF3118189F330
:10AB30001288D0F808B00368DB0344BFC8F800A04F
:10AB4000D0F808B02368D8F80020C9B281F3118882
:10AB5000316813440CFB01F2A2EB0B02B2FBF1F2E1
:10AB60000CFB0323ECE6EFF3118189F31288D0F894
:10AB700008B00368DB0344BFC8F800A0D0F808B0F1
:10AB80002368D8F80020C9B281F3118831681344D2
:10AB90000CFB01F2A2EB0B02B2FBF1F20CFB032364
:10ABA00075E6EFF3118189F31288D0F808B00368D5
:10ABB000DB0344BFC8F800A0D0F808B02368D8F879
:10ABC0000020C9B281F31188316813440CFB01F2F3
:10ABD000A2EB0B02B2FBF1F20CFB0323EBE5EFF36C
:10ABE000118189F31288D0F808B00368DB0344BFF1
:10ABF000C8F800A0D0F808B02368D8F80020C9B27F
:10AC000081F31188316813440CFB01F2A2EB0B02B3
:10AC1000B2FBF1F20CFB032376E5EFF3118189F32C
:10AC20001288D0F808B00368DB0344BFC8F800A05E
:10AC3000D0F808B02368D8F80020C9B281F3118891
:10AC4000316813440CFB01F2A2EB0B02B2FBF1F2F0
:10AC50000CFB0323F3E4EFF3118189F31288D0F89E
:10AC600008B00368DB0344BFC8F800A0D0F808B000
:10AC70002368D8F80020C9B281F3118831681344E1
:10AC80000CFB01F2A2EB0B02B2FBF1F20CFB032373
:10AC90007EE4EFF3118189F31288D0F808B00368DD
:10ACA000DB0344BFC8F800A0D0F808B02368D8F888
:10ACB0000020C9B281F31188316813440CFB01F202
:10ACC000A2EB0B02B2FBF1F20CFB032309E4EFF35E
:10ACD000118189F31288D0F808B00368DB0344BF00
:10ACE000C8F800A0D0F808B02368D8F80020C9B28E
:10ACF00081F31188316813440CFB01F2A2EB0B02C3
:10AD0000B2FBF1F20CFB0323FFF794BBEFF31183CB
:10AD100089F31288D0F808C00268D20304D5012252
:10AD2000C8F80020D0F808C02568D8F800A0DBB229
:10AD300083F3118831684FF47A72554402FB01F3B2
:10AD4000A3EB0C03B3FBF1F302FB0535FFF751BB9B
:10AD5000EFF3118389F31288D0F808C00268D20398
:10AD600004D50122C8F80020D0F808C02568D8F81A
:10AD700000A0DBB283F3118831684FF47A72554436
:10AD800002FB01F3A3EB0C03B3FBF1F302FB05356C
:10AD9000FFF7DDBBEFF3118389F31288D0F808C009
:10ADA0000268D20304D50122C8F80020D0F808C0F8
:10ADB0002568D8F800A0DBB283F3118831684FF41E
:10ADC0007A72554402FB01F3A3EB0C03B3FBF1F3DE
:10ADD00002FB0535FFF764BBEFF3118389F312889B
:10ADE000D0F808C00268D20304D50122C8F80020B8
:10ADF000D0F808C02568D8F800A0DBB283F311882A
:10AE000031684FF47A72554402FB01F3A3EB0C0353
:10AE1000B3FBF1F302FB053523E6EFF3118389F36E
:10AE20001288D0F808C00268D20304D50122C8F8FD
:10AE30000020D0F808C02568D8F800A0DBB283F362
:10AE4000118831684FF47A72554402FB01F3A3EB89
:10AE50000C03B3FBF1F302FB0535A7E5EFF3118318
:10AE600089F31288D0F808C00268D20304D5012201
:10AE7000C8F80020D0F808C02568D8F800A0DBB2D8
:10AE800083F3118831684FF47A72554402FB01F361
:10AE9000A3EB0C03B3FBF1F302FB0535D6E4EFF3B0
:10AEA000118389F31288D0F808C00268D20304D550
:10AEB0000122C8F80020D0F808C02568D8F800A002
:10AEC000DBB283F3118831684FF47A72554402FB88
:10AED00001F3A3EB0C03B3FBF1F302FB05350EE525
:10AEE000EFF3118389F31288D0F808C00268D20307
:10AEF00004D50122C8F80020D0F808C02568D8F889
:10AF000000A0DBB283F3118831684FF47A725544A4
:10AF100002FB01F3A3EB0C03B3FBF1F302FB0535DA
:10AF200028E4EFF3118389F31288D0F808C002688F
:10AF3000D20304D50122C8F80020D0F808C0256843
:10AF4000D8F800A0DBB283F3118831684FF47A722D
:10AF5000554402FB01F3A3EB0C03B3FBF1F302FB3B
:10AF60000535FFF7B0BBEFF3118389F31288D0F8F2
:10AF700008C00268D20304D50122C8F80020D0F826
:10AF800008C02568D8F800A0DBB283F311883168C7
:10AF90004FF47A72554402FB01F3A3EB0C03B3FBAD
:10AFA000F1F302FB0535FFF729BB019A21E490F884
:10AFB0005D3023B91023CDE90433FFF7E7B9102141
:10AFC0001823CDE90413FFF7E1B900BF42699449A2
:10AFD000138823F040032DE9F04F1B041B0C138052
:10AFE000138883B023F038031B048A4201904FEA90
:10AFF000134300F00A8101F580618A420CBF2821C9
:10B0000030210B431380138843F040031380012049
:10B0100029F038FD019C2046FFF7ACF9A36913B174
:10B020001A689B885383019B586940F2E9338289EF
:10B0300002E0002B00F0EE800289013B12F0020FCB
:10B040009BB2F6D06A23838140F2E93302E0002B01
:10B0500000F0E0800289013B12F0010F9BB2F6D0B4
:10B060008389838940F2E93302E0002B00F0CF802E
:10B070000289013B12F0020F9BB2F6D010238381AC
:10B0800040F2E93302E0002B00F0C1800289013B6D
:10B0900012F0010F9BB2F6D08389019B9B6913B11B
:10B0A0001A689B88138364235E48DFF884E1DFF825
:10B0B00084C15D4CDFF880815C4E00934FF0100935
:10B0C000DCF80430C3F30803002B7FD1EFF31183C6
:10B0D000002B7BD10568A26803689D42FAD13368D2
:10B0E0009A42F7D8DEF800704FF47A7101FB07F34B
:10B0F0009B1AB3FBF7F301FB05354FF47A774FF05A
:10B10000010ADCF80430C3F30803002B3FD1EFF34E
:10B110001183002B3BD10368A16802689342FAD1E6
:10B1200032689142F7D8DEF8002007FB02FBABEB58
:10B130000101B1FBF2F107FB03135B1BB3F57A7F4F
:10B14000DFD3009B013B0093BAD1019B34495A697C
:10B15000138823F040031B041B0C1380138823F077
:10B1600038031B048A424FEA134305D001F580617E
:10B170008A4201D043F0080313801388012043F072
:10B180004003138003B0BDE8F04F29F07BBCEFF320
:10B19000118189F31288D4F808B02368DB0344BF17
:10B1A000C8F800A0D4F808B00368D8F80020C9B2E5
:10B1B00081F31188DEF80010134407FB01F2A2EBC3
:10B1C0000B02B2FBF1F207FB0323B6E7EFF31183A7
:10B1D00089F31288A7682268D20303D50122C8F830
:10B1E0000020A7680568D8F800A0DBB283F31188B7
:10B1F000DEF800104FF47A72554402FB01F3DB1BBA
:10B20000B3FBF1F302FB053577E72821F9E62AF0D5
:10B21000B7FC42E72AF0B4FC019B586921E700BF64
:10B22000003800408CC2002010E000E094C20020F2
:10B2300090C2002000ED00E088C2002013B5062374
:10B240000C466A4628210C302AF06AFDF0B19DF8C0
:10B2500001309DF8002042EA032204219DF80330CA
:10B2600012B292FBF1F222809DF8022042EA032200
:10B2700012B29DF8043092FBF1F262809DF8052035
:10B2800043EA02231BB293FBF1F3A38002B010BD8B
:10B2900013B506230C466A4603210C302AF040FD04
:10B2A000A0B19DF800209DF8013043EA02232380DD
:10B2B0009DF802209DF8033043EA0223A3809DF805
:10B2C00004209DF8053043EA0223638002B010BDDC
:10B2D00007B5032301AA00212AF022FD9DF80530BD
:10B2E0009DF804001B0243EA00439DF80600184342
:10B2F00003B05DF804FB08B5FFF7EAFF014B5860A7
:10B3000008BD00BF6018002008B5FFF7E1FF014B42
:10B31000186008BD6018002007B506236A46F721AB
:10B320002AF0FEFC9DF801309DF800100B4A1B012D
:10B3300043EA01339DF8021043EA1113D3609DF8EC
:10B3400004309DF803101B0143EA01339DF80510FA
:10B3500043EA1113936003B05DF804FB601800200A
:10B3600007B5032301AAF6212AF0DAFC9DF805307F
:10B370009DF804201B0243EA02439DF80620134374
:10B38000054AB2F92020C2F10802D340034A5361B2
:10B3900003B05DF804FB00BF584A0020601800208D
:10B3A00007B5022301AAF6212AF0BAFC9DF8042071
:10B3B0009DF8053043EA0223024A138203B05DF888
:10B3C00004FB00BF6018002070B582B0044606235D
:10B3D00010306A4643212AF0A3FCC0B19DF8040056
:10B3E0009DF800609DF801109DF802509DF8032023
:10B3F0009DF8053041EA062143EA002342EA05228E
:10B40000A4F85010A4F85220A4F85430012002B03F
:10B4100070BD00BF70B582B0044606230C306A468A
:10B420003B212AF07DFCA8B19DF804009DF8006046
:10B430009DF801109DF802509DF803209DF80530FD
:10B4400041EA062143EA002342EA05226183A283FE
:10B45000E383012002B070BD7FB504AA002302F887
:10B46000093DE721012306462AF0ACFB9DF8073091
:10B47000144D154C13F0030320D0052302AAE82134
:10B4800030462AF09FFB9DF80A209DF8091013040E
:10B4900043EA01239DF8081012F0800F14BF4FF00B
:10B4A0007F4200220B4313432B609DF80C209DF834
:10B4B0000B3043EA0223238004B070BD2B6023804D
:10B4C000FAE700BF904A00208C4A00202DE9F84F8F
:10B4D000037C02681F2B86BF203B51681168202225
:10B4E00002FA03F30B4214BF012300230BB9BDE89A
:10B4F000F88F4569DFF88891044629F071FA4FF416
:10B50000867303FB059306465A7C002A30D15749BF
:10B510005A6809781768C1B9D3F8801058890A6841
:10B5200022F001020A60BB8923EA0003BB81504B71
:10B530001B78002B30D1237C21681F2B11D82022AF
:10B5400002FA03F38B60BDE8F88F5269136823F0A9
:10B5500001031360BB8923F480731B041B0CBB81A4
:10B56000E5E7203B202202FA03F3CB60BDE8F88F29
:10B57000D3F880603F485F8901229A7431685A6825
:10B580000368156821F001013160AA89013322EABC
:10B590000702AA810360CEE74FF4867A0AFB05FA18
:10B5A00009EB0A05D5F8808040461AF019FE012300
:10B5B0006B74D5F884B029F013FA3B88CBF82C01D2
:10B5C00023F080031B044FF0FF321B0C3B80FA6218
:10B5D0003B880AF1340143F080033B8049443846FC
:10B5E0001AF0BEFED5E915702B6CD5F850C0D5E920
:10B5F00017123B4303430B4313436A6E6F6FD8F834
:10B6000000001D491343AA6E1343AA6F3B43014038
:10B6100013430B430022EA64C8F80030D5E91B301D
:10B62000D8F81410D5F880206F6C21F0070103437F
:10B630000B43A86C95F87C10C8F81430C8F804C007
:10B64000C8F80870C8F80C0051606B681168186879
:10B650006D8941F00101116083892B43838129F0B9
:10B66000BFF9064B801B186065E700BF94370010D8
:10B670009037001010A000203F801CF0C80E001072
:10B6800080DB002020B10078B0FA80F040097047DC
:10B690000120704708B520214DF045FC03461846AF
:10B6A00023B10278202A03F10103F8D008BD037901
:10B6B00003F01803082B0AD002D82BB100207047E2
:10B6C000102B14D0182BF9D1B0F80B007047104B89
:10B6D000B0F80B0093F90030591C06BF0D4B1B78D6
:10B6E000DBB203EB831300EB430080B270470A4BDD
:10B6F000B0F80B0093F900305A1C06BF054B5B787D
:10B70000DBB203EB031300EB430080B2704700BFD2
:10B71000B50D00209CD80020B40D0020F0B50679AE
:10B7200006F0E003402B09D144794FF0FF350023A8
:10B73000012006F00706A3420BD1F0BD602B08BF25
:10B7400045794FF001040CBF04FA05F54FF0FF35C1
:10B75000EDE7042E0CD8DFE806F0030D18242E00C8
:10B7600030B1C85CD75C784028420CBF0120002073
:10B770000133E0E70028FBD0C856D756A0EB070CF2
:10B78000DCF1000040EB0C00F2E70028F0D031F8CB
:10B79000130032F81370784028420CBF01200020BB
:10B7A000E6E70028E4D031F9130032F91370C71B23
:10B7B00078427841DCE70028DAD051F8230052F8CB
:10B7C0002370784028420CBF01200020D0E7024BB4
:10B7D000014618682AF08EBCF84F002038B5064D97
:10B7E000441E14F8011F286819B9BDE838402AF032
:10B7F000F9BB2AF07FFCF4E7F84F00200048EDE7A2
:10B80000BE4D060808B5FFF7E9FFBDE80840F5E7BB
:10B8100010B504460348FFF7E1FF2046BDE810409D
:10B82000F0E700BFF810060808B532B1C30600D52E
:10B8300019B11046FFF7ECFF0022104608BD38B5DD
:10B84000074C084DAC4203D3074B00221A7038BD99
:10B850006288D4E901014CF029F81434F2E700BF02
:10B8600090010008BC070008F89C0020024A1368F9
:10B8700023EA000010607047DCED0020DFED2E7A37
:10B88000B4EEE70AF1EE10FA4ADDDFED2C6A9FED27
:10B890002C7A01E0B0EE670AB4EEC70AF1EE10FAB6
:10B8A00070EE667AF6DC9FED277AF4EEC77AF1EE59
:10B8B00010FA3ED5DFED216A9FED237A01E0F0EE2C
:10B8C000407AF4EEC77AF1EE10FA37EEA60AF6D413
:10B8D000DFED1E7AB4EEE70AF1EE10FA14DDDFEDCB
:10B8E000167A37EEC00A60EE006A9FED196A9FED86
:10B8F000197ADFED197AA6EE867A20EE266AE6EE50
:10B90000877AA6EE270A7047DFED147AB4EEE70ACD
:10B91000F1EE10FA44BFDFED0B7A37EEC00AE2E732
:10B920009FED087AF0EE407AF4EEC77AF1EE10FA65
:10B93000C0D4B0EE670ACBE7DB0F4940DB0FC9404C
:10B94000E4CB1641DB0F49C0E4CB16C1DB0FC93F86
:10B9500092E741B99730083C15A82ABEDB0FC9BF52
:10B96000F0EEC07AB0EEE07AB4EEE77AF1EE10FADB
:10B97000B4BFB0EE676AB0EE476AB5EE406AF1EE6A
:10B9800010FA46D0B4EEE77AF1EE10FA8CBFF0EE82
:10B99000675AF0EE475AC5EE866A9FED1F3A9FED53
:10B9A0001F6A9FED1F4A9FED1F5ADFED1F3ADFED23
:10B9B0001F4ADFED1F5AA6EEC36AE6EEA34AA6EEC3
:10B9C000864AB7EE006AA6EE845AA6EEA46AE6EEB0
:10B9D000855AC5EE866AB4EEE77AF1EE10FA48BFF2
:10B9E000DFED147AF5EEC00A48BF77EEE66AF1EEB5
:10B9F00010FA48BFDFED107AB5EEC00A48BF77EE07
:10BA0000E66AF1EE10FA48BFF1EE666AB0EE660A39
:10BA10007047DFED076ADEE739094E3DE3B59E3E2C
:10BA200088FA163E45FE7F3F99FB243F69A2163EE9
:10BA3000A7DFA834DB0FC93FDB0F4940DFED317AC8
:10BA400030EE277AFDEEC76A16EE903A2033402B8F
:10BA500002D99FED2D0A7047B4EEE70AF1EE10FA15
:10BA60004DDD9FED2A6ADFED2A6A01E0B0EE677ACC
:10BA7000B4EEE67AF1EE10FA77EE467AF6DC9FED58
:10BA8000257AF4EEC77AF1EE10FA35D5DFED1F6AAC
:10BA90009FED217A01E0F0EE407AF4EEC77AF1EE04
:10BAA00010FA37EEA60AF6D4DFED167AB4EEE70AFE
:10BAB000F1EE10FA1BDCDFED197AB4EEE70AF1EED5
