:020000040800F2
:10000000F0FF00102D61050811D70108E93303083E
:10001000CD610508CD610508CD610508000000002F
:100020000000000000000000000000001DD70108D3
:1000300019D701080000000015D701084D34030846
:10004000CD610508CD610508CD610508CD610508C4
:10005000CD610508CD610508D1CA0408FDCB0408AF
:10006000C1CB040885CB040849CB04085D0C01080A
:100070004D0C01083D0C01082D0C0108190C01085C
:10008000050C0108F10B0108CD610508CD610508DB
:10009000CD610508CD610508CD6105080DCB0408CB
:1000A000691B030805210308991A0308E1210308C5
:1000B00045200308851F0308B91E030845120108DF
:1000C0004D1201083912010841120108CD610508DD
:1000D000CD610508DD42030841420308A54103083C
:1000E00095CA0408CD61050801250208C91903084D
:1000F000391C0308F9180308191D0308DD0B010852
:10010000CD610508CD610508E91D0308CD6105082D
:10011000094103086D400308EDDD030875DC0308A1
:10012000C90B0108B50B0108A10B01088D0B0108D3
:10013000790B0108CD610508CD610508CD61050881
:10014000CD610508CD610508CD610508D9F101082B
:10015000650B0108510B01083D0B0108CD61050835
:100160002D12010835120108CD610508CD61050881
:10017000CD610508CD610508CD610508CD61050893
:08018000CD610508CD61050801
:08018800D45C05000100000039
:100190001002010054210020502100200000000026
:1001A000800700081F02100068210020582100204D
:1001B0000000000071850008281010004C4B002042
:1001C0003C4B002000000000251C01081C02100010
:1001D000184700205C4B002000000000B18300089D
:1001E00010100200684A00206C4B00200000000044
:1001F0008207000819000500604A0020704B0020AB
:100200000000000084070008F8210600584A00207A
:10021000784B0020000000008A07000801200C0035
:10022000A4430020804B002000000000900700083D
:100230000A702800104300208C4B002000000000B2
:10024000C91B01080EB0860188410020B44B002074
:10025000000000009D0F040801010400E44000209C
:100260003C4D0020000000000000000000010400E0
:10027000DC400020404D0020000000009C070008EA
:1002800002010300D8400020444D0020000000007F
:10029000D99B0208140003003C670020A8670020D7
:1002A00000000000A00700080B301A00485700208B
:1002B000AC67002000000000A40700081F302400E5
:1002C00064570020C867002000000000C007000835
:1002D00005020400D0620020EC670020000000004E
:1002E000E407000803010A00A4570020F06700207B
:1002F00000000000E8070008130204007C550020FD
:10030000FC67002000000000F20700082202140130
:100310004C9200209C9400200000000011970008DF
:100320000C20CC0040820020B0950020000000008E
:100330009D9B020801020500348200207C9600206B
:100340000000000009300208000205002C82002095
:100350008496002000000000000000001B02100036
:10036000008200208C96002000000000DD83000841
:100370001E000600587F00209C9600200000000010
:10038000F80700081B100C005C7A0020A4960020DF
:10039000000000006D4502082102F000DC7800201A
:1003A000B096002000000000C532020823121000A1
:1003B000DC840020A0970020000000000008000856
:1003C00005100600D4840020B09700200000000033
:1003D000100800083710280088810020B8970020F6
:1003E00000000000160800080E020200D084002061
:1003F000E0970020000000003E08000816100600EC
:10040000D0780020E4970020000000004008000899
:100410002F10220078940020EC97002000000000AC
:100420004608000823100E00A87E00201098002027
:10043000000000003D1C0108F551900000780020EC
:1004400020980020000000008580020826100C0083
:10045000BC980020B0980020000000005125020840
:1004600007020200649A0020A89A00200000000001
:1004700068080008F6210C009C990020AC9A002026
:10048000000000006C08000802000C0048990020E1
:10049000B89A0020000000000000000006020C00D6
:1004A0003C9A0020C49A00200000000069950008D2
:1004B00008120F00BC990020D09A00200000000014
:1004C00001850008F7010600B0990020E09A00209D
:1004D00000000000780800081D020200AC9900200E
:1004E000E89A0020000000007E0800081A023C0084
:1004F000D09C00200C9F002000000000CD9400083C
:1005000027000400CC9C0020489F00200000000031
:100510008008000838100100089B00204C9F002034
:1005200000000000840800080A020A00A4A70020B6
:10053000F8A9002000000000B578030803000100BE
:1005400078A2002004AA00200000000000000000A3
:1005500003123D00B8A9002008AA002000000000F6
:100560008608000825102C01D8A7002048AA0020E2
:1005700000000000000000001A000E0030B3002050
:1005800078B4002000000000C408000820320A00EF
:1005900004B2002088B40020000000007D0F040891
:1005A00015007000F4AF002094B40020000000009B
:1005B000000000002A00600000B4002004B5002004
:1005C00000000000550F04082C00100074B5002036
:1005D00064B5002000000000450E04082B00240034
:1005E000A8B5002084B5002000000000150E040806
:1005F00029207800E0AD0020CCB5002000000000EC
:10060000000000000D004400F4E10020B0E20020F2
:100610000000000029FA02080902010060E1002040
:10062000F4E2002000000000D4080008040080006C
:10063000E0E00020F8E200200000000000000000E0
:1006400013000400C0E0002078E300200000000058
:10065000D8080008FD0124009CE000207CE3002075
:1006600000000000F1F702081820300068E00020C8
:10067000A0E30020000000007196000806101A0098
:1006800048CE0020D0E3002000000000F90F04084D
:10069000FB01010044CE0020ECE30020000000003C
:1006A000E5960008FC01090010CD0020F0E30020D1
:1006B00000000000F596000816023F00D0CC002094
:1006C000FCE300200000000021840008340010003A
:1006D00000CC00203CE4002000000000CD0F040806
:1006E00011020800D8CB00204CE4002000000000DC
:1006F000DC08000812120400D0CB002054E40020D3
:1007000000000000E408000812201000C0CB002008
:1007100058E4002000000000E8080008F901040087
:1007200030C8002068E4002000000000019B04089D
:10073000FA01020018C200206CE400200000000052
:100740009D8600080202030018B7002070E4002014
:1007500000000000000000000C020400D4B60020DD
:1007600074E400200000000059850008FE01140018
:10077000E4C1002078E4002000000000F1830008BC
:10078000000000050000280100000401F40114002D
:10079000E8036400040A000114001E009001000038
:1007A00003000000AE014A015E012C01640101005A
:1007B000000001000A019A01001E0A00000000006A
:1007C000000000000001000000050000010203001D
:1007D0000000000000000000000000000000000019
:1007E0000080070000000000040101006C160000FA
:1007F00000000000010000000000010000000000F7
:1008000000000000000000000000000000000000E8
:1008100020000101000020003200C800D00796002F
:10082000140032002800B0044006000550001400F7
:100830000F00080064000100000005000A0000002D
:10084000C4090000190000000000000000000000C2
:100850000000000000000000000000000000000098
:100860000000000000000000013C0000000000004B
:1008700001000000020200003E0100000000000034
:100880002003000000000000000000000000000045
:100890000000000000000000000000000000000058
:1008A0000000000000000000000000000000000048
:1008B0000000000000000000000000000000000038
:1008C000000001007E05EA05B4053200E803D00708
:1008D000000000001300000008004030000000008D
:1008E00001010101FFFFFFFF0000000100000548BA
:0808F0004B4634000008000033
:1008F8001A030000000000000000000000000000D3
:1009080000000000000000000000000004030904CB
:100918001201000200000040830420570002010277
:100928000301000025D30008F9850008F5850008B3
:10093800F185000859970008ED850008E985000849
:10094800887C0508B1D8010895BA0108F1E30108C7
:100958000000000000000000F5E0010811E00108B7
:10096800000000000000000000000000CDB50108F4
:100978009186000885860008FD9C0008199D0008DE
:100988003D860008E19C0008C59C00080068214CD1
:100998001F0000001C0000001F0000001E000000D7
:1009A8001F0000001E0000001F0000001F000000C4
:1009B8001E0000001F0000001E0000001F000000B5
:1009C800FF01FF0000000401000000000000000219
:1009D80010000000070000000000000000000000F8
:1009E8000102030406070809010000004113010879
:1009F8000000000024870508FFFFFFFFD601010162
:100A080000010101002D202D2D202D2D2D2D202D13
:100A18002D2D000000000000000000000000000074
:100A2800000000000000000000000000049E05080F
:100A38000000000000000000909E05080100000072
:100A4800FA000000010000000100000001010000A0
:100A5800A04300200000F401010000009E43002094
:100A68000000F401010000009C4300200000F40194
:100A7800010000009A4300200000F401010000007A
:100A8800984300200000F401010000009643002074
:100A98000000F40101000000944300200000F4016C
:100AA80001000000511A0108151A0108A08B050859
:100AB8008A4300200532010088430020E803D0075C
:100AC8000100000086430020E803D0070100000071
:100AD80084430020E803D00701000000824300207F
:100AE8001E00B80B010000009043002005000F0015
:100AF800010000009243002003000A0001000000EA
:100B0800804300201E00F401010000007E43002005
:100B180014006400010000008C4300203200E80348
:100B2800010000007C4300200000C8000100000014
:100B38005643002000C80100554300200050010022
:100B480054430020005A01005243002002000000D4
:100B58002C8C0508A8010608B00106089AE20020B6
:100B68000100C4090000000098E200200100C40947
:100B78000000000096E200200100C4090000000007
:100B880094E200200100C4090000000090E2002067
:100B98000100C4090000000092E200200100C4091D
:100BA800000000008EE200200100C40900000000DF
:100BB8008CE200200100C40900000000FD40002074
:100BC80000C80100FC40002000C80100FA400020D5
:100BD8000100C80001000000F84000203200307514
:100BE80032000000F6400020055A0500F3400020BE
:100BF80000FF0100F540002001000000EC03002088
:100C0800F1400020030000007CA50508F240002008
:100C180000FF0100F440002001000000EC03002068
:100C2800F0400020030000007CA50508B919010860
:100C38005D190108388C0508B4430020EE02CA0883
:100C480001000000B243002000C801006400000059
:100C5800B143002000C8010064000000B043002038
:100C680002000000188D0508EA40002080C1803E7F
:100C780005000000E840002080C1803E050000001B
:100C8800E240002080C1803E05000000E0400020D6
:100C980080C1803E05000000DB40002000FF01000D
:100CA800D44000206400F40101000000D34000207B
:100CB80004000000248D0508D24000200200000036
:100CC800388D0508774100200D000000448D050887
:100CD8007441002000640100724100203200102796
:100CE8000A000000714100200D000000448D050835
:100CF800704100200D000000448D05086F41002060
:100D0800020000007C8D05080000000000000000C3
:100D1800888D0508886200209CFF2C0100000000D7
:100D28001E460020E0150C17000000002046002099
:100D380002000000C08D0508C04300200100FF7FAD
:100D480001000000BF43002002000000CC8D050810
:100D58007941002003000000DC8D0508784100205F
:100D680003000000DC8D0508444300200000E80370
:100D780001000000424300200000E80301000000D9
:100D8800404300200000E803010000003E4300202B
:100D98000000E803010000003C4300200000E803D5
:100DA800010000003A4300200000E80301000000B1
:100DB80039430020001401003843002003000000DC
:100DC800EC8D0508504300200000F40101000000EC
:100DD8004E4300200000F401010000004C430020B5
:100DE8000000F401010000004A4300200000F40163
:100DF80001000000484300200000803E0100000080
:100E0800464300200000803E0100000069430020A6
:100E1800196401006843002002000000FC8D0508E9
:100E280066430020E803D0070A000000644300205E
:100E3800006401000A00000059430020006401001A
:100E48005843002000640100604300200064010052
:100E58000A0000005F430020006401000A0000004F
:100E68005E430020006401000A0000006343002084
:100E7800006401000A0000006243002000640100D1
:100E88000A00000061430020006401000A0000001D
:100E98005D43002001FF01000A0000005C430020C0
:100EA80001FF01000A0000005B43002001FF010070
:100EB8000A000000824100200000F4010100000047
:100EC800804100200000F401010000007E41002064
:100ED8000000F401010000007C4100200000F40142
:100EE800010000007A4100200000F4010100000028
:100EF8006346002000C8010062460020006401002B
:100F08006146002000640100604600200064010082
:100F18005F460020006401005E460020FF080100D3
:100F28005D46002001640100C51801088918010800
:100F3800088E05085C460020006401005A4600201F
:100F48001400E8030100000058460020E80330754B
:100F58000A0000005646002000C80100554600203F
:100F680000C801005446002000C801005346002074
:100F7800006401000A000000724600200000D0074B
:100F8800010000006C46002000C801006B460020EC
:100F980000C801006A46002000C801007046002011
:100FA8000000D007010000006946002000C80100C9
:100FB8006846002000C801006746002000C80100FC
:100FC8006E4600200000D0070100000066460020A1
:100FD80000C801006546002000C8010064460020E2
:100FE80000C80100000000007D160108788E050881
:100FF8006D41002039000000148F05086C41002065
:1010080000C801006A410020E803D0070100000081
:1010180048414B524346343035000000EF40002031
:1010280000030100EE40002000030100C91501087B
:101038008D150108FC8F050849150108FD140108E4
:101048006C90050805160108ED340108EC900508B8
:10105800EC40002001030100B91A01088D1A0108AB
:10106800FC9305088D1401084D1401086C940508BB
:10107800931601081545010808950508F930010877
:1010880000000000B0950508E9380108191B01089F
:101098004C960508E516010800000000CC960508E6
:1010A800BD17010869170108309705084D18010890
:1010B80011180108CC97050875B201080119010833
:1010C8004C9805087B430020010601002D170108F4
:1010D800F916010848990508DBB1010851350108DE
:1010E800B8990508BDB20108E9350108B49A0508A0
:1010F8007A430020010301004D1601081D1601085E
:10110800889B0508E51A010800000000EC9B05080B
:10111800CD140108BD340108509C050800000000EA
:1011280000000000DC9C050835190108613601083B
:101138005C9D0508CE40002088136F170100000051
:10114800D040002088136F170000000006580020C8
:10115800000000000000000004580020000000000B
:1011680000000000025800200000000000000000FD
:10117800005800200000000000000000FE5700207A
:101188000000000000000000FC57002000000000E4
:1011980000000000E80C0020000000000000000033
:1011A800A440002002000000E49E0508CC40002076
:1011B80088136F1701000000C862002088136F179A
:1011C80000000000E113010800000000F09E05087F
:1011D8005246002001000000449F0508CA62002012
:1011E80001000000509F0508C062002002000000B6
:1011F800589F05080000000000000000649F0508D3
:10120800CD1301080000000000A005080000000040
:101218000000000054A005080000000000000000C5
:10122800C4A00508C4620020E0150C1700000000E7
:101238000403090412010002EF020140830456323C
:101248000002010203010000120100020202004034
:101258008304405700020102030100000902200034
:10126800010104C032090400000208065005070500
:1012780081024000000705010240000009026400E5
:10128800030100C032090400000103000000092125
:10129800110100012226000705830308000A080B34
:1012A8000102020201000904010001020201000515
:1012B800240010010524010002042402020524066A
:1012C8000102070582030800FF09040200020A0060
:1012D80000000705010240000007058102400000E8
:1012E80009024300020100C03209040000010202A1
:1012F8000100052400100105240100010424020254
:101308000524060001070582030800FF09040100FF
:10131800020A0000000705010240000007058102DB
:1013280040000000FF000000ACA10508000000001C
:1013380000000000000000000000000000000000A5
:101348000000000000000000000000000000000095
:1013580000FFFF0000000000AA5505010000010081
:1013680080A1050800000000000000000000000047
:101378000000000000000000000000000000000065
:101388000000000000000000FF1FFF1F0501090505
:10139800A101A100050109300931093209330935D4
:1013A8000934094009381581257F75089508810297
:1013B800C0C0000009022200010100E03209040057
:1013C8000001030102000921110100012226000782
:1013D80005830308000A000000000000010203045E
:1013E800010203040607080955E3010859E2010848
:1013F800B1E6010891B6010809BC0108A1B60108C7
:10140800BDB6010869B6010859B601080000000018
:10141800000000002D202D2D202D2D2D2D202D2DCF
:101428002D2D00000000000000000000000000005A
:10143800000000AA550B010000AA5507010000AAE8
:10144800550902000000AA5503009F000100000092
:10145800C01200007C67002000000000A067002088
:10146800000000000100000000000100E001000091
:10147800FFFFFFFF0801FFFFFF0000000000000062
:10148800989A00200800000000000000889A0020B8
:101498000800000030180608281D0608341D060834
:1014A800401D06084C1D0608581D0608101206089F
:1014B800E4430608F0420608EC1C0608F46D06082A
:1014C800E8F805081C1D0608201D0608241D060846
:1014D8003C180608641D0608681D060858410608D9
:1014E8006C1D06081900C800F4012003685E0C0092
:1014F800EDBB0108D9BA01088DE60108000000001B
:1015080055B6010845E2010829BA0108BDE10108FC
:10151800000000000000000011B60108A5B5010890
:1015280099B50108C1D70108DDD70108A5D7010879
:1015380089D701086DD70108A5BB0108B5BA01080C
:10154800CDE501080000000029B60108C1E1010845
:10155800FDB901081DE101080000000000000000BD
:101568001DB6010801000000A00F0000B80B000024
:101578000102FFFF010000000000803FFFFFFFFFA6
:101588000000803F00000000000000000000000094
:10159800FFFFFFFFFF000000B80B00000100000084
:1015A8007D0000000000803F0000000000000000F7
:1015B800000000000000803F000000000000000064
:1015C8000000000000000000000000000000000013
:1015D8000000000000000000000000000000803F44
:1015E80000000000000000000000000001000000F2
:1015F800FFFF0000FFFFFFFF4C690608000008021C
:1016080005030300546906080100080205040300E5
:101618008C2B06080200FE0101100300F0050608E5
:1016280003001402000300005C69060804001F029E
:10163800010008006469060805001F02010108008E
:101648000800000095B5010891B501088DB501089D
:1016580081B501087DB5010889B5010885B501087E
:10166800010000000060024010600240000000001D
:1016780000000000000B0000000000000000000057
:1016880000000000006002402860024001000000E5
:1016980000000000060C0000000000000000000030
:1016A80000000000006002404060024002000000AC
:1016B80000000000100D0000000000000000000005
:1016C8000000000000600240586002400300000073
:1016D80000000000160E00000000000000000000DE
:1016E800000000000060024070600240040000003A
:1016F80000000000200F00000000000000000000B3
:101708000000000000600240886002400500000000
:10171800000000002610000000000000000000008B
:101728000000000000600240A060024006000000C7
:101738000000000030110000000000000000000060
:101748000000000000600240B8600240070000008E
:1017580000000000362F000000000000000000001C
:101768000000000000640240106402400000000015
:101778000000000000380000000000000000000029
:1017880000000000006402402864024001000000DC
:101798000000000006390000000000000000000002
:1017A80000000000006402404064024002000000A3
:1017B80000000000103A00000000000000000000D7
:1017C800000000000064024058640240030000006A
:1017D80000000000163B00000000000000000000B0
:1017E8000000000000640240706402400400000031
:1017F80000000000203C0000000000000000000085
:1018080000000000006402408864024005000000F7
:101818000000000026440000000000000000000056
:101828000000000000640240A064024006000000BE
:10183800000000003045000000000000000000002B
:101848000000000000640240B86402400700000085
:101858000000000036460000000000000000000004
:1018680000000000E8690608181B060800000000D0
:10187800ED9B0208A08601000400000000000000A3
:101888000000000000000000000000000000000050
:101898000000000000000000000000000000000040
:1018A80000000000E8690608086E0608000000004D
:1018B8008DF60208E80300000400000000000000A4
:1018C8000000000000000000000000000000000010
:1018D8000000000000000000000000000000000000
:1018E8000000000080090608D44106080000000036
:1018F800C98003087D000000060000000000000009
:1019080000000000000000000000000000000000CF
:1019180000000000000000000000000000000000BF
:101928000000000038690608000000000000000000
:1019380049380308E8030000030000000000000025
:10194800000000000000000000000000000000008F
:10195800000000000000000000000000000000007F
:1019680000000000106E06080000000000000000E3
:101978003D78040810270000030000000000000064
:10198800000000000000000000000000000000004F
:10199800000000000000000000000000000000003F
:1019A800000000005869060800000000DD0904086E
:1019B800AD0203085F76000005000000000000008B
:1019C800000000000000000000000000000000000F
:1019D80000000000000000000000000000000000FF
:1019E80000000000946C06080000000000000000E1
:1019F800D562030810270000010000000000000065
:101A080000000000000000000000000000000000CE
:101A180000000000000000000000000000000000BE
:101A2800000000001C6E0608000000000000000016
:101A380091F60208E803000005000000000000001D
:101A4800000000000000000000000000000000008E
:101A5800000000000000000000000000000000007E
:101A680000000000286E06080000000000000000CA
:101A7800B1A30208204E000003000000000000008F
:101A8800000000000000000000000000000000004E
:101A9800000000000000000000000000000000003E
:101AA80000000000386E060800000000000000007A
:101AB800B5A10208204E000003000000000000004D
:101AC800000000000000000000000000000000000E
:101AD80000000000000000000000000000000000FE
:101AE80000000000486E060800000000000000002A
:101AF800DD3C0308400D0300030000000000000067
:101B080000000000000000000000000000000000CD
:101B180000000000000000000000000000000000BD
:101B280000000000C41B06080000000000000000C0
:101B3800993503081027000001000000000000008C
:101B4800000000000000000000000000000000008D
:101B5800000000000000000000000000000000007D
:101B680000000000501806080000000000000000F7
:101B7800D1500208102700000300000000000000F8
:101B8800000000000000000000000000000000004D
:101B9800000000000000000000000000000000003D
:101BA800000000003C69060800000000000000007A
:101BB80059FD020850C300000100000000000000A9
:101BC800000000000000000000000000000000000D
:101BD80000000000000000000000000000000000FD
:101BE80000000000DC0406080000000000000000FF
:101BF80071FA0208A861000001000000000000005E
:101C080000000000000000000000000000000000CC
:101C180000000000000000000000000000000000BC
:101C280000000000586E06080000000000000000D8
:101C3800DD910208A08601000100000000000000FC
:101C4800000000000000000000000000000000008C
:101C5800000000000000000000000000000000007C
:101C680000000000E41B060800000000000000005F
:101C78002D440308A00F0000010000000000000030
:101C8800000000000000000000000000000000004C
:101C9800000000000000000000000000000000003C
:101CA80000000000646E060800000000000000004C
:101CB80085810208102700000100000000000000D4
:101CC800000000000000000000000000000000000C
:101CD80000000000000000000000000000000000FC
:101CE80000000000101106080000000000000000BD
:101CF800197A02081A4100000100000000000000E3
:101D080000000000000000000000000000000000CB
:101D180000000000000000000000000000000000BB
:101D2800000000009C0406080000000000000000FD
:101D3800C1BE0108102700000100000000000000DB
:101D4800000000000000000000000000000000008B
:101D5800000000000000000000000000000000007B
:101D6800000000002C1B0608000000000000000016
:101D7800954C01081A410000010000000000000015
:101D8800000000000000000000000000000000004B
:101D9800000000000000000000000000000000003B
:101DA80000000000706E060800000000000000003F
:101DB80029C50108400D03000000000000000000D4
:101DC800000000000000000000000000000000000B
:101DD80000000000000000000000000000000000FB
:101DE80000000000786E06080000000000000000F7
:101DF80049F60208400D0300000000000000000042
:101E080000000000000000000000000000000000CA
:101E180000000000000000000000000000000000BA
:101E280000000000806E06080000000000000000AE
:101E3800018C020850C300000300000000000000ED
:101E4800000000000000000000000000000000008A
:101E5800000000000000000000000000000000007A
:101E6800000000008C6E0608000000000000000062
:101E780029A1020840420F000000000000000000F5
:101E8800000000000000000000000000000000004A
:101E9800000000000000000000000000000000003A
:101EA80000000000986E0608000000000000000016
:101EB800AD62030850C300000000000000000000ED
:101EC800000000000000000000000000000000000A
:101ED80000000000000000000000000000000000FA
:081EE800000000000000803F33
:1080000003685A1C02601970704700BF2DE9F047E1
:10801000089C2578002B804689460CBF4FF0200A2B
:108020004FF0300A661C25B3002A26DD334601E0F6
:10803000024698B113F8011B501E0029F8D1971E73
:1080400060B13D46013D51464046C8476B1C002B80
:10805000F8DC257827EAE770013045B1041B294692
:108060004046C847301916F8015B002DF7D1BDE82E
:10807000F087002A03DC2846F9E70020EEE7571EC8
:10808000DFE700BF2DE9F04714461D4606464FF4D2
:108090007A720023204629464DF07CFE4D4BDFF8D6
:1080A00048814D4A4D4F034488FB03101844D917AB
:1080B00082FB032CC1EB601088FB002887FB0327A1
:1080C0009C44474AC1EBEC2CC0EB001E82FB0C2900
:1080D000A3EB8E0E1F44434A86F806E0C1EB274708
:1080E0004FEAEC7E08EB000ACEEBA90E82FB07827A
:1080F0004FEAE0780EEB4E0EC8EB6A18ACEBCE0CF4
:10810000C8EB0818DFF8E4E086F804C0A0EB8800AC
:1081100070718EFB0303F817C0EBE21240F2B5500A
:1081200000FB1272C1EBE353B2F5896F4FEA83078C
:108130003CDA40F2DA239A4242DCB2F5B77FB4BFB0
:108140004FF0000E4FF0010E4FEA4E09DFF8A0800D
:1081500009EB0E0308EBC3031FFA8EFCD88A09EB68
:108160000E0108EBC10116310B2301E031F8020DBD
:10817000904218DD013BF9D1CE44012338F83E008E
:10818000B37007F5FA670132121ABC44F270A6F810
:1081900000C0204629464FF47A7200234DF0FAFDC4
:1081A0003281BDE8F0870133DBB2E9E74FF0030C21
:1081B000E64640F29650DFF838804FF00609CEE7E9
:1081C0004FF0020CDFF82880E64640F229404FF0DD
:1081D0000409C4E780BC92C7C5B3A29107452EC26B
:1081E000ABAAAA2A73B06D1689888888792D0311E5
:1081F000C07905080028F0B403DA2D230B70404243
:108200000131092804464FF0010307DD03EB830326
:108210005B00B0FBF3F2092AF8D883B10F48A0FB4A
:108220000326B4FBF3F2092A02F1570C02F13007DE
:1082300009DD03FB1244F30801F801CBEFD1002361
:108240000B70F0BC704703FB1244F30801F8017B8C
:10825000E5D100230B70F0BC704700BFCDCCCCCC77
:10826000884270B44FF0010442D301FB04F4B0FB28
:10827000F4F58D42F9D2ECB142BB092D04FB150097
:1082800005F1570605F130020EDDB4FBF1F403F8F9
:10829000016B7CB1B0FBF4F5092D04FB150005F171
:1082A000570605F13002F0DCB4FBF1F403F8012BC2
:1082B000002CEFD100221A7070BC704703F8016BDC
:1082C000B4FBF1F4002CF5D0B0FBF4F5092D04FB60
:1082D000150005F1370605F13002EFDCB4FBF1F4CF
:1082E00003F8012B002CEFD100221A7070BC7047EC
:1082F0000546002AEAD1C0E790ED057A90ED004AE4
:10830000D0ED066AD0ED014AD0ED047A90ED035A23
:10831000D0ED025AA4EE007AB0EE406AB0EE470A01
:10832000B0EE667AA4EE867A67EEC07AA5EE407A61
:10833000E5EE867A80ED057AC0ED067A704700BFDB
:10834000D0ED057A90ED013AD0ED003AD0ED064A35
:1083500090ED024A90ED077A90ED035A90ED086A8D
:10836000D0ED045AC0ED067AF0EE406A27EE830A9B
:10837000C0ED056AA3EEA60A80ED087AA4EE240AF1
:10838000A5EE470AA5EEC60A80ED070A704700BFB2
:10839000D0ED007A90ED017A30EE670AE7EE007AD0
:1083A000B0EE670AC0ED007A704700BF704700BFAB
:1083B00030B414220023342504240221C270012287
:1083C0008571C4710370C3728373C373417041724A
:1083D00082700272827230BC704700BF0023062197
:1083E0004FF47A720170C0E901230373704700BF34
:1083F00030B43123322230254FF47F44FF214370C3
:10840000427101230022C5700482817403720370DB
:108410000371837042818281C28130BC704700BF8A
:108420002DE9F04F3149324B83B001F5807B01904B
:108430002F274FF000092F481022012603E020309B
:1084400098420BD002799742F9D102680C68A24297
:1084500009D02030984206F10106F3D12031594568
:108460003AD00F79E7E744794D79A542F1D19446A6
:10847000019A214809EB490502EB050A57558AF88C
:10848000016000F572751D4E624603E0A8421AD0E5
:1084900050F82C6FB242F9D10679A642F6D1CF68D6
:1084A00006464FF0000C96468046F268BA4216D057
:1084B0000CF1010CBCF1030F06F10C06F5D140469E
:1084C000A8427246E4D14FF0FF3C203159458AF86A
:1084D00002C009F10109C4D103B0BDE8F08F0869F9
:1084E00032698242E4D14FFA8CFCEEE7CCBC05083D
:1084F000F8EC050838E30508F8EC05080000014031
:10850000144BFF22F0B54FF0FF34C27002710272BB
:1085100042724273827303F10C0EA446172716268B
:108520002325002202EB820281189E4585544E705D
:108530008F7081F803C00C710AD093F90620DD79A1
:108540001E7A5F7A93F90AC093F90B400633E9E784
:10855000F0BD00BF207A050810B41F2101240322BA
:108560000023047041708270C3705DF8044B704743
:1085700070B4034600F11001FF221A705A700233E2
:108580008B42FAD10E4B00224FF0FF3103F10C0663
:1085900000EB42050C469E4200F8124069700CD078
:1085A00093F9044093F9051013F8032F00EB4205EB
:1085B0009E4200F812406970F2D170BC704700BF53
:1085C000347A050830B41D6995420AD314460A4628
:1085D00021448D42996938BF2A1B214430BC4DF09B
:1085E00077BE30BC704700BF002070470120704745
:1085F00001207047002070474FF40070024B10605C
:108600009B680B600020704738C80020013A30B4E6
:10861000D2B28C1C04EB42040025020F092AD3B20B
:1086200003F130028ABF37330A700B704D7002318C
:108630008C424FEA0010F0D130BC70470B4A0C4B13
:1086400010681B681A22C0180A8001D109487047B7
:1086500010B5094B09491C680822FFF7D7FF2046CF
:1086600004220749FFF7D2FF024810BDE8F7FF1FB9
:10867000ECF7FF1F88010020EAF7FF1F8A010020A6
:108680009A01002004230B8000487047A4010020B9
:1086900012230B8000487047A80100202C220223DF
:1086A00002704370704700BF08307047704700BFCA
:1086B000816170472A4A13685268A3F5000307EEE8
:1086C000903A284BB8EEE77AD3ED016AD3ED027AFF
:1086D00093ED046AD3ED085A93ED075AE7EE276A43
:1086E000A2F50002D3ED007AE7EE267A07EE102A13
:1086F000F8EEC76A93ED057AA7EE276A93ED037A41
:10870000A7EE867A93ED0B6AE6EE865A93ED0A6A37
:10871000E6EE275A93ED096AA6EE275A93ED066A0C
:10872000A5EE276AA5EEA66AA6EE867AB5EE407A91
:10873000F1EE10FA18BFBDEEC77AF5EE407A18BF19
:1087400080ED007AF1EE10FA08D0FDEEE77A4FF4F2
:10875000807317EE902A92FBF3F30B60704700BF13
:1087600080170020CC4A00207047704770476D4B3F
:108770002DE9F04F9C686C4BB3F80AE0B3F8048025
:108780009A894FEA0E2AB4EB0A044FEA1E6B4FF0A7
:10879000000587B065EB0B05CDE900450746009C59
:1087A0001889019EA0FB044500FB0655E00940EA3C
:1087B00045604FEA08448C46E9114FEA184510EB32
:1087C0000408D888009C41EB0509CDE90489A0FB89
:1087D0000445B3F8028000FB0655200A40EA056014
:1087E0004FEAC83429124FEA584510EB040841EB10
:1087F00005090099A2FB010102FB06114FEAD05ABC
:108800004AEA412A1AF5FA634FEAE15B4BF10004A8
:10881000B3F5FA6FCDE9023474F10003414E64DA26
:108820000524AAFB040104FB0B1100FB0BF40AFB5B
:108830000144DDE90423A0FB0A0121444D104FEA65
:108840003004121B4FEA900463EB050344EA817481
:10885000B8EB0408CDE90423DDE9023433484FEADC
:10886000A10569EB05094FF0FF31834274EB010369
:1088700026DA40F6AC501AEB00024FF000014BEB49
:10888000010302FB03F1A2FB022303EB4103D4002B
:10889000DD00101B45EA527563EB0501DDE9044577
:1088A00024184D41CDE904450B24A2FB040104FB2F
:1088B000031149104FEA3000B8EB000869EB0109D9
:1088C000DDE900325343009ADDE90201A2FB02AB6D
:1088D0000BEB430B4FEADA7242EA4B02801A4FEA83
:1088E000EB7361EB0301CDE9020197B1F168A1FBE4
:1088F000082301FB0933540D5D1544EAC324DDE967
:108900000423A21A65EB03031D46D30B43EA454338
:108910003B60BCF1000F02D0029BCCF8003007B0E6
:10892000BDE8F08F80170020984A002024FAFFFF4E
:108930002DE9F04FDFF8DCC1754CDCF810502288CF
:10894000B4F90AA0C2EB25135200C2EBE502B4F958
:1089500002505B436A43B4F904501B135D43AD13EB
:1089600005EBE225B5F5FA324FEAE57B85B04BF130
:10897000FF33CDE90023DDE900325343009AA561BE
:10898000A2FB0289CDE90201B4F9082001990098FF
:1089900009EB43095143D31700FB0311A2FB00234A
:1089A0000B444FEAEA7B0AFB09F11F0308FB0B1398
:1089B000AAFB080119444FEA102A4AEA016A160381
:1089C0004FEA212B47EA12571AEB0602E6884BEBD7
:1089D000070312F1000A43F5004BAAFB060106FB50
:1089E0000B114A10CB1752EA030100F08E80B4F944
:1089F0001060009806FB09F1F71708FB0711A6FBAA
:108A000008673944B4F90E808B4601994FEAE8793A
:108A100008FB01F100FB0911A8FB00898944DCF87F
:108A200014104FEA4947C1F5801C47EAD837B246CF
:108A30004FEA4846B4F90C801AEB060A66464BEB3F
:108A4000070BF7174FEAC806019600260096F907AC
:108A5000DDE900674FEACC7016EB0A0647EB0B071F
:108A600041EA5C01801B61EB070140F6354C894609
:108A7000A0FB0C010CFB09114DF08CF9B4F9162088
:108A8000B4F914A04E13470B47EAC14702FB06FC9A
:108A9000D31707FB03CCA2FB07236344564307FB12
:108AA0000366A2FB07233344560E46EAC316321868
:108AB0004FEA636747EB010380460AFB01F14FEA87
:108AC000EA7B08FB0B17AAFB08013944C60C46EAEF
:108AD000413612EB06084FEAE147B4F9122043EBA6
:108AE00007094FEA182141EA096113010B44029A70
:108AF0000AB11B0A1360039B23B105EB8505803582
:108B00002D121D6005B0BDE8F08F0023EFE700BF18
:108B1000AC4A00208017002070472DE9F041334B0C
:108B2000334E1A8B7489B6F91450B6F90480B6F92D
:108B30000E70B6F920C0DB69121B34895443E2136E
:108B4000B6F912401544E40294FBF5F4B6F902506C
:108B50001444A4F57A6E0EFB0EF20EFB05F50EFB27
:108B600008FEB6F90C80F4611213574302FB08F2B9
:108B7000121402EB6E32ED1205EBE7270232B6F962
:108B80000050B6F806E0921002F5004207EB8507A8
:108B90000EFB02F207FA0CF74FEAD23E02374CF214
:108BA0005032A3EBA70742FA0CF37B4355BF5B009F
:108BB000B3FBFEF3B3FBFEF35B0078B11A1202FBCA
:108BC00002F540F6DE326A430A4D12145D4302EBB1
:108BD000254202F6CF6203EB2213036021B10A2380
:108BE0005C43083424110C60BDE8F081801700203C
:108BF000744A002043E3FFFF4FF400630383704790
:108C00004FF4006303837047012380F850307047AE
:108C1000F0B4037C456902681F2B37D9203B202123
:108C2000546899400C4223D010249C40D160D460F9
:108C30005168D940CE074ED4EFF31183502282F30E
:108C400012882A6C1168C90709D45468002C52D1C3
:108C5000D5E909618E4243D1012285F86420DBB257
:108C600083F31188037C02681F2B194614D9203B1B
:108C7000082150689940084200D0D1600421506812
:108C800001FA03F3184223D1F0BC70472024166880
:108C90009C4026420FD11946082310688B40184289
:108CA00000D093600423106803FA01F10842EBD06E
:108CB0009160F0BC704710219940946091601168F8
:108CC000D940CC07B8D5012101FA03F39360B3E78B
:108CD000D360F0BC7047012101FA03F3D360ABE726
:108CE000AF690F44D7600ED82E69711A5160AC621B
:108CF000002185F86410116841F00101DBB21160B8
:108D000083F31188AEE7711A5160AE62F0E700BFDD
:108D1000F0B4714B71491A780B789A4240F07E8119
:108D20006F4B1A78002A00F0D4806E4B19786E4B86
:108D3000002940F0DB801868B3F83261048824F021
:108D400080042404240C048093F83041C462058814
:108D500045F08005058041628489012A44EA0604C1
:108D60008481A3F8321100F0B480D3F83401B3F851
:108D70006662048824F080042404240C048093F8A0
:108D80006442C462058845F080050580416284899B
:108D9000022A44EA06048481A3F8661200F099804E
:108DA000D3F86802B3F89A63048824F0800424049A
:108DB000240C048093F89843C462058845F080052C
:108DC000058041628489032A44EA06048481A3F869
:108DD0009A137ED0D3F89C03B3F8CE64048824F0B1
:108DE00080042404240C048093F8CC44C4620588D5
:108DF00045F08005058041628489042A44EA06041E
:108E00008481A3F8CE1464D0D3F8D004B3F80266FA
:108E1000048824F080042404240C048093F8004681
:108E2000C462058845F08005058041628489052A71
:108E300044EA06048481A3F802164AD0D3F8040653
:108E4000B3F83667048824F080042404240C0480DA
:108E500093F83447C462058845F080050580416277
:108E60008489062A44EA06048481A3F8361730D0A0
:108E7000D3F83807B3F86A68048824F0800424041F
:108E8000240C048093F86848C462058845F0800586
:108E9000058041628489072A44EA06048481A3F894
:108EA0006A1816D0D3F86C28B3F89E59108820F0B1
:108EB00080000004000C108093F89C09D062148894
:108EC00044F0800414805162908928439081A3F873
:108ED0009E19F0BC704700BF84A1002085A100202E
:108EE000A8350010A4350010C4D600205C6819898C
:108EF00061602568186845F0010540F20D31256074
:108F0000A0F848108489012A44F480748481E0D058
:108F1000D3F83841B3F83C51D3F834016560256883
:108F200045F001052560A0F848108489022A44F420
:108F300080748481CDD0D3F86C42B3F87052D3F8EA
:108F400068026560256845F001052560A0F84810B5
:108F50008489032A44F480748481BAD0D3F8A0436E
:108F6000B3F8A453D3F89C036560256845F0010568
:108F70002560A0F848108489042A44F48074848110
:108F8000A7D0D3F8D444B3F8D854D3F8D00465604C
:108F9000256845F001052560A0F848108489052A58
:108FA00044F48074848194D0D3F80846B3F80C5606
:108FB000D3F804066560256845F001052560A0F832
:108FC00048108489062A44F48074848181D0D3F8BF
:108FD0003C47B3F84057D3F838076560256845F03B
:108FE00001052560A0F848108489072A44F480749C
:108FF00084813FF46EAFD3F87028B3F87408D3F8C7
:109000006C385060106840F001001060A3F8481000
:109010009A8942F480729A81F0BC70475C00E6182D
:10902000484D15F83660032E3FF67AAEDFE806F0BD
:109030004D261C02E01805EBC0004468661E012C9A
:1090400046603FF646AF013303F00303D8B28242D5
:1090500008703FF465AE03EB4303DB00EA1802201F
:109060000021E854516034E7E11805EBC10148687C
:10907000461E01284E603FF62CAF0DE0E118C900F6
:1090800068184668771E012E47603FF622AF022718
:109090004FF0FF366F544660E618F600AF192A48C5
:1090A000397B00680139C9B2397389B34FF47A72D8
:1090B0002344B2FBF0F200FB02F0B0F57A7F05EB3F
:1090C000C30518BF01326A602AE670B11F49012644
:1090D00000220F890132002F18BF0026824201F5BD
:1090E0008671F6D1002E3FF41BAE174A126842F289
:1090F0001076E018B6FBF2F102FB1162012605F8CA
:10910000306002B13144234405EBC305696007E6D2
:10911000BF68B7FBF0F100FB11700327AF5500B13A
:1091200001311C44013305EBC40503F003039342F2
:1091300069603FF4F5AD00293FF4F2AD0139696093
:10914000EEE500BF88A10020380E002064CE00208C
:1091500010B5027C01681F2A4FF020030ED94C681D
:10916000203A93401C4208D00B4A406800241470F7
:10917000026822F001020260CB6010BD0C689340CF
:109180001C42FAD0044A406800241470026822F09D
:10919000010202608B60F0E70F8500202DE9F041AD
:1091A000C40023189B00BA49CA585268958AADB2C8
:1091B000EFB2FE070B4465D4BE073AD5BFF35F8F0D
:1091C0001D7EEDB2012D00F0C480B24E138BBFF3B3
:1091D0005F8F231801EB83031D7E022D00F0D980E1
:1091E000231801EB83031D7E032D06D19B7E23B143
:1091F00096F82130002B40F02681938896F920C004
:1092000043F480639380231801EB83031B7E0133B7
:1092100063450CD196F82230002586F82150002BAA
:1092200040F09080204401EB800000234375BDE8AE
:10923000F081984E17F0040F96F920C051D117F025
:10924000400700F0BB80178A1D6AFFB205F80C705A
:109250005FFA8CF56F1C93F818E07BB2DF1CBE45FB
:1092600086F820309C4600F01781271801EB87070D
:109270003F7EBB42C7D105F1020C4FFA8CFC86F849
:1092800020C0C0E71588834E25F400652D042D0C01
:109290001580158845F4806515809D7E002786F829
:1092A0002070002D40D096F82150002D39D0231881
:1092B00001EB830301251B7E86F82150022B03D18D
:1092C000138843F400631380231801EB83039B7D11
:1092D00043F001031382204401EB8000037EBDE8CC
:1092E000F0819F7E96F821504FF0010E86F822E023
:1092F000002F60D0002D7DD1231801EB83035B7E0E
:10930000002B00F0A98013880CF1010C4FFA8CFCA3
:1093100043F4007386F820C013801388DF05FCD463
:1093200071E7DB7DFF2BC2D0231801EB83039D7D0A
:1093300005F0FE051582DB7DFF2BCCD0FF2386F8E0
:109340002030C8E7938823F440731B041B0C9380E0
:1093500068E79B7E4F4E002B3FF438AF96F82130E4
:10936000002B3FF433AF138823F480631B041B0CE2
:109370001380BFF35F8F138B138886F8225043F45A
:1093800000731380938896F920C043F48063938020
:1093900039E79B7E002B3FF423AF96F82130002B5A
:1093A0003FF41EAF138896F920C023F480631B049A
:1093B0001B0C138017E0002D9ED0A4E72D067FF52F
:1093C00022AFBCF1FF3F6ED0DD6915F80C5015825D
:1093D0000CF1010C1D7E4FFA8CF39D429C4686F8E1
:1093E00020307FF410AF938823F480631B041B0CA0
:1093F000938008E71F7ED3F820805FFA8CF5AE4497
:10940000022F4FFA8EFE17882ED927F480673F046B
:109410003F0C1780178AFFB208F80C701788D3F832
:1094200020C047F400731380138ADBB20CF80E30AF
:10943000938805F1020C4FFA8CFC43F4806386F8A4
:1094400020C0938069E7938896F920C023F4806355
:109450001B041B0C9380D6E61388012543F480730C
:10946000138086F8215058E747F400771780178A51
:10947000FFB208F80C70178AD3F8208005F1030CAE
:109480004FFA8CFCFBB286F820C008F80E3044E797
:10949000D099002080170020978827F480673F0428
:1094A0003F0C9780E1E6DD7D15829D7E86F8207079
:1094B0001DB91B7E002B7FF40EAF938823F48063CD
:1094C0001B041B0C938006E744F034B838B51D4BE1
:1094D0001B78044600F1250593B104221A49203077
:1094E0004EF058FA2846142218494EF053FA012338
:1094F00084F83A30164B1B7873B984F83B3038BD8A
:109500002846142213494EF045FA012384F83A30D4
:109510000F4B1B78002BF0D00F4B186859689A68D6
:10952000DD68E56020606160A260DD6918695969E5
:109530009A69A2610123E5612061616184F83B3091
:1095400038BD00BFA99900206C99002054990020D3
:10955000AA990020E0F8050874990020014B1868CA
:109560002AF060BFB89E0020012328212922017023
:1095700042708370C37070472DE9F84FDDE90A64CB
:109580008946174600212022984605464EF0C4F928
:109590005EB1D6E900327189EB81C3F30F432B82B0
:1095A000C2F30F43EA822B83698248464BF0FCFEEC
:1095B00017F0100B10D1431E70B119F803202E2A9A
:1095C00018BF09EB030104D14AE011F8016D2E2EFA
:1095D0003ED013F1FF33F8D208280246CA46A8BF8E
:1095E00008224FF0000B4FF020336B602B60C5F862
:1095F00007304946284605F108064CF069FE5A46F0
:10960000514630464CF064FE6B1EE81D13F8012FE6
:10961000A2F1610119299CBF203A1A708342F5D149
:1096200005F10B0116F8013BA3F16102192A9CBF59
:10963000203B06F8013CB142F4D11823C8F30F4295
:10964000EF722B73A5F81A80AA82EC61BDE8F88F3F
:10965000C01A00F1FF3BBBF1030FA8BF4FF0030B93
:10966000082B03F1010AA8BF0823CA441A46BAE727
:1096700038B5302200214EF04FF90346642440F201
:10968000DC5040F21A4140F26C7240F202251C7428
:109690005882132419209982DA8240F2753140F6FB
:1096A00043021D839C760E250A241877D9831E2039
:1096B00002211A84012283F82E00197283F82C10DB
:1096C00083F8225083F82D409A7383F8252083F87D
:1096D0002B2019460248BDE8384038F0E9BA00BFEF
:1096E000ECF8050810B500210446012028F0B8FF69
:1096F000207010BD38B500240472451EE1B202206E
:1097000028F0AEFF0134082C05F8010FF6D138BD62
:1097100038B50024054604802146284601341FF050
:109720005DFF082CF8D1002185F8E210A5F8E410BF
:10973000A5F8E610A5F8E810A5F8EA10A5F8EC10D1
:10974000A5F8EE10A5F8F010A5F8F2102846BDE82F
:1097500038401FF005BF00BF2DE9F04F002087B053
:109760000C461D460121924627F050FD002D63D086
:1097700005EB0A03DFF8D094DFF8D0B40393554625
:109780001CE0002D00F0C581D9F81430AB4264D044
:10979000D9F81030AB4200F09780D9E90631AB42DE
:1097A00052D8A94200F26F81691A204648F082FA25
:1097B000039B01359D4204F500743DD0D9F820602B
:1097C000AE42DED8D9F83080AE1B4FEAD60AD8F8C0
:1097D00030300AF1020A9A4506F0070603D3D8F89A
:1097E00038309A4509D94146504648F031FA80460A
:1097F000002800F04D81C9F8300098F80430002BA3
:1098000040F0E280D8F82870002F00F0DF81D8F80F
:109810003030D8F80C20AAEB030A06EBCA0A4346FC
:10982000204602EB4A224FF40071B847039B0135F2
:109830009D4204F50074C1D10021084627F0E6FCE2
:10984000002007B0BDE8F08FA942ADD94FF40072F7
:10985000002120464EF060F8AAE752226120412301
:10986000002622706270A070722284F8E70184F8EA
:10987000E631D9F82800E3704FF0FF33314684F821
:10988000E42184F8E521C4F8E8014FF4F07284F88B
:10989000EC3184F8ED3184F8EE3184F8EF31201D9D
:1098A0004EF03AF855216FF05502C4F8F061C4F853
:1098B000F461C4F8F86184F8FC6184F8FD6184F80F
:1098C000FE1184F8FF2173E74FF400720021204657
:1098D0004EF022F8D44BD54F03CBEB23022223705A
:1098E0004FF0080C9026F8234FF0580EC4F80300F0
:1098F000227484F80DC0C4F8071084F801E0A67043
:109900006375D9F81010D9F80830D9F81C602273A3
:10991000591A21624FF0FF3100233F20A1763E21EA
:10992000A273E372E3736374A374E3742375A37582
:10993000E3756376E3766377A377E3772076217721
:1099400084F82C2007CFD9F8187084F82830F61B3B
:1099500084F8293084F82A3084F82B3084F82D30AC
:1099600084F82E3084F82F3084F8313084F8323087
:1099700084F8333080236662C4F8470004F1470658
:1099800084F8403029209423A94F84F846C084F8F5
:10999000420084F843300E200D234FF0010C84F870
:1099A000440084F8453084F830C0716003CF3346FA
:1099B0005527AA269A60C4F85200C4F8561084F8B5
:1099C000FE7184F8FF61F3E64FF400720021204637
:1099D0004DF0A2FFD8F84030002E61D104F12007ED
:1099E000002B77D0D8F8303092491122CDE90066AB
:1099F0002046FFF7C1FDD8F840301A6C04F1400A48
:109A0000002A79D01B6B8C49CDE9006638461122BB
:109A1000FFF7B2FDD8F84460002E3FF4C9AE4FF412
:109A2000E078CDE904450CE00024CDE900C4FFF75F
:109A3000A3FDB66CBA46A8F120080EB3B8F11F0F0B
:109A40001ED93468356B96F804E011222B46214666
:109A500050460AF1200706F11C0CBEF1000FE3D1BD
:109A600072793369019342F021022B46CDF800C090
:109A7000FFF782FDB66CBA46A8F12008002EDDD1B2
:109A8000DDE9044594E6E91A204648F013F98FE62B
:109A9000231F04F5FE7243F804BF9A42FBD187E608
:109AA000002BD8F844200CBF01230223C3EB06137C
:109AB000002A3FF47DAE966C013B002E3FF478AE59
:109AC000013BB66CF9D1002E3FF472AEA2464FF4C2
:109AD0000078A6E7CDE900663346D9F80C100822D5
:109AE0002046FFF749FDD8F84460002E3FF460AEF1
:109AF000BA464FF4F07894E7CDE90066334638462D
:109B000011224D49FFF738FDD8F84460002E86D168
:109B10004EE64FF40072294620464DF0FDFE8022AD
:109B20000C2384F8BE2184F8C231D9F81000434BCD
:109B3000D9F8086084F8B85183FB0032C117C1EB33
:109B40002232B2F5806F84F8B95184F8BA5184F8A2
:109B5000BB5184F8BC5184F8BD51C4F8C601C4F8A7
:109B6000CA6142DBFF2384F8BF3184F8C13184F835
:109B7000C031324B711E83FB0132CE17C6EB22324D
:109B8000B2F5806F29DA2E4B84F8C52183FB0103DF
:109B90000B442C48C6EB6313C3EB831680FB0370A6
:109BA000891B1844DE17921022F03F020131C6EBE8
:109BB000E0100A43034484F8C42184F8C3315522D9
:109BC000AA2384F8FE2184F8FF31F1E539464FF4E9
:109BD000007220464DF0A0FEEAE5FF2384F8C33171
:109BE00084F8C53184F8C431E9E7154B84F8C12104
:109BF00083FB00730344134FC1EB631387FB03170D
:109C0000C3EB831C9110A0EB0C02F818DF1721F0B6
:109C10003F010132C7EBE0100A43034484F8C0213E
:109C200084F8BF31A5E700BF00F905080CF9050865
:109C30001CF90508F8F80508FCF805089755454192
:109C4000832008828180808038C80020DEADBEEF8E
:109C500008B5012015F078F8174A936803F00C0353
:109C6000042B1ED0082B18D151685368490203F009
:109C70003F0319D452681148B0FBF3F0C2F38813C4
:109C800000FB03F00C4B0E4A5B68C3F30143013346
:109C90005B00B0FBF3F0106008BD094B074A1A6087
:109CA00008BD074B186008BDB0FBF3F05368C3F361
:109CB000881300FB03F0E5E7003802400024F400BD
:109CC00020B7002010B5044C04480A46214613F082
:109CD00027FD204610BD00BFA417002028F9050865
:109CE00010B5044C04480A46214613F019FD2046DD
:109CF00010BD00BFA417002038F9050810B5044CAA
:109D000004480A46214613F00BFD204610BD00BF53
:109D1000A417002044F905080A4608B5054920B1F2
:109D2000054813F0FDFC034808BD044813F0F8FC97
:109D3000004808BDA417002070F9050858F9050867
:109D400008B5838940F2E93300E0A3B10289013B01
:109D500012F0020F9BB2F8D089B2818140F2E93350
:109D600000E043B10289013B12F0010F9BB2F8D031
:109D70008089C0B208BD43F0D1F9C0B208BD00BFB0
:109D80002DE9F04F87B0A94A02904068038823F07C
:109D900040031B041B0C0380038823F038031B04BF
:109DA00090424FEA134300F03F8102F580629042F7
:109DB0000CBF3022382213430380029B02889B6829
:109DC00042F04002028013B11A689B885383838952
:109DD00040F2E93302E0002B00F090810289013B60
:109DE00012F0020F9BB2F6D06B23838140F2E9336D
:109DF00002E0002B00F082810289013B12F0010F8A
:109E00009BB2F6D08389838940F2E93302E0002BCC
:109E100000F071810289013B12F0020F9BB2F6D073
:109E20008023838140F2E93302E0002B00F063815C
:109E30000289013B12F0010F9BB2F6D08389029B8D
:109E40009B6813B11A689B8813830623784CDFF84C
:109E5000EC81DFF8ECA1774D774E04939623DFF881
:109E6000E4C101934FF0100EDAF80430C3F3080395
:109E7000002B40F0B280EFF31183002B40F0AD8057
:109E80002068AA6823689842FAD133689A42F7D8C2
:109E9000D8F800704FF47A7101FB07F39B1AB3FBFB
:109EA000F7F301FB00304FF47A774FF00109DAF84D
:109EB0000430C3F30803002B70D1EFF31183002BA0
:109EC0006CD12368A96822689342FAD13268914222
:109ED000F7D8D8F8002007FB02FBABEB0101B1FB80
:109EE000F2F107FB03131B1AB3F57A7FDFD3019B53
:109EF000013B0193B8D1029B9B6813B11A689B8800
:109F00005383029B586840F2E933828902E0002BB8
:109F100000F085800289013B12F0020F9BB2F6D05F
:109F2000F523838140F2E93301E0002B77D00289E9
:109F3000013B12F0010F9BB2F7D08389838940F275
:109F4000E93301E0002B67D00289013B12F0020FD8
:109F50009BB2F7D0FF23838140F2E93301E0002B6D
:109F60005AD00289013B12F0010F9BB2F7D08389CE
:109F7000DBB20393029B9A6812B11368918819832C
:109F8000039B682B60D0049B013B13F0FF030493F9
:109F90007FF464AF184607B0BDE8F08FEFF311818E
:109FA0008EF31288D5F808B02B68DB0344BFCCF8D9
:109FB0000090D5F808B02368DCF80020C9B281F31E
:109FC0001188D8F80010134407FB01F2A2EB0B0232
:109FD000B2FBF1F207FB032385E7EFF311838EF366
:109FE0001288AF682A68D20303D50122CCF800207A
:109FF000AF682068DCF80090DBB283F31188D8F8F2
:10A0000000104FF47A72484402FB01F3DB1BB3FBF0
:10A01000F1F302FB003046E743F080F8AAE743F093
:10A020007DF8029B586889E73022C4E6003800407A
:10A0300090C1002010E000E098C1002094C10020F1
:10A0400000ED00E08CC1002012B1136892885A83A1
:10A05000029B586840F2E933828901E0002B45D029
:10A060000289013B12F0020F9BB2F7D08C2383814F
:10A0700040F2E93301E0002B38D00289013B12F0B5
:10A08000010F9BB2F7D08389838940F2E9330289BB
:10A09000013B12F0020F9BB215D1002BF7D143F018
:10A0A0003DF8029B9B6813B11A689B881383059B3C
:10A0B000142B04D3182B17D9543B062B14D900208A
:10A0C00007B0BDE8F08FFF23838140F2E93301E060
:10A0D000002BE4D00289013B12F0010F9BB2F7D0B4
:10A0E0008389DBB20593DCE7032054E743F016F8DD
:10A0F000029B5868C8E743F011F8A0E643F00EF859
:10A10000029B58687FE600BF2DE9F04FB04C4368D2
:10A1100094F8232185B00190002A00F03A811A8832
:10A12000AC4922F040021204120C1A801A8822F064
:10A13000380212048B424FEA124200F0288101F5E6
:10A1400080618B420CBF302138210A431A801A8863
:10A150000198A14CA14FDFF890A2A14DA14E42F071
:10A1600040021A806B21802242F0FAFF15230393EC
:10A170009623DFF878E200934FF01008DAF8043005
:10A18000C3F30803002B40F0D180EFF31183002BC1
:10A1900040F0CC802068AA6823689842FAD13368DE
:10A1A0009A42F7D8D7F800C04FF47A7101FB0CF34C
:10A1B0009B1AB3FBFCF301FB00304FF47A7C4FF0A9
:10A1C0000109DAF80430C3F30803002B40F0908053
:10A1D000EFF31183002B40F08B802368A96822687D
:10A1E0009342FAD132689142F7D83A680CFB02FBED
:10A1F000ABEB0101B1FBF2F10CFB03131B1AB3F53E
:10A200007A7FDED3009B013B0093B7D1019B9B6813
:10A2100013B11A689B885383019B586840F2E93355
:10A22000828902E0002B00F0AD800289013B12F030
:10A23000020F9BB2F6D0F523838140F2E93302E0AE
:10A24000002B00F09F800289013B12F0010F9BB2AE
:10A25000F6D08389838940F2E93302E0002B00F0D5
:10A2600086800289013B12F0020F9BB2F6D0FF23D9
:10A27000838140F2E93301E0002B78D00289013B71
:10A2800012F0010F9BB2F7D08389DBB20293019BDE
:10A290009B6813B11A689B881383029B982B00F06C
:10A2A000B08069D9AC2B65D0AF2B40F0A1800920DC
:10A2B000019B48495B681A8822F040021204120C84
:10A2C0001A801A8822F0380212048B424FEA124296
:10A2D00056D001F580618B420CBF082110210A4342
:10A2E0001A801A8842F040021A8005B0BDE8F08F4B
:10A2F000EFF3118188F31288D5F808B02B68DB03DF
:10A3000044BFCEF80090D5F808B02368DEF80020EE
:10A31000C9B281F31188396813440CFB01F2A2EB36
:10A320000B02B2FBF1F20CFB032367E7EFF311839F
:10A3300088F31288D5F808C02A68D20304D5012210
:10A34000CEF80020D5F808C02068DEF80090DBB217
:10A3500083F3118839684FF47A72484402FB01F3A1
:10A36000A3EB0C03B3FBF1F302FB003025E742F053
:10A37000D5FE8CE707209BE7122B39D1082097E701
:10A380000821ACE742F0CAFE019B586862E7302121
:10A39000DBE61A880F4922F040021204120C1A80E0
:10A3A0001A8822F0380212048B424FEA12422AD055
:10A3B00001F580618B420CBF082110210A431A80ED
:10A3C0001A88012142F040021A8084F82311A6E67F
:10A3D000801700200038004090C1002094C1002068
:10A3E00010E000E098C1002000ED00E08CC10020EA
:10A3F000039B013B13F0FF0303937FF4B9AE039873
:10A4000073E70B2054E70821D8E700BFF0B5876950
:10A4100083B0064617B13B68BA885A837069DFF883
:10A42000A8E08389C3244FF47A734FF0060C6D467D
:10A430004FF6FF710EF1010E03E0013B9BB28B4220
:10A4400020D002899207F8D5A3B283814FF47A73A2
:10A4500002E0A3B28B4215D00289D20703F1FF3488
:10A46000F7D5828992B20DB12A700135BCF1000F87
:10A470000BD00CF1FF3CFF24BEF1000FE1D09EF8A1
:10A480000040D7E742F04AFEB76917B13B68BA8887
:10A490001A839DF805009DF801509DF802109DF863
:10A4A00003409DF804209DF8063041EA052143EA67
:10A4B000002342EA04220120A6F85010A6F85220F8
:10A4C000A6F8543003B0F0BD447A050807B506235A
:10A4D0006A46F72142F08CFE9DF801309DF800108D
:10A4E0000A4A1B0243EA01439DF802100B435360E2
:10A4F0009DF804309DF803101B0243EA01439DF8C8
:10A5000005100B43136003B05DF804FB80170020B7
:10A5100007B5032301AA002142F06AFE9DF8053029
:10A520009DF804001B0243EA00439DF8060018430F
:10A5300003B05DF804FB08B5FFF7EAFF014BD860F4
:10A5400008BD00BF8017002008B5FFF7E1FF014BF1
:10A55000986008BD8017002007B506236A46F721DA
:10A5600042F046FE9DF801309DF800100B4A1B0199
:10A5700043EA01339DF8021043EA111353619DF839
:10A5800004309DF803101B0143EA01339DF80510C8
:10A5900043EA1113136103B05DF804FB8017002038
:10A5A00007B5032301AAF62142F022FE9DF80530EB
:10A5B0009DF804201B0243EA02439DF80620134342
:10A5C000054AB2F92020C2F10802D340034AD36100
:10A5D00003B05DF804FB00BF744A00208017002020
:10A5E00007B5022301AAF62142F002FE9DF80420DD
:10A5F0009DF8053043EA0223024A138303B05DF855
:10A6000004FB00BF8017002070B582B0044606230B
:10A610000C306A463B2142F0EBFDA8B19DF80400E6
:10A620009DF800609DF801109DF802509DF80320F0
:10A630009DF8053041EA062143EA002342EA05225B
:10A640006183A283E383012002B070BD7B22F421E9
:10A6500042F0D2BE0122482142F0CEBE0122582152
:10A6600042F0CABE3122F42142F0C6BE044B93F838
:10A6700020209201343202F0FC02F42142F0BCBEF0
:10A68000744A00202E22F42142F0B6BE2DE9F04F8C
:10A6900085B090F861300290002B40F02B85029B32
:10A6A000C3495A69138823F040031B041B0C138011
:10A6B000138823F038031B048A424FEA134300F047
:10A6C000508501F580618A420CBF302138210B434F
:10A6D000138013880299B74CB74EDFF8E882B74F62
:10A6E00043F04003103113800391084680226B2110
:10A6F00042F036FD6423DFF8D0E2B14801934FF019
:10A700001009DEF80430C3F30803002B40F0E783A0
:10A71000EFF31183002B40F0E28325688268236801
:10A720009D42FAD13B689A42F7D8D6F800C04FF460
:10A730007A7101FB0CF39B1AB3FBFCF301FB0535AB
:10A740004FF47A7C4FF0010ADEF80430C3F30803BB
:10A75000002B40F0A683EFF31183002B40F0A18380
:10A760002368816822689342FAD13A689142F7D807
:10A7700032680CFB02FBABEB0101B1FBF2F10CFB0D
:10A7800003135B1BB3F57A7FDED3019B013B01937F
:10A79000B7D1032268210398DFF82882874F42F05F
:10A7A000DFFC6423DFF820E2854801934FF01009B5
:10A7B000DEF80430C3F30803002B40F01484EFF3F9
:10A7C0001183002B40F00F842568826823689D4226
:10A7D000FAD13B689A42F7D8D6F800C04FF47A71A4
:10A7E00001FB0CF39B1AB3FBFCF301FB05354FF4A3
:10A7F0007A7C4FF0010ADEF80430C3F30803002B23
:10A8000040F03183EFF31183002B40F02C83236859
:10A81000816822689342FAD13A689142F7D8326847
:10A820000CFB02FBABEB0101B1FBF2F10CFB0313E0
:10A830005B1BB3F57A7FDED3019B013B0193B7D15C
:10A8400001226B210398DFF87C815C4F42F088FC89
:10A850000F23DFF874E15A4801934FF01009DEF836
:10A860000430C3F30803002B40F09C83EFF3118303
:10A87000002B40F097832568826823689D42FAD1B7
:10A880003B689A42F7D8D6F800C04FF47A7101FBC2
:10A890000CF39B1AB3FBFCF301FB05354FF47A7CF8
:10A8A0004FF0010ADEF80430C3F30803002B40F038
:10A8B000BC82EFF31183002B40F0B78223688168DC
:10A8C00022689342FAD13A689142F7D832680CFB79
:10A8D00002FBABEB0101B1FBF2F10CFB03135B1BC1
:10A8E000B3F57A7FDED3019B013B0193B7D11822E8
:10A8F0001B210398DFF8CC80304F42F031FC0F234E
:10A90000DFF8C4E02E4801934FF01009DEF8043060
:10A91000C3F30803002B40F02483EFF31183002BD3
:10A9200040F01F832568826823689D42FAD13B6806
:10A930009A42F7D8D6F800C04FF47A7101FB0CF3B5
:10A940009B1AB3FBFCF301FB05354FF47A7C4FF007
:10A95000010ADEF80430C3F30803002B40F04782FD
:10A96000EFF31183002B40F0428223688168226854
:10A970009342FAD13A689142F7D832680CFB02FB55
:10A98000ABEB0101B1FBF2F10CFB03135B1BB3F565
:10A990007A7FDED3019B013B0193B7D118221C21A2
:10A9A0000398DFF82080054F42F0DAFB0F230DE01B
:10A9B0000038004090C1002094C1002098C10020C0
:10A9C00010E000E08CC1002000ED00E0DFF814E3AF
:10A9D000C14801934FF01009DEF80430C3F30803B7
:10A9E000002B40F09D82EFF31183002B40F0988202
:10A9F0002568826823689D42FAD13B689A42F7D85D
:10AA0000D6F800C04FF47A7101FB0CF39B1AB3FB2C
:10AA1000FCF301FB05354FF47A7C4FF0010ADEF8B8
:10AA20000430C3F30803002B40F0C381EFF311831C
:10AA3000002B40F0BE812368816822689342FAD1DE
:10AA40003A689142F7D832680CFB02FBABEB01018C
:10AA5000B1FBF2F10CFB03135B1BB3F57A7FDED382
:10AA6000019B013B0193B7D1029A92F85B30032B13
:10AA700000F23E8392F85E20012A0BD0022A40F0B9
:10AA80003783029B93F8633003F0FB03022B0CBF68
:10AA9000002207221A210398DFF84C828F4F42F0E0
:10AAA0005FFB0F23DFF83CE28B4801934FF0100966
:10AAB000DEF80430C3F30803002B40F0F882EFF314
:10AAC0001183002B40F0F3822568826823689D4241
:10AAD000FAD13B689A42F7D8D6F800C04FF47A71A1
:10AAE00001FB0CF39B1AB3FBFCF301FB05354FF4A0
:10AAF0007A7C4FF0010ADEF80430C3F30803002B20
:10AB000040F03981EFF31183002B40F0348123684A
:10AB1000816822689342FAD13A689142F7D8326844
:10AB20000CFB02FBABEB0101B1FBF2F10CFB0313DD
:10AB30005B1BB3F57A7FDED3019B013B0193B7D159
:10AB4000029B039893F86020DFF89C81634F1921E2
:10AB500042F006FB6423DFF88CE15F4801934FF07D
:10AB60001009DEF80430C3F30803002B40F07E82A6
:10AB7000EFF31183002B40F0798225688268236807
:10AB80009D42FAD13B689A42F7D8D6F800C04FF4FC
:10AB90007A7101FB0CF39B1AB3FBFCF301FB053547
:10ABA0004FF47A7C4FF0010ADEF80430C3F3080357
:10ABB000002B40F0C280EFF31183002B40F0BD80EA
:10ABC0002368816822689342FAD13A689142F7D8A3
:10ABD00032680CFB02FBABEB0101B1FBF2F10CFBA9
:10ABE00003135B1BB3F57A7FDED3019B013B01931B
:10ABF000B7D1102237210398DFF8EC80374F42F0AD
:10AC0000AFFA0F23DFF8DCE0334801934FF010096F
:10AC1000DEF80430C3F30803002B40F00682EFF3A4
:10AC20001183002B40F001822568826823689D42D1
:10AC3000FAD13B689A42F7D8D6F800C04FF47A713F
:10AC400001FB0CF39B1AB3FBFCF301FB05354FF43E
:10AC50007A7C4FF0010ADEF80430C3F30803002BBE
:10AC60004DD1EFF31183002B49D12368816822680D
:10AC70009342FAD13A689142F7D832680CFB02FB52
:10AC8000ABEB0101B1FBF2F10CFB03135B1BB3F562
:10AC90007A7FE0D3019B013B0193B9D10122382196
:10ACA000039842F05DFA029B0D495A69138823F01C
:10ACB00040031B041B0C1380138823F038031B0470
:10ACC0008A424FEA134300F04F8201F580618A42C5
:10ACD0000CBF0821102109E010E000E098C100201D
:10ACE0000038004000ED00E08CC100200B431380D1
:10ACF000138843F04003138005B0BDE8F08FEFF3F5
:10AD0000118189F31288D0F808B00368DB0344BFCF
:10AD1000C8F800A0D0F808B02368D8F80020C9B25D
:10AD200081F31188316813440CFB01F2A2EB0B0292
:10AD3000B2FBF1F20CFB0323A8E7EFF3118189F3D7
:10AD40001288D0F808B00368DB0344BFC8F800A03D
:10AD5000D0F808B02368D8F80020C9B281F3118870
:10AD6000316813440CFB01F2A2EB0B02B2FBF1F2CF
:10AD70000CFB032335E7EFF3118189F31288D0F838
:10AD800008B00368DB0344BFC8F800A0D0F808B0DF
:10AD90002368D8F80020C9B281F3118831681344C0
:10ADA0000CFB01F2A2EB0B02B2FBF1F20CFB032352
:10ADB000BEE6EFF3118189F31288D0F808B003687A
:10ADC000DB0344BFC8F800A0D0F808B02368D8F867
:10ADD0000020C9B281F31188316813440CFB01F2E1
:10ADE000A2EB0B02B2FBF1F20CFB032334E6EFF310
:10ADF000118189F31288D0F808B00368DB0344BFDF
:10AE0000C8F800A0D0F808B02368D8F80020C9B26C
:10AE100081F31188316813440CFB01F2A2EB0B02A1
:10AE2000B2FBF1F20CFB0323B0E5EFF3118189F3E0
:10AE30001288D0F808B00368DB0344BFC8F800A04C
:10AE4000D0F808B02368D8F80020C9B281F311887F
:10AE5000316813440CFB01F2A2EB0B02B2FBF1F2DE
:10AE60000CFB03233BE5EFF3118189F31288D0F843
:10AE700008B00368DB0344BFC8F800A0D0F808B0EE
:10AE80002368D8F80020C9B281F3118831681344CF
:10AE90000CFB01F2A2EB0B02B2FBF1F20CFB032361
:10AEA000C6E4EFF3118189F31288D0F808B0036883
:10AEB000DB0344BFC8F800A0D0F808B02368D8F876
:10AEC0000020C9B281F31188316813440CFB01F2F0
:10AED000A2EB0B02B2FBF1F20CFB032351E4EFF304
:10AEE000118389F31288D0F808C00268D20304D510
:10AEF0000122C8F80020D0F808C02568D8F800A0C2
:10AF0000DBB283F3118831684FF47A72554402FB47
:10AF100001F3A3EB0C03B3FBF1F302FB05350FE4E4
:10AF2000EFF3118389F31288D0F808C00268D203C6
:10AF300004D50122C8F80020D0F808C02568D8F848
:10AF400000A0DBB283F3118831684FF47A72554464
:10AF500002FB01F3A3EB0C03B3FBF1F302FB05359A
:10AF600059E5EFF3118389F31288D0F808C002681D
:10AF7000D20304D50122C8F80020D0F808C0256803
:10AF8000D8F800A0DBB283F3118831684FF47A72ED
:10AF9000554402FB01F3A3EB0C03B3FBF1F302FBFB
:10AFA0000535D2E4EFF3118389F31288D0F808C095
:10AFB0000268D20304D50122C8F80020D0F808C0E6
:10AFC0002568D8F800A0DBB283F3118831684FF40C
:10AFD0007A72554402FB01F3A3EB0C03B3FBF1F3CC
:10AFE00002FB05355AE4EFF3118389F31288D0F898
:10AFF00008C00268D20304D50122C8F80020D0F8A6
:10B0000008C02568D8F800A0DBB283F31188316846
:10B010004FF47A72554402FB01F3A3EB0C03B3FB2C
:10B02000F1F302FB0535FFF7E2BBEFF3118389F380
:10B030001288D0F808C00268D20304D50122C8F8EB
:10B040000020D0F808C02568D8F800A0DBB283F350
:10B05000118831684FF47A72554402FB01F3A3EB77
:10B060000C03B3FBF1F302FB0535F0E5EFF31183BD
:10B0700089F31288D0F808C00268D20304D50122EF
:10B08000C8F80020D0F808C02568D8F800A0DBB2C6
:10B0900083F3118831684FF47A72554402FB01F34F
:10B0A000A3EB0C03B3FBF1F302FB053578E5EFF3FB
:10B0B000118389F31288D0F808C00268D20304D53E
:10B0C0000122C8F80020D0F808C02568D8F800A0F0
:10B0D000DBB283F3118831684FF47A72554402FB76
:10B0E00001F3A3EB0C03B3FBF1F302FB0535FEE424
:10B0F000019ACFE41E09013E032E03F00F0300F175
:10B100000C0733D81E4A32F8160040FA03F2D10772
:10B110002CD5012505FA03F3013B18404AF08AFEBD
:10B12000184B194C9B5D184414EBC0041ED0002230
:10B13000E2712023029AA371144BD3603946204652
:10B1400044F0CEFEA388B3FA83F3C3F11F0315FACC
:10B1500003F33FF4A4AA0E490A6813430B60FFF7F8
:10B160009EBA3021FFF7B3BA0821BFE5029A074B18
:10B17000D3603946002044F0B3FEFFF790BA00BF19
:10B180002CE3050834E305088CBF0020098C000877
:10B19000003C01402DE9F84F037C02681F2B86BF5D
:10B1A000203B51681168202202FA03F30B4214BFBE
:10B1B000012300230BB9BDE8F88F4569DFF88891BA
:10B1C000044627F0BDFF4FF4867303FB0593064644
:10B1D0005A7C002A30D157495A6809781768C1B992
:10B1E000D3F8801058890A6822F001020A60BB89EE
:10B1F00023EA0003BB81504B1B78002B30D1237C0A
:10B2000021681F2B11D8202202FA03F38B60BDE8BE
:10B21000F88F5269136823F001031360BB8923F48C
:10B2200080731B041B0CBB81E5E7203B202202FA44
:10B2300003F3CB60BDE8F88FD3F880603F485F89A7
:10B2400001229A7431685A680368156821F0010177
:10B250003160AA89013322EA0702AA810360CEE79E
:10B260004FF4867A0AFB05FA09EB0A05D5F88080C7
:10B27000404613F001FD01236B74D5F884B027F02C
:10B280005FFF3B88CBF82C0123F080031B044FF0B9
:10B29000FF321B0C3B80FA623B880AF1340143F019
:10B2A00080033B804944384613F0A6FDD5E915706C
:10B2B0002B6CD5F850C0D5E917123B4303430B4321
:10B2C00013436A6E6F6FD8F800001D491343AA6ECE
:10B2D0001343AA6F3B43014013430B430022EA642C
:10B2E000C8F80030D5E91B30D8F81410D5F8802004
:10B2F0006F6C21F0070103430B43A86C95F87C1099
:10B30000C8F81430C8F804C0C8F80870C8F80C00B1
:10B3100051606B68116818686D8941F00101116016
:10B3200083892B43838127F00BFF064B801B18601A
:10B3300065E700BFA4350010A0350010E8A100208B
:10B340003F801CF04C34001064CE002020B1007807
:10B35000B0FA80F0400970470120704708B52021FD
:10B360004CF0F1FA0346184623B10278202A03F183
:10B370000103F8D008BD037903F01803082B0AD0A5
:10B3800002D82BB100207047102B14D0182BF9D104
:10B39000B0F80B007047104BB0F80B0093F9003079
:10B3A000591C06BF0D4B1B78DBB203EB831300EB7C
:10B3B000430080B270470A4BB0F80B0093F900309D
:10B3C0005A1C06BF054B5B78DBB203EB031300EBA3
:10B3D000430080B2704700BF890E0020C0CB002020
:10B3E000880E0020F0B5067906F0E003402B09D165
:10B3F00044794FF0FF350023012006F00706A342F1
:10B400000BD1F0BD602B08BF45794FF001040CBF94
:10B4100004FA05F54FF0FF35EDE7042E0CD8DFE810
:10B4200006F0030D18242E0030B1C85CD75C7840BC
:10B4300028420CBF012000200133E0E70028FBD0A8
:10B44000C856D756A0EB070CDCF1000040EB0C000F
:10B45000F2E70028F0D031F8130032F8137078408A
:10B4600028420CBF01200020E6E70028E4D031F993
:10B47000130032F91370C71B78427841DCE70028CB
:10B48000DAD051F8230052F82370784028420CBFDC
:10B4900001200020D0E7024B0146186842F04AB86C
:10B4A000AC9D002038B5064D441E14F8011F2868D5
:10B4B00019B9BDE8384041F0B5BF42F03BF8F4E7B8
:10B4C000AC9D00200048EDE73C38060808B5FFF7C2
:10B4D000E9FFBDE80840F5E710B504460348FFF76B
:10B4E000E1FF2046BDE81040F0E700BF28F805085E
:10B4F00008B532B1C30600D519B11046FFF7ECFF0D
:10B500000022104608BD38B5074C084DAC4203D3A5
:10B51000074B00221A7038BD6288D4E901014AF055
:10B52000D7FE1434F2E700BF90010008800700083E
:10B5300044B6002038B5074C074DAC4203D3074B47
:10B5400001221A7038BD6288D4E901104AF0C0FEA9
:10B550001434F2E7900100088007000844B6002088
:10B56000024A136823EA000010607047C0E0002020
:10B57000DFED2E7AB4EEE70AF1EE10FA4ADDDFEDE8
:10B580002C6A9FED2C7A01E0B0EE670AB4EEC70A90
:10B59000F1EE10FA70EE667AF6DC9FED277AF4EEA3
:10B5A000C77AF1EE10FA3ED5DFED216A9FED237ADE
:10B5B00001E0F0EE407AF4EEC77AF1EE10FA37EEE1
:10B5C000A60AF6D4DFED1E7AB4EEE70AF1EE10FA21
:10B5D00014DDDFED167A37EEC00A60EE006A9FEDEB
:10B5E000196A9FED197ADFED197AA6EE867A20EEB8
:10B5F000266AE6EE877AA6EE270A7047DFED147A10
:10B60000B4EEE70AF1EE10FA44BFDFED0B7A37EE45
:10B61000C00AE2E79FED087AF0EE407AF4EEC77ACE
:10B62000F1EE10FAC0D4B0EE670ACBE7DB0F494069
:10B63000DB0FC940E4CB1641DB0F49C0E4CB16C198
:10B64000DB0FC93F92E741B99730083C15A82ABEE5
:10B65000DB0FC9BFF0EEC07AB0EEE07AB4EEE77A65
:10B66000F1EE10FAB4BFB0EE676AB0EE476AB5EE1D
:10B67000406AF1EE10FA46D0B4EEE77AF1EE10FA35
:10B680008CBFF0EE675AF0EE475AC5EE866A9FED22
:10B690001F3A9FED1F6A9FED1F4A9FED1F5ADFED76
:10B6A0001F3ADFED1F4ADFED1F5AA6EEC36AE6EE32
:10B6B000A34AA6EE864AB7EE006AA6EE845AA6EE24
:10B6C000A46AE6EE855AC5EE866AB4EEE77AF1EE34
:10B6D00010FA48BFDFED147AF5EEC00A48BF77EEE6
:10B6E000E66AF1EE10FA48BFDFED107AB5EEC00A57
:10B6F00048BF77EEE66AF1EE10FA48BFF1EE666AEF
:10B70000B0EE660A7047DFED076ADEE739094E3DA5
:10B71000E3B59E3E88FA163E45FE7F3F99FB243FE7
:10B7200069A2163EA7DFA834DB0FC93FDB0F4940F3
:10B73000DFED317A30EE277AFDEEC76A16EE903AE9
:10B740002033402B02D99FED2D0A7047B4EEE70A53
:10B75000F1EE10FA4DDD9FED2A6ADFED2A6A01E075
:10B76000B0EE677AB4EEE67AF1EE10FA77EE467A4A
:10B77000F6DC9FED257AF4EEC77AF1EE10FA35D5B6
:10B78000DFED1F6A9FED217A01E0F0EE407AF4EEE2
:10B79000C77AF1EE10FA37EEA60AF6D4DFED167A84
:10B7A000B4EEE70AF1EE10FA1BDCDFED197AB4EE25
:10B7B000E70AF1EE10FA44BFDFED137A37EEC00A64
:10B7C00060EE006A9FED136A9FED137ADFED137A46
:10B7D000A6EE867A20EE266AE6EE877AA6EE270A9D
:10B7E0007047DFED0F7A37EEC00AE9E7B0EE670A7F
:10B7F000D4E7F0EE477ABCE7DB0FC93F000000005A
:10B80000DB0FC940E4CB1641DB0F49C0E4CB16C1C6
:10B81000DB0FC9BF92E741B99730083C15A82ABE93
:10B82000DB0F494010B44C09012250F8243001F0DC
:10B830001F0102FA01F123EA010340F824305DF808
:10B84000044B704710B44C09012250F8243001F029
:10B850001F0102FA01F10B4340F824305DF8044B5C
:10B86000704700BF4B0901F01F0150F8232001234E
:10B8700003FA01F1114214BF18460020704700BFBF
:10B880002DE9F043002489B006460D461F46A04628
:10B8900005E025290CD030460134A847039A531CF3
:10B8A000039311780029F4D1204609B0BDE8F08354
:10B8B000931CCDE903385078302842D0A0F13003F2
:10B8C000DBB2092B4FF0000945D96C282AD0642837
:10B8D00073D019D9732858D063D9752840F0828065
:10B8E00007F1040C386805AB00220A216746FCF713
:10B8F000B7FC05AB049A009329464B463046FCF74B
:10B9000085FB039A0444CAE725283CD051D958281E
:10B910006BD06328C2D139783046A8470437013448
:10B92000039ABCE7039B5A1C03921B78642B52D0EA
:10B9300016D8252B27D064D9582B18D0632BEAD0E2
:10B94000ADE7D31C03939078A0F13003DBB2092B51
:10B950004FF00109B9D804AA03A946F0FDF9B4E7EC
:10B96000732B12D051D9752B2DD0782B97D1A3F1F1
:10B970005802B2FA82F23868520905AB1021043736
:10B98000FCF76EFCB5E7252185E73B68049A009338
:10B99000294600233046FCF739FB04370444039A58
:10B9A0007DE76E287FF47AAF039A3B6804371C600A
:10B9B00075E700283FF478AF70E7386805A9FCF711
:10B9C00019FC043795E7386805AB00220A21FCF71B
:10B9D00047FC04378DE73B1D386805A91F46FCF777
:10B9E00009FC86E778287FF459AFA0F15802B2FA33
:10B9F00082F23868520905AB1021FCF731FC04379C
:10BA000077E7002B3FF450AF49E76E2BCDD046E7E8
:10BA100010B5064C0B46024605492068FFF730FF7B
:10BA20002068BDE8104041F0FDBC00BFAC9D002087
:10BA3000C994000838B504460D460848FFF732FDA2
:10BA400029462046FFF7E4FF0548FFF72BFD054B8D
:10BA50001B7813B1044B01221A7038BD2DF805086C
:10BA60007D320608089F0020099F00200FB407B50B
:10BA700004A951F8040B0191FFF7DCFFFFF722FD49
:10BA800003B05DF804EB04B0704713460A46014664
:10BA90000048EBE738F805080048E7E751F80508E3
:10BAA0000FB407B504A951F8040B0191FFF7C2FFC9
:10BAB00003B05DF804EB04B070470FB407B504A9F8
:10BAC00051F8040B0191FFF7A3FFFFF7FBFC03B054
:10BAD0005DF804EB04B070470FB407B504A951F842
:10BAE000040B0191FFF794FF03B05DF804EB04B081
:10BAF00070472DE9F843037903F0E001202928D0AD
:10BB000002D849B1BDE8F883402945D06029F9D170
:10BB10002448BDE8F843D0E703F00703022B02D026
:10BB2000042B08D06BB9B0F80720B0F805101E48F8
:10BB3000BDE8F843C1E7D0F805201B48BDE8F8434D
:10BB4000BBE7B0F90720B0F905101748BDE8F84386
:10BB5000B3E74579154E1648FFF7A4FC06EBC5027E
:10BB6000002492F804800123A04502D8BDE8F843E0
:10BB7000A8E456F8357057F824204FEA84094AB1F2
:10BB800013B90C48FFF78EFC57F809100A48FFF765
:10BB9000A3FF00230134E7E741790848BDE8F843F3
:10BBA0008BE700BF99F805085DF8050814C405087F
:10BBB00074F8050885F805088A2C060888F8050831
:10BBC0002DE9F0411746027902F0E003402B0546CB
:10BBD0000E462BD10024584FDFF8808115E02B79D9
