:020000040800F2
:10000000F0FF00103D570508E57F0308F979010866
:10001000DD570508DD570508DD570508000000001D
:10002000000000000000000000000000F17F030855
:10003000ED7F030800000000E97F0308016F01085D
:10004000DD570508DD570508DD570508DD570508AC
:10005000DD570508DD57050881940108AD950108B5
:100060007195010835950108F994010881C10008CE
:1000700071C1000861C1000851C100083DC10008FC
:1000800029C1000815C10008DD570508DD5705081E
:10009000DD570508DD570508DD570508BD94010843
:1000A00011570108AD5C0108415601087D5D01084A
:1000B000ED5B01082D5B0108615A0108F1D90008C8
:1000C000F9D90008E5D90008EDD90008DD57050881
:1000D000DD57050879700108DD570508DD6F010857
:1000E00047940108DD570508EDC103087155010863
:1000F000E1570108A1540108C158010801C10008D5
:10010000DD570508DD57050891590108DD57050839
:10011000DD570508DD5705088D360308153503083A
:10012000EDC00008D9C00008C5C00008B1C0000873
:100130009DC00008DD570508DD570508DD57050897
:10014000DD570508DD570508DD570508AD9A03089A
:1001500089C0000875C0000861C00008416F01082F
:10016000D9D90008E1D90008DD570508DD57050891
:10017000DD570508DD570508DD570508DD5705087B
:08018000DD570508DD570508F5
:08018800E45205000100000033
:1001900010020100481C0020441C00200000000048
:1001A000A807000807020200E01D0020281E00200A
:1001B00000000000AC070008F6210C00141D002010
:1001C0002C1E002000000000B007000802000C00F8
:1001D000C01C0020381E00200000000000000000AD
:1001E00006020C00B81D0020441E00200000000084
:1001F00033CB030808120F00381D0020501E0020CA
:1002000000000000DDC90308F70106002C1D0020D6
:10021000601E002000000000BC0700081D02020054
:10022000281D0020681E002000000000C2070008F2
:100230001A023C009C1E00205C21002000000000EF
:100240003BCC030827000400941E002098210020C6
:1002500000000000C407000838100100801E0020C4
:100260009C21002000000000C807000801200C00AD
:10027000C8350020B43D002000000000CA07000877
:100280000A70280068340020C03D002000000000F3
:10029000F52B02080EB08601E0320020E83D002078
:1002A00000000000D5DA0408010104003832002003
:1002B000703F00200000000000000000000104006A
:1002C00030320020743F002000000000D6070008F4
:1002D000020103002C320020783F002000000000C3
:1002E00009DB000822021401503A00207C3F002064
:1002F0000000000051CD03080C20CC00B0340020D9
:100300009040002000000000CDDA00080102050046
:10031000443200205C41002000000000E1BC0108E4
:100320000002050010390020644100200000000098
:10033000000000001B021000DC3800206C4100208F
:1003400000000000BBC803081E0006006036002045
:100350007C41002000000000DA0700081B100C00A0
:10036000242300208441002000000000ADCA0108C1
:100370002102F000A8210020904100200000000090
:1003800089C901082C001000E84A0020D84A002042
:1003900000000000454702082B0024001C4B0020F1
:1003A000F84A0020000000001547020829207800C4
:1003B000E0490020404B0020000000000000000049
:1003C00028101000C84B0020B84B0020000000008F
:1003D000512C02081C02100070460020D84B00204F
:1003E0000000000091C803080412020054490020D4
:1003F000E84B002000000000E00700080F020100A9
:1004000050490020EC4B002000000000E2070008EB
:10041000101002009C470020F04B0020000000005C
:10042000E40700081900050094470020F44B002061
:1004300000000000E6070008F82106008C470020B5
:10044000FC4B002000000000EC0700080A020A0034
:1004500058540020AC5600200000000089D102084A
:10046000030001002C4F0020B856002000000000BF
:100470000000000003123D006C560020BC56002016
:1004800000000000F207000825102C018C54002009
:10049000FC56002000000000000000000B301A0095
:1004A000C06A00201C700020000000003008000816
:1004B0001F302400F8610020387000200000000088
:1004C0004C08000805020400BC6D00205C70002090
:1004D000000000007008000803010A0020620020EC
:1004E000607000200000000074080008130204007F
:1004F0005C6000206C700020000000007E08000896
:100500001F021000488600203886002000000000EE
:1005100021CA030823121000A0AD00202CAE002039
:1005200000000000840800080510060098AD0020B7
:100530003CAE00200000000094080008371028009E
:10054000DCAD002044AE0020000000009A08000846
:100550000E02020090AD00206CAE002000000000F2
:10056000C20800081610060054A6002070AE002035
:1005700000000000C40800082F10220008AE002070
:1005800078AE002000000000CA08000823100E000A
:10059000B0A600209CAE002000000000692C0208DC
:1005A000F551900084A50020ACAE002000000000B2
:1005B000B9C801081400030054AB00203CAF002070
:1005C00000000000EC0800080D00340020E60020C8
:1005D000BCE6002000000000AD4101080902010056
:1005E0008CE50020F0E6002000000000F008000884
:1005F000040080000CE50020F4E60020000000006C
:100600000000000013000400F8E4002074E700205C
:1006100000000000F4080008FD012400D4E40020DC
:1006200078E7002000000000313E0108182030006B
:10063000A0E400209CE7002000000000E1CC0308BB
:1006400006101A0080D20020CCE700200000000035
:1006500031DB0408FB0101007CD20020E8E7002028
:1006600000000000FDCD0308FC01090048D1002076
:10067000ECE70020000000000DCE030816023F004A
:10068000C8D00020F8E7002000000000FDC80308E3
:1006900034001000F8CF002038E8002000000000EF
:1006A00005DB040811020800D0CF002048E8002034
:1006B00000000000F808000812120400C8CF002053
:1006C00050E800200000000000090008122010007F
:1006D000B8CF002054E80020000000000409000802
:1006E000F901040028CC002064E80020000000008C
:1006F000A73E0108FA010200C8C5002068E80020F2
:1007000000000000018000080202030090AF0020FA
:100710006CE8002000000000000000000C02040053
:100720004CAF002070E800200000000009CA030858
:1007300011000C0051BA002074E8002000000000F5
:1007400011390108FE0114002CBA002080E80020B5
:1007500000000000CDC803081A000E00F4EC0020D1
:1007600034EE0020000000001409000820320A00C6
:10077000C8EB002044EE002000000000B5DA0408B9
:1007800015007000B8E9002050EE002000000000C5
:10079000000000002A006000BCED0020C0EE002038
:0807A000000000008DDA0408DE
:1007A80000000000023C0000000000000100000002
:1007B80002020000240100000000000020030000E5
:1007C8000000E8036400040A000114001E00900100
:1007D80000000000010000001118000000050000E2
:1007E800280100000401F4011400000000000000CA
:1007F80000000000000000000000000000000000F1
:1008080000000000000000000000000000000000E0
:1008180000000000000000000000000000000000D0
:100828000000000000000100AE014A015E012C0139
:1008380064010100000001000A019A01001E0A007B
:10084800000000000000000000010000000500009A
:10085800010203000000000000000000000000008A
:1008680000000000008007000000000004010100F3
:100878006C160000000000000135000000000000B8
:10088800000000000000000000000000200001013E
:10089800000020003200C800D00796001400320083
:1008A8002800B00440060005500014000F0008009E
:1008B80064000100000005000A000000C4090000EF
:1008C8001900000000000000000000000000000007
:1008D8000000000000000000000000000000000010
:1008E80000000000030000002E000000002045303A
:1008F8002F00000001010101FFFFFFFF00000001C0
:1009080000000553594E3400000800007E05EA0532
:0A091800B4053200E803D007000028
:1009220051F0030873CA03086FCA03086BCA0308AD
:1009320035CE030867CA030863CA0308987005081E
:100942008581030839660308C58C0308000000008E
:1009520000000000C9890308E588030800000000C0
:100962000000000000000000716103080DCB0308C5
:1009720001CB030865D3030881D30308B9CA03086E
:1009820049D303082DD30308FF01FF00000004012F
:10099200000000000000000210000000070000003C
:1009A200000000000000000001020304060708091D
:1009B20000000000181E00200800000000000000D7
:1009C200081E002008000000F8F0050804F10508E0
:1009D20010F105081CF1050828F1050834F1050895
:1009E2002421060848FE050870FD050888F0050860
:1009F20074040608F4EE0508ECF00508F0F00508AA
:100A0200F4F0050840F1050844F1050848F105082D
:100A120078FB05084CF105081900C800F401200311
:100A2200916703087D660308618F030800000000D8
:100A3200F9610308198B0308CD650308918A03083D
:100A42000000000000000000B561030849610308CE
:100A52003D61030895800308B1800308798003088B
:100A62005D8003084180030849670308596603084B
:100A7200A18E030800000000CD610308958A0308D7
:100A8200A1650308F18903080000000000000000CE
:100A9200C161030888FF050800000802050303007E
:100AA20090FF05080100080205040300602A0608F9
:100AB2000200FE010110030098FF05080300140262
:100AC20000030000A0FF050804001F020100080047
:100AD200A8FF050805001F0201010800FFFF000032
:100AE20000000100E0010000FFFFFFFFFF01000026
:100AF20005C0010800000000848A0508FFFFFFFF0F
:100B0200080000004257020000000106425702009E
:100B1200000001060101FFFF2D202D2D202D2D2D7E
:100B22002D202D2D2D0000000000000000000000EF
:100B320000000000000000000000000000000000B3
:100B420068A205080000000000000000F4A20508E9
:100B520001000000FA000000010000000100000096
:100B6200C63500200000F40101000000C435002059
:100B72000000F40101000000C23500200000F40171
:100B820001000000C03500200000F4010100000057
:100B9200BE3500200000F40101000000BC35002039
:100BA2000000F40101000000BA3500200000F40149
:100BB2000100000041C7010805C70108109005089F
:100BC200B035002005320100AE350020E803D00721
:100BD20001000000AC350020E803D007010000004E
:100BE200AA350020E803D00701000000A835002044
:100BF2001E00B80B01000000B635002005000F00F2
:100C020001000000B835002003000A0001000000C6
:100C1200A63500201E00F40101000000A4350020CA
:100C22001400640001000000B23500203200E80325
:100C320001000000A23500200000C80001000000F1
:100C4200AE34002000C80100AD3400200050010085
:100C5200AC340020005A0100AA3400200200000037
:100C62009C900508DC110608E4110608A6E600209F
:100C72000100C40900000000A4E600200100C4092C
:100C820000000000A2E600200100C40900000000EC
:100C9200A0E600200100C409000000009CE600203C
:100CA2000100C409000000009EE600200100C40902
:100CB200000000009AE600200100C40900000000C4
:100CC20098E600200100C40900000000573200200D
:100CD20000C801005632002000C801005432002032
:100CE2000100C800010000005232002032003075BD
:100CF2003200000051320020055A05004E32002019
:100D020000FF01005032002001000000CC0400204E
:100D12004C32002003000000B0D305084D32002001
:100D220000FF01004F32002001000000CC0400202F
:100D32004B32002003000000B0D30508A9C6010809
:100D42004DC60108A8900508D8350020EE02CA0851
:100D520001000000D635002000C801006400000038
:100D6200D535002000C8010064000000D435002001
:100D720002000000889105083E32002080C1803EBA
:100D8200050000003C32002080C1803E05000000CA
:100D92003632002080C1803E05000000343200203F
:100DA20080C1803E050000002F32002000FF0100BC
:100DB200283200206400F4010100000027320020E4
:100DC2000400000094910508263200200200000071
:100DD200A8910508D13200200D000000B491050849
:100DE200CE32002000640100CC32002032001027F5
:100DF2000A000000CB3200200D000000B49105086B
:100E0200CA3200200D000000B4910508C93200204A
:100E120002000000EC910508000000000000000044
:100E2200F8910508746D00209CFF2C010000000061
:100E3200743C0020E0150C1700000000553900201A
:100E42000200000030920508E43500200100FF7F17
:100E520001000000E3350020020000003C9205087A
:100E6200D3320020030000004C920508D232002049
:100E7200030000004C9205089C3400200000E803A7
:100E8200010000009A3400200000E8030100000085
:100E9200983400200000E80301000000963400208E
:100EA2000000E80301000000943400200000E80381
:100EB20001000000923400200000E803010000005D
:100EC200913400200014010090340020030000003F
:100ED2005C920508A83400200000F4010100000023
:100EE200A63400200000F40101000000A434002018
:100EF2000000F40101000000A23400200000F4010F
:100F020001000000A03400200000803E010000002B
:100F12009E3400200000803E010000008F3500203A
:100F2200196401008E350020020000006C92050851
:100F32008C350020E803D0070A0000008A35002023
:100F4200006401000A0000007F35002000640100F7
:100F52007E35002000640100863500200064010017
:100F62000A00000085350020006401000A0000002C
:100F720084350020006401000A0000008935002049
:100F8200006401000A0000008835002000640100AE
:100F92000A00000087350020006401000A000000FA
:100FA2008335002001FF01000A0000008235002085
:100FB20001FF01000A0000008135002001FF01004D
:100FC2000A000000DC3200200000F40101000000F1
:100FD200DA3200200000F40101000000D8320020C3
:100FE2000000F40101000000D63200200000F401EC
:100FF20001000000D43200200000F40101000000D2
:101002006739002000C80100663900200064010031
:101012006539002000640100643900200064010089
:10102200633900200064010062390020FF080100DA
:101032006139002001640100B9C501087DC50108BC
:101042007892050860390020006401005E390020B2
:101052001400E803010000005C390020E803307549
:101062000A0000005A39002000C801005939002046
:1010720000C801005839002000C80100573900207B
:10108200006401000A000000763900200000D00749
:10109200010000007039002000C801006F390020F3
:1010A20000C801006E39002000C801007439002018
:1010B2000000D007010000006D39002000C80100C7
:1010C2006C39002000C801006B39002000C8010003
:1010D200723900200000D007010000006A390020A8
:1010E20000C801006939002000C8010068390020E9
:1010F20000C80100000000006DC30108E892050865
:10110200C73200203900000084930508C63200204F
:1011120000C80100C4320020E803D007010000002B
:1011220053594E4552475946340000004A32002076
:10113200000301004932002000030100C1C201087E
:1011420085C201086C94050841C20108F5C1010875
:10115200DC940508FDC2010875F201085C950508DA
:101162004032002001030100A9C701087DC7010820
:101172006098050879C101082DC10108D0980508B9
:1011820083C30108051702086C990508290802089B
:1011920000000000149A05080DF6010809C80108AC
:1011A200B09A0508E1C3010800000000309B050861
:1011B200B1C401085DC40108949B050841C501083A
:1011C20005C50108309C05087D2A0208F5C50108FD
:1011D200B09C0508A13500200106010025C40108C4
:1011E200F5C30108AC9D0508E3290208D9F20108FC
:1011F2001C9E0508C12A020871F30108189F050800
:10120200A03500200103010041C3010815C30108F4
:10121200EC9F0508D5C701080000000050A0050892
:10122200C5C1010845F20108B4A00508000000008C
:101232000000000040A1050825C60108E9F30108E5
:10124200C0A105082232002088136F170100000098
:101252002432002088136F170000000082620020F1
:10126200000000000000000080620020000000007A
:10127200000000007E62002000000000000000006C
:101282007C62002000000000000000007A62002062
:101292000000000000000000786200200000000052
:1012A20000000000FC0D0020000000000000000013
:1012B200F93100200200000048A305082032002076
:1012C20088136F1701000000B46D002088136F1798
:1012D20000000000BDC001080000000054A3050882
:1012E2005639002001000000A8A30508B66D0020B1
:1012F20001000000B4A30508AC6D0020020000004C
:10130200BCA305080000000000000000C8A30508F7
:10131200A5C001080000000064A405080000000048
:1013220000000000B8A40508000000000000000052
:1013320028A50508B06D0020E0150C17000000007C
:10134200D6010000B80B00000100000000010101FD
:10135200000101000000803FFFFFFFFF0000803F0F
:10136200000000000000000000000000FFFFFFFF7F
:10137200FF0000000403090412010002EF02014011
:10138200830456320002010203010000120100022E
:1013920002020040830440570002010203010000E0
:1013A20009022000010104C03209040000020806FB
:1013B20050050705810240000007050102400000B8
:1013C20009026400030100C03209040000010300A5
:1013D20000000921110100012226000705830308EC
:1013E200000A080B010202020100090401000102C5
:1013F2000201000524001001052401000204240258
:10140200020524060102070582030800FF090402FF
:1014120000020A00000007050102400000070581E2
:101422000240000009024300020100C03209040028
:10143200000102020100052400100105240100013F
:10144200042402020524060001070582030800FFA6
:1014520009040100020A0000000705010240000021
:101462000705810240000000FF00000024AB0508D0
:10147200000000000000000000000000000000006A
:10148200000000000000000000000000000000005A
:101492000000000000FFFF0000000000AA55050147
:1014A20000000100F8AA050800000000000000008A
:1014B200000000000000000000000000000000002A
:1014C200000000000000000000000000FF1FFF1FDE
:1014D20005010905A101A1000501093009310932FF
:1014E200093309350934094009381581257F750802
:1014F20095088102C0C0000009022200010100E03B
:101502003209040000010301020009211101000156
:101512002226000705830308000A000000000000DD
:10152200010203040102030406070809298C0308C7
:101532002D8B0308858F030835620308AD67030806
:1015420045620308616203080D620308FD61030836
:1015520000000000000000002D202D2D202D2D2D3B
:101562002D202D2D2D2D0000000000000000000078
:1015720000000000000000AA550B010000AA550758
:10158200010000AA550902000000AA5503009F00AD
:1015920001000000C0120000F06F002000000000F7
:1015A20014700020000000001A0300000000000078
:1015B2000000000000000000000000000000000029
:1015C20000000000040309041201000200000040B0
:1015D2008304205700020102030100000068214C2D
:1015E2001F0000001C0000001F0000001E00000081
:1015F2001F0000001E0000001F0000001F0000006E
:101602001E0000001F0000001E0000001F0000005E
:10161200FFFFFFFF00004000020000080100000081
:10162200FFFFFFFF01000000A00F0000B80B000049
:101632000102FFFF0101000008000000FFFFFFFFA1
:101642003961030835610308316103082561030824
:10165200216103082D6103082961030801000000CC
:101662000060024010600240000000000000000024
:10167200000B00000000000000000000000000005D
:1016820000600240286002400100000000000000EB
:10169200060C000000000000000000000000000036
:1016A20000600240406002400200000000000000B2
:1016B200100D00000000000000000000000000000B
:1016C2000060024058600240030000000000000079
:1016D200160E0000000000000000000000000000E4
:1016E2000060024070600240040000000000000040
:1016F200200F0000000000000000000000000000B9
:101702000060024088600240050000000000000006
:101712002610000000000000000000000000000091
:1017220000600240A06002400600000000000000CD
:101732003011000000000000000000000000000066
:1017420000600240B8600240070000000000000094
:10175200362F000000000000000000000000000022
:10176200006402401064024000000000000000001B
:10177200003800000000000000000000000000002F
:1017820000640240286402400100000000000000E2
:101792000639000000000000000000000000000008
:1017A20000640240406402400200000000000000A9
:1017B200103A0000000000000000000000000000DD
:1017C2000064024058640240030000000000000070
:1017D200163B0000000000000000000000000000B6
:1017E2000064024070640240040000000000000037
:1017F200203C00000000000000000000000000008B
:1018020000640240886402400500000000000000FD
:10181200264400000000000000000000000000005C
:1018220000640240A06402400600000000000000C4
:101832003045000000000000000000000000000031
:1018420000640240B864024007000000000000008B
:10185200364600000000000000000000000000000A
:101862003400060820620608000000001DDB0008A4
:10187200A08601000400000000000000000000003B
:101882000000000000000000000000000000000056
:101892000000000000000000000000000000000046
:1018A200340006084C63060800000000893A01086B
:1018B200E803000004000000000000000000000037
:1018C2000000000000000000000000000000000016
:1018D2000000000000000000000000000000000006
:1018E200E4180608FCFB05080000000085D9020880
:1018F2007D00000006000000000000000000000063
:1019020000000000000000000000000000000000D5
:1019120000000000000000000000000000000000C5
:10192200145D06080000000000000000C98B0108D9
:10193200E8030000030000000000000000000000B7
:101942000000000000000000000000000000000095
:101952000000000000000000000000000000000085
:10196200546306080000000000000000ED24050892
:10197200102700000300000000000000000000002B
:101982000000000000000000000000000000000055
:101992000000000000000000000000000000000045
:1019A20094FF050800000000BD430208B17A010857
:1019B2005F7600000500000000000000000000004B
:1019C2000000000000000000000000000000000015
:1019D2000000000000000000000000000000000005
:1019E200F4020608000000000000000075A40108CF
:1019F20010270000010000000000000000000000AD
:101A020000000000000000000000000000000000D4
:101A120000000000000000000000000000000000C4
:101A22006063060800000000000000008B3A010815
:101A3200E8030000050000000000000000000000B4
:101A42000000000000000000000000000000000094
:101A52000000000000000000000000000000000084
:101A62006C6306080000000000000000D1E20008DC
:101A7200204E0000030000000000000000000000F3
:101A82000000000000000000000000000000000054
:101A92000000000000000000000000000000000044
:101AA2007C6306080000000000000000D5E000088A
:101AB200204E0000030000000000000000000000B3
:101AC2000000000000000000000000000000000014
:101AD2000000000000000000000000000000000004
:101AE2008C63060800000000000000005990010805
:101AF200400D030003000000000000000000000091
:101B020000000000000000000000000000000000D3
:101B120000000000000000000000000000000000C3
:101B220040EF050800000000000000001D890108C8
:101B3200102700000100000000000000000000006B
:101B42000000000000000000000000000000000093
:101B52000000000000000000000000000000000083
:101B6200FC0206080000000000000000E9D50108A0
:101B72001027000003000000000000000000000029
:101B82000000000000000000000000000000000053
:101B92000000000000000000000000000000000043
:101BA200900106080000000000000000752F0408E4
:101BB200A0860100000000000000000000000000FC
:101BC2000000000000000000000000000000000013
:101BD2000000000000000000000000000000000003
:101BE2009014060800000000000000008939010876
:101BF200A8610000010000000000000000000000D9
:101C020000000000000000000000000000000000D2
:101C120000000000000000000000000000000000C2
:101C22009C6306080000000000000000D1170208B3
:101C3200A08601000100000000000000000000007A
:101C42000000000000000000000000000000000092
:101C52000000000000000000000000000000000082
:101C620068EF05080000000000000000F1410108D3
:101C7200A00F0000010000000000000000000000B2
:101C82000000000000000000000000000000000052
:101C92000000000000000000000000000000000042
:101CA200A863060800000000000000004D120208B0
:101CB20010270000010000000000000000000000EA
:101CC2000000000000000000000000000000000012
:101CD2000000000000000000000000000000000002
:101CE2001C0106080000000000000000493801083D
:101CF200A00F000001000000000000000000000032
:101D020000000000000000000000000000000000D1
:101D120000000000000000000000000000000000C1
:101D2200F800060800000000000000002D7B0408F7
:101D32001A41000001000000000000000000000045
:101D42000000000000000000000000000000000091
:101D52000000000000000000000000000000000081
:101D6200540306080000000000000000656A030832
:101D72001027000001000000000000000000000029
:101D82000000000000000000000000000000000051
:101D92000000000000000000000000000000000041
:101DA2002C6206080000000000000000B91F0208B3
:101DB2001A410000010000000000000000000000C5
:101DC2000000000000000000000000000000000011
:101DD2000000000000000000000000000000000001
:101DE200B463060800000000000000004D70030804
:101DF200400D030000000000000000000000000091
:101E020000000000000000000000000000000000D0
:101E120000000000000000000000000000000000C0
:101E2200BC630608000000000000000047390108FA
:101E3200400D030000000000000000000000000050
:101E42000000000000000000000000000000000090
:101E52000000000000000000000000000000000080
:101E6200C4630608000000000000000089FC0108AD
:101E720050C300000300000000000000000000004A
:101E82000000000000000000000000000000000050
:101E92000000000000000000000000000000000040
:101EA200D0630608000000000000000049E00008BE
:101EB20040420F000000000000000000000000008F
:101EC2000000000000000000000000000000000010
:101ED2000000000000000000000000000000000000
:101EE200DC63060800000000000000000D940108F9
:101EF20050C30000000000000000000000000000CD
:101F020000000000000000000000000000000000CF
:101F120000000000000000000000000000000000BF
:101F22000000803F7D0000000000803F00000000B4
:101F320000000000000000000000803F00000000E0
:101F4200000000000000000000000000000000008F
:101F5200000000000000000000000000000000007F
:101F62000000803F000000000000000000000000B0
:041F7200010000006A
:108000002322032302704370704700BF083070477B
:1080100008307047044A054B126803EB42131846B8
:108020005B689B69184700BFE0170020F0C500207F
:108030000448054B006803EB401318465B685B6916
:10804000184700BFE0170020F0C50020704700BFB0
:10805000816170474FF4006303837047012380F808
:1080600050307047F0B4037C456902681F2B37D944
:10807000203B2021546899400C4223D010249C407E
:10808000D160D4605168D940CE074ED4EFF311834C
:10809000502282F312882A6C1168C90709D45468E7
:1080A000002C52D1D5E909618E4243D1012285F8D5
:1080B0006420DBB283F31188037C02681F2B19460E
:1080C00014D9203B082150689940084200D0D16063
:1080D0000421506801FA03F3184223D1F0BC704721
:1080E000202416689C4026420FD1194608231068A8
:1080F0008B40184200D093600423106803FA01F10A
:108100000842EBD09160F0BC704710219940946018
:1081100091601168D940CC07B8D5012101FA03F369
:108120009360B3E7D360F0BC7047012101FA03F319
:10813000D360ABE7AF690F44D7600ED82E69711AD0
:108140005160AC62002185F86410116841F00101B2
:10815000DBB2116083F31188AEE7711A5160AE6231
:10816000F0E700BFF0B4714B71491A780B789A426E
:1081700040F07E816F4B1A78002A00F0D4806E4B5D
:1081800019786E4B002940F0DB801868B3F8326133
:10819000048824F080042404240C048093F83041E3
:1081A000C462058845F08005058041628489012A02
:1081B00044EA06048481A3F8321100F0B480D3F8B5
:1081C0003401B3F86662048824F080042404240C8B
:1081D000048093F86442C462058845F080050580F8
:1081E00041628489022A44EA06048481A3F8661263
:1081F00000F09980D3F86802B3F89A63048824F0F9
:1082000080042404240C048093F89843C4620588F5
:1082100045F08005058041628489032A44EA06040A
:108220008481A3F89A137ED0D3F89C03B3F8CE646C
:10823000048824F080042404240C048093F8CC44A3
:10824000C462058845F08005058041628489042A5E
:1082500044EA06048481A3F8CE1464D0D3F8D00491
:10826000B3F80266048824F080042404240C0480FB
:1082700093F80046C462058845F080050580416298
:108280008489052A44EA06048481A3F802164AD0A8
:10829000D3F80406B3F83667048824F08004240475
:1082A000240C048093F83447C462058845F08005A7
:1082B000058041628489062A44EA06048481A3F881
:1082C000361730D0D3F83807B3F86A68048824F03A
:1082D00080042404240C048093F86848C462058850
:1082E00045F08005058041628489072A44EA060436
:1082F0008481A3F86A1816D0D3F86C28B3F89E5975
:10830000108820F080000004000C108093F89C0975
:10831000D062148844F0800414805162908928430C
:108320009081A3F89E19F0BC704700BF384E002022
:10833000394E00206C19001068190010FCDA00207A
:108340005C68198961602568186845F0010540F28C
:108350000D312560A0F848108489012A44F4807406
:108360008481E0D0D3F83841B3F83C51D3F83401DC
:108370006560256845F001052560A0F848108489EE
:10838000022A44F480748481CDD0D3F86C42B3F8CF
:108390007052D3F868026560256845F001052560D4
:1083A000A0F848108489032A44F480748481BAD0E8
:1083B000D3F8A043B3F8A453D3F89C0365602568B1
:1083C00045F001052560A0F848108489042A44F48A
:1083D00080748481A7D0D3F8D444B3F8D854D3F8A8
:1083E000D0046560256845F001052560A0F84810B7
:1083F0008489052A44F48074848194D0D3F8084693
:10840000B3F80C56D3F804066560256845F00105FD
:108410002560A0F848108489062A44F48074848179
:1084200081D0D3F83C47B3F84057D3F8380765609C
:10843000256845F001052560A0F848108489072AC1
:1084400044F4807484813FF46EAFD3F87028B3F89D
:108450007408D3F86C385060106840F00100106068
:10846000A3F848109A8942F480729A81F0BC704750
:108470005C00E618484D15F83660032E3FF67AAEDC
:10848000DFE806F04D261C02E01805EBC00044684A
:10849000661E012C46603FF646AF013303F003032E
:1084A000D8B2824208703FF465AE03EB4303DB00B1
:1084B000EA1802200021E854516034E7E11805EB86
:1084C000C1014868461E01284E603FF62CAF0DE002
:1084D000E118C90068184668771E012E47603FF60C
:1084E00022AF02274FF0FF366F544660E618F600C1
:1084F000AF192A48397B00680139C9B2397389B389
:108500004FF47A722344B2FBF0F200FB02F0B0F5B4
:108510007A7F05EBC30518BF01326A602AE670B1A5
:108520001F49012600220F890132002F18BF0026A3
:10853000824201F58671F6D1002E3FF41BAE174A38
:10854000126842F21076E018B6FBF2F102FB1162FB
:10855000012605F8306002B13144234405EBC30520
:10856000696007E6BF68B7FBF0F100FB11700327F5
:10857000AF5500B101311C44013305EBC40503F0D4
:108580000303934269603FF4F5AD00293FF4F2AD77
:1085900001396960EEE500BF3C4E00208C170020D9
:1085A0009CD2002010B5027C01681F2A4FF02003E6
:1085B0000ED94C68203A93401C4208D00B4A4068C0
:1085C00000241470026822F001020260CB6010BD2A
:1085D0000C6893401C42FAD0044A4068002414708E
:1085E000026822F0010202608B60F0E750BA0020BE
:1085F00010B5027C01681F2A4FF020030ED94C6889
:10860000203A93401C4208D00B4A40680024147062
:10861000026822F001020260CB6010BD0C6893403A
:108620001C42FAD0044A406800241470026822F008
:10863000010202608B60F0E73F2500202DE9F04148
:10864000C40023189B00B749CA585268958AADB236
:10865000EFB2FE070B4461D4BE0737D5BFF35F8F7F
:108660001D7EEDB2012D00F0BB80AF4E138BBFF32A
:108670005F8F231801EB83031D7E022D00F0CE8057
:10868000231801EB83031D7E032D05D19B7E1BB1B7
:108690007379002B40F01A81938896F904C043F453
:1086A00080639380231801EB83031B7E01336345B2
:1086B0000AD1B37900257571002B40F08A802044DF
:1086C00001EB800000234375BDE8F081964E17F062
:1086D000040F96F904C04DD117F0400700F0B280A6
:1086E000178A1D6AFFB205F80C705FFA8CF56F1CD3
:1086F00093F818E07BB2DF1CBE4533719C4600F056
:108700000981271801EB87073F7EBB42CAD105F1DB
:10871000020C4FFA8CFC86F804C0C3E71588824E21
:1087200025F400652D042D0C1580158845F4806511
:1087300015809D7E00273771002D3DD07579002D65
:1087400037D0231801EB830301251B7E7571022BA3
:1087500003D1138843F400631380231801EB8303D0
:108760009B7D43F001031382204401EB8000037ED4
:10877000BDE8F0819F7E75794FF0010E86F806E026
:10878000002F5CD0002D78D1231801EB83035B7E92
:10879000002B00F0A48013880CF1010C4FFA8CFC24
:1087A00043F4007386F804C013801388DF05FCD4FB
:1087B00078E7DB7DFF2BC4D0231801EB83039D7D7D
:1087C00005F0FE051582DB7DFF2BCDD0FF23337135
:1087D000CAE7938823F440731B041B0C93806EE755
:1087E0009B7E514E002B3FF441AF7379002B3FF439
:1087F0003DAF138823F480631B041B0C1380BFF36D
:108800005F8F138B1388B57143F4007313809388C3
:1088100096F904C043F48063938043E79B7E002B6A
:108820003FF42EAF7379002B3FF42AAF138896F9EB
:1088300004C023F480631B041B0C138016E0002D7E
:10884000A2D0A8E72D067FF52DAFBCF1FF3F6DD07C
:10885000DD6915F80C5015820CF1010C1D7E4FFAE4
:108860008CF39D429C4633717FF41CAF938823F4B4
:1088700080631B041B0C938014E71F7ED3F82080B9
:108880005FFA8CF5AE44022F4FFA8EFE17882DD971
:1088900027F480673F043F0C1780178AFFB208F85F
:1088A0000C701788D3F820C047F400731380138A24
:1088B000DBB20CF80E30938805F1020C4FFA8CFCF9
:1088C00043F4806386F804C093806EE7938896F93A
:1088D00004C023F480631B041B0C9380E2E613881E
:1088E000012543F48073138075715EE747F40077C8
:1088F0001780178AFFB208F80C70178AD3F8208007
:1089000005F1030C4FFA8CFCFBB286F804C008F8A2
:108910000E304AE7978827F480673F043F0C978022
:10892000EFE600BF4C1D0020E0170020DD7D158222
:108930009D7E37711DB91B7E002B7FF415AF938888
:1089400023F480631B041B0C93800DE72DE9F04F8B
:1089500087B0A94A02904068038823F040031B04B3
:108960001B0C0380038823F038031B0490424FEA5A
:10897000134300F03F8102F5806290420CBF302229
:10898000382213430380029B02889B6842F0400216
:10899000028013B11A689B885383838940F2E933BC
:1089A00002E0002B00F090810289013B12F0020FDF
:1089B0009BB2F6D06B23838140F2E93302E0002BB7
:1089C00000F082810289013B12F0010F9BB2F6D0C8
:1089D0008389838940F2E93302E0002B00F0718142
:1089E0000289013B12F0020F9BB2F6D080238381F3
:1089F00040F2E93302E0002B00F063810289013B81
:108A000012F0010F9BB2F6D08389029B9B6813B1D1
:108A10001A689B8813830623784CDFF8EC81DFF813
:108A2000ECA1774D774E04939623DFF8E4C10193D0
:108A30004FF0100EDAF80430C3F30803002B40F0B7
:108A4000B280EFF31183002B40F0AD802068AA685C
:108A500023689842FAD133689A42F7D8D8F8007060
:108A60004FF47A7101FB07F39B1AB3FBF7F301FB99
:108A700000304FF47A774FF00109DAF80430C3F38D
:108A80000803002B70D1EFF31183002B6CD1236806
:108A9000A96822689342FAD132689142F7D8D8F88F
:108AA000002007FB02FBABEB0101B1FBF2F107FB7E
:108AB00003131B1AB3F57A7FDFD3019B013B0193AC
:108AC000B8D1029B9B6813B11A689B885383029BA1
:108AD000586840F2E933828902E0002B00F085807B
:108AE0000289013B12F0020F9BB2F6D0F52383817D
:108AF00040F2E93301E0002B77D00289013B12F00C
:108B0000010F9BB2F7D08389838940F2E93301E0FA
:108B1000002B67D00289013B12F0020F9BB2F7D005
:108B2000FF23838140F2E93301E0002B5AD0028910
:108B3000013B12F0010F9BB2F7D08389DBB20393A4
:108B4000029B9A6812B1136891881983039B682B62
:108B500060D0049B013B13F0FF0304937FF464AFE8
:108B6000184607B0BDE8F08FEFF311818EF312883D
:108B7000D5F808B02B68DB0344BFCCF80090D5F8DB
:108B800008B02368DCF80020C9B281F31188D8F856
:108B90000010134407FB01F2A2EB0B02B2FBF1F24F
:108BA00007FB032385E7EFF311838EF31288AF6889
:108BB0002A68D20303D50122CCF80020AF682068D0
:108BC000DCF80090DBB283F31188D8F800104FF482
:108BD0007A72484402FB01F3DB1BB3FBF1F302FBA7
:108BE000003046E711F04AFBAAE711F047FB029B71
:108BF000586889E73022C4E600380040D8B9002020
:108C000010E000E0E0B90020DCB9002000ED00E059
:108C1000D4B9002012B1136892885A83029B586815
:108C200040F2E933828901E0002B45D00289013B03
:108C300012F0020F9BB2F7D08C23838140F2E9330C
:108C400001E0002B38D00289013B12F0010F9BB2EA
:108C5000F7D08389838940F2E9330289013B12F01E
:108C6000020F9BB215D1002BF7D111F007FB029B2D
:108C70009B6813B11A689B881383059B142B04D33C
:108C8000182B17D9543B062B14D9002007B0BDE888
:108C9000F08FFF23838140F2E93301E0002BE4D021
:108CA0000289013B12F0010F9BB2F7D08389DBB23E
:108CB0000593DCE7032054E711F0E0FA029B5868C3
:108CC000C8E711F0DBFAA0E611F0D8FA029B586869
:108CD0007FE600BFF0B5876983B0064617B13B68F1
:108CE000BA885A837069DFF8A8E08389C3244FF4F7
:108CF0007A734FF0060C6D464FF6FF710EF1010EC0
:108D000003E0013B9BB28B4220D002899207F8D549
:108D1000A3B283814FF47A7302E0A3B28B4215D0E1
:108D20000289D20703F1FF34F7D5828992B20DB1DF
:108D30002A700135BCF1000F0BD00CF1FF3CFF2471
:108D4000BEF1000FE1D09EF80040D7E711F096FA8F
:108D5000B76917B13B68BA881A839DF805009DF87A
:108D600001509DF802109DF803409DF804209DF8E5
:108D7000063041EA052143EA002342EA04220120A9
:108D8000A6F85010A6F85220A6F8543003B0F0BD53
:108D9000D06F050808B5012030F040FC174A9368F1
:108DA00003F00C03042B1ED0082B18D15168536814
:108DB000490203F03F0319D452681148B0FBF3F0A5
:108DC000C2F3881300FB03F00C4B0E4A5B68C3F33D
:108DD000014301335B00B0FBF3F0106008BD094BA9
:108DE000074A1A6008BD074B186008BDB0FBF3F0D6
:108DF0005368C3F3881300FB03F0E5E70038024033
:108E00000024F40098AF00202DE9F84F037C02689D
:108E10001F2B86BF203B51681168202202FA03F302
:108E20000B4214BF012300230BB9BDE8F88F45693D
:108E3000DFF8889104460DF00FFF4FF4867303FBB3
:108E4000059306465A7C002A30D157495A6809785A
:108E50001768C1B9D3F8801058890A6822F0010256
:108E60000A60BB8923EA0003BB81504B1B78002BAF
:108E700030D1237C21681F2B11D8202202FA03F362
:108E80008B60BDE8F88F5269136823F0010313600B
:108E9000BB8923F480731B041B0CBB81E5E7203BDB
:108EA000202202FA03F3CB60BDE8F88FD3F880608C
:108EB0003F485F8901229A7431685A6803681568CF
:108EC00021F001013160AA89013322EA0702AA8157
:108ED0000360CEE74FF4867A0AFB05FA09EB0A0530
:108EE000D5F88080404630F031FB01236B74D5F813
:108EF00084B00DF0B1FE3B88CBF82C0123F0800349
:108F00001B044FF0FF321B0C3B80FA623B880AF1D6
:108F1000340143F080033B804944384630F0D6FBAF
:108F2000D5E915702B6CD5F850C0D5E917123B4325
:108F300003430B4313436A6E6F6FD8F800001D495B
:108F40001343AA6E1343AA6F3B43014013430B43E1
:108F50000022EA64C8F80030D5E91B30D8F81410B4
:108F6000D5F880206F6C21F0070103430B43A86CF8
:108F700095F87C10C8F81430C8F804C0C8F8087018
:108F8000C8F80C0051606B68116818686D8941F071
:108F90000101116083892B4383810DF05DFE064B37
:108FA000801B186065E700BF681900106419001085
:108FB0009C4E00203F801CF0140600109CD2002024
:108FC00008B5064B186838B110F034FA044B9B789A
:108FD00013B180F00100C0B208BD00BF481D0020E1
:108FE0005C60002008B541F0E7F92EF0D5FF1B20AA
:108FF0000EF00CF918B1232200238271C3713FF0E7
:109000005DFA18B1232200238271C371094B9B784A
:10901000012B01D0012008BD074B084A03F12001B4
:1090200003F14C00136040F0C7FF054B002083F8AC
:10903000230008BD98AD002088010020DC6C0020D2
:1090400000ED00E0074A084B10781B78074A83427E
:1090500096BFC31AC3F1800300201268184410445D
:10906000704700BF983D0020143D0020103D0020B7
:10907000064A074B10781B7883428ABFC3F18003EE
:10908000C01AC018C0F17F00704700BF983D002093
:10909000143D0020064808B54368DB68984705483A
:1090A0000549064A002303700B70136008BD00BF1A
:1090B000CCC50020983D0020143D0020103D00202C
:1090C00010B582B00C46C22301A98DF804308DF88A
:1090D00005403FF01FFC024B1C6002B010BD00BFFA
:1090E000A40E00202DE9F04F85B0CDE9020383B333
:1090F0000D4617461E46DFF86CB0DFF86CA0DFF8AF
:109100006C9001E0361B28D0DBF80020DAF8001064
:10911000B5FBF2F802FB1853F418944294BFC3EB6A
:109120000404C3EB020488452544414605D001935D
:10913000029B1868FFF7C4FF019B09EB4810194612
:1091400043683A46D3F824802346C0472744002882
:10915000D8D1002005B0BDE8F08F039805B0BDE878
:10916000F08F00BF30C60020A40E0020F0C5002004
:109170000E4B70B51A680E4D0E4E2B680C46B1FBA7
:10918000F3F1914231600E4605D00068FFF798FF79
:109190002B68B4FBF3F1084800EB461003FB1141C8
:1091A0004368BDE870401B69184700BFA40E00204B
:1091B00030C60020E0170020F0C500202DE9F04166
:1091C0000B4D0C4C16461F46FFF7D2FF286804EBE8
:1091D00040103A46436831465B6998472B6804EB78
:1091E000431420466368BDE8F0419B69184700BFFF
:1091F000E0170020F0C500202DE9F0410E4E336845
:10920000002B17DD0D4DDFF8388007460024D8F815
:109210000030A342214604F1010402D03868FFF770
:109220004FFF6B682846DB6898473368A34205F117
:109230002005ECDCBDE8F081ECC50020F0C5002085
:10924000A40E00200D4B70B51A680D4D0C462B680E
:10925000B1FBF3F191420E4605D00068FFF730FFF5
:109260002B68B4FBF3F1074800EB461003FB1141F8
:109270004368BDE870409B68184700BFA40E0020FB
:1092800030C60020F0C500202DE9F0410F4E3368B4
:10929000002B18DD0E4C0F4F80460025637F63B115
:1092A0003B68AB42294603D0D8F80000FFF708FF1F
:1092B000636820461B68984730B133680135AB427C
:1092C00004F12004EADC0120BDE8F081ECC50020B7
:1092D000F0C50020A40E0020F8B5074C05460F4647
:1092E000266803E023689B1BBB4204D82846FFF78F
:1092F000CBFF0028F6D0F8BDD8B90020034843685A
:1093000013B19B6A03B1184701487047CCC50020D0
:10931000D86F05082DE9F04784B0FFF7EFFF8568A7
:10932000ED0A1BD0DFF840800026C14604AFD8F814
:109330000430AC196410D3F824A0E10210236A466B
:109340004846D0470F2809DD6B4653F8042B0132FD
:1093500008D19F42F9D12546B542E8DCE80204B0C5
:10936000BDE8F087661CF7E7CCC500202DE9F04F7B
:1093700087B04FEA820A0491CDE9013000220B4602
:10938000514453F8040B8B420244FAD1019B0592DD
:109390002BB9424843681B689847002863D0FFF701
:1093A000ADFF43880393059B002B4AD03C4B029AA8
:1093B0003A4E1B68DDF814B092440399B3FBF1F9FF
:1093C00001FB193303EB0B028A428CBFA1EB0309AB
:1093D000D946FFF793FF324B196883688B4248D90F
:1093E00073682E481B6998477168029C049D4F461C
:1093F000AC4655F8043B30461A468BB1D4F800E031
:10940000D1F81480BB4271461FD2C04755F8042CD6
:1094100023687168134423600023BF1A45F8043C95
:1094200004345445E4D18B69304698471C4A13688C
:109430004B441360019AABEB090B3AB3BBF1000F3D
:10944000BBD1059807B0BDE8F08F4346E0463A46E9
:1094500098472268D8F8003071683A44DF1B2260D0
:10946000C8F80070DFE7019B0593059807B0BDE8D9
:10947000F08F05980B490C4AA0EB0B00059005985E
:1094800000230B70137007B0BDE8F08F059BA3EBB2
:109490000B030593059807B0BDE8F08FCCC50020FD
:1094A000103D0020983D0020143D002070B5104D67
:1094B000104E2B7831788B4284B016D00E4A03922E
:1094C0001A4402928CBF0C46CA1A04A98CBFC3F17D
:1094D00080020024012341F8102D02A802220194E9
:1094E000FFF744FF002333702B7004B070BD00BF42
:1094F000143D0020983D0020183D002010B5FFF7D6
:10950000FDFE836803B910BDFFF704FF0446FFF7B3
:10951000CDFF014B1C6010BD103D00202DE9F04136
:10952000054614460F46FFF7E9FE83682A199A425A
:1095300003D9FFF7E3FE8468641BFFF7B7FF054814
:1095400046682346746A3A462946A446BDE8F04177
:10955000604700BFCCC5002070B5194C194D237869
:109560002978994284B027D0174A03921A4402926C
:1095700034BF0E46CA1A04A934BFC3F180020026C4
:10958000002341F8102D02A802220196FFF7EEFEFB
:1095900023781844C0B203062B7848BF80F08000BF
:1095A0008342207002D0002004B070BD002301204F
:1095B0002B70237004B070BD012004B070BD00BFDB
:1095C000143D0020983D0020183D002008B5FFF70D
:1095D00095FE8068003018BF012008BD08B5FFF770
:1095E0008DFE806800B908BD024843681B68984733
:1095F00008BD00BFCCC500200388174A23F04003F4
:109600001B041B0C0380038823F038031B049042C7
:109610004FEA13431DD002F58062904219D0B1F594
:10962000807FA8BF4FF480710229B8BF02210029B2
:1096300091FAA1F1B1FA81F108BF4FF0FF31013980
:1096400043EAC10189B20180038843F040030380EB
:1096500070474908E3E700BF003800401378A3B122
:109660001D2812DC70B41E24084E14FB0101151ACB
:109670002819314401E0824205D001F8013F12F877
:10968000013F002BF7D170BC704770472F2300209B
:109690002DE9F84FDFF8C88298F8003003B1FEE7F3
:1096A000A94FAA4A7B6812881C88A94E24F040045E
:1096B00024040125240C88F800501C801D8825F006
:1096C00038052D04B3424FEA154500F0DD81A14C69
:1096D000A34200F0D981B2F5807FA8BF4FF4807219
:1096E000022AB8BF0222002A92FAA2F2B2FA82F249
:1096F00008BF4FF0FF32013A45EAC20292B21A8027
:109700001C88BA6844F040041C8012B11468928826
:109710006283914A8B46998901211170044640F277
:10972000E93202E0002A00F0B1811989013A11F012
:10973000020F92B2F6D000229A8140F2E93202E0A2
:10974000002A00F0A3811989013A11F0010F92B2A9
:10975000F6D09A899A8940F2E93202E0002A00F0B4
:10976000AE811989013A11F0020F92B2F6D00022AF
:109770009A8140F2E93202E0002A00F0A0811989C2
:10978000013A11F0010F92B2F6D09A899A8940F20B
:10979000E93202E0002A00F08D811989013A11F0C6
:1097A000020F92B2F6D009229A8140F2E93202E029
:1097B000002A00F07F811989013A11F0010F92B25D
:1097C000F6D09A899A8940F2E93202E0002A00F044
:1097D0006C811989013A11F0020F92B2F6D0A4B24D
:1097E0009C8140F2E93202E0002A00F05E81198992
:1097F000013A11F0010F92B2F6D09A89574E0BF14F
:10980000FF3B00254FF00A0A4FF00B099A8940F2FE
:10981000E93202E0002A00F018811989013A11F0BA
:10982000020F92B2F6D0A3F80CA040F2E93202E0A7
:10983000002A00F00A811989013A11F0010F92B251
:10984000F6D09A899A8940F2E93202E0002A00F0C3
:1098500006811989013A11F0020F92B2F6D0AAB22C
:109860009A8140F2E93202E0002A00F0F88019897A
:10987000013A11F0010F92B2F6D09A899A891BF839
:10988000014F40F2E93202E0002A00F0ED80198930
:10989000013A11F0020F92B2F6D0A3F80C9040F208
:1098A000E93202E0002A00F0DF801989013A11F064
:1098B000010F92B2F6D09A899A8940F2E93202E019
:1098C000002A00F0C7801989013A11F0020F92B204
:1098D000F6D0A4B29C8140F2E93202E0002A00F006
:1098E000B9801989013A11F0010F92B2F6D09A8924
:1098F000326832B1116892884869024214BF4A83C3
:109900000A830135362D81D19A8940F2E93202E08D
:10991000002A00F0C5801989013A11F0020F92B2B5
:10992000F6D008229A8140F2E93202E0002A00F0E3
:10993000B7801989013A11F0010F92B2F6D09A89D5
:109940009A8940F2E93210E040AF0020A00E0020DA
:1099500000380040003C004016390020A4B9002027
:1099600015390020002A00F096801989013A11F07B
:10997000020F92B2F6D0A0229A8140F2E93202E0C0
:10998000002A00F088801989013A11F0010F92B283
:10999000F6D09A89A02500249A8940F2E93201E0A4
:1099A000002A66D01989013A11F0020F92B2F7D05D
:1099B0009D8140F2E93201E0002A5AD01989013A2A
:1099C00011F0010F92B2F7D09A899A8940F2E932E8
:1099D00001E0002A52D01989013A11F0020F92B227
:1099E000F7D09C8140F2E93201E0002A46D0198983
:1099F000013A11F0010F92B2F7D09889C0B28206F5
:109A0000CAD4BA6812B1116892880A831A882E499A
:109A100022F040021204120C1A801A8822F0380236
:109A200012048B424FEA124205D001F580618B424D
:109A300018BF42F008021A801A88002142F0400242
:109A40001A8088F80010BDE8F88F184610F016FC50
:109A50007B68F7E6184610F011FC7B6848E718466B
:109A600010F00CFC7B6809E7184610F007FC7B68D7
:109A700022E7184610F002FC7B68A6E7184610F0B3
:109A8000FDFB7B68C0B2BAE7520824E6184610F026
:109A9000F5FB7B685EE6184610F0F0FB7B6879E723
:109AA000184610F0EBFB7B684AE7184610F0E6FB1F
:109AB0007B68A3E6184610F0E1FB7B6882E6184657
:109AC00010F0DCFB7B6861E60038004030B5214DCA
:109AD0006B6883B09A8940F2E93200E06AB31C896E
:109AE000013A14F0020F92B2F8D080B2988140F29D
:109AF000E93200E00AB31889013A10F0010F92B27E
:109B0000F8D09A899A8940F2E93200E0E2B11889E6
:109B1000013A10F0020F92B2F8D089B2998140F266
:109B2000E93200E082B11989013A11F0010F92B2D5
:109B3000F8D09889C0B203B030BD1846019110F03A
:109B40009DFB6B680199DDE7184610F097FBC0B2EA
:109B500003B030BD40AF002008B5838940F2E9333F
:109B600000E0A3B10289013B12F0020F9BB2F8D0D2
:109B700089B2818140F2E93300E043B10289013BBF
:109B800012F0010F9BB2F8D08089C0B208BD10F06E
:109B900075FBC0B208BD00BF38B504460D4600BF16
:109BA00080680DF0DBFE29466068FFF7D5FFA068EE
:109BB0000DF0D9FE00BF38BD2DE9F84FDFF8D48293
:109BC000B04BD8F804001B880288AF4922F040024D
:109BD0001204120C0280028822F038021204884219
:109BE0004FEA124200F0B18201F58061884200F034
:109BF000AC82B3F5807FA8BF4FF48073022BB8BF4F
:109C00000223002B93FAA3F3B3FA83F308BF4FF0B8
:109C1000FF33013B42EAC3039BB203800388D8F8B9
:109C2000082043F04003038012B1136892885A83DE
:109C3000838940F2E93302E0002B00F0C1820289FF
:109C4000013B12F0020F9BB2F6D00523838140F254
:109C5000E93302E0002B00F0B3820289013B12F0ED
:109C6000010F9BB2F6D08389838940F2E93302E089
:109C7000002B00F0A0820289013B12F0020F9BB280
:109C8000F6D00023838140F2E93302E0002B00F09C
:109C900092820289013B12F0010F9BB2F6D08389B8
:109CA000838940F2E93302E0002B00F09D820289B3
:109CB000013B12F0020F9BB2F6D00623838140F2E3
:109CC000E93302E0002B00F08F820289013B12F0A1
:109CD000010F9BB2F6D08389838940F2E93302E019
:109CE000002B00F07C820289013B12F0020F9BB234
:109CF000F6D00023838140F2E93302E0002B00F02C
:109D00006E820289013B12F0010F9BB2F6D083896B
:109D100083895E4BDC7940F2E93344F0010402E0D0
:109D2000002B00F057820289013B12F0020F9BB218
:109D3000F6D00423838140F2E93302E0002B00F0E7
:109D400049820289013B12F0010F9BB2F6D0838950
:109D5000838940F2E93302E0002B00F03682028969
:109D6000013B12F0020F9BB2F6D0A4B2848140F204
:109D7000E93302E0002B00F028820289013B12F057
:109D8000010F9BB2F6D08389414E3388002B4BD014
:109D9000DFF80491DFF804A14F4607254FF0200BB0
:109DA0001AF8014F8389FF2C40F2E93303D1A2E175
:109DB000002B00F0D1810189013B11F0020F9BB211
:109DC000F6D0858140F2E93302E0002B00F0C48137
:109DD0000189013B11F0010F9BB2F6D08389838981
:109DE00040F2E93302E0002B00F0B1810189013B30
:109DF00011F0020F9BB2F6D0A4B2848140F2E93395
:109E000002E0002B00F0A3810189013B11F0010F5A
:109E10009BB2F6D083899AF8003007F8013B31886D
:109E2000A7EB09039942BBDC838940F2E93302E0E6
:109E3000002B00F0ED810289013B12F0020F9BB272
:109E4000F6D00723838140F2E93302E0002B00F0D3
:109E5000DF810289013B12F0010F9BB2F6D08389AA
:109E6000838940F2E93302E0002B00F0CC810289C3
:109E7000013B12F0020F9BB2F6D0FF23838140F228
:109E8000E93310E0A00E002000380040E017002069
:109E90004C03002040AF0020E81700202F230020B3
:109EA000002B00F0B0810289013B12F0010F9BB240
:109EB000F6D08389AD4BDC79838940F2E93302E047
:109EC000002B00F09B810289013B12F0020F9BB234
:109ED000F6D00423838140F2E93302E0002B00F046
:109EE0008D810289013B12F0010F9BB2F6D083896C
:109EF000838940F2E93302E0002B00F07A81028985
:109F0000013B12F0020F9BB2F6D0A4B2848140F262
:109F1000E93302E0002B00F06C810289013B12F072
:109F2000010F9BB2F6D083893388002B00F0BF80ED
:109F3000DFF840920024FF27072503E00134A34205
:109F400040F3B58019F80420FF2AF7D183894FEA3E
:109F5000242A40F2E93302E0002B00F02781028935
:109F6000013B12F0020F9BB2F6D00523838140F231
:109F7000E93302E0002B00F019810289013B12F065
:109F8000010F9BB2F6D08389838940F2E93302E066
:109F9000002B00F006810289013B12F0020F9BB2F8
:109FA000F6D01FFA8AFAA0F80CA040F2E93302E0DA
:109FB000002B00F0F6800289013B12F0010F9BB2EA
:109FC000F6D0838983895FFA84FA40F2E93302E0AC
:109FD000002B00F0E1800289013B12F0020F9BB2DE
:109FE000F6D00623838140F2E93302E0002B00F033
:109FF000D3800289013B12F0010F9BB2F6D0838916
:10A00000838940F2E93302E0002B00F0C08002892E
:10A01000013B12F0020F9BB2F6D01FFA8AFAA0F8A9
:10A020000CA040F2E93302E0002B00F0B08002897E
:10A03000013B12F0010F9BB2F6D08389838940F275
:10A04000E93302E0002B00F09D800289013B12F011
:10A05000020F9BB2F6D0858140F2E93302E0002B7B
:10A0600000F090800289013B12F0010F9BB2F6D004
:10A070008389838940F2E93301E0002B7CD0028997
:10A08000013B12F0020F9BB2F7D0878140F2E93317
:10A0900001E0002B70D00289013B12F0010F9BB24E
:10A0A000F7D0838933880134A3423FF74BAFD8F808
:10A0B000083013B11A689B88138303882C4A23F055
:10A0C00040031B041B0C0380038823F038031B048C
:10A0D00090424FEA134305D002F58062904218BFC8
:10A0E00043F008030380038843F040030380BDE886
:10A0F000F88F002B35D00189013B11F0020F9BB284
:10A10000F7D0858140F2E93300E053B30189013B88
:10A1100011F0010F9BB2F8D08389838940F2E933B3
:10A1200000E0A3B10189013B11F0020F9BB2F8D00E
:10A13000A0F80CB040F2E93300E043B10189013BE3
:10A1400011F0010F9BB2F8D064E65B0851E510F006
:10A1500095F8D8F804005EE610F090F8D8F80400FE
:10A160003DE610F08BF8D8F80400D6E7E0170020A1
:10A17000003800403023002010F080F83388D8F8F1
:10A180000400DBE610F07AF8D8F8040071E710F06C
:10A1900075F8D8F8040051E710F070F8D8F804000A
:10A1A0002EE710F06BF8D8F804000BE710F066F813
:10A1B000D8F80400E8E610F061F8D8F804006FE57C
:10A1C00010F05CF8D8F804004EE510F057F8D8F815
:10A1D0000400D9E510F052F8D8F80400B8E510F002
:10A1E0004DF8D8F8040093E510F048F8D8F80400CA
:10A1F00072E510F043F8D8F8040095E610F03EF848
:10A20000D8F8040074E610F039F8D8F8040051E6E4
:10A2100010F034F8D8F8040022E600BF2DE9F0472A
:10A22000B24CB34F606839880388B24D23F04003C5
:10A230001B041B0C0380028822F038021204A8427F
:10A240004FEA124204D0AC4B984201D00B4600E0DA
:10A250004B08B3F5807FA8BF4FF48073022BB8BFC3
:10A260000223002B93FAA3F3B3FA83F308BF4FF052
:10A27000FF33013B42EAC3039BB203800388A26819
:10A2800043F04003038012B1136895885D839B4BB4
:10A290001B78012B00F09B81C0F05581022B00F050
:10A2A0001581DFF8748298F8003013F0400F0CBF6E
:10A2B0004FF4C37C4FF4F07C0388914E914DA6F887
:10A2C00000C023F040031B041B0C0380894BB0F833
:10A2D00000E04FF0010C98421FFA8EFE85F868C02E
:10A2E00000F02F8103F58063984200F02A81B1F5D8
:10A2F000807FA8BF4FF480710229B8BF02210029D6
:10A3000091FAA1F1B1FA81F108BF4FF0FF312EF0BF
:10A310003803013943EAC1018BB20380038843F05B
:10A320004003038012B1136892885A834FF01009DA
:10A330004FF0010A838940F2E93302E0002B00F07C
:10A34000CD800289013B12F0020F9BB2F6D01FFABA
:10A3500089F3838140F2E93302E0002B00F0BE80F4
:10A360000289013B12F0010F9BB2F6D083898389E9
:10A3700040F2E93302E0002B00F0B4800289013B97
:10A3800012F0020F9BB2F6D0A0F80CA040F2E93315
:10A3900002E0002B00F0A6800289013B12F0010FC1
:10A3A0009BB2F6D0838909F10109B9F1200FC1D11F
:10A3B000A16811B10B688A881A8303884D4A23F07B
:10A3C00040031B041B0C0380038823F038031B0489
:10A3D00090424FEA134300F0A18002F58062904260
:10A3E00000F09C8043F00803038002883B8842F021
:10A3F00040020280028822F040021204120C028005
:10A40000028822F038021204120CB3F5807FA8BF34
:10A410004FF48073022BB8BF0223002B93FAA3F3EF
:10A42000B3FA83F308BF4FF0FF33013B42EAC303A3
:10A430009BB20380038843F04003038011B10B6893
:10A440008A885A8398F800100020FFF73FFB2E4BB4
:10A4500002201978FFF73AFB2C4B03201978FFF7FD
:10A4600035FB2B4BD97904200143FFF72FFBA36861
:10A4700013B11A689B88138361681E4A0B8823F006
:10A4800040031B041B0C0B800B8823F038031B04B8
:10A4900091424FEA134305D002F58062914201D008
:10A4A00043F008030B800B8832881A4843F04003BE
:10A4B0000B8000214CF038FD95F8693023B1FFF78F
:10A4C0007BFB002385F86930BDE8F087DFF8488022
:10A4D000082388F800304FF4C37CEDE60FF0CEFE81
:10A4E000606844E70FF0CAFE60685CE740AF002098
:10A4F000A00E002000380040003C00408CAF00203F
:10A500004C0300208801002093AF002094AF00206E
:10A51000E0170020E817002068030020038003886C
:10A5200043F04003038002883B8822F0400212047B
:10A53000120C0280028822F038021204120C5B080E
:10A5400063E74908D3E6838940F2E93301E0002B51
:10A550004ED00289013B12F0020F9BB2F7D0A0232C
:10A56000838140F2E93301E0002B41D00289013BB5
:10A5700012F0010F9BB2F7D08389838940F2E9334F
:10A5800000E08BB30289013B12F0020F9BB2F8D0BE
:10A590000023838140F2E93300E02BB30289013BC1
:10A5A00012F0010F9BB2F8D08389D8B200F00603F5
:10A5B000022BDFF844803988A26803D000F005033D
:10A5C000012B0CD00823606888F8003083E7DFF89F
:10A5D0002880482388F800304FF4F07C6CE648234C
:10A5E000606888F80030F7E70FF048FEC0B2DDE79A
:10A5F0000FF044FE6068C0E7680300202DE9F843CF
:10A60000A04CA14D63682A881988A04821F0400118
:10A610000904090C1980198821F0380109048342C2
:10A620004FEA114100F08C8000F58060834200F019
:10A630008780B2F5807FA8BF4FF48072022AB8BF2E
:10A640000222002A92FAA2F2B2FA82F208BF4FF076
:10A65000FF32013A41EAC20292B21A801A88A16816
:10A6600042F040021A8011B10A68898851839A89A0
:10A6700040F2E93201E0002A6DD01989013A11F067
:10A68000020F92B2F7D080229A8140F2E93201E0C3
:10A69000002A60D01989013A11F0010F92B2F7D067
:10A6A0009A899A8940F2E93201E0002A4DD019894D
:10A6B000013A11F0020F92B2F7D000229A8140F2D3
:10A6C000E93201E0002A40D01989013A11F0010F66
:10A6D00092B2F7D09889C0B2A26812B1116892887C
:10A6E0000A831A88694922F040021204120C1A8067
:10A6F0001A8822F0380212048B424FEA124205D027
:10A7000001F580618B4201D042F008021A801A885C
:10A710005F4E604F42F040021A803278D7F80080D6
:10A7200082420FD15C4A127842B9DFF87891D9F8A9
:10A73000E821A8EB0202B2F57A7F11D8BDE8F883D0
:10A74000520876E7BDE8F84368E518460FF096FD35
:10A750006368C0B2C0E718460FF090FD6368A0E7D9
:10A7600018462988FEF748FFA36813B11A689B882A
:10A770005383636840F2E932998901E0002A79D075
:10A780001989013A11F0020F92B2F7D0A0229A81F2
:10A7900040F2E93201E0002A6CD01989013A11F047
:10A7A000010F92B2F7D09A899A8940F2E93201E01A
:10A7B000002A59D01989013A11F0020F92B2F7D04C
:10A7C00000229A8140F2E93201E0002A4CD0198936
:10A7D000013A11F0010F92B2F7D09A89D5B2A2686E
:10A7E00012B1116892880A832C4C18460421FEF796
:10A7F00003FF2378192B0CD13378294A03F0400347
:10A80000002B05F007010CBF0D2010201380518094
:10A81000D080690706D50023C9F8EC31C9F8E88172
:10A82000BDE8F88305F00505012D19D0002DF5D1FF
:10A8300033785B06F2D5D9F8EC213B68FAB19B1A64
:10A84000642BEBD9FFF7EAFC2378192BE6D1B9F892
:10A85000F031134A01339BB2A9F8F0319380DDE760
:10A8600033785A06E7D5D9E718460FF007FD636835
:10A87000C5B2B4E718460FF001FD636894E7C9F864
:10A88000EC31CBE740AF0020A00E002000380040A4
:10A8900068030020D8B900208CAF002081AF0020D1
:10A8A00084AF0020E01700200E4B10B41C888CB140
:10A8B0000D4B0E4A1878117A88420FD11C44083289
:10A8C000013305E013F8011B12F8010F884205D18E
:10A8D000A342F7D101205DF8044B704700205DF8DA
:10A8E000044B70474C03002030230020E017002069
:10A8F00070B5514DC1F1030141EA800695F8683009
:10A90000F6B2B34200F08D804C4C4D4B60681B8812
:10A9100002884C4985F8686022F040021204120C4B
:10A920000280028822F03802120488424FEA124262
:10A9300078D001F58061884274D0B3F5807FA8BFDC
:10A940004FF48073022BB8BF0223002B93FAA3F3BA
:10A95000B3FA83F308BF4FF0FF33013B42EAC3036E
:10A960009BB203800388A26843F04003038012B1C6
:10A97000136892885A83B6B21025838940F2E9336E
:10A9800001E0002B54D00289013B12F0020F9BB270
:10A99000F7D0ABB2838140F2E93301E0002B47D01E
:10A9A0000289013B12F0010F9BB2F7D083898389A2
:10A9B00040F2E93301E0002B36D00289013B12F06E
:10A9C000020F9BB2F7D0868140F2E93300E05BB31F
:10A9D0000289013B12F0010F9BB2F8D08389013547
:10A9E000202DCAD1A36813B11A689B8813830388EA
:10A9F000144A23F040031B041B0C0380038823F03C
:10AA000038031B0490424FEA134305D002F58062DD
:10AA1000904218BF43F008030380038843F04003CB
:10AA2000038070BD5B0888E70FF028FC6068D6E7FC
:10AA30000FF024FC6068BAE78801002040AF0020D6
:10AA4000A00E00200038004070B5554BDD7900287D
:10AA500000F0998045F00805524EDD7196F86A3095
:10AA6000AB4200F08F80504B504C1A885048002168
:10AA70004CF05AFA60684F4B02881B884E4986F8A2
:10AA80006A5022F040021204120C0280028822F066
:10AA90003802120488424FEA124277D001F58061F1
:10AAA000884273D0B3F5807FA8BF4FF48073022B28
:10AAB000B8BF0223002B93FAA3F3B3FA83F308BFC2
:10AAC0004FF0FF33013B42EAC3039BB2038003888C
:10AAD000A26843F04003038012B1136892885A833E
:10AAE000838940F2E93301E0002B51D00289013B18
:10AAF00012F0020F9BB2F7D00423838140F2E933B6
:10AB000001E0002B44D00289013B12F0010F9BB2FF
:10AB1000F7D08389838940F2E93301E0002B3BD0F1
:10AB20000289013B12F0020F9BB2F7D0ADB28581D2
:10AB300040F2E93300E07BB30289013B12F0010FE0
:10AB40009BB2F8D08389A36813B11A689B881383DA
:10AB50000388194A23F040031B041B0C038003885D
:10AB600023F038031B0490424FEA134305D002F54B
:10AB70008062904218BF43F008030380038843F0CB
:10AB80004003038070BD05F0F70565E75B0889E7C2
:10AB90000FF074FB6068BDE70FF070FB6068D2E7F0
:10ABA000E0170020880100204C03002040AF002067
:10ABB000E8170020A00E002000380040F8B5848976
:10ABC0004FF6FF764FF47A7433B319B30F7801312F
:10ABD00001E0B44218D00589013CAD07A4B2F8D514
:10ABE000BCB284814FF47A7402E0BCB2B4420BD0A0
:10ABF0000589ED0704F1FF37F7D58589ADB20AB1B4
:10AC000015700132013BDFE70FF038FB003018BF51
:10AC10000120F8BDFF27DEE70120F8BD30B5437FF6
:10AC200083B004461BB90120637703B030BD052310
:10AC3000ADF80430056800BFA8680CF08FFE6A46C6
:10AC400001A902236868FFF7B9FFA8680CF08BFE22
:10AC500000BF9DF8013003F0010383F0010063772A
:10AC600003B030BDF8B5074C05460F46266803E033
:10AC700023689B1BBB4204D82846FFF7CFFF002860
:10AC8000F6D0F8BDD8B90020F0B5077F83B00446F0
:10AC90004FF0030C0020009016461D468DF804006E
:10ACA0008DF800C06FB30B0E8DF801300DF102036B
:10ACB000080C0A0A99701870062120465A70FFF78E
:10ACC000D1FFE0B1236800BF98680CF047FE237FF6
:10ACD0002268002B14BF0523042369465068002214
:10ACE000FFF76CFF23683246002158682B46FFF7B8
:10ACF00065FF236898680CF036FE00BF284603B055
:10AD0000F0BD0DF10103D3E7F0B5077F836983B090
:10AD100004464FF0020C002000900E4615468DF8B8
:10AD200004008DF800C0002F34D01A0E8DF80120D9
:10AD30000DEB0C02180C1F0A93701070577006214F
:10AD40002046FFF78FFF06212068FEF725FF01232D
:10AD50006377236800BF98680CF000FE237F2268A9
:10AD6000002B14BF05230423694650680022FFF717
:10AD700025FF23683146002258682B46FFF71EFF47
:10AD8000236898680CF0EFFD00BFA2692A44A26115
:10AD900003B0F0BD0DF10102CCE700BF10B41446C2
:10ADA00081611A4621465DF8044BADE710B50446B3
:10ADB00045F20821FFF756FF20680621FEF7ECFE5A
:10ADC000012363772068C721BDE81040FEF7E4BE89
:10ADD00010B5027F82B000230446D82000938DF87E
:10ADE00004308DF800002AB30B0E8DF801300DF100
:10ADF00002030A0A080C997018705A7041F28831DF
:10AE00002046FFF72FFF20680621FEF7C5FE01232D
:10AE10006377246800BFA0680CF0A0FD6946052395
:10AE200000226068FFF7CAFEA0680CF09CFD00BF1E
:10AE300002B010BD0DF10103DBE700BF2DE9F84FB3
:10AE4000524A534E01231370FFF7D8FBB6F8F22194
:10AE5000504BDFF854E1B3F8008002F1640C1FFAA4
:10AE60008CFC00234FF0050B4FF0060A4FF007094A
:10AE700002E0624500F08780B4181EF80200217AD3
:10AE8000814202F1010503F1050110D07718F11894
:10AE90002072140A81F8F4B181F8F6A181F8F72143
:10AEA00081F8F89181F8F541063387F8F401AAB2E8
:10AEB0004245DED30022A6F8F22123B9334A00230B
:10AEC0001370BDE8F88F344C344A606812880188EA
:10AED000334D21F040010904090C0180018821F063
:10AEE00038010904A8424FEA11414AD005F58065AE
:10AEF000A84246D0B2F5807FA8BF4FF48072022AE4
:10AF0000B8BF0222002A92FAA2F2B2FA82F208BF75
:10AF10004FF0FF32013A41EAC20292B20280028847
:10AF2000A16842F04002028011B10A688988518309
:10AF300000221C49FFF742FEA36813B11A689B88E0
:10AF4000138362681649138823F040031B041B0C0B
:10AF50001380138823F038031B048A424FEA1343FB
:10AF600005D001F580618A4201D043F008031380C7
:10AF7000138843F040031380044A00231370BDE894
:10AF8000F88F5208B6E7A6F8F22196E715390020A7
:10AF9000E01700204C03002040AF0020A00E00204E
:10AFA00000380040D419002030230020134B144AED
:10AFB000196C70B541F08051124D19640126FF24BF
:10AFC000CA2053212E605462506251625B6FDB00D5
:10AFD0000DD401242046002101342EF02FFB062C35
:10AFE000F8D109490020BDE870402EF027BB0020B1
:10AFF0002EF014FB044B9842EBD170BD0038024098
:10B000000028004020000E42316665420B4A0C4B7E
:10B0100090421B6810D0A2F5806290420CD002F5DD
:10B020008042904208D002F58062904204D002F53E
:10B030008062904218BF5B081846704700040140C8
:10B0400098AF0020F0B5012085B02EF0E7FA8F4BC5
:10B050009A6822F003029A609A6812F00C0FFBD1F2
:10B060001A688A49B0B942F001021A6041F2883385
:10B0700002E0013B00F093800A689507F9D5844C03
:10B08000002108220223C4F86014C4F84C24C4F838
:10B0900050341FE042F480321A6041F2883301E0FC
:10B0A000013B7CD00A689403FAD5794C794A7A4BF3
:10B0B000B0FBF3F3B0FBF2F0B3EB400F18BF184650
:10B0C0004FF48002B3FBF0F3C4F84C04C4F85034DE
:10B0D000C4F8602402202EF0A1FA03280FD86F4B89
:10B0E000D4F8501403EBC0008588C2884388C4F8A4
:10B0F0005854B3FBF1F3C4F85C24C4F85434634BE4
:10B1000067491A6C42F080521A640A6842F440425D
:10B110000A609A689A609A6842F400429A609A6853
:10B1200042F4A0529A60D4F86004D4F84C24D4F8C5
:10B130005454D4F858140243D4F85C0442EA8512FB
:10B14000490842EA0062013942EA01425A601A683B
:10B1500042F080721A601A689201FCD551494B4A3C
:10B1600040F205700860996821F0030199609968C0
:10B1700041F002019960936803F00C03082BFAD1A7
:10B18000D4F850044849D823B3FBF0F39B0143F0B3
:10B1900000530120C2F884300860FDF7FBFD434DE9
:10B1A0003A4B434AEA604349586F434A0860AA60F1
:10B1B0005E6B424C424F434A434826F080065E6332
:10B1C0005E6F46F080765E67196B0C431C63596BAB
:10B1D0005963996B9963196C39431964596C04ACC0
:10B1E0000A4348F2FF715A6444F8101D01230026F7
:10B1F00021468DF807304FF6FF778DF804608DF803
:10B2000005608DF806602EF0FFFA21462F48009762
:10B210002EF0FAFA21462E4800972EF0F5FA214634
:10B220002C482EF0F1FA21462B482EF0EDFA21465B
:10B230002A482EF0E9FA214629482EF0E5FA21465F
:10B2400028482EF0E1FA214627482EF0DDFA204664
:10B250002EF0DEFB254B264C1B68009A254826491C
:10B26000A4FB03439B09A0FB0202013B920CB3F138
:10B27000807F0A6007D2214AF0200721536085F8B9
:10B2800023009660116005B0F0BD00BF0038024099
:10B29000E017002080841E0040420F001C77050844
:10B2A00000700040003C02406800474200ED00E0B2
:10B2B0000005FA05D0E4002000000020FF9167009F
:10B2C000FFC9FE36335F0700000002400004024061
:10B2D00000080240000C024000100240001402402E
:10B2E00000180240001C02400020024098AF0020DD
:10B2F000D34D621083DE1B43DCB9002010E000E078
:10B3000008B503202EF08AF9012800D008BD0021DD
:10B3100003202EF093F9034B1A6882F308885B68C8
:10B320009847FEE70000FF1F08B5012103202EF01B
:10B3300085F972B64AF054FAA84B1A68002800F052
:10B34000D484A749A74B2DE9F04FA1FB0212520963
:10B35000A3FB0213DB0803EB830385B0A2EB4303DB
:10B36000A14EA24C0190DAB2029206EB830AA4F13C
:10B37000200B0025236E5F680BF06EFC4FF4867384
:10B3800003FB05B3BFB29B7C03F0FF024BB9636EB6
:10B39000D3F82C31C01A04D454F8083C9842C0F2B7
:10B3A00036824FF4867303FB05B39A7C1AB95B7C33
:10B3B000002B00F06C82002F40F0768214F8101CF5
:10B3C000D4E91B23002900F09982603388499B1A35
:10B3D000A1FB0302920902EB4202A3EB4213182BDA
:10B3E00005D4173BA1FB0337FF0007F0F007D4E9B2
:10B3F0001D237F4960339B1AA1FB0302920902EBD4
:10B400004202A3EB4213182B05D4173BA1FB0323E5
:10B41000C3F343031F43D4E91F23754960339B1AC9
:10B42000A1FB0302920902EB4202A3EB4213182B89
:10B430005CBF173BA1FB0323D4E921126C4802F146
:10B440006002A2EB0102A0FB02C14FEA911101EBE5
:10B450004101A2EB411254BFC3F343030023182A56
:10B4600058BF173A43EA07175ABFA0FB0223C3F39A
:10B470004303002343EA071383EA132282EA1212EA
:10B4800002F00F020F2A40F01D82C3F30F130120B8
:10B49000032D24F80C3C04F8040C06DC554A127801
:10B4A0002F2A02D1544A22F815304FF4867202FB3B
:10B4B00005B2002796F858109774029A33689142A3
:10B4C00010D0DAF8081072685B1A3360DAF830309E
:10B4D000D21A7260CAF80870CAF83070029A3368DB
:10B4E00086F8582001333360DAF8083054F81C9C91
:10B4F0000133CAF80830D9F8008038B973680133CD
:10B500007360DAF830300133CAF83030276E3A68A9
:10B51000002322F001023A603B607B60BB60FB606D
:10B520003B61364B21229F427A6100F0D981344B36
:10B530009F4200F0A282334B9F4200F0A582324B23
:10B540009F4200F01C83314B9F4200F01D83304B23
:10B550009F4200F0B4832F4B9F4200F0B4832E4BE8
:10B560009F4200F0B48338462DF060FF4FF486739D
:10B5700003FB05B300225A7499F805100C2916D85C
:10B58000DFE811F073011500150015006A011500C0
:10B59000150015007C011500150015000D00B8F808
:10B5A0001C3023F400631B041B0CA8F81C3022463B
:10B5B000404609F0F2FD99F805300C2B38D8DFE849
:10B5C00013F04001370037003700350137003700EE
:10B5D00037002A013700370037002D00D8B9002086
:10B5E0001F85EB51CDCCCCCC40150010BCD2002037
:10B5F000ABAAAAAA81AF002084AF0020106002404D
:10B600002860024040600240586002407060024082
:10B6100088600240A0600240B8600240B8F81C3068
:10B6200023F400631B041B0C43F40063A8F81C30D4
:10B63000D4E90D12236AE06B43F040030B4313433C
:10B64000226CA16D009103431343626C616D13433F
:10B650004022E262A26C386813430B43A24A00996D
:10B6600002400B4313433B60D4E913317A69206BEA
:10B6700022F007020B431343D4E909127B6178607F
:10B68000B960FA603A684FF4867303FB05B342F081
:10B69000100200213A609974019B01359D4206F128
:10B6A0005C060AF15C0A04F586747FF463AEDBF88D
:10B6B00004209BF80E10136850798C0754BF0122A8
:10B6C0000422198C824092B221EA02011984198C59
:10B6D000012D42EA01021A8400F09880DBF8102163
:10B6E0009BF81A0113685179800754BF0122042284
:10B6F0008A40198C92B221EA02011984198C022D18
:10B7000042EA01021A8400F08180DBF81C229BF8D7
:10B710002612136850798A0754BF01220422198C1B
:10B72000824092B221EA02011984198C032D42EA67
:10B7300001021A846AD0DBF828239BF832131368BD
:10B7400050798F0754BF01220422198C824092B293
:10B7500021EA02011984198C042D42EA01021A849B
:10B7600054D0DBF834249BF83E14136850798E07CC
:10B7700054BF01220422198C824092B221EA0201B4
:10B780001984198C052D42EA01021A843ED0DBF897
:10B7900040259BF84A15136850798C0754BF012245
:10B7A0000422198C824092B221EA02011984198C78
:10B7B000062D42EA01021A8428D0DBF84C269BF8B9
:10B7C000560613685179800754BF012204228A402B
:10B7D000198C92B221EA02011984198C082D42EACF
:10B7E00001021A8412D1DBF858279BF8620713680C
:10B7F000517982074CBF042201228A40198C92B2EF
:10B8000021EA02011984198C0A431A840122104684
:10B8100005B0BDE8F08FB8F81C3023F008031B0416
:10B820001B0C43F00803A8F81C3001E7B8F81830E7
:10B8300023F400631B041B0C43F40063A8F81830C6
:10B84000F6E6B8F8183023F008031B041B0C43F08D
:10B850000803A8F81830EBE6B8F8183023F40063B2
:10B860001B041B0CA8F81830A1E6B8F8183023F018
:10B8700008031B041B0CA8F8183098E6B8F81C3015
:10B8800023F008031B041B0CA8F81C308FE654F8A7
:10B890001C9C34F8162CD9F80080B8F80C3023EA38
:10B8A0000203A8F80C3031E6182F40F2F28054F869
:10B8B0001C9CD9F8008029E60BF0CEF9039A0B4BBB
:10B8C000801A18600A4A136801331360002D40F093
:10B8D000D9808022074908484AF002F82846E4E562
:10B8E0003D2243F8082C41E63F801CF0140600106E
:10B8F000D014001028D30020180600109B1A002B2B
:10B9000040F35281D4E91D120A2BA2EB0102D4BFED
:10B9100000230123002A4FEA430340F353810A2AFC
:10B9200001DD43F00103D4E91F12521A002A4FEA45
:10B93000430340F352810A2A01DD43F00103D4E9B5
:10B940002112521A002A4FEA430340F351810A2A76
:10B9500001DD43F00103D4E92312521A002A4FEA11
:10B96000430340F350810A2A01DD43F00103D4E987
:10B970002512521A002A4FEA430340F34F810A2A44
:10B9800001DD43F00103D4E92712521A002A4FEADD
:10B99000430340F34E810A2A01DD43F00103D4E959
:10B9A0002912521A002A4FEA430340F34D810A2A12
:10B9B00001DD43F00103D4E92B12521A002A4FEAA9
:10B9C000430340F34C810A2A01DD43F00103D4E92B
:10B9D0002D12521A002A4FEA430340F34B810A2AE0
:10B9E00001DD43F00103D4E92F12521A002A4FEA75
:10B9F000430340F34A810A2A01DD43F00103D4E9FD
:10BA00003112521A002A4FEA430340F349810A2AAD
:10BA100001DD43F00103D4E93312521A002A4FEA40
:10BA2000430340F348810A2A01DD43F00103D4E9CE
:10BA30003512521A002A4FEA430340F3B1800A2A12
:10BA400001DD43F00103D4E93712521A002A4FEA0C
:10BA5000430340F3A1800A2A01DD43F00103D4E946
:10BA60003912521A002A4FEA430340F391800A2AFE
:10BA70007FF702AD43F00103FEE44FF4746243F834
:10BA8000202C73E5002010E54FF4741243F8382C95
:10BA90006CE5974A1368013313600BF0DDF80390EF
:10BAA0002046C7F1200704F1680909EB87034FF02E
:10BAB000000E50F86C2F009577464FF0010998461C
:10BAC00050F8045F8B49AA1A931DA1FB0313DB08EE
:10BAD000591E002A0EFA03FC09FA01F12A4606DD76
:10BAE000142F04D8804541EA0C0E1F44E8D1152FCD
:10BAF000009D7FF4E7AE8048CEF3842200EB820203
:10BB0000CEF3441100EB81010EF01F0300EB830321
:10BB100092698969CEF3C43E00EB8E0E12029869D9
:10BB2000DEF8183042EA0112024342EA033282EAA6
:10BB3000122383EA131313F00F077FF4BDAE13092A
:10BB400040F6FF718B4200F0C780C3F30803520B2D
:10BB500093403FF4B7AE5A0802F5122202F5F8629C
