:020000040800F2
:10000000F0FF012069000508899D03082D130208EF
:10001000E1000508E1000508E10005080000000016
:10002000000000000000000000000000959D030893
:10003000919D0308000000008D9D0308D9A20008CF
:10004000E1000508E1000508E1000508E1000508F8
:10005000E1000508E1000508B5B10008E1B20008BB
:10006000A5B2000869B200082DB2000819330108D2
:1000700009330108F9320108E9320108D5320108D3
:10008000C1320108AD320108E1000508000000009E
:10009000000000000000000000000000F1B10008B6
:1000A000B11E02089D220208E11D02082124020857
:1000B000DD2102081D21020851200208A53901088E
:1000C000AD39010899390108A1390108E100050895
:1000D000E100050851A40008B5A3000800000000D5
:1000E00079B10008E10005082DDD030800000000DB
:1000F000000000000000000000000000993201082C
:1001000000000000E1000508811F0208E100050869
:1001100000000000000000000000000000000000DF
:1001200085320108713201085D3201084932010847
:10013000353201080000000000000000000000004F
:10014000000000000000000000000000CDAD03082A
:10015000213201080D320108F931010819A3000804
:100160008D390108953901080000000000000000E9
:10017000000000000000000000000000000000007F
:1001800000000000E1000508000000000000000081
:08019000E1000508E10005088B
:0801980000FC0400010000005E
:1001A00002020300BC170020B81700200000000066
:1001B0000000000010020100C4170020C01700203A
:1001C00000000000400700081F021000D8170020A0
:1001D000C817002000000000658E00082920780064
:1001E0001C31002030320020000000000000000020
:1001F0001C021000742C0020A83200200000000017
:100200001D8C0008F6210C003C300020B832002084
:10021000000000004407000814000300342F0020F1
:1002200008330020000000005007000810100200F2
:10023000982D00200C330020000000005407000817
:1002400028101000882D002010330020000000002E
:100250004543010819000500802D002020330020AF
:100260000000000056070008F8210600782D002045
:1002700028330020000000005C07000801200C006B
:10028000E41A00203033002000000000620700085C
:100290000A702800501A00203C33002000000000A3
:1002A000E94201080EB08601C8180020643300201E
:1002B00000000000052304080101040028180020A4
:1002C000EC340020000000000000000000010400E9
:1002D00020180020F0340020000000006E07000805
:1002E000020103001C180020F4340020000000006C
:1002F0007DE402081A023C00D8370020503A002062
:1003000000000000CD98000827000400D43700202A
:100310008C3A00200000000072070008381001002D
:1003200004350020903A0020000000007607000805
:1003300022021401B04F00203C52002000000000B7
:10034000DD9900080C20CC00F84D0020505300200F
:100350000000000041E4020800020500B04D00204A
:100360001C54002000000000000000001B021000D0
:10037000844D00202454002000000000498C000817
:100380001E000600DC4A002034540020000000005B
:10039000780700081B100C00B83C00203C540020DB
:1003A000000000003D8A02082102F000383B0020D6
:1003B00048540020000000007D8302082312100032
:1003C000004F002038550020000000008007000882
:1003D000371028000C4D0020485500200000000078
:1003E000900700080E020200FC4E0020705500200D
:1003F00000000000B807000816100600983A002018
:100400007455002000000000BA0700082F102200D9
:10041000185200207C55002000000000C007000892
:10042000051006009C490020A05500200000000097
:10043000E20700081220100080490020A855002083
:1004400000000000E807000823100E00244A0020E6
:10045000B8550020000000005D430108F5519000F0
:10046000A03A0020C8550020000000000DBB020883
:1004700007020200C0650020446600200000000062
:10048000F807000803123D00E465002048660020DC
:1004900000000000FA07000802000C009865002028
:1004A00088660020000000000000000006020C002A
:1004B0008C650020946600200000000099980008D8
:1004C00008120F007C650020A066002000000000DC
:1004D000658D0008F701060074650020B0660020F5
:1004E00000000000380800081D02020054650020CA
:1004F000B8660020000000003E0800080A020A005A
:10050000C4590020BC660020000000009DE70208DE
:1005100003000100945C0020C86600200000000079
:100520000000000025102C01D8590020CC660020C6
:1005300000000000000000000B301A00507B00207B
:100540000883002000000000400800081F3024003D
:100550008472002024830020000000005C08000852
:10056000050204001C7D00204883002000000000DC
:100570008008000803010A00AC7200204C830020B0
:100580000000000084080008130204002471002009
:1005900058830020000000008E0800081A000E009A
:1005A0004C8D00208C8E0020000000009208000876
:1005B00020320A00148C00209C8E002000000000D5
:1005C000E52204081500700060860020A88E002037
:1005D00000000000000000002A0060002C8E0020B7
:1005E000188F002000000000BD2204082C0010001D
:1005F000888F0020788F002000000000111F040861
:100600002B002400BC8F0020988F002000000000E9
:10061000E11E04080D002400ACD1002060D30020AE
:1006200000000000BDDD03080902010018D1002010
:1006300084D3002000000000A0080008040080000F
:1006400098D0002088D300200000000000000000A7
:10065000F901040014D0002008D40020000000009C
:10066000A18100081300040010D000200CD4002049
:1006700000000000A4080008FD011E00F0CF0020CB
:1006800010D400200000000029810008182030004C
:10069000BCCF002030D40020000000006999000881
:1006A00006101A0084BD002060D400200000000065
:1006B00061230408FB010100C0BC00207CD40020A1
:1006C00000000000819A0008FC0109008CBB00209A
:1006D00080D4002000000000919A000816023F001C
:1006E0004CBB00208CD4002000000000858C00084A
:1006F000340010007CBA0020CCD4002000000000A0
:10070000352304081102080054BA0020DCD400206C
:1007100000000000A8080008121204004CBA0020D3
:10072000E4D4002000000000B0080008FE0114001E
:10073000C8AF0020E8D40020000000005D8C000855
:1007400000000000000000000100000002020000A4
:100750000300000000050000280100000201F40170
:100760001400E8036400040A000114001E00900154
:100770000000200300000000000001000000000055
:100780000000000000000000000000000000000069
:1007900020003200C800D007960014003200280064
:1007A000B00440060005500014000F00080064006B
:1007B0000100010005000A000000C4090000190042
:1007C0000000000000000000000000000000000029
:1007D0000000000000000000000000000000000019
:1007E000000020000301000000000001000005538C
:1007F0003431310000080000013C0000000000001E
:1008000000000000000000000000000000000000E8
:1008100000000000000000000000000000000000D8
:1008200000000000000000000000000000000000C8
:1008300000000000000001004C000100D007000093
:10084000AE014A015E012C016401010000000100BB
:100850000A019A01001E0A000000000000000000CA
:10086000000100000005000001020300000000007C
:1008700000000000000000000000000000800700F1
:1008800000000000040101006C16000000000000E0
:1008900001197E05EA05B4053200E803D00700001F
:1008A00028000000080040300000000001010101A4
:0408B000FFFFFFFF48
:1008B400FFFF000038C60508000008020503030016
:1008C40040C60508010008020504030034F70508C2
:1008D4000200FE010110030048C6050803001402CB
:1008E4000003000050C6050804001F0201000800B0
:1008F40058C6050805001F0201010800FFFFFFFF9D
:1009040000000000000000000102030406070809BB
:10091400010000007D3A010800000000043F0508C2
:10092400FFFFFFFFD6010000B80B0000010101002A
:1009340000010101002D202D2D202D2D2D2D202DE8
:100944002D2D000000000000000000000000000049
:1009540000000000000000000000000090540508A2
:1009640000000000000000001C5505080100000004
:10097400FA00000001000000010000000101010074
:10098400E01A00200000F40101000000DE1A00203B
:100994000000F40101000000DC1A00200000F40152
:1009A40001000000DA1A00200000F4010100000038
:1009B400D81A00200000F40101000000D61A00201B
:1009C4000000F40101000000D41A00200000F4012A
:1009D4000100000075410108394101087042050811
:1009E400CA1A002005320100C81A0020E803D00703
:1009F40001000000C61A0020E803D007010000002F
:100A0400C41A0020E803D00701000000C21A002025
:100A14001E00B80B01000000D01A002005000F00D2
:100A240001000000D21A002003000A0001000000A7
:100A3400C01A00201E00F40101000000BE1A0020AC
:100A44001400640001000000CC1A00203200E80306
:100A540001000000BC1A00200000C80001000000D2
:100A6400961A002000C80100951A002000500100C9
:100A7400941A0020005A0100921A0020020000007B
:100A8400FC4205083CCF050844CF05084AD30020A2
:100A94000100C4090000000048D300200100C4097B
:100AA4000000000046D300200100C409000000003B
:100AB40044D300200100C4090000000040D30020FA
:100AC4000100C4090000000042D300200100C40951
:100AD400000000003ED300200100C4090000000013
:100AE4003CD300200100C409000000003D18002090
:100AF40000C801003C18002000C801003A1800207A
:100B04000100C800010000003818002032003075D0
:100B14003200000037180020055A05003418002060
:100B240000FF010036180020010000006C030020C3
:100B34003218002003000000B061050833180020BB
:100B440000FF010035180020010000006C030020A4
:100B54003118002003000000B0610508DD400108E1
:100B64008140010808430508F41A0020EE02CA086F
:100B740001000000F21A002000C801006400000017
:100B8400F11A002000C8010064000000F01A0020DF
:100B940002000000E84305082E18002080C1803EB2
:100BA400050000002C18002080C1803E05000000D4
:100BB4002618002080C1803E050000002418002073
:100BC40080C1803E050000001F18002000FF0100C6
:100BD400181800206400F401010000001718002018
:100BE40004000000F4430508161800200200000069
:100BF40008440508B71800200D0000001444050837
:100C0400B418002000640100B2180020320010273C
:100C14000A000000B11800200D000000144405086B
:100C2400B01800200D00000014440508AF1800207F
:100C3400020000004C440508000000000000000011
:100C440058440508D47C00209CFF2C0100000000BF
:100C54003E1E0020E0150C1700000000401E00207E
:100C64000200000090440508001B00200100FF7FE3
:100C740001000000FF1A0020020000009C44050847
:100C8400B918002003000000AC440508B81800207F
:100C940003000000AC440508841A00200000E803A7
:100CA40001000000821A00200000E8030100000097
:100CB400801A00200000E803010000007E1A0020D2
:100CC4000000E803010000007C1A00200000E80393
:100CD400010000007A1A00200000E803010000006F
:100CE400791A002000140100781A00200300000083
:100CF400BC440508901A00200000F4010100000023
:100D04008E1A00200000F401010000008C1A00205B
:100D14000000F401010000008A1A00200000F40120
:100D240001000000881A00200000803E010000003D
:100D3400861A00200000803E01000000A91A00204D
:100D440019640100A81A002002000000CC44050820
:100D5400A61A0020E803D0070A000000A41A002005
:100D6400006401000A000000991A002000640100D8
:100D7400981A002000640100A01A002000640100F9
:100D84000A0000009F1A0020006401000A0000000D
:100D94009E1A0020006401000A000000A31A00202B
:100DA400006401000A000000A21A0020006401008F
:100DB4000A000000A11A0020006401000A000000DB
:100DC4009D1A002001FF01000A0000009C1A002067
:100DD40001FF01000A0000009B1A002001FF01002E
:100DE4000A000000C21800200000F4010100000005
:100DF400C01800200000F40101000000BE1800200B
:100E04000000F40101000000BC1800200000F401FF
:100E140001000000BA1800200000F40101000000E5
:100E24009B1E002000C801009A1E002000640100DF
:100E3400991E002000640100981E00200064010037
:100E4400971E002000640100961E0020FF08010088
:100E5400951E002001640100E93F0108AD3F01082F
:100E6400D8440508941E002000640100921E00204E
:100E74001400E80301000000901E0020E803307510
:100E84000A0000008E1E002000C801008D1E0020F4
:100E940000C801008C1E002000C801008B1E002029
:100EA400006401000A000000AA1E00200000D00710
:100EB40001000000A41E002000C80100A31E0020A1
:100EC40000C80100A21E002000C80100A81E0020C6
:100ED4000000D00701000000A11E002000C801008E
:100EE400A01E002000C801009F1E002000C80100B1
:100EF400A61E00200000D007010000009E1E002056
:100F040000C801009D1E002000C801009C1E002096
:100F140000C8010000000000A13D01084845050883
:100F2400AD18002039000000E4450508AC18002085
:100F340000C80100AA180020E803D007010000003F
:100F440053544D333246343131444953434F56455B
:100F540052590000ED3C0108B13C0108CC4605089B
:100F64006D3C0108213C01083C470508293D010866
:100F74006D610108BC470508301800200103010019
:100F8400DD410108B1410108C04A0508C93B010817
:100F9400893B0108304B0508B73D01088961010808
:100FA400CC4B05083D5D010800000000744C0508A9
:100FB400F95E01083D420108104D0508093E01088B
:100FC40000000000804D0508E13E01088D3E010847
:100FD400E44D0508713F0108353F0108804E0508BE
:100FE40041DD010825400108004F0508BB1A002017
:100FF40001060100513E01081D3E0108FC4F050891
:10100400A3DC0108496201086C50050889DD010868
:10101400E162010868510508BA1A002001030100C1
:10102400713D0108413D01083C520508094201088F
:1010340000000000A0520508093C010855610108A0
:101044000453050800000000000000006853050870
:101054005940010859630108E85305081218002093
:1010640088136F17010000001418002088136F17ED
:10107400000000000E7300200000000000000000CB
:101084000C73002000000000000000000A73002020
:1010940000000000000000000873002000000000B1
:1010A40000000000067300200000000000000000A3
:1010B400047300200000000000000000FC0C00206D
:1010C4000000000000000000E817002002000000FB
:1010D400705505081018002088136F1701000000D0
:1010E400147D002088136F17000000001D3B0108C9
:1010F400000000007C5505088A1E00200100000045
:10110400D0550508167D002001000000DC550508B7
:101114000C7D002002000000E455050800000000DA
:1011240000000000F0550508093B0108000000001C
:101134008C5605080000000000000000E056050879
:10114400000000000000000050570508107D00203A
:10115400E0150C170000000001000000A00F0000C3
:10116400B80B00000102FFFF01FF000000000100B6
:101174000000803F0000803FFFFFFFFF0101FFFFF1
:10118400FF0000000000803F00000000000000009D
:1011940000000000FFFFFFFF000000003466002095
:1011A4000800000000000000246600200800000081
:1011B400200000000000803FFFFFFFFFE8F005086B
:1011C400C8F50508D4F50508E0F50508ECF50508AB
:1011D400F8F50508C4DE0508CC9E0508CC9D050875
:1011E4008CF5050828CB0508A4F70508BCF5050807
:1011F400C0F50508C4F50508F4F0050804F605086B
:1012040008F60508089C05080CF605081900C8002E
:10121400F40120030403090412010002EF02014057
:10122400830456320002010203010000120100028D
:10123400020200408304405700020102030100003F
:1012440009026400030100C0320904000001030024
:10125400000009211101000122260007058303086B
:10126400000A080B01020202010009040100010244
:1012740002010005240010010524010002042402D7
:10128400020524060102070582030800FF0904027F
:1012940000020A0000000705010240000007058162
:1012A4000240000009024300020100C032090400A8
:1012B40000010202010005240010010524010001BF
:1012C400042402020524060001070582030800FF26
:1012D40009040100020A00000007050102400000A1
:1012E4000705810240000000FF000000746C05083F
:1012F40000000000000000000000000000000000EA
:1013040000000000000000000000000000000000D9
:101314000000000000FFFF0000000000AA550501C6
:1013240000000100486C05080000000000000000F7
:1013340000000000000000000000000000000000A9
:10134400000000000000000000000000FF1FFF1F5D
:1013540005010905A101A10005010930093109327E
:10136400093309350934094009381581257F750881
:1013740095088102C0C0000009022200010100E0BA
:1013840032090400000103010200092111010001D6
:101394002226000705830308000A0000000000005D
:1013A400010203040102030406070809D1A003088B
:1013B400D59F030815A30308418003088583030808
:1013C400518003086D80030819800308098003080D
:1013D40000000000000000002D202D2D202D2D2DBB
:1013E4002D202D2D2D2D00000000000000000000F8
:1013F40000000000000000AA550B010000AA5507D8
:10140400010000AA550902000000AA5503009F002C
:1014140001000000C0120000DC8200200000000077
:101424000083002000000000658503080983030889
:10143400F1A203080000000005800308C19F03080F
:10144400D1840308399F0308000000000000000055
:10145400C17F0308D5840308C982030831A20308A5
:1014640000000000D97F03083D9F0308A5840308FA
:10147400999E03080000000000000000CD7F0308CF
:10148400E08F00207D0000000000803F000000008D
:1014940000000000000000000000803F0000000089
:1014A4000000000000000000000000000000000038
:1014B4000000000000000000000000000000000028
:1014C4000000803F00000000000000000000000059
:1014D4000100000000000401000000000000000200
:1014E4001000000007000000257F0308217F030887
:1014F4001D7F0308117F03080D7F0308197F03086C
:10150400157F0308997F03088D7F0308657F03080F
:10151400797F0308517F03083D7F0308297F03086F
:101524000100000000600240106002400000000062
:1015340000000000000B000000000000000000009C
:10154400000000000060024028600240010000002A
:1015540000000000060C0000000000000000000075
:1015640000000000006002404060024002000000F1
:1015740000000000100D000000000000000000004A
:1015840000000000006002405860024003000000B8
:1015940000000000160E0000000000000000000023
:1015A400000000000060024070600240040000007F
:1015B40000000000200F00000000000000000000F8
:1015C4000000000000600240886002400500000046
:1015D40000000000261000000000000000000000D1
:1015E4000000000000600240A0600240060000000D
:1015F40000000000301100000000000000000000A6
:101604000000000000600240B860024007000000D3
:1016140000000000362F0000000000000000000061
:10162400000000000064024010640240000000005A
:10163400000000000038000000000000000000006E
:101644000000000000640240286402400100000021
:101654000000000006390000000000000000000047
:1016640000000000006402404064024002000000E8
:1016740000000000103A000000000000000000001C
:1016840000000000006402405864024003000000AF
:1016940000000000163B00000000000000000000F5
:1016A4000000000000640240706402400400000076
:1016B40000000000203C00000000000000000000CA
:1016C400000000000064024088640240050000003D
:1016D400000000002644000000000000000000009C
:1016E4000000000000640240A06402400600000004
:1016F4000000000030450000000000000000000071
:101704000000000000640240B864024007000000CA
:101714000000000036460000000000000000000049
:1017240000000000E4C60508CCF305080000000032
:1017340091E40208A08601000400000000000000FB
:101744000000000000000000000000000000000095
:101754000000000000000000000000000000000085
:1017640000000000E4C60508C0F7050800000000FA
:1017740021E30108E8030000040000000000000069
:101784000000000000000000000000000000000055
:101794000000000000000000000000000000000045
:1017A4000000000074D605088C9C050800000000A9
:1017B4006D2503087D000000060000000000000005
:1017C4000000000000000000000000000000000015
:1017D4000000000000000000000000000000000005
:1017E4000000000014C6050800000000000000000E
:1017F400155E0208E803000003000000000000007A
:1018040000000000000000000000000000000000D4
:1018140000000000000000000000000000000000C4
:1018240000000000C8F705080000000000000000E8
:10183400DD7F040810270000030000000000000002
:101844000000000000000000000000000000000094
:101854000000000000000000000000000000000084
:101864000000000044C6050800000000015B0108F8
:10187400D52F02085F76000005000000000000007C
:101884000000000000000000000000000000000054
:101894000000000000000000000000000000000044
:1018A40000000000A0C905080000000000000000BE
:1018B40089630208102700000100000000000000F6
:1018C4000000000000000000000000000000000014
:1018D4000000000000000000000000000000000004
:1018E40000000000D4F7050800000000000000001C
:1018F40025E30108E80300000500000000000000E3
:1019040000000000000000000000000000000000D3
:1019140000000000000000000000000000000000C3
:1019240000000000E0F705080000000000000000CF
:10193400BD1D0308204E000003000000000000004D
:101944000000000000000000000000000000000093
:101954000000000000000000000000000000000083
:1019640000000000F0F7050800000000000000007F
:10197400A91B0308204E0000030000000000000023
:101984000000000000000000000000000000000053
:101994000000000000000000000000000000000043
:1019A4000000000000F8050800000000000000002E
:1019B400CD130208400D03000300000000000000E6
:1019C4000000000000000000000000000000000013
:1019D4000000000000000000000000000000000003
:1019E40000000000A8C70508000000000000000077
:1019F4009DF603081027000001000000000000000D
:101A040000000000000000000000000000000000D2
:101A140000000000000000000000000000000000C2
:101A2400000000002CC605080000000000000000B3
:101A34006195020810270000030000000000000068
:101A44000000000000000000000000000000000092
:101A54000000000000000000000000000000000082
:101A64000000000010F8050800000000000000005D
:101A7400C1C40108A08601000100000000000000AC
:101A84000000000000000000000000000000000052
:101A94000000000000000000000000000000000042
:101AA4000000000008D2050800000000000000004B
:101AB40021E20108A861000001000000000000000C
:101AC4000000000000000000000000000000000012
:101AD4000000000000000000000000000000000002
:101AE4000000000018F805080000000000000000D5
:101AF400A5D90208A0860100010000000000000032
:101B040000000000000000000000000000000000D1
:101B140000000000000000000000000000000000C1
:101B240000000000A8C90508000000000000000033
:101B34005DE30108A00F00000100000000000000A8
:101B44000000000000000000000000000000000091
:101B54000000000000000000000000000000000081
:101B64000000000024F80508000000000000000048
:101B7400A5D40208102700000100000000000000A6
:101B84000000000000000000000000000000000051
:101B94000000000000000000000000000000000041
:101BA40000000000B0C705080000000000000000AD
:101BB40091B402081A410000010000000000000076
:101BC4000000000000000000000000000000000011
:101BD4000000000000000000000000000000000001
:101BE4000000000008CA0508000000000000000012
:101BF4001D880308102700000100000000000000F9
:101C040000000000000000000000000000000000D0
:101C140000000000000000000000000000000000C0
:101C240000000000E0F305080000000000000000D0
:101C34000D6F01081A4100000100000000000000BF
:101C44000000000000000000000000000000000090
:101C54000000000000000000000000000000000080
:101C64000000000030F8050800000000000000003B
:101C7400F58D0308400D0300000000000000000083
:101C84000000000000000000000000000000000050
:101C94000000000000000000000000000000000040
:101CA4000000000038F805080000000000000000F3
:101CB4007BDD0308400D030000000000000000006D
:101CC4000000000000000000000000000000000010
:101CD4000000000000000000000000000000000000
:101CE4000000000040F805080000000000000000AB
:101CF400EDC1020850C30000030000000000000012
:101D040000000000000000000000000000000000CF
:101D140000000000000000000000000000000000BF
:101D2400000000004CF8050800000000000000005E
:101D34001D1B030840420F000000000000000000CB
:101D4400000000000000000000000000000000008F
:101D5400000000000000000000000000000000007F
:101D64000000000058F80508000000000000000012
:101D740015F2030850C3000000000000000000003A
:101D8400000000000000000000000000000000004F
:101D9400000000000000000000000000000000003F
:081DA400000000000000803F78
:10800000436A8269D154436A0169026C01338B422D
:1080100028BF00234362DAB1EFF31183502282F3C9
:108020001288026C1168C9070ED470B45468FCB988
:10803000D0E909518D4211D1012280F86420DBB2D0
:1080400083F3118870BC7047DBB283F311887047EB
:10805000026ED36843F08003D360704786690E4494
:10806000D6600ED9691A51608562002180F86410CB
:10807000116841F00101DBB2116083F3118870BC1B
:1080800070470569691A51608462EEE7034610B4CF
:10809000C46BD968406954B15A6D8C1A013A005DBD
:1080A0005DF8044B08BF0A46C0B25A6570471A6AA9
:1080B000805C01328A4228BF2246C0B21A625DF853
:1080C000044B7047036C13B190F864007047D0E91B
:1080D0000903181AB0FA80F040097047D0E9091274
:1080E0000369914238BFC9188A1A016C013B19B162
:1080F00049680A449A4201D2981A70470020704792
:10810000C36B43B1426D5B689A4291BF981AC068D5
:108110009B1AC0187047D0E907239A422FBFD01A84
:10812000C0688018C01A70470A4B30B503F10C04C0
:1081300093F900205D78072AC8BF143A81180433E8
:108140008D7213F8025C855413F8012C0A759C4259
:10815000EED130BDD818050803682DE9F0415D6AFD
:108160001DB12B46BDE8F0411847002A174611DD26
:1081700004460E460F4400E023689B68204698475B
:108180000028F9D0236816F8011B1B682046984781
:10819000BE42F1D1BDE8F08103681B69184700BFFA
:1081A00000234F214D22017042708370C3707047CD
:1081B000D3B2022B23D8F0B4124F134D02EB420678
:1081C0003C46B600002304E00133172B14D054F8CA
:1081D0002C5FA842F8D125798D42F5D1A519ED681B
:1081E000002DF1D02C2101FB03F30C20083310FBF0
:1081F0000233F818F0BC70470020F0BC7047002034
:10820000704700BF907A05080000014010B40B4988
:10821000002301E0152B0BD003EB430201338C5CF0
:1082200084420A44F6D192F902005DF8044B70478B
:108230004FF0FF305DF8044B704700BF4CBB00208F
:10824000064B984202D04FF0FF307047044A5389E2
:1082500001339BB25381508980B270470030014096
:108260005CB000202DE9F04105468068174698462D
:1082700010B1036882885A83686840F2E9348389C0
:1082800001E0002C43D00689013C16F0020FA4B295
:10829000F7D089B2818140F2E93101E0002936D07E
:1082A0000389013913F0010F89B2F7D083898389DB
:1082B00000264FF47A714FF6FF724FF0FF0C03E087
:1082C000013989B291421FD003899C07F8D5A0F8E3
:1082D0000CC04FF47A7102E0A1B2914214D003892C
:1082E000DB0701F1FF34F7D583899BB20FB13B70F7
:1082F000013701364645E7D1AB6813B11A689B8850
:1083000013830120BDE8F081FFF79AFFF4E7FFF740
:1083100097FF6868CBE700BF836870B504461646D0
:1083200013B11A689B885383606840F2E9338289ED
:1083300001E0002B31D00589013B15F0020F9BB203
:10834000F7D089B2818140F2E93300E02BB3028992
:10835000013B12F0010F9BB2F8D08389838940F270
:10836000E93300E0EBB10189013B11F0020F9BB250
:10837000F8D0B6B2868140F2E93300E08BB10289D1
:10838000013B12F0010F9BB2F8D08389A36813B1AF
:108390001A689B881383012070BDFFF751FF606846
:1083A000DCE7FFF74DFFF1E7F8B5164682680546B2
:1083B0001F4641F0800112B1136892885A836868A1
:1083C00040F2E934838901E0002C44D00389013C68
:1083D00013F0020FA4B2F7D089B2818140F2E931E3
:1083E00001E0002937D00389013913F0010F89B268
:1083F000F7D0838983894FF0000C4FF47A714FF6E0
:10840000FF724FF0FF0E03E0013989B291421FD095
:1084100003899C07F8D5A0F80CE04FF47A7102E0CC
:10842000A1B2914214D00389DB0701F1FF34F7D5E3
:1084300083899BB20EB1337001360CF1010CBC453F
:10844000E6D1AB6813B11A689B8813830120F8BD8D
:10845000FFF7F6FEF5E7FFF7F3FE6868CAE700BF2F
:10846000437A5A1C0344D2B242729972037A9342FD
:108470000AD84AB110B5044604F10A01D0E9003027
:1084800098470023637210BD704773B504461846C1
:1084900023091646069D403304F00F0439B1013913
:1084A000CDE90041064A3146A84702B070BD054AF1
:1084B00006943146AC4602B0BDE87040604700BF4C
:1084C0009C850508AC8505082DE9F04385B0B2F11F
:1084D000FF3F894690461946BDF830500D9F23D086
:1084E000060900F00F044036CDE900423346154A34
:1084F0002846B847A8B1424699F80510D9F80000B7
:10850000FFF756FE68B10388DAB20392C3F3032281
:108510001B0B0292CDE900430B4A3346002128464B
:10852000B84705B0BDE8F0836B06FAD40309074AE3
:1085300000F00F000C9040332846BC4605B0BDE863
:10854000F0436047BE850508D0850508F985050814
:1085500020B10078B0FA80F04009704701207047E0
:10856000037903F01803082B0AD002D82BB100209E
:108570007047102B14D0182BF9D1B0F80B007047AE
:108580000F4BB0F80B0093F90030591C06BF0D4B90
:108590001B78DBB203EB831300EB430080B2704720
:1085A000074BB0F80B0093F901305A1C06BF054B7E
:1085B0005B78DBB203EB031300EB430080B2704740
:1085C0009801002080490020F0B5067906F0E0030C
:1085D000402B09D144794FF0FF350023012006F0EC
:1085E0000706A3420BD1F0BD602B08BF45794FF0C1
:1085F00001040CBF04FA05F54FF0FF35EDE7042E3A
:108600000CD8DFE806F0030D18242E0030B1C85C4A
:10861000D75C784028420CBF012000200133E0E7FE
:108620000028FBD0C856D756A0EB070CDCF10000A1
:1086300040EB0C00F2E70028F0D031F8130032F8DC
:108640001370784028420CBF01200020E6E7002884
:10865000E4D031F9130032F91370C71B7842784126
:10866000DCE70028DAD051F8230052F82370784074
:1086700028420CBF01200020D0E7F1E638B5074CB6
:10868000074DAC4203D3074B00221A7038BD6288F5
:10869000D4E9010147F0A6FD1434F2E7A001000877
:1086A000400700089016002038B5074C074DAC4233
:1086B00003D3074B01221A7038BD6288D4E9011038
:1086C00047F090FD1434F2E7A001000840070008CD
:1086D0009016002003685A1C02601970704700BF92
:1086E0002DE9F047089C2578002B804689460CBF71
:1086F0004FF0200A4FF0300A661C25B3002A26DD11
:10870000334601E0024698B113F8011B501E0029C0
:10871000F8D1971E60B13D46013D51464046C847DD
:108720006B1C002BF8DC257827EAE770013045B197
:10873000041B29464046C847301916F8015B002D36
:10874000F7D1BDE8F087002A03DC2846F9E70020CE
:10875000EEE7571EDFE700BF2DE9F04714461D4640
:1087600006464FF47A7200232046294647F0B0FAB5
:108770004D4BDFF850814D4A4D4F034488FB0310A9
:108780001844D91782FB032CC1EB601088FB00282A
:1087900087FB03279C44474AC1EBEC2CC0EB001E2F
:1087A00082FB0C29A3EB8E0E1F44434A86F806E099
:1087B000C1EB27474FEAEC7E08EB000ACEEBA90E8F
:1087C00082FB07824FEAE0780EEB4E0EC8EB6A1888
:1087D000ACEBCE0CC8EB0818DFF8ECE086F804C070
:1087E000A0EB880070718EFB0303F817C0EBE21258
:1087F00040F2B55000FB1272C1EBE353B2F5896F42
:108800004FEA83073FDA40F2DA239A4243DCB2F5BB
:10881000B77FB4BF4FF0000E4FF0010E4FEA4E0885
:10882000264B08EB0E0103EBC1031FFA8EFC588C9C
:10883000234908EB0E0301EBC30116310B2301E0C2
:1088400031F8020D90421BDD013BF9D11B4BC644B0
:1088500003EBCE0E0123BEF80C00B37007F5FA67E8
:108860000132121ABC44F270A6F800C02046294614
:108870004FF47A72002347F02BFA3281BDE8F0877B
:108880000133DBB2E9E74FF0030CE64640F29650C5
:108890004FF00608CCE74FF0020CE64640F22940C4
:1088A0004FF00408C4E700BF80BC92C7C5B3A291D3
:1088B00007452EC2ABAAAA2A73B06D16D8180508B0
:1088C000E418050889888888792D03110378202BFE
:1088D000024600F10100F9D0092BF7D02D2B00F052
:1088E000A4802B2B03BF5378B7EE000A0246B7EEE5
:1088F000000AA3F13001C8B209289FED577A10D8B9
:10890000F2EE046A07EE901AF8EEE77A12F8013FE9
:10891000E7EE267AA3F13001C8B20928B0EE677AF3
:10892000F0D92E2B63D003F0DF03452B02D020EECD
:10893000070A704710B451782D294FD02B2979D0D0
:10894000A1F13003092B02F101027AD8002400239F
:1089500003EB830301EB430312F8011FA1F1300085
:108960000928A3F13003F3D9B3F59A7F1A4628BF3B
:108970004FF49A72072B6CD9DFED386A1346F7EE85
:10898000007A083B072B67EEA67AFAD802F00702B6
:10899000DAB1F2EE046A012A67EEA67A15D0022A4D
:1089A00067EEA67A11D0032A67EEA67A0DD0042AC4
:1089B00067EEA67A09D0052A67EEA67A05D067EE9B
:1089C000A67A062A18BF67EEA67A002C3BD087EE5F
:1089D000277A5DF8044B20EE070A70479178A1F1E1
:1089E0003003092B02F1020230D80124AFE753789B
:1089F000A3F13001C8B2092802F1010293D8F2EEC6
:108A0000046AF0EE665A07EE901AF8EEE77A12F86A
:108A1000013F87EEA66AA3F13001C8B2092866EECD
:108A2000A56A37EE067AEED97DE75378BFEE000AE5
:108A300002465EE79178A1F13003092B02F10202B0
:108A400084D9F7EE007A27EE277AC2E7F7EE007AAC
:108A5000BDE7F7EE007A9BE70000000020BCBE4CAB
:108A60000028F0B403DA2D230B70404201310928AD
:108A700004464FF0010307DD03EB83035B00B0FB0B
:108A8000F3F2092AF8D883B10F48A0FB0326B4FB00
:108A9000F3F2092A02F1570C02F1300709DD03FB5A
:108AA0001244F30801F801CBEFD100230B70F0BCA6
:108AB000704703FB1244F30801F8017BE5D1002362
:108AC0000B70F0BC704700BFCDCCCCCC884270B4EA
:108AD0004FF0010442D301FB04F4B0FBF4F58D42E6
:108AE000F9D2ECB142BB092D04FB150005F1570684
:108AF00005F130020EDDB4FBF1F403F8016B7CB13B
:108B0000B0FBF4F5092D04FB150005F1570605F13E
:108B10003002F0DCB4FBF1F403F8012B002CEFD1B0
:108B200000221A7070BC704703F8016BB4FBF1F4BB
:108B3000002CF5D0B0FBF4F5092D04FB150005F170
:108B4000370605F13002EFDCB4FBF1F403F8012B3A
:108B5000002CEFD100221A7070BC70470546002A25
:108B6000EAD1C0E790ED057A90ED004AD0ED066AB3
:108B7000D0ED014AD0ED047A90ED035AD0ED025ABF
:108B8000A4EE007AB0EE406AB0EE470AB0EE667A24
:108B9000A4EE867A67EEC07AA5EE407AE5EE867A94
:108BA00080ED057AC0ED067A704700BFD0ED057AFA
:108BB00090ED013AD0ED003AD0ED064A90ED024A30
:108BC00090ED077A90ED035A90ED086AD0ED045AC3
:108BD000C0ED067AF0EE406A27EE830AC0ED056A22
:108BE000A3EEA60A80ED087AA4EE240AA5EE470AB1
:108BF000A5EEC60A80ED070A704700BFD0ED007AE7
:108C000090ED017A30EE670AE7EE007AB0EE670A7F
:108C1000C0ED007A704700BF704700BF30B45322E8
:108C20000023512503240221C27001228571C471E1
:108C30000370C3728373C373417041728270027296
:108C4000827230BC704700BF002306214FF47A7255
:108C50000170C0E901230373704700BF30B43123B2
:108C6000012232254FF60174FF2143700023457124
:108C70000482817402720270027143818381C38114
:108C800030BC70472DE9F04F3149324B83B001F5CC
:108C9000807B019028274FF000092F4810220126E1
:108CA00003E0203098420BD002799742F9D1026854
:108CB0000C68A24209D02030984206F10106F3D197
:108CC000203159453AD00F79E7E744794D79A542EB
:108CD000F1D19446019A214809EB490502EB050AB6
:108CE00057558AF8016000F572751D4E624603E023
:108CF000A8421AD050F82C6FB242F9D10679A64298
:108D0000F6D1CF6806464FF0000C96468046F268D2
:108D1000BA4216D00CF1010CBCF1030F06F10C069F
:108D2000F5D14046A8427246E4D14FF0FF3C2031D5
:108D300059458AF802C009F10109C4D103B0BDE860
:108D4000F08F086932698242E4D14FFA8CFCEEE779
:108D5000906F0508907A0508D0700508907A05088C
:108D600000000140FF2310B41621152417220470BF
:108D700041708270C37003710372437243738373D3
:108D80005DF8044B704700BF084B09498B4203D381
:108D900009E014338B4206D21A88C2F30B029042C8
:108DA000F7D118467047002318467047A001000805
:108DB0004007000870B50546B0F80900FFF7E4FF6A
:108DC000064B1E7804462846FFF7CAFB16B1A36877
:108DD000184470BD63681844FBE700BF901600207C
:108DE00038B505460C46FFF7E5FF2A7902F0070380
:108DF00002F0E002602A28D1022B0ED0042B18D0FA
:108E00003BB96A7901239340DBB2027814B1134372
:108E1000037038BD22EA0303FAE76A79012393401D
:108E20009BB2028814B113430380F2E722EA0303E2
:108E3000FAE76A79012303FA02F2036814B11343D3
:108E40000360E6E723EA0203FAE7042BE1D8DFE850
:108E500003F00303050507000470DAE70480D8E790
:108E60000460D6E7034600F11001FF221A705A7021
:108E700002339942FAD1027042708270C2708272DB
:108E8000C27270470D20704770B582B004466A46C2
:108E90000623E8211030FFF7E5F99DF804009DF85E
:108EA00000609DF801109DF802509DF803209DF888
:108EB000053041EA062143EA002342EA0522012067
:108EC000A4F85010A4F85220A4F8543002B070BD99
:108ED000012380F850307047F0B4037C4569026884
:108EE0001F2B37D9203B2021546899400C4223D0B6
:108EF00010249C40D160D4605168D940CE074ED434
:108F0000EFF31183502282F312882A6C1168C9078B
:108F100009D45468002C52D1D5E909618E4243D15D
:108F2000012285F86420DBB283F31188037C026898
:108F30001F2B194614D9203B08215068994008423C
:108F400000D0D1600421506801FA03F3184223D104
:108F5000F0BC7047202416689C4026420FD1194669
:108F6000082310688B40184200D0936004231068D7
:108F700003FA01F10842EBD09160F0BC7047102178
:108F80009940946091601168D940CC07B8D501210F
:108F900001FA03F39360B3E7D360F0BC704701219B
:108FA00001FA03F3D360ABE7AF690F44D7600ED883
:108FB0002E69711A5160AC62002185F86410116845
:108FC00041F00101DBB2116083F31188AEE7711A41
:108FD0005160AE62F0E700BFF0B4714B71491A788E
:108FE0000B789A4240F07E816F4B1A78002A00F08D
:108FF000D4806E4B19786E4B002940F0DB801868E6
:10900000B3F83261048824F080042404240C048022
:1090100093F83041C462058845F0800505804162BF
:109020008489012A44EA06048481A3F8321100F0FD
:10903000B480D3F83401B3F86662048824F0800465
:109040002404240C048093F86442C462058845F02B
:109050008005058041628489022A44EA06048481ED
:10906000A3F8661200F09980D3F86802B3F89A6307
:10907000048824F080042404240C048093F898438A
:10908000C462058845F08005058041628489032A11
:1090900044EA06048481A3F89A137ED0D3F89C0393
:1090A000B3F8CE64048824F080042404240C0480E3
:1090B00093F8CC44C462058845F080050580416280
:1090C0008489042A44EA06048481A3F8CE1464D077
:1090D000D3F8D004B3F80266048824F08004240492
:1090E000240C048093F80046C462058845F080058E
:1090F000058041628489052A44EA06048481A3F834
:1091000002164AD0D3F80406B3F83667048824F070
:1091100080042404240C048093F83447C462058836
:1091200045F08005058041628489062A44EA0604E8
:109130008481A3F8361730D0D3F83807B3F86A68BB
:10914000048824F080042404240C048093F86848E4
:10915000C462058845F08005058041628489072A3C
:1091600044EA06048481A3F86A1816D0D3F86C2860
:10917000B3F89E59108820F080000004000C108085
:1091800093F89C09D062148844F0800414805162E2
:10919000908928439081A3F89E19F0BC704700BFC6
:1091A000EC580020ED58002014C60020B1BD00206E
:1091B00018C600205C68198961602568186845F048
:1091C000010540F20D312560A0F848108489012A7C
:1091D00044F480748481E0D0D3F83841B3F83C5132
:1091E000D3F834016560256845F001052560A0F8D5
:1091F00048108489022A44F480748481CDD0D3F845
:109200006C42B3F87052D3F868026560256845F087
:1092100001052560A0F848108489032A44F480746D
:109220008481BAD0D3F8A043B3F8A453D3F89C03F5
:109230006560256845F001052560A0F8481084891F
:10924000042A44F480748481A7D0D3F8D444B3F8BA
:10925000D854D3F8D0046560256845F00105256031
:10926000A0F848108489052A44F48074848194D03D
:10927000D3F80846B3F80C56D3F8040665602568A1
:1092800045F001052560A0F848108489062A44F4B9
:109290008074848181D0D3F83C47B3F84057D3F829
:1092A00038076560256845F001052560A0F848107D
:1092B0008489072A44F4807484813FF46EAFD3F824
:1092C0007028B3F87408D3F86C385060106840F018
:1092D00001001060A3F848109A8942F480729A81C4
:1092E000F0BC70475C00E618484D15F83660032E58
:1092F0003FF67AAEDFE806F04D261C02E01805EBDB
:10930000C0004468661E012C46603FF646AF01333C
:1093100003F00303D8B2824208703FF465AE03EB5A
:109320004303DB00EA1802200021E854516034E7CF
:10933000E11805EBC1014868461E01284E603FF662
:109340002CAF0DE0E118C90068184668771E012EA1
:1093500047603FF622AF02274FF0FF366F5446605A
:10936000E618F600AF192A48397B00680139C9B2FE
:10937000397389B34FF47A722344B2FBF0F200FBE5
:1093800002F0B0F57A7F05EBC30518BF01326A60C1
:109390002AE670B11F49012600220F890132002FF1
:1093A00018BF0026824201F58671F6D1002E3FF4E7
:1093B0001BAE174A126842F21076E018B6FBF2F1C3
:1093C00002FB1162012605F8306002B131442344EA
:1093D00005EBC305696007E6BF68B7FBF0F100FB6A
:1093E00011700327AF5500B101311C44013305EB67
:1093F000C40503F00303934269603FF4F5AD00290F
:109400003FF4F2AD01396960EEE500BFF05800208D
:109410006C0D0020B4BD002010B5027C01681F2A2D
:109420004FF020030ED94C68203A93401C4208D0DC
:109430000B4A406800241470026822F001020260A6
:10944000CB6010BD0C6893401C42FAD0044A4068BF
:1094500000241470026822F0010202608B60F0E7C1
:10946000C53C00202DE9F041C40023189B00B749FA
:10947000CA585268958AADB2EFB2FE070B4461D468
:10948000BE0737D5BFF35F8F1D7EEDB2012D00F013
:10949000BB80AF4E138BBFF35F8F231801EB8303A9
:1094A0001D7E022D00F0CE80231801EB83031D7E6C
:1094B000032D05D19B7E1BB1B378002B40F01A81A0
:1094C000938896F901C043F480639380231801EBDD
:1094D00083031B7E013363450AD1F3780025B57001
:1094E000002B40F08A80204401EB8000002343756C
:1094F000BDE8F081964E17F0040F96F901C04DD1EA
:1095000017F0400700F0B280178A1D6AFFB205F815
:109510000C705FFA8CF56F1C93F818E07BB2DF1CBF
:10952000BE4573709C4600F00981271801EB870740
:109530003F7EBB42CAD105F1020C4FFA8CFC86F883
:1095400001C0C3E71588824E25F400652D042D0C5B
:109550001580158845F4806515809D7E00277770FD
:10956000002D3DD0B578002D37D0231801EB8303B3
:1095700001251B7EB570022B03D1138843F40063D1
:109580001380231801EB83039B7D43F001031382B7
:10959000204401EB8000037EBDE8F0819F7EB5781A
:1095A0004FF0010E86F803E0002F5CD0002D78D13B
:1095B000231801EB83035B7E002B00F0A48013884B
:1095C0000CF1010C4FFA8CFC43F4007386F801C0D7
:1095D00013801388DF05FCD478E7DB7DFF2BC4D034
:1095E000231801EB83039D7D05F0FE051582DB7DCD
:1095F000FF2BCDD0FF237370CAE7938823F4407309
:109600001B041B0C93806EE79B7E514E002B3FF496
:1096100041AFB378002B3FF43DAF138823F4806350
:109620001B041B0C1380BFF35F8F138B1388F57023
:1096300043F400731380938896F901C043F4806368
:10964000938043E79B7E002B3FF42EAFB378002B33
:109650003FF42AAF138896F901C023F480631B04FA
:109660001B0C138016E0002DA2D0A8E72D067FF575
:109670002DAFBCF1FF3F6DD0DD6915F80C501582A0
:109680000CF1010C1D7E4FFA8CF39D429C467370C9
:109690007FF41CAF938823F480631B041B0C93801E
:1096A00014E71F7ED3F820805FFA8CF5AE44022FBA
:1096B0004FFA8EFE17882DD927F480673F043F0CA0
:1096C0001780178AFFB208F80C701788D3F820C0EB
:1096D00047F400731380138ADBB20CF80E309388C2
:1096E00005F1020C4FFA8CFC43F4806386F801C04C
:1096F00093806EE7938896F901C023F480631B047E
:109700001B0C9380E2E61388012543F480731380D9
:10971000B5705EE747F400771780178AFFB208F844
:109720000C70178AD3F8208005F1030C4FFA8CFCDB
:10973000FBB286F801C008F80E304AE7978827F494
:1097400080673F043F0C9780EFE600BFECAF00203E
:1097500090160020DD7D15829D7E77701DB91B7EE1
:10976000002B7FF415AF938823F480631B041B0C3C
:1097700093800DE730B50446006E21718389A2689D
:1097800023F400531B041B0C838185B06379009282
:1097900013F0040F4FEA03324FEA03230CBF0025F6
:1097A0004FF4805503F4806302F40052ADF8045086
:1097B000ADF80830002511F00103ADF80620ADF832
:1097C0000C501CD1ADF80A3008238A07694648BFFF
:1097D000ADF80A3031F014FE637913F0080F236EF0
:1097E0009A8A05BF22F00802120442F00802120C05
:1097F0009A829A8942F400529A8105B030BD0423BE
:10980000ADF80A300C23E0E730B50446006EA160E5
:10981000838923F400531B041B0C8381637985B077
:1098200013F0040F009108BF0025217918BF4FF4F1
:109830008055ADF804501A0300251B0203F4806321
:10984000ADF80A50ADF80C50CD07ADF8083002F471
:10985000005244BF0423ADF80A30ADF806204CBFD7
:109860000C2308238A07694648BFADF80A3031F057
:10987000C7FD637913F0080F236E9A8A05BF22F0A3
:109880000802120442F00802120C9A829A8942F4E9
:1098900000529A8105B030BD10B42921262401223E
:1098A0000023047041708270C3705DF8044B7047F0
:1098B00008B5202147F0D3FF0346184623B10278AC
:1098C000202A03F10103F8D008BD00BF38B51D4BB5
:1098D0001B78044600F1250593B104221A49203073
:1098E00047F0E4FF28461422184947F0DFFF012320
:1098F00084F83A30164B1B7873B984F83B3038BD86
:1099000028461422134947F0D1FF012384F83A3046
:109910000F4B1B78002BF0D00F4B186859689A68D2
:10992000DD68E56020606160A260DD6918695969E1
:109930009A69A2610123E5612061616184F83B308D
:1099400038BD00BF04840020CC830020B4830020F5
:10995000058400209C9A0508D4830020014B1868D8
:1099600022F0FCBEF438002038B53022002147F048
:109970005FFF0346642440F2DC5040F21A4140F29B
:109980006C7240F202251C745882132419209982AB
:10999000DA8240F2753140F643021D839C760E2533
:1099A0000A241877D9831E2002211A84012283F801
:1099B0002E00197283F82C1083F8225083F82D4062
:1099C0009A7383F8252083F82B2019460248BDE8B6
:1099D000384013F094BB00BFB09A050838B5002496
:1099E0000546048021462846013422F0EBFF082C6E
:1099F000F8D1002185F8E210A5F8E410A5F8E610EA
:109A0000A5F8E810A5F8EA10A5F8EC10A5F8EE10F6
:109A1000A5F8F010A5F8F2102846BDE8384022F06D
:109A200093BF2DE9F341134D134F002305F8043F75
:109A3000044600EB8106B44203D1104802B0BDE8F1
:109A4000F0813946284647F0FBFE2146684647F03C
:109A500013FF4FF000082021684647F000FF28B9A7
:109A60006946284647F0ECFE0434E4E780F80080BD
:109A7000F1E700BF90160020038905089416002026
:109A800010B500210446012018F0A8FE207010BD7A
:109A900038B500240472451EE1B2022018F09EFE83
:109AA0000134082C05F8010FF6D138BD08B50120A6
:109AB00030F07CFF174A936803F00C03042B1ED090
:109AC000082B18D151685368490203F03F0319D499
:109AD00052681148B0FBF3F0C2F3881300FB03F0A7
:109AE0000C4B0E4A5B68C3F3014301335B00B0FBD0
:109AF000F3F0106008BD094B074A1A6008BD074B18
:109B0000186008BDB0FBF3F05368C3F3881300FB83
:109B100003F0E5E7003802400024F40048A40020E8
:109B2000224B5B68C3F3080330B4D3B9EFF311835E
:109B3000BBB91F4A1F4D20481368846811688B42C7
:109B4000FAD129688C42F7D81C4A11684FF47A720E
:109B500002FB01F0001B30BCB0FBF1F002FB030084
:109B60007047EFF31182102383F3128803F1E0238F
:109B7000D2B29C68196811F4803F11491EBF0120C0
:109B800008609C680A4B18680B6882F311880B4ABE
:109B900011684FF47A72034402FB01F0001B30BCE1
:109BA000B0FBF1F002FB0300704700BF00ED00E0E6
:109BB00014B10020B4B7002010E000E0B0B70020DE
:109BC000ACB700202DE9F84F8046274C274DDFF831
:109BD000A490274EFFF7A4FFDFF89CE0DFF89CC0BD
:109BE0004FF0100A4FF47A77DCF80430C3F308031F
:109BF000CBB9EFF31183B3B92368A9682268934204
:109C0000FAD132689142F7D8DEF8002007FB02FB58
:109C1000ABEB0101B1FBF2F107FB03131B1A434548
:109C2000E2D3BDE8F88FEFF311818AF31288D5F8FB
:109C300008B02B68DB0304D50123C9F80030D5F840
:109C400008B02368D9F80020C9B281F31188DEF882
:109C50000010134407FB01F2A2EB0B02B2FBF1F27E
:109C600007FB0323DAE700BF14B1002010E000E097
:109C7000B4B70020ACB70020B0B7002000ED00E082
:109C80002DE9F04F85B004AB802203F8012D01903F
:109C900024221921002040F0C8FC874C874EDFF8B1
:109CA0002882874DDFF82492864F64230093FFF7C4
:109CB00037FF4FF0010A4FF0100E4FF47A7CD8F8BE
:109CC0000430C3F30803002B40F0D780EFF3118377
:109CD000002B40F0D2802368A96822689342FAD111
:109CE0003A689142F7D832680CFB02FBABEB0101FA
:109CF000B1FBF2F10CFB03131B1AB3F57A7FDED331
:109D0000009B013B0093D2D1184604AB972203F885
:109D1000022D1921202240F088FCDFF8AC81684D2B
:109D2000DFF8A891674F0A230093FFF7F9FE4FF081
:109D3000010A4FF0100E4FF47A7CD8F80430C3F3C8
:109D40000803002B7BD1EFF31183002B77D123681D
:109D5000A96822689342FAD13A689142F7D83268EA
:109D60000CFB02FBABEB0101B1FBF2F10CFB0313AB
:109D70001B1AB3F57A7FE0D3009B013B0093D4D14B
:109D8000184604AB102203F8032D1921232240F0BA
:109D90004CFCDFF834814A4DDFF83091494F6423A1
:109DA0000093FFF7BDFE4FF0010A4FF0100E4FF485
:109DB0007A7CD8F80430C3F3080313BBEFF31183A4
:109DC000FBB92368A96822689342FAD13A689142A4
:109DD000F7D832680CFB02FBABEB0101B1FBF2F1EF
:109DE0000CFB03131B1AB3F57A7FE2D3009B013BF4
:109DF0000093D6D1019A4FF48053138305B0BDE888
:109E0000F08FEFF311818EF31288D5F808B02B682C
:109E1000DB0344BFC9F800A0D5F808B02368D9F81F
:109E20000020C9B281F31188316813440CFB01F2A0
:109E3000A2EB0B02B2FBF1F20CFB0323D2E7EFF330
:109E400011818EF31288D5F808B02B68DA0344BF6D
:109E5000C9F800A0D5F808B02368D9F80020C9B225
:109E600081F31188316813440CFB01F2A2EB0B0261
:109E7000B2FBF1F20CFB03237AE7EFF311818EF3CF
:109E80001288D5F808B02B68DB0344BFC9F800A0DE
:109E9000D5F808B02368D9F80020C9B281F3118839
:109EA000316813440CFB01F2A2EB0B02B2FBF1F29E
:109EB0000CFB032320E700BF14B10020B0B7002043
:109EC00010E000E0B4B7002000ED00E0ACB70020E7
:109ED0002DE9F84F037C02681F2B86BF203B516899
:109EE0001168202202FA03F30B4214BF012300235E
:109EF0000BB9BDE8F88F4569DFF870920446FFF7AB
:109F00000FFE4FF4867303FB059306465A7C002A26
:109F100030D185495A6809781768C1B9D3F88010DB
:109F200058890A6822F001020A60BB8923EA00030B
:109F3000BB817E4B1B78002B30D1237C21681F2BEB
:109F400011D8202202FA03F38B60BDE8F88F526922
:109F5000136823F001031360BB8923F480731B048F
:109F60001B0CBB81E5E7203B202202FA03F3CB6008
:109F7000BDE8F88FD3F880606D485F8901229A743C
:109F800031685A680368156821F001013160AA89B7
:109F9000013322EA0702AA810360CEE74FF48673F9
:109FA00003FB0593634AD3F88080D8F8003023F090
:109FB0000103C8F800300023C8F800309045C8F805
:109FC0000430C8F80830C8F80C30C8F810304FF02A
:109FD0002103C8F8143000F08780574B98457ED095
:109FE000564B984500F08480554B984500F085808D
:109FF000544B984500F08680534B984500F086807E
:10A00000524B984500F08680514B984500F0868071
:10A01000404630F0D3FB4FF4867A0AFB05FA09EB91
:10A020000A0501236B74D5F884B0FFF779FD3B88EE
:10A03000CBF82C0123F080031B044FF0FF321B0CE4
:10A040003B80FA623B880AF1340143F080033B8095
:10A050004944384630F0CAFCD5E915702B6CD5F868
:10A0600050C0D5E917123B4303430B4313436A6EB9
:10A070006F6FD8F8000037491343AA6E1343AA6FD5
:10A080003B43014013430B430022EA64C8F800300D
:10A09000D5E91B30D8F81410D5F880206F6C21F06A
:10A0A000070103430B43A86C95F87C10C8F81430E3
:10A0B000C8F804C0C8F80870C8F80C0051606B6894
:10A0C000116818686D8941F00101116083892B4383
:10A0D0008381FFF725FD204B801B98622DE74FF40D
:10A0E000746243F8202C96E71C4B3D229A6092E75D
:10A0F0004FF4741243F8382C8DE74FF0746243F834
:10A10000502C88E7164A43F8642C84E7154A43F834
:10A110007C2C80E7144A43F8942C7CE74FF03D52A6
:10A1200043F8AC2C77E700BFB1BD0020B0BD0020E4
:10A1300054590020106002402860024040600240F4
:10A14000586002407060024088600240A060024097
:10A15000B86002403F801CF0901600200060024072
:10A160003D000020400F002000003D20B4BD002035
:10A17000064B53F820302BB11A689B8851690B426B
:10A1800001D1138370475383704700BF7CB7002011
:10A190002DE9F04FDFF834C1494CDFF834E1DFF846
:10A1A0003481484E824648481AF1FF3AC0F0868012
:10A1B000DCF80430C3F30803002B5ED1EFF3118306
:10A1C000002B5AD10568A26803689D42FAD1336812
:10A1D0009A42F7D8DEF800704FF47A7101FB07F36A
:10A1E0009B1AB3FBF7F301FB0535DCF80430C3F32E
:10A1F00008034FF010094FF47A77F3B9EFF31183A6
:10A20000DBB90368A16802689342FAD132689142CF
:10A21000F7D8DEF8002007FB02FBABEB0101B1FB36
:10A22000F2F107FB03135B1BB3F57A7FBCD2DCF8BA
:10A230000430C3F30803002BE0D0EFF3118189F35E
:10A240001288D4F808B02368DB0304D50123C8F8CA
:10A250000030D4F808B00368D8F80020C9B281F300
:10A260001188DEF80010134407FB01F2A2EB0B0289
:10A27000B2FBF1F207FB0323D5E7EFF311831022C2
:10A2800082F31288A1682268D20303D50122C8F89C
:10A290000020A168D0F80090D8F80050DBB283F31A
:10A2A0001188DEF800704FF47A724D4402FB07F318
:10A2B0005B1AB3FBF7F302FB053596E7BDE8F08FB9
:10A2C00010E000E0B4B7002014B1002000ED00E081
:10A2D000B0B70020ACB7002030B4EFF311831022E8
:10A2E00082F31288084809490268094D094C013275
:10A2F00002608A682A6000222260DBB20A6883F367
:10A30000118830BC704700BF14B1002010E000E09D
:10A31000B4B70020ACB7002038B5254B5C69E26BC0
:10A32000236E62B1226CC2B1998A1A88C90792B2AF
:10A3300004D5120744BF4FF6F7721A8038BD9989C9
:10A340001A88890692B2EDD59206EBD5E26AFAB187
:10A350009888216B9047236EE4E799891A880D0647
:10A3600092B2E1D51006DFD5D4E909128A420AD0AB
:10A37000A1692569885C98800132B2FBF5F105FB83
:10A380001122A262D0E7DA6822F08002DA60CBE71D
:10A390009B88E2696169DBB28B54E269E068236EF5
:10A3A0000132B2FBF0F100FB1122E261BAE700BF1B
:10A3B0005865002038B5254B5C68E26B236E62B1AE
:10A3C000226CC2B1998A1A88C90792B204D51207C1
:10A3D00044BF4FF6F7721A8038BD99891A888906EA
:10A3E00092B2EDD59206EBD5E26AFAB19888216B6C
:10A3F0009047236EE4E799891A880D0692B2E1D559
:10A400001006DFD5D4E909128A420AD0A16925696C
:10A41000885C98800132B2FBF5F105FB1122A26243
:10A42000D0E7DA6822F08002DA60CBE79B88E26945
:10A430006169DBB28B54E269E068236E0132B2FBE2
:10A44000F0F100FB1122E261BAE700BF586500207D
:10A4500038B5254B1C68E26B236E62B1226CC2B129
:10A46000998A1A88C90792B204D5120744BF4FF6D9
:10A47000F7721A8038BD99891A88890692B2EDD58B
:10A480009206EBD5E26AFAB19888216B9047236E69
:10A49000E4E799891A880D0692B2E1D51006DFD556
:10A4A000D4E909128A420AD0A1692569885C98809A
:10A4B0000132B2FBF5F105FB1122A262D0E7DA68A6
:10A4C00022F08002DA60CBE79B88E2696169DBB247
:10A4D0008B54E269E068236E0132B2FBF0F100FBBD
:10A4E0001122E261BAE700BF58650020002A12DDA0
:10A4F00070B504460D468E18236820469B68984721
:10A500000028F9D0236815F8011B1B6820469847DE
:10A51000B542F1D170BD70470368DB6A03B11847DB
:10A52000704700BF03689B6A03B11847704700BFBC
:10A5300003682DE9F0415D6A1DB12B46BDE8F0418D
:10A540001847002A174611DD04460E460F4400E066
:10A5500023689B68204698470028F9D0236816F89E
:10A56000011B1B6820469847BE42F1D1BDE8F0812F
:10A5700003689B69184700BF03685B69184700BF01
:10A580000368DB68184700BF03689B68184700BF73
:10A5900003685B68184700BF03681B68184700BF63
:10A5A000014B1868F8E700BFFC39002038B50C46AD
:10A5B000097849B1054601342B6828461B6898473D
:10A5C00014F8011B0029F7D138BD00BF10B50409EC
:10A5D000013C072C17D80E4B33F8142000F00F0065
:10A5E00042FA00F313F001030FD0012303FA00F045
:10A5F0000138104045F0BCFB064A074B125D104481
:10A6000003EBC00010BD002010BD184610BD00BFF8
:10A61000B8700508C8700508B4AC002042692F491D
:10A6200038B5138823F040031B041B0C13801388D8
:10A6300023F038031B048A4205464FEA134345D0F2
:10A6400001F580618A420CBF082110210B43138061
:10A65000138805F1100443F0400313802421802265
:10A660002046FDF759FE6420FFF7ACFAAF22202107
:10A670002046FDF751FE0120FFF7A4FA60222321B6
:10A680002046FDF749FE6420FFF782FD95F8610042
:10A6900000B938BDFFF79AFF05F10C010446B8B1C7
:10A6A0002023002283710E4BC271EB6040F00EF943
:10A6B000A388B3FA83F3C3F11F03012212FA03F351
:10A6C000E7D008490A6813430B6038BD0821BDE78D
:10A6D000034BEB60BDE8384040F0F8B8003800406C
:10A6E000D18E0008003C01402DE9F04F4A484B490B
:10A6F0004B4B4C4C4FF0010A4FF002094FF004084D
:10A700004FF0080E4FF0100C20274026802530F81F
:10A71000022F12F0010F03D01960A3F804A0083330
:10A7200012F0020F03D01960A3F80490083312F05E
:10A73000040F03D01960A3F80480083312F0080F47
:10A7400003D01960A3F804E0083312F0100F03D00F
:10A750001960A3F804C0083312F0200F02D019606A
:10A760009F80083312F0400F02D019609E8008339A
:10A7700012F0800F02D019609D80083312F4807FA0
:10A7800005D04FF4807B1960A3F804B0083312F4AD
:10A79000007F05D04FF4007B1960A3F804B00833A4
:10A7A00012F4806F05D04FF4806B1960A3F804B0E9
:10A7B000083312F4006F05D04FF4006B1960A3F852
:10A7C00004B0083312F4805F05D04FF4805B196049
:10A7D000A3F804B0083312F4005F05D04FF4005B17
:10A7E0001960A3F804B0083312F4804F05D04FF479
:10A7F000804B1960A3F804B00833D20B04D04FF497
:10A80000004219609A80083301F58061A1427FF40B
:10A810007EAFBDE8F08F00BFB670050800000240B3
:10A82000B4AC00200020024000B9704703682DE955
:10A83000F04F03F13F4404F57E04534EA40A012572
:10A84000345D04F01F066409032C05FA06F500F0D8
:10A850009580042C00F08D80022C45D08588B5FAB7
:10A8600085F0C0F11F0080B2C40803EB840400F03F
:10A870000700266A80000F27874026EA070626621F
:10A88000276A01F003068240701E3A4301282262C3
:10A89000C1F3810EC1F300184FF000024FEA5111CD
:10A8A0004FF0010C25D94FF0030E0CFA02F0A8432B
:10A8B00015D150001F680EFA00F4E44327401F60D2
:10A8C000D3F8008006FA00F747EA08071F60DF6840
:10A8D0003C40DC60DC6801FA00F02043D8600132C3
:10A8E000102AE2D1BDE8F08F284C666C35436564D0
:10A8F000B4E74FF003090CFA02F737EA050033D149
:10A900005000D3F800A009FA00F4E4430AEA040A6C
:10A91000C3F800A0D3F800B006FA00FA4AEA0B0A1E
:10A92000C3F800A0D3F808A004EA0A0AC3F808A0F4
:10A93000D3F808B00EFA00FA4AEA0B0AC3F808A0E6
:10A94000D3F804A02AEA07075F60D3F804A008FA46
:10A9500002F747EA0A075F60DF683C40DC60DC68BA
:10A9600001FA00F02043D8600132102AC3D1BDE8BB
:10A97000F08F064C266B354325636FE7034C266C3E
:10A98000354325646AE700BF90700508003802402F
:10A9900000B97047036803F13F4202F57E022DE9DA
:10A9A000F04F920A464DAA5C02F01F05520901249D
:10A9B000032A04FA05F47ED0042A77D0022A30D084
:10A9C00001F00306721E012AC1F3810EC1F30018C3
:10A9D0008588C1F341114FF000024FF0010C25D9D9
:10A9E0004FF0030E0CFA02F0A84315D150001F6877
:10A9F0000EFA00F4E44327401F60D3F8008006FA03
:10AA000000F747EA08071F60DF683C40DC60DC684D
:10AA100001FA00F02043D8600132102AE2D1BDE8EB
:10AA2000F08F284A556C2C435464C9E74FF0030952
:10AA30000CFA02F737EA050033D15000D3F800A032
:10AA400009FA00F4E4430AEA040AC3F800A0D3F8C0
:10AA500000B006FA00FA4AEA0B0AC3F800A0D3F8DD
:10AA600008A004EA0A0AC3F808A0D3F808B00EFA4E
:10AA700000FA4AEA0B0AC3F808A0D3F804A02AEAAD
:10AA800007075F60D3F804A008FA02F747EA0A074D
:10AA90005F60DF683C40DC60DC6801FA00F0204366
:10AAA000D8600132102AC3D1BDE8F08F054A156B7A
:10AAB0002C43146384E7034A156C2C4314647FE72A
:10AAC000907005080038024010B1036882885A83EC
:10AAD000704700BF10B1036882881A83704700BFB7
:10AAE00018B10368828809B95A8370471A8370477E
:10AAF0000E4B1B8801463BB90D4B0E4A1B78106864
:10AB00000BB981F00101EBE70B4B5A691AB11A68D6
:10AB100010B910605874704708480949008891FBC3
:10AB2000F0F1012011605874704700BF88B7002011
:10AB30008AB700208CB7002090B70020A8B700206B
:10AB400020A1070010B40A4B0A4A1C780123834055
:10AB5000234052F8200029B9B3FA83F149095DF87E
:10AB6000044BBDE7191C18BF01215DF8044BB7E782
:10AB700078B700207CB700202DE9F04F85B0CDE9F3
:10AB80000210A94DDFF8C4A2029B013B02930133DE
:10AB900000F0C98240F08EFEA44CDFF8B4B2DFF8BA
:10ABA000A8C2A34E4FF4FA7301934FF0100EDCF8D5
:10ABB0000430C3F30803002B40F08B81EFF31183C3
:10ABC000002B40F086812068AA6823689842FAD159
:10ABD00033689A42F7D8DBF800704FF47A7101FBC2
:10ABE00007F39B1AB3FBF7F301FB00304FF47A77BE
:10ABF0004FF00108DCF80430C3F30803002B40F0E9
:10AC00004981EFF31183002B40F044812368A96848
:10AC100022689342FAD132689142F7D8DBF80020DB
:10AC200007FB02F9A9EB0101B1FBF2F107FB0313EA
:10AC30001B1AB3F57A7FDDD3019B013B0193B6D19B
:10AC40007C4E039B31787C4F01337868C1F340011F
:10AC5000DBB20193FFF744FF31783868C94301F054
:10AC60000101FFF73DFF019B013BDBB2FF2B01938D
:10AC700000F0C781704B5A6832B1136892885969E5
:10AC80000A4214BF5A831A836B4B1A6832B1136895
:10AC9000928859690A4214BF5A831A83674B1B88EA
:10ACA000002B40F09F81664A664B11781868FFF7C9
:10ACB00017FFFA235E484FF0100C9E46624B5B680C
:10ACC000C3F30803002B40F06381EFF31183002BE3
:10ACD00040F05E812168AA6823689942FAD103682E
:10ACE0009A42F7D8DBF800704FF47A7606FB07F348
:10ACF0009B1AB3FBF7F306FB01314FF47A76524B04
:10AD00005B68C3F30803002B40F02281EFF311834B
:10AD1000002B40F01D812368AF6822689342FAD16E
:10AD200002689742F7D8DBF8008006FB08F2D21BD6
:10AD3000B2FBF8F206FB03235B1AB3F57A7FDED38E
:10AD4000BEF1010EBAD13C4B5A6832B113689288F9
:10AD500059690A4214BF5A831A83374B1A6832B1B1
:10AD60001368928859690A4214BF5A831A83334B75
:10AD70001B88002B40F02C81314A324B1178186827
:10AD800081F00101FFF7ACFEFA239E462E4B2848C6
:10AD90005B68C3F308034FF0100C002B5AD1EFF39C
:10ADA0001183002B56D12168AA6823689942FAD1F1
:10ADB00003689A42F7D8DBF800704FF47A7606FB06
:10ADC00007F39B1AB3FBF7F306FB01314FF47A76D6
:10ADD0001D4B5B68C3F30803002B40F09980EFF331
:10ADE0001183002B40F094802368AF68226893425F
:10ADF000FAD102689742F7D8DBF8008006FB08F228
:10AE0000D21BB2FBF8F206FB03235B1AB3F57A7F81
:10AE1000DED3BEF1010E3FF426AF0B4B5B68C3F3EC
:10AE20000803002BBBD015E010E000E014B10020B7
:10AE3000B4B7002078B700207CB7002088B7002086
:10AE40008AB700208CB7002000ED00E0ACB70020EE
:10AE5000B0B70020EFF311838CF31288AE682A6834
:10AE6000D20303D50122CAF80020AE68D4F80080CE
:10AE7000DAF80010DBB283F31188DBF800704FF4CE
:10AE80007A72414402FB07F39B1BB3FBF7F302FB0F
:10AE900001319BE7EFF311818EF31288D5F808900A
:10AEA0002B68DB0344BFCAF80080D5F808902368FC
:10AEB000DAF80020C9B281F31188DBF800101344DE
:10AEC00007FB01F2A2EB0902B2FBF1F207FB03233D
:10AED000AEE6EFF311838EF31288AF682A68D203CF
:10AEE00003D50122CAF80020AF682068DAF8008094
:10AEF000DBB283F31188DBF800104FF47A72404420
:10AF000002FB01F3DB1BB3FBF1F302FB00306DE648
:10AF1000EFF311828CF31288D5F808802B68DF03D9
:10AF200004D50123CAF80030D5F808802368DAF880
:10AF30000090D2B282F31188DBF800704B4406FB1C
:10AF400007F2A2EB0802B2FBF7F206FB03235CE771
:10AF5000EFF311828CF31288D5F808802B68DF0399
:10AF600004D50123CAF80030D5F808802368DAF840
:10AF70000090D2B282F31188DBF800704B4406FBDC
:10AF800007F2A2EB0802B2FBF7F206FB0323D3E6BB
:10AF9000EFF311838CF31288AE682A68D20303D5CD
:10AFA0000122CAF80020AE68D4F80080DAF8001058
:10AFB000DBB283F31188DBF800704FF47A724144FE
:10AFC00002FB07F39B1BB3FBF7F302FB013194E693
:10AFD000564B5A69002A3FF4D7AE196800220A601E
:10AFE0005A74D1E6514B5A69002A3FF462AE504A76
:10AFF000196810884F4A92FBF0F201200A605874D9
:10B0000057E6DFF838C14C4E4FF47A730193DCF801
:10B010000430C3F308034FF0100E002B45D1EFF3BB
:10B020001183002B41D12068AA6823689842FAD185
:10B0300033689A42F7D8DBF800704FF47A7101FB5D
:10B0400007F39B1AB3FBF7F301FB00304FF47A7759
:10B050004FF00108DCF80430C3F30803002B43D1A0
:10B06000EFF31183002B3FD12368A9682268934234
:10B07000FAD132689142F7D8DBF8002007FB02F9D9
:10B08000A9EB0101B1FBF2F107FB03131B1AB3F5A6
:10B090007A7FDFD3019B013B01933FF475ADDCF870
:10B0A0000430C3F30803002BB9D0EFF311838EF300
:10B0B0001288AF682A68D20303D50122CAF800209B
:10B0C000AF682068DAF80080DBB283F31188DBF820
:10B0D00000104FF47A72404402FB01F3DB1BB3FB18
:10B0E000F1F302FB0030B1E7EFF311818EF3128828
:10B0F000D5F808902B68DB0344BFCAF80080D5F868
:10B1000008902368DAF80020C9B281F31188DBF8CF
:10B110000010134407FB01F2A2EB0902B2FBF1F2AB
:10B1200007FB0323B2E705B0BDE8F08F90B700201E
:10B13000A8B7002020A10700B4B7002000ED00E070
:10B1400038B5074B03EBC0052C796A794C40A24215
:10B1500005D053F830002146FFF7C2FC6C7138BDB2
:10B160005CBA002030B1036882881B691A4214BFA0
:10B1700001200020704700BF2DE9F0410B4E3468DC
:10B1800073691C400FD0DFF828800127B4FA84F3DC
:10B19000C3F11F0307FA03F558F823000368984723
:10B1A000AC437561F2D1BDE8F08100BF003C0140C5
:10B1B0008CB000202DE9F0410B4E346873691C40BF
:10B1C0000FD0DFF828800127B4FA84F3C3F11F03FE
:10B1D00007FA03F558F8230003689847AC437561F4
:10B1E000F2D1BDE8F08100BF003C01408CB00020EE
:10B1F0002DE9F0410B4E346873691C400FD0DFF825
:10B2000028800127B4FA84F3C3F11F0307FA03F57A
:10B2100058F8230003689847AC437561F2D1BDE844
:10B22000F08100BF003C01408CB000202DE9F041CE
:10B230000B4E346873691C400FD0DFF8288001275B
:10B24000B4FA84F3C3F11F0307FA03F558F8230097
:10B2500003689847AC437561F2D1BDE8F08100BF47
:10B26000003C01408CB000202DE9F0410B4E3468C9
:10B2700073691C400FD0DFF828800127B4FA84F3EB
:10B28000C3F11F0307FA03F558F823000368984732
:10B29000AC437561F2D1BDE8F08100BF003C0140D4
:10B2A0008CB000202DE9F0410B4E346873691C40CE
:10B2B0000FD0DFF828800127B4FA84F3C3F11F030D
:10B2C00007FA03F558F8230003689847AC43756103
:10B2D000F2D1BDE8F08100BF003C01408CB00020FD
:10B2E0002DE9F0410B4E346873691C400FD0DFF834
:10B2F00028800127B4FA84F3C3F11F0307FA03F58A
:10B3000058F8230003689847AC437561F2D1BDE853
:10B31000F08100BF003C01408CB00020084A094881
:10B3200008B5536C43F4804353640021402246F037
:10B330007FFA054B4FF0FF321A60C3F8032008BDB7
:10B34000003802408CB00020CCB00020002837D05C
:10B35000F0B41C490579002301E0152B2DD003EB37
:10B36000430201338C5CAC420A44F6D192F902707C
:10B3700004684579FBB2022B1FD81348134907EB29
:10B3800047060246B600002304E00133172B14D011
:10B3900052F82C1F8C42F8D11179A942F5D191199C
:10B3A000C9680029F1D02C2202FB03F308330C22D8
:10B3B00012FB07331844F0BC70470020F0BC704704
:10B3C000704700BF4CBB0020907A05080000014088
:10B3D000D3B2012B23D8F0B4124F02EB4206002562
:10B3E0003C46B6002B4604E00133172B14D014F86A
:10B3F0001C5FA842F8D165788D42F5D1A519AD68DA
:10B40000002DF1D0C3EBC3039B000C20043310FBD1
:10B410000233F818F0BC70470020F0BC70470020E1
:10B42000704700BF441905082DE9FF47B2F1FF3FFF
:10B430000546894692461F46BDF830400D9E20D0F5
:10B4400001F10108CDE9008239460368134A20461C
:10B45000B04752465FFA89F12879FFF7B9FF00B18A
:10B4600000880F4AC3B20393C0F30323000B029377
:10B47000CDE900802B6839462046B04704B0BDE8CE
:10B48000F0876306FAD44B1C0C930368054A3946CF
:10B490002046B44604B0BDE8F04760470D86050875
:10B4A0001A8605083E86050810B58B6801600446BB
:10B4B0009847FF2300210122E3812173627310BDAD
:10B4C00003681B6A184700BF70B44E1C0568C2723F
:10B4D0008672AC69A44670BC604700BF2DE9F0419C
:10B4E000044618460D4616461F4643F0FBFE284408
:10B4F000A0722068E672294645693B4632462046DE
:10B50000AC46BDE8F0416047036810B504461B68CF
:10B510009847236820469B689847E37B0133E37391
:10B5200010BD00BF10B5036804469B689847FF2311
:10B530000122A373627310BD70B5054600780E46F4
:10B54000FFF744F8044618B13B2301368371C671F6
:10B5500020466978FFF71CFAAB7820461BB1BDE89E
:10B560007040FFF7B7BABDE87040FFF7ADBA00BF53
:10B57000427A4AB110B5044604F10A01D0E900301C
:10B5800098470023637210BD704700BF28B1302870
:10B5900001D0312802D129B3002070473228FAD0D7
:10B5A0003328F8D03428F6D03528F4D02028F2D02B
:10B5B0002128F0D01028EED01128ECD01228EAD0A3
:10B5C0001328E8D01428E6D01528E4D0162803D193
:10B5D000B1FA81F0400970471728DDD1B1FA81F046
:10B5E0004009704701207047302828D0312828D0E2
:10B5F000322828D0332828D0342828D0352828D0FD
:10B6000020282AD021282AD0102824D0112828D058
:10B61000122828D0132828D0142828D0152828D05C
:10B62000162805D0172808BF0F2202D00020704727
:10B630000E22114B03EBC20393F8F4027047002271
:10B64000F7E70122F5E70222F3E70322F1E70422FC
:10B65000EFE70522EDE70822EBE70622E9E70722FC
:10B66000E7E70922E5E70A22E3E70B22E1E70C22FC
:10B67000DFE70D22DDE700BFD8180508024B0146C1
:10B680001868FCF7EDBE00BFF038002038B5064D55
:10B69000441E14F8011F286811B9BDE8384067E757
:10B6A000FCF7DEFEF5E700BFF03800200048EDE7CC
:10B6B000CC96050808B5FFF7E9FFBDE80840F5E7B7
:10B6C00010B504460348FFF7E1FF2046BDE81040EF
:10B6D000F0E700BF4D86050808B532B1C30600D5B6
:10B6E00019B11046FFF7ECFF0022104608BD2DE906
:10B6F000F04F0A468BB000210546FFF7EDFF714C75
:10B70000064604F1480B00276F4B93F80080A37A9C
:10B71000BB4200F395800C345C45F4D140F2162016
:10B72000FDF732FBD0E9014AB8F1000F01D1A24682
:10B7300044461522002104A846F07AF8002707EBBA
:10B7400047091AF80980B8F1000F3CD00AEB090B41
:10B7500040469BF801101AF0DBFD9BF90230029085
:10B760000393002C00F0AB80002303EB4302A25CA8
:10B77000424540F0A080A14404AA012399F9029017
:10B78000D355039B4B45324614BF01210021284667
:10B790000CBF4FF0010B4FF0000BFFF79DFF06466B
:10B7A00044B14A4B0299CDE900534A465B464046B4
:10B7B000FCF78AFE464BDDE90212CDE90053404614
:10B7C0005B46FCF781FE0137152FB8D1ACB30027DB
:10B7D00004AB13F80790B9F1000F2BD107EB470822
:10B7E00014F8080030B304EB080B9BF90220013277
:10B7F00020D09BF801101AF08BFD324682460121C1
:10B800002846FFF769FF314B9BF902205146064657
:10B8100014F80800CDE900534B46FCF755FE2C4BBD
:10B8200014F808004FF0FF32CDE9005351464B4663
:10B83000FCF74AFE0137152FCAD10BB0BDE8F08FD7
:10B84000E088FDF7A1FAD0E90131B8F1000F01D18C
:10B8500019464346227A607A07FB020211F90290E8
:10B8600033B313F902800293C145324614BF01215C
:10B87000002128460CBF4FF0010A4FF0000AFFF7E5
:10B880002BFF029B064643B1104B4246CDE90053C5
:10B89000394653462046FFF7C7FD0D4B3946CDE9E3
:10B8A00000534A4653462046FFF7BEFD01372BE7BB
:10B8B0004FF0FF38D7E70133152B7FF456AF4FF029
:10B8C000FF395EE79C0100209016002069BF000848
:10B8D000CDBE00082DE9F04F05468BB040F2162092
:10B8E0000E46FDF751FA3246044600212846FFF77E
:10B8F000F3FE414AD4E90193147806460CB14C4654
:10B9000099461522002104A845F092FF002719F856
:10B9100007A0BAF1000F34D009EB07035B7803935B
:10B92000002C66D0224600231178514559D192F857
:10B9300001800AAA1344012203F8182C039B98459E
:10B94000324614BF0121002128460CBF4FF0010BE5
:10B950004FF0000BFFF7C0FE064654B1B8F1000FE0
:10B9600007D0264B00935A462B4641465046FCF7DB
:10B970008CFD234B00935A462B4603995046FCF707
:10B9800084FD03373F2FC2D144B3DFF87090DFF856
:10B9900070A0002704ABDB5DEBB907EB470814F898
:10B9A0000830C3B116B13046FFF78AFE04EB080336
:10B9B00014F808005978CDF800902B460022FCF7C7
:10B9C00064FD002214F80800CDF800A02B461146B3
:10B9D000FCF75BFD00260137152FDBD10BB0BDE86E
:10B9E000F08F0133152B02F103029DD14FF00008B7
:10B9F000A4E7A046A2E700BF9016002069BF000898
:10BA0000CDBE0008024A136823EA000010607047A8
:10BA100010D00020DFED2B7AB4EEE70AF1EE10FA39
:10BA20004ADDDFED296A9FED297A01E0B0EE670A71
:10BA3000B4EEC70AF1EE10FA70EE667AF6DC9FED0E
:10BA4000247AF4EEC77AF1EE10FA38D5DFED1E6AEB
:10BA50009FED207A01E0F0EE407AF4EEC77AF1EE45
:10BA600010FA37EEA60AF6D4DFED1B7AB4EEE70A39
:10BA7000F1EE10FA14DDDFED137A37EEC00A60EE56
:10BA8000006A9FED166A9FED167ADFED167AA6EE34
:10BA9000867A20EE266AE6EE877AA6EE270A7047B7
:10BAA000DFED117AB4EEE70AF1EE10FA44BFDFEDF4
:10BAB000087A37EEC00AE2E7F0EE407ABFE7B0EE70
:10BAC000670AD1E7DB0F4940DB0FC940E4CB1641E1
:10BAD000DB0F49C0E4CB16C1DB0FC93F92E741B988
:10BAE0009730083C15A82ABEDB0FC9BFF0EEC07A1C
:10BAF000B0EEE07AB4EEE77AF1EE10FAB4BFB0EE51
:10BB0000676AB0EE476AB5EE406AF1EE10FA46D0C9
:10BB1000B4EEE77AF1EE10FA8CBFF0EE675AF0EE71
:10BB2000475AC5EE866A9FED1F3A9FED1F6A9FED4B
:10BB30001F4A9FED1F5ADFED1F3ADFED1F4ADFED71
:10BB40001F5AA6EEC36AE6EEA34AA6EE864AB7EEF1
:10BB5000006AA6EE845AA6EEA46AE6EE855AC5EE01
:10BB6000866AB4EEE77AF1EE10FA48BFDFED147A98
:10BB7000F5EEC00A48BF77EEE66AF1EE10FA48BF6C
:10BB8000DFED107AB5EEC00A48BF77EEE66AF1EE57
:10BB900010FA48BFF1EE666AB0EE660A7047DFED54
:10BBA000076ADEE739094E3DE3B59E3E88FA163E48
:10BBB00045FE7F3F99FB243F69A2163EA7DFA834CC
:10BBC000DB0FC93FDB0F4940DFED317A30EE277ADA
:10BBD000FDEEC76A16EE903A2033402B02D99FED56
:10BBE0002D0A7047B4EEE70AF1EE10FA4DDD9FED35
:10BBF0002A6ADFED2A6A01E0B0EE677AB4EEE67AEF
:10BC0000F1EE10FA77EE467AF6DC9FED257AF4EE47
:10BC1000C77AF1EE10FA35D5DFED1F6A9FED217A74
:10BC200001E0F0EE407AF4EEC77AF1EE10FA37EE6A
:10BC3000A60AF6D4DFED167AB4EEE70AF1EE10FAB2
:10BC40001BDCDFED197AB4EEE70AF1EE10FA44BF1F
:10BC5000DFED137A37EEC00A60EE006A9FED136ADB
:10BC60009FED137ADFED137AA6EE867A20EE266A30
:10BC7000E6EE877AA6EE270A7047DFED0F7A37EEF9
:10BC8000C00AE9E7B0EE670AD4E7F0EE477ABCE70E
:10BC9000DB0FC93F00000000DB0FC940E4CB1641B9
:10BCA000DB0F49C0E4CB16C1DB0FC9BF92E741B936
:10BCB0009730083C15A82ABEDB0F494010B44C0948
:10BCC000012250F8243001F01F0102FA01F123EAA9
:10BCD000010340F824305DF8044B704710B44C0960
:10BCE000012250F8243001F01F0102FA01F10B4348
:10BCF00040F824305DF8044B704700BF4B0901F059
:10BD00001F0150F82320012303FA01F1114214BF4F
:10BD100018460020704700BF2DE9F043002489B089
