:020000040800F2
:10000000000001201542050895420508E9F602089E
:100010004DF70208954205089542050800000000CA
:1000200000000000000000000000000095420508EC
:1000300095420508000000009542050899F702085E
:100040009542050895420508954205089542050820
:100050009542050895420508B54F0308E15003088D
:10006000A5500308695003082D50030871110108B9
:100070006111010851110108411101082D110108F8
:100080001911010805110108954205089542050856
:10009000954205089542050895420508F14F030869
:1000A000A5E000082DE1000895E0000855E10008F2
:1000B0001DE100080DE10008FDE0000881110108C4
:1000C000A5110108954205089542050895420508C5
:1000D000954205083DDC000831DC000825DC0008FD
:1000E000794F0308954205089542050885E0000808
:1000F000B5E0000895420508DDE00008F1100108B0
:100100009542050895420508EDE00008954205086E
:1001100019DC00080DDC0008954205082B0B0208CD
:10012000DD100108C9100108B5100108A11001086F
:100130008D10010800000000000000000000000019
:100140000000000000000000000000006B15020825
:1001500079100108651001085110010801DC000840
:1001600095420508954205089542050895420508FF
:1001700095420508954205080000000000000000B7
:1001800095420508954205089542050895420508DF
:1001900095420508954205080000000095420508B3
:1001A000000000000000000000000000954205086B
:1001B0009542050895420508000000000000000077
:1001C000000000000000000000000000000000002F
:1001D000000000000000000000000000954205083B
:0801E000643D05000100000070
:1001E800100201007C20012078200120000000007E
:1001F800C40700081F021000982001208820012051
:1002080000000000B984000803000100D447012061
:10021800E447012000000000000000001010020068
:10022800DC470120E847012000000000C60700085D
:1002380025102C01E4440120EC47012000000000B7
:100248000000000019000500804401201849012021
:1002580000000000C80700081A000E001C41012019
:100268002049012000000000CE070008F821060000
:10027800884301203049012000000000DC07000805
:1002880020320A0090430120384901200000000074
:10029800C91F010815007000984201204449012037
:1002A80000000000000000002A006000BC4301209C
:1002B800B449012000000000351801080B301A006D
:1002C800D4530120CC5E012000000000E4070008A0
:1002D8001F3024009C530120E85E0120000000002C
:1002E8000008000805020400C85C01200C5F01201A
:1002F800000000002408000803010A004C530120F4
:10030800105F0120000000002808000801200C00F0
:1003180088660120546E01200000000032080008A1
:100328000A70280028650120606E01200000000086
:1003380065C903080EB08601A0630120886E0120FC
:1003480000000000E91F010801010400F862012013
:1003580010700120000000000000000000010400EF
:10036800F062012014700120000000003E0800081F
:1003780002010300EC620120187001200000000057
:10038800C1E8040822021401246B01201C7001201A
:1003980000000000AD8C00080C20CC007065012026
:1003A800307101200000000081E804080102050006
:1003B80004630120FC71012000000000D9480208F4
:1003C80000020500046A01200472012000000000F8
:1003D800000000001B021000D06901200C720120EF
:1003E80000000000218300081E0006005467012059
:1003F8001C72012000000000420800081B100C00BD
:10040800A46001202472012000000000995802080D
:100418002102F000285F0120307201200000000056
:100428008D5202081A023C0020740120F87601203F
:10043800000000005D8A00082700040018740120ED
:100448003477012000000000480800083810010037
:100458003C73012038770120000000004C08000898
:100468002C00100000810120F08001200000000015
:1004780055E503082B002400348101201081012058
:100488000000000025E5030829207800F47F0120FA
:100498005881012000000000000000002810100012
:1004A800E0810120D081012000000000BDC90308BF
:1004B800F6210C007C7F0120F08101200000000063
:1004C800500800081C0210007C7C0120408201209A
:1004D80000000000F582000823121000C08A0120E5
:1004E8004C8B0120000000005C0800080510060085
:1004F800B88A01205C8B0120000000006C0800080D
:1005080037102800FC8A0120648B012000000000BD
:10051800720800080E020200B08A01208C8B0120AC
:10052800000000009A080008161006002883012021
:10053800908B0120000000009C0800082F1022006A
:10054800288B0120988B012000000000A2080008D9
:10055800F551900058820120BC8B0120000000005A
:10056800BD51020826100C00588C01204C8C01202B
:1005780000000000C93804081400030000870120A7
:10058800908C012000000000C408000823100E0011
:1005980008A401208CA5012000000000D5C903088B
:1005A8000D003C0088A301209CA50120000000004C
:1005B8003984030804008000CCA20120D8A50120BA
:1005C800000000000000000013000400ACA201209D
:1005D80058A6012000000000C8080008FD011E0000
:1005E8008CA201205CA601200000000095AF020843
:1005F8001820300058A201207CA60120000000002D
:10060800098C000806101A003CA20120ACA60120A3
:100618000000000049200108FB01010038A2012068
:10062800C8A60120000000007D8C0008FC0109001C
:1006380004A10120CCA60120000000008D8C000838
:1006480016023F00C4A00120D8A601200000000027
:100658006583000834001000F49F012018A70120CA
:10066800000000001920010811020800CC9F012099
:1006780028A7012000000000CC080008121204007E
:10068800C49F012030A7012000000000D408000802
:1006980012201000B49F012034A7012000000000A0
:1006A800D8080008F9010400089C012044A701208B
:1006B80000000000511F030813020400049C0120DD
:1006C80048A7012000000000E8080008FA0102001D
:1006D800AC9901204CA701200000000051850008BA
:1006E80002020300BC90012050A701200000000076
:1006F800000000000C020400A890012054A701206B
:1007080000000000A1840008FE011400A09601204A
:1007180058A70120000000003583000807020200E6
:1007280008AF01208CAF012000000000EC08000891
:1007380003123D002CAF012090AF01200000000003
:10074800EE08000802000C00DCAE0120D0AF01204A
:10075800000000000000000006021000CCAE0120DE
:10076800DCAF012000000000F98A0008081214001C
:1007780054AB0120ECAF01200000000045840008C4
:10078800F70106004CAB012000B00120000000007A
:100798002C0900081D02020048AB012008B0012006
:1007A80000000000320900080A020A00B8AA012065
:0C07B8000CB001200000000089EA0408D9
:1007C400000000050000280100007E05EA05B405CC
:1007D4003200E803D00700000401F4011400000013
:1007E400AE014A015E012C01640101000000010018
:1007F4000A019A01001E0A00000000000000000027
:1008040000010000000500000102030000000000D8
:10081400000000000000000000000000008007004D
:1008240000000000040101006C1600000000E80351
:100834006400040A000114001E00C201000000004C
:100844000100000020030000000000000000000080
:10085400010000000202000000000000000000008F
:100864000000000000000000200001010000200042
:100874003200C800D0079600140032002800B004EB
:1008840040060005500014000F0008006400010039
:10089400000005000A000000C4090000190000005F
:1008A4000000000000000000000000000000000044
:1008B4000000000000000000000000000000000034
:1008C40003000000088445303E29000001010101B5
:1008D400FFFFFFFF000000010000054A4837440005
:1008E4000008000000000100013C000000000000BE
:1008F40000000000000000000000000000000000F4
:1009040000000000000000000000000000000000E3
:1009140000000000000000000000000000000000D3
:1009240000000000000001003F0100000000000082
:1009340069FD010875F20108F922020800000000AF
:1009440000000000F9140208F5130208000000007A
:10095400000000000000000041E4010835E4010843
:1009640029E401081DE40108F9F2000835850008AE
:10097400318500082D850008F98C000829850008B8
:1009840025850008A8630508FF01FF000068214CC5
:100994001F0000001C0000001F0000001E000000DB
:1009A4001F0000001E0000001F0000001F000000C8
:1009B4001E0000001F0000001E0000001F000000B9
:1009C4000000000004010000000700000000000017
:1009D4000000000000020000100000000000000001
:1009E4000000000007000000B00100000200000049
:1009F40009000000FFFFFFFF7D0000000000803FB2
:100A04000000000000000000000000000000803F23
:100A140000000000000000000000000000000000D2
:100A240000000000000000000000000000000000C2
:100A3400000000000000803F0000000000000000F3
:100A44000000000001000000FFFFFFFF0000803FE6
:100A54000000000000000000000000000000803FD3
:100A640000C20100000008000A0600020000004065
:100A74000100000009026400030100C032090400FF
:100A840000010300000009211101000122260007D2
:100A940005830308000A080B01020202010009048D
:100AA40001000102020100052400100105240100D7
:100AB4000204240202052406010207058203080039
:100AC400FF09040200020A000000070501024000B9
:100AD4000007058102400000FFFD0108BFF2010884
:100AE400FD24020800000000A1E40108FFE401085D
:100AF400CDE4010800000000000000000000000038
:100B040089E4010895E401087DE4010871E4010821
:100B14001A030000000000000000000000000000B4
:100B240000000000000000000000000004030904AD
:100B34000A0600020000004001000000090720002E
:100B4400010104C03209040000020806500507052B
:100B54008102400000070501024000000902200054
:100B6400010104C03209040000020806500507050B
:100B74008102400000070501024000000902200034
:100B8400010104C0320904000002080650050705EB
:100B94008102000200070501020002000A060002A9
:100BA400000000400100000009022200010100E0F1
:100BB40032090400000103010200092111010001AE
:100BC4002226000705830308000A00000A06000223
:100BD400000000400100000009074300020104C0B6
:100BE400320904000001020201000524001001057D
:100BF40024010001042402020524060001070582E1
:100C0400030800FF09040100020A000000070501AF
:100C14000240000007058102400000000902430071
:100C2400020100C03209040000010202010005248F
:100C34000010010524010001042402020524060019
:100C4400010705820308001009040100020A0000DC
:100C540000070501020002000705810200020000EE
:100C640009024300020100C032090400000102022B
:100C740001000524001001052401000104240202DE
:100C84000524060001070582030800100904010079
:100C9400020A000000070501024000000705810266
:100CA40040000000E871050800000000000000009A
:100CB4000000000000000000000000000000000030
:100CC40000000000000000000000000000FFFF0022
:100CD40000000000AA5505010000010012010002F5
:100CE4000000004083042A570002010203010000AF
:100CF4001201000202000040830440570002010276
:100D04000301000012010002EF0201408304563285
:100D14000002010203010000BC710508000000008C
:100D240000000000000000000000000000000000BF
:100D340000000000000000000000000000000000AF
:100D4400FF1FFF1F05010905A101A10005010930CD
:100D54000931093209330935093409400938158143
:100D6400257F750895088102C0C000000921110182
:100D740000012226002D202D2D202D2D2D2D202D5E
:100D84002D2D2D00000000000000000000000000D8
:100D940000000000AA550B010000AA55070100003D
:100DA400AA550902000000AA5503009F0100000093
:100DB400C012000000000100E0010100FD4802082B
:100DC4000000000048730508FFFFFFFFFF08010152
:100DD400FFFF2D202D2D202D2D2D2D202D2D2D00EF
:100DE40000000000000000000000000000000000FF
:100DF400000000000000000000000000408B050817
:100E04000000000000000000CC8B05080100000079
:100E1400FA000000010000000100000086660120C5
:100E24000000F40101000000846601200000F401C8
:100E340001000000826601200000F40101000000AE
:100E4400806601200000F401010000007E6601209C
:100E54000000F401010000007C6601200000F401A0
:100E6400010000007A6601200000F4010100000086
:100E74004550020809500208DC7805087066012014
:100E8400053201006E660120E803D007010000006E
:100E94006C660120E803D007010000006A660120A7
:100EA400E803D00701000000686601201E00B80BAB
:100EB400010000007666012005000F00010000001B
:100EC4007866012003000A00010000006666012024
:100ED4001E00F40101000000646601201400640097
:100EE40001000000726601203200E80301000000E6
:100EF400626601200000C800010000006E65012048
:100F040000C801006D650120005001006C650120DE
:100F1400005A01006A650120020000006879050892
:100F24007CE7050884E7050836A401200100C4090C
:100F34000000000034A401200100C40900000000E6
:100F440032A401200100C4090000000030A40120E3
:100F54000100C409000000002CA401200100C40900
:100F6400000000002EA401200100C40900000000BC
:100F74002AA401200100C4090000000028A40120C3
:100F84000100C409000000001763012000C801002B
:100F94001663012000C80100146301200100C80089
:100FA400010000001263012032003075320000009D
:100FB40011630120055A05000E63012000FF0100A2
:100FC4001063012001000000F00501200C630120E2
:100FD400030000007CC105080D63012000FF01002F
:100FE4000F63012001000000F00501200B630120C4
:100FF400030000007CC10508AD4F0208514F0208F0
:101004007479050898660120EE02CA080100000000
:101014009666012000C80100640000009566012066
:1010240000C8010064000000946601200200000072
:10103400547A0508FE62012080C1803E050000004C
:10104400FC62012080C1803E05000000F6620120A0
:1010540080C1803E05000000F462012080C1803E12
:1010640005000000EF62012000FF0100E86201209A
:101074006400F40101000000E762012004000000A4
:10108400607A0508E662012002000000747A05080F
:10109400916301200D000000807A05088E63012011
:1010A400006401008C630120320010270A00000054
:1010B4008B6301200D000000807A05088A630120FB
:1010C4000D000000807A05088963012002000000F9
:1010D400B87A05080000000000000000C47A050882
:1010E400805C01209CFF2C0100000000486D012061
:1010F400E0150C1700000000256A01200200000022
:10110400FC7A0508A46601200100FF7F01000000AD
:10111400A366012002000000087B050893630120F8
:1011240003000000187B05089263012003000000FF
:10113400187B05085C6501200000E803010000003D
:101144005A6501200000E8030100000058650120F1
:101154000000E80301000000566501200000E803D8
:1011640001000000546501200000E80301000000B4
:10117400526501200000E8030100000051650120D0
:10118400001401005065012003000000287B0508BD
:10119400686501200000F40101000000666501207B
:1011A4000000F40101000000646501200000F40166
:1011B40001000000626501200000F401010000004C
:1011C400606501200000803E010000005E65012092
:1011D4000000803E010000004F66012019640100F8
:1011E4004E66012002000000387B05084C66012091
:1011F400E803D0070A0000004A66012000640100E9
:101204000A0000003F660120006401003E660120E0
:101214000064010046660120006401000A00000029
:1012240045660120006401000A00000044660120B4
:10123400006401000A000000496601200064010006
:101244000A00000048660120006401000A00000052
:1012540047660120006401000A0000004366012083
:1012640001FF01000A0000004266012001FF0100A5
:101274000A0000004166012001FF01000A0000008D
:101284009C6301200000F401010000009A63012026
:101294000000F40101000000986301200000F40143
:1012A40001000000966301200000F4010100000029
:1012B400946301200000F40101000000376A01205A
:1012C40000C80100366A012000640100356A01206B
:1012D40000640100346A012000640100336A0120C3
:1012E40000640100326A0120FF080100316A012014
:1012F40001640100BD4E0208814E0208447B0508CA
:10130400306A0120006401002E6A01201400E80301
:10131400010000002C6A0120E80330750A00000077
:101324002A6A012000C80100296A012000C80100BE
:10133400286A012000C80100276A01200064010016
:101344000A000000466A01200000D00701000000E6
:10135400406A012000C801003F6A012000C8010062
:101364003E6A012000C80100446A01200000D00741
:10137400010000003D6A012000C801003C6A012010
:1013840000C801003B6A012000C80100426A012034
:101394000000D007010000003A6A012000C80100E3
:1013A400396A012000C80100386A012000C8010020
:1013B400000000006D4C0208B47B0508876301201F
:1013C40039000000507C05088663012000C8010034
:1013D40084630120E803D007010000004A48454621
:1013E400374455414C0000000A630120000301000A
:1013F4000963012000030100B94B02087D4B020878
:10140400387D0508394B0208ED4A0208A87D050815
:10141400F54B0208317F0208287E0508006301208D
:1014240001030100AD50020881500208388105080B
:10143400714A0208254A0208A8810508834C02085B
:101444004D7F020844820508399502080000000017
:10145400EC820508418302080D51020888830508BF
:10146400DD4C02080000000008840508B54D0208A0
:10147400614D02086C840508454E0208094E0208B5
:1014840008850508E1AD0208F94E020888850508BB
:101494006166012001060100254D0208F14C020895
:1014A4008486050847AD020811800208F486050801
:1014B40025AE0208A9800208F087050860660120AD
:1014C400010301003D4C02080D4C0208C4880508C4
:1014D400D95002080000000028890508BD4A020806
:1014E400017F02088C89050800000000000000004C
:1014F400188A0508294F020821810208988A0508DC
:10150400E262012088136F1701000000E4620120E9
:1015140088136F17000000007AA401200000000067
:101524000000000078A4012000000000000000007A
:1015340076A40120000000000000000074A4012033
:10154400000000000000000072A401200000000060
:101554000000000070A40120000000000000000052
:10156400800401200000000000000000B862012097
:1015740002000000208C0508E062012088136F1728
:1015840001000000C05C012088136F1700000000F8
:10159400B5490208000000002C8C0508266A0120C9
:1015A40001000000808C0508C25C012001000000DD
:1015B4008C8C0508B85C012002000000948C05089E
:1015C4000000000000000000A08C05089D490208EE
:1015D400000000003C8D0508000000000000000031
:1015E400908D05080000000000000000008E050832
:1015F400BC5C0120E0150C1700000000685E0C00C4
:10160400FF010000A00F0000B80B00000102FFFF63
:1016140001000000FFFF0000FFFFFFFFCC440608AD
:101624000000080205030400D4440608010008026F
:1016340005040400B45706080200FE01011003006B
:10164400C4EB05080300140200030000DC44060890
:1016540004001F0201000800E444060805001F02FC
:101664000101080039F2010811E4010801F201083E
:1016740015F20108C9E30108EDF10108D7F10108E9
:1016840089E201086DE2010829E201080000000076
:101694001DE2010809E20108F5E10108000000006B
:1016A400000000000000000000000000E9E1010863
:1016B40000000000DDE10108ED060208D9E101089F
:1016C40059E1010841E10108D6010000B80B00000E
:1016D40001000000000101010001010001000000FF
:1016E400FFFFFFFF648C012000000000888C0120B4
:1016F4000000000001000000100001000060024032
:10170400106002400000000000000000000B000018
:101714000000000000000000000000000060024023
:10172400286002400100000000000000060C0000D8
:101734000000000000000000000000000060024003
:10174400406002400200000000000000100D000094
:1017540000000000000000000000000000600240E3
:10176400586002400300000000000000160E000054
:1017740000000000000000000000000000600240C3
:10178400706002400400000000000000200F000010
:1017940000000000000000000000000000600240A3
:1017A40088600240050000000000000026100000D0
:1017B4000000000000000000000000000060024083
:1017C400A06002400600000000000000301100008C
:1017D4000000000000000000000000000060024063
:1017E400B86002400700000000000000362F00002F
:1017F400000000000000000000000000006402403F
:1018040010640240000000000000000000380000E6
:10181400000000000000000000000000006402401E
:1018240028640240010000000000000006390000A6
:1018340000000000000000000000000000640240FE
:10184400406402400200000000000000103A000062
:1018540000000000000000000000000000640240DE
:10186400586402400300000000000000163B000022
:1018740000000000000000000000000000640240BE
:10188400706402400400000000000000203C0000DE
:10189400000000000000000000000000006402409E
:1018A4008864024005000000000000002644000097
:1018B400000000000000000000000000006402407E
:1018C400A064024006000000000000003045000053
:1018D400000000000000000000000000006402405E
:1018E400B864024007000000000000003646000013
:1018F4000000000000000000000000006845060829
:101904001850060800000000D5E80408A08601006D
:1019140004000000000000000000000000000000BF
:1019240000000000000000000000000000000000B3
:1019340000000000000000000000000068450608E8
:10194400BC5006080000000059AF0208E80300007C
:10195400040000000000000000000000000000007F
:101964000000000000000000000000000000000073
:1019740000000000000000000000000054EF050813
:10198400681A06080000000001B901087D00000083
:10199400060000000000000000000000000000003D
:1019A4000000000000000000000000000000000033
:1019B400000000000000000000000000B844060819
:1019C4000000000000000000B5C30208E8030000A6
:1019D4000300000000000000000000000000000000
:1019E40000000000000000000000000000000000F3
:1019F400000000000000000000000000C4500608C1
:101A04000000000000000000CD6C01081027000059
:101A140003000000000000000000000000000000BF
:101A240000000000000000000000000000000000B2
:101A3400000000000000000000000000D844060878
:101A440000000000C1E1030841CC02085F760000F9
:101A5400050000000000000000000000000000007D
:101A64000000000000000000000000000000000072
:101A74000000000000000000000000001C480608F0
:101A84000000000000000000751703081027000084
:101A94000100000000000000000000000000000041
:101AA4000000000000000000000000000000000032
:101AB400000000000000000000000000D0500608F4
:101AC40000000000000000005DAF0208E803000011
:101AD40005000000000000000000000000000000FD
:101AE40000000000000000000000000000000000F2
:101AF400000000000000000000000000DC500608A8
:101B040000000000000000001D110508204E000028
:101B140003000000000000000000000000000000BE
:101B240000000000000000000000000000000000B1
:101B3400000000000000000000000000EC50060857
:101B44000000000000000000090F0508204E0000FE
:101B5400030000000000000000000000000000007E
:101B64000000000000000000000000000000000071
:101B7400000000000000000000000000FC50060807
:101B8400000000000000000021B50208400D030021
:101B9400030000000000000000000000000000003E
:101BA4000000000000000000000000000000000031
:101BB40000000000000000000000000028460608A5
:101BC40000000000000000008D9C030810270000A6
:101BD4000100000000000000000000000000000000
:101BE40000000000000000000000000000000000F1
:101BF40000000000000000000000000064F8050878
:101C04000000000000000000096402081027000022
:101C140003000000000000000000000000000000BD
:101C240000000000000000000000000000000000B0
:101C3400000000000000000000000000BC44060892
:101C440000000000000000000DB3020850C30000B3
:101C5400010000000000000000000000000000007F
:101C64000000000000000000000000000000000070
:101C7400000000000000000000000000B0EA0508B9
:101C8400000000000000000011B00208A86100007C
:101C9400010000000000000000000000000000003F
:101CA4000000000000000000000000000000000030
:101CB4000000000000000000000000000C510608B5
:101CC4000000000000000000E5980208A086010062
:101CD40001000000000000000000000000000000FF
:101CE40000000000000000000000000000000000F0
:101CF4000000000000000000000000002448060866
:101D04000000000000000000F5F80208A00F000029
:101D140001000000000000000000000000000000BE
:101D240000000000000000000000000000000000AF
:101D34000000000000000000000000001851060828
:101D44000000000000000000D95302081027000022
:101D5400010000000000000000000000000000007E
:101D6400000000000000000000000000000000006F
:101D7400000000000000000000000000E4F6050878
:101D84000000000000000000158204081A41000051
:101D9400010000000000000000000000000000003E
:101DA400000000000000000000000000000000002F
:101DB40000000000000000000000000070EA0508B8
:101DC400000000000000000029EE010810270000B8
:101DD40001000000000000000000000000000000FE
:101DE40000000000000000000000000000000000EF
:101DF4000000000000000000000000002C50060855
:101E04000000000000000000C9A002081A41000000
:101E140001000000000000000000000000000000BD
:101E240000000000000000000000000000000000AE
:101E3400000000000000000000000000245106081B
:101E44000000000000000000ADF40108400D030094
:101E5400000000000000000000000000000000007E
:101E6400000000000000000000000000000000006E
:101E74000000000000000000000000002C510608D3
:101E84000000000000000000F7830308400D030079
:101E9400000000000000000000000000000000003E
:101EA400000000000000000000000000000000002E
:101EB400000000000000000000000000345106088B
:101EC4000000000000000000B189020850C30000B7
:101ED40003000000000000000000000000000000FB
:101EE40000000000000000000000000000000000EE
:101EF400000000000000000000000000405106083F
:101F04000000000000000000810E050840420F00A0
:101F140000000000000000000000000000000000BD
:101F240000000000000000000000000000000000AD
:101F34000000000000000000000000004C510608F2
:101F440000000000000000006199030850C3000075
:101F5400000000000000000000000000000000007D
:101F6400000000000000000000000000000000006D
:101F74000000000000000000000000000000803F9E
:101F8400000000007CAF01200800000000000000F9
:101F94006CAF012008000000E4E60508445606087A
:101FA400505606085C560608685606087456060815
:101FB400E4F705086C1C0608781B06080856060892
:101FC40088490608AC490608385606083C560608EF
:101FD40040560608805606088456060888560608A1
:101FE400EC1906088C5606081900C800F4012003F1
:101FF400C4160120000000000000000000000000E2
:1020040000000000000000000000000000000000CC
:1020140000000000000000000000000000000000BC
:1020240000000000000000000000000000000000AC
:10203400000000000000000000000000000000009C
:10204400000000000000000000000000000000008C
:042054000000000088
:10205800440700200000000000000000010000000C
:0C2068000000803F0000803F20000000CE
:1080000003685A1C02601970704700BF2DE9F047E1
:10801000089C002B8846074621780CBF4FF02009AA
:108020004FF03009651C29B3002A27DD2B4601E0FB
:108030000246A8B113F8016B501E002EF8D1961E0F
:1080400070B1B2460AF1FF3A49463846C0470AF1D4
:108050000103002BF6DC26EAE6702178013039B105
:10806000041B3846C047281915F8011B0029F8D110
:10807000BDE8F087002A03DC0846F9E70020EFE7B7
:10808000561EDEE72DE9F84F14461D4606464FF40E
:108090007A720023204629464E4F4BF0EFFE4E4B9E
:1080A0004E4A40F2B55C0344DFF83CA182FB030179
:1080B000D81787FB03784A4F1944984487FB037EFF
:1080C000C0EB6111C0EBE8279E4482FB01824FEABE
:1080D000E179C0EB2E4E8AFB078A0A44C1EB011BF3
:1080E000C9EB62193F4AA3EB8B0BC9EB091982FB61
:1080F0000E824FEAE77886F806B0A1EB8901DFF837
:10810000EC90C8EBAA08717189FB03134FEAEE717A
:1081100008EB4808C1EBE212A7EBC8080CFB12E21F
:10812000C0EBE35386F80480B2F5896F4FEA830011
:108130003CDA40F2DA239A4242DCB2F5B77FDFF84C
:10814000B080B4BF4FF0000E4FF0010E4FEA4E0961
:108150001FFA8EFC09EB0E0308EBC303DF8A09EB61
:108160000E010B2308EBC101163101E031F8027D4D
:10817000974218DD013BF9D1CE44012338F83E7017
:1081800000F5FA6E0132B3702046F444D71B29463D
:108190004FF47A720023A6F800C0F7704BF06EFE21
:1081A0003281BDE8F88F0133DBB2E9E74FF0030C11
:1081B00040F29657DFF838804FF00609E646CEE7E2
:1081C0004FF0020C40F22947DFF824804FF00409F9
:1081D000E646C4E7C5B3A29180BC92C78988888867
:1081E00007452EC273B06D16ABAAAA2A792D0311CA
:1081F000986005080028F0B504DA2D2340420131CB
:1082000001F8013C092804464FF0010307DD03EBA8
:1082100083035B00B0FBF3F2092AF8D883B10E4860
:10822000A0FB0356B4FBF3F2092A02F1570C02F14A
:10823000300708DD03FB1244F30801F801CBEFD14E
:1082400000230B70F0BD03FB1244F30801F8017B1F
:10825000E6D100230B70F0BDCDCCCCCC884270B4FD
:108260004FF0010442D301FB04F4B0FBF4F58D425E
:10827000F9D2ECB142BB092D04FB150005F15706FC
:1082800005F130020EDD03F8016BB4FBF1F47CB1B3
:10829000B0FBF4F5092D04FB150005F1570605F1B7
:1082A0003002F0DC03F8012BB4FBF1F4002CEFD129
:1082B000002270BC1A707047B4FBF1F403F8016B34
:1082C000002CF5D0B0FBF4F5092D04FB150005F1E9
:1082D000370605F13002EFDC03F8012BB4FBF1F4B3
:1082E000002CEFD1002270BC1A7070470546002A9E
:1082F000EAD1C0E700232222332103700223C27097
:10830000012281734370C3714372C373827002721E
:10831000827230B4342514248571C47230BC704725
:10832000002306214FF47A7201700373C0E9012320
:10833000704700BF032232234FF6FF710272012201
:108340004370002301820270027182704381838135
:10835000C381837430B4312530244571C47030BC7E
:10836000704700BF3249334B2DE9F04F804683B050
:1083700013274FF0000A01F5907B2F4810220126A9
:1083800003E0203098420AD002799742F9D102687E
:108390000C68A24208D0203001369842F4D1203136
:1083A00059453AD00F79E8E744794D79A542F2D1A1
:1083B0000AEB4A099646214808F80970C144DFF8DB
:1083C00080C000F5727589F801607246664603E068
:1083D000A84219D050F82C6FB242F9D10679A642C2
:1083E000F6D1CF6806464FF0000C96460190F26831
:1083F000BA4215D00CF1010C0C36BCF1030FF6D1CA
:1084000001987246A842E5D14FF0FF3C203189F82F
:1084100002C00AF1010A5945C4D103B0BDE8F08F8A
:10842000086932698242E5D14FFA8CFCEEE700BF61
:108430001C70050860CF0508A0C5050860CF0508B9
:1084400000000140F0B5154B4FF0FF34FF21172716
:1084500003F10C0EA446162615250022C1700171E9
:1084600001724172417381738174C17402EB8202A3
:10847000734500EB020185544E708F7081F803C084
:108480000C710AD093F9062006335D789E78DF7868
:1084900093F904C093F90540E8E7F0BDF8600508DA
:1084A00010B42C2101240222002304704170827038
:1084B000C3705DF8044B7047FF22034600F11001C2
:1084C00070B41A70023303F8012C8B42F9D10B4BB4
:1084D0004FF0FF31002203F10F060C4605E093F93F
:1084E000044093F9051013F8032F00EB42059E4258
:1084F00000F812406970F2D170BC70470C61050839
:1085000030B41D6995420AD314460A4621448D426F
:10851000996938BF2A1B214430BC4CF0F3B930BCF8
:10852000704700BF0020704701207047012070474E
:1085300000207047054B002010B49B684FF4007476
:1085400014800B605DF8044B704700BF109C012045
:108550003D22032302704370704700BF083070470C
:10856000704700BF8161704740F2E93300E09BB182
:108570008268013B12F0020F9BB2F8D0017340F207
:10858000E93300E043B18268013B12F0010F9BB276
:10859000F8D0C068C0B270470C4A904209D00C4B6A
:1085A000984211D003F58063984201D0FF207047B4
:1085B0000223084AD82101FB03239A89013292B28F
:1085C0009A819889C0B270470123F2E700300140D8
:1085D0000038004068AB01202DE9F04FDFF8D8C12A
:1085E00085B0744CDCF800502288B4F90AA0C2EBC4
:1085F000251352005B43C2EBE502B4F902501B1392
:108600006A43B4F904505D43AD1305EBE225B5F5BB
:10861000FA324FEAE57BA5614BF1FF334FEAEA7B83
:10862000CDE90023DDE90032CDE902015343009A90
:108630000199A2FB0289B4F90820009809EB4309CB
:108640005143D31700FB0311A2FB00230B440AFB89
:1086500009F116031F0308FB0B13AAFB080147EAE5
:10866000125719444FEA102A4AEA016A4FEA212BAD
:108670001AEB0602E6884BEB070312F1000A43F5FA
:10868000004BAAFB060106FB0B114A10CB1752EA5E
:10869000030100F08C80B4F91060009806FB09F12A
:1086A000F71708FB0711A6FB0867B4F90E803944D9
:1086B0004FEAE879B2468B46019908FB01F100FBCD
:1086C0000911A8FB00898944DCF804104FEA4846E8
:1086D000C1F5801C4FEA49471AEB060A47EAD8372A
:1086E0006646B4F90C804FEACC704BEB070BF717DA
:1086F0004FEAC806F9070196002641EA5C0140F6F8
:10870000354C0096DDE9006716EB0A0647EB0B07D0
:10871000801B61EB07018946A0FB0C010CFB0911D2
:108720004BF0ACFBB4F916204E13B4F914A0470B70
:10873000804602FB06FCD31747EAC1474FEAEA7BB3
:1087400007FB03CCA2FB07236344564307FB0366E6
:10875000A2FB07233344560E46EAC3165F163218AF
:1087600047EB01030AFB01F108FB0B17AAFB080109
:108770003944C60C46EA4136CF1412EB0608B4F968
:10878000122043EB07094FEA1821130141EA09615E
:108790000B44029A0AB11B0A1360039B23B105EB39
:1087A000850580352D121D6005B0BDE8F08F0023D2
:1087B000EFE700BF3C7F012028170120704770477A
:1087C000012380F8543070474FF40063838370476F
:1087D0004FF4006383837047034610B4D0F8FC4025
:1087E000D968406964B1D3F814218C1A013A005D4C
:1087F00008BF0A465DF8044BC0B2C3F814217047A5
:108800001A6A805C01328A4228BF2246C0B25DF8F3
:10881000044B1A62704700BFD0F8003113B190F8D2
:1088200094017047D0E90903181AB0FA80F04009A2
:10883000704700BFD0E909120369914238BFC918D7
:10884000013B8A1AD0F8001131B1D0F880110968C3
:1088500049680A449A4201D2981A7047002070472A
:10886000D0F8FC306BB1D0F88431D0F814211B68FB
:108870005B689A4201D8981A7047C068801A1844F9
:108880007047D0E907239A4203D2C0681044C01A47
:108890007047D01A704700BF0138F0B54001104C46
:1088A000104E83B0255804440F4F306BBD420CBFAF
:1088B0004FF400154FF4800528433063366B94F96C
:1088C00011003540E160636191090195019B40F021
:1088D000EBF994F9110003B0BDE8F04017F00EBABF
:1088E000CC0D01200038024000600240F0B4C7699E
:1088F00082B006461FB1BB883A681B049361726957
:1089000003206D463E4C536823F48053536040F27D
:10891000E93301E0013B54D091688907FAD5002C76
:108920004CD034F8023B938140F2E93301E0013B43
:1089300047D09168C907FAD5D3680DB125F8023B35
:108940000138E4D1516840F2E93341F4805151607B
:1089500001E0013B35D091688807FAD5002C47D05B
:108960002378137340F2E93301E0013B42D0916870
:10897000C907FAD5D368F76905B12B7017B13B6801
:10898000BA889A619DF8014001209DF803309DF856
:1089900002109DF8042041EA04219DF8054042EAB6
:1089A00003229DF80630A6F8541043EA0423A6F8E3
:1089B0005620A6F8583002B0F0BC70474FF6FF734F
:1089C000B1E710498A4207D00F4B9A420ED003F507
:1089D00080639A42D2D102230C4AD82101FB03239F
:1089E0009A89013292B29A819B89C7E70123F3E702
:1089F000FF23B6E70349F7698A42E5D1ECE700BFF8
:108A000020610508003001400038004068AB0120BB
:108A100007B506236A46F7212CF0F2FE9DF80130D7
:108A20009DF800101B010B4A43EA01339DF8021028
:108A300043EA11139DF8031053609DF804301B01A5
:108A400043EA01339DF8051043EA1113136003B0A4
:108A50005DF804FB281701202DF078B91D4B1B7819
:108A600070B5044600F1250593B104221A4920305F
:108A70004DF0CCFA2846142218494DF0C7FA0123CC
:108A800084F83A30164B1B7873B984F83B3070BDCC
:108A90002846142213494DF0B9FA012384F83A30DC
:108AA0000F4B1B78002BF0D00F4A01231668556836
:108AB0009068D16826606560A060E160D169166940
:108AC0005569906984F83B3026616561A061E16178
:108AD00070BD00BF5C780120247801200C78012053
:108AE0005D780120CCE205082C780120014B186844
:108AF00026F0FCBEA476012010B4272126240122F2
:108B00000023047041708270C3705DF8044B70479D
:108B10002DE9F84F0A9E89461746002120229846E3
:108B200005460B9C4DF07CF95EB17189D6E90023B6
:108B30006982C2F30F40EA81C3F30F42EB822882BD
:108B40002A8348464AF0A4FC17F0100A0FD1431EAE
:108B500068B119F803202E2A4DD009EB030103E078
:108B600011F8016D2E2E3ED013F1FF33F8D20828F4
:108B70000246CB464FF0000AA8BF08224FF0203330
:108B800005F10806494628466B602B60C5F807309A
:108B90004BF0B8FE5246594630464BF0B3FE6A1EC3
:108BA000E81D12F8013FA3F16101203B192998BF8C
:108BB00013708242F5D105F10B0116F8013BA3F1C8
:108BC0006102203B192A98BF06F8013CB142F4D15A
:108BD000C8F30F421823EF72A5F81A80AA82EC613D
:108BE0002B73BDE8F88FC01A00F1FF3ABAF1030FFA
:108BF000A8BF4FF0030A082B03F1010BA8BF0823FD
:108C0000CB441A46BAE700BF38B5302200214DF0F8
:108C100007F940F2DC540346642140F21A4040F266
:108C20006C7240F2022519745C8213211924988217
:108C3000DA8240F2753040F643021D8399760E25A4
:108C40000A211C77D8831E2402201A84012283F86B
:108C50002D101872194683F82C0083F8225083F8DF
:108C60002E409A7383F8252083F82B200248BDE814
:108C7000384039F083BA00BFD8E2050810B5044681
:108C80000021012022F094FF207010BD38B5002390
:108C9000451E1C460372E1B20134022022F088FF17
:108CA000082C05F8010FF6D138BD00BF38B50023F8
:108CB00005461C46038021460134284620F04AFA26
:108CC000082CF8D10023284685F8E2301946A5F88B
:108CD000E430A5F8E630A5F8E830A5F8EA30A5F8C4
:108CE000EC30A5F8EE30A5F8F030A5F8F230BDE88C
:108CF000384020F0F3B900BF2DE9F04F1E4685B093
:108D00000C4600200121154622F0D0FB002E61D038
:108D10007319DFF870B3D54E02931CE0002D00F0FC
:108D2000DD81DBF81430AB4265D0DBF81030AB42AC
:108D300000F09B80DBE90631AB4253D88D42C0F096
:108D40007881691A204642F043FC0135029B04F504
:108D500000749D423ED0DBF82070AF42DED8EF1B9E
:108D6000DBF830804FEAD70AD8F8303007F0070731
:108D70000AF1020A9A4503D3D8F838309A4509D93E
:108D80004146504642F0F2FB8046002800F05681F2
:108D9000CBF8300098F80430002B40F0E980D8F888
:108DA0002890B9F1000F00F0F781D8F83010434651
:108DB000D8F80C202046AAEB010A4FF400710135C7
:108DC00004F5007407EBCA0A02EB4A22C847029B6B
:108DD0009D42C0D10021084622F068FB002005B06A
:108DE000BDE8F08F8D42ACD24FF4007200212046D6
:108DF0004DF016F8A9E7722300274FF0FF3C4FF023
:108E0000520E6122412084F8E431394684F8E5317C
:108E1000DBF82830A27084F8E7214FF4F072E0709C
:108E200084F8E601201D84F800E084F801E084F86D
:108E3000ECC1C4F8E83184F8EDC184F8EEC184F8DF
:108E4000EFC14CF0EDFF55216FF05502C4F8F07101
:108E5000C4F8F471C4F8F87184F8FC7184F8FD71F9
:108E600084F8FE1184F8FF216FE74FF400720021AF
:108E700020467F4F4CF0D4FF5821EB200222617036
:108E8000F82120704FF0080C61753F21902384F881
:108E90000DC021764FF0FF3EA370002322744FF0E7
:108EA00080082273A273E372E3736374A374E374A0
:108EB0002375A375E3756376E3766377A377E3772A
:108EC00084F81AE04FF0010E03CF3E27C4F80300E8
:108ED000C4F80710DBF80810DBF810002777081A31
:108EE000DBF81C10634F2062DBF8180084F82C209C
:108EF0000E22091A84F8283084F82930292061626A
:108F0000942184F82A3084F82B3084F82D3084F8AA
:108F10002E3084F82F3084F8313084F8323084F8E1
:108F200033300D2384F846C004F1470C84F8420026
:108F300084F8431084F8442084F845304E4B84F87C
:108F400030E04FF0AA0E84F840804FF0550807CF6C
:108F5000C4F84700CCF80410CCF8082084F8FE814F
:108F600084F8FFE103CBC4F85200C4F85610ECE6D5
:108F70004FF40072002120464CF052FFD8F84030E8
:108F8000002F63D104F120020392002B00F08980AE
:108F9000D8F83030112201972046009704F140099B
:108FA0003649FFF7B5FDD8F840301A6C002A00F0BA
:108FB0008A801B6B112201974FF4E07A0398009787
:108FC0002F49FFF7A5FDD8F8448018F1000318BF1A
:108FD0000123002B3FF4B9AE474603940CE0002474
:108FE000AAF1200AC146CDE900C4FFF791FDBF6C8C
:108FF000EFB1BAF11F0F1AD997F804E011224846D1
:1090000009F12008396807F11C0C3B6BBEF1000F19
:10901000E5D17A79AAF1200A3C69C14642F02102E1
:10902000CDE900C4FFF774FDBF6C002FE1D1039CB4
:109030008BE6E91A204642F0CBFA86E6231F04F5B8
:10904000FE7243F8046F9A42FBD17EE6002BD8F8FB
:10905000448014BF02230123B8F1000FC3EB0717AC
:1090600014BF012300232AD042460EE0DEADBEEF3E
:10907000ECE20508F8E2050808E30508E4E2050863
:10908000E8E20508109C012033B1926C013F131CEB
:1090900018BF0123002FF7DC9046A1464FF4007A59
:1090A00097E7DBF80C103B46019708220097204613
:1090B000DDF80C904FF4F07AFFF72AFD83E7A14624
:1090C0004FF4007A85E701973B46009711220398F9
:1090D0004FF4E07A4749FFF71BFD74E74FF4007245
:1090E000294620464CF09CFE80220C2384F8B8517F
:1090F00084F8BE2184F8C2313F4BDBF81020DBF846
:10910000080083FB02314FEAE27C84F8B951CCEBD2
:10911000213184F8BA5184F8BB51B1F5806F84F8DD
:10912000BC5184F8BD51C4F8C621C4F8CA0142DB61
:10913000FF2384F8BF3184F8C13184F8C031421E66
:109140002D4BD71783FB0231C7EB2131B1F5806F6F
:1091500029DA2A4B84F8C511891083FB02032848B9
:1091600021F03F011344C7EB6313C3EB831780FB6C
:1091700003C0D21B1844DF170132C7EBE0100A43CB
:10918000034484F8C42184F8C3315522AA2384F807
:10919000FE2184F8FF31D8E549464FF4007220469D
:1091A0004CF03EFED1E5FF2384F8C33184F8C5318D
:1091B00084F8C431E9E7114B84F8C111891083FBAD
:1091C00002730F4F21F03F011344CCEB6313C3EB49
:1091D000831C87FB03E7A2EB0C021F444FEAE37CEE
:1091E0000132CCEBE7170A433B4484F8C02184F8F2
:1091F000BF31A4E7E8E2050897554541832008827E
:1092000081808080F8B5EFF31184502383F31288B6
:10921000D0F800311B6813F0010303D0E4B284F3EB
:109220001188F8BD90F8892190F88A110A4302F05C
:109230002102212AF2D0D0E90912914245D095B2FB
:1092400047D94B1B9BB28162002590F8891180F8A9
:1092500094512029E2D18569D54205EB0201DDD088
:10926000B3FA83F56D09002DD8D190F88821012A31
:10927000D4D0064621220120DFF864C0A6F872315E
:10928000D6F88071C6F88C5186F88921134AA6F861
:10929000703186F888013846C6F86C113D65C7E91B
:1092A0000FC2D6F82021DFF83CC02832C7F84CC0E6
:1092B00019F0F0FDD6F8203140221A6286F8885164
:1092C0009A6842F080029A60A8E7012380F89431FE
:1092D000A4E706691946731B9BB2B4E701E60108CF
:1092E00037E601089BE50108426A10B48469A1547D
:1092F000426A04690132D0F80011A24228BF00225C
:10930000426241B9D0F820215DF8044B136843F064
:109310008003136070475DF8044B73E7436910B531
:10932000184C04EB8303986A19F016FBB4F8482034
:1093300023460C2A0DD8DFE802F0070C0C0C130CA6
:109340000C0C190C0C0C1F00A168CA6822F40072E6
:10935000CA60012283F8452000220B4B1A7010BD11
:10936000A168CA6822F48062CA60F2E7A168CA688C
:1093700022F40062CA60ECE7A168CA6822F4805255
:10938000CA60E6E728170120CF66012040699C30BB
:1093900019F0E2BA41F080BA0269C3682DE9F047DA
:1093A00012EA030927D00E4605464FF000474FF05A
:1093B0000008B9FA89F327FA03F21B3BD2432A616A
:1093C00009EA0209042B13D8DFE803F03229201739
:1093D0000300736A002B34D1EB6A1FFA83FA346AF4
:1093E00034B123682046514698476468002CF8D170
:1093F000B9F1000FDDD1BDE8F0873068696B036813
:1094000089B29847B9F1000FD3D1F4E77068A96B1E
:10941000036889B29847B9F1000FCAD1EBE7B06889
:10942000E96B036889B29847B9F1000FC1D1E2E74F
:10943000F068296C036889B29847B9F1000FB8D178
:10944000D9E703F1FF3AC6F824801FFA8AFAC6E783
:109450002DE9F04F8BB090F865300390002B40F071
:109460001785039BC3495B691A688B4222F040024F
:109470001A6000F00885C04A934200F0048538263F
:109480001D686B21039A4FF0100925F03805BB4C7D
:1094900002F1100080223543DFF8F08202901D6057
:1094A0001D68B74E45F04005B64F1D602CF08AF898
:1094B0006423DFF8DCE2B4480193DEF80430C3F340
:1094C0000803002B40F00384EFF31183002B40F0DE
:1094D000FE832568826823689D42FAD13B689A42E0
:1094E000F7D8D6F800C04FF47A7101FB0CF39B1A41
:1094F000B3FBFCF301FB05354FF47A7C4FF0010A16
:10950000DEF80430C3F30803002B40F0A383EFF32D
:109510001183002B40F09E83236881682268934268
:10952000FAD13A689142F7D832680CFB02FBABEBF8
:109530000101B1FBF2F10CFB03135B1BB3F57A7F66
:10954000DED3019B013B0193B7D10322682102982E
:109550004FF010092CF036F8DFF830826423DFF882
:1095600030E28948874F0193DEF80430C3F30803E3
:10957000002B40F08D83EFF31183002B40F08883A4
:109580002568826823689D42FAD13B689A42F7D8E1
:10959000D6F800C04FF47A7101FB0CF39B1AB3FBB1
:1095A000FCF301FB05354FF47A7C4FF0010ADEF83D
:1095B0000430C3F30803002B40F02E83EFF3118334
:1095C000002B40F029832368816822689342FAD1F6
:1095D0003A689142F7D832680CFB02FBABEB010111
:1095E000B1FBF2F10CFB03135B1BB3F57A7FDED307
:1095F000019B013B0193B7D101226B2102984FF0EF
:1096000010092BF0DFFFDFF884810F23DFF880E102
:109610005D485C4F0193DEF80430C3F30803002B70
:1096200040F0F183EFF31183002B40F0EC832568C9
:10963000826823689D42FAD13B689A42F7D8D6F8EF
:1096400000C04FF47A7101FB0CF39B1AB3FBFCF3DF
:1096500001FB05354FF47A7C4FF0010ADEF8043047
:10966000C3F30803002B40F0B982EFF31183002B02
:1096700040F0B4822368816822689342FAD13A6844
:109680009142F7D832680CFB02FBABEB0101B1FB56
:10969000F2F10CFB03135B1BB3F57A7FDED3019B66
:1096A000013B0193B7D118221B2102984FF01009FA
:1096B0002BF088FFDFF8D4800F23DFF8D4E03248A6
:1096C000304F0193DEF80430C3F30803002B40F061
:1096D0007B83EFF31183002B40F07683256882684B
:1096E00023689D42FAD13B689A42F7D8D6F800C069
:1096F0004FF47A7101FB0CF39B1AB3FBFCF301FBF3
:1097000005354FF47A7C4FF0010ADEF80430C3F3DC
:109710000803002B40F04482EFF31183002B40F04C
:109720003F822368816822689342FAD13A68914265
:10973000F7D832680CFB02FBABEB0101B1FBF2F195
:109740000CFB03135B1BB3F57A7FDED3019B013B5C
:109750000193B7D118221C2102984FF010092BF069
:1097600031FFDFF828800F23DFF824E00648054F9B
:1097700001930FE000380040003C00404C9601206F
:10978000509601205496012010E000E048960120F8
:1097900000ED00E0DEF80430C3F30803002B40F0D6
:1097A0005183EFF31183002B40F04C8325688268CE
:1097B00023689D42FAD13B689A42F7D8D6F800C098
:1097C0004FF47A7101FB0CF39B1AB3FBFCF301FB22
:1097D00005354FF47A7C4FF0010ADEF80430C3F30C
:1097E0000803002B40F0BE81EFF31183002B40F003
:1097F000B9812368816822689342FAD13A6891421C
:10980000F7D832680CFB02FBABEB0101B1FBF2F1C4
:109810000CFB03135B1BB3F57A7FDED3019B013B8B
:109820000193B7D1039A92F85F30032B00F229839A
:1098300092F86220012A0BD0022A40F02283039B77
:1098400093F8673003F0FB03022B0CBF00220722C2
:109850001A2102982BF0B6FE4FF010090F23DFF803
:10986000FCE2BA48DFF8F882B94F0193DEF8043021
:10987000C3F30803002B40F06982EFF31183002B40
:1098800040F064822568826823689D42FAD13B6873
:109890009A42F7D8D6F800C04FF47A7101FB0CF366
:1098A0009B1AB3FBFCF301FB05354FF47A7C4FF0B8
:1098B000010ADEF80430C3F30803002B40F02881CE
:1098C000EFF31183002B40F0238123688168226825
:1098D0009342FAD13A689142F7D832680CFB02FB06
:1098E000ABEB0101B1FBF2F10CFB03135B1BB3F516
:1098F0007A7FDED3019B013B0193B7D1039B1921F2
:1099000002984FF0100993F864202BF05BFEDFF80B
:1099100050826423DFF844E28C488D4F0193DEF8D7
:109920000430C3F30803002B40F0F181EFF31183FF
:10993000002B40F0EC812568826823689D42FAD1B3
:109940003B689A42F7D8D6F800C04FF47A7101FB11
:109950000CF39B1AB3FBFCF301FB05354FF47A7C47
:109960004FF0010ADEF80430C3F30803002B40F087
:10997000B180EFF31183002B40F0AC802368816845
:1099800022689342FAD13A689142F7D832680CFBC8
:1099900002FBABEB0101B1FBF2F10CFB03135B1B10
:1099A000B3F57A7FDED3019B013B0193B7D110223F
:1099B000372102984FF010092BF004FEDFF8A08148
:1099C0000F23DFF898E16148614F0193DEF804301E
:1099D000C3F30803002B40F0D881EFF31183002B71
:1099E00040F0D3812568826823689D42FAD13B68A4
:1099F0009A42F7D8D6F800C04FF47A7101FB0CF305
:109A00009B1AB3FBFCF301FB05354FF47A7C4FF056
:109A1000010ADEF80430C3F30803002B3CD1EFF356
:109A20001183002B38D12368816822689342FAD1D0
:109A30003A689142F7D832680CFB02FBABEB0101AC
:109A4000B1FBF2F10CFB03135B1BB3F57A7FE0D3A0
:109A5000019B013B0193B9D10122382102982BF0DF
:109A6000B1FD039B3B495B691A688B4222F04002BF
:109A70001A6000F00B82384A934200F007821821E6
:109A80001A6822F038020A431A601A6842F040024B
:109A90001A600BB0BDE8F08FEFF3118189F31288E3
:109AA000D0F808B00368DB0303D5C8F800A0D0F8ED
:109AB00008B02368C9B2D8F8002081F31188316852
:109AC00013440CFB01F2A2EB0B02B2FBF1F20CFB14
:109AD0000323B9E7EFF3118189F31288D0F808B0B6
:109AE0000368DB0303D5C8F800A0D0F808B02368EA
:109AF000C9B2D8F8002081F31188316813440CFBF7
:109B000001F2A2EB0B02B2FBF1F20CFB032346E7DE
:109B1000EFF3118189F31288D0F808B00368DB03F2
:109B200003D5C8F800A0D0F808B02368C9B2D8F8A7
:109B3000002081F31188316813440CFB01F2A2EB81
:109B40000B02B2FBF1F20CFB0323CFE610E000E0C6
:109B50005496012000380040003C004000ED00E039
:109B600048960120EFF3118189F31288D0F808B0EC
:109B70000368DB0303D5C8F800A0D0F808B0236859
:109B8000C9B2D8F8002081F31188316813440CFB66
:109B900001F2A2EB0B02B2FBF1F20CFB032339E65C
:109BA000EFF3118189F31288D0F808B00368DB0362
:109BB00003D5C8F800A0D0F808B02368C9B2D8F817
:109BC000002081F31188316813440CFB01F2A2EBF1
:109BD0000B02B2FBF1F20CFB0323B3E5EFF31181AF
:109BE00089F31288D0F808B00368DB0303D5C8F8FE
:109BF00000A0D0F808B02368C9B2D8F8002081F3DB
:109C00001188316813440CFB01F2A2EB0B02B2FB8A
:109C1000F1F20CFB03233EE5EFF3118189F3128887
:109C2000D0F808B00368DB0303D5C8F800A0D0F86B
:109C300008B02368C9B2D8F8002081F311883168D0
:109C400013440CFB01F2A2EB0B02B2FBF1F20CFB92
:109C50000323C9E4EFF3118189F31288D0F808B027
:109C60000368DB0303D5C8F800A0D0F808B0236868
:109C7000C9B2D8F8002081F31188316813440CFB75
:109C800001F2A2EB0B02B2FBF1F20CFB032354E452
:109C9000EFF3118389F3128881680268D20303D538
:109CA0000122C8F8002081682568DBB2D8F800A03E
:109CB00083F311884FF47A72D6F800C0554402FB42
:109CC0000CF35B1AB3FBFCF302FB05356BE4EFF31B
:109CD000118389F3128881680268D20303D50122B7
:109CE000C8F8002081682568DBB2D8F800A083F3AB
:109CF00011884FF47A72D6F800C0554402FB0CF379
:109D00005B1AB3FBFCF302FB0535FFF7F5BBEFF382
:109D1000118389F3128881680268D20303D5012276
:109D2000C8F8002081682568DBB2D8F800A083F36A
:109D300011884FF47A72D6F800C0554402FB0CF338
:109D40005B1AB3FBFCF302FB053507E6EFF3118367
:109D500089F3128881680268D20303D50122C8F80A
:109D6000002081682568DBB2D8F800A083F3118851
:109D70004FF47A72D6F800C0554402FB0CF35B1A1C
:109D8000B3FBFCF302FB05358FE5EFF3118389F399
:109D9000128881680268D20303D50122C8F8002026
:109DA00081682568DBB2D8F800A083F311884FF4EE
:109DB0007A72D6F800C0554402FB0CF35B1AB3FB71
:109DC000FCF302FB053520E6EFF3118389F31288DB
:109DD00081680268D20303D50122C8F80020816897
:109DE0002568DBB2D8F800A083F311884FF47A72AB
:109DF000D6F800C0554402FB0CF35B1AB3FBFCF32E
:109E000002FB05357DE4EFF3118389F31288816845
:109E10000268D20303D50122C8F8002081682568B2
:109E2000DBB2D8F800A083F311884FF47A72D6F829
:109E300000C0554402FB0CF35B1AB3FBFCF302FBBE
:109E4000053507E4EFF3118389F31288816802680E
:109E5000D20303D50122C8F8002081682568DBB24F
:109E6000D8F800A083F311884FF47A72D6F800C0B6
:109E7000554402FB0CF35B1AB3FBFCF302FB053504
:109E8000A7E4019AE4E43026FFF7FABA1021F7E5D7
:109E90001C0903F00F03013C032C36D8444A32F866
:109EA000140040FA03F2D5072FD5012202FA03F37A
:109EB000013B18404AF032F83E4B3F4A1B5D1844C4
:109EC00012EBC00421D052F83000A38805691D4070
:109ED0007FF4C7AAB3FA83F238492026039FC2F160
:109EE0001F02E571A671F960511C13D1B3FA83F317
:109EF0000122C3F11F0312FA03F33FF4B2AA30495F
:109F00000A6813430B60FFF7ACBA2C4B039AD3607B
:109F1000FFF7A7BA2B4E07F10C01DFF8C0C0B71846
:109F20000593294B4CF8221005A997F890700693D9
:109F30000795CDE9085516F063F9244BDA5DF02A50
:109F400001D8A388D2E7F021214A3E44D955D368ED
:109F500096F8A020C3F3022351B2C3F107001E1DDF
:109F6000042828BF0420062E88BFDD1E4FF0FF33D3
:109F7000002903FA00F36FEA030303F0030303FA73
:109F800005F34FEA0313DBB20CDB02F01F061148A6
:109F900001224D090144B24081F8003340F82520E8
:109FA000A388A3E702F00F020B498B54C9E700BF57
:109FB00094C505089CC5050888940120C187000840
:109FC000003C0140986005080000111040AB0120E2
:109FD00000ED00E000E100E014ED00E000AB012046
:109FE000F8B5D0F820310446DA69910615D5586ADB
:109FF000E36AC0B2002B00F0CC80216B9847D4F804
:10A0000020311A6822F480721A609A6822F00102E4
:10A010009A609A6942F008029A61DA69D20701D51A
:10A0200001221A62DA69970701D502221A62DA69F7
:10A03000560701D504221A62DA69150701D50822EC
:10A040001A62D4F8002102B3D969490600D4F8BDD8
:10A05000D96904F590701E680F079D682DD18F0691
:10A0600002D5B50600F1DB800F0602D5350600F1FA
:10A07000BA80480602D5710600F18380002AE6D036
:10A080002046BDE8F840FFF7BDB8D9690806DBD522
:10A0900094F889112129D7D0D4E90901814200F02F
:10A0A0009B80A069405C0131C0B298622569B1FB18
:10A0B000F5F005FB1011A162C6E715F0010502D10C
:10A0C00016F4907FD0D0CF0701D5F7057BD48F074A
:10A0D0004AD5002D6CD10F0709D5B70665D50825DF
:10A0E0001D62D4F88C5145F00805C4F88C51D4F8A1
:10A0F0008C51002DC2D08F0605D5B50603D516F0BC
:10A100003BFAD4F82031D4F88C21110708D49A688E
:10A1100012F0400204D1C4F88C21D4F80021ADE73C
:10A120001A68202122F490721A609A6822F00102C3
:10A130009A6084F88A119A685206EED59A68D4F823
:10A14000841122F040029A600029E6D0414B084673
:10A150000B6518F0DBFC0028DFD0D4F88401036D18
:10A160009847D4F8002189E74F07B4D5002DB2D025
:10A1700004271F62D4F88C7147F00207C4F88C7171
:10A18000A9E71968202021F04001196084F88901AD
:10A1900074E7E3696269D054E369E1680133B3FBB2
:10A1A000F1F201FB1233E36129E7002D9FD096E71E
:10A1B00002271F62D4F88C7147F00407C4F88C7131
:10A1C0004F0788D5D4E701271F62D4F88C7147F078
:10A1D0000107C4F88C717AE7A4F87221196821F09C
:10A1E0008001196030E794F8891121297FF446AF86
:10A1F000B4F8721189B2B9B1D4F82801D4F86C114D
:10A20000B0F5805F19D0481CC4F86C0109789962D8
:10A21000B4F87231013B9BB2A4F872312EE716F00C
:10A22000ABF9D4F8002129E7196821F08001196001
:10A23000196841F04001196020E7D4F83001002886
:10A24000E1D131F8020BC0F308009862C4F86C1138
:10A25000DEE700BF8DE50108037C01681F2B0AD9EA
:10A26000203B2022496802FA03F30B4214BF01236A
:10A27000002353B970472022096802FA03F30B4206
:10A2800014BF01230023002BF4D02DE9F04F4669C1
:10A2900083B00446DFF89882F50022F087FC074679
:10A2A000AB1908EB43135A7C02BB9B495A680978E7
:10A2B000D2F80090002938D05269136823F00103C6
:10A2C0001360D9F80C3023F48073C9F80C30934B29
:10A2D0001B78002B37D1237C21681F2B1DD820220F
:10A2E00002FA03F38B6003B0BDE8F08FD3F89460FB
:10A2F00001215A6899743168156821F00101884874
:10A300005F8931600368EA680133216822EA070245
:10A310000360EA60237C1F2BE1D92022203B02FA54
:10A3200003F3CB6003B0BDE8F08FD3F894105889E5
:10A330000A6822F001020A60D9F80C3023EA00030F
:10A34000C9F80C30C3E7AB19764A5B0108EB030B85
:10A350005033DBF8940008EB030AC1B220F0FF0091
:10A360001039A2FB0131090918F00CFA0123DBF8BE
:10A3700098208BF81130019222F018FCD9F80030A7
:10A380004FF0FF31019A43F08003C2F8CC01DBF8B3
:10A390008C20C9F80030C9F82C10102AD9F80030E8
:10A3A00023F08003C9F8003052D072D9B2F5807F13
:10A3B00000F09180B2F5805F1FD1D9F82030DBF832
:10A3C000441023F48053DBE91202C9F82030114312
:10A3D000D9F81C20DBF84030014322F47F421B03F4
:10A3E00042EA112243F48053C9F81C20D9F82020F6
:10A3F00022F420421343C9F8203035440021494B50
:10A40000524608EB4515D5F89400A965C1B220F075
:10A41000FF001039A3FB0131090918F06DF9D5F8D7
:10A42000943041485A6895F8901010406E686A89D7
:10A43000014330685960196841F001011960C3682F
:10A440001343C36022F0B2FB384BC01B186042E7D5
:10A45000D9F82030DBF8441023F01003DBE91202B6
:10A46000C9F820301143D9F81820DBF840300143F7
:10A4700022F47F421B0142EA112243F01003C9F883
:10A480001820D9F8202022F0A0021343C9F8203068
:10A49000B3E7012AB1D1D9F82030DBF8441023F01A
:10A4A0000103DBE91202C9F820301143D9F8182062
:10A4B000DBF84030014322F0FF0243F0010342EA9F
:10A4C0001142C9F81820D9F8202022F00A021343BB
:10A4D000C9F8203091E7D9F82030DBF8441023F494
:10A4E0008073DBE91202C9F820301143D9F81C202F
:10A4F000DBF84030014322F0FF021B0242EA114226
:10A5000043F48073C9F81C20D9F8202022F420627B
:10A510001343C9F8203070E71C3800201838002099
:10A520002CAA0120ABAAAAAA0000FFFF98280020AD
:10A530002038002020B10078B0FA80F04009704740
:10A540000120704708B520214BF039FD034618461D
:10A550001BB102780133202AF9D008BD037903F03A
:10A560001803082B0AD002D82BB100207047102BFB
:10A5700015D0182BF9D1B0F80B007047104BB0F87C
:10A580000B0093F90030591C07D10E4B1B7803EBDD
:10A59000831300EB430080B27047DBB2F7E70A4B4E
:10A5A000B0F80B0093F900305A1C07D1054B5B78CB
:10A5B00003EB031300EB430080B27047DBB2F7E715
:10A5C000E50C0120B49F0120E40C0120F0B50679D0
:10A5D00006F0E003402B09D144794FF0FF3500230A
:10A5E000012006F00706A3420BD1F0BD602B4FF00F
:10A5F000010403D1457904FA05F5F0E74FF0FF3582
:10A60000EDE7042E0CD8DFE806F0030D18242E0029
:10A6100030B1C85CD75C784028420CBF01200020D4
:10A620000133E0E70028FBD0C856D756A0EB070C53
:10A63000DCF1000040EB0C00F2E70028F0D031F82C
:10A64000130032F81370784028420CBF012000201C
:10A65000E6E70028E4D031F9130032F91370C71B84
:10A6600078427841DCE70028DAD051F8230052F82C
:10A670002370784028420CBF01200020D0E7024B15
:10A68000014618682BF062BB9875012038B5441E4E
:10A69000054D14F8011F286819B9BDE838402BF0A2
:10A6A000CDBA2BF053FBF4E7987501200048EDE795
:10A6B000DC10060808B5FFF7E9FFBDE80840F5E73C
:10A6C00010B504460348FFF7E1FF2046BDE81040FF
:10A6D000F0E700BF14E2050808B532B1C30600D5A3
:10A6E00019B11046FFF7ECFF0022104608BD38B53F
:10A6F000074C084DAC4203D3074B00221A7038BDFB
:10A700006288D4E901014AF0FDF81434F2E700BF91
:10A71000E8010008C40700083C770120024A1368DA
:10A7200023EA000010607047ACA20120DFED2A7A16
:10A73000B4EEE70AF1EE10FA4BDDDFED286A9FED8B
:10A74000287AB4EEC70A70EE667AF1EE10FAB0EE2F
:10A75000670AF6DC9FED237AF4EEC77AF1EE10FA81
:10A7600034D5DFED1E6A9FED207AF4EEC77A37EE1E
:10A77000A60AF1EE10FAF0EE407AF6D4DFED1B7A7D
:10A78000B4EEE70AF1EE10FA14DDDFED137A37EEDE
:10A79000C00A60EE006A9FED166A9FED167ADFED43
:10A7A000167AA6EE867A20EE266AE6EE877AA6EE7E
:10A7B000270A7047DFED117AB4EEE70AF1EE10FADE
:10A7C000E7D5DFED087A37EEC00AE2E7B0EE670AB8
:10A7D000D4E7F0EE407ABDE7DB0F4940DB0FC9401C
:10A7E000E4CB1641DB0F49C0E4CB16C1DB0FC93FF8
:10A7F00092E741B99730083C15A82ABEDB0FC9BFC4
:10A80000B0EEC07AF0EEE06A86FE876AB5EE406A86
:10A81000F1EE10FA3DD0C6FEC75AC5EE867ADFEDDE
:10A820001E2ADFED1E3ADFED1E4A9FED1E5A9FEDF8
:10A830001E3AB7EE006A9FED1D4ADFED1D5AE7EEA6
:10A84000E23AA7EE834AE7EEA34AA7EE846AA7EEB0
:10A85000A45AE7EE855AC5EE867AF4EEC76AF1EEA1
:10A8600010FA03D59FED137A77EE677AF5EEC00AFA
:10A87000F1EE10FA03D59FED107A77EE677AB5EE18
:10A88000C00AF1EE10FA48BFF1EE677AB0EE670A3F
:10A890007047DFED077AE0E739094E3DE3B59E3EAC
:10A8A00088FA163E45FE7F3F99FB243F69A2163E7B
:10A8B000A7DFA834DB0FC93FDB0F4940DFED307A5B
:10A8C00030EE277AFDEEC76A16EE903A2033402B21
:10A8D00002D99FED2C0A7047B4EEE70AF1EE10FAA8
:10A8E0004BDD9FED296ADFED296AB4EEE67A77EE5B
:10A8F000467AF1EE10FAB0EE677AF6DC9FED247A34
:10A90000F4EEC77AF1EE10FA34D5DFED1F6A9FED51
:10A91000217AF4EEC77A37EEA60AF1EE10FAF0EEDD
:10A92000407AF6D4DFED167AB4EEE70AF1EE10FACB
:10A930001BDCDFED197AB4EEE70AF1EE10FA03D56D
:10A94000DFED137A37EEC00A60EE006A9FED136AFE
:10A950009FED137ADFED137AA6EE867A20EE266A53
:10A96000E6EE877AA6EE270A7047DFED0F7A37EE1C
:10A97000C00AE9E7B0EE670AD4E7F0EE477ABDE730
:10A98000DB0FC93F00000000DB0FC940E4CB1641DC
:10A99000DB0F49C0E4CB16C1DB0FC9BF92E741B959
:10A9A0009730083C15A82ABEDB0F494010B401229D
:10A9B0004C0901F01F0150F8243002FA01F123EA9A
:10A9C000010340F824305DF8044B704710B40122B5
:10A9D0004C0901F01F0150F8243002FA01F10B4339
:10A9E00040F824305DF8044B704700BF01234A094A
:10A9F00001F01F0150F8222003FA01F1114214BFA7
:10AA000018460020704700BF2DE9F043002489B0AC
:10AA100006460D461F46A04605E025290CD03046C7
:10AA20000134A847039A531C039311780029F4D1E9
:10AA3000204609B0BDE8F083931CCDE90338537874
:10AA4000302B43D0A3F130024FF00009D2B2092AD3
:10AA500046D96C2B2BD0642B7AD019D9732B5DD0AF
:10AA60006AD9752B40F08B8007F1040C386805AB70
:10AA700000220A216746FDF7F1FB05A9049A4B461F
:10AA8000304600912946FDF7C1FA039A0444CAE70B
:10AA9000252B41D058D9582B74D0632BC2D13B1DE4
:10AAA0003978304601341F46A847039ABBE7039B19
:10AAB0005A1C03921B78642B5AD018D8252B2BD004
:10AAC0006DD9582B1AD0632BE9D0ACE7D31C4FF0CB
:10AAD000010903939378A3F13002D2B2092AB8D8BE
:10AAE000184604AA03A940F0C5FD0346B1E7732B3D
:10AAF00014D058D9752B32D0782B94D1A3F15802A9
:10AB000007F1040C386805ABB2FA82F210216746EF
:10AB10005209FDF7A3FBB0E7252180E7386807F16C
:10AB2000040C049A00230090294630466746FDF73E
:10AB30006DFA039A044476E76E2B7FF473AF039AA1
:10AB40003B6804371C606EE7002B3FF471AF69E788
:10AB50003B1D386805A91F46FDF74CFB8DE7391DE5
:10AB6000386805AB00220F460A21FDF777FB84E722
:10AB70003B1D386805A91F46FDF73CFB7DE7782B98
:10AB80007FF450AFA3F15802391D386805ABB2FA13
:10AB900082F20F4610215209FDF760FB6DE7002B92
:10ABA0003FF446AF3FE76E2BCAD03CE710B5064CEA
:10ABB0000B46024605492068FFF726FF2068BDE8DE
:10ABC00010402BF03BB800BF98750120598A00084F
:10ABD00038B504460D460848FFF758FD294620467B
:10ABE000FFF7E4FF0548FFF751FD054B1B7813B154
:10ABF000044B01221A7038BD19E20508470B0608FC
:10AC0000F4760120F57601200FB407B504A951F8B8
:10AC1000040B0191FFF7DCFFFFF748FD03B05DF87F
:10AC200004EB04B0704713460A4601460048EBE7C0
:10AC300024E205080048E7E73DE205080FB407B540
:10AC400004A951F8040B0191FFF7C2FF03B05DF8AE
:10AC500004EB04B070470FB407B504A951F8040B16
:10AC60000191FFF7A3FFFFF721FD03B05DF804EBAF
:10AC700004B070470FB407B504A951F8040B019153
:10AC8000FFF794FF03B05DF804EB04B070472DE9C3
:10AC9000F843037903F0E001202928D002D849B114
:10ACA000BDE8F883402945D06029F9D12448BDE8A2
:10ACB000F843D0E703F00703022B02D0042B08D09F
:10ACC0006BB9B0F80720B0F805101E48BDE8F8438E
:10ACD000C1E7D0F805201B48BDE8F843BBE7B0F951
:10ACE0000720B0F905101748BDE8F843B3E74579E8
:10ACF0000024154E1548FFF7C9FC012306EBC502D9
:10AD000092F80480A04502D8BDE8F843CEE456F896
:10AD100035704FEA840957F824204AB113B90C481A
:10AD2000FFF7B4FC57F809100A48FFF7A3FF002308
:10AD30000134E7E741790848BDE8F8438BE700BFF5
:10AD400085E2050849E205085C99050860E2050806
:10AD500071E20508B005060874E205082DE9F04126
:10AD60001746027905460E4602F0E003402B2BD130
:10AD70000024574FDFF87C8115E02B7903F007039F
:10AD8000022B15D0032B19D0012B384614BF315D8F
:10AD90003157FFF76FFF6B79013BA34202DD40465D
:10ADA000FFF774FC01346B79A342E6DCBDE8F08167
:10ADB00036F814103846FFF75DFFECE736F914104B
:10ADC0003846FFF757FFE6E702F00702042A5CD88F
:10ADD000DFE802F0031D25272A003478202B3AD023
:10ADE0006CD8002BE2D1B5F80560B5F80780214694
:10ADF0003748FFF73FFFB4423FDB44453DDC002FBF
:10AE0000D4D0424631463348BDE8F04132E796F9A6
:10AE10000040202B1FD051D8002B3CD0C6E73488EF
:10AE2000DCE7B6F90040F4E7D6F80080202B444672
:10AE300011D043D8002BB9D141462548FFF71AFF5E
:10AE4000D5F80510884518D8002FAFD02248BDE8A6
:10AE5000F0410FE700246A79204B03EBC201097926
:10AE6000A1420ADD53F8323053F82400BDE8F04126
:10AE70000CE41B48BDE8F041FCE6FFF717FC224656
:10AE800029681848BDE8F041D8E6202BE2D007D861
:10AE9000002B8BD11C46B5F90560B5F90780A6E7F4
:10AEA000602BE6D0802B81D131780F4B0F480029E1
:10AEB00014BF31461946BDE8F041DBE6602BF1D105
:10AEC0006A791441E307D4D50948BDE8F041D1E6D9
:10AED0005DE20508E20506089FE205085C990508A1
:10AEE000BF4C0608A5E20508304D0608B005060867
:10AEF0009AE205089DE205080CB407B510F02000A1
:10AF00000BD079B92320FFF7BAFB05A9049801916A
:10AF1000FFF74CFEFFF7CAFB012003B05DF804EB1E
:10AF200002B070470020F8E70CB4C30607B500D59F
:10AF300061B905A904980191FFF738FEFFF7B6FB48
:10AF4000012003B05DF804EB02B070470020F8E781
:10AF50000EB410B585B0094907AC019001A854F8AA
:10AF6000042B23460394FFF74FFD019B00221A7028
:10AF700005B0BDE8104003B0704700BF0180000875
:10AF800070B406688E4219D94C1E751E002314F841
:10AF9000011F08224B4002E0013ACBB207D0590012
:10AFA0001B06F9D581F0D503013ADBB2F7D1A542F2
:10AFB000EDD1721C0260337070BC7047721C0023AC
:10AFC0000260337070BC70470A44914217D0013957
:10AFD00010B4541E11F8012F0823504002E0013B29
:10AFE000D0B207D042000006F9D582F0D500013B6F
:10AFF000C0B2F7D1A142EDD15DF8044B7047704764
:10B000004840082302E0013BD0B208D001064FEAD5
:10B010004002F8D582F0D500013BC0B2F6D17047AE
:10B020000A4491421BD0013930B4551E41F221042B
:10B0300011F8012F082380EA022002E0013B90B2C0
:10B0400009D010F4004F4FEA4002F7D084EA4000E4
:10B05000013B80B2F5D18D42EAD130BC70477047D8
:10B0600070B5144C0222144E4FF6FF701349FFF7CF
:10B07000D7FF22884AB1A518B54218D2052A16D999
:10B0800021462C46FFF7CCFFF3E721460222FFF7CB
:10B09000C7FF0222A118FFF7C3FF094BE41A094BAF
:10B0A0001C8041F60F53C31A5842584170BD00200E
:10B0B000FCE700BF024000080080000800400008D4
:10B0C000FA3F00083E770120104A2DE93048D2E9C6
:10B0D000004554EA05020BD10346002240F201115B
:10B0E00010461A809A809A711A815980BDE830887A
:10B0F000074B1A6814EB020B45F1000C5A466346E5
:10B10000FCF7C0FF0120BDE8308800BF00840120AB
:10B110004C9601200288A2F5FA6270B402F0030195
:10B120008478C37840F2B55601EB4101013C124DE1
:10B13000013B04EB81040179920806FB023235F8E9
:10B140001430048900251344427980794FF47A76CB
:10B1500003EB430301EBC3030849C3EB03130144AF
:10B16000204602EB8303C3EB031301EB8303294661
:10B17000C6FB030170BC70479860050880436D38BA
:10B180002DE9F04707468CB01E469246002A60D152
:10B19000154614460A88B2F5FA6F37D38B78581ED5
:10B1A0000B2833D891F803C00CF1FF301E282DD89E
:10B1B00091F804E0BEF1170F28D891F80590B9F185
:10B1C0003B0F23D888793B2820D8B1F80880B8F500
:10B1D0007A7F1BD24FF001086EBB002C0E890795B9
:10B1E000B4BF2D212B21002CCDF800C0B8BF644284
:10B1F000CDE90306CDE9051438462D49CDE901E92D
:10B20000FFF7A6FE40460CB0BDE8F0870022DFF84D
:10B21000ACA04FF0010C09A91046ADF828208DF81C
:10B220002A206346ADF82C20914696469046CDF8EC
:10B2300024A0002ED1D0CDF804E0CDF800C01D49E7
:10B24000CDE902903846FFF783FE40460CB0BDE8DA
:10B25000F087194BD417084683FB0A235344C4EBE9
:10B260006314C4EB041524B2AAEB85052DB2002D9E
:10B27000B8BF6D42FFF74EFF4FF47A72002380464D
:10B28000894648F0FBFD3C214FF47A7200230AFB0B
:10B29000010A4046494648F0F1FD4FF47A7192B2F6
:10B2A000002309A8C1FB0A23FCF7ECFE09A971E7FA
:10B2B00034E3050814E30508898888880000010143
:10B2C0000378092B01D0202B05D110F8013F202B4A
:10B2D000FBD0092BF9D02D2B00F0A9802B2B75D09A
:10B2E000B7EE000AA3F13002D1B2092977D8F2EE05
:10B2F000046ADFED5F7A07EE102A10F8013FB8EE1E
:10B30000C77AA3F13002D1B2A7EEA67A0929F0EEEE
:10B31000477AF0D92E2B66D003F0DF03452B40F09F
:10B32000838010B442782D2A00F096802B2A00F0FA
:10B330008380A2F130030130092B00F284800024C5
:10B34000002303EB830302EB430310F8012FA2F168
:10B350003001303B0929F4D9B3F59A7F1A46B7EE8C
:10B36000007A28BF4FF49A72072B09D91346DFEDF4
:10B37000416A083B27EE267A072BFAD802F007022B
:10B38000DAB1F2EE046A012A27EE267A15D0022AF3
:10B3900027EE267A11D0032A27EE267A0DD0042A2A
:10B3A00027EE267A09D0052A27EE267A05D027EE41
:10B3B000267A062A18BF27EE267A002C45D0C7EE3B
:10B3C000877A5DF8044B20EE270A70474378B7EE82
:10B3D000000A0130A3F13002D1B2092987D92E2BFE
:10B3E000DFED237A98D143780130A3F13002D1B256
:10B3F000092991D8B2EE047AF0EE475A06EE902A67
:10B4000010F8013FB8EEE66AA3F13002D1B2C6EE01
:10B41000076A092927EE257A77EEA67AEED903F096
:10B42000DF03452B3FF47DAF20EE270A70474378BA
:10B43000BFEE000A013055E782780230A2F13003F6
:10B44000092B7FF67CAFB7EE007A67EE877A5DF85E
:10B45000044B20EE270A704782780230A2F13003B5
:10B46000092B01D801246BE7B7EE007AA7E700BFEC
:10B470000000000020BCBE4CF8B506461546084644
:10B48000B6FBF2F434B905FB14640C4B1B5D00F8F9
:10B49000013BF8BDB4FBF2F75FB905FB1747074B5B
:10B4A00005FB1464DA5D1B5D00F8012B00F8013B1D
:10B4B000F8BD3846FFF7E0FFEFE700BF64E305089B
:10B4C000B5EEC00ADFED6D7A00236D4AF1EE10FA99
:10B4D0002DE9F047C8BF30EE270A88B0D8BF30EE5C
:10B4E000670ADFED687A0493054620EE270ACDE966
:10B4F0000233FDEEC07A17EE904A84EAE476A6EBBA
:10B50000E476A2FB06325FEAD20847D105AF5E4A75
:10B5100039465B4B002C4FF00000A3FB06434870FC
:10B52000A8BF20204FEAD303B8BF2D2003EB83032D
:10B530008DF808003846A6EB4303D35C0B7047F048
:10B54000A7FF01283ED0022848D003281ED0394644
:10B5500002A84AF025FD02A847F09AFFC41E02A9DE
:10B560002846E4B222464AF051FD002328462B55D6
:10B5700047F08EFF02AB2E221919431C2A54E818FB
:10B580004AF02AFD284608B0BDE8F0873023394646
:10B5900002A88DF809304AF003FDDCE73B4BA3FB22
:10B5A00006235B0924D105AF374A3946344BA3FB48
:10B5B0000803DB0803EB8303A8EB4303D35C01F828
:10B5C000013BA6E73023394602A88DF809308DF8F3
:10B5D0000A308DF80B304AF0E3FCBCE730233946E3
:10B5E00002A88DF809308DF80A304AF0D9FCB2E78C
:10B5F000274AA2FB06125FEA92190ED105AF224A32
:10B6000039461F48A0FB03C0C00800EB8000A3EB35
:10B610004003D35C01F8013BC8E71E4AA2FB0612B7
:10B620005FEA523A0FD105AF174A39461448A0FBDA
:10B6300009C0C00800EB8000A9EB400912F809001E
:10B6400001F8010BDDE71448B6FBF0F070B905AF67
:10B6500038464FF00A0C01460B4ABAFBFCF00CFBD3
:10B6600010AA12F80A0001F8010BDFE705AF0A2261
:10B6700001933946FFF700FF019BEAE76F12033A97
:10B68000CDCCCCCC00007A4464E305081F85EB5197
:10B69000D34D62105917B7D1A086010002B370B420
:10B6A0008E1803E0121B14D1B14215D010F8012BF3
:10B6B000A2F14103192B11F8013BA3F1410598BFF9
:10B6C000203203F12004192DECD9D21A01D1002B1C
:10B6D000EAD1104670BC7047002270BC104670471B
:10B6E0001046704770B5044608460D4647F0D0FE38
:10B6F000064602E014F8013F43B13246294620468F
:10B70000FFF7CCFF0028F5D1204670BD1C4620462F
:10B7100070BD00BF4FF0FF32FFF7C0BFA0F1610363
:10B72000192B98BF20387047A0F14103192B98BFFF
:10B730002030704720280BD0092809D00A2807D0CC
:10B740000D2805D00B3801288CBF00200120704740
:10B75000012070472DE9F8431F46064603469846E8
:10B7600013F8014B2046FFF7E5FF0028F7D12B2CFB
:10B770005AD02D2C2DD10125102A08F1010998F855
:10B7800001403FD04FF0FF3C9046BCFBF2FC02FB77
:10B790000CFE6FEA0E0E5FFA8EFE09F10103002027
:10B7A0000EE0303CE4B294421ADA60451E4602D8FC
:10B7B00023D1744521D93D404FF0FF3013F8014BA0
:10B7C000392CEED944F02004602C09D9573CE4B25E
:10B7D000E9E7102A14D04FF0FF3CC1460546D3E7F5
:10B7E00001B10E6007F00107B5B1B0F1004F2FD9DC
:10B7F00077B34FF00040BDE8F88300FB0840DDE779
:10B80000C1460546302C11D04FF010086FF0704C37
:10B810004FF00F0E4246C0E70028ECDA002F18BFA9
:10B820006FF00040BDE8F8830546A5E799F80140B0
:10B8300009F101064FF010082046FFF775FF782840
:10B8400008D0B1466FF0704C4FF00F0E4246A4E79F
:10B850004042D0E799F802406FF0704C09F10209BC
:10B8600042464FF00F0E98E701230A22002171E7AC
:10B8700070B50D461446FEF765FE0646A0B1FFF70B
:10B88000F3FF40F634039842A8BF18461923B0F5D9
:10B89000617FB8BF4FF46170A0F5617090FBF3F069
:10B8A00028702378013323703046FEF74BFE06469E
:10B8B000A0B1FFF7D9FF40F634039842A8BF18465D
:10B8C0001923B0F5617FB8BF4FF46170A0F56170C6
:10B8D00090FBF3F06870237801332370304670BD1D
:10B8E000613819288CBF0020012070474138192881
:10B8F0008CBF002001207047303809288CBF002001
:10B9000001207047A0F13003092B07D920F0200057
:10B91000413819288CBF0020012070470120704752
:10B9200007EE901A9FED827AF8EE677A27EE800A8A
:10B9300020EE070AFDEEC07A17EE903A2033402B36
:10B940007ED8DFED7C7AB4EEE70AF1EE10FA40F330
:10B95000E380B0EE407A9FED786ADFED786AB4EE6E
:10B96000E67A77EE467AF1EE10FAB0EE677AF6DC18
:10B970009FED737AF4EEC77AF1EE10FA40F1CF80C2
:10B980009FED6D6ADFED6F6AF4EEE67A37EE867A48
:10B99000F1EE10FAF0EE477AF6D4DFED6B7AB4EE02
:10B9A000E77AF1EE10FA40F3A580DFED627A37EE28
:10B9B000C77A67EE075A9FED655A9FED656AF7EE05
:10B9C000007ADFED646AA5EE856A9FED635A67EE43
:10B9D000254AE5EE866AF0EE675AA4EEA67AE7EE0F
:10B9E000055AE7EE457A87EEA55ADFED577A30EE35
:10B9F000277AFDEEC76A16EE903A2033402B24D901
:10BA0000F6EE006A9FED557AB7EE006AF7EE004A4F
:10BA1000002380ED045A8361C4EEA57A436103627A
:10BA2000C36167EEA66A27EE866A27EE877AC0EDC5
:10BA3000006AC0ED026A80ED016A80ED037A70470A
:10BA4000B7EE005AF0EE455ACFE7B4EEE70AF1EE52
:10BA500010FA67DD9FED386ADFED386AB4EEE67AFA
