:020000040800F2
:10000000F0FF0120DD66050835D9010825EE02085C
:100010005567050855670508556705080000000085
:1000200000000000000000000000000041D90108AD
:100030003DD901080000000039D90108D9C50208DE
:10004000556705085567050855670508556705088C
:10005000556705085567050875080308A1090308D1
:100060006509030829090308ED080308D10E0108F2
:10007000C10E0108B10E0108A10E01088D0E010884
:10008000790E0108650E010855670508000000009B
:10009000000000000000000000000000B10803089C
:1000A00019AF020805B3020849AE020889B4020874
:1000B00045B2020885B10208B9B00208DD14010892
:1000C000E5140108D1140108D91401085567050881
:1000D00055670508B5C6020819C6020800000000E9
:1000E0003908030855670508AD260208000000001E
:1000F000000000000000000000000000510E010898
:100100000000000055670508E9AF020855670508BB
:1001100000000000000000000000000000000000DF
:100120003D0E0108290E0108150E0108010E0108F7
:10013000ED0D0108000000000000000000000000BC
:100140000000000000000000000000008DF3010826
:10015000D90D0108C50D0108B10D01085567050845
:10016000C5140108CD1401080000000000000000C3
:10017000000000000000000000000000000000007F
:1001800000000000556705080000000000000000A6
:080190005567050855670508D5
:08019800746205000100000083
:1001A00010020100B0210020AC210020000000005E
:1001B000900700081F021000C4210020B421002075
:1001C00000000000458500081C021000E4540020D7
:1001D000D459002000000000B18300081010020074
:1001E00050580020E4590020000000009207000849
:1001F0002810100040580020E8590020000000009E
:10020000A51E01081900050038580020F8590020E3
:100210000000000094070008F82106003058002074
:10022000005A0020000000009A07000801200C007E
:1002300000440020085A002000000000A007000829
:100240000A7028006C430020145A002000000000AF
:10025000491E01080EB08601E44100203C5A0020EE
:100260000000000071190408010104004041002051
:10027000C45B00200000000000000000000104003A
:1002800038410020C85B002000000000AC070008D7
:100290000201030034410020CC5B0020000000007C
:1002A000B1150308140003000876002074760020BE
:1002B00000000000B00700080B301A00D4650020D1
:1002C0007876002000000000B40700081F302400EA
:1002D000F06500209476002000000000D0070008A0
:1002E000050204009C710020B87600200000000088
:1002F000F407000803010A0030660020BC760020E5
:1003000000000000F8070008130204000464002045
:10031000C876002000000000020800082202140134
:1003200060A10020B0A3002000000000E5950008B7
:100330000C20CC0054910020C4A400200000000038
:1003400075150308010205002891002090A50020E2
:1003500000000000B13102080002050020910020D9
:1003600098A5002000000000000000001B02100003
:10037000F4900020A0A5002000000000DD8300080C
:100380001E0006004C8E0020B0A5002000000000DA
:10039000080800081B100C0028890020B8A50020C0
:1003A00000000000194702082102F000A887002081
:1003B000C4A50020000000006D34020823121000C4
:1003C000F0930020B4A600200000000010080008F0
:1003D00005100600E8930020C4A6002000000000DD
:1003E00020080008371028007C900020CCA60020B0
:1003F00000000000260800080E020200E49300201E
:10040000F4A60020000000004E08000816100600A8
:100410009C870020F8A6002000000000500800087B
:100420002F1022008CA3002000A700200000000055
:100430005608000823100E009C8D002024A70020E1
:1004400000000000BD1E0108F5519000CC86002080
:1004500034A70020000000009982020826100C003A
:10046000D0A70020C4A7002000000000F926020841
:100470001A023C00DCA80020F4AB002000000000C1
:100480009993000827000400D8A8002030AC002071
:10049000000000007808000838100100FCA70020C8
:1004A00034AC0020000000007C08000807020200B5
:1004B00004B2002048B20020000000007E080008BE
:1004C00002000C00C8AC00204CB20020000000006C
:1004D0000000000006020C00DCB1002058B2002031
:1004E000000000003594000808120F002CB1002015
:1004F00064B200200000000001850008F70106003A
:1005000024B1002074B20020000000008008000820
:100510001D02020004B100207CB200200000000097
:10052000860800080A020A0038BE00208CC000209D
:1005300000000000497D0308F6210C0040B50020B2
:1005400098C0002000000000880800080300010097
:1005500010B60020A4C00020000000000000000031
:1005600003123D004CC00020A8C000200000000085
:100570009408000825102C016CBE0020E8C0002063
:1005800000000000000000001A000E0078CD0020DE
:10059000D8CE002000000000D208000820320A0057
:1005A00040CC0020E8CE00200000000051190408D3
:1005B000150070008CC60020F4CE00200000000062
:1005C000000000002A00600060CE002064CF002000
:1005D00000000000291904082C001000D4CF0020CE
:1005E000C4CF002000000000B91604082B0024002E
:1005F00008D00020E4CF0020000000008916040885
:100600002920780078C400202CD0002000000000B1
:10061000000000000D002C00581201201C140120C5
:100620000000000005A1020809020100C411012018
:100630004814012000000000E008000804008000C9
:10064000441101204C1401200000000000000000B3
:1006500013000400B0100120CC14012000000000A1
:10066000E4080008FD0124008C100120D0140120B2
:1006700000000000599F0208182030005810012087
:10068000F4140120000000004595000806101A002F
:1006900020FE00202415012000000000CD190408D0
:1006A000FB0101005CFD002040150120000000005E
:1006B000B9950008FC01090028FC00204415012020
:1006C00000000000C995000816023F00E8FB00206A
:1006D00050150120000000002184000834001000A3
:1006E00018FB00209015012000000000A11904084B
:1006F00011020800F0FA0020A015012000000000FF
:10070000E808000812120400E8FA0020A8150120E9
:1007100000000000F008000812201000D8FA0020A5
:10072000AC15012000000000F4080008F9010400E5
:1007300048F70020BC15012000000000D19F0208EE
:10074000FA01020030F10020C01501200000000075
:10075000398600080202030030E60020C41501209B
:1007600000000000000000000C0204001CE6002055
:10077000C8150120000000002D850008FE011400AE
:10078000FCF00020CC15012000000000F1830008DF
:10079000000000050000280100000401F40114001D
:1007A000E8036400040A000114001E00AA0000000F
:1007B00003000000AE014A015E012C01640101004A
:1007C000000001000A019A01001E0A00000000005A
:1007D000000000000001000000050000010203000D
:1007E0000000000000000000000000000000000009
:1007F0000080070000000000040101006C160000EA
:1008000000000000013F00000000010000000000A7
:1008100000000000000000000000000000000000D8
:1008200020000101000020003200C800D00796001F
:10083000140032002800B0044006000550001400E7
:100840000F00080064000100010005000A0000001C
:10085000C4090000190000000000000000000000B2
:100860000000000000000000000000000000000088
:100870000000000000000000200300000000013C18
:100880003E01000000000000000000000100000028
:100890000202000000000000000000000000000054
:1008A0000000000000000000000000000000000048
:1008B0000000000000000000000000000000000038
:1008C0000000000000000000000000000000000028
:1008D00001007E05EA05B4053200E803D0070000F8
:1008E0000000000048044530251F000001010101FF
:1008F000FFFFFFFF000000010000054657343100F4
:0409000000080000EB
:100904001A030000000000000000000000000000C6
:1009140000000000000000000000000004030904BF
:10092400120100020000004083042057000201026B
:10093400030100000DD70008958500089185000883
:100944008D8500082D960008898500088585000896
:10095400EC810508D5DA01089DBC010815E60108FB
:10096400000000000000000019E3010835E201085E
:10097400000000000000000000000000D5B70108DE
:100984002D86000821860008D19B0008ED9B0008F5
:10099400D9850008B59B0008999B00080068214C84
:1009A4001F0000001C0000001F0000001E000000CB
:1009B4001F0000001E0000001F0000001F000000B8
:1009C4001E0000001F0000001E0000001F000000A9
:1009D400FF01FF000000040100000000000000020D
:1009E40010000000070000000000000000000000EC
:1009F400010203040607080901000000C1150108EB
:100A040000000000888C0508FFFFFFFFD6010101EC
:100A140000010101002D202D2D202D2D2D2D202D07
:100A24002D2D000000000000000000000000000068
:100A340000000000000000000000000068A305089A
:100A44000000000000000000F4A3050801000000FD
:100A5400FA00000001000000010000000101010093
:100A6400FC4300200000F40101000000FA430020D0
:100A74000000F40101000000F84300200000F4012C
:100A840001000000F64300200000F4010100000012
:100A9400F44300200000F40101000000F2430020B0
:100AA4000000F40101000000F04300200000F40104
:100AB40001000000D11C0108951C010804910508DF
:100AC400E643002005320100E4430020E803D00798
:100AD40001000000E2430020E803D0070100000009
:100AE400E0430020E803D00701000000DE430020BB
:100AF4001E00B80B01000000EC43002005000F00AD
:100B040001000000EE43002003000A000100000081
:100B1400DC4300201E00F40101000000DA43002041
:100B24001400640001000000E84300203200E803E0
:100B340001000000D84300200000C80001000000AC
:100B4400B243002000C80100B1430020005001005E
:100B5400B0430020005A0100AE4300200200000010
:100B640090910508940706089C07060806140120BE
:100B74000100C40900000000041401200100C4099C
:100B840000000000021401200100C409000000005C
:100B9400001401200100C40900000000FC1301201E
:100BA4000100C40900000000FE1301200100C40973
:100BB40000000000FA1301200100C4090000000035
:100BC400F81301200100C40900000000594100206D
:100BD40000C801005841002000C80100564100200F
:100BE4000100C800010000005441002032003075AB
:100BF4003200000052410020055A05004F410020F8
:100C040000FF01005141002001000000FC0300200E
:100C14004D41002003000000E0AA05084E410020D9
:100C240000FF01005041002001000000FC030020EF
:100C34004C41002003000000E0AA0508391C01080B
:100C4400DD1B01089C91050810440020EE02CA082F
:100C5400010000000E44002000C8010064000000F0
:100C64000D44002000C80100640000000C44002072
:100C7400020000007C9205084641002080C1803EAD
:100C8400050000004441002080C1803E05000000B2
:100C94003E41002080C1803E050000003C41002010
:100CA40080C1803E050000003741002000FF0100A4
:100CB400304100206400F401010000002F410020B5
:100CC40004000000889205082E4100200200000064
:100CD4009C920508D34100200D000000A89205084D
:100CE400D041002000640100CE41002032001027D2
:100CF4000A000000CD4100200D000000A892050864
:100D0400CC4100200D000000A8920508CB41002032
:100D140002000000E092050800000000000000004E
:100D2400EC920508547100209CFF2C010000000087
:100D34007A460020E0150C17000000007C460020D5
:100D440002000000249305081C4400200100FF7FDA
:100D5400010000001B44002002000000309305083D
:100D6400D54100200300000040930508D441002031
:100D74000300000040930508A04300200000E8039E
:100D8400010000009E4300200000E8030100000071
:100D94009C4300200000E803010000009A43002067
:100DA4000000E80301000000984300200000E8036D
:100DB40001000000964300200000E8030100000049
:100DC4009543002000140100944300200300000018
:100DD40050930508AC4300200000F401010000001A
:100DE400AA4300200000F40101000000A8430020F1
:100DF4000000F40101000000A64300200000F401FB
:100E040001000000A44300200000803E0100000017
:100E1400A24300200000803E01000000C5430020E2
:100E240019640100C4430020020000006093050817
:100E3400C2430020E803D0070A000000C04300209A
:100E4400006401000A000000B543002000640100B2
:100E5400B443002000640100BC430020006401008E
:100E64000A000000BB430020006401000A000000E7
:100E7400BA430020006401000A000000BF430020C0
:100E8400006401000A000000BE4300200064010069
:100E94000A000000BD430020006401000A000000B5
:100EA400B943002001FF01000A000000B8430020FC
:100EB40001FF01000A000000B743002001FF010008
:100EC4000A000000DE4100200000F40101000000DF
:100ED400DC4100200000F40101000000DA410020A0
:100EE4000000F40101000000D84100200000F401DA
:100EF40001000000D64100200000F40101000000C0
:100F0400BF46002000C80100BE4600200064010066
:100F1400BD46002000640100BC46002000640100BE
:100F2400BB46002000640100BA460020FF0801000F
:100F3400B946002001640100451B0108091B010892
:100F44006C930508B846002000640100B6460020F2
:100F54001400E80301000000B4460020E8033075E3
:100F64000A000000B246002000C80100B14600207B
:100F740000C80100B046002000C80100AF460020B0
:100F8400006401000A000000CE4600200000D007E3
:100F940001000000C846002000C80100C746002028
:100FA40000C80100C646002000C80100CC4600204D
:100FB4000000D00701000000C546002000C8010061
:100FC400C446002000C80100C346002000C8010038
:100FD400CA4600200000D00701000000C2460020DD
:100FE40000C80100C146002000C80100C04600201E
:100FF40000C8010000000000FD180108DC9305088A
:10100400C94100203900000078940508C841002037
:1010140000C80100C6410020E803D0070100000019
:10102400464C59574F4F4634313100004B41002054
:10103400000301004A41002000030100491801088F
:101044000D18010860950508C91701087D170108E6
:10105400D095050885180108DD3501085096050866
:101064004841002001030100391D01080D1D01083C
:10107400609905080D170108CD160108D0990508D7
:1010840013190108814501086C9A0508E931010822
:1010940000000000149B0508D9390108991D0108B6
:1010A400B09B05086519010800000000309C050884
:1010B4003D1A0108E9190108949C0508CD1A010894
:1010C400911A0108309D05087DB40108811B0108AF
:1010D400B09D0508D743002001060100AD190108A1
:1010E40079190108AC9E0508DFB3010841360108EF
:1010F4001C9F0508C5B40108D936010818A00508C5
:10110400D643002001030100CD1801089D180108F1
:10111400ECA00508651D01080000000050A10508A9
:101124004D170108AD350108B4A105080000000001
:101134000000000040A20508B51B01085137010852
:10114400C0A205082A41002088136F17010000007F
:101154002C41002088136F170000000092660020C5
:101164000000000000000000906600200000000065
:10117400000000008E660020000000000000000057
:101184008C66002000000000000000008A66002039
:10119400000000000000000088660020000000003D
:1011A40000000000F80C0020000000000000000017
:1011B400004100200200000048A405082841002046
:1011C40088136F17010000009471002088136F17B3
:1011D40000000000611601080000000054A4050886
:1011E400AE46002001000000A8A405089671002066
:1011F40001000000B4A405088C7100200200000066
:10120400BCA405080000000000000000C8A40508F4
:101214004D1601080000000064A505080000000048
:1012240000000000B8A50508000000000000000050
:1012340028A6050890710020E0150C170000000096
:101244000403090412010002EF0201408304563230
:101254000002010203010000120100020202004028
:101264008304405700020102030100000902200028
:10127400010104C0320904000002080650050705F4
:1012840081024000000705010240000009026400D9
:10129400030100C032090400000103000000092119
:1012A400110100012226000705830308000A080B28
:1012B4000102020201000904010001020201000509
:1012C400240010010524010002042402020524065E
:1012D4000102070582030800FF09040200020A0054
:1012E40000000705010240000007058102400000DC
:1012F40009024300020100C0320904000001020295
:101304000100052400100105240100010424020247
:101314000524060001070582030800FF09040100F3
:10132400020A0000000705010240000007058102CF
:1013340040000000FF00000010A7050800000000A6
:101344000000000000000000000000000000000099
:101354000000000000000000000000000000000089
:1013640000FFFF0000000000AA5505010000010075
:10137400E4A60508000000000000000000000000D2
:101384000000000000000000000000000000000059
:101394000000000000000000FF1FFF1F05010905F9
:1013A400A101A100050109300931093209330935C8
:1013B4000934094009381581257F7508950881028B
:1013C400C0C0000009022200010100E0320904004B
:1013D4000001030102000921110100012226000776
:1013E40005830308000A0000000000000102030452
:1013F400010203040607080979E501087DE40108F0
:10140400D5E8010899B8010811BE0108A9B8010876
:10141400C5B8010871B8010861B8010800000000EE
:10142400000000002D202D2D202D2D2D2D202D2DC3
:101434002D2D00000000000000000000000000004E
:10144400000000AA550B010000AA5507010000AADC
:10145400550902000000AA5503009F000100000086
:10146400C012000048760020000000006C760020C6
:10147400000000000100000000000100E001000085
:101484000000803F0000803FFFFFFFFF0801FFFFD7
:10149400FF000000685E0C0001000000A00F0000C7
:1014A400B80B00000102FFFF01000000F5BD0108B8
:1014B400E1BC0108B1E80108000000005DB80108C2
:1014C40069E4010831BC0108E1E3010800000000FF
:1014D4000000000019B80108ADB70108A1B7010860
:1014E400E5D9010801DA0108C9D90108ADD9010813
:1014F40091D90108ADBD0108BDBC0108F1E701089F
:101504000000000031B80108E5E3010805BC01084A
:1015140041E30108000000000000000025B80108B4
:101524000000000038B200200800000000000000A5
:1015340028B200200800000020000000201E060839
:10154400A82E0608B42E0608C02E0608CC2E0608BF
:10155400D82E0608FC170608CC490608B048060829
:101564006C2E060858740608182D06089C2E0608CA
:10157400A02E0608A42E06082C1E0608E42E060833
:10158400E82E060820470608EC2E06081900C800B5
:10159400F40120030000803FFFFFFFFF0000803FB5
:1015A400000000000000000000000000FFFFFFFF3B
:1015B400FF000000B80B000001000000A4D00020D0
:1015C4007D0000000000803F0000000000000000DB
:1015D400000000000000803F000000000000000048
:1015E40000000000000000000000000000000000F7
:1015F4000000000000000000000000000000803F28
:1016040000000000000000000000000001000000D5
:10161400B06F06080000080205030300B86F06084F
:101624000100080205040300843106080200FE01DB
:1016340001100300DC0B0608030014020003000081
:10164400C06F060804001F0201000800C86F0608E6
:1016540005001F0201010800FFFF0000FFFFFFFF5C
:10166400080000009DB7010899B7010895B7010863
:1016740089B7010885B7010891B701088DB701083A
:101684000100000000600240106002400000000001
:1016940000000000000B000000000000000000003B
:1016A40000000000006002402860024001000000C9
:1016B40000000000060C0000000000000000000014
:1016C4000000000000600240406002400200000090
:1016D40000000000100D00000000000000000000E9
:1016E4000000000000600240586002400300000057
:1016F40000000000160E00000000000000000000C2
:10170400000000000060024070600240040000001D
:1017140000000000200F0000000000000000000096
:1017240000000000006002408860024005000000E4
:10173400000000002610000000000000000000006F
:101744000000000000600240A060024006000000AB
:101754000000000030110000000000000000000044
:101764000000000000600240B86002400700000072
:1017740000000000362F0000000000000000000000
:1017840000000000006402401064024000000000F9
:10179400000000000038000000000000000000000D
:1017A40000000000006402402864024001000000C0
:1017B40000000000063900000000000000000000E6
:1017C4000000000000640240406402400200000087
:1017D40000000000103A00000000000000000000BB
:1017E400000000000064024058640240030000004E
:1017F40000000000163B0000000000000000000094
:101804000000000000640240706402400400000014
:1018140000000000203C0000000000000000000068
:1018240000000000006402408864024005000000DB
:10183400000000002644000000000000000000003A
:101844000000000000640240A064024006000000A2
:10185400000000003045000000000000000000000F
:101864000000000000640240B86402400700000069
:1018740000000000364600000000000000000000E8
:10188400000000004C700608082106080000000053
:10189400C5150308A0860100040000000000000034
:1018A4000000000000000000000000000000000034
:1018B4000000000000000000000000000000000024
:1018C400000000004C7006086C740608000000005C
:1018D400F59D0208E8030000040000000000000079
:1018E40000000000000000000000000000000000F4
:1018F40000000000000000000000000000000000E4
:10190400000000006C0F06089C4706080000000059
:10191400BD8503087D0000000600000000000000F3
:1019240000000000000000000000000000000000B3
:1019340000000000000000000000000000000000A3
:10194400000000009C6F060800000000000000007A
:10195400B5FF0208E80300000300000000000000D7
:101964000000000000000000000000000000000073
:101974000000000000000000000000000000000063
:10198400000000007474060800000000000000005D
:101994004186040810270000030000000000000036
:1019A4000000000000000000000000000000000033
:1019B4000000000000000000000000000000000023
:1019C40000000000BC6F06080000000019130408A2
:1019D40089EE02085F7600000500000000000000A8
:1019E40000000000000000000000000000000000F3
:1019F40000000000000000000000000000000000E3
:101A040000000000F872060800000000000000005A
:101A1400CD0D0308102700000100000000000000A5
:101A240000000000000000000000000000000000B2
:101A340000000000000000000000000000000000A2
:101A44000000000080740608000000000000000090
:101A5400F99D0208E80300000500000000000000F2
:101A64000000000000000000000000000000000072
:101A74000000000000000000000000000000000062
:101A8400000000008C740608000000000000000044
:101A9400911D0308204E0000030000000000000018
:101AA4000000000000000000000000000000000032
:101AB4000000000000000000000000000000000022
:101AC400000000009C7406080000000000000000F4
:101AD400951B0308204E00000300000000000000D6
:101AE40000000000000000000000000000000000F2
:101AF40000000000000000000000000000000000E2
:101B040000000000AC7406080000000000000000A3
:101B140049040308400D0300030000000000000016
:101B240000000000000000000000000000000000B1
:101B340000000000000000000000000000000000A1
:101B440000000000442D0608000000000000000012
:101B5400F9FC02081027000001000000000000004A
:101B64000000000000000000000000000000000071
:101B74000000000000000000000000000000000061
:101B840000000000401E06080000000000000000E5
:101B9400815202081027000003000000000000002A
:101BA4000000000000000000000000000000000031
:101BB4000000000000000000000000000000000021
:101BC40000000000BC7406080000000000000000D3
:101BD40051AF0108A08601000100000000000000D0
:101BE40000000000000000000000000000000000F1
:101BF40000000000000000000000000000000000E1
:101C040000000000A06F06080000000000000000B3
:101C140051A4020850C300000100000000000000AD
:101C240000000000000000000000000000000000B0
:101C340000000000000000000000000000000000A0
:101C440000000000C80A06080000000000000000B0
:101C540069A10208A8610000010000000000000062
:101C64000000000000000000000000000000000070
:101C74000000000000000000000000000000000060
:101C840000000000C474060800000000000000000A
:101C9400F1930208A086010001000000000000008A
:101CA4000000000000000000000000000000000030
:101CB4000000000000000000000000000000000020
:101CC40000000000642D0608000000000000000071
:101CD40005C80208A00F0000010000000000000079
:101CE40000000000000000000000000000000000F0
:101CF40000000000000000000000000000000000E0
:101D040000000000D074060800000000000000007D
:101D14009983020810270000010000000000000061
:101D240000000000000000000000000000000000AF
:101D3400000000000000000000000000000000009F
:101D440000000000FC16060800000000000000006F
:101D54002D7C02081A410000010000000000000070
:101D6400000000000000000000000000000000006F
:101D7400000000000000000000000000000000005F
:101D840000000000880A06080000000000000000AF
:101D9400C5C0010810270000010000000000000079
:101DA400000000000000000000000000000000002F
:101DB400000000000000000000000000000000001F
:101DC400000000001C2106080000000000000000C4
:101DD400014D01081A41000001000000000000004C
:101DE40000000000000000000000000000000000EF
:101DF40000000000000000000000000000000000DF
:101E040000000000DC740608000000000000000070
:101E140029C70108400D0300000000000000000075
:101E240000000000000000000000000000000000AE
:101E3400000000000000000000000000000000009E
:101E440000000000E4740608000000000000000028
:101E5400B19D0208400D03000000000000000000D6
:101E6400000000000000000000000000000000006E
:101E7400000000000000000000000000000000005E
:101E840000000000EC7406080000000000000000E0
:101E9400158E020850C3000003000000000000007B
:101EA400000000000000000000000000000000002E
:101EB400000000000000000000000000000000001E
:101EC40000000000F8740608000000000000000094
:101ED400091B030840420F0000000000000000003E
:101EE40000000000000000000000000000000000EE
:101EF40000000000000000000000000000000000DE
:101F04000000000004750608000000000000000046
:101F1400FD07030850C3000000000000000000009B
:101F240000000000000000000000000000000000AD
:101F3400000000000000000000000000000000009D
:081F4400000000000000803FD6
:1080000003685A1C02601970704700BF2DE9F047E1
:10801000089C2578002B804689460CBF4FF0200A2B
:108020004FF0300A661C25B3002A26DD334601E0F6
:10803000024698B113F8011B501E0029F8D1971E73
:1080400060B13D46013D51464046C8476B1C002B80
:10805000F8DC257827EAE770013045B1041B294692
:108060004046C847301916F8015B002DF7D1BDE82E
:10807000F087002A03DC2846F9E70020EEE7571EC8
:10808000DFE700BF2DE9F04714461D4606464FF4D2
:108090007A720023204629464EF054F94D4BDFF802
:1080A00048814D4A4D4F034488FB03101844D917AB
:1080B00082FB032CC1EB601088FB002887FB0327A1
:1080C0009C44474AC1EBEC2CC0EB001E82FB0C2900
:1080D000A3EB8E0E1F44434A86F806E0C1EB274708
:1080E0004FEAEC7E08EB000ACEEBA90E82FB07827A
:1080F0004FEAE0780EEB4E0EC8EB6A18ACEBCE0CF4
:10810000C8EB0818DFF8E4E086F804C0A0EB8800AC
:1081100070718EFB0303F817C0EBE21240F2B5500A
:1081200000FB1272C1EBE353B2F5896F4FEA83078C
:108130003CDA40F2DA239A4242DCB2F5B77FB4BFB0
:108140004FF0000E4FF0010E4FEA4E09DFF8A0800D
:1081500009EB0E0308EBC3031FFA8EFCD88A09EB68
:108160000E0108EBC10116310B2301E031F8020DBD
:10817000904218DD013BF9D1CE44012338F83E008E
:10818000B37007F5FA670132121ABC44F270A6F810
:1081900000C0204629464FF47A7200234EF0D2F8F0
:1081A0003281BDE8F0870133DBB2E9E74FF0030C21
:1081B000E64640F29650DFF838804FF00609CEE7E9
:1081C0004FF0020CDFF82880E64640F229404FF0DD
:1081D0000409C4E780BC92C7C5B3A29107452EC26B
:1081E000ABAAAA2A73B06D1689888888792D0311E5
:1081F000487F05080028F0B403DA2D230B704042B5
:108200000131092804464FF0010307DD03EB830326
:108210005B00B0FBF3F2092AF8D883B10F48A0FB4A
:108220000326B4FBF3F2092A02F1570C02F13007DE
:1082300009DD03FB1244F30801F801CBEFD1002361
:108240000B70F0BC704703FB1244F30801F8017B8C
:10825000E5D100230B70F0BC704700BFCDCCCCCC77
:10826000884270B44FF0010442D301FB04F4B0FB28
:10827000F4F58D42F9D2ECB142BB092D04FB150097
:1082800005F1570605F130020EDDB4FBF1F403F8F9
:10829000016B7CB1B0FBF4F5092D04FB150005F171
:1082A000570605F13002F0DCB4FBF1F403F8012BC2
:1082B000002CEFD100221A7070BC704703F8016BDC
:1082C000B4FBF1F4002CF5D0B0FBF4F5092D04FB60
:1082D000150005F1370605F13002EFDCB4FBF1F4CF
:1082E00003F8012B002CEFD100221A7070BC7047EC
:1082F0000546002AEAD1C0E790ED057A90ED004AE4
:10830000D0ED066AD0ED014AD0ED047A90ED035A23
:10831000D0ED025AA4EE007AB0EE406AB0EE470A01
:10832000B0EE667AA4EE867A67EEC07AA5EE407A61
:10833000E5EE867A80ED057AC0ED067A704700BFDB
:10834000D0ED057A90ED013AD0ED003AD0ED064A35
:1083500090ED024A90ED077A90ED035A90ED086A8D
:10836000D0ED045AC0ED067AF0EE406A27EE830A9B
:10837000C0ED056AA3EEA60A80ED087AA4EE240AF1
:10838000A5EE470AA5EEC60A80ED070A704700BFB2
:10839000D0ED007A90ED017A30EE670AE7EE007AD0
:1083A000B0EE670AC0ED007A704700BF704700BFAB
:1083B00030B414220023232503240221C270012299
:1083C0008571C4710370C3728373C373417041724A
:1083D00082700272827230BC704700BF0023062197
:1083E0004FF47A720170C0E901230373704700BF34
:1083F00030B41023112221254FF47F44FF21437014
:10840000427101230022C5700482817403720370DB
:108410000371837042818281C28130BC704700BF8A
:108420002DE9F04F3149324B83B001F5A07B01902B
:1084300012274FF000092F481022012603E02030B8
:1084400098420BD002799742F9D102680C68A24297
:1084500009D02030984206F10106F3D12031594568
:108460003AD00F79E7E744794D79A542F1D19446A6
:10847000019A214809EB490502EB050A57558AF88C
:10848000016000F572751D4E624603E0A8421AD0E5
:1084900050F82C6FB242F9D10679A642F6D1CF68D6
:1084A00006464FF0000C96468046F268BA4216D057
:1084B0000CF1010CBCF1030F06F10C06F5D140469E
:1084C000A8427246E4D14FF0FF3C203159458AF86A
:1084D00002C009F10109C4D103B0BDE8F08F0869F9
:1084E00032698242E4D14FFA8CFCEEE764C405089D
:1084F000F4F2050834E90508F4F20508000001402B
:1085000030B41522162317252D242E210270437016
:108510002F22FF23857044718171C271437383736D
:10852000C37003710372437230BC704710B42C21C6
:10853000012402220023047041708270C3705DF830
:10854000044B7047034600F11001FF221A705A7065
:1085500002339942FAD1027042708270C270704741
:1085600030B41D6995420AD314460A4621448D420F
:10857000996938BF2A1B214430BC4EF06DB930BC1C
:10858000704700BF002070470120704701207047EE
:10859000002070474FF40070024B10609B680B6026
:1085A0000020704750F70020013A30B4D2B28C1C42
:1085B00004EB42040025020F092AD3B203F1300272
:1085C0008ABF37330A700B704D7002318C424FEA0C
:1085D0000010F0D130BC70470B4A0C4B10681B6880
:1085E0001A22C0180A8001D10948704710B5094BFA
:1085F00009491C680822FFF7D7FF204604220749D3
:10860000FFF7D2FF024810BDE8F7FF1FECF7FF1F8E
:1086100098010020EAF7FF1F9A010020AA0100201C
:1086200004230B8000487047B401002012230B8004
:1086300000487047B80100202222022302704370D4
:10864000704700BF08307047704700BF81617047B6
:108650006D4B2DE9F04F1C686C4BB3F80AE0B3F892
:1086600004809A894FEA0E2AB4EB0A044FEA1E6B83
:108670004FF0000587B065EB0B05CDE900450746D7
:10868000009C1889019EA0FB044500FB0655E009EB
:1086900040EA45604FEA08448C46E9114FEA184524
:1086A00010EB0408D888009C41EB0509CDE904894A
:1086B000A0FB0445B3F8028000FB0655200A40EAFF
:1086C00005604FEAC83429124FEA584510EB0408F8
:1086D00041EB05090099A2FB010102FB06114FEADB
:1086E000D05A4AEA412A1AF5FA634FEAE15B4BF1A4
:1086F0000004B3F5FA6FCDE9023474F10003424E81
:1087000064DA0524AAFB040104FB0B1100FB0BF443
:108710000AFB0144DDE90423A0FB0A0121444D10BA
:108720004FEA3004121B4FEA900463EB050344EA5E
:108730008174B8EB0408CDE90423DDE90234344840
:108740004FEAA10569EB05094FF0FF31834274EB55
:10875000010326DA40F6AC501AEB00024FF000019C
:108760004BEB010302FB03F1A2FB022303EB4103EA
:10877000D400DD00101B45EA527563EB0501DDE90D
:10878000044524184D41CDE904450B24A2FB040106
:1087900004FB031149104FEA3000B8EB000869EB05
:1087A0000109DDE900325343009ADDE90201A2FB31
:1087B00002AB0BEB430B4FEADA7242EA4B02801A30
:1087C0004FEAEB7361EB0301CDE9020197B17168E8
:1087D000A1FB082301FB0933540D5D1544EAC324B2
:1087E000DDE90423A21A65EB03031D46D30B43EA1C
:1087F00045433B60BCF1000F02D0029BCCF8003037
:1088000007B0BDE8F08F00BFE017002048590020F6
:1088100024FAFFFF2DE9F04FDFF8DCC1754CDCF8DE
:1088200008502288B4F90AA0C2EB25135200C2EB0B
:10883000E502B4F902505B436A43B4F904501B13D8
:108840005D43AD1305EBE225B5F5FA324FEAE57B62
:1088500085B04BF1FF33CDE90023DDE9003253430E
:10886000009AA561A2FB0289CDE90201B4F90820B2
:108870000199009809EB43095143D31700FB0311F9
:10888000A2FB00230B444FEAEA7B0AFB09F11F031A
:1088900008FB0B13AAFB080119444FEA102A4AEA05
:1088A000016A16034FEA212B47EA12571AEB060218
:1088B000E6884BEB070312F1000A43F5004BAAFBD5
:1088C000060106FB0B114A10CB1752EA030100F018
:1088D0008E80B4F91060009806FB09F1F71708FBC9
:1088E0000711A6FB08673944B4F90E808B4601993D
:1088F0004FEAE87908FB01F100FB0911A8FB0089A8
:108900008944DCF80C104FEA4947C1F5801C47EA5E
:10891000D837B2464FEA4846B4F90C801AEB060A3B
:1089200066464BEB070BF7174FEAC8060196002681
:108930000096F907DDE900674FEACC7016EB0A06EE
:1089400047EB0B0741EA5C01801B61EB070140F636
:10895000354C8946A0FB0C010CFB09114DF0F2FCD3
:10896000B4F91620B4F914A04E13470B47EAC147D7
:1089700002FB06FCD31707FB03CCA2FB07236344CF
:10898000564307FB0366A2FB07233344560E46EA11
:10899000C31632184FEA636747EB010380460AFBB0
:1089A00001F14FEAEA7B08FB0B17AAFB08013944E7
:1089B000C60C46EA413612EB06084FEAE147B4F925
:1089C000122043EB07094FEA182141EA096113011C
:1089D0000B44029A0AB11B0A1360039B23B105EBF7
:1089E000850580352D121D6005B0BDE8F08F002390
:1089F000EFE700BF5C590020E01700207047704788
:108A00002DE9F041334B344E1A8A7489B6F914506B
:108A1000B6F90480B6F90E70B6F920C05B69121B76
:108A200034895443E213B6F912401544E40294FB2E
:108A3000F5F4B6F902501444A4F57A6E0EFB0EF26A
:108A40000EFB05F50EFB08FEB6F90C80F46112135F
:108A5000574302FB08F2121402EB6E32ED1205EBE3
:108A6000E7270232B6F90050B6F806E0921002F598
:108A7000004207EB85070EFB02F207FA0CF74FEAFC
:108A8000D23E02374CF25032A3EBA70742FA0CF366
:108A90007B4355BF5B00B3FBFEF3B3FBFEF35B0010
:108AA00078B11A1202FB02F540F6DE326A430B4D32
:108AB00012145D4302EB254202F6CF6203EB221350
:108AC000036021B10A235C43083424110C60BDE823
:108AD000F08100BFE01700202459002043E3FFFF8E
:108AE000012380F8503070474FF4006303837047D0
:108AF0004FF4006303837047F0B4037C4569026858
:108B00001F2B37D9203B2021546899400C4223D099
:108B100010249C40D160D4605168D940CE074ED417
:108B2000EFF31183502282F312882A6C1168C9076F
:108B300009D45468002C52D1D5E909618E4243D141
:108B4000012285F86420DBB283F31188037C02687C
:108B50001F2B194614D9203B082150689940084220
:108B600000D0D1600421506801FA03F3184223D1E8
:108B7000F0BC7047202416689C4026420FD119464D
:108B8000082310688B40184200D0936004231068BB
:108B900003FA01F10842EBD09160F0BC704710215C
:108BA0009940946091601168D940CC07B8D50121F3
:108BB00001FA03F39360B3E7D360F0BC704701217F
:108BC00001FA03F3D360ABE7AF690F44D7600ED867
:108BD0002E69711A5160AC62002185F86410116829
:108BE00041F00101DBB2116083F31188AEE7711A25
:108BF0005160AE62F0E700BFF0B4714B71491A7872
:108C00000B789A4240F07E816F4B1A78002A00F070
:108C1000D4806E4B19786E4B002940F0DB801868C9
:108C2000B3F83261048824F080042404240C048006
:108C300093F83041C462058845F0800505804162A3
:108C40008489012A44EA06048481A3F8321100F0E1
:108C5000B480D3F83401B3F86662048824F0800449
:108C60002404240C048093F86442C462058845F00F
:108C70008005058041628489022A44EA06048481D1
:108C8000A3F8661200F09980D3F86802B3F89A63EB
:108C9000048824F080042404240C048093F898436E
:108CA000C462058845F08005058041628489032AF5
:108CB00044EA06048481A3F89A137ED0D3F89C0377
:108CC000B3F8CE64048824F080042404240C0480C7
:108CD00093F8CC44C462058845F080050580416264
:108CE0008489042A44EA06048481A3F8CE1464D05B
:108CF000D3F8D004B3F80266048824F08004240476
:108D0000240C048093F80046C462058845F0800571
:108D1000058041628489052A44EA06048481A3F817
:108D200002164AD0D3F80406B3F83667048824F054
:108D300080042404240C048093F83447C46205881A
:108D400045F08005058041628489062A44EA0604CC
:108D50008481A3F8361730D0D3F83807B3F86A689F
:108D6000048824F080042404240C048093F86848C8
:108D7000C462058845F08005058041628489072A20
:108D800044EA06048481A3F86A1816D0D3F86C2844
:108D9000B3F89E59108820F080000004000C108069
:108DA00093F89C09D062148844F0800414805162C6
:108DB000908928439081A3F89E19F0BC704700BFAA
:108DC000B4B40020B5B40020B00601204DFE002050
:108DD000B40601205C68198961602568186845F04F
:108DE000010540F20D312560A0F848108489012A60
:108DF00044F480748481E0D0D3F83841B3F83C5116
:108E0000D3F834016560256845F001052560A0F8B8
:108E100048108489022A44F480748481CDD0D3F828
:108E20006C42B3F87052D3F868026560256845F06B
:108E300001052560A0F848108489032A44F4807451
:108E40008481BAD0D3F8A043B3F8A453D3F89C03D9
:108E50006560256845F001052560A0F84810848903
:108E6000042A44F480748481A7D0D3F8D444B3F89E
:108E7000D854D3F8D0046560256845F00105256015
:108E8000A0F848108489052A44F48074848194D021
:108E9000D3F80846B3F80C56D3F804066560256885
:108EA00045F001052560A0F848108489062A44F49D
:108EB0008074848181D0D3F83C47B3F84057D3F80D
:108EC00038076560256845F001052560A0F8481061
:108ED0008489072A44F4807484813FF46EAFD3F808
:108EE0007028B3F87408D3F86C385060106840F0FC
:108EF00001001060A3F848109A8942F480729A81A8
:108F0000F0BC70475C00E618484D15F83660032E3B
:108F10003FF67AAEDFE806F04D261C02E01805EBBE
:108F2000C0004468661E012C46603FF646AF013320
:108F300003F00303D8B2824208703FF465AE03EB3E
:108F40004303DB00EA1802200021E854516034E7B3
:108F5000E11805EBC1014868461E01284E603FF646
:108F60002CAF0DE0E118C90068184668771E012E85
:108F700047603FF622AF02274FF0FF366F5446603E
:108F8000E618F600AF192A48397B00680139C9B2E2
:108F9000397389B34FF47A722344B2FBF0F200FBC9
:108FA00002F0B0F57A7F05EBC30518BF01326A60A5
:108FB0002AE670B11F49012600220F890132002FD5
:108FC00018BF0026824201F58671F6D1002E3FF4CB
:108FD0001BAE174A126842F21076E018B6FBF2F1A7
:108FE00002FB1162012605F8306002B131442344CE
:108FF00005EBC305696007E6BF68B7FBF0F100FB4E
:1090000011700327AF5500B101311C44013305EB4A
:10901000C40503F00303934269603FF4F5AD0029F2
:109020003FF4F2AD01396960EEE500BFB8B400204D
:10903000580E002050FE002010B5027C01681F2A47
:109040004FF020030ED94C68203A93401C4208D0C0
:109050000B4A406800241470026822F0010202608A
:10906000CB6010BD0C6893401C42FAD0044A4068A3
:1090700000241470026822F0010202608B60F0E7A5
:10908000239400202DE9F041C40023189B00B74928
:10909000CA585268958AADB2EFB2FE070B4461D44C
:1090A000BE0737D5BFF35F8F1D7EEDB2012D00F0F7
:1090B000BB80AF4E138BBFF35F8F231801EB83038D
:1090C0001D7E022D00F0CE80231801EB83031D7E50
:1090D000032D05D19B7E1BB1737E002B40F01A81BE
:1090E000938896F918C043F480639380231801EBAA
:1090F00083031B7E013363450AD1B37E0025757659
:10910000002B40F08A80204401EB8000002343754F
:10911000BDE8F081964E17F0040F96F918C04DD1B6
:1091200017F0400700F0B280178A1D6AFFB205F8F9
:109130000C705FFA8CF56F1C93F818E07BB2DF1CA3
:10914000BE4533769C4600F00981271801EB87075E
:109150003F7EBB42CAD105F1020C4FFA8CFC86F867
:1091600018C0C3E71588824E25F400652D042D0C28
:109170001580158845F4806515809D7E002737761B
:10918000002D3DD0757E002D37D0231801EB8303D1
:1091900001251B7E7576022B03D1138843F40063EF
:1091A0001380231801EB83039B7D43F0010313829B
:1091B000204401EB8000037EBDE8F0819F7E757E38
:1091C0004FF0010E86F81AE0002F5CD0002D78D108
:1091D000231801EB83035B7E002B00F0A48013882F
:1091E0000CF1010C4FFA8CFC43F4007386F818C0A4
:1091F00013801388DF05FCD478E7DB7DFF2BC4D018
:10920000231801EB83039D7D05F0FE051582DB7DB0
:10921000FF2BCDD0FF233376CAE7938823F4407326
:109220001B041B0C93806EE79B7E514E002B3FF47A
:1092300041AF737E002B3FF43DAF138823F480636E
:109240001B041B0C1380BFF35F8F138B1388B57641
:1092500043F400731380938896F918C043F4806335
:10926000938043E79B7E002B3FF42EAF737E002B51
:109270003FF42AAF138896F918C023F480631B04C7
:109280001B0C138016E0002DA2D0A8E72D067FF559
:109290002DAFBCF1FF3F6DD0DD6915F80C50158284
:1092A0000CF1010C1D7E4FFA8CF39D429C463376E7
:1092B0007FF41CAF938823F480631B041B0C938002
:1092C00014E71F7ED3F820805FFA8CF5AE44022F9E
:1092D0004FFA8EFE17882DD927F480673F043F0C84
:1092E0001780178AFFB208F80C701788D3F820C0CF
:1092F00047F400731380138ADBB20CF80E309388A6
:1093000005F1020C4FFA8CFC43F4806386F818C018
:1093100093806EE7938896F918C023F480631B044A
:109320001B0C9380E2E61388012543F480731380BD
:1093300075765EE747F400771780178AFFB208F862
:109340000C70178AD3F8208005F1030C4FFA8CFCBF
:10935000FBB286F818C008F80E304AE7978827F461
:1093600080673F043F0C9780EFE600BF70B100209C
:10937000E0170020DD7D15829D7E37761DB91B7EAE
:10938000002B7FF415AF938823F480631B041B0C20
:1093900093800DE744F07ABC38B51D4B1B7804462A
:1093A00000F1250593B104221A4920304EF0B6FD94
:1093B0002846142218494EF0B1FD012384F83A30B2
:1093C000164B1B7873B984F83B3038BD28461422FD
:1093D00013494EF0A3FD012384F83A300F4B1B785C
:1093E000002BF0D00F4B186859689A68DD68E5606B
:1093F00020606160A260DD69186959699A69A2619B
:109400000123E5612061616184F83B3038BD00BF14
:109410001DAD0020ECAC0020D4AC00201EAD00201F
:10942000BCFE0508F4AC0020014B186823F0E6B937
:10943000A0AB002010B429212824012200230470AD
:1094400041708270C3705DF8044B70472DE9F84F8E
:10945000DDE90A6489461746002120229846054620
:109460004EF01EFD5EB1D6E900327189EB81C3F387
:109470000F432B82C2F30F43EA822B836982484653
:109480004CF06AFA17F0100B10D1431E70B119F8A6
:1094900003202E2A18BF09EB030104D14AE011F87A
:1094A000016D2E2E3ED013F1FF33F8D2082802466C
:1094B000CA46A8BF08224FF0000B4FF020336B6064
:1094C0002B60C5F807304946284605F108064DF0DF
:1094D000C3F95A46514630464DF0BEF96B1EE81DA1
:1094E00013F8012FA2F1610119299CBF203A1A70CB
:1094F0008342F5D105F10B0116F8013BA3F161029E
:10950000192A9CBF203B06F8013CB142F4D1182334
:10951000C8F30F42EF722B73A5F81A80AA82EC6190
:10952000BDE8F88FC01A00F1FF3BBBF1030FA8BFE5
:109530004FF0030B082B03F1010AA8BF0823CA440C
:109540001A46BAE738B5302200214EF0A9FC03468E
:10955000642440F2DC5040F21A4140F26C7240F256
:1095600002251C745882132419209982DA8240F251
:10957000753140F643021D839C760E250A24187728
:10958000D9831E2002211A84012283F82E00197229
:1095900083F82C1083F8225083F82D409A7383F8B7
:1095A000252083F82B2019460248BDE8384039F0C1
:1095B00069B800BFC8FE050810B5002104460120A7
:1095C00022F040F9207010BD38B500240472451E09
:1095D000E1B2022022F036F90134082C05F8010F1F
:1095E000F6D138BD38B5002405460480214628460A
:1095F000013420F0FDF8082CF8D1002185F8E210A4
:10960000A5F8E410A5F8E610A5F8E810A5F8EA100A
:10961000A5F8EC10A5F8EE10A5F8F010A5F8F210DA
:109620002846BDE8384020F0A5B800BF2DE9F04F2E
:10963000002087B00C461D460121924625F0D8FB3C
:10964000002D63D005EB0A03DFF8D094DFF8D0B427
:10965000039355461CE0002D00F0C581D9F8143065
:10966000AB4264D0D9F81030AB4200F09780D9E912
:109670000631AB4252D8A94200F26F81691A2046E6
:1096800048F0E2FE039B01359D4204F500743DD095
:10969000D9F82060AE42DED8D9F83080AE1B4FEA50
:1096A000D60AD8F830300AF1020A9A4506F00706C1
:1096B00003D3D8F838309A4509D94146504648F086
:1096C00093FE8046002800F04D81C9F8300098F8DC
:1096D0000430002B40F0E280D8F82870002F00F012
:1096E000DF81D8F83030D8F80C20AAEB030A06EB5B
:1096F000CA0A4346204602EB4A224FF40071B8479B
:10970000039B01359D4204F50074C1D10021084638
:1097100025F06EFB002007B0BDE8F08FA942ADD95F
:109720004FF40072002120464EF0BAFBAAE7522205
:1097300061204123002622706270A070722284F89A
:10974000E70184F8E631D9F82800E3704FF0FF33E1
:10975000314684F8E42184F8E521C4F8E8014FF4A7
:10976000F07284F8EC3184F8ED3184F8EE3184F84D
:10977000EF31201D4EF094FB55216FF05502C4F8D7
:10978000F061C4F8F461C4F8F86184F8FC6184F80D
:10979000FD6184F8FE1184F8FF2173E74FF4007235
:1097A000002120464EF07CFBD44BD54F03CBEB235E
:1097B000022223704FF0080C9026F8234FF0580E29
:1097C000C4F80300227484F80DC0C4F8071084F8AC
:1097D00001E0A6706375D9F81010D9F80830D9F8EF
:1097E0001C602273591A21624FF0FF3100233F2081
:1097F000A1763E21A273E372E3736374A374E374EE
:109800002375A375E3756376E3766377A377E377D0
:109810002076217784F82C2007CFD9F8187084F8A7
:109820002830F61B84F8293084F82A3084F82B304D
:1098300084F82D3084F82E3084F82F3084F83130BD
:1098400084F8323084F8333080236662C4F84700ED
:1098500004F1470684F8403029209423A94F84F866
:1098600046C084F8420084F843300E200D234FF0A8
:10987000010C84F8440084F8453084F830C07160ED
:1098800003CF33465527AA269A60C4F85200C4F87D
:10989000561084F8FE7184F8FF61F3E64FF400720D
:1098A000002120464EF0FCFAD8F84030002E61D15D
:1098B00004F12007002B77D0D8F8303092491122DC
:1098C000CDE900662046FFF7C1FDD8F840301A6C9C
:1098D00004F1400A002A79D01B6B8C49CDE900665F
:1098E00038461122FFF7B2FDD8F84460002E3FF44D
:1098F000C9AE4FF4E078CDE904450CE00024CDE991
:1099000000C4FFF7A3FDB66CBA46A8F120080EB359
:10991000B8F11F0F1ED93468356B96F804E0112298
:109920002B46214650460AF1200706F11C0CBEF1D9
:10993000000FE3D172793369019342F021022B4683
:10994000CDF800C0FFF782FDB66CBA46A8F120083A
:10995000002EDDD1DDE9044594E6E91A204648F001
:1099600073FD8FE6231F04F5FE7243F804BF9A428D
:10997000FBD187E6002BD8F844200CBF012302233B
:10998000C3EB0613002A3FF47DAE966C013B002E1C
:109990003FF478AE013BB66CF9D1002E3FF472AEC5
:1099A000A2464FF40078A6E7CDE900663346D9F821
:1099B0000C1008222046FFF749FDD8F84460002E1D
:1099C0003FF460AEBA464FF4F07894E7CDE9006614
:1099D0003346384611224D49FFF738FDD8F8446028
:1099E000002E86D14EE64FF40072294620464EF0F6
:1099F00057FA80220C2384F8BE2184F8C231D9F8AA
:109A00001000434BD9F8086084F8B85183FB00324A
:109A1000C117C1EB2232B2F5806F84F8B95184F8D6
:109A2000BA5184F8BB5184F8BC5184F8BD51C4F8D4
:109A3000C601C4F8CA6142DBFF2384F8BF3184F851
:109A4000C13184F8C031324B711E83FB0132CE1715
:109A5000C6EB2232B2F5806F29DA2E4B84F8C5218D
:109A600083FB01030B442C48C6EB6313C3EB831643
:109A700080FB0370891B1844DE17921022F03F020E
:109A80000131C6EBE0100A43034484F8C42184F892
:109A9000C3315522AA2384F8FE2184F8FF31F1E571
:109AA00039464FF4007220464EF0FAF9EAE5FF23FA
:109AB00084F8C33184F8C53184F8C431E9E7154B23
:109AC00084F8C12183FB00730344134FC1EB63137C
:109AD00087FB0317C3EB831C9110A0EB0C02F81853
:109AE000DF1721F03F010132C7EBE0100A430344C6
:109AF00084F8C02184F8BF31A5E700BFDCFE05086B
:109B0000E8FE0508F8FE0508D4FE0508D8FE05089D
:109B100097554541832008828180808050F700203E
:109B2000DEADBEEF08B5012015F020FA174A9368A4
:109B300003F00C03042B1ED0082B18D15168536876
:109B4000490203F03F0319D452681148B0FBF3F007
:109B5000C2F3881300FB03F00C4B0E4A5B68C3F39F
:109B6000014301335B00B0FBF3F0106008BD094B0B
:109B7000074A1A6008BD074B186008BDB0FBF3F038
:109B80005368C3F3881300FB03F0E5E70038024095
:109B90000024F40038E6002010B5044C04480A46BE
:109BA000214613F0CFFE204610BD00BFFC17002059
:109BB00004FF050810B5044C04480A46214613F07A
:109BC000C1FE204610BD00BFFC17002014FF050891
:109BD00010B5044C04480A46214613F0B3FE204653
:109BE00010BD00BFFC17002020FF05080A4608B57D
:109BF000054920B1054813F0A5FE034808BD0448F7
:109C000013F0A0FE004808BDFC1700204CFF05081B
:109C100034FF0508F8B584894FF6FF764FF47A745F
:109C200033B319B30F78013101E0B44218D005897C
:109C3000013CAD07A4B2F8D5BCB284814FF47A746C
:109C400002E0BCB2B4420BD00589ED0704F1FF3746
:109C5000F7D58589ADB20AB115700132013BDFE756
:109C600027F044F8003018BF0120F8BDFF27DEE7D9
:109C70000120F8BD30B5437F83B004461BB90120F5
:109C8000637703B030BD0523ADF80430056800BF2D
:109C9000A86825F099F86A4601A902236868FFF7C9
:109CA000B9FFA86825F096F800BF9DF8013003F0D1
:109CB000010383F00100637703B030BDF8B5074CB2
:109CC00005460F46266803E023689B1BBB4204D869
:109CD0002846FFF7CFFF0028F6D0F8BDA8F00020F7
:109CE000F0B5077F83B004464FF0030C00200090CE
:109CF00016461D468DF804008DF800C06FB30B0E9C
:109D00008DF801300DF10203080C0A0A99701870E1
:109D1000062120465A70FFF7D1FFE0B1236800BF4B
:109D2000986825F051F8237F2268002B14BF052383
:109D30000423694650680022FFF76CFF236832460F
:109D4000002158682B46FFF765FF2368986825F0C7
:109D500041F800BF284603B0F0BD0DF10103D3E781
:109D6000F0B5876983B0064617B13B68BA885A8355
:109D70007069DFF8A8E08389C3244FF47A734FF049
:109D8000060C6D464FF6FF710EF1010E03E0013B2C
:109D90009BB28B4220D002899207F8D5A3B283816F
:109DA0004FF47A7302E0A3B28B4215D00289D20736
:109DB00003F1FF34F7D5828992B20DB12A700135D3
:109DC000BCF1000F0BD00CF1FF3CFF24BEF1000FE3
:109DD000E1D09EF80040D7E726F088FFB76917B1B9
:109DE0003B68BA881A839DF805009DF801509DF8DC
:109DF00002109DF803409DF804209DF8063041EACA
:109E0000052143EA002342EA04220120A6F850106B
:109E1000A6F85220A6F8543003B0F0BDA87F05087C
:109E20002DE9F04FB04C436894F81B2185B00190A8
:109E3000002A00F03A811A88AC4922F0400212044C
:109E4000120C1A801A8822F0380212048B424FEA50
:109E5000124200F0288101F580618B420CBF302155
:109E600038210A431A801A880198A14CA14FDFF8C3
:109E700090A2A14DA14E42F040021A806B21802297
:109E800026F050FF152303939623DFF878E2009322
:109E90004FF01008DAF80430C3F30803002B40F049
:109EA000D180EFF31183002B40F0CC802068AA68AA
:109EB00023689842FAD133689A42F7D8D7F800C09D
:109EC0004FF47A7101FB0CF39B1AB3FBFCF301FB1B
:109ED00000304FF47A7C4FF00109DAF80430C3F314
:109EE0000803002B40F09080EFF31183002B40F02B
:109EF0008B802368A96822689342FAD13268914224
:109F0000F7D83A680CFB02FBABEB0101B1FBF2F1B5
:109F10000CFB03131B1AB3F57A7FDED3009B013BC6
:109F20000093B7D1019B9B6813B11A689B88538338
:109F3000019B586840F2E933828902E0002B00F06F
:109F4000AD800289013B12F0020F9BB2F6D0F523DF
:109F5000838140F2E93302E0002B00F09F80028908
:109F6000013B12F0010F9BB2F6D08389838940F246
:109F7000E93302E0002B00F086800289013B12F0F9
:109F8000020F9BB2F6D0FF23838140F2E93301E058
:109F9000002B78D00289013B12F0010F9BB2F7D061
:109FA0008389DBB20293019B9B6813B11A689B887B
:109FB0001383029B982B00F0B08069D9AC2B65D03D
:109FC000AF2B40F0A1800920019B48495B681A88AB
:109FD00022F040021204120C1A801A8822F0380271
:109FE00012048B424FEA124256D001F580618B4237
:109FF0000CBF082110210A431A801A8842F040023F
:10A000001A8005B0BDE8F08FEFF3118188F3128854
:10A01000D5F808B02B68DB0344BFCEF80090D5F824
:10A0200008B02368DEF80020C9B281F311883968CE
:10A0300013440CFB01F2A2EB0B02B2FBF1F20CFB9E
:10A04000032367E7EFF3118388F31288D5F808C07C
:10A050002A68D20304D50122CEF80020D5F808C022
:10A060002068DEF80090DBB283F3118839684FF482
:10A070007A72484402FB01F3A3EB0C03B3FBF1F348
:10A0800002FB003025E726F031FE8CE707209BE736
:10A09000122B39D1082097E70821ACE726F026FEDD
:10A0A000019B586862E73021DBE61A880F4922F0ED
:10A0B00040021204120C1A801A8822F0380212048C
:10A0C0008B424FEA12422AD001F580618B420CBFCD
:10A0D000082110210A431A801A88012142F0400207
:10A0E0001A8084F81B11A6E6E01700200038004013
:10A0F000A8F00020ACF0002010E000E0B0F000205C
:10A1000000ED00E0A4F00020039B013B13F0FF03EF
:10A1100003937FF4B9AE039873E70B2054E708214B
:10A12000D8E700BF2DE9F04F87B0A94A02904068F8
:10A13000038823F040031B041B0C0380038823F0D7
:10A1400038031B0490424FEA134300F03F8102F5AD
:10A15000806290420CBF3022382213430380029B5E
:10A1600002889B6842F04002028013B11A689B8803
:10A170005383838940F2E93302E0002B00F09081A1
:10A180000289013B12F0020F9BB2F6D06B23838150
:10A1900040F2E93302E0002B00F082810289013BAA
:10A1A00012F0010F9BB2F6D08389838940F2E93324
:10A1B00002E0002B00F071810289013B12F0020FD6
:10A1C0009BB2F6D08023838140F2E93302E0002B7A
:10A1D00000F063810289013B12F0010F9BB2F6D0BF
:10A1E0008389029B9B6813B11A689B88138306239B
:10A1F000784CDFF8EC81DFF8ECA1774D774E0493D3
:10A200009623DFF8E4C101934FF0100EDAF8043022
:10A21000C3F30803002B40F0B280EFF31183002B4F
:10A2200040F0AD802068AA6823689842FAD133686C
:10A230009A42F7D8D8F800704FF47A7101FB07F30F
:10A240009B1AB3FBF7F301FB00304FF47A774FF022
:10A250000109DAF80430C3F30803002B70D1EFF3DF
:10A260001183002B6CD12368A96822689342FAD12C
:10A2700032689142F7D8D8F8002007FB02FBABEB1D
:10A280000101B1FBF2F107FB03131B1AB3F57A7F4F
:10A29000DFD3019B013B0193B8D1029B9B6813B1B3
:10A2A0001A689B885383029B586840F2E93382897D
:10A2B00002E0002B00F085800289013B12F0020FC2
:10A2C0009BB2F6D0F523838140F2E93301E0002B05
:10A2D00077D00289013B12F0010F9BB2F7D083893E
:10A2E000838940F2E93301E0002B67D00289013B0A
:10A2F00012F0020F9BB2F7D0FF23838140F2E933C3
:10A3000001E0002B5AD00289013B12F0010F9BB2F1
:10A31000F7D08389DBB20393029B9A6812B113686A
:10A3200091881983039B682B60D0049B013B13F039
:10A33000FF0304937FF464AF184607B0BDE8F08FC5
:10A34000EFF311818EF31288D5F808B02B68DB0388
:10A3500044BFCCF80090D5F808B02368DCF80020A2
:10A36000C9B281F31188D8F80010134407FB01F239
:10A37000A2EB0B02B2FBF1F207FB032385E7EFF33D
:10A3800011838EF31288AF682A68D20303D50122A5
:10A39000CCF80020AF682068DCF80090DBB283F3D3
:10A3A0001188D8F800104FF47A72484402FB01F388
:10A3B000DB1BB3FBF1F302FB003046E726F096FC13
:10A3C000AAE726F093FC029B586889E73022C4E68E
:10A3D00000380040A8F0002010E000E0B0F00020BD
:10A3E000ACF0002000ED00E0A4F0002012B11368F2
:10A3F00092885A83029B586840F2E933828901E0CF
:10A40000002B45D00289013B12F0020F9BB2F7D01E
:10A410008C23838140F2E93301E0002B38D002899C
:10A42000013B12F0010F9BB2F7D08389838940F280
:10A43000E9330289013B12F0020F9BB215D1002BC8
:10A44000F7D126F053FC029B9B6813B11A689B88D6
:10A450001383059B142B04D3182B17D9543B062BBD
:10A4600014D9002007B0BDE8F08FFF23838140F2AC
:10A47000E93301E0002BE4D00289013B12F0010F27
:10A480009BB2F7D08389DBB20593DCE7032054E766
:10A4900026F02CFC029B5868C8E726F027FCA0E6B3
:10A4A00026F024FC029B58687FE67FB5002500F16A
:10A4B0000C060C460D804D808D8001230DF10702A6
:10A4C0000621304643F018FA10B9002004B070BDE0
:10A4D0009DF807305B07F8D5062302AA29463046C7
:10A4E00043F00AFA0028F0D09DF809209DF80830C2
:10A4F00043EA022323809DF80B209DF80A3043EAAB
:10A50000022363809DF80D209DF80C3043EA02235E
:10A51000A380DBE713B506230C466A4603210C3003
:10A5200043F0EAF9A0B19DF800209DF8013043EA1C
:10A53000022323809DF802209DF8033043EA022382
:10A54000A3809DF804209DF8053043EA0223638030
:10A5500002B010BD07B5032301AA002143F0CCF9D6
:10A560009DF805309DF804001B0243EA00439DF866
:10A570000600184303B05DF804FB08B5FFF7EAFFD7
:10A58000014B586008BD00BFE017002008B5FFF779
:10A59000E1FF014B186008BDE017002007B5062356
:10A5A0006A46F72143F0A8F99DF801309DF80010A4
:10A5B0000B4A1B0143EA01339DF8021043EA1113D1
:10A5C000D3609DF804309DF803101B0143EA01336A
:10A5D0009DF8051043EA1113936003B05DF804FB86
:10A5E000E017002007B5032301AAF62143F084F900
:10A5F0009DF805309DF804201B0243EA02439DF8B4
:10A6000006201343054AB2F92020C2F10802D340C4
:10A61000034A536103B05DF804FB00BF24590020D6
:10A62000E017002007B5022301AAF62143F064F9E0
:10A630009DF804209DF8053043EA0223024A138264
:10A6400003B05DF804FB00BFE017002070B582B0D6
:10A65000044606230C306A463B2143F04DF9A8B16D
:10A660009DF804009DF800609DF801109DF80250CF
:10A670009DF803209DF8053041EA062143EA0023B6
:10A6800042EA05226183A283E383012002B070BD08
:10A6900010B500F10C0401220B21204643F058FABA
:10A6A00020B11D220921204643F052FA00F001009A
:10A6B00010BD10B500F10C0470220021204643F0BB
:10A6C00047FA20220121204643F042FA00220221CB
:10A6D000204643F03DFA642021F0DAFE012010BD4F
:10A6E0000122482143F034BA0122582143F030BA04
:10A6F0003122F42143F02CBA044B93F8202092012C
:10A70000343202F0FC02F42143F022BA2459002032
:10A710002E22F42143F01CBA2DE9F04F85B090F8B9
:10A7200061300390002B40F02B85039BC3495A698D
:10A73000138823F040031B041B0C1380138823F0A1
:10A7400038031B048A424FEA134300F0548501F595
:10A7500080618A420CBF302138210B43138013885B
:10A760000399B74CB74EDFF8E882B74F43F0400388
:10A77000103113800291084680226B2126F0D2FA14
:10A780006423DFF8D0E2B14801934FF01009DEF8FE
:10A790000430C3F30803002B40F0E783EFF3118389
:10A7A000002B40F0E2832568826823689D42FAD13D
:10A7B0003B689A42F7D8D6F800C04FF47A7101FB93
:10A7C0000CF39B1AB3FBFCF301FB05354FF47A7CC9
:10A7D0004FF0010ADEF80430C3F30803002B40F009
:10A7E000A683EFF31183002B40F0A18323688168D7
:10A7F00022689342FAD13A689142F7D832680CFB4A
:10A8000002FBABEB0101B1FBF2F10CFB03135B1B91
:10A81000B3F57A7FDED3019B013B0193B7D10322CD
:10A8200068210298DFF82882874F26F07BFA64239C
:10A83000DFF820E2854801934FF01009DEF804307C
:10A84000C3F30803002B40F01484EFF31183002BB3
:10A8500040F00F842568826823689D42FAD13B68E6
:10A860009A42F7D8D6F800C04FF47A7101FB0CF386
:10A870009B1AB3FBFCF301FB05354FF47A7C4FF0D8
:10A88000010ADEF80430C3F30803002B40F03183E3
:10A89000EFF31183002B40F02C832368816822683A
:10A8A0009342FAD13A689142F7D832680CFB02FB26
:10A8B000ABEB0101B1FBF2F10CFB03135B1BB3F536
:10A8C0007A7FDED3019B013B0193B7D101226B213B
:10A8D0000298DFF87C815C4F26F024FA0F23DFF822
:10A8E00074E15A4801934FF01009DEF80430C3F3C5
:10A8F0000803002B40F09C83EFF31183002B40F002
:10A9000097832568826823689D42FAD13B689A4202
:10A91000F7D8D6F800C04FF47A7101FB0CF39B1AFC
:10A92000B3FBFCF301FB05354FF47A7C4FF0010AD1
:10A93000DEF80430C3F30803002B40F0BC82EFF3D1
:10A940001183002B40F0B78223688168226893420C
:10A95000FAD13A689142F7D832680CFB02FBABEBB4
:10A960000101B1FBF2F10CFB03135B1BB3F57A7F22
:10A97000DED3019B013B0193B7D118221B21029822
:10A98000DFF8CC80304F26F0CDF90F23DFF8C4E09C
:10A990002E4801934FF01009DEF80430C3F308038A
:10A9A000002B40F02483EFF31183002B40F01F8332
:10A9B0002568826823689D42FAD13B689A42F7D89D
:10A9C000D6F800C04FF47A7101FB0CF39B1AB3FB6D
:10A9D000FCF301FB05354FF47A7C4FF0010ADEF8F9
:10A9E0000430C3F30803002B40F04782EFF31183D8
:10A9F000002B40F042822368816822689342FAD19A
:10AA00003A689142F7D832680CFB02FBABEB0101CC
:10AA1000B1FBF2F10CFB03135B1BB3F57A7FDED3C2
:10AA2000019B013B0193B7D118221C210298DFF84A
:10AA30002080054F26F076F90F230DE00038004006
:10AA4000A8F00020ACF00020B0F0002010E000E002
:10AA5000A4F0002000ED00E0DFF814E3C14801930A
:10AA60004FF01009DEF80430C3F30803002B40F068
:10AA70009D82EFF31183002B40F098822568826855
:10AA800023689D42FAD13B689A42F7D8D6F800C0B5
:10AA90004FF47A7101FB0CF39B1AB3FBFCF301FB3F
:10AAA00005354FF47A7C4FF0010ADEF80430C3F329
:10AAB0000803002B40F0C381EFF31183002B40F01B
:10AAC000BE812368816822689342FAD13A68914234
:10AAD000F7D832680CFB02FBABEB0101B1FBF2F1E2
:10AAE0000CFB03135B1BB3F57A7FDED3019B013BA9
:10AAF0000193B7D1039A92F85B30032B00F23E83A7
:10AB000092F85E20012A0BD0022A40F03783039B83
:10AB100093F8633003F0FB03022B0CBF00220722E3
:10AB20001A210298DFF84C828F4F26F0FBF80F2392
:10AB3000DFF83CE28B4801934FF01009DEF8043057
:10AB4000C3F30803002B40F0F882EFF31183002BCE
:10AB500040F0F3822568826823689D42FAD13B6801
:10AB60009A42F7D8D6F800C04FF47A7101FB0CF383
:10AB70009B1AB3FBFCF301FB05354FF47A7C4FF0D5
:10AB8000010ADEF80430C3F30803002B40F03981DA
:10AB9000EFF31183002B40F0348123688168226831
:10ABA0009342FAD13A689142F7D832680CFB02FB23
:10ABB000ABEB0101B1FBF2F10CFB03135B1BB3F533
:10ABC0007A7FDED3019B013B0193B7D1039B0298AF
:10ABD00093F86020DFF89C81634F192126F0A2F8DA
:10ABE0006423DFF88CE15F4801934FF01009DEF831
:10ABF0000430C3F30803002B40F07E82EFF311838F
:10AC0000002B40F079822568826823689D42FAD142
:10AC10003B689A42F7D8D6F800C04FF47A7101FB2E
:10AC20000CF39B1AB3FBFCF301FB05354FF47A7C64
:10AC30004FF0010ADEF80430C3F30803002B40F0A4
:10AC4000C280EFF31183002B40F0BD802368816840
:10AC500022689342FAD13A689142F7D832680CFBE5
:10AC600002FBABEB0101B1FBF2F10CFB03135B1B2D
:10AC7000B3F57A7FDED3019B013B0193B7D110225C
:10AC800037210298DFF8EC80374F26F04BF80F237E
:10AC9000DFF8DCE0334801934FF01009DEF80430B0
:10ACA000C3F30803002B40F00682EFF31183002B5F
:10ACB00040F001822568826823689D42FAD13B6892
:10ACC0009A42F7D8D6F800C04FF47A7101FB0CF322
:10ACD0009B1AB3FBFCF301FB05354FF47A7C4FF074
:10ACE000010ADEF80430C3F30803002B4DD1EFF363
:10ACF0001183002B49D12368816822689342FAD1DD
:10AD00003A689142F7D832680CFB02FBABEB0101C9
:10AD1000B1FBF2F10CFB03135B1BB3F57A7FE0D3BD
:10AD2000019B013B0193B9D101223821029825F002
:10AD3000F9FF039B0D495A69138823F040031B0454
:10AD40001B0C1380138823F038031B048A424FEA3C
:10AD5000134300F0538201F580618A420CBF082141
:10AD6000102109E010E000E0B0F0002000380040C1
:10AD700000ED00E0A4F000200B431380138843F0A3
:10AD80004003138005B0BDE8F08FEFF3118189F324
:10AD90001288D0F808B00368DB0344BFC8F800A0ED
:10ADA000D0F808B02368D8F80020C9B281F3118820
:10ADB000316813440CFB01F2A2EB0B02B2FBF1F27F
:10ADC0000CFB0323A8E7EFF3118189F31288D0F875
:10ADD00008B00368DB0344BFC8F800A0D0F808B08F
:10ADE0002368D8F80020C9B281F311883168134470
:10ADF0000CFB01F2A2EB0B02B2FBF1F20CFB032302
:10AE000035E7EFF3118189F31288D0F808B00368B1
:10AE1000DB0344BFC8F800A0D0F808B02368D8F816
:10AE20000020C9B281F31188316813440CFB01F290
:10AE3000A2EB0B02B2FBF1F20CFB0323BEE6EFF335
:10AE4000118189F31288D0F808B00368DB0344BF8E
:10AE5000C8F800A0D0F808B02368D8F80020C9B21C
:10AE600081F31188316813440CFB01F2A2EB0B0251
:10AE7000B2FBF1F20CFB032334E6EFF3118189F30B
:10AE80001288D0F808B00368DB0344BFC8F800A0FC
:10AE9000D0F808B02368D8F80020C9B281F311882F
:10AEA000316813440CFB01F2A2EB0B02B2FBF1F28E
:10AEB0000CFB0323B0E5EFF3118189F31288D0F87E
:10AEC00008B00368DB0344BFC8F800A0D0F808B09E
:10AED0002368D8F80020C9B281F31188316813447F
:10AEE0000CFB01F2A2EB0B02B2FBF1F20CFB032311
:10AEF0003BE5EFF3118189F31288D0F808B00368BD
:10AF0000DB0344BFC8F800A0D0F808B02368D8F825
:10AF10000020C9B281F31188316813440CFB01F29F
:10AF2000A2EB0B02B2FBF1F20CFB0323C6E4EFF33E
:10AF3000118189F31288D0F808B00368DB0344BF9D
:10AF4000C8F800A0D0F808B02368D8F80020C9B22B
:10AF500081F31188316813440CFB01F2A2EB0B0260
:10AF6000B2FBF1F20CFB032351E4EFF3118389F3FD
:10AF70001288D0F808C00268D20304D50122C8F8AC
:10AF80000020D0F808C02568D8F800A0DBB283F311
:10AF9000118831684FF47A72554402FB01F3A3EB38
:10AFA0000C03B3FBF1F302FB05350FE4EFF3118360
:10AFB00089F31288D0F808C00268D20304D50122B0
:10AFC000C8F80020D0F808C02568D8F800A0DBB287
:10AFD00083F3118831684FF47A72554402FB01F310
:10AFE000A3EB0C03B3FBF1F302FB053559E5EFF3DB
:10AFF000118389F31288D0F808C00268D20304D5FF
:10B000000122C8F80020D0F808C02568D8F800A0B0
:10B01000DBB283F3118831684FF47A72554402FB36
:10B0200001F3A3EB0C03B3FBF1F302FB0535D2E410
:10B03000EFF3118389F31288D0F808C00268D203B5
:10B0400004D50122C8F80020D0F808C02568D8F837
:10B0500000A0DBB283F3118831684FF47A72554453
:10B0600002FB01F3A3EB0C03B3FBF1F302FB053589
:10B070005AE4EFF3118389F31288D0F808C002680C
:10B08000D20304D50122C8F80020D0F808C02568F2
:10B09000D8F800A0DBB283F3118831684FF47A72DC
:10B0A000554402FB01F3A3EB0C03B3FBF1F302FBEA
:10B0B0000535FFF7E2BBEFF3118389F31288D0F86F
:10B0C00008C00268D20304D50122C8F80020D0F8D5
:10B0D00008C02568D8F800A0DBB283F31188316876
:10B0E0004FF47A72554402FB01F3A3EB0C03B3FB5C
:10B0F000F1F302FB0535F0E5EFF3118389F31288D4
:10B10000D0F808C00268D20304D50122C8F8002094
:10B11000D0F808C02568D8F800A0DBB283F3118806
:10B1200031684FF47A72554402FB01F3A3EB0C0330
:10B13000B3FBF1F302FB053578E5EFF3118389F3F7
:10B140001288D0F808C00268D20304D50122C8F8DA
:10B150000020D0F808C02568D8F800A0DBB283F33F
:10B16000118831684FF47A72554402FB01F3A3EB66
:10B170000C03B3FBF1F302FB0535FEE4019ACFE4C7
:10B180001D09013D032D03F00F0339D8214A32F880
:10B19000150040FA03F2D10732D5012404FA03F373
:10B1A000013B18404BF01EF91B4B1C4A5B5D1844D9
:10B1B00012EBC00524D052F83020AB88126913403E
:10B1C0007FF4B3AA0399EB712022154BAA7128468C
:10B1D00041F80C3F45F046FAAB88B3FA83F3C3F16C
:10B1E0001F0314FA03F33FF4A0AA0E490A6813439D
:10B1F0000B60FFF79ABA3021FFF7AFBA0821BBE521
:10B200000399074B41F80C3F002045F02BFAFFF75C
:10B210008CBA00BF28E9050830E90508A4EE002033
:10B22000E18A0008003C01402DE9F84F037C0268E8
:10B230001F2B86BF203B51681168202202FA03F3BE
:10B240000B4214BF012300230BB9BDE8F88F4569F9
:10B25000DFF87092044621F06BF84FF4867303FB1D
:10B26000059306465A7C002A30D185495A680978E8
:10B270001768C1B9D3F8801058890A6822F0010212
:10B280000A60BB8923EA0003BB817E4B1B78002B3D
:10B2900030D1237C21681F2B11D8202202FA03F31E
:10B2A0008B60BDE8F88F5269136823F001031360C7
:10B2B000BB8923F480731B041B0CBB81E5E7203B97
:10B2C000202202FA03F3CB60BDE8F88FD3F8806048
:10B2D0006D485F8901229A7431685A68036815685D
:10B2E00021F001013160AA89013322EA0702AA8113
:10B2F0000360CEE74FF4867303FB0593634AD3F8EC
:10B300008080D8F8003023F00103C8F80030002313
:10B31000C8F800309045C8F80430C8F80830C8F8BC
:10B320000C30C8F810304FF02103C8F8143000F08A
:10B330008780574B98457ED0564B984500F08480C7
:10B34000554B984500F08580544B984500F0868019
:10B35000534B984500F08680524B984500F086800C
:10B36000514B984500F08680404613F007FD4FF49E
:10B37000867A0AFB05FA09EB0A0501236B74D5F8F6
:10B3800084B020F0D5FF3B88CBF82C0123F080035C
:10B390001B044FF0FF321B0C3B80FA623B880AF122
:10B3A000340143F080033B804944384613F0FEFDEE
:10B3B000D5E915702B6CD5F850C0D5E917123B4371
:10B3C00003430B4313436A6E6F6FD8F8000037498D
:10B3D0001343AA6E1343AA6F3B43014013430B432D
:10B3E0000022EA64C8F80030D5E91B30D8F8141000
:10B3F000D5F880206F6C21F0070103430B43A86C44
:10B4000095F87C10C8F81430C8F804C0C8F8087063
:10B41000C8F80C0051606B68116818686D8941F0BC
:10B420000101116083892B43838120F081FF204B30
:10B43000801B18602DE74FF4746243F8202C96E7C8
:10B440001C4B3D229A6092E74FF4741243F8382C5B
:10B450008DE74FF0746243F8502C88E7164A43F8A2
:10B46000642C84E7154A43F87C2C80E7144A43F89F
:10B47000942C7CE74FF03D5243F8AC2C77E700BFAB
:10B480004DFE00204CFE00201CB500201060024044
:10B4900028600240406002405860024070600240F4
:10B4A00088600240A0600240B86002403F801CF00B
:10B4B0000CE50020006002403D000020400F00200D
:10B4C00000003D2050FE002020B10078B0FA80F04E
:10B4D000400970470120704708B520214CF0F7FC67
:10B4E0000346184623B10278202A03F10103F8D05D
:10B4F00008BD037903F01803082B0AD002D82BB13A
:10B5000000207047102B14D0182BF9D1B0F80B0085
:10B510007047104BB0F80B0093F90030591C06BF70
:10B520000D4B1B78DBB203EB831300EB430080B2BF
:10B5300070470A4BB0F80B0093F900305A1C06BF55
:10B54000054B5B78DBB203EB031300EB430080B2E7
:10B55000704700BFF10E0020D8FA0020F00E002046
:10B56000F0B5067906F0E003402B09D144794FF09D
:10B57000FF350023012006F00706A3420BD1F0BDE2
:10B58000602B08BF45794FF001040CBF04FA05F5A4
:10B590004FF0FF35EDE7042E0CD8DFE806F0030D81
:10B5A00018242E0030B1C85CD75C784028420CBF0C
:10B5B000012000200133E0E70028FBD0C856D75611
:10B5C000A0EB070CDCF1000040EB0C00F2E70028D8
:10B5D000F0D031F8130032F81370784028420CBFD5
:10B5E00001200020E6E70028E4D031F9130032F909
:10B5F0001370C71B78427841DCE70028DAD051F895
:10B60000230052F82370784028420CBF012000200C
:10B61000D0E7024B0146186842F038BB94AA0020DC
:10B6200038B5064D441E14F8011F286819B9BDE845
:10B63000384042F0A3BA42F029FBF4E794AA002074
:10B640000048EDE72F3E060808B5FFF7E9FFBDE823
:10B650000840F5E710B504460348FFF7E1FF204630
:10B66000BDE81040F0E700BF04FE050808B532B1A0
:10B67000C30600D519B11046FFF7ECFF00221046B3
:10B6800008BD38B5074C084DAC4203D3074B002228
:10B690001A7038BD6288D4E901014BF0DDF814342A
:10B6A000F2E700BFA00100089007000890E5002025
:10B6B000024A136823EA000010607047B0100120AE
:10B6C000DFED2E7AB4EEE70AF1EE10FA4ADDDFED97
:10B6D0002C6A9FED2C7A01E0B0EE670AB4EEC70A3F
:10B6E000F1EE10FA70EE667AF6DC9FED277AF4EE52
:10B6F000C77AF1EE10FA3ED5DFED216A9FED237A8D
:10B7000001E0F0EE407AF4EEC77AF1EE10FA37EE8F
:10B71000A60AF6D4DFED1E7AB4EEE70AF1EE10FACF
:10B7200014DDDFED167A37EEC00A60EE006A9FED99
:10B73000196A9FED197ADFED197AA6EE867A20EE66
:10B74000266AE6EE877AA6EE270A7047DFED147ABE
:10B75000B4EEE70AF1EE10FA44BFDFED0B7A37EEF4
:10B76000C00AE2E79FED087AF0EE407AF4EEC77A7D
:10B77000F1EE10FAC0D4B0EE670ACBE7DB0F494018
:10B78000DB0FC940E4CB1641DB0F49C0E4CB16C147
:10B79000DB0FC93F92E741B99730083C15A82ABE94
:10B7A000DB0FC9BFF0EEC07AB0EEE07AB4EEE77A14
:10B7B000F1EE10FAB4BFB0EE676AB0EE476AB5EECC
:10B7C000406AF1EE10FA46D0B4EEE77AF1EE10FAE4
:10B7D0008CBFF0EE675AF0EE475AC5EE866A9FEDD1
:10B7E0001F3A9FED1F6A9FED1F4A9FED1F5ADFED25
:10B7F0001F3ADFED1F4ADFED1F5AA6EEC36AE6EEE1
:10B80000A34AA6EE864AB7EE006AA6EE845AA6EED2
:10B81000A46AE6EE855AC5EE866AB4EEE77AF1EEE2
:10B8200010FA48BFDFED147AF5EEC00A48BF77EE94
:10B83000E66AF1EE10FA48BFDFED107AB5EEC00A05
:10B8400048BF77EEE66AF1EE10FA48BFF1EE666A9D
:10B85000B0EE660A7047DFED076ADEE739094E3D54
:10B86000E3B59E3E88FA163E45FE7F3F99FB243F96
:10B8700069A2163EA7DFA834DB0FC93FDB0F4940A2
:10B88000DFED317A30EE277AFDEEC76A16EE903A98
:10B890002033402B02D99FED2D0A7047B4EEE70A02
:10B8A000F1EE10FA4DDD9FED2A6ADFED2A6A01E024
:10B8B000B0EE677AB4EEE67AF1EE10FA77EE467AF9
:10B8C000F6DC9FED257AF4EEC77AF1EE10FA35D565
:10B8D000DFED1F6A9FED217A01E0F0EE407AF4EE91
:10B8E000C77AF1EE10FA37EEA60AF6D4DFED167A33
:10B8F000B4EEE70AF1EE10FA1BDCDFED197AB4EED4
:10B90000E70AF1EE10FA44BFDFED137A37EEC00A12
:10B9100060EE006A9FED136A9FED137ADFED137AF4
:10B92000A6EE867A20EE266AE6EE877AA6EE270A4B
:10B930007047DFED0F7A37EEC00AE9E7B0EE670A2D
:10B94000D4E7F0EE477ABCE7DB0FC93F0000000008
:10B95000DB0FC940E4CB1641DB0F49C0E4CB16C175
:10B96000DB0FC9BF92E741B99730083C15A82ABE42
:10B97000DB0F494010B44C09012250F8243001F08B
:10B980001F0102FA01F123EA010340F824305DF8B7
:10B99000044B704710B44C09012250F8243001F0D8
:10B9A0001F0102FA01F10B4340F824305DF8044B0B
:10B9B000704700BF4B0901F01F0150F823200123FD
:10B9C00003FA01F1114214BF18460020704700BF6E
:10B9D0002DE9F043002489B006460D461F46A046D7
:10B9E00005E025290CD030460134A847039A531CA2
:10B9F000039311780029F4D1204609B0BDE8F08303
:10BA0000931CCDE903385078302842D0A0F13003A0
:10BA1000DBB2092B4FF0000945D96C282AD06428E5
:10BA200073D019D9732858D063D9752840F0828013
:10BA300007F1040C386805AB00220A216746FCF7C1
:10BA40000FFC05AB049A009329464B463046FCF7A1
:10BA5000DDFA039A0444CAE725283CD051D9582876
:10BA60006BD06328C2D139783046A84704370134F7
:10BA7000039ABCE7039B5A1C03921B78642B52D099
:10BA800016D8252B27D064D9582B18D0632BEAD091
:10BA9000ADE7D31C03939078A0F13003DBB2092B00
:10BAA0004FF00109B9D804AA03A946F01FFDB4E775
:10BAB000732B12D051D9752B2DD0782B97D1A3F1A0
:10BAC0005802B2FA82F23868520905AB10210437E5
:10BAD000FCF7C6FBB5E7252185E73B68049A009390
:10BAE000294600233046FCF791FA04370444039AB0
:10BAF0007DE76E287FF47AAF039A3B6804371C60B9
:10BB000075E700283FF478AF70E7386805A9FCF7BF
:10BB100071FB043795E7386805AB00220A21FCF772
:10BB20009FFB04378DE73B1D386805A91F46FCF7CE
:10BB300061FB86E778287FF459AFA0F15802B2FA8A
:10BB400082F23868520905AB1021FCF789FB0437F3
:10BB500077E7002B3FF450AF49E76E2BCDD046E797
:10BB600010B5064C0B46024605492068FFF730FF2A
:10BB70002068BDE8104042F001B800BF94AA002040
