:020000040800F2
:10000000F0FF0120DD270508513E0308E1EE01085D
:100010005528050855280508552805080000000042
:100020000000000000000000000000005D3E03082A
:10003000593E030800000000553E0308C9C90108E5
:100040005528050855280508552805085528050888
:1000500055280508552805086DFD010899FE010879
:100060005DFE010821FE0108E5FD010881F7000899
:1000700071F7000861F7000851F700083DF7000824
:1000800029F7000815F700085528050800000000AA
:10009000000000000000000000000000A9FD0108B1
:1000A0006DAE010859B201089DAD0108DDB301082C
:1000B00099B10108D9B001080DB0010875FD00081B
:1000C0007DFD000869FD000871FD00085528050840
:1000D00055280508A5CA010809CA01080000000042
:1000E00031FD010855280508D982030800000000E9
:1000F00000000000000000000000000001F7000800
:1001000000000000552805083DAF010855280508E6
:1001100000000000000000000000000000000000DF
:10012000EDF60008D9F60008C5F60008B1F600089B
:100130009DF6000800000000000000000000000024
:10014000000000000000000000000000954E0308C1
:1001500089F6000875F6000861F6000855280508BC
:100160005DFD000865FD00080000000000000000C3
:10017000000000000000000000000000000000007F
:1001800000000000552805080000000000000000E5
:08019000552805085528050853
:080198007423050001000000C2
:1001A00010020100301B00202C1B0020000000006A
:1001B0007C0700081F021000441B0020341B002095
:1001C000000000003D85000807020200F42D002019
:1001D000182E00200000000080070008F6210C0007
:1001E000CC2D00201C2E00200000000084070008F9
:1001F00002000C00C02D0020282E0020000000006E
:100200000000000006020C00B42D0020342E002057
:10021000000000004593000808120F00382D002050
:10022000402E002000000000F9840008F7010600BD
:10023000302D0020502E0020000000009007000804
:100240001D020200102D0020582E0020000000008A
:10025000960700080A020A00D82600205C2E00201B
:1002600000000000F50C010803000100B41E00208E
:10027000682E0020000000000000000003123D0076
:10028000EC2800206C2E00200000000098070008D9
:1002900025102C010C270020AC2E002000000000AF
:1002A0000000000010100200FC1D0020D82F0020CC
:1002B00000000000D60700081A023C006831002048
:1002C0002C34002000000000A99200082700040040
:1002D000643100206834002000000000D8070008C6
:1002E00038100100F82F00206C34002000000000BE
:1002F000DC070008281010004C4D00203C4D002069
:1003000000000000111602081C0210008C4700209B
:100310005C4D002000000000B183000801200C00AB
:10032000703700206C4D002000000000DE07000840
:100330000A702800DC360020784D00200000000004
:10034000B51502080EB0860154350020A04D0020DE
:100350000000000091D3030801010400B034002024
:10036000284F0020000000000000000000010400F1
:10037000A83400202C4F002000000000EA070008ED
:1003800002010300A4340020304F002000000000D0
:10039000E90701082202140180690020D06B0020C7
:1003A00000000000FD9300080C20CC00BC59002088
:1003B000E46C002000000000AD0701080102050008
:1003C000A0590020B06D00200000000099B0020884
:1003D0000002050098590020B86D002000000000C0
:1003E000000000001B0210006C590020C06D0020AE
:1003F00000000000DD8300081E000600C456002037
:10040000D06D002000000000F00700081B100C0059
:1004100090510020D86D002000000000B1C40208F7
:100420002102F00010500020E46D002000000000C8
:1004300089B1020823121000105C0020D46E002045
:1004400000000000F807000837102800F4580020CA
:10045000E46E002000000000080800080E02020000
:100460000C5C00200C6F0020000000003008000829
:100470001610060004500020106F0020000000003D
:10048000320800082F102200AC6B0020186F0020EB
:1004900000000000380800080510060088550020FC
:1004A0003C6F0020000000005A08000823100E00D6
:1004B00014560020446F0020000000002916020896
:1004C000F5519000344F0020546F002000000000D0
:1004D00051FF020826100C00F06F0020E46F00208E
:1004E00000000000E1A5020814000300F8890020C4
:1004F000648A002000000000600800080B301A0029
:10050000B47A0020688A0020000000006408000817
:100510001F302400D07A0020848A002000000000D0
:1005200080080008050204008C850020A88A0020AD
:1005300000000000A408000803010A00107B00204E
:10054000AC8A002000000000A80800081302040084
:100550002C790020B88A002000000000B2080008B2
:1005600019000500509700202C9800200000000082
:10057000B60800081A000E00C49600203498002027
:1005800000000000BC080008F82106006495002067
:100590004498002000000000CA08000820320A0029
:1005A000709500204C9800200000000071D30308D3
:1005B00015007000B48F0020589800200000000043
:1005C000000000002A006000B4970020C8980020B6
:1005D0000000000049D303082C00100038990020C7
:1005E000289900200000000041D203082B002400BD
:1005F0006C990020489900200000000011D20308E7
:1006000029207800A08D0020909900200000000093
:10061000000000000D002C0074DA002038DC0020FF
:10062000000000005D85030809020100E0D90020F8
:1006300064DC002000000000D008000804008000F6
:1006400060D9002068DC00200000000000000000ED
:10065000F9010400D0D80020E8DC002000000000F0
:100660000193010813000400CCD80020ECDC00202A
:1006700000000000D4080008FD012400A8D80020D4
:10068000F0DC0020000000008992010818203000F2
:1006900074D8002014DD0020000000005D930008E5
:1006A00006101A003CC6002044DD002000000000B7
:1006B000A9D50308FB01010078C5002060DD0020FA
:1006C00000000000D1930008FC01090044C4002090
:1006D00064DD002000000000E193000816023F00E6
:1006E00004C4002070DD0020000000001984000810
:1006F0003400100034C30020B0DD002000000000F2
:100700007DD50308110208000CC30020C0DD0020C5
:1007100000000000D80800081212040004C30020E2
:10072000C8DD002000000000E008000812201000D2
:10073000F4C20020CCDD002000000000E408000826
:1007400002020300C0AE0020DCDD0020000000003B
:10075000000000000C0204007CAE0020E0DD002060
:100760000000000025850008FE0114008CB900205F
:0C077000E4DD002000000000F183000820
:10077C0000000000013C000000000000010000002F
:10078C000202000022010000000000000000000036
:10079C00000000000000000000000000000000004D
:1007AC00000000000000000000000000000000003D
:1007BC00000000000000000000000000000000002D
:1007CC0000000000000000000100000520030000F4
:1007DC000000E8036400040A000114001E009001EC
:1007EC0000000000000001000000000000000000FC
:1007FC00000000000000000000000000200032009B
:10080C00C800D0079600140032002800B00440063F
:10081C000005500014000F000800640001000000E7
:10082C0005000A000000C4090000190000000000C7
:10083C0000000000000000000000000000000000AC
:10084C00000000000000000000000000000020007C
:10085C000301000003000000AE014A015E012C01FF
:10086C0064010100000001000A019A01001E0A0047
:10087C000000000000000000000100000005000066
:10088C000102030000000000000000000000000056
:10089C0000000000008007000000000004010100BF
:1008AC006C16000000000000013F00002801000051
:1008BC007E05EA05B4053200E803D0070000040108
:1008CC00F401140000000000480444300000000053
:1008DC0001010101FFFFFFFF000000010000054DB9
:0808EC004B343100000800004C
:1008F400FF01FF00000004010000000000000002EE
:1009040010000000070000000000000000000000CC
:1009140001020304060708090000803F0000803F2D
:10092400000000000000000000000000FFFFFFFFC7
:10093400FF000000E0B50508ECB50508F8B50508AA
:1009440004B6050810B605081CB60508CCD705087A
:10095400B8F90508C4F80508B8E3050800BD05089A
:10096400C8AF0508D4B50508D8B50508DCB5050831
:1009740028B605082CB6050830B605083CF7050866
:1009840034B605081900C800F4012003685E0C00A1
:10099400FFFF0100A00F0000B80B00000102FFFFE1
:1009A4000100000001000000310D020800000000F9
:1009B40084500508FFFFFFFF010101000001010150
:1009C40000D60100B80B00002D202D2D202D2D2D3B
:1009D4002D202D2D2D00000000000000000000003F
:1009E4000000000000000000000000000000000003
:1009F400546705080000000000000000E0670508D7
:100A040001000000FA0000000100000001000000E5
:100A1400010101006C3700200000F4010100000016
:100A24006A3700200000F40101000000683700204C
:100A34000000F40101000000663700200000F4010A
:100A440001000000643700200000F40101000000F0
:100A5400623700200000F40101000000603700202C
:100A64000000F4010100000041140208051402080A
:100A74000055050856370020053201005437002080
:100A8400E803D0070100000052370020E803D00734
:100A94000100000050370020E803D00701000000E7
:100AA4004E3700201E00B80B010000005C37002008
:100AB40005000F00010000005E37002003000A005B
:100AC400010000004C3700201E00F401010000006A
:100AD4004A37002014006400010000005837002049
:100AE4003200E80301000000483700200000C8007D
:100AF400010000002237002000C801002137002037
:100B04000050010020370020005A01001E37002049
:100B1400020000008C550508A0C70508A8C70508F1
:100B240022DC00200100C4090000000020DC0020B9
:100B34000100C409000000001EDC00200100C409FB
:100B4400000000001CDC00200100C40900000000BB
:100B540018DC00200100C409000000001ADC002099
:100B64000100C4090000000016DC00200100C409D3
:100B74000000000014DC00200100C4090000000093
:100B8400C934002000C80100C834002000C8010096
:100B9400C63400200100C80001000000C434002055
:100BA4003200307532000000C2340020055A0500BE
:100BB400BF34002000FF0100C13400200100000008
:100BC400C0030020BD34002003000000F06D0508C0
:100BD400BE34002000FF0100C034002001000000EA
:100BE400C0030020BC34002003000000F06D0508A1
:100BF400A91302084D1302089855050880370020F0
:100C0400EE02CA08010000007E37002000C801007F
:100C1400640000007D37002000C80100640000006B
:100C24007C3700200200000078560508B634002006
:100C340080C1803E05000000B434002080C1803EA5
:100C440005000000AE34002080C1803E0500000095
:100C5400AC34002080C1803E05000000A734002091
:100C640000FF0100A03400206400F4010100000032
:100C74009F34002004000000845605089E340020A0
:100C84000200000098560508433500200D000000BE
:100C9400A456050840350020006401003E350020BC
:100CA400320010270A0000003D3500200D0000002E
:100CB400A45605083C3500200D000000A456050884
:100CC4003B35002002000000DC560508000000004F
:100CD40000000000E8560508448500209CFF2C0114
:100CE4000000000086390020E0150C170000000009
:100CF4008839002002000000205705088C370020A6
:100D04000100FF7F010000008B370020020000007B
:100D14002C57050845350020030000003C57050802
:100D240044350020030000003C570508103700201C
:100D34000000E803010000000E3700200000E80373
:100D4400010000000C3700200000E803010000004F
:100D54000A3700200000E8030100000008370020E3
:100D64000000E80301000000063700200000E8034B
:100D740001000000053700200014010004370020A2
:100D8400030000004C5705081C3700200000F40144
:100D9400010000001A3700200000F40101000000E7
:100DA400183700200000F40101000000163700206D
:100DB4000000F40101000000143700200000803E10
:100DC40001000000123700200000803E01000000F6
:100DD4003537002019640100343700200200000078
:100DE4005C57050832370020E803D0070A000000EA
:100DF40030370020006401000A000000253700207D
:100E04000064010024370020006401002C37002016
:100E1400006401000A0000002B3700200064010078
:100E24000A0000002A370020006401000A000000C4
:100E34002F370020006401000A0000002E37002034
:100E4400006401000A0000002D3700200064010046
:100E54000A0000002937002001FF01000A000000F9
:100E64002837002001FF01000A0000002737002076
:100E740001FF01000A0000004E3500200000F401CB
:100E8400010000004C3500200000F40101000000C6
:100E94004A3500200000F40101000000483500201C
:100EA4000000F40101000000463500200000F401B8
:100EB40001000000E339002000C80100E2390020ED
:100EC40000640100E139002000640100E0390020E1
:100ED40000640100DF39002000640100DE390020D5
:100EE400FF080100DD39002001640100B512020889
:100EF4007912020868570508DC39002000640100F3
:100F0400DA3900201400E80301000000D839002079
:100F1400E80330750A000000D639002000C801003B
:100F2400D539002000C80100D439002000C80100D0
:100F3400D3390020006401000A000000F2390020C7
:100F44000000D00701000000EC39002000C80100B7
:100F5400EB39002000C80100EA39002000C8010074
:100F6400F03900200000D00701000000E93900201A
:100F740000C80100E839002000C80100E73900205A
:100F840000C80100EE3900200000D0070100000075
:100F9400E639002000C80100E539002000C801003E
:100FA400E439002000C80100000000006D100208B0
:100FB400D857050839350020390000007458050851
:100FC4003835002000C8010036350020E803D0077A
:100FD400010000004D4154454B46343131000000BE
:100FE400BB34002000030100BA34002000030100D8
:100FF400B90F02087D0F02085C590508390F020871
:10100400ED0E0208CC590508F50F02088D230208DD
:101014004C5A0508B834002001030100A914020841
:101024007D1402085C5D05087D0E02083D0E020871
:10103400CC5D050883100208D9400208685E0508E3
:10104400451F020800000000105F05080121020886
:1010540009150208AC5F0508D5100208000000005D
:101064001C600508AD1102085911020880600508CA
:101074003D120208011202081C61050809A10208B8
:10108400F11202089C61050847370020010601009F
:101094001D110208E9100208986205086BA00208F5
:1010A400F12302080863050851A1020889240208F3
:1010B4000464050846370020010301003D100208BE
:1010C4000D100208D8640508D514020800000000B9
:1010D4003C650508BD0E02085D230208A0650508ED
:1010E40000000000000000002C660508251302081B
:1010F40001250208AC6605089A34002088136F178E
:10110400010000009C34002088136F1700000000C9
:10111400727B00200000000000000000707B0020B3
:1011240000000000000000006E7B002000000000B2
:10113400000000006C7B00200000000000000000A4
:101144006A7B00200000000000000000687B002093
:101154000000000000000000BC0C002000000000A3
:10116400000000007034002002000000346805080C
:101174009834002088136F17010000008485002034
:1011840088136F1700000000D10D02080000000052
:1011940040680508D2390020010000009468050861
:1011A4008685002001000000A06805087C850020D9
:1011B40002000000A868050800000000000000000C
:1011C400B4680508BD0D0208000000005069050858
:1011D4000000000000000000A469050800000000F1
:1011E40000000000146A050880850020E0150C1733
:1011F400000000000100000000000100E001000008
:101204000000803F0000803FFFFFFFFF0801FFFF59
:10121400FF0000000403090412010002EF02014070
:10122400830456320002010203010000120100028D
:10123400020200408304405700020102030100003F
:1012440009026400030100C0320904000001030024
:10125400000009211101000122260007058303086B
:10126400000A080B01020202010009040100010244
:1012740002010005240010010524010002042402D7
:10128400020524060102070582030800FF0904027F
:1012940000020A0000000705010240000007058162
:1012A4000240000009024300020100C032090400A8
:1012B40000010202010005240010010524010001BF
:1012C400042402020524060001070582030800FF26
:1012D40009040100020A00000007050102400000A1
:1012E4000705810240000000FF0000005870050857
:1012F40000000000000000000000000000000000EA
:1013040000000000000000000000000000000000D9
:101314000000000000FFFF0000000000AA550501C6
:10132400000001002C70050800000000000000000F
:1013340000000000000000000000000000000000A9
:10134400000000000000000000000000FF1FFF1F5D
:1013540005010905A101A10005010930093109327E
:10136400093309350934094009381581257F750881
:1013740095088102C0C0000009022200010100E0BA
:1013840032090400000103010200092111010001D6
:101394002226000705830308000A0000000000005D
:1013A4000102030401020304060708099941030822
:1013B4009D400308DD430308A51D0308E920030835
:1013C400B51D0308D11D03087D1D03086D1D030809
:1013D40000000000000000002D202D2D202D2D2DBB
:1013E4002D202D2D2D2D00000000000000000000F8
:1013F40000000000000000AA550B010000AA5507D8
:10140400010000AA550902000000AA5503009F002C
:1014140001000000C0120000388A00200000000013
:101424005C8A00200000000000000000048C002002
:101434000800000000000000F48B002008000000F9
:1014440020000000C92203086D200308B9430308E3
:1014540000000000691D03088940030835220308C1
:10146400014003080000000000000000251D0308DF
:10147400392203082D200308F94203080000000064
:101484003D1D03080540030809220308613F0308C2
:101494000000000000000000311D0308089A00202D
:1014A4007D000000FFFFFFFF0000803F0000000000
:1014B40000000000000000000000803F0000000069
:1014C4000000000000000000000000000000000018
:1014D4000000000000000000000000000000000008
:1014E4000000803F00000000000000000000000039
:1014F4000100000008000000891C0308851C030883
:10150400811C0308751C0308711C03087D1C030857
:10151400791C0308FD1C0308F11C0308C91C0308FB
:10152400DD1C0308B51C0308A11C03088D1C03085B
:101534000100000000600240106002400000000052
:1015440000000000000B000000000000000000008C
:10155400000000000060024028600240010000001A
:1015640000000000060C0000000000000000000065
:1015740000000000006002404060024002000000E1
:1015840000000000100D000000000000000000003A
:1015940000000000006002405860024003000000A8
:1015A40000000000160E0000000000000000000013
:1015B400000000000060024070600240040000006F
:1015C40000000000200F00000000000000000000E8
:1015D4000000000000600240886002400500000036
:1015E40000000000261000000000000000000000C1
:1015F4000000000000600240A060024006000000FD
:101604000000000030110000000000000000000095
:101614000000000000600240B860024007000000C3
:1016240000000000362F0000000000000000000051
:10163400000000000064024010640240000000004A
:10164400000000000038000000000000000000005E
:101654000000000000640240286402400100000011
:101664000000000006390000000000000000000037
:1016740000000000006402404064024002000000D8
:1016840000000000103A000000000000000000000C
:10169400000000000064024058640240030000009F
:1016A40000000000163B00000000000000000000E5
:1016B4000000000000640240706402400400000066
:1016C40000000000203C00000000000000000000BA
:1016D400000000000064024088640240050000002D
:1016E400000000002644000000000000000000008C
:1016F4000000000000640240A064024006000000F4
:101704000000000030450000000000000000000060
:101714000000000000640240B864024007000000BA
:101724000000000036460000000000000000000039
:101734000000000004E4050870E005080000000053
:1017440025830308A08601000400000000000000B7
:101754000000000000000000000000000000000085
:101764000000000000000000000000000000000075
:101774000000000004E405080CE405080000000073
:1017840025910108E80300000400000000000000A7
:101794000000000000000000000000000000000045
:1017A4000000000000000000000000000000000035
:1017B400000000004CCF050814E4050800000000F8
:1017C400011501087D000000060000000000000073
:1017D4000000000000000000000000000000000005
:1017E40000000000000000000000000000000000F5
:1017F400000000001CE405080000000000000000D8
:1018040085BF0108E8030000030000000000000099
:1018140000000000000000000000000000000000C4
:1018240000000000000000000000000000000000B4
:101834000000000020E40508000000000000000093
:101844008D5B040810270000030000000000000066
:101854000000000000000000000000000000000084
:101864000000000000000000000000000000000074
:1018740000000000F41E060800000000E91C020835
:1018840045EF01085F76000005000000000000003D
:101894000000000000000000000000000000000044
:1018A4000000000000000000000000000000000034
:1018B400000000003CBB0508000000000000000020
:1018C4006505020810270000010000000000000068
:1018D4000000000000000000000000000000000004
:1018E40000000000000000000000000000000000F4
:1018F400000000002CE405080000000000000000C7
:1019040029910108E8030000050000000000000020
:1019140000000000000000000000000000000000C3
:1019240000000000000000000000000000000000B3
:101934000000000038E4050800000000000000007A
:101944006D890308204E0000030000000000000021
:101954000000000000000000000000000000000083
:101964000000000000000000000000000000000073
:101974000000000048E4050800000000000000002A
:1019840061830308204E00000300000000000000F3
:101994000000000000000000000000000000000043
:1019A4000000000000000000000000000000000033
:1019B4000000000058E405080000000000000000DA
:1019C40089A30108400D030003000000000000008B
:1019D4000000000000000000000000000000000003
:1019E40000000000000000000000000000000000F3
:1019F400000000009CE20508000000000000000058
:101A040071AB030810270000010000000000000073
:101A140000000000000000000000000000000000C2
:101A240000000000000000000000000000000000B2
:101A34000000000044BB0508000000000000000096
:101A440019D0020810270000030000000000000065
:101A54000000000000000000000000000000000082
:101A64000000000000000000000000000000000072
:101A74000000000068E40508000000000000000009
:101A8400F995010850C300000100000000000000A7
:101A94000000000000000000000000000000000042
:101AA4000000000000000000000000000000000032
:101AB40000000000C8CA0508000000000000000083
:101AC40011930108A861000001000000000000005B
:101AD4000000000000000000000000000000000002
:101AE40000000000000000000000000000000000F2
:101AF4000000000070E40508000000000000000081
:101B0400A9100308A08601000100000000000000E5
:101B140000000000000000000000000000000000C1
:101B240000000000000000000000000000000000B1
:101B34000000000054BB0508000000000000000085
:101B4400F5CB0108A00F0000010000000000000018
:101B54000000000000000000000000000000000081
:101B64000000000000000000000000000000000071
:101B7400000000007CE405080000000000000000F4
:101B840051000308102700000100000000000000BD
:101B94000000000000000000000000000000000041
:101BA4000000000000000000000000000000000031
:101BB400000000009CBB05080000000000000000BD
:101BC400E5F802081A4100000100000000000000CE
:101BD4000000000000000000000000000000000001
:101BE40000000000000000000000000000000000F1
:101BF40000000000D8BB0508000000000000000041
:101C040081250308102700000100000000000000E7
:101C140000000000000000000000000000000000C0
:101C240000000000000000000000000000000000B0
:101C34000000000084E0050800000000000000002F
:101C4400614802081A410000010000000000000081
:101C54000000000000000000000000000000000080
:101C64000000000000000000000000000000000070
:101C74000000000088E405080000000000000000E7
:101C8400E52B0308400D03000000000000000000E5
:101C94000000000000000000000000000000000040
:101CA4000000000000000000000000000000000030
:101CB4000000000090E4050800000000000000009F
:101CC400E1900108400D0300000000000000000046
:101CD4000000000000000000000000000000000000
:101CE40000000000000000000000000000000000F0
:101CF4000000000098E40508000000000000000057
:101D0400CD0A030850C300000300000000000000D7
:101D140000000000000000000000000000000000BF
:101D240000000000000000000000000000000000AF
:101D340000000000A4E4050800000000000000000A
:101D44003989030840420F00000000000000000031
:101D5400000000000000000000000000000000007F
:101D6400000000000000000000000000000000006F
:101D740000000000B0E405080000000000000000BE
:101D8400CD86030850C300000000000000000000DE
:101D9400000000000000000000000000000000003F
:101DA400000000000000000000000000000000002F
:101DB400000000000000803FFFFFFFFFE81E060850
:101DC4000000080205030300F01E060801000802D3
:101DD400050403005CB705080200FE0101100300BE
:101DE400D0CB05080300140200030000F81E060807
:101DF40004001F0201000800001F060805001F025E
:041E040001010800D0
:1080000003685A1C02601970704700BF2DE9F047E1
:10801000089C2578002B804689460CBF4FF0200A2B
:108020004FF0300A661C25B3002A26DD334601E0F6
:10803000024698B113F8011B501E0029F8D1971E73
:1080400060B13D46013D51464046C8476B1C002B80
:10805000F8DC257827EAE770013045B1041B294692
:108060004046C847301916F8015B002DF7D1BDE82E
:10807000F087002A03DC2846F9E70020EEE7571EC8
:10808000DFE700BF2DE9F04714461D4606464FF4D2
:108090007A720023204629464AF0D4F94D4BDFF886
:1080A00048814D4A4D4F034488FB03101844D917AB
:1080B00082FB032CC1EB601088FB002887FB0327A1
:1080C0009C44474AC1EBEC2CC0EB001E82FB0C2900
:1080D000A3EB8E0E1F44434A86F806E0C1EB274708
:1080E0004FEAEC7E08EB000ACEEBA90E82FB07827A
:1080F0004FEAE0780EEB4E0EC8EB6A18ACEBCE0CF4
:10810000C8EB0818DFF8E4E086F804C0A0EB8800AC
:1081100070718EFB0303F817C0EBE21240F2B5500A
:1081200000FB1272C1EBE353B2F5896F4FEA83078C
:108130003CDA40F2DA239A4242DCB2F5B77FB4BFB0
:108140004FF0000E4FF0010E4FEA4E09DFF8A0800D
:1081500009EB0E0308EBC3031FFA8EFCD88A09EB68
:108160000E0108EBC10116310B2301E031F8020DBD
:10817000904218DD013BF9D1CE44012338F83E008E
:10818000B37007F5FA670132121ABC44F270A6F810
:1081900000C0204629464FF47A7200234AF052F973
:1081A0003281BDE8F0870133DBB2E9E74FF0030C21
:1081B000E64640F29650DFF838804FF00609CEE7E9
:1081C0004FF0020CDFF82880E64640F229404FF0DD
:1081D0000409C4E780BC92C7C5B3A29107452EC26B
:1081E000ABAAAA2A73B06D1689888888792D0311E5
:1081F000484005080028F0B403DA2D230B704042F4
:108200000131092804464FF0010307DD03EB830326
:108210005B00B0FBF3F2092AF8D883B10F48A0FB4A
:108220000326B4FBF3F2092A02F1570C02F13007DE
:1082300009DD03FB1244F30801F801CBEFD1002361
:108240000B70F0BC704703FB1244F30801F8017B8C
:10825000E5D100230B70F0BC704700BFCDCCCCCC77
:10826000884270B44FF0010442D301FB04F4B0FB28
:10827000F4F58D42F9D2ECB142BB092D04FB150097
:1082800005F1570605F130020EDDB4FBF1F403F8F9
:10829000016B7CB1B0FBF4F5092D04FB150005F171
:1082A000570605F13002F0DCB4FBF1F403F8012BC2
:1082B000002CEFD100221A7070BC704703F8016BDC
:1082C000B4FBF1F4002CF5D0B0FBF4F5092D04FB60
:1082D000150005F1370605F13002EFDCB4FBF1F4CF
:1082E00003F8012B002CEFD100221A7070BC7047EC
:1082F0000546002AEAD1C0E790ED057A90ED004AE4
:10830000D0ED066AD0ED014AD0ED047A90ED035A23
:10831000D0ED025AA4EE007AB0EE406AB0EE470A01
:10832000B0EE667AA4EE867A67EEC07AA5EE407A61
:10833000E5EE867A80ED057AC0ED067A704700BFDB
:10834000D0ED057A90ED013AD0ED003AD0ED064A35
:1083500090ED024A90ED077A90ED035A90ED086A8D
:10836000D0ED045AC0ED067AF0EE406A27EE830A9B
:10837000C0ED056AA3EEA60A80ED087AA4EE240AF1
:10838000A5EE470AA5EEC60A80ED070A704700BFB2
:10839000D0ED007A90ED017A30EE670AE7EE007AD0
:1083A000B0EE670AC0ED007A704700BF704700BFAB
:1083B00030B414220023112503240221C2700122AB
:1083C0008571C4710370C3728373C373417041724A
:1083D00082700272827230BC704700BF0023062197
:1083E0004FF47A720170C0E901230373704700BF34
:1083F00030B42023012221254FF47F44FF21437014
:1084000000234571048281740272027002714381FB
:108410008381C38130BC70472DE9F04F3149324B25
:1084200083B001F5A07B019013274FF000092F487E
:108430001022012603E0203098420BD002799742A7
:10844000F9D102680C68A24209D02030984206F1A6
:108450000106F3D1203159453AD00F79E7E7447945
:108460004D79A542F1D19446019A214809EB49057D
:1084700002EB050A57558AF8016000F572751D4E2A
:10848000624603E0A8421AD050F82C6FB242F9D1EC
:108490000679A642F6D1CF6806464FF0000C964604
:1084A0008046F268BA4216D00CF1010CBCF1030F01
:1084B00006F10C06F5D14046A8427246E4D14FF0D1
:1084C000FF3C203159458AF802C009F10109C4D1A5
:1084D00003B0BDE8F08F086932698242E4D14FFAF7
:1084E0008CFCEEE7187705087C820508BC78050847
:1084F0007C8205080000014030B4152216231725A0
:108500002D242E21027043702F22FF238570447189
:108510008171C27143738373C370037103724372B9
:1085200030BC704710B42C210124022200230470B7
:1085300041708270C3705DF8044B7047034600F1D0
:108540001001FF221A705A7002339942FAD1027058
:1085500042708270C27070476D4B2DE9F04F1C68FD
:108560006C4BB3F80AE0B3F804809A894FEA0E2AFC
:10857000B4EB0A044FEA1E6B4FF0000587B065EBC1
:108580000B05CDE900450746009C1889019EA0FB1C
:10859000044500FB0655E00940EA45604FEA0844FF
:1085A0008C46E9114FEA184510EB0408D888009C66
:1085B00041EB0509CDE90489A0FB0445B3F802802D
:1085C00000FB0655200A40EA05604FEAC83429122C
:1085D0004FEA584510EB040841EB05090099A2FB4E
:1085E000010102FB06114FEAD05A4AEA412A1AF564
:1085F000FA634FEAE15B4BF10004B3F5FA6FCDE9A2
:10860000023474F10003424E64DA0524AAFB04012B
:1086100004FB0B1100FB0BF40AFB0144DDE904230E
:10862000A0FB0A0121444D104FEA3004121B4FEA0F
:10863000900463EB050344EA8174B8EB0408CDE9C8
:108640000423DDE9023434484FEAA10569EB05094A
:108650004FF0FF31834274EB010326DA40F6AC5051
:108660001AEB00024FF000014BEB010302FB03F198
:10867000A2FB022303EB4103D400DD00101B45EAFB
:10868000527563EB0501DDE9044524184D41CDE940
:1086900004450B24A2FB040104FB031149104FEA1B
:1086A0003000B8EB000869EB0109DDE90032534303
:1086B000009ADDE90201A2FB02AB0BEB430B4FEA90
:1086C000DA7242EA4B02801A4FEAEB7361EB030164
:1086D000CDE9020197B17168A1FB082301FB0933C1
:1086E000540D5D1544EAC324DDE90423A21A65EBA9
:1086F00003031D46D30B43EA45433B60BCF1000F27
:1087000002D0029BCCF8003007B0BDE8F08F00BF6C
:10871000B0160020604C002024FAFFFF2DE9F04F36
:10872000DFF8DCC1754CDCF808502288B4F90AA0E7
:10873000C2EB25135200C2EBE502B4F902505B43D1
:108740006A43B4F904501B135D43AD1305EBE225F6
:10875000B5F5FA324FEAE57B85B04BF1FF33CDE951
:108760000023DDE900325343009AA561A2FB028990
:10877000CDE90201B4F908200199009809EB4309F9
:108780005143D31700FB0311A2FB00230B444FEA14
:10879000EA7B0AFB09F11F0308FB0B13AAFB080184
:1087A00019444FEA102A4AEA016A16034FEA212BBC
:1087B00047EA12571AEB0602E6884BEB070312F161
:1087C000000A43F5004BAAFB060106FB0B114A10F9
:1087D000CB1752EA030100F08E80B4F910600098C4
:1087E00006FB09F1F71708FB0711A6FB08673944D8
:1087F000B4F90E808B4601994FEAE87908FB01F144
:1088000000FB0911A8FB00898944DCF80C104FEA31
:108810004947C1F5801C47EAD837B2464FEA484677
:10882000B4F90C801AEB060A66464BEB070BF717F8
:108830004FEAC806019600260096F907DDE90067B1
:108840004FEACC7016EB0A0647EB0B0741EA5C01D6
:10885000801B61EB070140F6354C8946A0FB0C01FB
:108860000CFB091149F0EEFDB4F91620B4F914A07F
:108870004E13470B47EAC14702FB06FCD31707FB21
:1088800003CCA2FB07236344564307FB0366A2FB0A
:1088900007233344560E46EAC31632184FEA63677D
:1088A00047EB010380460AFB01F14FEAEA7B08FB34
:1088B0000B17AAFB08013944C60C46EA413612EBF5
:1088C00006084FEAE147B4F9122043EB07094FEAE3
:1088D000182141EA096113010B44029A0AB11B0AEB
:1088E0001360039B23B105EB850580352D121D60B8
:1088F00005B0BDE8F08F0023EFE700BF744C002007
:10890000B0160020704770472DE9F041334B344ECC
:108910001A8A7489B6F91450B6F90480B6F90E7043
:10892000B6F920C05B69121B34895443E213B6F9CF
:1089300012401544E40294FBF5F4B6F902501444D5
:10894000A4F57A6E0EFB0EF20EFB05F50EFB08FE8B
:10895000B6F90C80F4611213574302FB08F21214AB
:1089600002EB6E32ED1205EBE7270232B6F900504A
:10897000B6F806E0921002F5004207EB85070EFB01
:1089800002F207FA0CF74FEAD23E02374CF25032AD
:10899000A3EBA70742FA0CF37B4355BF5B00B3FB85
:1089A000FEF3B3FBFEF35B0078B11A1202FB02F593
:1089B00040F6DE326A430B4D12145D4302EB254252
:1089C00002F6CF6203EB2213036021B10A235C435A
:1089D000083424110C60BDE8F08100BFB0160020FF
:1089E0003C4C002043E3FFFF4FF4006303837047D8
:1089F0004FF4006303837047012380F850307047C1
:108A00004FF4006303837047F0B4037C4569026848
:108A10001F2B37D9203B2021546899400C4223D08A
:108A200010249C40D160D4605168D940CE074ED408
:108A3000EFF31183502282F312882A6C1168C90760
:108A400009D45468002C52D1D5E909618E4243D132
:108A5000012285F86420DBB283F31188037C02686D
:108A60001F2B194614D9203B082150689940084211
:108A700000D0D1600421506801FA03F3184223D1D9
:108A8000F0BC7047202416689C4026420FD119463E
:108A9000082310688B40184200D0936004231068AC
:108AA00003FA01F10842EBD09160F0BC704710214D
:108AB0009940946091601168D940CC07B8D50121E4
:108AC00001FA03F39360B3E7D360F0BC7047012170
:108AD00001FA03F3D360ABE7AF690F44D7600ED858
:108AE0002E69711A5160AC62002185F8641011681A
:108AF00041F00101DBB2116083F31188AEE7711A16
:108B00005160AE62F0E700BFF0B4714B71491A7862
:108B10000B789A4240F07E816F4B1A78002A00F061
:108B2000D4806E4B19786E4B002940F0DB801868BA
:108B3000B3F83261048824F080042404240C0480F7
:108B400093F83041C462058845F080050580416294
:108B50008489012A44EA06048481A3F8321100F0D2
:108B6000B480D3F83401B3F86662048824F080043A
:108B70002404240C048093F86442C462058845F000
:108B80008005058041628489022A44EA06048481C2
:108B9000A3F8661200F09980D3F86802B3F89A63DC
:108BA000048824F080042404240C048093F898435F
:108BB000C462058845F08005058041628489032AE6
:108BC00044EA06048481A3F89A137ED0D3F89C0368
:108BD000B3F8CE64048824F080042404240C0480B8
:108BE00093F8CC44C462058845F080050580416255
:108BF0008489042A44EA06048481A3F8CE1464D04C
:108C0000D3F8D004B3F80266048824F08004240466
:108C1000240C048093F80046C462058845F0800562
:108C2000058041628489052A44EA06048481A3F808
:108C300002164AD0D3F80406B3F83667048824F045
:108C400080042404240C048093F83447C46205880B
:108C500045F08005058041628489062A44EA0604BD
:108C60008481A3F8361730D0D3F83807B3F86A6890
:108C7000048824F080042404240C048093F86848B9
:108C8000C462058845F08005058041628489072A11
:108C900044EA06048481A3F86A1816D0D3F86C2835
:108CA000B3F89E59108820F080000004000C10805A
:108CB00093F89C09D062148844F0800414805162B7
:108CC000908928439081A3F89E19F0BC704700BF9B
:108CD000881D0020891D0020CCCE002069C6002000
:108CE000D0CE00205C68198961602568186845F05D
:108CF000010540F20D312560A0F848108489012A51
:108D000044F480748481E0D0D3F83841B3F83C5106
:108D1000D3F834016560256845F001052560A0F8A9
:108D200048108489022A44F480748481CDD0D3F819
:108D30006C42B3F87052D3F868026560256845F05C
:108D400001052560A0F848108489032A44F4807442
:108D50008481BAD0D3F8A043B3F8A453D3F89C03CA
:108D60006560256845F001052560A0F848108489F4
:108D7000042A44F480748481A7D0D3F8D444B3F88F
:108D8000D854D3F8D0046560256845F00105256006
:108D9000A0F848108489052A44F48074848194D012
:108DA000D3F80846B3F80C56D3F804066560256876
:108DB00045F001052560A0F848108489062A44F48E
:108DC0008074848181D0D3F83C47B3F84057D3F8FE
:108DD00038076560256845F001052560A0F8481052
:108DE0008489072A44F4807484813FF46EAFD3F8F9
:108DF0007028B3F87408D3F86C385060106840F0ED
:108E000001001060A3F848109A8942F480729A8198
:108E1000F0BC70475C00E618484D15F83660032E2C
:108E20003FF67AAEDFE806F04D261C02E01805EBAF
:108E3000C0004468661E012C46603FF646AF013311
:108E400003F00303D8B2824208703FF465AE03EB2F
:108E50004303DB00EA1802200021E854516034E7A4
:108E6000E11805EBC1014868461E01284E603FF637
:108E70002CAF0DE0E118C90068184668771E012E76
:108E800047603FF622AF02274FF0FF366F5446602F
:108E9000E618F600AF192A48397B00680139C9B2D3
:108EA000397389B34FF47A722344B2FBF0F200FBBA
:108EB00002F0B0F57A7F05EBC30518BF01326A6096
:108EC0002AE670B11F49012600220F890132002FC6
:108ED00018BF0026824201F58671F6D1002E3FF4BC
:108EE0001BAE174A126842F21076E018B6FBF2F198
:108EF00002FB1162012605F8306002B131442344BF
:108F000005EBC305696007E6BF68B7FBF0F100FB3E
:108F100011700327AF5500B101311C44013305EB3B
:108F2000C40503F00303934269603FF4F5AD0029E3
:108F30003FF4F2AD01396960EEE500BF8C1D002001
:108F4000480D00206CC6002010B5027C01681F2A65
:108F50004FF020030ED94C68203A93401C4208D0B1
:108F60000B4A406800241470026822F0010202607B
:108F7000CB6010BD0C6893401C42FAD0044A406894
:108F800000241470026822F0010202608B60F0E796
:108F9000435C00202DE9F041C40023189B00B74931
:108FA000CA585268958AADB2EFB2FE070B4461D43D
:108FB000BE0737D5BFF35F8F1D7EEDB2012D00F0E8
:108FC000BB80AF4E138BBFF35F8F231801EB83037E
:108FD0001D7E022D00F0CE80231801EB83031D7E41
:108FE000032D05D19B7E1BB1737E002B40F01A81AF
:108FF000938896F918C043F480639380231801EB9B
:1090000083031B7E013363450AD1B37E0025757649
:10901000002B40F08A80204401EB80000023437540
:10902000BDE8F081964E17F0040F96F918C04DD1A7
:1090300017F0400700F0B280178A1D6AFFB205F8EA
:109040000C705FFA8CF56F1C93F818E07BB2DF1C94
:10905000BE4533769C4600F00981271801EB87074F
:109060003F7EBB42CAD105F1020C4FFA8CFC86F858
:1090700018C0C3E71588824E25F400652D042D0C19
:109080001580158845F4806515809D7E002737760C
:10909000002D3DD0757E002D37D0231801EB8303C2
:1090A00001251B7E7576022B03D1138843F40063E0
:1090B0001380231801EB83039B7D43F0010313828C
:1090C000204401EB8000037EBDE8F0819F7E757E29
:1090D0004FF0010E86F81AE0002F5CD0002D78D1F9
:1090E000231801EB83035B7E002B00F0A480138820
:1090F0000CF1010C4FFA8CFC43F4007386F818C095
:1091000013801388DF05FCD478E7DB7DFF2BC4D008
:10911000231801EB83039D7D05F0FE051582DB7DA1
:10912000FF2BCDD0FF233376CAE7938823F4407317
:109130001B041B0C93806EE79B7E514E002B3FF46B
:1091400041AF737E002B3FF43DAF138823F480635F
:109150001B041B0C1380BFF35F8F138B1388B57632
:1091600043F400731380938896F918C043F4806326
:10917000938043E79B7E002B3FF42EAF737E002B42
:109180003FF42AAF138896F918C023F480631B04B8
:109190001B0C138016E0002DA2D0A8E72D067FF54A
:1091A0002DAFBCF1FF3F6DD0DD6915F80C50158275
:1091B0000CF1010C1D7E4FFA8CF39D429C463376D8
:1091C0007FF41CAF938823F480631B041B0C9380F3
:1091D00014E71F7ED3F820805FFA8CF5AE44022F8F
:1091E0004FFA8EFE17882DD927F480673F043F0C75
:1091F0001780178AFFB208F80C701788D3F820C0C0
:1092000047F400731380138ADBB20CF80E30938896
:1092100005F1020C4FFA8CFC43F4806386F818C009
:1092200093806EE7938896F918C023F480631B043B
:109230001B0C9380E2E61388012543F480731380AE
:1092400075765EE747F400771780178AFFB208F853
:109250000C70178AD3F8208005F1030C4FFA8CFCB0
:10926000FBB286F818C008F80E304AE7978827F452
:1092700080673F043F0C9780EFE600BF482D002039
:10928000B0160020DD7D15829D7E37761DB91B7ED0
:10929000002B7FF415AF938823F480631B041B0C11
:1092A00093800DE717F0D0B838B51D4B1B780446F6
:1092B00000F1250593B104221A4920304AF0AEFE90
:1092C0002846142218494AF0A9FE012384F83A30AE
:1092D000164B1B7873B984F83B3038BD28461422EE
:1092E00013494AF09BFE012384F83A300F4B1B7858
:1092F000002BF0D00F4B186859689A68DD68E5605C
:1093000020606160A260DD69186959699A69A2618B
:109310000123E5612061616184F83B3038BD00BF05
:10932000F18B0020C08B0020A88B0020F28B002046
:10933000A0AE0508C88B0020014B186813F056BC7E
:10934000D833002010B429212824012200230470DE
:1093500041708270C3705DF8044B704738B530229D
:1093600000214AF01DFE0346642440F2DC5040F226
:109370001A4140F26C7240F202251C745882132488
:1093800019209982DA8240F2753140F643021D833A
:109390009C760E250A241877D9831E2002211A8470
:1093A000012283F82E00197283F82C1083F82250C2
:1093B00083F82D409A7383F8252083F82B201946D3
:1093C0000248BDE8384020F0C7BD00BFACAE05087C
:1093D00010B500210446012012F0DEF9207010BD06
:1093E00038B500240472451EE1B2022012F0D4F90F
:1093F0000134082C05F8010FF6D138BD38B500242A
:109400000546048021462846013428F04DF8082CF2
:10941000F8D1002185F8E210A5F8E410A5F8E610CF
:10942000A5F8E810A5F8EA10A5F8EC10A5F8EE10DC
:10943000A5F8F010A5F8F2102846BDE8384027F04E
:10944000F5BF00BF08B5838940F2E93300E0A3B15E
:109450000289013B12F0020F9BB2F8D089B28181E0
:1094600040F2E93300E043B10289013B12F0010F01
:109470009BB2F8D08089C0B208BD16F08FFEC0B292
:1094800008BD00BFF0B5876983B0064617B13B68D9
:10949000BA885A837069DFF8A8E08389C3244FF43F
:1094A0007A734FF0060C6D464FF6FF710EF1010E08
:1094B00003E0013B9BB28B4220D002899207F8D592
:1094C000A3B283814FF47A7302E0A3B28B4215D02A
:1094D0000289D20703F1FF34F7D5828992B20DB128
:1094E0002A700135BCF1000F0BD00CF1FF3CFF24BA
:1094F000BEF1000FE1D09EF80040D7E716F04EFE17
:10950000B76917B13B68BA881A839DF805009DF8C2
:1095100001509DF802109DF803409DF804209DF82D
:10952000063041EA052143EA002342EA04220120F1
:10953000A6F85010A6F85220A6F8543003B0F0BD9B
:10954000A84005082DE9F04F87B0A94A029040686D
:10955000038823F040031B041B0C0380038823F0C3
:1095600038031B0490424FEA134300F03F8102F599
:10957000806290420CBF3022382213430380029B4A
:1095800002889B6842F04002028013B11A689B88EF
:109590005383838940F2E93302E0002B00F090818D
:1095A0000289013B12F0020F9BB2F6D06B2383813C
:1095B00040F2E93302E0002B00F082810289013B96
:1095C00012F0010F9BB2F6D08389838940F2E93310
:1095D00002E0002B00F071810289013B12F0020FC2
:1095E0009BB2F6D08023838140F2E93302E0002B66
:1095F00000F063810289013B12F0010F9BB2F6D0AB
:109600008389029B9B6813B11A689B881383062386
:10961000784CDFF8EC81DFF8ECA1774D774E0493BE
:109620009623DFF8E4C101934FF0100EDAF804300E
:10963000C3F30803002B40F0B280EFF31183002B3B
:1096400040F0AD802068AA6823689842FAD1336858
:109650009A42F7D8D8F800704FF47A7101FB07F3FB
:109660009B1AB3FBF7F301FB00304FF47A774FF00E
:109670000109DAF80430C3F30803002B70D1EFF3CB
:109680001183002B6CD12368A96822689342FAD118
:1096900032689142F7D8D8F8002007FB02FBABEB09
:1096A0000101B1FBF2F107FB03131B1AB3F57A7F3B
:1096B000DFD3019B013B0193B8D1029B9B6813B19F
:1096C0001A689B885383029B586840F2E933828969
:1096D00002E0002B00F085800289013B12F0020FAE
:1096E0009BB2F6D0F523838140F2E93301E0002BF1
:1096F00077D00289013B12F0010F9BB2F7D083892A
:10970000838940F2E93301E0002B67D00289013BF5
:1097100012F0020F9BB2F7D0FF23838140F2E933AE
:1097200001E0002B5AD00289013B12F0010F9BB2DD
:10973000F7D08389DBB20393029B9A6812B1136856
:1097400091881983039B682B60D0049B013B13F025
:10975000FF0304937FF464AF184607B0BDE8F08FB1
:10976000EFF311818EF31288D5F808B02B68DB0374
:1097700044BFCCF80090D5F808B02368DCF800208E
:10978000C9B281F31188D8F80010134407FB01F225
:10979000A2EB0B02B2FBF1F207FB032385E7EFF329
:1097A00011838EF31288AF682A68D20303D5012291
:1097B000CCF80020AF682068DCF80090DBB283F3BF
:1097C0001188D8F800104FF47A72484402FB01F374
:1097D000DB1BB3FBF1F302FB003046E716F0DEFCC7
:1097E000AAE716F0DBFC029B586889E73022C4E642
:1097F0000038004038B9002010E000E040B90020F7
:109800003CB9002000ED00E034B9002012B113682B
:1098100092885A83029B586840F2E933828901E0BA
:10982000002B45D00289013B12F0020F9BB2F7D00A
:109830008C23838140F2E93301E0002B38D0028988
:10984000013B12F0010F9BB2F7D08389838940F26C
:10985000E9330289013B12F0020F9BB215D1002BB4
:10986000F7D116F09BFC029B9B6813B11A689B888A
:109870001383059B142B04D3182B17D9543B062BA9
:1098800014D9002007B0BDE8F08FFF23838140F298
:10989000E93301E0002BE4D00289013B12F0010F13
:1098A0009BB2F7D08389DBB20593DCE7032054E752
:1098B00016F074FC029B5868C8E716F06FFCA0E62F
:1098C00016F06CFC029B58687FE600BF38B5054671
:1098D00040683B4A038823F040031B041B0C0380B1
:1098E000038823F038031B0490424FEA134305D04A
:1098F00002F58062904201D043F0080303800388A0
:10990000AA6843F04003038012B1136892885A8317
:10991000838940F2E93301E0002B43D00289013B07
:1099200012F0020F9BB2F7D0F523838140F2E933A6
:1099300001E0002B36D00289013B12F0010F9BB2EF
:10994000F7D08389838940F2E93300E00BB30289C1
:10995000013B12F0020F9BB2F8D0FF23838140F24B
:10996000E93300E0ABB10289013B12F0010F9BB279
:10997000F8D08489E4B2AB6813B11A689B8813836A
:10998000712C19D008D9AC2C14D0AF2C0ED10920D1
:1099900038BD16F003FCEEE7122C0FD0702C07D167
:1099A000052038BD16F0FAFB6868CBE7732C03D0AE
:1099B000002038BD072038BD062038BD082038BD3E
:1099C000003800400122482116F0D2BC0122582163
:1099D00016F0CEBC3122F42116F0CABC044B93F829
:1099E00020209201343202F0FC02F42116F0C0BCB7
:1099F0003C4C00202E22F42116F0BABC07B50323FC
:109A000001AA002116F0E6FB9DF805309DF8040040
:109A10001B0243EA00439DF80600184303B05DF8BB
:109A200004FB08B5FFF7EAFF014B586008BD00BF13
:109A3000B016002008B5FFF7E1FF014B186008BD24
:109A4000B016002007B506236A46F72116F0C2FBC0
:109A50009DF801309DF800100B4A1B0143EA0133C9
:109A60009DF8021043EA1113D3609DF804309DF86D
:109A700003101B0143EA01339DF8051043EA11135B
:109A8000936003B05DF804FBB016002007B5032314
:109A900001AAF62116F09EFB9DF805309DF80420E2
:109AA0001B0243EA02439DF806201343054AB2F91C
:109AB0002020C2F10802D340034A536103B05DF88D
:109AC00004FB00BF3C4C0020B016002007B5022369
:109AD00001AAF62116F07EFB9DF804209DF80530C2
:109AE00043EA0223024A138203B05DF804FB00BF7D
:109AF000B016002070B582B00446062310306A46C6
:109B0000432116F067FBC0B19DF804009DF800608A
:109B10009DF801109DF802509DF803209DF8053036
:109B200041EA062143EA002342EA0522A4F8501044
:109B3000A4F85220A4F85430012002B070BD00BF38
:109B400070B582B0044606230C306A463B2116F0FD
:109B500041FBA8B19DF804009DF800609DF801103C
:109B60009DF802509DF803209DF8053041EA06213A
:109B700043EA002342EA05226183A283E3830120B2
:109B800002B070BD2DE9F04F87B00346039090F806
:109B90006100002840F02886039B93F85830072B7B
:109BA00000F019861823CDE90433039BBD4CBE4E4B
:109BB000DFF80083BD4F1033184680226B210293DB
:109BC00016F0D6FB6423DFF8F0E2B94801934FF0BA
:109BD0001009DEF80430C3F30803002B40F0AA8418
:109BE000EFF31183002B40F0A58425688268236879
:109BF0009D42FAD13B689A42F7D8D6F800C04FF49C
:109C00007A7101FB0CF39B1AB3FBFCF301FB0535E6
:109C10004FF47A7C4FF0010ADEF80430C3F30803F6
:109C2000002B40F06884EFF31183002B40F0638435
:109C30002368816822689342FAD13A689142F7D842
:109C400032680CFB02FBABEB0101B1FBF2F10CFB48
:109C500003135B1BB3F57A7FDED3019B013B0193BA
:109C6000B7D1072268210298DFF848828F4F16F09B
:109C70007FFB6423DFF840E28D4801934FF0100929
:109C8000DEF80430C3F30803002B40F09784EFF3B1
:109C90001183002B40F092842568826823689D42DE
:109CA000FAD13B689A42F7D8D6F800C04FF47A71DF
:109CB00001FB0CF39B1AB3FBFCF301FB05354FF4DE
:109CC0007A7C4FF0010ADEF80430C3F30803002B5E
:109CD00040F0F383EFF31183002B40F0EE83236811
:109CE000816822689342FAD13A689142F7D8326883
:109CF0000CFB02FBABEB0101B1FBF2F10CFB03131C
:109D00005B1BB3F57A7FDED3019B013B0193B7D197
:109D10001A466B210298DFF89C81644F16F028FBED
:109D20006423DFF894E1624801934FF01009DEF8F4
:109D30000430C3F30803002B40F01E84EFF31183BB
:109D4000002B40F019842568826823689D42FAD16F
:109D50003B689A42F7D8D6F800C04FF47A7101FBFD
:109D60000CF39B1AB3FBFCF301FB05354FF47A7C33
:109D70004FF0010ADEF80430C3F30803002B40F073
:109D80007E83EFF31183002B40F079832368816891
:109D900022689342FAD13A689142F7D832680CFBB4
:109DA00002FBABEB0101B1FBF2F10CFB03135B1BFC
:109DB000B3F57A7FDED3019B013B0193B7D101223A
:109DC0006B210298DFF8EC80384F16F0D1FA0F23A0
:109DD000DFF8E4E0364801934FF01009DEF8043074
:109DE000C3F30803002B40F0D284EFF31183002B60
:109DF00040F0CD842568826823689D42FAD13B6893
:109E00009A42F7D8D6F800C04FF47A7101FB0CF3F0
:109E10009B1AB3FBFCF301FB05354FF47A7C4FF042
:109E2000010ADEF80430C3F30803002B40F0098375
:109E3000EFF31183002B40F00483236881682268CC
:109E40009342FAD13A689142F7D832680CFB02FB90
:109E5000ABEB0101B1FBF2F10CFB03135B1BB3F5A0
:109E60007A7FDED3019B013B0193B7D1059A02981B
:109E7000DFF840800D4F1B2116F07AFA0F23DFF830
:109E800038E00B4801934FF01009DEF80430C3F3BB
:109E90000803002B40F05984EFF31183002B40F0AE
:109EA00054840BE038B900203CB9002040B90020B0
:109EB00010E000E034B9002000ED00E02568826881
:109EC00023689D42FAD13B689A42F7D8D6F800C081
:109ED0004FF47A7101FB0CF39B1AB3FBFCF301FB0B
:109EE00005354FF47A7C4FF0010ADEF80430C3F3F5
:109EF0000803002B40F08782EFF31183002B40F022
:109F000082822368816822689342FAD13A6891423A
:109F1000F7D832680CFB02FBABEB0101B1FBF2F1AD
:109F20000CFB03135B1BB3F57A7FDED3019B013B74
:109F30000193AAD1049A0298DFF82083C54F1C210F
:109F400016F016FA0F23DFF818E3C34801934FF019
:109F50001009DEF80430C3F30803002B40F0D4836B
:109F6000EFF31183002B40F0CF83256882682368CC
:109F70009D42FAD13B689A42F7D8D6F800C04FF418
:109F80007A7101FB0CF39B1AB3FBFCF301FB053563
:109F90004FF47A7C4FF0010ADEF80430C3F3080373
:109FA000002B40F01282EFF31183002B40F00D8262
:109FB0002368816822689342FAD13A689142F7D8BF
:109FC00032680CFB02FBABEB0101B1FBF2F10CFBC5
:109FD00003135B1BB3F57A7FDED3019B013B019337
:109FE000B7D1039A92F85B30032B00F2F28392F818
:109FF0005E20012A0BD0022A40F0EB83039B93F8EA
:10A00000633003F0FB03022B0CBF002207221A214E
:10A010000298DFF848828F4F16F0AAF90F23DFF875
:10A0200040E28D4801934FF01009DEF80430C3F38D
:10A030000803002B40F02683EFF31183002B40F040
:10A0400021832568826823689D42FAD13B689A4241
:10A05000F7D8D6F800C04FF47A7101FB0CF39B1AC5
:10A06000B3FBFCF301FB05354FF47A7C4FF0010A9A
:10A07000DEF80430C3F30803002B40F08881EFF3CF
:10A080001183002B40F0838123688168226893420A
:10A09000FAD13A689142F7D832680CFB02FBABEB7D
:10A0A0000101B1FBF2F10CFB03135B1BB3F57A7FEB
:10A0B000DED3019B013B0193B7D1039B029893F838
:10A0C0006020DFF89881634F192116F051F964235D
:10A0D000DFF88CE1604801934FF01009DEF804309E
:10A0E000C3F30803002B40F0EE82EFF31183002B43
:10A0F00040F0E9822568826823689D42FAD13B6876
:10A100009A42F7D8D6F800C04FF47A7101FB0CF3ED
:10A110009B1AB3FBFCF301FB05354FF47A7C4FF03F
:10A12000010ADEF80430C3F30803002B40F011816C
:10A13000EFF31183002B40F00C81236881682268C3
:10A140009342FAD13A689142F7D832680CFB02FB8D
:10A15000ABEB0101B1FBF2F10CFB03135B1BB3F59D
:10A160007A7FDED3019B013B0193B7D110223721C7
:10A170000298DFF8E880374F16F0FAF80F23DFF87F
:10A18000E0E0354801934FF01009DEF80430C3F3E6
:10A190000803002B40F05582EFF31183002B40F0B1
:10A1A00050822568826823689D42FAD13B689A42B2
:10A1B000F7D8D6F800C04FF47A7101FB0CF39B1A64
:10A1C000B3FBFCF301FB05354FF47A7C4FF0010A39
:10A1D000DEF80430C3F30803002B40F09C80EFF35B
:10A1E0001183002B40F09780236881682268934296
:10A1F000FAD13A689142F7D832680CFB02FBABEB1C
:10A200000101B1FBF2F10CFB03135B1BB3F57A7F89
:10A21000DED3019B013B0193B7D10298DFF83C806C
:10A220000C4F0122382116F0A3F80F23DFF830E09D
:10A23000094801934FF01009DEF80430C3F3080316
:10A24000002B40F0DD81EFF31183002B40F0D8812B
:10A2500008E000BF40B9002010E000E034B9002061
:10A2600000ED00E02568826823689D42FAD13B68D2
:10A270009A42F7D8D6F800C04FF47A7101FB0CF37C
:10A280009B1AB3FBFCF301FB05354FF47A7C4FF0CE
:10A29000010ADEF80430C3F30803F3B9EFF31183C6
:10A2A000DBB92368816822689342FAD13A68914207
:10A2B000F7D832680CFB02FBABEB0101B1FBF2F10A
:10A2C0000CFB03135B1BB3F57A7FE2D3019B013BCD
:10A2D0000193B1D107B0BDE8F08FEFF3118189F39D
:10A2E0001288D0F808B00368DB0344BFC8F800A0A8
:10A2F000D0F808B02368D8F80020C9B281F31188DB
:10A30000316813440CFB01F2A2EB0B02B2FBF1F239
:10A310000CFB0323D6E7EFF3118189F31288D0F801
:10A3200008B00368DB0344BFC8F800A0D0F808B049
:10A330002368D8F80020C9B281F31188316813442A
:10A340000CFB01F2A2EB0B02B2FBF1F20CFB0323BC
:10A350005BE7EFF3118189F31288D0F808B0036846
:10A36000DB0344BFC8F800A0D0F808B02368D8F8D1
:10A370000020C9B281F31188316813440CFB01F24B
:10A38000A2EB0B02B2FBF1F20CFB0323E6E6EFF3C8
:10A39000118189F31288D0F808B00368DB0344BF49
:10A3A000C8F800A0D0F808B02368D8F80020C9B2D7
:10A3B00081F31188316813440CFB01F2A2EB0B020C
:10A3C000B2FBF1F20CFB03236FE6EFF3118189F38B
:10A3D0001288D0F808B00368DB0344BFC8F800A0B7
:10A3E000D0F808B02368D8F80020C9B281F31188EA
:10A3F000316813440CFB01F2A2EB0B02B2FBF1F249
:10A400000CFB0323E5E5EFF3118189F31288D0F803
:10A4100008B00368DB0344BFC8F800A0D0F808B058
:10A420002368D8F80020C9B281F311883168134439
:10A430000CFB01F2A2EB0B02B2FBF1F20CFB0323CB
:10A4400070E5EFF3118189F31288D0F808B0036842
:10A45000DB0344BFC8F800A0D0F808B02368D8F8E0
:10A460000020C9B281F31188316813440CFB01F25A
:10A47000A2EB0B02B2FBF1F20CFB0323EEE4EFF3D1
:10A48000118189F31288D0F808B00368DB0344BF58
:10A49000C8F800A0D0F808B02368D8F80020C9B2E6
:10A4A00081F31188316813440CFB01F2A2EB0B021B
:10A4B000B2FBF1F20CFB032379E4EFF3118189F392
:10A4C0001288D0F808B00368DB0344BFC8F800A0C6
:10A4D000D0F808B02368D8F80020C9B281F31188F9
:10A4E000316813440CFB01F2A2EB0B02B2FBF1F258
:10A4F0000CFB032304E4EFF3118189F31288D0F8F5
:10A5000008B00368DB0344BFC8F800A0D0F808B067
:10A510002368D8F80020C9B281F311883168134448
:10A520000CFB01F2A2EB0B02B2FBF1F20CFB0323DA
:10A53000FFF78FBBEFF3118389F31288D0F808C0BF
:10A540000268D20304D50122C8F80020D0F808C060
:10A550002568D8F800A0DBB283F3118831684FF486
:10A560007A72554402FB01F3A3EB0C03B3FBF1F346
:10A5700002FB0535FFF74CBBEFF3118389F312881B
:10A58000D0F808C00268D20304D50122C8F8002020
:10A59000D0F808C02568D8F800A0DBB283F3118892
:10A5A00031684FF47A72554402FB01F3A3EB0C03BC
:10A5B000B3FBF1F302FB0535FFF7D8BBEFF31183D3
:10A5C00089F31288D0F808C00268D20304D50122AA
:10A5D000C8F80020D0F808C02568D8F800A0DBB281
:10A5E00083F3118831684FF47A72554402FB01F30A
:10A5F000A3EB0C03B3FBF1F302FB0535FFF75FBBE5
:10A60000EFF3118389F31288D0F808C00268D203EF
:10A6100004D50122C8F80020D0F808C02568D8F871
:10A6200000A0DBB283F3118831684FF47A7255448D
:10A6300002FB01F3A3EB0C03B3FBF1F302FB0535C3
:10A6400023E6EFF3118389F31288D0F808C002687B
:10A65000D20304D50122C8F80020D0F808C025682C
:10A66000D8F800A0DBB283F3118831684FF47A7216
:10A67000554402FB01F3A3EB0C03B3FBF1F302FB24
:10A680000535A1E5EFF3118389F31288D0F808C0EE
:10A690000268D20304D50122C8F80020D0F808C00F
:10A6A0002568D8F800A0DBB283F3118831684FF435
:10A6B0007A72554402FB01F3A3EB0C03B3FBF1F3F5
:10A6C00002FB0535D0E4EFF3118389F31288D0F84B
:10A6D00008C00268D20304D50122C8F80020D0F8CF
:10A6E00008C02568D8F800A0DBB283F31188316870
:10A6F0004FF47A72554402FB01F3A3EB0C03B3FB56
:10A70000F1F302FB053508E5EFF3118389F31288B5
:10A71000D0F808C00268D20304D50122C8F800208E
:10A72000D0F808C02568D8F800A0DBB283F3118800
:10A7300031684FF47A72554402FB01F3A3EB0C032A
:10A74000B3FBF1F302FB053522E4EFF3118389F348
:10A750001288D0F808C00268D20304D50122C8F8D4
:10A760000020D0F808C02568D8F800A0DBB283F339
:10A77000118831684FF47A72554402FB01F3A3EB60
:10A780000C03B3FBF1F302FB0535FFF7AABBEFF3B4
:10A79000118389F31288D0F808C00268D20304D567
:10A7A0000122C8F80020D0F808C02568D8F800A019
:10A7B000DBB283F3118831684FF47A72554402FB9F
:10A7C00001F3A3EB0C03B3FBF1F302FB0535FFF739
:10A7D00024BB019A1BE4039B93F85D301BBB102341
:10A7E000CDE90433FFF7E1B91D4614F033F905F163
:10A7F0000C010446E8B1202300228371104BC27182
:10A80000EB603DF00BFCA388B3FA83F3C3F11F03A5
:10A81000012212FA03F33FF4BFA90A490A6813435D
:10A820000B60FFF7B9B910211823CDE90413FFF726
:10A83000BCB9034BEB603DF0F1FBFFF7ADB900BFD6
:10A84000F9890008003C014042697749138823F0E8
:10A8500040032DE9F04F1B041B0C1380138883B0B9
:10A8600023F038031B048A4201904FEA134300F09F
:10A87000D08001F580618A420CBF282130210B4332
:10A880001380138843F040031380012011F09AFFD6
:10A89000019C2046FFF776F9A36913B11A689B88DB
:10A8A0005383019B586940F2E933828902E0002B0F
:10A8B00000F0B4800289013B12F0020F9BB2F6D087
:10A8C0006A23838140F2E93302E0002B00F0A68086
:10A8D0000289013B12F0010F9BB2F6D08389838974
:10A8E00040F2E93302E0002B00F095800289013B41
:10A8F00012F0020F9BB2F6D01023838140F2E933AD
:10A9000002E0002B00F087800289013B12F0010F6A
:10A910009BB2F6D08389019B9B6913B11A689B880F
:10A9200013836423414CDFF81091DFF81081404D10
:10A93000DFF80CA13F4E009311F0F2FE4FF47A774E
:10A940004FF0100C4FF0010ED8F80430C3F3080399
:10A95000002B3FD1EFF31183002B3BD12368A96873
:10A9600022689342FAD132689142F7D8D9F8002090
:10A9700007FB02FBABEB0101B1FBF2F107FB031399
:10A980001B1AB3F57A7FDFD3009B013B0093D3D131
:10A99000019B25495A69138823F040031B041B0CB3
:10A9A0001380138823F038031B048A424FEA1343B1
:10A9B00005D001F580618A4201D043F0080313807D
:10A9C0001388012043F04003138003B0BDE8F04F2B
:10A9D00011F0F8BEEFF311818CF31288D5F808B0AE
:10A9E0002B68DB0344BFCAF800E0D5F808B0236841
:10A9F000DAF80020C9B281F31188D9F800101344A5
:10AA000007FB01F2A2EB0B02B2FBF1F207FB0323FF
:10AA1000B6E7282133E715F0C1FB7CE715F0BEFB54
:10AA2000019B58695BE700BF0038004038B900203F
:10AA300010E000E040B900203CB9002000ED00E04B
:10AA400034B9002008B501202AF014F8174A936899
:10AA500003F00C03042B1ED0082B18D15168536847
:10AA6000490203F03F0319D452681148B0FBF3F0D8
:10AA7000C2F3881300FB03F00C4B0E4A5B68C3F370
:10AA8000014301335B00B0FBF3F0106008BD094BDC
:10AA9000074A1A6008BD074B186008BDB0FBF3F009
:10AAA0005368C3F3881300FB03F0E5E70038024066
:10AAB0000024F400C8AE00202DE9F84F037C0268A2
:10AAC0001F2B86BF203B51681168202202FA03F336
:10AAD0000B4214BF012300230BB9BDE8F88F456971
:10AAE000DFF88891044611F01BFE4FF4867303FBD8
:10AAF000059306465A7C002A30D157495A6809788E
:10AB00001768C1B9D3F8801058890A6822F0010289
:10AB10000A60BB8923EA0003BB81504B1B78002BE2
:10AB200030D1237C21681F2B11D8202202FA03F395
:10AB30008B60BDE8F88F5269136823F0010313603E
:10AB4000BB8923F480731B041B0CBB81E5E7203B0E
:10AB5000202202FA03F3CB60BDE8F88FD3F88060BF
:10AB60003F485F8901229A7431685A680368156802
:10AB700021F001013160AA89013322EA0702AA818A
:10AB80000360CEE74FF4867A0AFB05FA09EB0A0563
:10AB9000D5F88080404629F005FF01236B74D5F875
:10ABA00084B011F0BDFD3B88CBF82C0123F080036D
:10ABB0001B044FF0FF321B0C3B80FA623B880AF10A
:10ABC000340143F080033B804944384629F072FF4A
:10ABD000D5E915702B6CD5F850C0D5E917123B4359
:10ABE00003430B4313436A6E6F6FD8F800001D498F
:10ABF0001343AA6E1343AA6F3B43014013430B4315
:10AC00000022EA64C8F80030D5E91B30D8F81410E7
:10AC1000D5F880206F6C21F0070103430B43A86C2B
:10AC200095F87C10C8F81430C8F804C0C8F808704B
:10AC3000C8F80C0051606B68116818686D8941F0A4
:10AC40000101116083892B43838111F069FD064B5B
:10AC5000801B186065E700BF69C6002068C6002039
:10AC6000F01D00203F801CF0D03000206CC600207A
:10AC7000037903F01803082B0AD002D82BB1002067
:10AC80007047102B14D0182BF9D1B0F80B00704777
:10AC90000F4BB0F80B0093F90030591C06BF0D4B59
:10ACA0001B78DBB203EB831300EB430080B27047E9
:10ACB000094BB0F80B0093F900305A1C06BF054B46
:10ACC0005B78DBB203EB031300EB430080B2704709
:10ACD00038020020F4C2002039020020F0B50679C5
:10ACE00006F0E003402B09D144794FF0FF350023F3
:10ACF000012006F00706A3420BD1F0BD602B08BF70
:10AD000045794FF001040CBF04FA05F54FF0FF350B
:10AD1000EDE7042E0CD8DFE806F0030D18242E0012
:10AD200030B1C85CD75C784028420CBF01200020BD
:10AD30000133E0E70028FBD0C856D756A0EB070C3C
:10AD4000DCF1000040EB0C00F2E70028F0D031F815
:10AD5000130032F81370784028420CBF0120002005
:10AD6000E6E70028E4D031F9130032F91370C71B6D
:10AD700078427841DCE70028DAD051F8230052F815
:10AD80002370784028420CBF01200020D0E7024BFE
:10AD90000146186815F058BBCC32002038B5064D76
:10ADA000441E14F8011F286819B9BDE8384015F091
:10ADB0003DBB15F049FBF4E7CC3200200048EDE73D
:10ADC000D9EF050808B5FFF7E9FFBDE80840F5E74A
:10ADD00010B504460348FFF7E1FF2046BDE81040E8
:10ADE000F0E700BF6DAE050808B532B1C30600D567
:10ADF00019B11046FFF7ECFF0022104608BD38B528
:10AE0000074C084DAC4203D3074B00221A7038BDE3
:10AE10006288D4E9010147F09FFD1434F2E700BFD6
:10AE2000A00100087C0700086FDE002038B5074C41
:10AE3000074DAC4203D3074B01221A7038BD62881C
:10AE4000D4E9011047F088FD1434F2E7A0010008AE
:10AE50007C0700086FDE0020024A136823EA000026
:10AE600010607047CCD80020DFED2E7AB4EEE70AF0
:10AE7000F1EE10FA4ADDDFED2C6A9FED2C7A01E04D
:10AE8000B0EE670AB4EEC70AF1EE10FA70EE667A19
:10AE9000F6DC9FED277AF4EEC77AF1EE10FA3ED594
:10AEA000DFED216A9FED237A01E0F0EE407AF4EEC7
:10AEB000C77AF1EE10FA37EEA60AF6D4DFED1E7A65
:10AEC000B4EEE70AF1EE10FA14DDDFED167A37EE94
:10AED000C00A60EE006A9FED196A9FED197ADFEDF6
:10AEE000197AA6EE867A20EE266AE6EE877AA6EE34
:10AEF000270A7047DFED147AB4EEE70AF1EE10FA94
:10AF000044BFDFED0B7A37EEC00AE2E79FED087A27
:10AF1000F0EE407AF4EEC77AF1EE10FAC0D4B0EE5B
:10AF2000670ACBE7DB0F4940DB0FC940E4CB164192
:10AF3000DB0F49C0E4CB16C1DB0FC93F92E741B933
:10AF40009730083C15A82ABEDB0FC9BFF0EEC07AC7
:10AF5000B0EEE07AB4EEE77AF1EE10FAB4BFB0EEFC
:10AF6000676AB0EE476AB5EE406AF1EE10FA46D075
:10AF7000B4EEE77AF1EE10FA8CBFF0EE675AF0EE1D
:10AF8000475AC5EE866A9FED1F3A9FED1F6A9FEDF7
:10AF90001F4A9FED1F5ADFED1F3ADFED1F4ADFED1D
:10AFA0001F5AA6EEC36AE6EEA34AA6EE864AB7EE9D
:10AFB000006AA6EE845AA6EEA46AE6EE855AC5EEAD
:10AFC000866AB4EEE77AF1EE10FA48BFDFED147A44
:10AFD000F5EEC00A48BF77EEE66AF1EE10FA48BF18
:10AFE000DFED107AB5EEC00A48BF77EEE66AF1EE03
:10AFF00010FA48BFF1EE666AB0EE660A7047DFED00
:10B00000076ADEE739094E3DE3B59E3E88FA163EF3
:10B0100045FE7F3F99FB243F69A2163EA7DFA83477
:10B02000DB0FC93FDB0F4940DFED317A30EE277A85
:10B03000FDEEC76A16EE903A2033402B02D99FED01
:10B040002D0A7047B4EEE70AF1EE10FA4DDD9FEDE0
:10B050002A6ADFED2A6A01E0B0EE677AB4EEE67A9A
:10B06000F1EE10FA77EE467AF6DC9FED257AF4EEF3
:10B07000C77AF1EE10FA35D5DFED1F6A9FED217A20
:10B0800001E0F0EE407AF4EEC77AF1EE10FA37EE16
:10B09000A60AF6D4DFED167AB4EEE70AF1EE10FA5E
:10B0A0001BDCDFED197AB4EEE70AF1EE10FA44BFCB
:10B0B000DFED137A37EEC00A60EE006A9FED136A87
:10B0C0009FED137ADFED137AA6EE867A20EE266ADC
:10B0D000E6EE877AA6EE270A7047DFED0F7A37EEA5
:10B0E000C00AE9E7B0EE670AD4E7F0EE477ABCE7BA
:10B0F000DB0FC93F00000000DB0FC940E4CB164165
:10B10000DB0F49C0E4CB16C1DB0FC9BF92E741B9E1
:10B110009730083C15A82ABEDB0F4940FDEEC07AE7
:10B1200017EE903A2033402B45D8DFED2D7AB4EE60
:10B13000E70AF1EE10FA4DDDDFED2A6A9FED2A7A7B
:10B1400001E0B0EE670AB4EEC70AF1EE10FA70EE55
:10B15000667AF6DC9FED257AF4EEC77AF1EE10FA06
:10B160003BD5DFED206A9FED227A01E0F0EE407AD8
:10B17000F4EEC77AF1EE10FA37EEA60AF6D4DFED58
:10B180001D7AB4EEE70AF1EE10FA17DDDFED147A5E
:10B1900037EEC00A60EE006A9FED176A9FED177ADE
:10B1A000DFED177AA6EE867A20EE266AE6EE877A3B
:10B1B000A6EE270A70479FED130A7047DFED127A5B
:10B1C000B4EEE70AF1EE10FA44BFDFED087A37EE8D
:10B1D000C00ADFE7F0EE407ABCE7B0EE670ACEE7E0
:10B1E000DB0F4940DB0FC940E4CB1641DB0F49C000
:10B1F000E4CB16C1DB0FC93F92E741B99730083C59
:10B2000015A82ABE00000000DB0FC9BF10B44C090E
:10B21000012250F8243001F01F0102FA01F123EA63
:10B22000010340F824305DF8044B704710B44C091A
:10B23000012250F8243001F01F0102FA01F10B4302
:10B2400040F824305DF8044B704700BF4B0901F013
:10B250001F0150F82320012303FA01F1114214BF0A
:10B2600018460020704700BF2DE9F043002489B044
:10B2700006460D461F46A04605E025290CD030465F
:10B280000134A847039A531C039311780029F4D181
:10B29000204609B0BDE8F083931CCDE9033850780F
:10B2A000302842D0A0F13003DBB2092B4FF0000967
:10B2B00045D96C282AD0642873D019D9732858D05E
:10B2C00063D9752840F0828007F1040C386805AB1B
:10B2D00000220A216746FCF7C3FF05AB049A0093DE
:10B2E00029464B463046FCF791FE039A0444CAE7D0
:10B2F00025283CD051D958286BD06328C2D1397841
:10B300003046A84704370134039ABCE7039B5A1C14
:10B3100003921B78642B52D016D8252B27D064D9E2
:10B32000582B18D0632BEAD0ADE7D31C0393907849
:10B33000A0F13003DBB2092B4FF00109B9D804AA00
:10B3400003A93EF009FDB4E7732B12D051D9752B38
:10B350002DD0782B97D1A3F15802B2FA82F2386837
:10B36000520905AB10210437FCF77AFFB5E7252118
:10B3700085E73B68049A0093294600233046FCF792
:10B3800045FE04370444039A7DE76E287FF47AAFC4
:10B39000039A3B6804371C6075E700283FF478AFD8
:10B3A00070E7386805A9FCF725FF043795E738688A
:10B3B00005AB00220A21FCF753FF04378DE73B1D44
:10B3C000386805A91F46FCF715FF86E778287FF443
:10B3D00059AFA0F15802B2FA82F23868520905ABAF
:10B3E0001021FCF73DFF043777E7002B3FF450AF07
:10B3F00049E76E2BCDD046E710B5064C0B4602460A
:10B4000005492068FFF730FF2068BDE8104015F0BF
:10B410000DB800BFCC320020A592000838B5044614
:10B420000D460848FFF7BAFC29462046FFF7E4FF1F
:10B430000548FFF7B3FC054B1B7813B1044B012201
:10B440001A7038BD72AE050853EA0508283400208A
:10B45000293400200FB407B504A951F8040B019159
:10B46000FFF7DCFFFFF7AAFC03B05DF804EB04B0C4
:10B4700070470FB407B504A951F8040B0191FFF709
:10B48000CDFF03B05DF804EB04B070470FB407B50F
:10B4900004A951F8040B0191FFF7AEFFFFF78EFCF2
:10B4A00003B05DF804EB04B070470FB407B504A90E
:10B4B00051F8040B0191FFF79FFF03B05DF804EB17
:10B4C00004B070472DE9F0411746027902F0E0031D
:10B4D000402B05460E462BD10024584FDFF88081C3
:10B4E00015E02B7903F00703022B15D0032B19D09D
:10B4F000012B14BF315D31573846FFF7D6FF6B790A
:10B50000013BA34202DD4046FFF748FC01346B7962
:10B51000A342E6DCBDE8F08136F814103846FFF7A8
:10B52000C4FFECE736F914103846FFF7BEFFE6E734
:10B5300002F00702042A5DD8DFE802F0031D252788
:10B540002A003478202B3AD06DD8002BE2D1B5F800
:10B550000560B5F8078039482146FFF7A6FFB442D9
:10B5600040DB44453EDC002FD4D0424631463448CF
:10B57000BDE8F04199E796F90040202B1FD052D842
:10B58000002B3DD0C6E73488DCE7B6F90040F4E78D
:10B59000D6F80080202B444611D044D8002BB9D1D6
:10B5A00041462648FFF781FFD5F80510884519D890
:10B5B000002FAFD02348BDE8F04176E700246A7938
:10B5C000214B03EBC2010979A1420BDD53F8323064
:10B5D00053F82400BDE8F041FFF7E0BB1B48BDE88D
:10B5E000F04162E7FFF7EAFB224629681848BDE808
:10B5F000F0413EE7202BE1D007D8002B8AD11C4632
:10B60000B5F90560B5F90780A5E7602BE6D0802B7A
:10B6100080D131780F4B1048002914BF31461946AC
:10B62000BDE8F04141E7602BF1D16A791441E307AD
:10B63000D4D50A48BDE8F04137E700BF34E7050834
:10B6400076ED05087FAE0508AC8F0508CED9050854
:10B6500085AE050880DB05087BB7050871E705089E
:10B660007DAE05080CB407B510F020000BD079B9F9
:10B670002320FFF78CFB05A904980191FFF7BCFE7E
:10B68000FFF79CFB012003B05DF804EB02B07047AC
:10B690000020F8E70CB4C30607B500D561B905A9C9
:10B6A00004980191FFF7A8FEFFF788FB012003B083
:10B6B0005DF804EB02B070470020F8E70EB400B567
:10B6C00084B005AB019053F8042B0649039301A8FD
:10B6D000FFF7CAFD019B00221A7004B05DF804EB6D
:10B6E00003B070470180000870B406688E4217D915
:10B6F0000139751E002311F8014F0822634013F031
:10B70000800F4FEA430318BF83F0D503013ADBB241
:10B71000F5D18D42EFD1721C0260337070BC70475E
:10B72000721C00230260337070BC70470A4491425F
:10B7300015D010B40139541E11F8012F08235040C0
:10B7400010F0800F4FEA400018BF80F0D500013B99
:10B75000C0B2F5D1A142EFD15DF8044B70477047FC
:10B760004840082310F0800F4FEA400018BF80F0D7
:10B77000D500013BC0B2F5D1704700BF0A449142E9
:10B7800015D030B40139551E41F2210211F8014F94
:10B79000082380EA042004044CBF82EA40004000F1
:10B7A000013B80B2F7D18D42F0D130BC7047704779
:10B7B00070B502221349144C144E4FF6FF70FFF778
:10B7C000DDFF22884AB1A518B54218D2052A16D93C
:10B7D0002146FFF7D3FF2C46F3E721460222FFF76D
:10B7E000CDFF0222A118FFF7C9FF094BE41A094B4C
:10B7F0001C8041F60F53C31A5842584170BD0020B7
:10B80000FCE700BF0040000802400008008000087C
:10B81000FA3F0008F8DD00200F4B2DE93048D3E94E
:10B82000004554EA05020AD1034640F20112002005
:10B830001880988098715A801881BDE83088074B2D
:10B840001A6814EB020B45F1000C5A466346FCF7EC
:10B8500019FC0120BDE830889084002038B9002010
:10B8600030B403888278C478154DA3F5FA6303F0E9
:10B87000030101EB4101013A02EB81029B0835F81B
:10B8800012500279611E40F2B55404FB03132B449D
:10B8900003EB430302EBC30342798479094900892E
:10B8A000C3EB031302EB83032144C3EB031301EB4C
:10B8B00083034FF47A720021C2FB030130BC70474E
:10B8C0004840050880436D382DE9F04707468CB0A5
:10B8D0001E469246002A5CD1154614460A88B2F5E7
:10B8E000FA6F36D38B78581E0B2832D891F803C0E4
:10B8F0000CF1FF301E282CD891F804E0BEF1170F90
:10B9000027D891F80590B9F13B0F22D888793B28C8
:10B910001FD8B1F80880B8F57A7F1AD24FF0010825
:10B920005EBB09890491002CB4BF2D212B21002C72
:10B93000B8BF6442CDE90290CDE905140795CDE981
:10B9400000CE38462A49FFF7B9FE40460CB0BDE8A4
:10B95000F08700232749ADF828304FF0010C184636
:10B960008DF82A30ADF82C3099469E461A469846F6
:10B970000991634609A9002ED3D0CDE90290CDE903
:10B9800000CE38461C49FFF799FE40460CB0BDE892
:10B99000F0871A4C84FB0234A318D417C4EB631449
:10B9A000C4EB0415A2EB85052DB2002D0846B8BFE7
:10B9B0006D42FFF755FF4FF47A72002380468946A7
:10B9C00046F040FD3C230AFB030A4FF47A72002341
:10B9D0004046494646F036FD4FF47A7192B2002354
:10B9E000C1FB0A2309A8FCF74DFB24B209A975E79E
:10B9F000D8AE050800000101B8AE0508898888881E
:10BA00000378202B024600F10100F9D0092BF7D072
:10BA10002D2B00F0A4802B2B03BF5378B7EE000A28
:10BA20000246B7EE000AA3F13001C8B209289FED23
:10BA3000577A10D8F2EE046A07EE901AF8EEE77A19
:10BA400012F8013FE7EE267AA3F13001C8B20928C7
:10BA5000B0EE677AF0D92E2B63D003F0DF03452BCD
:10BA600002D020EE070A704710B451782D294FD02C
:10BA70002B2979D0A1F13003092B02F101027AD8E8
:10BA80000024002303EB830301EB430312F8011F9F
:10BA9000A1F130000928A3F13003F3D9B3F59A7F5F
:10BAA0001A4628BF4FF49A72072B6CD9DFED386A1B
:10BAB0001346F7EE007A083B072B67EEA67AFAD812
:10BAC00002F00702DAB1F2EE046A012A67EEA67A02
:10BAD00015D0022A67EEA67A11D0032A67EEA67A5D
:10BAE0000DD0042A67EEA67A09D0052A67EEA67A59
:10BAF00005D067EEA67A062A18BF67EEA67A002C54
:10BB00003BD087EE277A5DF8044B20EE070A70479A
:10BB10009178A1F13003092B02F1020230D80124FF
:10BB2000AFE75378A3F13001C8B2092802F101024E
:10BB300093D8F2EE046AF0EE665A07EE901AF8EE29
:10BB4000E77A12F8013F87EEA66AA3F13001C8B286
:10BB5000092866EEA56A37EE067AEED97DE75378B6
:10BB6000BFEE000A02465EE79178A1F13003092B8F
:10BB700002F1020284D9F7EE007A27EE277AC2E7B3
:10BB8000F7EE007ABDE7F7EE007A9BE700000000D1
:10BB900020BCBE4CB5EEC00ADFED317AF1EE10FAF2
:10BBA000CCBF30EE270A30EE670ADFED2E7A20EEAA
:10BBB000270A30B5FDEEC07A87B017EE904A0546E9
:10BBC00084EAE470002303A9A0EBE470CDE900331C
:10BBD00002933FF01BFE002CACBF20232D2303A8B3
:10BBE0008DF8003045F038FF012803A924D0022841
:10BBF0002DD0032805BF3023684668468DF80130F4
:10BC000048F0D6F9684645F027FF0338C4B222460B
:10BC10006946284648F002FA00232B55284645F08D
:10BC20001BFF2E22431C2A540DEB0401E81848F098
:10BC3000DBF9284607B030BD302368468DF8013067
:10BC40008DF802308DF8033048F0B2F9DAE730238E
:10BC500068468DF801308DF8023048F0A9F9D1E737
:10BC60006F12033A00007A44F8B5064615460846B6
:10BC7000B6FBF2F434B905FB14640C4B1B5D00F801
:10BC8000013BF8BDB4FBF2F75FB905FB1747074B63
:10BC900005FB1464DA5D00F8012B1B5D00F8013B25
:10BCA000F8BD3846FFF7E0FFEFE700BF08AF050833
:10BCB00002B370B48E1803E0121B14D1B14215D038
:10BCC00010F8012BA2F14103192B11F8013BA3F14C
