:020000040800F2
:10000000F0FF00107D4B0508F1A101080DB40008B8
:100010001D4C05081D4C05081D4C0508000000007E
:10002000000000000000000000000000FDA1010829
:10003000F9A1010800000000F5A1010861430108D1
:100040001D4C05081D4C05081D4C05081D4C0508D8
:100050001D4C05081D4C0508015201082D530108CF
:10006000F1520108B5520108795201081D560208E3
:100070000D560208FD550208ED550208D955020833
:10008000C5550208B15502081D4C05081D4C050850
:100090001D4C05081D4C05081D4C05083D52010866
:1000A0004DC10008E9C600087DC00008B9C70008B6
:1000B00029C6000869C500089DC40008595F0208E8
:1000C000615F02084D5F0208555F02081D4C05087C
:1000D0001D4C0508754501081D4C0508D94401084B
:1000E000C55101081D4C050815EC0108ADBF0008FD
:1000F0001DC20008DDBE0008FDC200089D550208B3
:100100001D4C05081D4C0508CDC300081D4C0508F5
:100110003D4401081D4C0508FD920208E9920208C1
:100120008955020875550208615502084D550208A7
:10013000395502081D4C05081D4C05081D4C0508C5
:100140001D4C05081D4C05081D4C0508B9BC0108CF
:100150002555020811550208FD540208A143010863
:10016000415F0208495F02081D4C05081D4C050847
:100170001D4C05081D4C05081D4C05081D4C0508A7
:080180001D4C05081D4C05088B
:080188002447050001000000FE
:100190001A023C00401A0020B81C00200000000099
:1001A000C5FB010827000400381A0020F41C0020B9
:1001B00000000000580700083810010064170020F4
:1001C000F81C0020000000005C0700080B301A003B
:1001D0006430002010390020000000006007000893
:1001E0001F3024009C2700202C3900200000000034
:1001F0007C07000805020400243300205039002049
:1002000000000000A007000803010A00C427002026
:100210005439002000000000A40700081302040065
:10022000F42500206039002000000000AE0700081F
:1002300002020300D04E0020CC4E0020000000003F
:100240000000000010020100D84E0020D44E002013
:1002500000000000B20700081F021000EC4E002052
:10026000DC4E002000000000ADF101080702020092
:1002700080790020187A002000000000B4070008F0
:1002800003123D00B97900201C7A00200000000014
:10029000B607000802000C00587900205C7A0020A4
:1002A000000000000000000006020C004C79002055
:1002B000687A00200000000061FC010808120F00AD
:1002C000CC780020747A00200000000055F101086D
:1002D000F7010600C0780020847A002000000000AA
:1002E000F40700081D020200BC7800208C7A002070
:1002F00000000000FA0700080A020A004876002001
:10030000907A002000000000496F020803000100FD
:10031000B07800209C7A002000000000000000005F
:1003200025102C015C760020A07A0020000000003F
:100330000000000028101000D0860020C086002099
:10034000000000006D1103081C0210000083002053
:10035000E08600200000000011F00108F6210C00EA
:1003600070860020F086002000000000FC070008D6
:1003700014000300348600204087002000000000A5
:100380000808000810100200A48400204487002000
:10039000000000000C080008190005009C840020E3
:1003A00048870020000000000E080008F821060021
:1003B00094840020508700200000000014080008EA
:1003C00001200C00C87E002058870020000000009B
:1003D0001A0800080A702800347E00206487002074
:1003E00000000000111103080EB08601AC7C002053
:1003F0008C870020000000008166040801010400D1
:100400000C7C002014890020000000000000000087
:1004100000010400047C0020188900200000000076
:100420002608000802010300007C00201C8900202F
:1004300000000000C168020822021401EC9D0020A7
:1004400078A000200000000011FE01080C20CC0064
:100450002C9C00208CA10020000000008568020870
:1004600000020500049C002058A2002000000000AB
:10047000000000001B021000D89B002060A200209A
:100480000000000039F001081E000600309900202D
:1004900070A20020000000002C0800081B100C00B7
:1004A000448B002078A200200000000009C503084A
:1004B0002102F000C489002084A200200000000076
:1004C00049BE0308231210003C9D002074A30020A5
:1004D000000000003408000805100600349D0020CC
:1004E00084A3002000000000440800083710280002
:1004F000609B00208CA30020000000004A08000838
:100500000E020200309D0020B4A300200000000075
:10051000720800081610060024890020B8A30020E5
:1005200000000000740800082F10220054A00020D2
:10053000C0A30020000000007A080008122010006C
:100540000C980020E4A30020000000009C08000894
:1005500023100E0078980020F4A300200000000073
:1005600085110308F55190002C89002004A4002077
:1005700000000000E1F503081A000E0024AC002082
:100580004CAD002000000000AC08000820320A003A
:10059000F8AA00205CAD002000000000616604089D
:1005A00015007000E8A8002068AD002000000000E1
:1005B000000000002A006000ECAC0020D8AD002054
:1005C00000000000396604082C00100048AE00202E
:1005D00038AE002000000000DD6204082B0024007B
:1005E0007CAE002058AE002000000000AD62040880
:1005F00029207800D4A60020A0AE00200000000032
:10060000000000000D003C0010E50020BCE50020CB
:100610000000000015190408090201007CE4002014
:10062000F8E5002000000000BC080008040080007D
:10063000FCE30020FCE500200000000000000000BA
:1006400013000400E8E300207CE600200000000026
:10065000C0080008FD012400C4E3002080E600205B
:1006600000000000711001081820300090E3002005
:10067000A4E600200000000071FD010806101A0029
:1006800070D10020D4E6002000000000DD660408E0
:10069000FB0101006CD10020F0E60020000000000A
:1006A000E5FD0108FC01090038D00020F4E6002037
:1006B00000000000F5FD010816023F00F8CF002001
:1006C00000E700200000000075F001083400100071
:1006D00028CF002040E7002000000000B166040899
:1006E0001102080000CF002050E7002000000000A9
:1006F000C408000812120400F8CE002058E70020B9
:1007000000000000CC080008F90104007CCB0020A8
:100710005CE7002000000000E9100108FA01020077
:1007200034C5002060E7002000000000A9F20108A5
:1007300011000C00BDB9002064E70020000000009B
:1007400025180408FE01140098B9002070E7002065
:08075000000000004DF001085B
:100758002003000000000000AE014A015E012C01E8
:1007680064000200000001000A019A01001E0A004C
:10077800000000000000000000010000000500006B
:10078800010203000000000000000000000000005B
:1007980000000000008007000000000004010100C4
:1007A8006C1600000000000001350000013C00004C
:1007B8000000000000000000000000000000000031
:1007C8000000000000000000000000000000000021
:1007D8000000000000000000000000000000000011
:1007E80000000000000000000000010024000100DB
:1007F80000000000000000000100000002020000EC
:100808001A00000000050000280100000401F4019E
:100818001400E8036400040A000114001E0090019B
:1008280000000000000001000000000000000000BF
:10083800000000000000000000000000200003018C
:10084800000020003200C800D007960014003200D3
:100858002800B00440060005500014000F000800EE
:1008680064000100000005000A000000C40900003F
:100878001900000000000000000000000000000057
:100888000000000000000000000000000000000060
:10089800000000000000000100000552564C540002
:1008A800000800007E05EA05B4053200E803D00719
:1008B8000000000036000000080040300000000082
:0808C80001010101FFFFFFFF28
:1008D00001000000A00F0000B80B00000102FFFFA4
:1008E00001FF0000FFFF0000FFFFFFFF042C0608D0
:1008F00000000802050303000C2C06080100080292
:1009000005040300383506080200FE01011003004B
:10091000142C060803001402000300001C2C060817
:1009200004001F0201000800242C060805001F0215
:10093000010108000403090412010002EF02014052
:10094000830456320002010203010000120100027A
:10095000020200408304405700020102030100002C
:1009600009022000010104C0320904000002080647
:100970005005070581024000000705010240000004
:1009800009026400030100C03209040000010300F1
:100990000000092111010001222600070583030838
:1009A000000A080B01020202010009040100010211
:1009B00002010005240010010524010002042402A4
:1009C000020524060102070582030800FF0904024C
:1009D00000020A000000070501024000000705812F
:1009E0000240000009024300020100C03209040075
:1009F000000102020100052400100105240100018C
:100A0000042402020524060001070582030800FFF2
:100A100009040100020A000000070501024000006D
:100A20000705810240000000FF000000E08D05087E
:100A300000000000000000000000000000000000B6
:100A400000000000000000000000000000000000A6
:100A50000000000000FFFF0000000000AA55050193
:100A600000000100B48D0508000000000000000037
:100A70000000000000000000000000000000000076
:100A8000000000000000000000000000FF1FFF1F2A
:100A900005010905A101A10005010930093109324B
:100AA000093309350934094009381581257F75084E
:100AB00095088102C0C0000009022200010100E087
:100AC00032090400000103010200092111010001A3
:100AD0002226000705830308000A0000000000002A
:100AE00001020304010203040607080935AE0108E8
:100AF00039AD010891B1010855840108CD8901087B
:100B000065840108818401082D8401081D84010881
:100B100000000000000000002D202D2D202D2D2D87
:100B20002D202D2D2D2D00000000000000000000C4
:100B300000000000000000AA550B010000AA5507A4
:100B4000010000AA550902000000AA5503009F00F9
:100B500001000000C0120000E43800200000000086
:100B600008390020000000001A0300000000000007
:100B70000000000000000000000000000000000075
:100B800000000000040309041201000200000040FC
:100B9000830420570002010203010000613A0208A9
:100BA00005F2010801F20108FDF1010859FE0108F2
:100BB000F9F10108F5F10108DC90050891A301089D
:100BC00059880108D1AE01080000000000000000B3
:100BD000D5AB0108F1AA01080000000000000000E8
:100BE00000000000918301089DF2010891F20108C4
:100BF000FD0302081904020849F20108E103020892
:100C0000C50302080068214C1F0000001C00000002
:100C10001F0000001E0000001F0000001E0000005A
:100C20001F0000001F0000001E0000001F00000049
:100C30001E0000001F000000000004010000000072
:100C4000000000021000000007000000000000008B
:100C50000000000001020304060708090000803FAD
:100C6000000000000000000000000000FFFFFFFF88
:100C700000000000087A00200800000000000000CA
:100C8000F8790020080000000000803FFFFFFFFF10
:100C9000C4330608D0330608DC330608E8330608F8
:100CA000F433060800340608F8480608000506086C
:100CB0002804060860540608F43006082053060885
:100CC000B8330608BC330608C03306080C340608DF
:100CD00010340608143406085C02060818340608A6
:100CE0001900C800F401200301000000A108030856
:100CF000000000006CA10508FFFFFFFFD601000007
:100D0000B80B00000101010000010101002D202DA0
:100D10002D202D2D2D2D202D2D2D0000000000002B
:100D200000000000000000000000000000000000C3
:100D3000000000000CB705080000000000000000E3
:100D400098B7050801000000FA000000010000004B
:100D50000100000001010000C47E00200000F40139
:100D600001000000C27E00200000F401010000002C
:100D7000C07E00200000F40101000000BE7E0020C3
:100D80000000F40101000000BC7E00200000F4011E
:100D900001000000BA7E00200000F4010100000004
:100DA000B87E00200000F40101000000990F030844
:100DB0005D0F0308DCA40508AE7E002005320100AB
:100DC000AC7E0020E803D00701000000AA7E0020CE
:100DD000E803D00701000000A87E0020E803D00748
:100DE00001000000A67E00201E00B80B01000000DC
:100DF000B47E002005000F0001000000B67E002038
:100E000003000A0001000000A47E00201E00F4017F
:100E100001000000A27E0020140064000100000018
:100E2000B07E00203200E80301000000A07E002018
:100E30000000C800010000007A7E002000C8010008
:100E4000797E002000500100787E0020005A0100C9
:100E5000767E00200200000068A5050868390608B3
:100E600070390608A6E500200100C4090000000052
:100E7000A4E500200100C40900000000A2E5002054
:100E80000100C40900000000A0E500200100C40921
:100E9000000000009CE500200100C40900000000E3
:100EA0009EE500200100C409000000009AE5002032
:100EB0000100C4090000000098E500200100C409F9
:100EC00000000000217C002000C80100207C0020E0
:100ED00000C801001E7C00200100C80001000000C5
:100EE0001C7C002032003075320000001B7C00208A
:100EF000055A0500187C002000FF01001A7C002024
:100F00000100000014070020167C002003000000F0
:100F10008CBF0508177C002000FF0100197C002011
:100F20000100000014070020157C002003000000D1
:100F30008CBF0508010F0308A50E030874A505085A
:100F4000D87E0020EE02CA0801000000D67E0020F4
:100F500000C8010064000000D57E002000C8010028
:100F600064000000D47E00200200000054A60508A2
:100F7000127C002080C1803E05000000107C002013
:100F800080C1803E050000000A7C002080C1803EB8
:100F900005000000087C002080C1803E05000000A4
:100FA000037C002000FF0100FC7B00206400F401B2
:100FB00001000000FB7B00200400000060A6050883
:100FC000FA7B00200200000074A605089B7C00202C
:100FD0000D00000080A60508987C00200064010038
:100FE000967C0020320010270A000000957C00202B
:100FF0000D00000080A60508947C00200D00000074
:1010000080A60508937C002002000000B8A6050811
:101010000000000000000000C4A60508DC3200202B
:101020009CFF2C010000000022820020E0150C171C
:10103000000000002482002002000000FCA6050839
:10104000E47E00200100FF7F01000000E37E00201D
:101050000200000008A705089D7C00200300000096
:1010600018A705089C7C00200300000018A70508AD
:10107000687E00200000E80301000000667E00207A
:101080000000E80301000000647E00200000E80387
:1010900001000000627E00200000E8030100000063
:1010A000607E00200000E803010000005E7E00205A
:1010B0000000E803010000005D7E00200014010034
:1010C0005C7E00200300000028A70508747E002035
:1010D0000000F40101000000727E00200000F40115
:1010E00001000000707E00200000F40101000000FB
:1010F0006E7E00200000F401010000006C7E0020E4
:101100000000803E010000006A7E00200000803E5A
:10111000010000008D7E0020196401008C7E0020FB
:101120000200000038A705088A7E0020E803D007E7
:101130000A000000887E0020006401000A00000010
:101140007D7E0020006401007C7E002000640100A0
:10115000847E0020006401000A000000837E0020DD
:10116000006401000A000000827E0020006401008B
:101170000A000000877E0020006401000A000000D1
:10118000867E0020006401000A000000857E0020A9
:10119000006401000A000000817E002001FF0100C0
:1011A0000A000000807E002001FF01000A0000000C
:1011B0007F7E002001FF01000A000000A67C0020C5
:1011C0000000F40101000000A47C00200000F401F4
:1011D00001000000A27C00200000F40101000000DA
:1011E000A07C00200000F401010000009E7C002093
:1011F0000000F401010000006782002000C8010027
:101200006682002000640100658200200064010005
:1012100064820020006401006382002000640100F9
:1012200062820020FF080100618200200164010049
:101230000D0E0308D10D030844A7050860820020A5
:10124000006401005E8200201400E8030100000039
:101250005C820020E80330750A0000005A820020FA
:1012600000C801005982002000C8010058820020F7
:1012700000C8010057820020006401000A0000003D
:10128000768200200000D00701000000708200205C
:1012900000C801006F82002000C801006E8200209B
:1012A00000C80100748200200000D0070100000087
:1012B0006D82002000C801006C82002000C801007F
:1012C0006B82002000C80100728200200000D0075D
:1012D000010000006A82002000C80100698200202D
:1012E00000C801006882002000C801000000000062
:1012F000C50B0308B4A70508917C00203900000045
:1013000050A80508907C002000C801008E7C0020B9
:10131000E803D007010000005245564F4C5400002E
:10132000110B0308D50A030838A90508910A030818
:10133000450A0308A8A905084D0B0308412F030817
:1013400028AA0508147C00200103010001100308ED
:10135000D50F03082CAD0508ED090308AD090308F6
:101360009CAD0508DB0B03085D2F030838AE0508AC
:10137000652B030800000000E0AE0508B533030844
:10138000611003087CAF05082D0C03080000000065
:10139000FCAF0508050D0308B10C030860B0050893
:1013A000950D0308590D0308FCB005082DA103088D
:1013B000490E03087CB105089F7E0020010601004C
:1013C000750C0308410C030878B2050893A00308C4
:1013D0001D300308E8B2050875A10308B5300308FD
:1013E000E4B305089E7E002001030100950B03086D
:1013F000650B0308B8B405082D10030800000000B1
:101400001CB505082D0A0308292F030880B5050817
:101410000000000000000000E4B505087D0E030890
:101420002D31030864B60508F67B002088136F177A
:1014300001000000F87B002088136F1700000000F7
:1014400026280020000000000000000024280020C2
:101450000000000000000000222800200000000022
:101460000000000020280020000000000000000014
:101470001E28002000000000000000001C280020A2
:1014800000000000000000000C040020000000002C
:1014900000000000CC7B002002000000ECB7050833
:1014A000F47B002088136F17010000001C3300201C
:1014B00088136F17000000004109030800000000B6
:1014C000F8B7050856820020010000004CB8050856
:1014D0001E3300200100000058B805081433002016
:1014E0000200000060B805080000000000000000D5
:1014F0006CB805082D0903080000000008B90508AC
:1015000000000000000000005CB9050800000000B9
:1015100000000000CCB9050818330020E0150C17B6
:101520000000000000000100FFFFFFFF0101FFFFBE
:10153000FF000000B18901089D8801086DB1010814
:10154000000000001984010825AD0108ED8701089D
:101550009DAC01080000000000000000D5830108D8
:10156000698301085D830108A1A20108BDA20108E9
:1015700085A2010869A201084DA201086989010834
:1015800079880108ADB0010800000000ED83010872
:10159000A1AC0108C1870108FDAB010800000000F3
:1015A00000000000E18301087D0000000000803F92
:1015B0000000000000000000000000000000803F6C
:1015C000000000000000000000000000000000001B
:1015D000000000000000000000000000000000000B
:1015E000000000000000803F00000000000000003C
:1015F0000000000001000000598301085583010824
:101600005183010845830108418301084D83010886
:1016100049830108010000000060024010600240A0
:101620000000000000000000000B000000000000AF
:10163000000000000000000000600240286002403E
:101640000100000000000000060C00000000000087
:101650000000000000000000006002404060024006
:101660000200000000000000100D0000000000005B
:1016700000000000000000000060024058600240CE
:101680000300000000000000160E00000000000033
:101690000000000000000000006002407060024096
:1016A0000400000000000000200F00000000000007
:1016B000000000000000000000600240886002405E
:1016C00005000000000000002610000000000000DF
:1016D000000000000000000000600240A060024026
:1016E00006000000000000003011000000000000B3
:1016F000000000000000000000600240B8600240EE
:101700000700000000000000362F0000000000006D
:10171000000000000000000000640240106402406D
:101720000000000000000000003800000000000081
:101730000000000000000000006402402864024035
:101740000100000000000000063900000000000059
:1017500000000000000000000064024040640240FD
:101760000200000000000000103A0000000000002D
:1017700000000000000000000064024058640240C5
:101780000300000000000000163B00000000000005
:10179000000000000000000000640240706402408D
:1017A0000400000000000000203C000000000000D9
:1017B0000000000000000000006402408864024055
:1017C00005000000000000002644000000000000AA
:1017D000000000000000000000640240A06402401D
:1017E000060000000000000030450000000000007E
:1017F000000000000000000000640240B8640240E5
:101800000700000000000000364600000000000055
:101810000000000000000000B02C0608CC520608B2
:1018200000000000D5680208A08601000400000046
:1018300000000000000000000000000000000000A8
:101840000000000000000000000000000000000098
:101850000000000000000000B02C0608AC54060890
:101860000000000001810008E803000004000000FF
:101870000000000000000000000000000000000068
:101880000000000000000000000000000000000058
:1018900000000000000000009C400608E00206086E
:1018A00000000000B5AE02087D0000000600000048
:1018B0000000000000000000000000000000000028
:1018C0000000000000000000000000000000000018
:1018D0000000000000000000E02B060800000000EF
:1018E000000000002D020108E803000003000000D2
:1018F00000000000000000000000000000000000E8
:1019000000000000000000000000000000000000D7
:101910000000000000000000B454060800000000B1
:101920000000000021CC0408102700000300000084
:1019300000000000000000000000000000000000A7
:101940000000000000000000000000000000000097
:101950000000000000000000102C0608000000003D
:101960002929030825D400085F760000050000003F
:101970000000000000000000000000000000000067
:101980000000000000000000000000000000000057
:1019900000000000000000006C2F0608000000009E
:1019A00000000000A107010810270000010000004E
:1019B0000000000000000000000000000000000027
:1019C0000000000000000000000000000000000017
:1019D0000000000000000000C054060800000000E5
:1019E0000000000005810008E80300000500000079
:1019F00000000000000000000000000000000000E7
:101A000000000000000000000000000000000000D6
:101A10000000000000000000CC5406080000000098
:101A20000000000029A70208204E0000030000006B
:101A300000000000000000000000000000000000A6
:101A40000000000000000000000000000000000096
:101A50000000000000000000DC5406080000000048
:101A60000000000015A50208204E00000300000041
:101A70000000000000000000000000000000000066
:101A80000000000000000000000000000000000056
:101A90000000000000000000EC54060800000000F8
:101AA0000000000001B50008400D03000300000025
:101AB0000000000000000000000000000000000026
:101AC0000000000000000000000000000000000016
:101AD0000000000000000000742D06080000000057
:101AE0000000000015350408102700000100000068
:101AF00000000000000000000000000000000000E6
:101B000000000000000000000000000000000000D5
:101B10000000000000000000F82B06080000000094
:101B20000000000041D0030810270000030000005F
:101B300000000000000000000000000000000000A5
:101B40000000000000000000000000000000000095
:101B50000000000000000000343C06080000000007
:101B60000000000001800008A861000001000000E2
:101B70000000000000000000000000000000000065
:101B80000000000000000000000000000000000055
:101B90000000000000000000FC54060800000000E7
:101BA0000000000069140408A08601000100000084
:101BB0000000000000000000000000000000000025
:101BC0000000000000000000000000000000000015
:101BD0000000000000000000742F06080000000054
:101BE000000000000D830008A00F000001000000AD
:101BF00000000000000000000000000000000000E5
:101C000000000000000000000000000000000000D4
:101C10000000000000000000085506080000000059
:101C200000000000690F04081027000001000000F8
:101C300000000000000000000000000000000000A4
:101C40000000000000000000000000000000000094
:101C50000000000000000000A02D060800000000A9
:101C6000000000006D170408A00F00000100000034
:101C70000000000000000000000000000000000064
:101C80000000000000000000000000000000000054
:101C900000000000000000007C2D0608000000008D
:101CA0000000000065EF03081A4100000100000079
:101CB0000000000000000000000000000000000024
:101CC0000000000000000000000000000000000014
:101CD0000000000000000000D42F060800000000F3
:101CE00000000000858C01081027000001000000A2
:101CF00000000000000000000000000000000000E4
:101D000000000000000000000000000000000000D3
:101D10000000000000000000E05206080000000083
:101D200000000000353E03081A41000001000000D9
:101D300000000000000000000000000000000000A3
:101D40000000000000000000000000000000000093
:101D5000000000000000000014550608000000000C
:101D6000000000005D920108400D0300000000002B
:101D70000000000000000000000000000000000063
:101D80000000000000000000000000000000000053
:101D900000000000000000001C55060800000000C4
:101DA000000000005D180408400D03000000000062
:101DB0000000000000000000000000000000000023
:101DC0000000000000000000000000000000000013
:101DD000000000000000000024550608000000007C
:101DE00000000000C1FC030850C300000300000015
:101DF00000000000000000000000000000000000E3
:101E000000000000000000000000000000000000D2
:101E1000000000000000000030550608000000002F
:101E20000000000089A4020840420F0000000000EA
:101E300000000000000000000000000000000000A2
:101E40000000000000000000000000000000000092
:101E500000000000000000003C55060800000000E3
:101E600000000000A119040850C300000000000099
:101E70000000000000000000000000000000000062
:101E80000000000000000000000000000000000052
:0C1E900000000000000000000000803F87
:1080000033490B6846F2A712C31A934200D870474F
:10801000304B1B6813F0200370B4086029D1DFEDEA
:108020002E7A1D462D4A2E481278047812F001024D
:108030002CD1002C31D04C6802708A686442AA1A94
:108040002BB10B7B13F0FD0F04BF264B1A60264BA0
:108050001B780E2B0BD19FED257A254B67EE877A87
:108060009A80FDEEE77A5C8017EE902A1A8070BC49
:108070007047204B1B7813F0020313D01E4A138A5B
:1080800095689BB9DFED147A0123CBE72CB9012663
:108090002246C1E901450670D2E7D1E901426442B6
:1080A000AA1ACDE7DFED0C7A1D46BBE707EE903A42
:1080B0009FED0E6ADFED116AB8EEE77AC6EE077A39
:1080C000F4EEE67AF1EE10FA88BFF0EE667ADBE7BE
:1080D00058170020283500209A99993ECE27002075
:1080E000889B00201C350020F02600200000C8429C
:1080F000F426002030310020FCE400206666663F54
:10810000704700BF70B50C4C23699BB15A68821A46
:10811000002A0FDB0546002603E05A68AA1A002A47
:1081200008DB99681E731A68216118469047236915
:10813000002BF2D170BD00BF581700202DE9F0438D
:10814000077B91F800C0DFF8B8E047610023C0E981
:108150000677C0E90877C0E90A77C0E90C77C0E97B
:108160000E73C0E91033C0E91233C0E91433C0E91B
:1081700016336FEA0C0C5FFA8CFC036698461424E5
:1081800005254CFA05F303F00103002B14BF192653
:108190000A26434415F0010F04EB06015FFA83F849
:1081A00089B214BFB9464FF00009234600EB8302A1
:1081B00001339BB29942C2F81490F7D1013D344487
:1081C0006A1CA4B2DDD118F0010F14BF19230A23D1
:1081D000E518ADB2224600EB8201013292B2AA420A
:1081E0004F61F8D123449BB21A1D00EB8202013388
:1081F0009BB200215160AEF814300361BDE8F083FA
:1082000058170020254BDB8A0B332DE9F04F8A46A7
:1082100001F1060B1FFA83F94FF001080021002538
:108220001AF801EB2C464A460127A2F10B039BB238
:1082300007E001339BB2B0F80CC0C6F814C09342FB
:108240000AD000EB8306002FF3D100EB8306013345
:108250009BB293427761F4D1043300EB8303013482
:10826000092D5960E4B20CD0092C14D008FA05F39A
:1082700013EA0E0F14BF012700270C3292B201350A
:10828000D3E709F17809DA451FFA89F9C7D1034B19
:10829000D982BDE8F08F0027EFE700BF5817002014
:1082A0002DE9F047DFF860E0BEF8183004338A4665
:1082B0001FFA83FC01F1090801271AF8016BE14656
:1082C0000025A9F1040307FA05F29BB23240C2B1BE
:1082D000818900EB830401339BB24B456161F6D188
:1082E00001350433082D1FFA83F9EAD10CF1200C73
:1082F000C2451FFA8CFCE0D10023AEF81830BDE86F
:10830000F0871146E5E700BF58170020084B1B789F
:1083100003B170472DE9F04F064D2DED028B2B6810
:108320005A05A9B008D429B0BDEC028BBDE8F08F86
:108330003C300020E8E3002002902DF0EBFCC14B24
:108340001B78012B00F06C82BF4B1B78002B3DD0BB
:10835000BE4C0299D4F84031BD4ACB1A934200F288
:10836000AF82DFF8409399F80060002E00F0B283EE
:10837000B84A116851B3B84FD4F85431029EB86866
:10838000F31A834222D394F85031002B00F0608717
:1083900094F85961B14894F858C10068013BDBB2C8
:1083A000013684F85031F6B2002B00F0D5860F4626
:1083B00084F8596117F8011B176001EB0C0384F86E
:1083C00058310CF07BF9029BC4F854310BF08CFC53
:1083D000A34B93F8008000F57A70B8F1010F1E905E
:1083E00000F0E6819F4B1B78002B00F0BE809E4F73
:1083F0003B68002B00F0B9809C4B944CD3F8008074
:10840000D4F86031A8EB0303632B40F2AE80DFF8B1
:1084100098A2974EDFF89492412015F00DF9BAF921
:10842000023086FB0320DB17C3EBA00080B215F0FF
:10843000E7F8BAF9003086FB0320DB17C3EBA00096
:1084400080B215F0DDF8BAF9043086FB0320DB17A3
:10845000C3EBA00080B215F0D3F899F8001038688B
:108460000CF02CF994F8646116F0010A00F096867D
:10847000804B1B689A066AD57F4B804E1B789B0702
:1084800042F10881B37C042B8CBF4FF0030A4FF0FC
:10849000020A472015F0D0F8306815F07DF87068B2
:1084A00015F07AF8B6F80CB0754B3868A3FB0B3BA7
:1084B000CBF3471B59460CF001F999F80030B0682E
:1084C0008BEA030B89F800B015F066F8B67C3868C3
:1084D0004AEA8606F6B231460CF0F0F899F8003018
:1084E00038685E40314689F800600CF0E7F894F88F
:1084F000646166BBDFF8B8A14F2015F09DF8DAF88B
:10850000000015F049F8DAF8040015F045F8304697
:1085100015F042F8012138680CF0D0F8564A99F865
:1085200000301678386806F00106314683F0010302
:1085300089F800300CF0C2F899F8003038685E40D5
:10854000314689F800600CF0B9F894F864614D4A3E
:10855000C4F86081731CDBB2A2FB0312D20802EBE9
:108560008202A3EB420384F86431DFF8488198F873
:108570000030022B00F08083374C637B032B00F02C
:108580008E83414B1B78002B3AD0404F3B68BBB3E6
:108590002E4C0BF0A9FBD4F87031039044F61F6207
:1085A000C31A93422CD994F87631002B01F0A283A0
:1085B000013B84F8763194F87761002E01F07E82D9
:1085C000013E84F8776194F87A31002B00F06C87D3
:1085D000013B84F87A3194F87E61002E00F06586C4
:1085E000013E84F87E6194F87F91B9F1000F01F0AB
:1085F000C58409F1FF3984F87F91039BC4F8703179
:10860000234B1B78002B40F0C982224D2B78002B86
:1086100000F08A80204B1B78002B3FF484AE0B4F78
:108620001E4C1F4D07F5367620680CF043F80028E5
:108630003FF479AE20680CF035F82B788046002B9B
:1086400049D039E0D9350020E63500205817002000
:108650003F0D0300503500208801002048350020E0
:10866000E7350020F43500201035002044B9002003
:10867000676666662835002030310020FCE4002063
:108680001F85EB51CDCCCCCCFC3500200036002032
:108690002C370020D5800020063600200C36002024
:1086A0001036002054350020903000201435002072
:1086B000149900200EA60020013B20682B700BF0BF
:1086C000F9FF00283FF42FAE20680BF0EBFF2B786A
:1086D0008046002BF0D16A49032230464DF02BFE34
:1086E00097F8D81287F8DB82023911F0FF0100F009
:1086F0007F82314432464FF6FF7312F8010B1B1A8A
:1087000091429BB2F9D11A0A1FFA88F890458BD191
:1087100097F8DA22DBB29A4286D15A4814F0BEFCAE
:108720002B78184428707FE7574C94F8BD32012B02
:1087300040F2078294F8BE125448554A4E1C194420
:1087400000EB8101A2FB06725248D1F82C7101782E
:10875000920802EB8202B21A84F8BE2229B14E4975
:108760004E4A0968914200F0F281B7B14C4E1F9613
:108770000DF1A008A6F1120948F8289D48F2A502BB
:1087800015230299A4F8C022404684F8C232B847A3
:10879000002840F0398494F8BD32424A0133A2FBEC
:1087A0000312520802EB42029B1A84F8BD3231E7F1
:1087B0003D4E306800283FF415AE4FF000098DF8AB
:1087C00070900BF077FF30B3384F2F4C30680BF0C0
:1087D00069FF83B27E2B00F06B843A7B3168002AFC
:1087E00040F05C8394F85BC1BCF1000F00F0B181F4
:1087F0001B2B84F85B2140F0588308460BF05AFF8E
:10880000002800F04685306887F80C800BF052FF96
:108810000028DBD100201EAA1CA914F027FFE1E5E7
:10882000234B1B68002B3FF48FAD174C0299D4F8F3
:108830003431204ACB1A93427FF786AD1E4F94F80D
:108840003861D7F80080C4F834110136F6B218F058
:10885000020F84F8386141F0D38518F0340F02D04C
:10886000B30701F0F48616F0070801F03883282ECC
:1088700001F0B586114B5E201B68984764E500BF88
:10888000311A0020301A0020581700201064050803
:10889000CDCCCCCCCC9D00208883002094790020C6
:1088A0002D1A0020ABAAAAAA3C350020880100207E
:1088B0003428002047E8010028350020C027002088
:1088C000CD4BCE481B88CE4ACE4F567A3A68CE4919
:1088D0000533A0FB0303D4F84401101A4FF47A7255
:1088E000DB0802FB06F25FFA83FC00261B0A9042BB
:1088F00081F81EC0CB7781F814C04B758E700E7155
:1089000080F01584C14BC24A1B68DFF84CC3106865
:10891000D2F808E0DFF844838CFB0326DA17BD4B5E
:10892000C2EB66121F78BC4E88FB009302F5FA7208
:10893000C017C0EBA30092B288FB0E984FEAEE7E00
:10894000CEEBA80EB54B8A760877120A0012CA76CB
:1089500048774FEA2E2296F812B081F820E0B80747
:1089600081F8212083F81AB040F14B83D6F80080BB
:10897000D6F804E0AA49AB4ADFF8E4A281FB080973
:108980004FEAE87781FB0E014FEAEE70C7EBA9577B
:10899000C0EBA15002FB078102FB00E202EB4202A6
:1089A000520001EB4101039249008AFB012900EBCF
:1089B0008000039A00EB80004FEAA94905908AFBEA
:1089C000022AC8174FEAD87807EB87074FEAAA426E
:1089D00007EB870783F80980A9EB00080492B6F833
:1089E0000CA0B66806963A464046039F8E4E4FFA54
:1089F00088F808EB8208049AFF1706FB1010D11BB9
:108A0000039A0F4606FB1121069A8CFB0296D21799
:108A10004FEADE7EC2EB6612059E83F80EE0BBF1E4
:108A2000050F0AEBCA0ADFF83CB2DFF83CE27FB27E
:108A300007EB86074FEA8A0A8CFB0096ABFB0A9A83
:108A40008CFB019CBEF800E0DFF8209283F813E075
:108A50001FFA88F8BFB24FEAE0704FEAE17102F501
:108A6000FA72C0EB6610C1EB6C114FEA9A164FEA2E
:108A7000182B4FEA172A82F31002B9F800C083F8C6
:108A800010A083F80A8083F80BB0DF734FEA1E2E24
:108A90004FEA20294FEA2128C2F3072B4FEA162775
:108AA00034BF4FF0320A4FF0330A187383F80D9039
:108AB000597483F812805A7583F816B0DE711F72EC
:108AC00083F814E083F81BA083F81CC0029BC4F851
:108AD000403146E4DFF89881D8F800000BF0EAFD59
:108AE000C0B201280FD90228504F40F0B5833B781F
:108AF000002B41F0B284D4F8483102997A68CB1A3D
:108B0000934281F0EF854A4A116800293FF45EAC38
:108B100099F80030002B7FF42EAC464BD8F80000BB
:108B20001B689B781E3B012B41F29284343002215A
:108B300015F030FA0122002389F8002084F858311A
:108B400041E43D4A02EB8302D2F82C710DE63B4F23
:108B50000CE67D2B01F0878494F85E2122B180F031
:108B60002003DBB284F85EC1B4F85C2194F85AC1EA
:108B70001A44BCF1060F92B22BD804EB0C0E084637
:108B80000CF1010CA4F85C218EF81C3084F85AC159
:108B90000BF090FD00287FF419AE3BE6284C2278BC
:108BA00032B1284B284918680BF054FD002323707C
:108BB000264E3478002C7FD0DFF8B890D9F860507A
:108BC000002D40F08582224B029A3570C3F8B822FE
:108BD0001BE5D3B203EB1222FF2A87F80C80A4F81E
:108BE0005C2140F05B8108460BF064FD194812E6F9
:108BF000FF224FF6FF7387E54C300020CDCCCCCC64
:108C00009C27002044B90020243600201C35002079
:108C10008030002030310020FCE40020503600205D
:108C20006BCA5F6B806967FF40420F0088010020BC
:108C3000503500204C35002010640508A997010824
:108C4000D835002028370020983500202E37002006
:108C500058170020741700201F85EB516766666661
:108C600083DE1B43D34D621038350020208900205D
:108C700048350020743800200BF036F8964B1B68FE
:108C8000C01A40F6B833984200F21B81934E3379F4
:108C90003A2B01F0F283002388F8003071E4904B06
:108CA00018680BF0FBFC00283FF46BAC0222002399
:108CB000627388F8003064E48A4E3278002A40F00B
:108CC0002D81894C94F82B31002B40F0CA82874AC1
:108CD00087491268096891422CD894F82021002A0B
:108CE00041F06A8794F82131002B41F0378794F8DE
:108CF0002231002B41F0768794F82331002B41F08C
:108D00006F8794F82431002B41F0A38794F8253124
:108D1000002B41F09C8794F82631002B41F0AE8760
:108D200094F82731002B41F0A78794F82831002BC5
:108D300041F091876F4C704ED4F8B82231786F4B68
:108D400093FBF1F31344029A9A42FFF45EAC11468E
:108D500094F8BC326A4AC4F8B812D75CFB0745D510
:108D6000DFF8B4919FED678AB9F9023007EE903AC7
:108D7000F8EEE77A644B1F9367EE887A0DF1A0084E
:108D8000FDEEE77AA3F13D0248F8282D17EE902A70
:108D900091B240F6C80223F8402C1E2203F83E2C64
:108DA00040461AF011FBB9F9003007EE903AF8EEA0
:108DB000E77A404667EE887AFDEEE77A17EE903A5A
:108DC00099B21AF001FBB9F9043007EE903AF8EEC7
:108DD000E77A404667EE887AFDEEE77A17EE903A3A
:108DE00099B21AF0F1FA404615F08CF9B80701F182
:108DF0009F85790701F1E185390743D5424B434F00
:108E00001F9328ADA3F13D0245F8282D41F2C8116A
:108E1000022203F83E2C23F8401C284639681AF039
:108E2000BBFA284679681AF0B7FABB89242101FBFE
:108E300003F14FF064082846323191FBF8F189B212
:108E40001AF0C2FAFB8903EB8303590089B2284662
:108E50001AF0BAFA2E4B2F4A1B689342A8BF13464A
:108E600023EAE37393FBF8F303F57A7189B228469A
:108E70001AF0AAFA1E9BBA7C591C1E9128461A7039
:108E800015F040F994F8BC323178013393FBF1F2DC
:108E900001FB123384F8BC32FFF7B7BB08460BF076
:108EA00009FC00287FF492ACB4E40D2B7FF4ABAC4A
:108EB0000846A4F85C210BF0FDFB00287FF486AC8B
:108EC000A8E40C4AB2F8663100210133A2F86631F9
:108ED00088F80010FFF755BB14A60020FCA5002061
:108EE00098A700202D3700203037002044B90020FB
:108EF000549800205817002070380020A0860100E8
:108F00006C38002058A08B4198350020FCE40020EC
:108F10001C35002020A1070090300020944D954B77
:108F20000093A5F13F01C827CDE91C1505F8407C49
:108F3000914B924A92491EA819F008FB1C9D6B1C8C
:108F40001C932C701C9B2922591C1C911A701C9B71
:108F5000EA22591C1C911A701C9B5A1C1C921EA8B8
:108F60001F704AF049FF471C1EA93A461C984BF057
:108F7000D7FE1C9AD31901331C93D4551C9B5A1C41
:108F80001C921C701C9B5A1C1C921C701C9B5A1C13
:108F90001C921C701C9B5A1C1C921C701C9B5A1C03
:108FA0001C921C701C9B5A1C1C921C701C9B5A1CF3
:108FB0001C921C701C9B5A1C1C921C701C9B5A1CE3
:108FC0001C921C701C9B5A1C1C921C701C9B5A1CD3
:108FD0001C921C701C9B5A1C1C921C701C9B012216
:108FE000991828A81C911A7050F8303D5B1B2B7003
:108FF00015F088F8634B029A3470C3F8B822FFF773
:1090000004BB2D22DA7661E51E9F4F4541F258845C
:10901000A6F11300013F002141F2210610F8012FB3
:1090200081EA022212B293B2002AACBF5B0086EA48
:1090300043039BB21A0454BF5B0086EA43039BB20E
:10904000190454BF5B0086EA43039BB21A0454BF61
:109050005B0086EA43039BB2190454BF5B0086EAB7
:1090600043039BB21A0454BF5B0086EA43039BB2DE
:10907000190454BF5B0086EA43039BB21A0454BF31
:109080005B0086EA4303874299B2C7D140461AF093
:10909000C1F93D491E9E3D48761A152EA8BF1526DA
:1090A00032464BF03DFE94F8BD322E70FFF775BB93
:1090B00030688DF8709084F85A9184F85B8187F855
:1090C0000C900BF0F7FA00287FF480ABFFF7A2BBFF
:1090D0000024DFF8C480254650270BE01C44EFF342
:1090E000118387F31288D9F86020944218DADBB232
:1090F00083F3118819F804A0601C514648440022EB
:1091000014F01AF90AF101030028E7D041463A2089
:1091100014F070F80AF1010A0543EDB25444DEE799
:109120000022DBB2C9F8602083F311884BE5184BAD
:109130003A681B78C4F84421013B012B41F2498273
:10914000144B1B78013B012B3FF6DCAB16220123AD
:109150008A700B71FFF7D6BB0CF10103614684F8EE
:10916000596184F858310BF0A9FAFFF72CB900BF08
:109170009835002013980020C4E00508CCE00508CD
:10918000D8E0050858170020181A0020C0800020D9
:109190005C7000208470002039E10108B44B1B880A
:1091A000D8050CD4590601F17982DA0701F19C83C4
:1091B00013F0020F0CBF4FF0040A4FF00C0AAD4A37
:1091C000AD4B1678DB7806F001060BB146F00206CF
:1091D000532014F031FAA94B1B8803EB830358008A
:1091E00080B214F00DFA002014F00AFA30F084FA7C
:1091F000A34BC0EB002083FB00231A18C317C3EB5B
:109200006223FF2BA8BFFF235FFA83FB5946386810
:109210000BF054FA99F8003038688BEA03034AEAF5
:109220000606002189F800300BF048FA314638680C
:109230000BF044FA99F8003038687340DBB21946F5
:1092400089F800300BF03AFA94F86461FFF751B9ED
:1092500014F0D8FEFFF7B7B814F0C4FE01233B703A
:1092600051E4884B84F82B2128A8A3F13A028649BF
:1092700040F8282D4FF4327223F83C2C43F8401C60
:109280001F9314F03FFF814B029AC3F8B822FFF7F7
:10929000BCB930688DF8708087F80C800BF00AFA42
:1092A00000287FF493AAFFF7B5BA794B94F886E1CA
:1092B000B3F90220B3F90010B3F904309FED756AD9
:1092C00084F8296007EE103A734B84F828E01B6895
:1092D0001E938EF06A0383EA031306EE901AD9B246
:1092E0000B0983F0D50343EA012383EAC1031BB2D0
:1092F00083EA0311C3F3072C5342C9B207EE903A35
:109300008CEA111C4CEA012CF8EEE77AF8EEE66ADA
:10931000B8EEC77A8CEAC10C0FFA8CFC67EE867A3D
:1093200066EE866A27EE067A00208CF0C808CDED3E
:10933000207ACDED1F6A8DED217A22902390249022
:109340000DF1780988EA0818B9E80F005FFA88F883
:10935000CCF3072C8CEA181C4CEA082C8CEAC80CBD
:10936000DFF838810FFA8CF6A8E80F0086F01E0CA3
:1093700099E807008CEA0C1C5FFA8CFCC6F3072600
:1093800086EA1C1646EA0C2688E807000EF101035F
:1093900086EACC0CC822A8F110064FF005094FF060
:1093A0001E0E41F6FE4184F82A2084F87E9184F84E
:1093B0002BE0E18406F11C0284F88631A4F824C075
:1093C00016F8013B83EA0C0383EA0313DBB21909A5
:1093D00081EA1C2141EA032181EAC3031BB21FFA7F
:1093E00083FC9642A4F824C0EAD183F0270383EAE1
:1093F0000313DBB24FEA1C2686EA131686EA03261D
:1094000086EAC30636B2B3B24FEA132AF6B2DFF8E1
:109410009090A38484F849A084F8486004F1260C55
:1094200004F14608DCF80000DCF80410DCF8082041
:10943000DCF80C30CE46AEE80F000CF1100CC44541
:10944000F146EFD1DFF85C80BCF80030AEF80030B8
:1094500008F1240984F8D26184F8D3A118F8011F17
:1094600038680BF02BF9C145F8D1FFF7BCB800BF45
:109470008C300020CE270020D02700204C30002048
:109480000308208098350020C8057DEA5817002081
:109490009030002088C3E43A44B9002084170020AB
:1094A0000819002007190020D64B1B6819229906BD
:1094B00084F87A217FF58FA8D34BD44E1B789A0776
:1094C00041F10882B37C042B8CBF4FF003084FF0AE
:1094D00002080AF009FCF389B2681E9003EB8303CB
:1094E0005B00ADF8923002EB820233688DF8948015
:1094F0002093B6F80CE0B17C7368ADF890E04FF0C3
:10950000000C52004FF0FF300DF17808CDF87CC010
:10951000229221938DF895102390C146B9E80F004F
:10952000DFF8F0E2AEE80F0099E80F00AEE80700C0
:109530007146182221F81C39049194F8861184F898
:109540002B2081F0780383EA0313DAB2130983F046
:10955000F60343EA022383EAC2031BB283EA03123F
:10956000D2B2C3F3072383EA121343EA022383EA46
:10957000C2031BB283F0C80282EA0212D2B2C3F362
:10958000072383EA121343EA022383EAC2031BB2CE
:1095900084F829C083F0180C8CEA0C1C5FFA8CFC50
:1095A000C3F30722481C82EA1C1242EA0C2284F808
:1095B0008601049884F8281082EACC0CC82341F66E
:1095C000FE620146A4F824C01E30E28484F82A30EA
:1095D00011F8013B83EA0C0383EA0313DBB21A0997
:1095E00082EA1C2242EA032282EAC3031BB21FFA68
:1095F00083FC8142A4F824C0EAD183F0180383EAF3
:109600000313DBB24FEA1C2B8BEA131B8BEA032BF1
:109610008BEAC30B0FFA8BFB1FFA8BF37C4AA384F4
:109620005FFA8BFB1B0A0592069384F84B3084F893
:109630004AB0924604F1260C04F14609DCF8000019
:10964000DCF80410DCF80820DCF80C30D646AEE874
:109650000F000CF1100CCC45F246EFD1DCF8000005
:10966000CEF80000DFF8B091069B84F8D4B109F180
:10967000260A84F8D531CB461BF8011F38680BF059
:109680001DF8DA45F8D10AF02FFBB368326807926B
:1096900003EB8303726806925E00824613F05EFF5E
:1096A00094F886B1079A1F928BF06A0181EA011142
:1096B000C9B20B0983F0D50343EA012383EAC1034E
:1096C0001BB283EA0311C9B2C3F3072383EA111360
:1096D00043EA012383EAC1031BB2CDE92166069A5E
:1096E000209283F0C80686EA0612D2B2C3F3072698
:1096F000CDF878A086EA12164FF0000AADF8920075
:10970000CDF88CA0ADF890A046EA0226C64686EABF
:10971000C206BEE80F00DDF810C084F828B036B2EB
:10972000ACE80F0086F0210383EA03139EE80700EC
:10973000DBB2C6F3072686EA131646EA032686EA54
:10974000C303344E84F829A004960BF1010B8CE876
:1097500007002120C82241F6FE4184F82B0084F83E
:109760002A20E184304684F886B106F11C02A384E5
:1097700010F8011B594081EA0111C9B20E0986EAAD
:10978000132343EA012383EAC10109B28BB2904259
:10979000A384EDD181F0680181EA0111C9B21B0AED
:1097A00083EA111B8BEA012B8BEAC10B0FFA8BFBAF
:1097B0001FFA8BF34FEA132A5FFA8BFBA384DFF8BF
:1097C00050E084F849A004F1460384F848B004F15D
:1097D00026060693F36830687168B268F446ACE810
:1097E0000F00069B10369E42E646F3D13388ACF854
:1097F0000030059B84F8D3A103F1230684F8D2B18D
:10980000CA460BE02835002030310020FCE400205F
:109810000819002084170020071900201AF8011FDA
:1098200038680AF04BFF5645F8D1A24A94F886E111
:10983000DFF884C284F828E0D2E900231F938EF079
:10984000EB0383EA0313D9B20B0983F0C50343EAA0
:10985000012383EAC1031BB283EA0311C9B2C3F334
:10986000072383EA111343EA012383EAC1031BB2EE
:1098700083F0C80686EA0616F6B24FF0000AC3F374
:109880000723CDF880A083EA16131E9298E80700FC
:1098900043EA062383EAC6030FFA83F8049B84F89D
:1098A00029A088F0310683E8070086EA0616F6B29A
:1098B000C8F3072383EA161343EA062383EAC603A1
:1098C00094F82C6094F82D0094F82E1094F82F2022
:1098D0001BB25E4086EA0616F6B2C3F3072383EA9C
:1098E000161343EA062383EAC6031BB2584080EAF4
:1098F0000010C0B2C3F3072383EA101343EA002326
:1099000083EAC00000B2414081EA0113DBB2C0F338
:10991000072181EA131141EA032181EAC30109B257
:109920004A4082EA0212D2B2C1F3072383EA121339
:1099300043EA022383EAC20394F8306094F83100CA
:1099400094F8321094F833201BB25E4086EA061673
:10995000F6B2C3F3072383EA161343EA062383EA26
:10996000C6031BB2584080EA0010C0B2C3F30723FD
:1099700083EA101343EA002383EAC0031BB2594071
:1099800081EA0111C9B2C3F3072383EA111343EA41
:10999000012383EAC1031BB25A4082EA0212D2B207
:1099A000C3F3072383EA121343EA022383EAC203C1
:1099B00094F8346094F8350094F8361094F8372011
:1099C0001BB25E4086EA0616F6B2C3F3072383EAAB
:1099D000161343EA062383EAC6031BB2584080EA03
:1099E0000010C0B2C3F3072383EA101343EA002335
:1099F00083EAC0031BB2594081EA0111C9B2C3F323
:109A0000072383EA111343EA012383EAC1031BB24C
:109A10005A4082EA0212D2B2C3F3072383EA121336
:109A200043EA022383EAC2031BB283F0270686EAD5
:109A30000612D2B2C3F3072686EA121646EA0226B7
:109A400086EAC20636B2B2B20EF10103F6B24FEAAE
:109A5000122E4FF0310840F6FE40C82184F88631BE
:109A6000A28484F82B80E08484F8386084F82A107B
:109A700084F839E0DCF80000DCF80C30DCF8041085
:109A8000DCF80820BCF810A00CF5C57CACE80F0091
:109A9000059BACF800A003F1130884F8C26184F8B8
:109AA000C3E119F8011F38680AF008FEC845F8D16B
:109AB000FEF791BD149900207E170020874A884B3D
:109AC0001278D3F800900A2384F87731002A00F046
:109AD000AF85844B012A1988089141F20483598883
:109AE0000691022A00F0048799880791032A01F061
:109AF000F482D9880591042A01F00D831989049113
:109B0000052A01F00483062AB3F80AB001F0748331
:109B1000072AB3F80C8000D0DE892FF0EDFD94F811
:109B200086A17149CDF878908AF0300383EA031357
:109B3000DBB21A0982F07A02C0EB002042EA03226B
:109B400082EAC30381FB00210FFA83FE0144089AD5
:109B500084F828A0C317C3EB61234FF0000962F318
:109B60000F09FF2B079AA8BFFF23002062F30F0005
:109B7000049A0493069B002163F31F4962F30F01CB
:109B8000059B002268F30F0263F31F4066F31F4238
:109B90008EEA0E1C6BF31F415FFA8CFCCDE91F901F
:109BA000CEF30728CDE9211288EA1C16049B8DF814
:109BB0008D304FF0000E8DF88CE046EA0C260DF14A
:109BC0007808B8E80F0086EACC0636B286F0C809F5
:109BD000DFF818C184F829E089EA09195FFA89F9E0
:109BE000C6F30726ACE80F0086EA191343EA0923F7
:109BF00098E8030083EAC9031BB283F023024CF800
:109C0000040B82EA0210C0B2C3F3072282EA1012E8
:109C100042EA00222CF8141982EAC0000AF1010A73
:109C2000232641F2FE62C82384F886A1A0840CF1A9
:109C3000160184F82B60E28484F82A301CF8013B7A
:109C4000434083EA0313DBB21A0982EA102242EA94
:109C5000032282EAC3031BB298B28C45A084EDD1E3
:109C600083F0F40383EA0313DBB2060A86EA1316D1
:109C700086EA032686EAC306A04636B21FFA86F9AC
:109C800058F8260FDFF868C0A4F824904FEA192E80
:109C9000F6B284F8426084F843E0D8F80410D8F8AB
:109CA0000820D8F80C30ACE80F00D8F81000D8F82D
:109CB0001410D8F8182004F2CD19ACE8070004F20B
:109CC000AF1884F8CDE184F8CC6118F8011F38682A
:109CD0000AF0F4FCC145F8D1FEF775BCD09D002018
:109CE00044B9002098E50020030820808417002054
:109CF00008190020994B1B6803F00802002A4AF655
:109D00000B4048F6034149F607484BF60F4204BFA3
:109D10008846024613F0040F18BF90469806904BF1
:109D20001B7848BF48F480484FF0190148BF48F0FD
:109D30002008022B84F8761140F21A8564204FF037
:109D4000FF3B4FF0000A94F886C1CDF878808CF084
:109D5000F10383EA0313DBB21E0986F0E706C8F3BA
:109D6000090246EA0326CDE91F8286EAC3064FF0C0
:109D7000000936B2ADF886A0ADF888B08DF896002F
:109D8000ADF88490CDF88A90CDF88E90CDF8929071
:109D900086EA061E0DF17808B8E80F005FFA8EFE1D
:109DA000C6F3072686EA1E1646EA0E2686EACE0681
:109DB000DFF8B8E184F82990AEE80F0098E80F00CA
:109DC00036B286F0C80888EA08185FFA88F8C6F341
:109DD0000726AEE8070086EA181646EA082181EA57
:109DE000C80109B22EF8023B81F0010686EA061688
:109DF000F6B2C1F30722714682EA16121B0C01F873
:109E00001E3942EA06224FF0010E82EAC60641F6EA
:109E1000FE70C8220CEB0E03E08484F82BE084F87B
:109E20002A2001F11F0084F828C0A68484F8863116
:109E300011F8013B734083EA0313DBB21A0982EA8B
:109E4000162242EA032282EAC3031BB29EB2814277
:109E5000A684EDD183F07C0383EA0313DBB2360AD8
:109E600086EA131686EA032686EAC30636B2B3B23A
:109E70004FEA132AF6B2DFF8F890A38484F84CA0D6
:109E800084F84B6004F1260C04F14608DCF800006D
:109E9000DCF80410DCF80820DCF80C30CE46AEE824
:109EA0000F000CF1100CC445F146EFD1DCF80000B6
:109EB000CEF80000DFF8BC809CF804308EF8043047
:109EC00008F1270984F8D56184F8D6A118F8011F94
:109ED00038680AF0F3FBC145F8D1FEF76CBBFF20F0
:109EE00012F0D4FF002800F0F9840378FF2B00F073
:109EF000F88490F90110022014F0A0F8FF2012F06D
:109F0000C5FF002800F092830378FF2B00F08E83BA
:109F1000B0F90C301349144A097E03EB830303EBB9
:109F2000830349089B0093FBF1F382FB0312D917CB
:109F3000C1EBA20109B2DFF84080032014F07EF8E3
:109F400098F80930002B40F095843B68980600F1A2
:109F50001E8494F83861FEF78ABC00BF28350020C3
:109F60003E8B002070D10020676666668417002053
:109F7000081900200719002064300020864B1B6858
:109F800005229B0684F87F2140F15C83834BDFED43
:109F9000847A9A89D3ED028A08EE102AF8EEE88ACC
:109FA000B8EEC88A68EEA78A28EE278A13F0D6FA98
:109FB00094F886A17B4BADF88800B3F906607A4A25
:109FC0008DED1F8A8AF0220383EA0313D9B20B09AD
:109FD000B6F5FA6F83F05903A8BF4FF4FA6643EA67
:109FE000012383EAC103B6F57A7F1BB2B8BF4FF4F1
:109FF0007A76A6F57A7C83EA03116420C9B2C3F3AA
:10A00000072600FB0CF386EA1116A2FB03234FF090
:10A01000000E46EA0126C3F38F130DF17808CDF840
:10A0200078E0CDF884E0CDED208A86EAC106ADF86F
:10A030008A30C346BBE80F0036B286F0C80C8CEA03
:10A040000C1C5FFA8CFCC6F30726DFF874E1DBF822
:10A0500000B084F828A086EA1C16AEE80F0046EA95
:10A060000C2686EACC0212B282F04A0383EA03137A
:10A070007146DBB2C2F3072282EA131241F810B92B
:10A0800042EA032282EAC3030AF1010A4FF04A0EB0
:10A0900041F2FE4C0026C82004910A4684F886A1AD
:10A0A000A384143184F82BE0A4F826C084F8296036
:10A0B00084F82A0012F8010B584080EA0010C0B260
:10A0C000060986EA132343EA002383EAC00000B2AC
:10A0D00083B28A42A384EDD180F0140080EA00109C
:10A0E000C0B21E0A86EA101686EA002686EAC00674
:10A0F000A24636B21FFA86FC5AF8260F2B4B059360
:10A10000F6B24FEA1C2E84F8406084F841E0DAF899
:10A110000410DAF80820DAF80C30A4F824C0DFF8CC
:10A120008CC0BAF818B0ACE80F00DAF81000DAF812
:10A130001410ACE8030004F2AF1AACF800B084F8D5
:10A14000CA61D34684F8CBE104F2CB161BF8011F99
:10A1500038680AF0B3FA5E45F8D1154B154A1B78FA
:10A160001278013B12F00101DBB214BFC022402281
:10A17000172B03D81048034493F814910F4B1B88F6
:10A180009E071ABF42F0100200230123002940F06D
:10A190009A83032016E000BF28350020FCE400204D
:10A1A0000AD7233C98E50020D34D621008190020FF
:10A1B00034860020CE270020106405088C30002053
:10A1C0008417002094F886B11E938BF0460383EA2F
:10A1D0000313D9B20B0983F0920343EA012383EA04
:10A1E000C1031BB283EA0311C9B2C3F3072686EA8F
:10A1F000111646EA012686EAC10636B286F0C80C78
:10A200008CEA0C1C5FFA8CFC00230321C6F30726A2
:10A210008DF87C908DF87D308DF87E208DF87F0054
:10A220008DF8801086EA1C1698E8070046EA0C268E
:10A2300086EACC0636B2DDF810E084F82B3086EAE8
:10A24000061CAEE803005FFA8CFCC6F3072181EA26
:10A250001C1141EA0C2181EACC0194F82CC08EF843
:10A26000002009B28CEA010C8CEA0C1C5FFA8CFC11
:10A27000C1F3072282EA1C1242EA0C2294F82D60F4
:10A2800094F82E0094F82FE084F8293082EACC026A
:10A2900012B2564086EA0616F6B2C2F3072181EAE8
:10A2A000161141EA062181EAC60109B2484080EA56
:10A2B0000010C0B2C1F3072282EA101242EA002263
:10A2C00082EAC00212B28EEA020E8EEA0E1E5FFA17
:10A2D0008EFEC2F3072282EA1E1242EA0E2294F890
:10A2E00030C094F8316094F8320094F8331084F858
:10A2F00028B082EACE0212B28CEA020C8CEA0C1C64
:10A300005FFA8CFCC2F3072282EA1C1242EA0C229A
:10A3100082EACC0212B2564086EA0616F6B2C2F3C0
:10A32000072282EA161242EA062282EAC60212B224
:10A33000504080EA0010C0B2C2F3072282EA101235
:10A3400042EA002282EAC00212B2514081EA0111BF
:10A35000C9B2C2F3072282EA111242EA012282EA5A
:10A36000C10294F834E0CF4E13B28EEA030282EABF
:10A370000212D2B2C3F3072383EA121343EA022381
:10A3800083EAC2031BB283F0320282EA0212D2B223
:10A39000C3F3072383EA121343EA022383EAC203C7
:10A3A0001BB29AB240F6FE10C8214FEA122C84F874
:10A3B0002A10DBB2E0840BF1010B306884F836C060
:10A3C00084F8353084F886B1A284B2687168B6F832
:10A3D0000C9006F5C57607C6059A86F802E0A6F841
:10A3E000009002F1100884F8C0C184F8BF311AF857
:10A3F000011F38680AF062F9C245F8D1FEF7FDB8CE
:10A40000702013F0B9FE00283EF427AADFF8C882B6
:10A410002426A8F12C09B8EC017AD9ED007A67EE70
:10A42000277A3046FDEEE77A013617EE903AC3EB15
:10A43000431103EB8103D90009B2F6B213F0FEFD1C
:10A44000272EE8D194F83861D7F80080FEF705BAD6
:10A4500002210AF01FF9FEF76DBB029BC4F84831D8
:10A460003E70FEF750BB084684F85E810AF022F980
:10A4700000287EF4ABA9FEF7CDB9B17830463DF0A7
:10A4800041FA00287EF407AC874B18680AF012F9ED
:10A4900000287EF471A8854F854CF378069397F8D1
:10A4A0000EB094F86831049304237B73BBF1000F62
:10A4B00000F02684FE7BDFF824A2DFF824B2013608
:10A4C000F6B206EB46090AEB8909F3B2152B3146C1
:10A4D0005846FB7306F1010600F2E38517F08CFD88
:10A4E00028B999F80830FF2B09F10C09EDD197F83C
:10A4F0000F900C2303FB09F30AEB03065AF8031031
:10A500000391084649F078FCD6F804B0C3B2584627
:10A510001E4649F071FC33465FFA80FA53446548A1
:10A5200005960833C371059B0399064629F00F026F
:10A530000AEBC30309F00F09827280F80D90B37320
:10A54000059A03960F304AF0EBFB059B039E0933F7
:10A55000184606F106095246594648444AF0E0FBBF
:10A56000F37903F1010EBBB1013B06F1070C524E2A
:10A570005CFA83FC4846002310F8012F5A409300F0
:10A58000D10883EA420301F01801534046FA01F270
:10A5900053408445DBB2EFD10EF80930069848F0FD
:10A5A0002DFEBB7B013BDEB2BE73002E00F0968415
:10A5B000DDF81090039B3F499A783B4B18680AF0EE
:10A5C00049F8032384F868917B7388F80030FDF71D
:10A5D000D8BF102202238A700B71FEF793B9374A55
:10A5E000374B1768374EA3FB07239B0BA6FB0321B2
:10A5F0004909C1EB0111A3EB8103190209B2002340
:10A60000172084F8383113F019FD2F4BA3FB0723D3
:10A610009B09A6FB03125209C2EB0212A3EB8203B1
:10A6200019B2182013F00AFDFEF724B9002182E4C4
:10A6300090469346CDE90422CDE9062208921646BB
:10A64000FFF76BBA9FED218AF0EE488AAEE44FF433
:10A65000806013F091FD00283EF405A91C4A1D4BB3
:10A66000D2F80080D4F834214FF064099A4298BFA0
:10A670004FF00008102098FBF9F631B213F0DEFC21
:10A6800009FB168109B2212013F0D8FC94F8386137
:10A69000FEF7E9B84FF0010AFDF7FBBE4FF0100AD4
:10A6A000FEF78DBD7E17002098A7002088010020AE
:10A6B00058170020D4E400200007090E44B90020F8
:10A6C00073B2E74589888888D34D62100000000086
:10A6D0001C3500203F4B4C00D400001010640508CE
:10A6E000403500204FF0010AD8F8000087F800A09C
:10A6F00009F0D8FF8346D8F8000009F0D3FF1BF01B
:10A700007F0F064600F0FB80802800F08582BBF1B9
:10A710007F0F7EF4F8A9DFF844B39BF80030002BDC
:10A7200000F01A8506F0F003E02B7EF4ECA994F813
:10A730005121C14F06F00F06002A00F0F1840022DB
:10A740007B7084F85121DFF834A39AF80030002B95
:10A7500000F02385073E072E00F21B85DFE816F088
:10A760004005190511051905B9041905B504A70413
:10A77000B24A537A927A002B40F02082002A40F0AD
:10A78000E681924664204FF0FF3BFFF7DCBA4FF4BE
:10A79000005013F0F1FC002840F0BB81A84E4FF4AC
:10A7A000806013F0E9FC002840F01E82318A94F8A2
:10A7B0003821B37CB1F5967F08D902F00F02072A41
:10A7C00004D842F20F738B4228BF0B469D4FFA7993
:10A7D000CAB1203B07EE903A9FED9B7AF8EEE77AFC
:10A7E000F6EE006A67EE877ABEEE007AF5EEC07A82
:10A7F000F1EE10FA58BFB0EE667A77EE877AFDEE8A
:10A80000E77A17EE903A052019B213F017FC4FF4CF
:10A81000805013F0B1FC00283FF49BAB8B4B1A78AF
:10A820000023CDE91C33930700F12A8294F83C31D0
:10A83000012B00F02582B7F90030DFED856A07EEC5
:10A84000103AB7F9023007EE903AB8EEC77AF8EE50
:10A85000E77A27EE267A67EEA67ABDEEC77AFDEE96
:10A86000E77A1EA88DED1E7ACDED1F7A13F0FEFB60
:10A87000FFF76FBB012013F07FFC002840F002813E
:10A8800098F80A30002B3FF460AB022013F074FC00
:10A89000002840F0EC83042013F06EFC00283FF405
:10A8A00054ABB8F80C30002B40F02783694B996803
:10A8B00081F3100109B2042013F0C0FBFFF745BB80
:10A8C0000021FEF7E3BB6449C97800290CBF0420CE
:10A8D000052077E44FF00108FEF7FBBD0146FFF7C6
:10A8E0000ABB4146FFF707BB4FF0080AFEF767BCFB
:10A8F000B046B346CDE904660796FFF70EB9574B4D
:10A900001A78002A40F08D818A2E00F074818E2EF4
:10A910007EF4F9A899F80030002B7DF429AD504A57
:10A92000504B13602D2384F850311168FEF7F0B8B6
:10A930004D4B444A4D49D27A1F9340F6C82023F824
:10A94000400C082003F83E0C3D3B1E930B88002A68
:10A9500040F083810DF1780805330A21404693FBCE
:10A96000F1F189B218F030FDDFF8E8900A22D9F849
:10A97000003093FBF2F3404699B218F025FD1FF02A
:10A9800097FCD9F808901E9B4FEA1942591C1E915A
:10A990001A701E9B4FEA1922591C1E911A701E9B99
:10A9A0005A1C1E9283F800901E9B5A1C1E9218700F
:10A9B000404613F0A7FBFEF71CBA2B4BDFF8C0A0F4
:10A9C0001F93C82223F8402C9AF80020A3F14009D5
:10A9D0003D3B1E93D2074FF0210389F8023040F12E
:10A9E0005D81234B1B885D0500F15681180500F140
:10A9F0003C83D90500F13783DA0700F150839D07C6
:10AA000040F145831B490DF17808404618F0AAFC37
:10AA10009AF80030D80740F134831E9B164A591C1F
:10AA20001E91002119701E9B9B1A404689F8013027
:10AA300013F068FBFEF7E0B97C360020643000209C
:10AA4000FCE400209C270020E4380E3F3031002039
:10AA50000050C34780300020D0270020EB9B00200F
:10AA60005035002024360020983500204C3000203E
:10AA70008C300020B4E0050859350020CC9D002022
:10AA8000CE270020DFF868928D4E99F80020002A2A
:10AA900040F0D9821346110189B241EA0321C3F380
:10AAA0000323194309B20620A4F83A2113F0C6FA89
:10AAB0008448B4F83A113388067A99F800200131B5
:10AAC000012E03F105034FF00A0CA4F83A1193FB91
:10AAD000FCF399B200F0AC82C37A01EB81018EB233
:10AAE00013B10AB196FBF2F64FF0640A3A20B6FBB6
:10AAF000FAF90FFA89F113F0A1FA0AFB196189B288
:10AB00000A2305313B2091FBF3F109B213F096FAC9
:10AB1000B6E66D4B1B78990700F1C4814FF4806055
:10AB200013F02AFB694E00283FF440AE4FF00008B6
:10AB30004FF06409012098FBF9F739B213F07EFA5F
:10AB400009FB178109B2092013F078FA2EE6604A52
:10AB50009A46B2F900B06420FFF7F5B801255D4BC5
:10AB600094F82A211F9328AFA3F13901A3F14006DD
:10AB700047F8281DC821101D03F8401C4FF4E4734A
:10AB80004EF67D2170707180384602FB0541B3801E
:10AB9000B57118F0F7FB1E9B721C9B1A7370384638
:10ABA00013F0B0FA63194C4A002183F82011029B7C
:10ABB000C2F8B832FDF729BD1D46D0E7404B1B88CF
:10ABC00003EB83034FEA430A1FFA8AFA002A40F094
:10ABD00092824FF0FF3B1FF06BFB40B2FFF7B3B820
:10ABE0000325BCE70225BAE7374B1B789A079DD5AA
:10ABF000D6F808809CE7394B1B6899067DF583AF32
:10AC000099F80030002B7DF4B3AB354A354B136017
:10AC10002D2384F8503188E6334B1A78002A3DF40E
:10AC200072AFD4F84C21002A08DD30480A2AB8BF98
:10AC30000A220021C0F8D023C4F84C114FF47A62E4
:10AC400040F6B8317A600022B9601A705CE60525DA
:10AC500085E7042583E7082581E7254A0DF1780873
:10AC6000117893FBF1F140460A23053191FBF3F192
:10AC700089B218F0A9FB77E6072570E706256EE78D
:10AC8000D6E9002301211CA884F83C11CDE91C233E
:10AC900013F0ECF9FFF75DB91649B4E6164B1B68E3
:10ACA000002B40F028812B681B067FF59AAE064BDF
:10ACB0001B7803F00303032B3FF493AE0F49A2E686
:10ACC0004C3000209C27002030310020FCE4002084
:10ACD00080300020983500205817002028350020AB
:10ACE0005035002050360020EB9B0020D010002073
:10ACF0005230002098E005082435002090E0050837
:10AD0000B84BB94E1A8BB94993ED0D7A039106EE03
:10AD1000102AB74AD3ED0C7A116892681B92B8EEEC
:10AD2000C66AB26893ED0B5A1592C7EE066AF289AD
:10AD3000B04BDFF8ECC21492B2891B8805911192D6
:10AD4000AD49B27C07930C92AC4BBCF90020139236
:10AD500087EE867A0A881292B3F90420DFF8C4A23B
:10AD60000B92B3F90220D6F804E00A92B3F900205E
:10AD70000992DAF80020D6F800901A92C5EE067A09
:10AD80004FEA6E429E48DFF8A0A28EEAEE7102F40E
:10AD90008042A1EBEE7142F400524FEA6946B1FBEA
:10ADA000F0FC89EAE97300FB1C1142EA0C02DFEDBA
:10ADB000955A0891A3EBE97306F4804E92B2049E73
:10ADC000B3FBF0F10E9200FB1133089A4EEA010139
:10ADD00006F0F00988B2062666EEA56A4FF47A718D
:10ADE00006FB02F206FB03F31090079E0598B3FBE7
:10ADF000F1F39BB209F1100EB2FBF1F20F93FDEEED
:10AE0000E66A93B206FB00F00D930A2290FBF1F381
:10AE100027EE257A0893731D93FBF2F319935FFADB
:10AE20008EF3079316EE903ABDEEC77A1BB267EE2B
:10AE3000A57A189317EE103AFDEEE77A1BB2724E20
:10AE4000179317EE903A06F8039CDDF810901BB2AA
:10AE500016934846079B834240F288800C2303FBED
:10AE600000A2431E92F808C04CEA00123270711C16
:10AE7000142B00F2C481DFE813F0C701C501CF0134
:10AE8000CD01CB01C901ED01EB01C201E901E001F6
:10AE9000D701D501D301D101C201480146014401C6
:10AEA00042014400504E594BB1894FF4F36707FB00
:10AEB00001F1112091FBF3F109B213F0BFF8B3894E
:10AEC000642107FB03F393FBF1F393FBF1F201FB26
:10AED000123109B2192013F0B1F860E42B684C4A22
:10AEE0001B0692F800907FF565AB304613F044F8EE
:10AEF0003E74FFF75FBB474985E51FF0D9F901B202
:10AF0000D9E4189B0AEB0C0292F80821012A0DD90A
:10AF1000023AD2B202F1020EB6440E4606F8013BE6
:10AF200076454FEA1323F9D101321144BCF1090FE0
:10AF3000DBB201F1010606D00C2202FB00A223F0D5
:10AF40006003527A13430B7012F0FCFF2E4BF21A7F
:10AF5000049B83420AD20C2303FB00A31B7A5344B5
:10AF600093F808311344102B7FF774AF264B0399E5
:10AF7000DFF8B8E0F21A0632D2B242F04003CB71E9
:10AF8000814602F1010C244E00215B460FE09AF845
:10AF90000700584083004FEAD00A83EA40030AF0D2
:10AFA000180A434046FA0AF043400131DBB20398E5
:10AFB00000EB010AC8B28242E9D80CF80E300698BC
:10AFC00048F01CF93B7C002B7FF4F4AA134B1B6860
:10AFD0009E067FF5EFAA12F0A9FF01233B74FFF74D
:10AFE000E9BA00BFA8000010FCE40020D4E400206F
:10AFF000803000204C300020383500209030002078
:10B000008096980000007A44E1E40020A0860100C8
:10B010004435002088E005080007090E2835002087
:10B02000208900201C35002010640508DAE4002087
:10B03000C07A18B112B193FBF2F399B209B2392078
:10B0400012F0FCFF1CE4B4F83A11338891FBF2F0E3
:10B050004FF0640C02FB10100CFB0323510082B272
:10B06000B3FBF1F317E57C49CDE47C49CBE47C4AA2
:10B070000A23116891FBF3F1282009B212F0DEFFD8
:10B0800009E41E9B2A22591C1E911A70C5E4754BB7
:10B0900075491A78754B002A08BF1946B3E47449FC
:10B0A000B1E4162B04BF0023FB73FFF720BA042082
:10B0B00049F0EEFD99F80030002B7DF459A96D4A56
:10B0C000AD23176084F850312FE4022049F0E0FDF1
:10B0D000F0E7012049F0DCFDECE7B046B346CDE9EE
:10B0E0000466FEF71ABDB046B346CDE90466CDE965
:10B0F0000666FEF712BD5A4BB3F900B06BE5179B1D
:10B1000000E7169BFEE6159BFCE6149BFAE6B046AC
:10B11000B346FEF702BDB046B3460496FEF7FDBC4B
:10B120007B78012B7FF40FAB073E84F85131072E5B
:10B130002FD801A353F826F0D5B1000893B1000829
:10B140007FB1000893B10008D3B0000893B10008A4
:10B15000CBB00008AFB000081EA849F0A3FD4648D8
:10B16000219A8BF800A04FF47A7341F28831C0F82D
:10B17000D033BB60C4F84C217960FFF7D3BADFF855
:10B1800004A19AF8003023B13C4B012118682FF03C
:10B190001FF8002049F07CFD8CE73948073E29F074
:10B1A00098F928F00FFC97F801B0072EF1D801A309
:10B1B00053F826F0E9B1000893B1000883B1000804
:10B1C00093B10008D3B0000893B10008CBB00008D9
:10B1D000AFB00008032049F05BFD28F0F3FB69E7FE
:10B1E000032049F055FD65E7032049F051FDBBF10F
:10B1F000010F7FF45FAFF0E7B046FEF78EBC4FF073
:10B20000FF337FE6059B7DE6199B7BE6099B79E68C
:10B21000089B77E61B9B75E61A9B73E6139B71E60A
:10B22000129B6FE6119B6DE60F9BA4F86C31109B8F
:10B23000A4F86E31D4F86C3164E60D9BA4F86C313F
:10B240000E9BA4F86E31D4F86C315BE60C9B59E68A
:10B250000B9B57E60A9B55E6A4E00508A0E005080D
:10B260008030002025980020C0E00508B8E00508DF
:10B27000ACE0050850350020D01000208883002065
:10B2800014360020CC9D002070B5264B26481A7835
:10B29000DD7B5B782549264C02EB8212002D00EB0A
:10B2A0004202244D24482A6003EB031314BF2826CE
:10B2B000202601EB4303036026601BF067FE30226B
:10B2C00000211E481E4C4BF04FF8286840F074FADD
:10B2D00043F020FC1B4A1C4B11891579642202FBA8
:10B2E00001F1C820014412FB05000022174D83F82C
:10B2F0002420C3E90101C3E90322C3E90522C3E90C
:10B30000072283F82520C4F8DC522EF063F894F865
:10B31000E212B4F8E00241F04BFBBDE8704034F0BB
:10B3200047BA00BF0C980020AC7C00202C9C002069
:10B33000000000103035002034350020C877002090
:10B3400058170020C87E0020D02700207C980020BD
:10B35000038A2DE9F047B0F80C9019EA030928D0C8
:10B360000E4605464FF000474FF00008B9FA89F342
:10B3700027FA03F2D24391B21B3B09EA0209298260
:10B38000042B13D8DFE803F0322920170300736A77
:10B39000002B34D1EB6A1FFA83FA346A34B1236884
:10B3A0002046514698476468002CF8D1B9F1000F47
:10B3B000DCD1BDE8F0873068696B036889B29847D3
:10B3C000B9F1000FD2D1F4E77068A96B036889B2B4
:10B3D0009847B9F1000FC9D1EBE7B068E96B036892
:10B3E00089B29847B9F1000FC0D1E2E7F068296C43
:10B3F000036889B29847B9F1000FB7D1D9E703F1D3
:10B40000FF3A1FFA8AFAC6F82480C6E708B5012178
:10B41000002009F0BDFB01210846254C09F0B8FBCE
:10B420000121022009F0B4FB237803F00502052A6C
:10B430001CD003F00903092B1CD00021084609F099
:10B44000A7FB0021012009F0A3FB0021022009F045
:10B450009FFB322008F008FD002008F0F5FC0120D9
:10B4600008F0F2FC022008F0EFFCF2E740F07CFE6E
:10B470002378DEE70F4A104B11681A680B680F4CEF
:10B4800023F001030B601388206823F001031B04E1
:10B490001B0C138018B12A2200238271C371084B40
:10B4A0004A211A7809F0E6F9206809F033FBC4E76D
:10B4B000B8780020B0790020A8790020B479002065
:10B4C000AC790020022810B504460DD8094B0A4972
:10B4D0000A4A00EB801003EB400318460B6014701F
:10B4E00040F06AF941F010F9601CC0B2BDE81040AC
:10B4F00038F0FEB8AC7C0020303500200C980020DD
:10B500002DE9F04F9C4B9D4D1B7895F80090DB0783
:10B5100085B0804641D59A4C9A4EB9F1010F6AD058
:10B52000C0F08D80B9F1020F2BD0E37B83B1A389EA
:10B5300073B1954B1B785BB11EF0BAFE002800F08A
:10B540001881237C83422CBF01220022327000E04C
:10B550003278217A632908D88C48B9F1020F037830
:10B5600000F08980002B40F098808949A37B9145A9
:10B5700038BF914681F80090002B53D105B0BDE84B
:10B58000F08F844A844B12881B889A42CDD9834A13
:10B59000834B1268C3F8E42268E07E4F784C3A8807
:10B5A000A9F10303012B40F2A9807B88D31A002B59
:10B5B000B8BF5B42142B07DCE388934200F28B8018
:10B5C00021889142C0F087806E4E764B1B78022B0B
:10B5D000A3D17A883B886C499B1A002BB8BF5B4289
:10B5E000142B714A09789180CCBF00230123B9F153
:10B5F000010FD38094D1684B664A1B88617C128806
:10B600005B1A9A4253DD694B1B88934238BF4FF057
:10B610000009624A38BF85F80090614B1268C3F890
:10B62000E42282E7B9F1010F00F09D80B9F1020F29
:10B63000A4D1072005B0BDE8F04F37F029BF5B4B20
:10B64000544A1B88617C12885B1A9A42534AE4DC94
:10B650005349E37D1268D1F8E41203EB8303521AD5
:10B6600003EB8303B2EB830FFFF65FAF4FF00109EB
:10B6700085F8009059E783B90125C0F8048005706A
:10B68000C1F164014A4D03FB01F385FB0351DB1754
:10B69000A3EBA1536433437067E74368454DA8EBC0
:10B6A0000303AB42C8BF41703FF75FAFE8E73B4AD7
:10B6B0003B49237E1268D1F8E41203EB8303521A4C
:10B6C00003EB8303B2EB830FFFF62FAF4FF00209BA
:10B6D00085F8009029E7B2EB430F2A4E3FF775AF8C
:10B6E000294832492C4A00234FF0030986F800907C
:10B6F00085F8009003700B80138066E7E38893421F
:10B7000029D82188914226D37B88D31A002BB8BF31
:10B710005B42142B3FF758AF1A4E237D4FF0000EBB
:10B7200086F800E085F800E0002B45D0164AF14687
:10B730001370A1881D4AB4F802C017489BB211FBD0
:10B7400003F111801CFB03F3104A038064210023E2
:10B750005170536039E7B2EB430FD5DCB9F1030FF9
:10B760003FF432AF21E7082005B0BDE8F04F37F0D5
:10B770008FBE02223270ECE6CE2700205C700020E3
:10B78000643000208470002052300020647000205B
:10B790003E8B00204C3000206070002044B9002017
:10B7A00058170020F0260020F42600205E700020AC
:10B7B0006BCA5F6B7F969800304B21881B68B2FB89
:10B7C000F1F10131082993F97220DFF8BC90A8BF8C
:10B7D0000821CBB28A4289F800304AD0002A48D0EA
:10B7E000274ADFF8A8C092F800B00BF10102ACFBC9
:10B7F00002A0400800EB4000101A5845029038D0D3
:10B80000204A00EB801E02EB4E0E9EF972E08E4540
:10B8100027D0CDF804C04FF0FF3A0393024603E06F
:10B820009CF972E08E4527D002F1010C019AA2FB2F
:10B830000C32520802EB4202ACEB0202114B02EB5B
:10B84000821CBAF1000F03EB4C0C03DABEF1000FBF
:10B8500008BF82465A451046E2D1039B5046002855
:10B8600007DBC0B2FFF72EFE99F8003095F8009084
:10B870005FE74FF000095CE7039BF0E730350020FD
:10B880000C980020AC7C002052300020ABAAAAAA61
:10B890005A4B1B68B3F5FA7F10B500F29D80584BE8
:10B8A0005A899989914224BF00225A81198ADA89DA
:10B8B000914228BF0022998B28BFDA81DA8B91420E
:10B8C000997884BF00229A83012902D14D4A597088
:10B8D00011704D484D4A04784D48012C08BF02466E
:10B8E00092F858200A2A6AD0DFED4A7A9FED4A7A08
:10B8F0000C2A18BFF0EE477A012964D0474CA27891
:10B90000062A97BF4649DFED476A01EB8201D1ED78
:10B91000526A217900292CD0013A032A61D9424B7D
:10B920009A78022A04BF00229A70404B5A78052A5E
:10B930000FD83F493F4802EB021201EB420219784F
:10B94000026002290DD900221A703B4B3B49196055
:10B9500010BD0021597019783648354A0260022915
:10B96000F1D8364B01EB811103EB4101324B1960E9
:10B9700010BD5B78234907EE103A0A78B8EEC77A13
:10B9800067EE277A07EE102AB8EEC77A27EE277AF5
:10B99000F4EEC76AF1EE10FAC1DD86EEA77AFDEE8D
:10B9A000C77A17EE903A102BA8BF1023012BB8BF0F
:10B9B0000123DBB29A4238BF1A460A70AFE7012969
:10B9C000DFED1F7A9AD1DFED1F7A9FED1F7A0A2AE9
:10B9D00018BFF0EE477A91E74FF0005016F090F95B
:10B9E0005DE7B7EE000A80EE260A49F077FA238871
:10B9F000984228BF1846208091E700BF701A0010B7
:10BA0000347E00209484002040190010B0120010F1
:10BA1000200C00100AD7A3396F12033970D100200F
:10BA2000106405086F120338349D00200C98002024
:10BA30002C9C00203435002030350020AC7C0020C8
:10BA40005304E9380F506E3A6F12833A074B1B7854
:10BA500053B9074B00F1200250F8041B43F8041BB4
:10BA60009042F9D101207047002070474DA5002079
:10BA70001CA5002038B5164C94F82233002B154B2A
:10BA800014BF012200221A700BD0042204F5427167
:10BA900011484AF0A7FC142204F20D310F484AF075
:10BAA000A1FC94F82333002B0D4B14BF012200227C
:10BAB0001A700CD00B4C0C4A04F12005234603CB22
:10BAC000AB42106051601C4602F10802F6D138BD4D
:10BAD000581700204CA5002014A50020FCA400202D
:10BAE0004DA50020401A00201CA5002038B50C4BA5
:10BAF0001B789BB90B4B0C4C03F120051868596857
:10BB0000224603C20833AB421446F7D1074B012447
:10BB100083F82343FFF7AEFF204638BD0020FCE743
:10BB20004DA500201CA50020401A00205817002019
:10BB300038B50C4B1B789BB90B4D0C49042205F50D
:10BB400042704AF04FFC01241422094905F20D30DD
:10BB50004AF048FC85F82243FFF78CFF204638BDA9
:10BB60000020FCE74CA500205817002014A5002059
:10BB7000FCA400200C2911D8DFE801F023101010DC
:10BB800019101010111010100700838B23F400639C
:10BB90001B041B0C43EA022292B282837047838B00
:10BBA00023F008031B041B0C1A4382837047038B8A
:10BBB00023F400631B041B0C43EA022292B20283AB
:10BBC0007047038B23F008031B041B0C1A430283EA
:10BBD000704700BFF0B50C2934D8DFE801F08A3394
:10BBE00033335F333333343333330700048C968974
:10BBF000B2F802C01788744D24F480542404240C35
:10BC00000484038C8488818B23F4005321F4E6415F
:10BC10001B0409041B0C46EA0C06090C43EA063314
:10BC200041EA0721A8429BB2A4B289B200F09E80EB
