:020000040800F2
:10000000F0FF0010058D050805E30408292A030800
:10001000A58D0508A58D0508A58D05080000000023
:1000200000000000000000000000000011E30408D0
:100030000DE304080000000009E30408612203083E
:10004000A58D0508A58D0508A58D0508A58D0508B4
:10005000A58D0508A58D0508C9300308F5310308ED
:10006000B93103087D31030841310308C91501087E
:10007000B9150108A9150108991501088515010888
:10008000711501085D150108A58D0508A58D0508E8
:10009000A58D0508A58D0508A58D05080531030862
:1000A0004D0C0308E91103087D0B0308B91203087E
:1000B00029110308691003089D0F0308C1300108C6
:1000C000C9300108B1300108B9300108A58D050813
:1000D000A58D0508D92303083D230308A58D050830
:1000E0008D300308A58D0508292C0508AD0A0308E5
:1000F0001D0D0308DD090308FD0D0308491501085E
:10010000A58D0508A58D0508CD0E0308A58D05084C
:10011000A1220308A58D0508353102082131020806
:1001200035150108211501080D150108F9140108FC
:10013000E5140108A58D0508A58D0508A58D050800
:10014000A58D0508A58D0508A58D0508951B050835
:10015000D1140108BD140108A9140108A58D0508D2
:10016000A1300108A9300108A58D0508A58D050855
:10017000A58D0508A58D0508A58D0508A58D050883
:08018000A58D0508A58D0508F9
:08018800AC8805000100000035
:1001900002020300101E00200C1E002000000000C0
:1001A0000000000010020100181E0020141E002094
:1001B000000000006C0700081F0210002C1E002029
:1001C0001C1E0020000000000D8700080300010035
:1001D000504300205C4500200000000000000000AB
:1001E00025102C0174430020604500200000000011
:1001F000000000001A000E00CC4100208C460020B8
:10020000000000006E07000820320A00C0410020F4
:100210009C46002000000000C93101081500700054
:10022000D0400020A8460020000000000000000090
:100230002A0060009C4200201847002000000000B7
:10024000A131010807020200E050002064510020A3
:10025000000000007C07000803123D00045100204C
:1002600068510020000000007E07000802000C001A
:10027000F44F0020A8510020000000000000000002
:1002800006020C00B8500020B4510020000000000D
:1002900055980008F70106000C500020C0510020BE
:1002A00000000000BC0700081D02020008500020EA
:1002B000C851002000000000C20700080A020A001E
:1002C000744F0020CC51002000000000511402089F
:1002D000381001005C52002068540020000000002B
:1002E000C40700081A023C007C5400206856002015
:1002F00000000000C597000827000400705400208B
:10030000A456002000000000C607000801200C00D1
:10031000BC6800209C70002000000000CA07000894
:100320000A7028005C670020A87000200000000010
:10033000A9D003080EB08601D4650020D07000203B
:1003400000000000E93101080101040034650020CB
:1003500058720020000000000000000000010400AE
:100360002C6500205C72002000000000D607000809
:1003700002010300286500206072002000000000D8
:100380007D0E0208220214013C6D002064720020E0
:10039000000000005D9900080C20CC00A46700203C
:1003A0007873002000000000410E020800020500E2
:1003B000086C0020447400200000000000000000D1
:1003C0001B021000D46B00204C74002000000000C1
:1003D000718500081E000600586900205C7400202A
:1003E00000000000DA0700081B100C002C58002049
:1003F00064740020000000009D6D03082102F000DD
:10040000B05600207074002000000000796C0308D2
:100410002C001000887E0020787E00200000000064
:10042000F5EB03082B002400BC7E0020987E002002
:1004300000000000C5EB0308292078007C7D002027
:10044000E07E00200000000000000000F6210C000B
:10045000E87C0020587F002000000000E007000832
:100460001C02100080790020A87F002000000000FE
:100470004585000810100200B07A0020B87F0020E7
:1004800000000000EC07000828101000A07A0020EF
:10049000BC7F00200000000005D103081900050002
:1004A000987A0020CC7F002000000000EE070008B2
:1004B000F8210600907A0020D47F00200000000080
:1004C000F4070008231210003C8C0020C88C002088
:1004D00000000000FC07000805100600348C002016
:1004E000D88C0020000000000C08000837102800FD
:1004F000788C0020E08C002000000000120800082A
:100500000E0202002C8C0020088D0020000000004C
:100510003A08000816100600008200200C8D00200A
:10052000000000003C0800082F102200A48C0020CE
:10053000148D002000000000420800081220100066
:1005400038830020388D0020000000006408000877
:1005500023100E00E0830020488D002000000000E2
:100560001DD10308F55190002C810020588D0020EA
:1005700000000000A96B030826100C00F48D002079
:10058000E88D002000000000C97304081400030077
:100590007C8800202C8E00200000000074080008D9
:1005A0000B301A00D0800020308E002000000000A8
:1005B000780800081F302400EC8000204C8E0020BA
:1005C000000000009408000805020400AC8300202D
:1005D000708E002000000000B808000803010A0027
:1005E000E4A0002084A1002000000000BC08000856
:1005F00013020400A096002090A10020000000003B
:10060000C60800080D00340094DC002030DD002016
:1006100000000000157402080902010090DB0020B0
:1006200064DD002000000000CC0800080400800009
:1006300010DB002068DD002000000000000000004A
:1006400013000400F0DA0020E8DD002000000000C4
:10065000D0080008FD012400CCDA0020ECDD0020E9
:1006600000000000C1EA02081820300098DA0020DB
:1006700010DE0020000000003597000806101A0068
:1006800078C8002040DE002000000000453201084C
:10069000FB01010074C800205CDE002000000000A7
:1006A000299A0008FC01090040C7002060DE0020F4
:1006B00000000000399A000816023F0000C7002021
:1006C0006CDE002000000000B98500083400100036
:1006D00030C60020ACDE0020000000001932010806
:1006E0001102080008C60020BCDE00200000000047
:1006F000D40800081212040000C60020C4DE002046
:1007000000000000DC080008FF11060068C200209D
:10071000C8DE002000000000F186000808120F006B
:1007200074C20020D0DE002000000000998600087E
:10073000F901040064C20020E0DE00200000000097
:1007400039EB0208FA0102004CBC0020E4DE002074
:10075000000000000D880008FE01140018BC0020F5
:0C076000E8DE0020000000008585000895
:10076C0000007E05EA05B4053200E803D00700005E
:10077C00013C000000000000000000000000000030
:10078C00000000000000000000000000000000005D
:10079C00000000000000000000000000000000004D
:1007AC00000000000000000000000000000001003C
:1007BC003D01000000000000000020030000E803E1
:1007CC006400040A000114001E0065FDC409000049
:1007DC000100000000000000010000000202000007
:1007EC0000050000280100000401F40114000000C1
:1007FC0000000000000000000000000000000000ED
:10080C0020000201000020003200C800D007960032
:10081C00140032002800B0044006000550001400FB
:10082C000F00080064000100010005000A00000030
:10083C00C4090000190000000000000000000000C6
:10084C00000000000000000000000000000000009C
:10085C000000000000000000000000010000054145
:10086C00464634000008000003000000AE014A01B7
:10087C005E012C0164000200000001000A019A01D3
:10088C00001E0A0000000000000000000001000033
:10089C000005000001020300000000000000000041
:1008AC0000000000000000000080070000000000B5
:1008BC00040101006C1600000000000001000000A3
:1008CC001800000018004030000000000101010178
:0408DC00FFFFFFFF1C
:1008E0001A030000000000000000000000000000EB
:1008F00000000000000000000000000004030904E4
:10090000120100020000004083042057000201028F
:1009100003010000FFFFFFFF7DA00008019A00080F
:100920006DA000086187000819A00008C19F000899
:1009300051870008A002002015F900086987000807
:10094000658700085D870008559A000859870008E8
:1009500055870008E8A805083101050819DA0408D8
:10096000710C050800000000000000007509050872
:1009700091080508000000000000000000000000D1
:1009800051D5040801880008F5870008D9A000089F
:10099000F5A00008AD870008BDA00008A1A00008D0
:1009A0000068214C1F0000001C0000001F00000018
:1009B0001E0000001F0000001E0000001F000000BD
:1009C0001F0000001E0000001F0000001E000000AD
:1009D0001F000000000004010000000000000002F1
:1009E00010000000070000000000000000000000F0
:1009F0000102030406070809008002021F0000002C
:100A000053544D202020202050726F647574202094
:100A10002020202020202020302E3031FFFFFFFF1B
:100A20007D0000000000803F00000000000000008A
:100A3000000000000000803F0000000000000000F7
:100A400000000000000000000000000000000000A6
:100A50000000000000000000000000000000803FD7
:100A60000000000000000000000000000100000085
:100A70000000803FFFFFFFFF0000803F00000000FC
:100A800000000000000000000000000054510020A1
:100A90000800000000000000445100200800000091
:100AA0002835060834350608403506084C35060852
:100AB0005835060864350608048F06085C460608A3
:100AC00038450608B834060890730608243306082B
:100AD0001C3506082035060824350608703506083A
:100AE00074350608783506086C4306087C35060818
:100AF0001900C800F401200301000000A00F00004D
:100B0000B80B00000102FFFF01000000685E0C004E
:100B100071DB04085DDA04080D0F05080000000011
:100B2000D9D50408C50A0508ADD904083D0A050849
:100B3000000000000000000095D5040825D404083A
:100B400019D40408410005085D00050825000508C2
:100B500009000508EDFF040829DB040839DA040858
:100B60004D0E050800000000ADD50408410A050837
:100B700081D904089D09050800000000000000005C
:100B8000A1D50408FF000000FFFF0000BC6E0608AE
:100B90000000080205030300C46E060801000802F5
:100BA00005040300B43206080200FE010110030030
:100BB0002C4306080300140200030000CC6E060854
:100BC00004001F0201000800D46E060805001F0281
:100BD00001010800000001FF01000000DD620308C0
:100BE00000000000CCED0508FFFFFFFF0101FFFF43
:100BF0002D202D2D202D2D2D2D202D2D2D000000D3
:100C000000000000000000000000000000000000E4
:100C10000000000000000000980506080000000029
:100C2000000000002406060801000000FA00000091
:100C30000100000001000000BA6800200000F4017B
:100C400001000000B86800200000F401010000006D
:100C5000B66800200000F40101000000B468002024
:100C60000000F40101000000B26800200000F4015F
:100C700001000000B06800200000F4010100000045
:100C8000AE6800200000F40101000000196A0308AA
:100C9000DD6903085CF30508A46800200532010043
:100CA000A2680020E803D00701000000A06800202F
:100CB000E803D007010000009E680020E803D00789
:100CC000010000009C6800201E00B80B010000001D
:100CD000AA68002005000F0001000000AC68002099
:100CE00003000A00010000009A6800201E00F401C1
:100CF000010000009868002014006400010000005A
:100D0000A66800203200E803010000009668002079
:100D10000000C80001000000A267002000C8010018
:100D2000A167002000500100A0670020005A0100C8
:100D30009E67002002000000E8F30508C87F06084F
:100D4000D07F06081ADD00200100C4090000000061
:100D500018DD00200100C4090000000016DD00209D
:100D60000100C4090000000014DD00200100C409D6
:100D70000000000010DD00200100C4090000000098
:100D800012DD00200100C409000000000EDD00207B
:100D90000100C409000000000CDD00200100C409AE
:100DA000000000004965002000C8010048650020DF
:100DB00000C80100466500200100C80001000000D5
:100DC0004465002032003075320000004365002089
:100DD000055A05004065002000FF01004265002023
:100DE00001000000E40500203E6500200300000033
:100DF000F40D06083F65002000FF0100416500205A
:100E000001000000E40500203D6500200300000013
:100E1000F40D06088169030825690308F4F3050841
:100E2000CC680020EE02CA0801000000CA68002059
:100E300000C8010064000000C968002000C801006B
:100E400064000000C868002002000000D4F4050817
:100E50003A65002080C1803E050000003865002012
:100E600080C1803E050000003265002080C1803EC8
:100E7000050000003065002080C1803E05000000B4
:100E80002B65002000FF0100246500206400F401B0
:100E9000010000002365002004000000E0F40508C4
:100EA0002265002002000000F4F40508C36500205C
:100EB0000D00000000F50508C06500200064010079
:100EC000BE650020320010270A000000BD6500202A
:100ED0000D00000000F50508BC6500200D000000B5
:100EE00000F50508BB6500200200000038F5050884
:100EF000000000000000000044F5050828A10020C3
:100F00009CFF2C0100000000606F0020E0150C1712
:100F1000000000003D6C0020020000007CF5050888
:100F2000D86800200100FF7F01000000D768002082
:100F30000200000088F50508C565002003000000D8
:100F400098F50508C46500200300000098F5050821
:100F5000906700200000E803010000008E67002079
:100F60000000E803010000008C6700200000E80397
:100F7000010000008A6700200000E8030100000073
:100F8000886700200000E803010000008667002059
:100F90000000E80301000000856700200014010044
:100FA0008467002003000000A8F505089C67002066
:100FB0000000F401010000009A6700200000F40125
:100FC00001000000986700200000F401010000000B
:100FD000966700200000F4010100000094670020E3
:100FE0000000803E01000000926700200000803E6B
:100FF000010000008368002019640100826800205D
:1010000002000000B8F5050880680020E803D0075A
:101010000A0000007E680020006401000A00000051
:101020007368002000640100726800200064010001
:101030007A680020006401000A000000796800203E
:10104000006401000A0000007868002000640100CC
:101050000A0000007D680020006401000A00000012
:101060007C680020006401000A0000007B6800200A
:10107000006401000A0000007768002001FF010001
:101080000A0000007668002001FF01000A0000004D
:101090007568002001FF01000A000000CE650020F5
:1010A0000000F40101000000CC6500200000F40104
:1010B00001000000CA6500200000F40101000000EA
:1010C000C86500200000F40101000000C665002092
:1010D0000000F401010000004F6C002000C8010076
:1010E0004E6C0020006401004D6C00200064010083
:1010F0004C6C0020006401004B6C00200064010077
:101100004A6C0020FF080100496C002001640100C6
:101110008D68030851680308C4F50508486C002071
:1011200000640100466C00201400E8030100000088
:10113000446C0020E80330750A000000426C002077
:1011400000C80100416C002000C80100406C002074
:1011500000C801003F6C0020006401000A0000008C
:101160005E6C00200000D00701000000586C0020D9
:1011700000C80100576C002000C80100566C002018
:1011800000C801005C6C00200000D00701000000D6
:10119000556C002000C80100546C002000C80100FC
:1011A000536C002000C801005A6C00200000D007DA
:1011B00001000000526C002000C80100516C0020AA
:1011C00000C80100506C002000C8010000000000B1
:1011D0003566030834F60508B965002039000000BB
:1011E000D0F60508B865002000C80100B6650020EB
:1011F000E803D00701000000414C49454E464C49E8
:1012000047485446340000008165030845650308DB
:10121000B8F7050801650308B564030828F8050850
:10122000BD65030845930308A8F805083C65002040
:1012300001030100816A0308556A0308B8FB050829
:10124000516403080564030828FC05084B6603087D
:101250005DB80308C4FC0508A1A90308000000004C
:101260006CFD050879970308E16A030808FE050884
:10127000A56603080000000088FE05087D670308D6
:1012800029670308ECFE050815680308D9670308F9
:1012900088FF050839CF0308C96803080800060855
:1012A0009568002001060100ED660308B966030891
:1012B0000401060899CE0308A993030874010608DF
:1012C00075CF03084594030870020608946800204F
:1012D0000103010005660308D565030844030608F9
:1012E000AD6A030800000000A80306089D64030817
:1012F0002D9303080C040608000000000000000005
:1013000070040608F5680308C5940308F00406088D
:101310001E65002088136F17010000002065002063
:1013200088136F1700000000769F00200000000067
:1013300000000000749F002000000000000000007A
:10134000729F00200000000000000000709F00203D
:1013500000000000000000006E9F00200000000060
:10136000000000006C9F0020000000000000000052
:10137000040F00200000000000000000F5640020C1
:1013800002000000780606081C65002088136F170D
:101390000100000074A1002088136F1700000000F6
:1013A0009563030800000000840606083E6C0020D8
:1013B00001000000D806060876A100200100000008
:1013C000E40606086CA1002002000000EC060608F6
:1013D0000000000000000000F80606087D63030816
:1013E0000000000094070608000000000000000054
:1013F000E807060800000000000000005808060882
:1014000070A10020E0150C1700000000D6010000BC
:10141000B80B000001000000000101010001010003
:1014200001010000FF1FFF1FFFFFFFFF008E0020D4
:1014300000000000248E00200000000001000000D9
:101440000403090412010002EF0201408304563232
:10145000000201020301000012010002020200402A
:10146000830440570002010203010000090220002A
:10147000010104C0320904000002080650050705F6
:1014800081024000000705010240000009026400DB
:10149000030100C03209040000010300000009211B
:1014A000110100012226000705830308000A080B2A
:1014B000010202020100090401000102020100050B
:1014C0002400100105240100020424020205240660
:1014D0000102070582030800FF09040200020A0056
:1014E00000000705010240000007058102400000DE
:1014F00009024300020100C0320904000001020297
:101500000100052400100105240100010424020249
:101510000524060001070582030800FF09040100F5
:10152000020A0000000705010240000007058102D1
:1015300040000000FF000000480F06080000000007
:10154000000000000000000000000000000000009B
:10155000000000000000000000000000000000008B
:1015600000FFFF00000000001C0F06080000000044
:10157000000000000000000000000000000000006B
:10158000000000000000000000000000000000005B
:10159000AA5505010000000005010905A101A100EF
:1015A0000501093009310932093309350934094087
:1015B00009381581257F750895088102C0C0000093
:1015C00009022200010100E03209040000010301C8
:1015D00002000921110100012226000705830308EA
:1015E000000A0000000000000102030401020304DD
:1015F00006070809D50B0508D90A0508310F0508A3
:1016000015D604088DDB040825D6040841D6040845
:10161000EDD50408DDD5040800000000000000003E
:101620002D202D2D202D2D2D2D202D2D2D2D00006B
:10163000000000000000000000000000000000AA00
:10164000550B010000AA5507010000AA5509020028
:101650000000AA5503009F0001000000C012000016
:1016600015D4040811D404080DD4040801D40408C6
:10167000FDD3040809D4040805D40408B5E004081F
:1016800081DF0408E5E00408B9F90408C915050874
:1016900035FA04083DD5040829D5040821D50408E5
:1016A00001000000006002401060024000000000E5
:1016B00000000000000B000000000000000000001F
:1016C00000000000006002402860024001000000AD
:1016D00000000000060C00000000000000000000F8
:1016E0000000000000600240406002400200000074
:1016F00000000000100D00000000000000000000CD
:10170000000000000060024058600240030000003A
:1017100000000000160E00000000000000000000A5
:101720000000000000600240706002400400000001
:1017300000000000200F000000000000000000007A
:1017400000000000006002408860024005000000C8
:101750000000000026100000000000000000000053
:101760000000000000600240A0600240060000008F
:101770000000000030110000000000000000000028
:101780000000000000600240B86002400700000056
:1017900000000000362F00000000000000000000E4
:1017A00000000000006402401064024000000000DD
:1017B00000000000003800000000000000000000F1
:1017C00000000000006402402864024001000000A4
:1017D00000000000063900000000000000000000CA
:1017E000000000000064024040640240020000006B
:1017F00000000000103A000000000000000000009F
:101800000000000000640240586402400300000031
:1018100000000000163B0000000000000000000077
:1018200000000000006402407064024004000000F8
:1018300000000000203C000000000000000000004C
:1018400000000000006402408864024005000000BF
:10185000000000002644000000000000000000001E
:101860000000000000640240A06402400600000086
:1018700000000000304500000000000000000000F3
:101880000000000000640240B8640240070000004D
:1018900000000000364600000000000000000000CC
:1018A00000000000606F0608309A06080000000083
:1018B000910E0208A0860100040000000000000054
:1018C0000000000000000000000000000000000018
:1018D0000000000000000000000000000000000008
:1018E00000000000606F0608D89A0608000000009B
:1018F0009DEC0208E8030000040000000000000066
:1019000000000000000000000000000000000000D7
:1019100000000000000000000000000000000000C7
:1019200000000000DC860608F04306080000000006
:10193000BDBC01087D0000000600000000000000A2
:101940000000000000000000000000000000000097
:101950000000000000000000000000000000000087
:1019600000000000986E0608000000000000000063
:10197000D9B20208E80300000300000000000000E4
:101980000000000000000000000000000000000057
:101990000000000000000000000000000000000047
:1019A00000000000E09A06080000000000000000AF
:1019B000B59A010810270000030000000000000095
:1019C0000000000000000000000000000000000017
:1019D0000000000000000000000000000000000007
:1019E00000000000C86E06080000000071E803084F
:1019F0003DB802085F76000005000000000000000E
:101A000000000000000000000000000000000000D6
:101A100000000000000000000000000000000000C6
:101A20000000000014720608000000000000000022
:101A30009944030810270000010000000000000086
:101A40000000000000000000000000000000000096
:101A50000000000000000000000000000000000086
:101A600000000000EC9A06080000000000000000E2
:101A7000E9E80208E803000005000000000000009B
:101A80000000000000000000000000000000000056
:101A90000000000000000000000000000000000046
:101AA00000000000F89A0608000000000000000096
:101AB00035360208204E0000030000000000000040
:101AC0000000000000000000000000000000000016
:101AD0000000000000000000000000000000000006
:101AE00000000000089B0608000000000000000045
:101AF00021340208204E0000030000000000000016
:101B000000000000000000000000000000000000D5
:101B100000000000000000000000000000000000C5
:101B200000000000189B06080000000000000000F4
:101B30007D000308400D03000300000000000000CA
:101B40000000000000000000000000000000000095
:101B50000000000000000000000000000000000085
:101B600000000000703306080000000000000000C4
:101B7000CDB00208102700000100000000000000A6
:101B80000000000000000000000000000000000055
:101B90000000000000000000000000000000000045
:101BA00000000000B06E0608000000000000000009
:101BB000097903081027000003000000000000005E
:101BC0000000000000000000000000000000000015
:101BD0000000000000000000000000000000000005
:101BE00000000000289B0608000000000000000024
:101BF000854D0408A08601000100000000000000DF
:101C000000000000000000000000000000000000D4
:101C100000000000000000000000000000000000C4
:101C2000000000009C6E060800000000000000009C
:101C3000C995020850C30000010000000000000028
:101C40000000000000000000000000000000000094
:101C50000000000000000000000000000000000084
:101C6000000000008C820608000000000000000058
:101C7000DD920208A86100000100000000000000E1
:101C80000000000000000000000000000000000054
:101C90000000000000000000000000000000000044
:101CA00000000000309B060800000000000000005B
:101CB00025B90308A0860100010000000000000013
:101CC0000000000000000000000000000000000014
:101CD0000000000000000000000000000000000004
:101CE000000000009833060800000000000000001B
:101CF000B9740208A00F00000100000000000000FD
:101D000000000000000000000000000000000000D3
:101D100000000000000000000000000000000000C3
:101D2000000000003C9B06080000000000000000CE
:101D3000A5B3030810270000010000000000000008
:101D40000000000000000000000000000000000093
:101D50000000000000000000000000000000000083
:101D600000000000247006080000000000000000D1
:101D7000D9CA04081A410000010000000000000058
:101D80000000000000000000000000000000000053
:101D90000000000000000000000000000000000043
:101DA0000000000070720608000000000000000043
:101DB0003970040810270000010000000000000036
:101DC0000000000000000000000000000000000013
:101DD0000000000000000000000000000000000003
:101DE000000000003C9A060800000000000000000F
:101DF00005C103081A4100000100000000000000B6
:101E000000000000000000000000000000000000D2
:101E100000000000000000000000000000000000C2
:101E200000000000489B06080000000000000000C1
:101E300085760408400D030000000000000000004B
:101E40000000000000000000000000000000000092
:101E50000000000000000000000000000000000082
:101E600000000000509B0608000000000000000079
:101E7000D3730208400D03000000000000000000C2
:101E80000000000000000000000000000000000052
:101E90000000000000000000000000000000000042
:101EA00000000000589B0608000000000000000031
:101EB000199E030850C3000003000000000000004A
:101EC0000000000000000000000000000000000012
:101ED0000000000000000000000000000000000002
:101EE00000000000649B06080000000000000000E5
:101EF0009533020840420F0000000000000000007F
:101F000000000000000000000000000000000000D1
:101F100000000000000000000000000000000000C1
:101F200000000000709B0608000000000000000098
:101F30009174020850C3000000000000000000007F
:101F40000000000000000000000000000000000091
:101F50000000000000000000000000000000000081
:081F6000000000000000803FBA
:1080000003685A1C02601970704700BF2DE9F047E1
:10801000089C2578002B804689460CBF4FF0200A2B
:108020004FF0300A661C25B3002A26DD334601E0F6
:10803000024698B113F8011B501E0029F8D1971E73
:1080400060B13D46013D51464046C8476B1C002B80
:10805000F8DC257827EAE770013045B1041B294692
:108060004046C847301916F8015B002DF7D1BDE82E
:10807000F087002A03DC2846F9E70020EEE7571EC8
:10808000DFE700BF2DE9F04714461D4606464FF4D2
:108090007A7200232046294650F068FC4D4BDFF8E9
:1080A00048814D4A4D4F034488FB03101844D917AB
:1080B00082FB032CC1EB601088FB002887FB0327A1
:1080C0009C44474AC1EBEC2CC0EB001E82FB0C2900
:1080D000A3EB8E0E1F44434A86F806E0C1EB274708
:1080E0004FEAEC7E08EB000ACEEBA90E82FB07827A
:1080F0004FEAE0780EEB4E0EC8EB6A18ACEBCE0CF4
:10810000C8EB0818DFF8E4E086F804C0A0EB8800AC
:1081100070718EFB0303F817C0EBE21240F2B5500A
:1081200000FB1272C1EBE353B2F5896F4FEA83078C
:108130003CDA40F2DA239A4242DCB2F5B77FB4BFB0
:108140004FF0000E4FF0010E4FEA4E09DFF8A0800D
:1081500009EB0E0308EBC3031FFA8EFCD88A09EB68
:108160000E0108EBC10116310B2301E031F8020DBD
:10817000904218DD013BF9D1CE44012338F83E008E
:10818000B37007F5FA670132121ABC44F270A6F810
:1081900000C0204629464FF47A72002350F0E6FBD7
:1081A0003281BDE8F0870133DBB2E9E74FF0030C21
:1081B000E64640F29650DFF838804FF00609CEE7E9
:1081C0004FF0020CDFF82880E64640F229404FF0DD
:1081D0000409C4E780BC92C7C5B3A29107452EC26B
:1081E000ABAAAA2A73B06D1689888888792D0311E5
:1081F00090A505080378202B024600F10100F9D074
:10820000092BF7D02D2B00F0A4802B2B03BF537824
:10821000B7EE000A0246B7EE000AA3F13001C8B279
:1082200009289FED577A10D8F2EE046A07EE901AEB
:10823000F8EEE77A12F8013FE7EE267AA3F1300173
:10824000C8B20928B0EE677AF0D92E2B63D003F0BC
:10825000DF03452B02D020EE070A704710B4517897
:108260002D294FD02B2979D0A1F13003092B02F110
:1082700001027AD80024002303EB830301EB4303BC
:1082800012F8011FA1F130000928A3F13003F3D93E
:10829000B3F59A7F1A4628BF4FF49A72072B6CD910
:1082A000DFED386A1346F7EE007A083B072B67EEDE
:1082B000A67AFAD802F00702DAB1F2EE046A012ACD
:1082C00067EEA67A15D0022A67EEA67A11D0032AA5
:1082D00067EEA67A0DD0042A67EEA67A09D0052AA1
:1082E00067EEA67A05D067EEA67A062A18BF67EE73
:1082F000A67A002C3BD087EE277A5DF8044B20EE5F
:10830000070A70479178A1F13003092B02F10202AC
:1083100030D80124AFE75378A3F13001C8B209285F
:1083200002F1010293D8F2EE046AF0EE665A07EE0B
:10833000901AF8EEE77A12F8013F87EEA66AA3F1E9
:108340003001C8B2092866EEA56A37EE067AEED982
:108350007DE75378BFEE000A02465EE79178A1F10F
:108360003003092B02F1020284D9F7EE007A27EEDE
:10837000277AC2E7F7EE007ABDE7F7EE007A9BE7CF
:108380000000000020BCBE4C0028F0B403DA2D230E
:108390000B7040420131092804464FF0010307DD0C
:1083A00003EB83035B00B0FBF3F2092AF8D883B137
:1083B0000F48A0FB0326B4FBF3F2092A02F1570C85
:1083C00002F1300709DD03FB1244F30801F801CB89
:1083D000EFD100230B70F0BC704703FB1244F3088D
:1083E00001F8017BE5D100230B70F0BC704700BFA2
:1083F000CDCCCCCC884270B44FF0010442D301FB09
:1084000004F4B0FBF4F58D42F9D2ECB142BB092D76
:1084100004FB150005F1570605F130020EDDB4FB33
:10842000F1F403F8016B7CB1B0FBF4F5092D04FB0A
:10843000150005F1570605F13002F0DCB4FBF1F44C
:1084400003F8012B002CEFD100221A7070BC70478A
:1084500003F8016BB4FBF1F4002CF5D0B0FBF4F59C
:10846000092D04FB150005F1370605F13002EFDC9C
:10847000B4FBF1F403F8012B002CEFD100221A70A9
:1084800070BC70470546002AEAD1C0E790ED057A36
:1084900090ED004AD0ED066AD0ED014AD0ED047AA5
:1084A00090ED035AD0ED025AA4EE007AB0EE406A85
:1084B000B0EE470AB0EE667AA4EE867A67EEC07A2E
:1084C000A5EE407AE5EE867A80ED057AC0ED067A73
:1084D000704700BFD0ED057A90ED013AD0ED003A3B
:1084E000D0ED064A90ED024A90ED077A90ED035ADE
:1084F00090ED086AD0ED045AC0ED067AF0EE406ABD
:1085000027EE830AC0ED056AA3EEA60A80ED087A7D
:10851000A4EE240AA5EE470AA5EEC60A80ED070AD6
:10852000704700BFD0ED007A90ED017A30EE670A17
:10853000E7EE007AB0EE670AC0ED007A704700BF40
:10854000704700BF30B4142200233E2504240221CA
:10855000C27001228571C4710370C3728373C373C7
:108560004170417282700272827230BC704700BFEB
:10857000002306214FF47A720170C0E901230373CE
:10858000704700BF30B430213523312234254FF4F9
:108590007F444170C371FF21012342710022C570E5
:1085A000048281740372037083710371837042814A
:1085B0008281C28130BC70472DE9F04F3149324B86
:1085C00083B001F5D07B019018274FF000092F48A8
:1085D0001022012603E0203098420BD00279974206
:1085E000F9D102680C68A24209D02030984206F105
:1085F0000106F3D1203159453AD00F79E7E74479A4
:108600004D79A542F1D19446019A214809EB4905DB
:1086100002EB050A57558AF8016000F572751D4E88
:10862000624603E0A8421AD050F82C6FB242F9D14A
:108630000679A642F6D1CF6806464FF0000C964662
:108640008046F268BA4216D00CF1010CBCF1030F5F
:1086500006F10C06F5D14046A8427246E4D14FF02F
:10866000FF3C203159458AF802C009F10109C4D103
:1086700003B0BDE8F08F086932698242E4D14FFA55
:108680008CFCEEE778B805088C190608CC0F0608B4
:108690008C19060800000140144BFF22F0B54FF082
:1086A000FF34C2700271027242724273827303F12C
:1086B0000C0EA446172716261525002202EB82026F
:1086C00081189E4585544E708F7081F803C00C71DF
:1086D0000AD093F90620DD791E7A5F7A93F90AC0F1
:1086E00093F90B400633E9E7F0BD00BFF0A505089C
:1086F00030B401232B25002402212A228570047026
:108700004170C2700371437130BC7047034600F181
:108710001001FF221A705A7002339942FAD1027086
:1087200042708270C2708271C271704730B41D692C
:1087300095420AD314460A4621448D42996938BFAE
:108740002A1B214430BC50F0ABBB30BC704700BF8B
:1087500000207047002070470120704701207047BB
:1087600000207047002070474FF40070024B1060EB
:108770009B680B600020704788C20020013A30B42B
:10878000D2B28C1C04EB42040025020F092AD3B29A
:1087900003F130028ABF37330A700B704D7002311B
:1087A0008C424FEA0010F0D130BC70470B4A0C4BA2
:1087B00010681B681A22C0180A8001D10948704746
:1087C00010B5094B09491C680822FFF7D7FF20465E
:1087D00004220749FFF7D2FF024810BDE8F7FF1F48
:1087E000ECF7FF1F88010020EAF7FF1F8A01002035
:1087F0009A01002004230B8000487047A401002048
:1088000012230B8000487047A80100202C2202236D
:1088100002704370704700BF08307047704700BF58
:10882000816170474378007840EA032010FB01F033
:108830004FF4807190FBF1F000F30F0000B270472D
:108840006D4B2DE9F04F1C686C4BB3F80AE0B3F8A0
:1088500004809A894FEA0E2AB4EB0A044FEA1E6B91
:108860004FF0000587B065EB0B05CDE900450746E5
:10887000009C1889019EA0FB044500FB0655E009F9
:1088800040EA45604FEA08448C46E9114FEA184532
:1088900010EB0408D888009C41EB0509CDE9048958
:1088A000A0FB0445B3F8028000FB0655200A40EA0D
:1088B00005604FEAC83429124FEA584510EB040806
:1088C00041EB05090099A2FB010102FB06114FEAE9
:1088D000D05A4AEA412A1AF5FA634FEAE15B4BF1B2
:1088E0000004B3F5FA6FCDE9023474F10003424E8F
:1088F00064DA0524AAFB040104FB0B1100FB0BF452
:108900000AFB0144DDE90423A0FB0A0121444D10C8
:108910004FEA3004121B4FEA900463EB050344EA6C
:108920008174B8EB0408CDE90423DDE9023434484E
:108930004FEAA10569EB05094FF0FF31834274EB63
:10894000010326DA40F6AC501AEB00024FF00001AA
:108950004BEB010302FB03F1A2FB022303EB4103F8
:10896000D400DD00101B45EA527563EB0501DDE91B
:10897000044524184D41CDE904450B24A2FB040114
:1089800004FB031149104FEA3000B8EB000869EB13
:108990000109DDE900325343009ADDE90201A2FB3F
:1089A00002AB0BEB430B4FEADA7242EA4B02801A3E
:1089B0004FEAEB7361EB0301CDE9020197B17168F6
:1089C000A1FB082301FB0933540D5D1544EAC324C0
:1089D000DDE90423A21A65EB03031D46D30B43EA2A
:1089E00045433B60BCF1000F02D0029BCCF8003045
:1089F00007B0BDE8F08F00BF10180020947C002065
:108A000024FAFFFF2DE9F04FDFF8DCC1754CDCF8EC
:108A100008502288B4F90AA0C2EB25135200C2EB19
:108A2000E502B4F902505B436A43B4F904501B13E6
:108A30005D43AD1305EBE225B5F5FA324FEAE57B70
:108A400085B04BF1FF33CDE90023DDE9003253431C
:108A5000009AA561A2FB0289CDE90201B4F90820C0
:108A60000199009809EB43095143D31700FB031107
:108A7000A2FB00230B444FEAEA7B0AFB09F11F0328
:108A800008FB0B13AAFB080119444FEA102A4AEA13
:108A9000016A16034FEA212B47EA12571AEB060226
:108AA000E6884BEB070312F1000A43F5004BAAFBE3
:108AB000060106FB0B114A10CB1752EA030100F026
:108AC0008E80B4F91060009806FB09F1F71708FBD7
:108AD0000711A6FB08673944B4F90E808B4601994B
:108AE0004FEAE87908FB01F100FB0911A8FB0089B6
:108AF0008944DCF80C104FEA4947C1F5801C47EA6D
:108B0000D837B2464FEA4846B4F90C801AEB060A49
:108B100066464BEB070BF7174FEAC806019600268F
:108B20000096F907DDE900674FEACC7016EB0A06FC
:108B300047EB0B0741EA5C01801B61EB070140F644
:108B4000354C8946A0FB0C010CFB09114FF00EFFC0
:108B5000B4F91620B4F914A04E13470B47EAC147E5
:108B600002FB06FCD31707FB03CCA2FB07236344DD
:108B7000564307FB0366A2FB07233344560E46EA1F
:108B8000C31632184FEA636747EB010380460AFBBE
:108B900001F14FEAEA7B08FB0B17AAFB08013944F5
:108BA000C60C46EA413612EB06084FEAE147B4F933
:108BB000122043EB07094FEA182141EA096113012A
:108BC0000B44029A0AB11B0A1360039B23B105EB05
:108BD000850580352D121D6005B0BDE8F08F00239E
:108BE000EFE700BFA87C00201018002070477047F6
:108BF00010B5064C237C0BB9002010BD29F0CCF930
:108C00006369C01AD0F5FA50F7D5F5E710180020BF
:108C10004FF40063038370474FF40063038370478E
:108C200010B500F10C040022212120462BF03EFB60
:108C3000FC22202120462BF039FB40222421204613
:108C40002BF034FB0C22232120462BF02FFB00229B
:108C5000222120462BF02AFB642029F05DFA012016
:108C600010BD10B500F10C0401220B2120462BF0A1
:108C70001DFB20B11D22092120462BF017FB00F01F
:108C8000010010BD10B500F10C0470220021204637
:108C90002BF00CFB2022012120462BF007FB0022A9
:108CA000022120462BF002FB642029F035FA012036
:108CB00010BD012248212BF0F9BA012258212BF0D6
:108CC000F5BA3122F4212BF0F1BA00BF012380F86C
:108CD00050307047F0B4037C456902681F2B37D9C8
:108CE000203B2021546899400C4223D010249C4002
:108CF000D160D4605168D940CE074ED4EFF31183D0
:108D0000502282F312882A6C1168C90709D454686A
:108D1000002C52D1D5E909618E4243D1012285F858
:108D20006420DBB283F31188037C02681F2B194691
:108D300014D9203B082150689940084200D0D160E6
:108D40000421506801FA03F3184223D1F0BC7047A4
:108D5000202416689C4026420FD11946082310682B
:108D60008B40184200D093600423106803FA01F18D
:108D70000842EBD09160F0BC70471021994094609C
:108D800091601168D940CC07B8D5012101FA03F3ED
:108D90009360B3E7D360F0BC7047012101FA03F39D
:108DA000D360ABE7AF690F44D7600ED82E69711A54
:108DB0005160AC62002185F86410116841F0010136
:108DC000DBB2116083F31188AEE7711A5160AE62B5
:108DD000F0E700BFF0B4714B71491A780B789A42F2
:108DE00040F07E816F4B1A78002A00F0D4806E4BE1
:108DF00019786E4B002940F0DB801868B3F83261B7
:108E0000048824F080042404240C048093F8304166
:108E1000C462058845F08005058041628489012A85
:108E200044EA06048481A3F8321100F0B480D3F838
:108E30003401B3F86662048824F080042404240C0E
:108E4000048093F86442C462058845F0800505807B
:108E500041628489022A44EA06048481A3F86612E6
:108E600000F09980D3F86802B3F89A63048824F07C
:108E700080042404240C048093F89843C462058879
:108E800045F08005058041628489032A44EA06048E
:108E90008481A3F89A137ED0D3F89C03B3F8CE64F0
:108EA000048824F080042404240C048093F8CC4427
:108EB000C462058845F08005058041628489042AE2
:108EC00044EA06048481A3F8CE1464D0D3F8D00415
:108ED000B3F80266048824F080042404240C04807F
:108EE00093F80046C462058845F08005058041621C
:108EF0008489052A44EA06048481A3F802164AD02C
:108F0000D3F80406B3F83667048824F080042404F8
:108F1000240C048093F83447C462058845F080052A
:108F2000058041628489062A44EA06048481A3F804
:108F3000361730D0D3F83807B3F86A68048824F0BD
:108F400080042404240C048093F86848C4620588D3
:108F500045F08005058041628489072A44EA0604B9
:108F60008481A3F86A1816D0D3F86C28B3F89E59F8
:108F7000108820F080000004000C108093F89C09F9
:108F8000D062148844F08004148051629089284390
:108F90009081A3F89E19F0BC704700BFCC49002017
:108FA000CD490020C8310010C4310010F4D0002099
:108FB0005C68198961602568186845F0010540F210
:108FC0000D312560A0F848108489012A44F480748A
:108FD0008481E0D0D3F83841B3F83C51D3F8340160
:108FE0006560256845F001052560A0F84810848972
:108FF000022A44F480748481CDD0D3F86C42B3F853
:109000007052D3F868026560256845F00105256057
:10901000A0F848108489032A44F480748481BAD06B
:10902000D3F8A043B3F8A453D3F89C036560256834
:1090300045F001052560A0F848108489042A44F40D
:1090400080748481A7D0D3F8D444B3F8D854D3F82B
:10905000D0046560256845F001052560A0F848103A
:109060008489052A44F48074848194D0D3F8084616
:10907000B3F80C56D3F804066560256845F0010581
:109080002560A0F848108489062A44F480748481FD
:1090900081D0D3F83C47B3F84057D3F83807656020
:1090A000256845F001052560A0F848108489072A45
:1090B00044F4807484813FF46EAFD3F87028B3F821
:1090C0007408D3F86C385060106840F001001060EC
:1090D000A3F848109A8942F480729A81F0BC7047D4
:1090E0005C00E618484D15F83660032E3FF67AAE60
:1090F000DFE806F04D261C02E01805EBC0004468CE
:10910000661E012C46603FF646AF013303F00303B1
:10911000D8B2824208703FF465AE03EB4303DB0034
:10912000EA1802200021E854516034E7E11805EB09
:10913000C1014868461E01284E603FF62CAF0DE085
:10914000E118C90068184668771E012E47603FF68F
:1091500022AF02274FF0FF366F544660E618F60044
:10916000AF192A48397B00680139C9B2397389B30C
:109170004FF47A722344B2FBF0F200FB02F0B0F538
:109180007A7F05EBC30518BF01326A602AE670B129
:109190001F49012600220F890132002F18BF002627
:1091A000824201F58671F6D1002E3FF41BAE174ABC
:1091B000126842F21076E018B6FBF2F102FB11627F
:1091C000012605F8306002B13144234405EBC305A4
:1091D000696007E6BF68B7FBF0F100FB1170032779
:1091E000AF5500B101311C44013305EBC40503F058
:1091F0000303934269603FF4F5AD00293FF4F2ADFB
:1092000001396960EEE500BFD0490020C8020020A6
:1092100094C8002010B5027C01681F2A4FF020037B
:109220000ED94C68203A93401C4208D00B4A406843
:1092300000241470026822F001020260CB6010BDAD
:109240000C6893401C42FAD0044A40680024147011
:10925000026822F0010202608B60F0E739580020BA
:109260002DE9F041C40023189B00B749CA58526841
:10927000958AADB2EFB2FE070B4461D4BE0737D575
:10928000BFF35F8F1D7EEDB2012D00F0BB80AF4EAE
:10929000138BBFF35F8F231801EB83031D7E022D19
:1092A00000F0CE80231801EB83031D7E032D05D132
:1092B0009B7E1BB1737E002B40F01A81938896F938
:1092C00018C043F480639380231801EB83031B7E53
:1092D000013363450AD1B37E00257576002B40F03B
:1092E0008A80204401EB800000234375BDE8F081B3
:1092F000964E17F0040F96F918C04DD117F040079D
:1093000000F0B280178A1D6AFFB205F80C705FFA90
:109310008CF56F1C93F818E07BB2DF1CBE453376EA
:109320009C4600F00981271801EB87073F7EBB426E
:10933000CAD105F1020C4FFA8CFC86F818C0C3E7BD
:109340001588824E25F400652D042D0C1580158896
:1093500045F4806515809D7E00273776002D3DD031
:10936000757E002D37D0231801EB830301251B7E6A
:109370007576022B03D1138843F4006313802318FE
:1093800001EB83039B7D43F001031382204401EB37
:109390008000037EBDE8F0819F7E757E4FF0010E58
:1093A00086F81AE0002F5CD0002D78D1231801EB4D
:1093B00083035B7E002B00F0A48013880CF1010C6A
:1093C0004FFA8CFC43F4007386F818C0138013889E
:1093D000DF05FCD478E7DB7DFF2BC4D0231801EB3D
:1093E00083039D7D05F0FE051582DB7DFF2BCDD02F
:1093F000FF233376CAE7938823F440731B041B0CC6
:1094000093806EE79B7E514E002B3FF441AF737EFD
:10941000002B3FF43DAF138823F480631B041B0C27
:109420001380BFF35F8F138B1388B57643F40073FB
:109430001380938896F918C043F48063938043E7C0
:109440009B7E002B3FF42EAF737E002B3FF42AAFA0
:10945000138896F918C023F480631B041B0C138037
:1094600016E0002DA2D0A8E72D067FF52DAFBCF1A8
:10947000FF3F6DD0DD6915F80C5015820CF1010C21
:109480001D7E4FFA8CF39D429C4633767FF41CAFD1
:10949000938823F480631B041B0C938014E71F7EC6
:1094A000D3F820805FFA8CF5AE44022F4FFA8EFE7F
:1094B00017882DD927F480673F043F0C1780178A3F
:1094C000FFB208F80C701788D3F820C047F4007377
:1094D0001380138ADBB20CF80E30938805F1020C6E
:1094E0004FFA8CFC43F4806386F818C093806EE7D3
:1094F000938896F918C023F480631B041B0C938097
:10950000E2E61388012543F48073138075765EE7E5
:1095100047F400771780178AFFB208F80C70178A93
:10952000D3F8208005F1030C4FFA8CFCFBB286F8CF
:1095300018C008F80E304AE7978827F480673F0480
:109540003F0C9780EFE600BF4C5000201018002021
:10955000DD7D15829D7E37761DB91B7E002B7FF445
:1095600015AF938823F480631B041B0C93800DE7D5
:1095700013B506230C466A4628210C302AF0C8FD94
:10958000F0B19DF801309DF8002042EA0322042149
:109590009DF8033012B292FBF1F222809DF8022076
:1095A00042EA032212B29DF8043092FBF1F262808B
:1095B0009DF8052043EA02231BB293FBF1F3A3803D
:1095C00002B010BD7FB5002500F10C060C460D80E1
:1095D0004D808D8001230DF10702062130462AF0CF
:1095E00097FD10B9002004B070BD9DF807305B07EF
:1095F000F8D5062302AA294630462AF089FD00281C
:10960000F0D09DF809209DF8083043EA022323801A
:109610009DF80B209DF80A3043EA022363809DF8F1
:109620000D209DF80C3043EA0223A380DBE713B53D
:1096300006230C466A4603210C302AF069FDA0B1CE
:109640009DF800209DF8013043EA022323809DF815
:1096500002209DF8033043EA0223A3809DF80420F2
:109660009DF8053043EA0223638002B010BD07B5C0
:10967000032301AA00212AF04BFD9DF805309DF837
:1096800004001B0243EA00439DF80600184303B0A0
:109690005DF804FB08B5FFF7EAFF014B586008BD11
:1096A0001018002008B5FFF7E2FF014B186008BD55
:1096B0001018002007B506236A46F7212AF028FD76
:1096C0009DF801309DF800100B4A1B0143EA01335D
:1096D0009DF8021043EA1113D3609DF804309DF801
:1096E00003101B0143EA01339DF8051043EA1113EF
:1096F000936003B05DF804FB1018002038B50446F1
:109700000D46FFF775FA246808B128F097FC054B61
:1097100000221A74C9215B7C2A4620462AF0C2FB2B
:10972000012038BD10180020014B186830F00EBE23
:109730001055002038B53022002150F0D5FE0346E8
:109740002225642440F2DC5040F21A4140F26C724F
:109750001D731C7440F2022513245882998219202B
:1097600040F27531DA8240F643021D839C760E2565
:1097700002241877D9830A201E211A84012283F833
:109780002D0083F82E1083F8225083F82C409A7312
:1097900083F8252083F82B2019460248BDE838407D
:1097A0003CF032B9D82F060808B5202150F0B3FE9E
:1097B0000346184623B10278202A03F10103F8D0AA
:1097C00008BD00BF38B51D4B1B78044600F12505C8
:1097D00093B104221A49203050F0C4FE28461422C6
:1097E000184950F0BFFE012384F83A30164B1B781D
:1097F00073B984F83B3038BD28461422134950F021
:10980000B1FE012384F83A300F4B1B78002BF0D0C7
:109810000F4B186859689A68DD68E56020606160E0
:10982000A260DD69186959699A69A2610123E5613D
:109830002061616184F83B3038BD00BF04500020D6
:10984000C04F0020A84F002005500020E42F06083C
:10985000C84F002001232621272201704270837007
:10986000C37070472DE9F84FDDE90A648946174651
:10987000002120229846054650F036FE5EB1D6E91A
:1098800000327189EB81C3F30F432B82C2F30F4384
:10989000EA822B83698248464EF072FB17F0100B68
:1098A00010D1431E70B119F803202E2A18BF09EBFE
:1098B000030104D14AE011F8016D2E2E3ED013F1C0
:1098C000FF33F8D208280246CA46A8BF08224FF044
:1098D000000B4FF020336B602B60C5F80730494612
:1098E000284605F108064FF0DBFA5A465146304645
:1098F0004FF0D6FA6B1EE81D13F8012FA2F161019B
:1099000019299CBF203A1A708342F5D105F10B0149
:1099100016F8013BA3F16102192A9CBF203B06F80F
:10992000013CB142F4D11823C8F30F42EF722B73FC
:10993000A5F81A80AA82EC61BDE8F88FC01A00F180
:10994000FF3BBBF1030FA8BF4FF0030B082B03F144
:10995000010AA8BF0823CA441A46BAE738B500244A
:109960000546048021462846013430F025FE082CA7
:10997000F8D1002185F8E210A5F8E410A5F8E6106A
:10998000A5F8E810A5F8EA10A5F8EC10A5F8EE1077
:10999000A5F8F010A5F8F2102846BDE8384030F0E0
:1099A000CDBD2DE9F341134D134F002305F81B3FA7
:1099B000044600EB8106B44203D1104802B0BDE872
:1099C000F0813946284650F097FD2146684650F010
:1099D000AFFD4FF000082021684650F09CFD28B9EB
:1099E0006946284650F088FD0434E4E780F800809A
:1099F000F1E700BF10180020223806082B180020BD
:109A000038B514460D4645F08BFF4FF400730268DD
:109A10002A600020236038BD2AF0A8BC014B1868DA
:109A200028F07EBD1856002010B500210446012004
:109A300027F082FE207010BD38B500240472451E48
:109A4000E1B2022027F078FE0134082C05F8010F5E
:109A5000F6D138BD2DE9F04F002087B00C461D46E9
:109A60000121924628F0C6FF002D63D005EB0A03C2
:109A7000DFF8D094DFF8D0B4039355461CE0002DF6
:109A800000F0C581D9F81430AB4264D0D9F8103059
:109A9000AB4200F09780D9E90631AB4252D8A942D7
:109AA00000F26F81691A20464AF0E2FE039B0135FD
:109AB0009D4204F500743DD0D9F82060AE42DED856
:109AC000D9F83080AE1B4FEAD60AD8F830300AF108
:109AD000020A9A4506F0070603D3D8F838309A45AB
:109AE00009D9414650464AF093FE8046002800F0CE
:109AF0004D81C9F8300098F80430002B40F0E28026
:109B0000D8F82870002F00F0DF81D8F83030D8F86E
:109B10000C20AAEB030A06EBCA0A4346204602EBD6
:109B20004A224FF40071B847039B01359D4204F56A
:109B30000074C1D10021084628F05CFF002007B066
:109B4000BDE8F08FA942ADD94FF400720021204644
:109B500050F0CAFCAAE7522261204123002622705D
:109B60006270A070722284F8E70184F8E631D9F8B7
:109B70002800E3704FF0FF33314684F8E42184F885
:109B8000E521C4F8E8014FF4F07284F8EC3184F870
:109B9000ED3184F8EE3184F8EF31201D50F0A4FC53
:109BA00055216FF05502C4F8F061C4F8F461C4F8AF
:109BB000F86184F8FC6184F8FD6184F8FE1184F892
:109BC000FF2173E74FF400720021204650F08CFC17
:109BD000D44BD54F03CBEB23022223704FF0080C5C
:109BE0009026F8234FF0580EC4F80300227484F82E
:109BF0000DC0C4F8071084F801E0A6706375D9F8A9
:109C00001010D9F80830D9F81C602273591A216253
:109C10004FF0FF3100233F20A1763E21A273E37273
:109C2000E3736374A374E3742375A375E3756376B8
:109C3000E3766377A377E3772076217784F82C2087
:109C400007CFD9F8187084F82830F61B84F829302B
:109C500084F82A3084F82B3084F82D3084F82E30A4
:109C600084F82F3084F8313084F8323084F833307F
:109C700080236662C4F8470004F1470684F8403048
:109C800029209423A94F84F846C084F8420084F820
:109C900043300E200D234FF0010C84F8440084F86B
:109CA000453084F830C0716003CF33465527AA266B
:109CB0009A60C4F85200C4F8561084F8FE7184F813
:109CC000FF61F3E64FF400720021204650F00CFCD7
:109CD000D8F84030002E61D104F12007002B77D056
:109CE000D8F8303092491122CDE900662046FFF7BE
:109CF000B9FDD8F840301A6C04F1400A002A79D036
:109D00001B6B8C49CDE9006638461122FFF7AAFD8E
:109D1000D8F84460002E3FF4C9AE4FF4E078CDE9A6
:109D200004450CE00024CDE900C4FFF79BFDB66CB0
:109D3000BA46A8F120080EB3B8F11F0F1ED9346837
:109D4000356B96F804E011222B46214650460AF165
:109D5000200706F11C0CBEF1000FE3D172793369C4
:109D6000019342F021022B46CDF800C0FFF77AFDA7
:109D7000B66CBA46A8F12008002EDDD1DDE9044515
:109D800094E6E91A20464AF073FD8FE6231F04F596
:109D9000FE7243F804BF9A42FBD187E6002BD8F845
:109DA00044200CBF01230223C3EB0613002A3FF417
:109DB0007DAE966C013B002E3FF478AE013BB66C55
:109DC000F9D1002E3FF472AEA2464FF40078A6E718
:109DD000CDE900663346D9F80C1008222046FFF77B
:109DE00041FDD8F84460002E3FF460AEBA464FF40F
:109DF000F07894E7CDE900663346384611224D49A4
:109E0000FFF730FDD8F84460002E86D14EE64FF4BF
:109E100000722946204650F067FB80220C2384F80C
:109E2000BE2184F8C231D9F81000434BD9F808603C
:109E300084F8B85183FB0032C117C1EB2232B2F56E
:109E4000806F84F8B95184F8BA5184F8BB5184F812
:109E5000BC5184F8BD51C4F8C601C4F8CA6142DBE4
:109E6000FF2384F8BF3184F8C13184F8C031324B0C
:109E7000711E83FB0132CE17C6EB2232B2F5806F22
:109E800029DA2E4B84F8C52183FB01030B442C48AF
:109E9000C6EB6313C3EB831680FB0370891B184466
:109EA000DE17921022F03F020131C6EBE0100A43A8
:109EB000034484F8C42184F8C3315522AA2384F8CA
:109EC000FE2184F8FF31F1E539464FF40072204657
:109ED00050F00AFBEAE5FF2384F8C33184F8C5316A
:109EE00084F8C431E9E7154B84F8C12183FB007382
:109EF0000344134FC1EB631387FB0317C3EB831CAE
:109F00009110A0EB0C02F818DF1721F03F0101328D
:109F1000C7EBE0100A43034484F8C02184F8BF3142
:109F2000A5E700BFFC2F0608083006081830060811
:109F3000F42F0608F82F060897554541832008821C
:109F40008180808088C20020DEADBEEF08B5012090
:109F500047F0D8FB174A936803F00C03042B1ED07C
:109F6000082B18D151685368490203F03F0319D4F4
:109F700052681148B0FBF3F0C2F3881300FB03F002
:109F80000C4B0E4A5B68C3F3014301335B00B0FB2B
:109F9000F3F0106008BD094B074A1A6008BD074B73
:109FA000186008BDB0FBF3F05368C3F3881300FBDF
:109FB00003F0E5E7003802400024F40098B10020E7
:109FC0002DE9F0410D4601211C460846164628F0B1
:109FD00011FDC4B105EB44280E4F01E045F0AEFC85
:109FE0003A680023146929461A463046A0470028DB
:109FF000F4D145F0A3FC0028FBD005F500754545DC
:10A0000006F10106ECD10021012028F0F3FC00202C
:10A01000BDE8F08170C200202DE9F0410D4601211C
:10A020001C460846164628F0E5FCACB10E4F05EB81
:10A0300044283A680023946829461A463046A047C7
:10A040000028F6D045F07AFC0028FBD005F5007515
:10A05000454506F10106ECD10021012028F0CAFC9B
:10A060000020BDE8F08100BF70C2002008B545F0B7
:10A0700065FC80F00100404240B208BD002108B5F7
:10A08000084628F0B7FC4AF0ABFB45F057FC002827
:10A09000FBD00121002028F0ADFC002008BD00BF4E
:10A0A00010B5044C04480A46214645F079FF204685
:10A0B00010BD00BF4C1800202430060810B5044C19
:10A0C00004480A46214645F06BFF204610BD00BFFC
:10A0D0004C1800203430060810B5044C04480A46D9
:10A0E000214645F05DFF204610BD00BF4C18002002
:10A0F000403006080A4608B5054920B1054845F034
:10A100004FFF034808BD044845F04AFF004808BD1A
:10A110004C1800206C30060854300608F8B58489C5
:10A120004FF6FF764FF47A7433B319B30F780131D9
:10A1300001E0B44218D00589013CAD07A4B2F8D5BE
:10A14000BCB284814FF47A7402E0BCB2B4420BD04A
:10A150000589ED0704F1FF37F7D58589ADB20AB15E
:10A1600015700132013BDFE729F07AFE003018BF9D
:10A170000120F8BDFF27DEE70120F8BD30B5437FA1
:10A1800083B004461BB90120637703B030BD0523BB
:10A19000ADF80430056800BFA86828F0EDFB6A46FA
:10A1A00001A902236868FFF7B9FFA86828F0EAFB55
:10A1B00000BF9DF8013003F0010383F001006377D5
:10A1C00003B030BDF8B5074C05460F46266803E0DE
:10A1D00023689B1BBB4204D82846FFF7CFFF00280B
:10A1E000F6D0F8BDC4BB0020F0B5077F83B00446AD
:10A1F0004FF0030C0020009016461D468DF8040019
:10A200008DF800C06FB30B0E8DF801300DF1020315
:10A21000080C0A0A99701870062120465A70FFF738
:10A22000D1FFE0B1236800BF986828F0A5FB237F29
:10A230002268002B14BF05230423694650680022BE
:10A24000FFF76CFF23683246002158682B46FFF762
:10A2500065FF2368986828F095FB00BF284603B087
:10A26000F0BD0DF10103D3E7F0B5876983B0064671
:10A2700017B13B68BA885A837069DFF8A8E0838910
:10A28000C3244FF47A734FF0060C6D464FF6FF71FE
:10A290000EF1010E03E0013B9BB28B4220D00289FC
:10A2A0009207F8D5A3B283814FF47A7302E0A3B288
:10A2B0008B4215D00289D20703F1FF34F7D582898A
:10A2C00092B20DB12A700135BCF1000F0BD00CF128
:10A2D000FF3CFF24BEF1000FE1D09EF80040D7E71D
:10A2E00029F0BEFDB76917B13B68BA881A839DF89B
:10A2F00005009DF801509DF802109DF803409DF85F
:10A3000004209DF8063041EA052143EA002342EA91
:10A3100004220120A6F85010A6F85220A6F85430C6
:10A3200003B0F0BD04A6050838B5054640683B4AB1
:10A33000038823F040031B041B0C0380038823F0D5
:10A3400038031B0490424FEA134305D002F58062A4
:10A35000904201D043F0080303800388AA6843F0C9
:10A360004003038012B1136892885A83838940F2B4
:10A37000E93301E0002B43D00289013B12F0020FC8
:10A380009BB2F7D0F523838140F2E93301E0002B43
:10A3900036D00289013B12F0010F9BB2F7D08389BE
:10A3A000838940F2E93300E00BB30289013B12F0EC
:10A3B000020F9BB2F8D0FF23838140F2E93300E023
:10A3C000ABB10289013B12F0010F9BB2F8D0848936
:10A3D000E4B2AB6813B11A689B881383712C19D04F
:10A3E00008D9AC2C14D0AF2C0ED1092038BD29F0DF
:10A3F00037FDEEE7122C0FD0702C07D1052038BDA9
:10A4000029F02EFD6868CBE7732C03D0002038BDFF
:10A41000072038BD062038BD082038BD0038004070
:10A420002DE9F84F037C02681F2B86BF203B516843
:10A430001168202202FA03F30B4214BF0123002308
:10A440000BB9BDE8F88F4569DFF87092044627F034
:10A45000A3FD4FF4867303FB059306465A7C002A3E
:10A4600030D185495A6809781768C1B9D3F8801086
:10A4700058890A6822F001020A60BB8923EA0003B6
:10A48000BB817E4B1B78002B30D1237C21681F2B96
:10A4900011D8202202FA03F38B60BDE8F88F5269CD
:10A4A000136823F001031360BB8923F480731B043A
:10A4B0001B0CBB81E5E7203B202202FA03F3CB60B3
:10A4C000BDE8F88FD3F880606D485F8901229A74E7
:10A4D00031685A680368156821F001013160AA8962
:10A4E000013322EA0702AA810360CEE74FF48673A4
:10A4F00003FB0593634AD3F88080D8F8003023F03B
:10A500000103C8F800300023C8F800309045C8F8AF
:10A510000430C8F80830C8F80C30C8F810304FF0D4
:10A520002103C8F8143000F08780574B98457ED03F
:10A53000564B984500F08480554B984500F0858037
:10A54000544B984500F08680534B984500F0868028
:10A55000524B984500F08680514B984500F086801C
:10A56000404646F039FF4FF4867A0AFB05FA09EBBC
:10A570000A0501236B74D5F884B027F00DFD3B88E4
:10A58000CBF82C0123F080031B044FF0FF321B0C8F
:10A590003B80FA623B880AF1340143F080033B8040
:10A5A0004944384647F006F9D5E915702B6CD5F8C3
:10A5B00050C0D5E917123B4303430B4313436A6E64
:10A5C0006F6FD8F8000037491343AA6E1343AA6F80
:10A5D0003B43014013430B430022EA64C8F80030B8
:10A5E000D5E91B30D8F81410D5F880206F6C21F015
:10A5F000070103430B43A86C95F87C10C8F814308E
:10A60000C8F804C0C8F80870C8F80C0051606B683E
:10A61000116818686D8941F00101116083892B432D
:10A62000838127F0B9FC204B801B18602DE74FF485
:10A63000746243F8202C96E71C4B3D229A6092E707
:10A640004FF4741243F8382C8DE74FF0746243F8DE
:10A65000502C88E7164A43F8642C84E7154A43F8DF
:10A660007C2C80E7144A43F8942C7CE74FF03D5251
:10A6700043F8AC2C77E700BFC4310010C0310010A4
:10A68000304A0020106002402860024040600240D2
:10A69000586002407060024088600240A060024042
:10A6A000B86002403F801CF0C021001000600240F2
:10A6B0003D000020400F002000003D2094C80020F5
:10A6C00020B10078B0FA80F040097047012070474F
:10A6D000037903F01803082B0AD002D82BB100200D
:10A6E0007047102B14D0182BF9D1B0F80B0070471D
:10A6F0000F4BB0F80B0093F90030591C06BF0D4BFF
:10A700001B78DBB203EB831300EB430080B270478E
:10A71000094BB0F80B0093F900305A1C06BF054BEB
:10A720005B78DBB203EB031300EB430080B27047AE
:10A73000300400203883002031040020F0B5067971
:10A7400006F0E003402B09D144794FF0FF35002398
:10A75000012006F00706A3420BD1F0BD602B08BF15
:10A7600045794FF001040CBF04FA05F54FF0FF35B1
:10A77000EDE7042E0CD8DFE806F0030D18242E00B8
:10A7800030B1C85CD75C784028420CBF0120002063
:10A790000133E0E70028FBD0C856D756A0EB070CE2
:10A7A000DCF1000040EB0C00F2E70028F0D031F8BB
:10A7B000130032F81370784028420CBF01200020AB
:10A7C000E6E70028E4D031F9130032F91370C71B13
:10A7D00078427841DCE70028DAD051F8230052F8BB
:10A7E0002370784028420CBF01200020D0E7024BA4
:10A7F0000146186829F0BABD0C55002038B5064D41
:10A80000441E14F8011F286819B9BDE8384029F022
:10A8100061BD29F0ABFDF4E70C5500200048EDE7E1
:10A820003E2E060808B5FFF7E9FFBDE80840F5E74A
:10A8300010B504460348FFF7E1FF2046BDE810408D
:10A84000F0E700BFB824060808B532B1C30600D54A
:10A8500019B11046FFF7ECFF0022104608BD38B5CD
:10A86000074C084DAC4203D3074B00221A7038BD89
:10A870006288D4E901014EF013FB1434F2E700BF03
:10A88000900100086C0700087454002038B5074C8C
:10A89000074DAC4203D3074B01221A7038BD6288C2
:10A8A000D4E901104EF0FCFA1434F2E790010008EC
:10A8B0006C07000874540020024A136823EA000061
:10A8C00010607047F0DA0020DFED2B7AB4EEE70A73
:10A8D000F1EE10FA4ADDDFED296A9FED297A01E0F9
:10A8E000B0EE670AB4EEC70AF1EE10FA70EE667ABF
:10A8F000F6DC9FED247AF4EEC77AF1EE10FA38D543
:10A90000DFED1E6A9FED207A01E0F0EE407AF4EE72
:10A91000C77AF1EE10FA37EEA60AF6D4DFED1B7A0D
:10A92000B4EEE70AF1EE10FA14DDDFED137A37EE3C
:10A93000C00A60EE006A9FED166A9FED167ADFEDA1
:10A94000167AA6EE867A20EE266AE6EE877AA6EEDC
:10A95000270A7047DFED117AB4EEE70AF1EE10FA3C
:10A9600044BFDFED087A37EEC00AE2E7F0EE407A46
:10A97000BFE7B0EE670AD1E7DB0F4940DB0FC94004
:10A98000E4CB1641DB0F49C0E4CB16C1DB0FC93F56
:10A9900092E741B99730083C15A82ABEDB0FC9BF22
:10A9A000F0EEC07AB0EEE07AB4EEE77AF1EE10FAAB
:10A9B000B4BFB0EE676AB0EE476AB5EE406AF1EE3A
:10A9C00010FA46D0B4EEE77AF1EE10FA8CBFF0EE52
:10A9D000675AF0EE475AC5EE866A9FED1F3A9FED23
:10A9E0001F6A9FED1F4A9FED1F5ADFED1F3ADFEDF3
:10A9F0001F4ADFED1F5AA6EEC36AE6EEA34AA6EE93
:10AA0000864AB7EE006AA6EE845AA6EEA46AE6EE7F
:10AA1000855AC5EE866AB4EEE77AF1EE10FA48BFC1
:10AA2000DFED147AF5EEC00A48BF77EEE66AF1EE84
:10AA300010FA48BFDFED107AB5EEC00A48BF77EED6
:10AA4000E66AF1EE10FA48BFF1EE666AB0EE660A09
:10AA50007047DFED076ADEE739094E3DE3B59E3EFC
:10AA600088FA163E45FE7F3F99FB243F69A2163EB9
:10AA7000A7DFA834DB0FC93FDB0F4940DFED317A98
:10AA800030EE277AFDEEC76A16EE903A2033402B5F
:10AA900002D99FED2D0A7047B4EEE70AF1EE10FAE5
:10AAA0004DDD9FED2A6ADFED2A6A01E0B0EE677A9C
:10AAB000B4EEE67AF1EE10FA77EE467AF6DC9FED28
:10AAC000257AF4EEC77AF1EE10FA35D5DFED1F6A7C
:10AAD0009FED217A01E0F0EE407AF4EEC77AF1EED4
:10AAE00010FA37EEA60AF6D4DFED167AB4EEE70ACE
:10AAF000F1EE10FA1BDCDFED197AB4EEE70AF1EEA5
:10AB000010FA44BFDFED137A37EEC00A60EE006A38
:10AB10009FED136A9FED137ADFED137AA6EE867A26
:10AB200020EE266AE6EE877AA6EE270A7047DFED6A
:10AB30000F7A37EEC00AE9E7B0EE670AD4E7F0EE25
:10AB4000477ABCE7DB0FC93F00000000DB0FC940BC
:10AB5000E4CB1641DB0F49C0E4CB16C1DB0FC9BF04
:10AB600092E741B99730083C15A82ABEDB0F49404F
:10AB700010B44C09012250F8243001F01F0102FAF0
:10AB800001F123EA010340F824305DF8044B7047DB
:10AB900010B44C09012250F8243001F01F0102FAD0
:10ABA00001F10B4340F824305DF8044B704700BFBF
:10ABB0004B0901F01F0150F82320012303FA01F192
:10ABC000114214BF18460020704700BF2DE9F04322
:10ABD000002489B006460D461F46A04605E02529FB
:10ABE0000CD030460134A847039A531C03931178C4
:10ABF0000029F4D1204609B0BDE8F083931CCDE9CB
:10AC000003385078302842D0A0F13003DBB2092B52
:10AC10004FF0000945D96C282AD0642873D019D97F
:10AC2000732858D063D9752840F0828007F1040C4E
:10AC3000386805AB00220A216746FDF7DBFB05AB50
:10AC4000049A009329464B463046FDF7DFF9039AF4
:10AC50000444CAE725283CD051D958286BD0632832
:10AC6000C2D139783046A84704370134039ABCE78B
:10AC7000039B5A1C03921B78642B52D016D8252BA9
:10AC800027D064D9582B18D0632BEAD0ADE7D31C5A
:10AC900003939078A0F13003DBB2092B4FF0010948
:10ACA000B9D804AA03A949F035FEB4E7732B12D032
:10ACB00051D9752B2DD0782B97D1A3F15802B2FA28
:10ACC00082F23868520905AB10210437FDF792FB78
:10ACD000B5E7252185E73B68049A009329460023C0
:10ACE0003046FDF793F904370444039A7DE76E2854
:10ACF0007FF47AAF039A3B6804371C6075E700283D
:10AD00003FF478AF70E7386805A9FDF73DFB0437DD
:10AD100095E7386805AB00220A21FDF76BFB043785
:10AD20008DE73B1D386805A91F46FDF72DFB86E71B
:10AD300078287FF459AFA0F15802B2FA82F238684D
:10AD4000520905AB1021FDF755FB043777E7002BBF
:10AD50003FF450AF49E76E2BCDD046E710B5064C17
:10AD60000B46024605492068FFF730FF2068BDE822
:10AD7000104029F0AFBA00BF0C550020199A000806
:10AD800038B504460D460848FFF738FD29462046E9
:10AD9000FFF7E4FF0548FFF731FD054B1B7813B1C2
:10ADA000044B01221A7038BDBD240608532806083A
:10ADB000B8540020B95400200FB407B504A951F8C5
:10ADC000040B0191FFF7DCFFFFF728FD03B05DF8EE
:10ADD00004EB04B0704713460A4601460048EBE70F
:10ADE000C82406080048E7E7E12406080FB407B5C1
:10ADF00004A951F8040B0191FFF7C2FF03B05DF8FD
:10AE000004EB04B070470FB407B504A951F8040B64
:10AE10000191FFF7A3FFFFF701FD03B05DF804EB1D
:10AE200004B0704713B51A4B1A4C012818BF1C46C2
:10AE30000DF1070201237521204629F069F900B3BD
:10AE40009DF807101448FFF7DEFF01230DF10702FC
:10AE50001A21204629F05CF9A8B19DF807100F4887
:10AE6000FFF7D1FF01230DF107021B21204629F036
:10AE70004FF950B19DF807100948FFF7C4FF02B021
:10AE800010BD0146DEE70146E9E70146F4E700BFF1
:10AE9000F428001064220010ED240608002506089E
:10AEA0001325060838B50B4C207910F0FD0505D1A7
:10AEB0000948FFF7A8FF2846FFF7B4FF2379013BB5
:10AEC000012B06D80548FFF79EFF0120BDE838405A
:10AED000A8E738BD5C67002026250608312506084E
:10AEE000034B044A04491B681268096803488AE74F
:10AEF000187AFF1F147AFF1F107AFF1F3C250608DF
:10AF000038B504464DF03CF80546D8B1104B1B78D7
:10AF100083B110484DF034F8A842024604D12146CE
:10AF20000C484FF00DFB50B10A4A0B490B48BDE8E5
:10AF3000384041E70422214606484FF013FB084BF6
:10AF400001221A7003490748BDE838405BE700BF9B
:10AF500004500020C04F0020502506086025060838
:10AF6000BA5400208A25060838B504464DF008F882
:10AF70000546D8B1104B1B7883B110484DF000F84E
:10AF8000A842024604D121460C484FF0D9FA50B1EC
:10AF90000A4A0B490B48BDE838400DE71422214608
:10AFA00006484FF0DFFA084B01221A7003490748A0
:10AFB000BDE8384027E700BF04500020A84F00201C
:10AFC0009D25060860250608BA540020A825060815
:10AFD0000FB407B504A951F8040B0191FFF7BEFEA9
:10AFE00003B05DF804EB04B070472DE9F04F014663
:10AFF00091B006468548864DFFF705FF854B86498B
:10B00000C3F800D000232B70844B097840241C70B7
:10B0100006220123304616F04BFD0A2027F07CF86B
:10B020002B78DBB20C2B40F2ED809DF80C90B9F13F
:10B03000FE0F2ED0B9F1FF0F15BF0F2415240026E7
:10B0400001269C4240F0DE80611EC9B268463EF097
:10B05000EBFA10AB1C4414F8413C834240F0CE8024
:10B0600006F1FF38B8F1010F9DF80D4013D904F037
:10B070001F07650961374C466948FFF7BFFB022E81
:10B0800071D0013D042D6AD8DFE805F00A5D6169E1
:10B0900065000226D5E79DF80E709DF80F50EBE78E
:10B0A0006048FFF7BFFB6048DFF8D091DFF8D0B110
:10B0B000FFF7A4FB00254FF0030A1DF805104846D2
:10B0C0000135FFF785FF0C2D55D1FFF7A7FB022EA9
:10B0D0005BD06422B4FBF2F102FB11423B46D2B2D8
:10B0E000C9B25248FFF78FFE5FFA88F8B8F1010F36
:10B0F0007BD84F4A4F4B9DF810104F484F4D0029B9
:10B100000CBF11461946FFF77EFE9DF811104C4BFF
:10B110004C4800290CBF29461946FFF774FE022E41
:10B1200063D19DF812404848FFF768FB9CB3FF2CA1
:10B1300041D00A22B4FBF2F102FB1142D2B24348E1
:10B14000FFF761FE2AE04248FFF76CFBABE741489E
:10B15000FFF768FBA7E74048FFF764FBA3E73F481A
:10B16000FFF760FB9FE700230DF11F008DF83F30D4
:10B17000FFF758FB97E795FBFAF303EB43039D4278
:10B180009BD15846FFF73AFB97E73A4621463448A9
:10B19000FFF739FEA8E72846FFF744FB9DF8134068
:10B1A0003048FFF72BFB54B1FF2C21D021462E480D
:10B1B000FFF729FE06E02D48FFF734FBEEE71F48B6
:10B1C000FFF730FB1D4D1E4E284F00240DEB0403EE
:10B1D0001A7D8AB1FF2A14BF32463A4621462448D6
:10B1E0000134FFF710FE042CF0D111B0BDE8F08F50
:10B1F0001E48FFF717FBE5E72A46EFE71D48FFF774
:10B20000DBFDF2E71C48FFF70DFBEEE7D62506084D
:10B21000FE7F0020F07F00207C300010FF7F0020A8
:10B22000E7250608F2250608202606083726060820
:10B23000BF250608B62506086E260608C625060898
:10B24000A03D0608852606088C260608A0260608C6
:10B25000F925060801260608092606081826060804
:10B2600053260608A826060899270608CA250608B0
:10B27000B8260608C3260608D3260608322606087E
:10B280005597060830B52C4885B0FFF7B7FA44F05B
:10B290005DFB28B9294805B0BDE83040FFF7C2BAC8
:10B2A00044F044FB08B92648F5E7264B1B68DB69E8
:10B2B00098470028F7D044F033FB0268037D81797A
:10B2C0000446407C0290207C0190608A00905208E5
:10B2D0001D48FFF77DFEE51D0C3415F8010BFFF747
:10B2E00086FAAC42F9D1194C1948FFF787FA62780F
:10B2F000032A06D8DFE802F00E0E0A021548FFF70F
:10B300007DFA05B0BDE83040FFF788BA1248FFF774
:10B3100075FAF6E71148FFF771FA41F2B413E35CEE
:10B32000022B05D0032BECD10D48FFF767FAE8E7B5
:10B330000C48FFF763FAE4E7DC260608E626060871
:10B34000F426060870C2002003270608FCDE002051
:10B35000312706084127060847270608542706080C
:10B36000732706085A2706082DE9F843037903F0E6
:10B37000E001202928D002D849B1BDE8F88340294E
:10B3800046D06029F9D12548BDE8F8433BE503F0F4
:10B390000703022B02D0042B08D06BB9B0F80720AA
:10B3A000B0F805101E48BDE8F8432CE5D0F805209C
:10B3B0001B48BDE8F84326E5B0F90720B0F90510B1
:10B3C0001748BDE8F8431EE54579164E1648FFF7C5
:10B3D00015FA06EBC502002492F804800123A0456B
:10B3E00003D8BDE8F843FFF719BA56F8357057F897
:10B3F00024204FEA84094AB113B90C48FFF7FEF93B
:10B4000057F809100A48FFF7E3FD00230134E6E787
:10B4100041790848BDE8F843F5E400BFC1270608B4
:10B420008527060804CE05089C270608AD270608D0
:10B4300040370608B02706082DE9F0411746027983
:10B4400002F0E003402B05460E462BD10024584F56
:10B45000DFF8808115E02B7903F00703022B15D06C
:10B46000032B19D0012B14BF315D31573846FFF73C
:10B47000AFFD6B79013BA34202DD4046FFF7BEF909
:10B4800001346B79A342E6DCBDE8F08136F8141094
:10B490003846FFF79DFDECE736F914103846FFF704
:10B4A00097FDE6E702F00702042A5DD8DFE802F024
:10B4B000031D25272A003478202B3AD06DD8002B85
:10B4C000E2D1B5F80560B5F8078039482146FFF7A5
:10B4D0007FFDB44240DB44453EDC002FD4D04246E1
:10B4E00031463448BDE8F04172E596F90040202B22
:10B4F0001FD052D8002B3DD0C6E73488DCE7B6F920
:10B500000040F4E7D6F80080202B444611D044D800
:10B51000002BB9D141462648FFF75AFDD5F8051052
:10B52000884519D8002FAFD02348BDE8F0414FE53A
:10B5300000246A79214B03EBC2010979A1420BDD9A
:10B5400053F8323053F82400BDE8F041FFF756B904
:10B550001B48BDE8F0413BE5FFF760F9224629684A
:10B560001848BDE8F04141E4202BE1D007D8002B7A
:10B570008AD11C46B5F90560B5F90780A5E7602BAF
:10B58000E6D0802B80D131780F4B1048002914BFB2
:10B5900031461946BDE8F0411AE5602BF1D16A79D0
:10B5A0001441E307D4D50A48BDE8F04110E500BFD7
:10B5B0009927060886280608DB27060804CE050812
:10B5C000FD960608E1270608559706084037060845
:10B5D000D6270608D92706080CB407B510F02000B6
:10B5E0000BD079B92320FFF702F905A9049801913E
:10B5F000FFF7B4FBFFF712F9012003B05DF804EB8D
:10B6000002B070470020F8E70CB4C30607B500D5B8
:10B6100061B905A904980191FFF7A0FBFFF7FEF8B7
:10B62000012003B05DF804EB02B070470020F8E79A
:10B630002DE9F04F87B00E4692460021119A254F12
:10B6400099460546FFF700F986EA0A0A6FEA0A03F7
:10B6500080460024059320461FF0C8FC109B18422A
:10B6600031D0059B1C4ADFF874B0034014BF4FF083
:10B67000010A4FF0000A039310EA060304934FF007
:10B680000C0303FB042351469B68029314BF3A4604
:10B690005A46009328464B46FFF79EFF039BB3FA9A
:10B6A00083F1424649092846FFF7CEF8049A029BE7
:10B6B000009380464B46002A14BF5A463A465146EC
:10B6C0002846FFF7A1FF0134182CC4D107B0BDE80C
:10B6D000F08F00BF68290608040A0608FB27060841
:10B6E00070B506464CF04CFC164D044698B111223C
:10B6F000002128464EF0F8FE2246134930464EF00F
:10B700001FFFD8B1102C2246314628BF10222846F0
:10B710004EF028FF01242B780A4A002B08BF012194
:10B72000094B1CBF002113460120084AFFF76CFF9C
:10B7300034B10748BDE87040FFF774B80124EAE768
:10B7400070BD00BFA48C002055970608022806088B
:10B750000F2806082DE9F04F89B00C46079200210A
:10B760001A468146FFF770F80026079D8346B246C9
:10B770004FF019084FF46177079B43B3294606221F
:10B7800020464EF089FE00285A4614BF01210021B0
:10B7900048460CBF4FF0010A4FF0000AFFF754F87B
:10B7A0006B791A4A18FB037305932B7918FB037303
:10B7B0000493EB780393AB7802936B7801932B7827
:10B7C00000938346334651464846FFF705FF6379A9
:10B7D0000E4A18FB03730593237918FB0373049334
:10B7E000E3780393A37802936378019314F8063BFC
:10B7F00000935146334648460136FFF705FF0A2EAF
:10B8000005F10605B8D109B0BDE8F08F5728060844
:10B810002DE9F04F8A468DB0164600211A4605469E
:10B82000FFF712F8364F81460024C4EBC4030AEB3D
:10B830000302106891889279089040F30748ADF8A8
:10B8400024108DF82620B8F1000F54D0002E55D0CA
:10B8500033440AA918689A880A909B79ADF82C207D
:10B8600008A807228DF82E304EF016FE00284A4612
:10B8700014BF0121002128460CBF4FF0010B4FF0EF
:10B88000000BFEF7E1FF9DF82E3006939DF92D3059
:10B8900005939DF92C3004939DF82B3003939DF96B
:10B8A0002A3002939DF8293001939DF828300093A7
:10B8B000814623463A4659462846FFF78DFE9DF8B5
:10B8C000263006939DF9253005939DF92430049385
:10B8D0009DF82330CDE902839DF8213001939DF836
:10B8E000203000933A462346594628460134FFF754
:10B8F0008BFE102C99D10DB0BDE8F08FB346DEE77A
:10B90000702806082DE9F04F8946174689B01A4677
:10B9100000210646FEF798FF4D4683463C464FF011
:10B920000008002F7ED021460C2228464EF0B4FDA0
:10B9300000285A4614BF0121002130460CBF4FF0A9
:10B94000010A4FF0000AFEF77FFF94F90B300493D1
:10B9500094F90A300393B4F908300293B4F906302D
:10B960000193B4F90430009383464346394A514663
:10B970003046FFF731FE95F90B30049395F90A3004
:10B980000393B5F908300293B5F906300193B5F980
:10B99000043000932F4A43465146304608F10108CF
:10B9A000FFF732FEB8F1080F05F10C0504F10C04A5
:10B9B000B7D10024DFF8A0A02546AFB34FF00008B0
:10B9C000012303FA08FB3A5959F8043053403BEA83
:10B9D000030314BF0123002312EA0B0F079307D0C0
:10B9E000CDF800802B46524607993046FFF7F4FD0C
:10B9F00059F804301BEA030F07D0CDF800802B461E
:10BA0000524607993046FFF7FFFD08F10108B8F1EB
:10BA10000E0FD5D10135082D04F10C04CDD109B09C
:10BA2000BDE8F08FBA46A6E7B846012359F80420CE
:10BA300003FA08F3134207D0CDF800802B46524694
:10BA400001213046FFF7E0FD08F10108B8F10E0FC3
:10BA5000EBD1DFE78D280608A52806082DE9F04F71
:10BA600087B0144603911A4600210546FEF7ECFE06
:10BA7000DDF80CA00746A1464FF0000800260AEBAF
:10BA8000060393F8C0300493002C00F08A8009EB81
:10BA90000603049A93F8C03005939A4218BF012117
:10BAA0003A4608BF002128460CBF4FF0010B4FF06B
:10BAB000000BFEF7C9FE059B3C4A0746CDE9006333
:10BAC000594643462846FFF787FD049B374ACDE990
:10BAD00000635946434628460136FFF795FD062E7A
:10BAE000CDD108F10108B8F1060F0AF1060A09F1F3
:10BAF0000609C3D1039BDFF8B4B003F1E40A0026C2
:10BB00001AF8019B002C4ED0A3193A4693F8E43062
:10BB10000493994514BF0121002128460CBF4FF022
:10BB200001084FF00008FEF78FFE049B0746CDE9A1
:10BB300000635A46062341462846FFF74DFDCDE9EE
:10BB400000690623194A414628460136FFF75CFD85
:10BB50000B2ED5D1039B93F8EF60B4B194F8EF802E
:10BB600046453A4614BF0121002128460CBF012456
