:020000040800F2
:10000000F0FF00108D3C05088D470208B1EA010899
:100010002D3D05082D3D05082D3D0508000000007B
:1000200000000000000000000000000099470208E6
:1000300095470208000000009147020815EB0108EF
:100040002D3D05082D3D05082D3D05082D3D0508D4
:100050002D3D05082D3D0508E52E04081130040846
:10006000D52F0408992F04085D2F0408D1EF00084C
:10007000C1EF0008B1EF0008A1EF00088DEF000804
:1000800079EF000865EF00082D3D05082D3D0508B6
:100090002D3D05082D3D05082D3D0508212F04089F
:1000A00089CD010825D30108B9CC0108F5D3010891
:1000B00065D20108A5D10108D9D00108ED030108D6
:1000C000F5030108E1030108E90301082D3D0508D6
:1000D0002D3D0508B5EE010819EE01087DED01087A
:1000E000A92E04082D3D0508AD910208E9CB0108B1
:1000F00059CE010819CB010839CF010851EF00088A
:100100002D3D05082D3D050809D001082D3D0508A8
:10011000E1EC010845EC010861FF02084DFF02080F
:100120003DEF000829EF000815EF000801EF000877
:10013000EDEE00082D3D05082D3D05082D3D050877
:100140002D3D05082D3D05082D3D05085562020889
:10015000D9EE0008C5EE0008B1EE0008A9EB0108D1
:10016000D5030108DD0301082D3D05082D3D0508D7
:100170002D3D05082D3D05082D3D05082D3D0508A3
:080180002D3D05082D3D050889
:080188003438050001000000FD
:1001900010020100EC200020E820002000000000F8
:1001A0006C0700081F02100000210020F020002032
:1001B00000000000658500082C001000F44C0020B1
:1001C000E44C002000000000FF2801082B00240060
:1001D000284D0020044D002000000000D128010817
:1001E00029207800D04B00204C4D0020000000005A
:1001F0000000000028101000D44D0020C44D002045
:1002000000000000C10D01081C0210000048002081
:10021000E44D002000000000B1830008140003003A
:10022000344B0020F44D0020000000006E07000851
:1002300010100200A4490020F84D0020000000002A
:1002400072070008190005009C490020FC4D0020A1
:100250000000000074070008F821060094490020FF
:10026000044E0020000000007A07000801200C0066
:100270003C4300200C4E00200000000080070008D6
:100280000A702800A8420020184E0020000000003C
:10029000650D01080EB0860120410020404E00206F
:1002A00000000000D5AF0408010104007C400020DC
:1002B000C84F002000000000000000000001040002
:1002C00074400020CC4F0020000000008C07000884
:1002D0000201030070400020D04F00200000000009
:1002E000FD9A02081A023C008C5000200C55002098
:1002F00000000000458F0008270004008450002003
:100300004855002000000000900700083810010048
:10031000E04F00204C55002000000000940700082A
:100320000B301A00E06700208470002000000000FD
:10033000980700081F302400185F0020A0700020DC
:1003400000000000B407000805020400986A0020BD
:10035000C470002000000000D807000803010A0054
:10036000405F0020C870002000000000DC0700088B
:10037000130204007C5D0020D47000200000000007
:10038000E60700080702020080870020A4870020FB
:1003900000000000EC070008F6210C005887002040
:1003A000A887002000000000F007000802000C00F1
:1003B0004C870020B48700200000000000000000EF
:1003C00006020C0040870020C087002000000000CB
:1003D000E18F000808120F00C0860020CC870020A3
:1003E00000000000F5840008F7010600B486002034
:1003F000DC87002000000000FC0700081D0202004E
:10040000B0860020E48700200000000002080008F9
:100410000A020A005C840020E88700200000000037
:10042000F99C02080300010000840020F4870020EA
:10043000000000000000000003123D007086002054
:10044000F8870020000000000408000825102C0197
:100450009084002038880020000000000000000088
:100460002202140130A00020BCA2002000000000E5
:10047000959100080C20CC00789E0020D0A300208D
:1004800000000000C19A020801020500509E0020F1
:100490009CA4002000000000554003080002050055
:1004A000489E0020A4A400200000000000000000DE
:1004B0001B0210001C9E0020ACA4002000000000C5
:1004C000D98300081E000600749B0020BCA40020F5
:1004D00000000000440800081B100C008C8B00205A
:1004E000C4A4002000000000995503082102F00078
:1004F0000C8A0020D0A4002000000000ED4E03086C
:1005000023121000889F0020C0A5002000000000DA
:100510004C08000805100600809F0020D0A5002090
:10052000000000005C08000837102800A49D00208F
:10053000D8A5002000000000620800080E0202009A
:100540007C9F002000A60020000000008A08000810
:10055000161006006C89002004A600200000000090
:100560008C0800082F10220098A200200CA6002062
:10057000000000009208000823100E00BC9A002022
:1005800030A6002000000000D90D0108F5519000B0
:100590007489002040A60020000000009D8603080A
:1005A0000D003C00BCD3002068D4002000000000F7
:1005B00005AB03080902010028D30020A4D40020C1
:1005C00000000000B408000804008000A8D2002049
:1005D000A8D4002000000000000000001300040068
:1005E00094D2002028D5002000000000B8080008A0
:1005F000FD011E0074D200202CD500200000000058
:1006000001AE01081820300040D200204CD5002057
:1006100000000000F590000806101A0020C000201D
:100620007CD5002000000000F5B00408FB010100AB
:100630001CC0002098D5002000000000699100082F
:10064000FC010900E8BE00209CD50020000000004D
:100650007991000816023F00A8BE0020A8D500200E
:10066000000000001584000834001000D8BD0020F0
:10067000E8D5002000000000C9B0040812120400F0
:10068000D0BD0020F8D5002000000000BC08000804
:1006900012201000C0BD0020FCD50020000000008A
:1006A000C0080008F901040034BA00200CD600206C
:1006B0000000000025FC0308FA0102001CB4002021
:1006C00010D60020000000008586000811020800F6
:1006D000E4B3002014D6002000000000D008000879
:1006E0000202030038A900201CD6002000000000F0
:1006F000000000000C020400F4A8002020D6002016
:10070000000000004D850008FE011400C0B3002069
:1007100024D6002000000000ED8300081A000E001F
:1007200040DB002080DC002000000000D80800082A
:1007300020320A0014DA002090DC002000000000C3
:10074000B5AF04081500700004D800209CDC002020
:1007500000000000000000002A00600008DC00200B
:0C0760000CDD0020000000008DAF04083C
:10076C000000030000000005000028010000040147
:10077C00F4011400E8036400040A000114001E00D4
:10078C00900100002003000000000000AE014A01AF
:10079C005E012C0164010100000001000A019A01B4
:1007AC00001E0A0000000000000000000001000014
:1007BC000005000001020300000000000000000022
:1007CC000000000000000000008007000000000096
:1007DC00040101006C160000000000000100000084
:1007EC00033C0000000000000100000002020000B9
:1007FC0033010000000000000000000000000000B9
:10080C0000000000000000000000000000000000DC
:10081C0000000000000000000000000000000000CC
:10082C0000000000000000000000000000000000BC
:10083C0000000000010000000000010000000000AA
:10084C00000000000000000000000000000000009C
:10085C0020000301000020003200C800D0079600E1
:10086C00140032002800B0044006000550001400AB
:10087C000F00080064000100000005000A000000E1
:10088C00C409000019000000000000000000000076
:10089C00000000000000000000000000000000004C
:1008AC0000000000000000002000000008004430A0
:1008BC00FFFFFFFF0000000100000552414345000F
:1008CC000008000030380000010101017E05EA0536
:0A08DC00B4053200E803D007000065
:1008E6001A030000000000000000000000000000E5
:1008F60000000000000000000000000004030904DE
:100906001201000200000040830420570002010289
:10091600030100006DBD0008E1850008DD850008C3
:10092600D9850008DD910008D5850008D185000825
:10093600EC5705082D4902080D2E02086D540208D1
:100946000000000000000000715102088D500208EE
:100956000000000000000000000000004529020819
:10096600798600086D860008819700089D97000823
:100976002586000865970008499700080068214CFD
:100986001F0000001C0000001F0000001E000000E9
:100996001F0000001E0000001F0000001F000000D6
:1009A6001E0000001F0000001E0000001F000000C7
:1009B600FF01FF000000040100000000000000022B
:1009C600100000000700000000000000000000000A
:1009D600010203040607080901000000DD040108FE
:1009E6000000000088620508FFFFFFFFD601000037
:1009F600B80B00000101010000010101002D202DAE
:100A06002D202D2D2D2D202D2D2D00000000000038
:100A160000000000000000000000000000000000D0
:100A2600000000008C7605080000000000000000B1
:100A36001877050801000000FA0000000100000018
:100A46000100000001010000384300200000F4010D
:100A560001000000364300200000F4010100000000
:100A6600344300200000F40101000000324300205E
:100A76000000F40101000000304300200000F401F2
:100A8600010000002E4300200000F40101000000D8
:100A96002C4300200000F40101000000ED0B0108CA
:100AA600B10B010834640508224300200532010019
:100AB60020430020E803D007010000001E43002069
:100AC600E803D007010000001C430020E803D0071C
:100AD600010000001A4300201E00B80B01000000B0
:100AE6002843002005000F00010000002A430020D3
:100AF60003000A0001000000184300201E00F40154
:100B060001000000164300201400640001000000EC
:100B1600244300203200E8030100000014430020B3
:100B26000000C80001000000EE42002000C80100DD
:100B3600ED42002000500100EC420020005A010066
:100B4600EA42002002000000C0640508E0DB050858
:100B5600E8DB050852D400200100C40900000000AB
:100B660050D400200100C409000000004ED400202B
:100B76000100C409000000004CD400200100C40993
:100B86000000000048D400200100C4090000000055
:100B96004AD400200100C4090000000046D4002009
:100BA6000100C4090000000044D400200100C4096B
:100BB600000000009540002000C80100944000207D
:100BC60000C80100924000200100C800010000009A
:100BD6009040002032003075320000008E40002028
:100BE600055A05008B40002000FF01008D400020C3
:100BF60001000000F40300208940002003000000EB
:100C06006C8B05088A40002000FF01008C40002004
:100C160001000000F40300208840002003000000CB
:100C26006C8B0508550B0108F90A0108CC64050808
:100C36004C430020EE02CA08010000004A4300208F
:100C460000C80100640000004943002000C80100FC
:100C5600640000004843002002000000AC6505085F
:100C66008240002080C1803E0500000080400020B8
:100C760080C1803E050000007A40002080C1803E91
:100C8600050000007840002080C1803E050000007D
:100C96007340002000FF01006C4000206400F40156
:100CA600010000006B40002004000000B865050844
:100CB6006A40002002000000CC6505080F410020B4
:100CC6000D000000D86505080C41002000640100F5
:100CD6000A410020320010270A00000009410020C6
:100CE6000D000000D8650508084100200D00000031
:100CF600D8650508074100200200000010660508B7
:100D060000000000000000001C660508506A002074
:100D16009CFF2C010000000024470020E0150C1762
:100D26000000000026470020020000005466050867
:100D3600584300200100FF7F0100000057430020B8
:100D46000200000060660508114100200300000053
:100D56007066050810410020030000007066050853
:100D6600DC4200200000E80301000000DA42002017
:100D76000000E80301000000D84200200000E8035C
:100D860001000000D64200200000E8030100000038
:100D9600D44200200000E80301000000D2420020F7
:100DA6000000E80301000000D14200200014010009
:100DB600D04200200300000080660508E8420020BB
:100DC6000000F40101000000E64200200000F401EA
:100DD60001000000E44200200000F40101000000D0
:100DE600E24200200000F40101000000E042002081
:100DF6000000803E01000000DE4200200000803E30
:100E06000100000001430020196401000043002096
:100E16000200000090660508FE420020E803D007A5
:100E26000A000000FC420020006401000A000000E5
:100E3600F142002000640100F0420020006401003D
:100E4600F8420020006401000A000000F74200207A
:100E5600006401000A000000F64200200064010060
:100E66000A000000FB420020006401000A000000A6
:100E7600FA420020006401000A000000F942002046
:100E8600006401000A000000F542002001FF010095
:100E96000A000000F442002001FF01000A000000E1
:100EA600F342002001FF01000A0000001A41002061
:100EB6000000F40101000000184100200000F401C8
:100EC60001000000164100200000F40101000000AE
:100ED600144100200000F40101000000124100202E
:100EE6000000F401010000006747002000C801006F
:100EF6006647002000640100654700200064010089
:100F0600644700200064010063470020006401007C
:100F160062470020FF0801006147002001640100CC
:100F2600610A0108250A01089C6605086047002039
:100F3600006401005E4700201400E8030100000081
:100F46005C470020E80330750A0000005A4700207D
:100F560000C801005947002000C80100584700207A
:100F660000C8010057470020006401000A00000085
:100F7600764700200000D0070100000070470020DF
:100F860000C801006F47002000C801006E4700201E
:100F960000C80100744700200000D00701000000CF
:100FA6006D47002000C801006C47002000C8010002
:100FB6006B47002000C80100724700200000D007E0
:100FC600010000006A47002000C8010069470020B0
:100FD60000C801006847002000C8010000000000AA
:100FE600190801080C6705080541002039000000B2
:100FF600A86705080441002000C80100024100203E
:10100600E803D0070100000046465F5241434550C1
:10101600495400008740002000030100864000205C
:101026000003010065070108290701089068050803
:10103600E50601089906010800690508A1070108E7
:10104600F12D010880690508844000200103010094
:10105600550C0108290C0108846C050829060108AD
:10106600E9050108F46C05082F0801080D2E010892
:10107600906D0508FD29010800000000386E05087E
:1010860065320108B50C0108D46E0508810801080F
:1010960000000000546F05085909010805090108F8
:1010A600B86F0508E9090108AD090108547005087B
:1010B60089A601089D0A0108D4700508134300207B
:1010C60001060100C908010895080108D071050844
:1010D600EFA50108CD2E010840720508D1A601082A
:1010E600652F01083C730508124300200103010027
:1010F600E9070108B907010810740508810C010801
:10110600000000007474050869060108C12D010875
:10111600D87405080000000000000000647505088A
:10112600D10A0108DD2F0108E47505086640002094
:1011360088136F17010000006840002088136F179E
:1011460000000000A25F0020000000000000000078
:10115600A05F002000000000000000009E5F00204D
:1011660000000000000000009C5F0020000000005E
:10117600000000009A5F0020000000000000000050
:10118600985F00200000000000000000040D002011
:1011960000000000000000003C40002002000000AB
:1011A6006C7705086440002088136F170100000063
:1011B600906A002088136F17000000007D05010863
:1011C600000000007877050856470020010000005F
:1011D600CC770508926A002001000000D877050840
:1011E600886A002002000000E07705080000000081
:1011F60000000000EC770508690501080000000002
:10120600887805080000000000000000DC7805086A
:1012160000000000000000004C7905088C6A0020E0
:10122600E0150C170000000001000000A00F0000F0
:10123600B80B00000102FFFF0100000004030904CF
:1012460012010002EF02014083045632000201023D
:10125600030100001201000202020040830440570D
:10126600000201020301000009022000010104C07E
:1012760032090400000208065005070581024000F5
:10128600000705010240000009026400030100C0D6
:1012960032090400000103000000092111010001C8
:1012A6002226000705830308000A080B0102020232
:1012B60001000904010001020201000524001001D9
:1012C6000524010002042402020524060102070582
:1012D60082030800FF09040200020A000000070555
:1012E6000102400000070581024000000902430098
:1012F600020100C0320904000001020201000524B7
:101306000010010524010001042402020524060040
:1013160001070582030800FF09040100020A000014
:101326000007050102400000070581024000000099
:10133600FF000000C47F0508000000000000000058
:101346000000000000000000000000000000000097
:1013560000000000000000000000000000FFFF0089
:1013660000000000AA55050100000100987F05084D
:101376000000000000000000000000000000000067
:101386000000000000000000000000000000000057
:1013960000000000FF1FFF1F05010905A101A100B4
:1013A6000501093009310932093309350934094083
:1013B60009381581257F750895088102C0C000008F
:1013C60009022200010100E03209040000010301C4
:1013D60002000921110100012226000705830308E6
:1013E600000A0000000000000102030401020304D9
:1013F60006070809D1530208D55202082D570208DC
:10140600092A0208812F0208192A0208352A020829
:10141600E1290208D12902080000000000000000AE
:101426002D202D2D202D2D2D2D202D2D2D2D000067
:10143600000000000000000000000000000000AAFC
:10144600550B010000AA5507010000AA5509020024
:101456000000AA5503009F0001000000C012000012
:1014660058700020000000007C7000200000000082
:101476000000803FFFFFFFFF0000803F00000000EC
:101486000000000000000000FFFFFFFFFF0000005B
:10149600FCF8050808F9050814F9050820F90508F7
:1014A6002CF9050838F9050840EC0508001E060861
:1014B600301D06089805060890470608E802060843
:1014C600F0F80508F4F80508F8F8050844F90508E1
:1014D60048F905084CF90508981B060850F905084F
:1014E6001900C800F401200300000100E00100001B
:1014F600FFFFFFFF080101FFFFFF000000000000E3
:101506000CA800200800000000000000FCA7002036
:1015160008000000652F0208512E0208095702082C
:1015260000000000CD290208C1520208A12D0208C0
:101536003952020800000000000000008929020854
:101546001D290208112902083D48020859480208C7
:101556002148020805480208E94702081D2F02082B
:101566002D2E02084956020800000000A129020893
:101576003D520208752D020899510208000000002C
:101586000000000095290208FFFF0000FFFFFFFF93
:10159600E84206080000080205030300F0420608B8
:1015A600010008020504030070FA05080200FE01A6
:1015B6000110030028E005080300140200030000E0
:1015C600F842060804001F0201000800004306084E
:1015D60005001F0201010800080000000D2902088D
:1015E6000929020805290208F9280208F52802082F
:1015F60001290208FD2802080100000000600240DF
:10160600106002400000000000000000000B000017
:101616000000000000000000000000000060024022
:10162600286002400100000000000000060C0000D7
:101636000000000000000000000000000060024002
:10164600406002400200000000000000100D000093
:1016560000000000000000000000000000600240E2
:10166600586002400300000000000000160E000053
:1016760000000000000000000000000000600240C2
:10168600706002400400000000000000200F00000F
:1016960000000000000000000000000000600240A2
:1016A60088600240050000000000000026100000CF
:1016B6000000000000000000000000000060024082
:1016C600A06002400600000000000000301100008B
:1016D6000000000000000000000000000060024062
:1016E600B86002400700000000000000362F00002E
:1016F600000000000000000000000000006402403E
:1017060010640240000000000000000000380000E5
:10171600000000000000000000000000006402401D
:1017260028640240010000000000000006390000A5
:1017360000000000000000000000000000640240FD
:10174600406402400200000000000000103A000061
:1017560000000000000000000000000000640240DD
:10176600586402400300000000000000163B000021
:1017760000000000000000000000000000640240BD
:10178600706402400400000000000000203C0000DD
:10179600000000000000000000000000006402409D
:1017A6008864024005000000000000002644000096
:1017B600000000000000000000000000006402407D
:1017C600A064024006000000000000003045000052
:1017D600000000000000000000000000006402405D
:1017E600B864024007000000000000003646000012
:1017F600000000000000000000000000844306080E
:101806009402060800000000CDA80308A086010087
:1018160004000000000000000000000000000000BE
:1018260000000000000000000000000000000000B2
:1018360000000000000000000000000084430608CD
:10184600A4470608000000009DAC0108E80300005C
:10185600040000000000000000000000000000007E
:101866000000000000000000000000000000000072
:10187600000000000000000000000000B8E30508BA
:10188600141C060800000000F5A402087D000000F4
:10189600060000000000000000000000000000003C
:1018A6000000000000000000000000000000000032
:1018B600000000000000000000000000D4420608FE
:1018C60000000000000000006DE00108E8030000D1
:1018D60003000000000000000000000000000000FF
:1018E60000000000000000000000000000000000F2
:1018F600000000000000000000000000AC470608E1
:1019060000000000000000003D0A05081027000046
:1019160003000000000000000000000000000000BE
:1019260000000000000000000000000000000000B1
:10193600000000000000000000000000F44206085D
:10194600000000007D25010879AE01085F760000E1
:10195600050000000000000000000000000000007C
:101966000000000000000000000000000000000071
:1019760000000000000000000000000030460608DD
:101986000000000000000000C91F02081027000028
:101996000100000000000000000000000000000040
:1019A6000000000000000000000000000000000031
:1019B600000000000000000000000000B847060814
:1019C6000000000000000000A1AC0108E8030000D0
:1019D60005000000000000000000000000000000FC
:1019E60000000000000000000000000000000000F1
:1019F600000000000000000000000000C4470608C8
:101A0600000000000000000015AF0308204E000093
:101A160003000000000000000000000000000000BD
:101A260000000000000000000000000000000000B0
:101A3600000000000000000000000000D447060877
:101A4600000000000000000009A90308204E000065
:101A5600030000000000000000000000000000007D
:101A66000000000000000000000000000000000070
:101A7600000000000000000000000000E447060827
:101A860000000000000000009DC10108400D030099
:101A9600030000000000000000000000000000003D
:101AA6000000000000000000000000000000000030
:101AB600000000000000000000000000700406089E
:101AC6000000000000000000D1D10308102700002C
:101AD60001000000000000000000000000000000FF
:101AE60000000000000000000000000000000000F0
:101AF600000000000000000000000000CCFF050808
:101B06000000000000000000C96003081027000064
:101B160003000000000000000000000000000000BC
:101B260000000000000000000000000000000000AF
:101B360000000000000000000000000014DF05089F
:101B460000000000000000009DAB0108A861000035
:101B5600010000000000000000000000000000007E
:101B6600000000000000000000000000000000006F
:101B7600000000000000000000000000F447060816
:101B86000000000000000000D5A50308A0860100A3
:101B9600010000000000000000000000000000003E
:101BA600000000000000000000000000000000002F
:101BB600000000000000000000000000900406087D
:101BC600000000000000000005F00108A00F000062
:101BD60001000000000000000000000000000000FE
:101BE60000000000000000000000000000000000EF
:101BF6000000000000000000000000000048060889
:101C06000000000000000000D5A003081027000017
:101C160001000000000000000000000000000000BD
:101C260000000000000000000000000000000000AE
:101C360000000000000000000000000040EB050866
:101C46000000000000000000818003081A41000027
:101C5600010000000000000000000000000000007D
:101C6600000000000000000000000000000000006E
:101C7600000000000000000000000000D4DE05089F
:101C860000000000000000003932020810270000A2
:101C9600010000000000000000000000000000003D
:101CA600000000000000000000000000000000002E
:101CB600000000000000000000000000A802060866
:101CC6000000000000000000353C01081A41000039
:101CD60001000000000000000000000000000000FD
:101CE60000000000000000000000000000000000EE
:101CF6000000000000000000000000000C4806087C
:101D0600000000000000000021380208400D03001A
:101D160000000000000000000000000000000000BD
:101D260000000000000000000000000000000000AD
:101D36000000000000000000000000001448060833
:101D4600000000000000000059AB0108400D030030
:101D5600000000000000000000000000000000007D
:101D6600000000000000000000000000000000006D
:101D76000000000000000000000000001C480608EB
:101D86000000000000000000858D030850C300001D
:101D9600030000000000000000000000000000003A
:101DA600000000000000000000000000000000002D
:101DB600000000000000000000000000284806089F
:101DC6000000000000000000E1AE030840420F00E2
:101DD60000000000000000000000000000000000FD
:101DE60000000000000000000000000000000000ED
:101DF6000000000000000000000000003448060853
:101E0600000000000000000079AC030850C3000089
:101E160000000000000000000000000000000000BC
:101E260000000000000000000000000000000000AC
:101E36000000000000000000000000000000803FDD
:101E46007D0000000000803F000000000000000050
:101E5600000000000000803F0000000000000000BD
:101E6600000000000000000000000000000000006C
:101E76000000000000000000000000000000803F9D
:101E8600000000000000000000000000010000004B
:1080000003685A1C02601970704700BF2DE9F047E1
:10801000089C2578002B804689460CBF4FF0200A2B
:108020004FF0300A661C25B3002A26DD334601E0F6
:10803000024698B113F8011B501E0029F8D1971E73
:1080400060B13D46013D51464046C8476B1C002B80
:10805000F8DC257827EAE770013045B1041B294692
:108060004046C847301916F8015B002DF7D1BDE82E
:10807000F087002A03DC2846F9E70020EEE7571EC8
:10808000DFE700BF2DE9F04714461D4606464FF4D2
:108090007A720023204629464BF02CFC4D4BDFF82A
:1080A00048814D4A4D4F034488FB03101844D917AB
:1080B00082FB032CC1EB601088FB002887FB0327A1
:1080C0009C44474AC1EBEC2CC0EB001E82FB0C2900
:1080D000A3EB8E0E1F44434A86F806E0C1EB274708
:1080E0004FEAEC7E08EB000ACEEBA90E82FB07827A
:1080F0004FEAE0780EEB4E0EC8EB6A18ACEBCE0CF4
:10810000C8EB0818DFF8E4E086F804C0A0EB8800AC
:1081100070718EFB0303F817C0EBE21240F2B5500A
:1081200000FB1272C1EBE353B2F5896F4FEA83078C
:108130003CDA40F2DA239A4242DCB2F5B77FB4BFB0
:108140004FF0000E4FF0010E4FEA4E09DFF8A0800D
:1081500009EB0E0308EBC3031FFA8EFCD88A09EB68
:108160000E0108EBC10116310B2301E031F8020DBD
:10817000904218DD013BF9D1CE44012338F83E008E
:10818000B37007F5FA670132121ABC44F270A6F810
:1081900000C0204629464FF47A7200234BF0AAFB18
:1081A0003281BDE8F0870133DBB2E9E74FF0030C21
:1081B000E64640F29650DFF838804FF00609CEE7E9
:1081C0004FF0020CDFF82880E64640F229404FF0DD
:1081D0000409C4E780BC92C7C5B3A29107452EC26B
:1081E000ABAAAA2A73B06D1689888888792D0311E5
:1081F000205505080028F0B403DA2D230B70404207
:108200000131092804464FF0010307DD03EB830326
:108210005B00B0FBF3F2092AF8D883B10F48A0FB4A
:108220000326B4FBF3F2092A02F1570C02F13007DE
:1082300009DD03FB1244F30801F801CBEFD1002361
:108240000B70F0BC704703FB1244F30801F8017B8C
:10825000E5D100230B70F0BC704700BFCDCCCCCC77
:10826000884270B44FF0010442D301FB04F4B0FB28
:10827000F4F58D42F9D2ECB142BB092D04FB150097
:1082800005F1570605F130020EDDB4FBF1F403F8F9
:10829000016B7CB1B0FBF4F5092D04FB150005F171
:1082A000570605F13002F0DCB4FBF1F403F8012BC2
:1082B000002CEFD100221A7070BC704703F8016BDC
:1082C000B4FBF1F4002CF5D0B0FBF4F5092D04FB60
:1082D000150005F1370605F13002EFDCB4FBF1F4CF
:1082E00003F8012B002CEFD100221A7070BC7047EC
:1082F0000546002AEAD1C0E790ED057A90ED004AE4
:10830000D0ED066AD0ED014AD0ED047A90ED035A23
:10831000D0ED025AA4EE007AB0EE406AB0EE470A01
:10832000B0EE667AA4EE867A67EEC07AA5EE407A61
:10833000E5EE867A80ED057AC0ED067A704700BFDB
:10834000D0ED057A90ED013AD0ED003AD0ED064A35
:1083500090ED024A90ED077A90ED035A90ED086A8D
:10836000D0ED045AC0ED067AF0EE406A27EE830A9B
:10837000C0ED056AA3EEA60A80ED087AA4EE240AF1
:10838000A5EE470AA5EEC60A80ED070A704700BFB2
:10839000D0ED007A90ED017A30EE670AE7EE007AD0
:1083A000B0EE670AC0ED007A704700BF704700BFAB
:1083B00030B400230122142506240221C570C471A3
:1083C00003708371C3728373C3734170417282708F
:1083D0000272827230BC7047002306214FF47A7219
:1083E0000170C0E901230373704700BF30B432232A
:1083F000012231254FF60174FF214370002345719E
:108400000482817402720270027143818381C3818C
:1084100030BC70472DE9F04F3149324B83B001F148
:10842000C00B019020274FF000092F481022012691
:1084300003E0203098420BD002799742F9D10268CC
:108440000C68A24209D02030984206F10106F3D10F
:10845000203159453AD00F79E7E744794D79A54263
:10846000F1D19446019A214809EB490502EB050A2E
:1084700057558AF8016000F572751D4E624603E09B
:10848000A8421AD050F82C6FB242F9D10679A64210
:10849000F6D1CF6806464FF0000C96468046F2684B
:1084A000BA4216D00CF1010CBCF1030F06F10C0618
:1084B000F5D14046A8427246E4D14FF0FF3C20314E
:1084C00059458AF802C009F10109C4D103B0BDE8D9
:1084D000F08F086932698242E4D14FFA8CFCEEE7F2
:1084E000B0D10508FCC305083CBA0508FCC3050863
:1084F00000000140144BFF22F0B54FF0FF34C27072
:108500000271027242724273827303F10C0EA4462E
:10851000172716261525002202EB820281189E4598
:1085200085544E708F7081F803C00C710AD093F996
:108530000620DD791E7A5F7A93F90AC093F90B4021
:108540000633E9E7F0BD00BF8055050810B42C21C3
:10855000012402220023047041708270C3705DF810
:10856000044B704770B4034600F11001FF221A70EB
:108570005A7002338B42FAD10B4B4FF0FF3103F1AB
:108580000F060C46002205E093F9044093F905100C
:1085900013F8032F00F8124000EB42059E42697069
:1085A000F2D170BC704700BF9455050830B41D6906
:1085B00095420AD314460A4621448D42996938BF30
:1085C0002A1B214430BC4BF033BC30BC704700BF89
:1085D000002070470120704701207047002070473D
:1085E0004FF40070024B10609B680B6000207047D6
:1085F00038BA0020013A30B4D2B28C1C04EB4204E9
:108600000025020F092AD3B203F130028ABF3733A3
:108610000A700B704D7002318C424FEA0010F0D19D
:1086200030BC70470B4A0C4B10681B681A22C018EC
:108630000A8001D10948704710B5094B09491C68E7
:108640000822FFF7D7FF204604220749FFF7D2FF91
:10865000024810BDE8F7FF1FECF7FF1F880100205C
:10866000EAF7FF1F8A0100209A01002004230B80F3
:1086700000487047A401002012230B800048704777
:10868000A80100201F22032302704370704700BF1F
:1086900008307047704700BF816170474FF4006336
:1086A00003837047F0B4037C456902681F2B37D9F8
:1086B000203B2021546899400C4223D010249C4038
:1086C000D160D4605168D940CE074ED4EFF3118306
:1086D000502282F312882A6C1168C90709D45468A1
:1086E000002C52D1D5E909618E4243D1012285F88F
:1086F0006420DBB283F31188037C02681F2B1946C8
:1087000014D9203B082150689940084200D0D1601C
:108710000421506801FA03F3184223D1F0BC7047DA
:10872000202416689C4026420FD119460823106861
:108730008B40184200D093600423106803FA01F1C3
:108740000842EBD09160F0BC7047102199409460D2
:1087500091601168D940CC07B8D5012101FA03F323
:108760009360B3E7D360F0BC7047012101FA03F3D3
:10877000D360ABE7AF690F44D7600ED82E69711A8A
:108780005160AC62002185F86410116841F001016C
:10879000DBB2116083F31188AEE7711A5160AE62EB
:1087A000F0E700BFF0B4714B71491A780B789A4228
:1087B00040F07E816F4B1A78002A00F0D4806E4B17
:1087C00019786E4B002940F0DB801868B3F83261ED
:1087D000048824F080042404240C048093F830419D
:1087E000C462058845F08005058041628489012ABC
:1087F00044EA06048481A3F8321100F0B480D3F86F
:108800003401B3F86662048824F080042404240C44
:10881000048093F86442C462058845F080050580B1
:1088200041628489022A44EA06048481A3F866121C
:1088300000F09980D3F86802B3F89A63048824F0B2
:1088400080042404240C048093F89843C4620588AF
:1088500045F08005058041628489032A44EA0604C4
:108860008481A3F89A137ED0D3F89C03B3F8CE6426
:10887000048824F080042404240C048093F8CC445D
:10888000C462058845F08005058041628489042A18
:1088900044EA06048481A3F8CE1464D0D3F8D0044B
:1088A000B3F80266048824F080042404240C0480B5
:1088B00093F80046C462058845F080050580416252
:1088C0008489052A44EA06048481A3F802164AD062
:1088D000D3F80406B3F83667048824F0800424042F
:1088E000240C048093F83447C462058845F0800561
:1088F000058041628489062A44EA06048481A3F83B
:10890000361730D0D3F83807B3F86A68048824F0F3
:1089100080042404240C048093F86848C462058809
:1089200045F08005058041628489072A44EA0604EF
:108930008481A3F86A1816D0D3F86C28B3F89E592E
:10894000108820F080000004000C108093F89C092F
:10895000D062148844F080041480516290892843C6
:108960009081A3F89E19F0BC704700BF0C830020D3
:108970000D8300203C1F0010381F00109CC80020F1
:108980005C68198961602568186845F0010540F246
:108990000D312560A0F848108489012A44F48074C0
:1089A0008481E0D0D3F83841B3F83C51D3F8340196
:1089B0006560256845F001052560A0F848108489A8
:1089C000022A44F480748481CDD0D3F86C42B3F889
:1089D0007052D3F868026560256845F0010525608E
:1089E000A0F848108489032A44F480748481BAD0A2
:1089F000D3F8A043B3F8A453D3F89C03656025686B
:108A000045F001052560A0F848108489042A44F443
:108A100080748481A7D0D3F8D444B3F8D854D3F861
:108A2000D0046560256845F001052560A0F8481070
:108A30008489052A44F48074848194D0D3F808464C
:108A4000B3F80C56D3F804066560256845F00105B7
:108A50002560A0F848108489062A44F48074848133
:108A600081D0D3F83C47B3F84057D3F83807656056
:108A7000256845F001052560A0F848108489072A7B
:108A800044F4807484813FF46EAFD3F87028B3F857
:108A90007408D3F86C385060106840F00100106022
:108AA000A3F848109A8942F480729A81F0BC70470A
:108AB0005C00E618484D15F83660032E3FF67AAE96
:108AC000DFE806F04D261C02E01805EBC000446804
:108AD000661E012C46603FF646AF013303F00303E8
:108AE000D8B2824208703FF465AE03EB4303DB006B
:108AF000EA1802200021E854516034E7E11805EB40
:108B0000C1014868461E01284E603FF62CAF0DE0BB
:108B1000E118C90068184668771E012E47603FF6C5
:108B200022AF02274FF0FF366F544660E618F6007A
:108B3000AF192A48397B00680139C9B2397389B342
:108B40004FF47A722344B2FBF0F200FB02F0B0F56E
:108B50007A7F05EBC30518BF01326A602AE670B15F
:108B60001F49012600220F890132002F18BF00265D
:108B7000824201F58671F6D1002E3FF41BAE174AF2
:108B8000126842F21076E018B6FBF2F102FB1162B5
:108B9000012605F8306002B13144234405EBC305DA
:108BA000696007E6BF68B7FBF0F100FB11700327AF
:108BB000AF5500B101311C44013305EBC40503F08E
:108BC0000303934269603FF4F5AD00293FF4F2AD31
:108BD00001396960EEE500BF10830020E81600202F
:108BE0003CC0002010B5027C01681F2A4FF0200312
:108BF0000ED94C68203A93401C4208D00B4A40687A
:108C000000241470026822F001020260CB6010BDE3
:108C10000C6893401C42FAD0044A40680024147047
:108C2000026822F0010202608B60F0E7A58D00204F
:108C30002DE9F041C40023189B00B749CA58526877
:108C4000958AADB2EFB2FE070B4461D4BE0737D5AB
:108C5000BFF35F8F1D7EEDB2012D00F0BB80AF4EE4
:108C6000138BBFF35F8F231801EB83031D7E022D4F
:108C700000F0CE80231801EB83031D7E032D05D168
:108C80009B7E1BB17378002B40F01A81938896F974
:108C900000C043F480639380231801EB83031B7EA1
:108CA000013363450AD1B37800257570002B40F07D
:108CB0008A80204401EB800000234375BDE8F081E9
:108CC000964E17F0040F96F900C04DD117F04007EB
:108CD00000F0B280178A1D6AFFB205F80C705FFAC7
:108CE0008CF56F1C93F818E07BB2DF1CBE45337027
:108CF0009C4600F00981271801EB87073F7EBB42A5
:108D0000CAD105F1020C4FFA8CFC86F800C0C3E70B
:108D10001588824E25F400652D042D0C15801588CC
:108D200045F4806515809D7E00273770002D3DD06D
:108D30007578002D37D0231801EB830301251B7EA6
:108D40007570022B03D1138843F40063138023183A
:108D500001EB83039B7D43F001031382204401EB6D
:108D60008000037EBDE8F0819F7E75784FF0010E94
:108D700086F802E0002F5CD0002D78D1231801EB9B
:108D800083035B7E002B00F0A48013880CF1010CA0
:108D90004FFA8CFC43F4007386F800C013801388EC
:108DA000DF05FCD478E7DB7DFF2BC4D0231801EB73
:108DB00083039D7D05F0FE051582DB7DFF2BCDD065
:108DC000FF233370CAE7938823F440731B041B0C02
:108DD00093806EE79B7E514E002B3FF441AF73783A
:108DE000002B3FF43DAF138823F480631B041B0C5E
:108DF0001380BFF35F8F138B1388B57043F4007338
:108E00001380938896F900C043F48063938043E70E
:108E10009B7E002B3FF42EAF7378002B3FF42AAFDC
:108E2000138896F900C023F480631B041B0C138085
:108E300016E0002DA2D0A8E72D067FF52DAFBCF1DE
:108E4000FF3F6DD0DD6915F80C5015820CF1010C57
:108E50001D7E4FFA8CF39D429C4633707FF41CAF0D
:108E6000938823F480631B041B0C938014E71F7EFC
:108E7000D3F820805FFA8CF5AE44022F4FFA8EFEB5
:108E800017882DD927F480673F043F0C1780178A75
:108E9000FFB208F80C701788D3F820C047F40073AD
:108EA0001380138ADBB20CF80E30938805F1020CA4
:108EB0004FFA8CFC43F4806386F800C093806EE721
:108EC000938896F900C023F480631B041B0C9380E5
:108ED000E2E61388012543F48073138075705EE722
:108EE00047F400771780178AFFB208F80C70178ACA
:108EF000D3F8208005F1030C4FFA8CFCFBB286F806
:108F000000C008F80E304AE7978827F480673F04CE
:108F10003F0C9780EFE600BFD48600203817002072
:108F2000DD7D15829D7E37701DB91B7E002B7FF481
:108F300015AF938823F480631B041B0C93800DE70B
:108F40003AF0A0BB38B51D4B1B78044600F125054F
:108F500093B104221A4920304CF0CCFA284614224E
:108F600018494CF0C7FA012384F83A30164B1B78A5
:108F700073B984F83B3038BD2846142213494CF0AD
:108F8000B9FA012384F83A300F4B1B78002BF0D04C
:108F90000F4B186859689A68DD68E5602060616069
:108FA000A260DD69186959699A69A2610123E561C6
:108FB0002061616184F83B3038BD00BFF9A7002013
:108FC000C8A70020B0A70020FAA7002028D30508D2
:108FD000D0A70020014B186816F010B8B854002034
:108FE00010B4012300241821392204600172427256
:108FF0008372C3725DF8044B704700BF2DE9F84FD0
:10900000DDE90A6489461746002120229846054674
:109010004CF032FA5EB1D6E900327189EB81C3F3CC
:109020000F432B82C2F30F43EA822B8369824846A7
:1090300049F06AFF17F0100B10D1431E70B119F8F8
:1090400003202E2A18BF09EB030104D14AE011F8CE
:10905000016D2E2E3ED013F1FF33F8D208280246C0
:10906000CA46A8BF08224FF0000B4FF020336B60B8
:109070002B60C5F807304946284605F108064AF036
:10908000D7FE5A46514630464AF0D2FE6B1EE81DC6
:1090900013F8012FA2F1610119299CBF203A1A701F
:1090A0008342F5D105F10B0116F8013BA3F16102F2
:1090B000192A9CBF203B06F8013CB142F4D1182389
:1090C000C8F30F42EF722B73A5F81A80AA82EC61E5
:1090D000BDE8F88FC01A00F1FF3BBBF1030FA8BF3A
:1090E0004FF0030B082B03F1010AA8BF0823CA4461
:1090F0001A46BAE738B5302200214CF0BDF90346D4
:10910000642440F2DC5040F21A4140F26C7240F2AA
:1091100002251C745882132419209982DA8240F2A5
:10912000753140F643021D839C760E250A2418777C
:10913000D9831E2002211A84012283F82E0019727D
:1091400083F82C1083F8225083F82D409A7383F80B
:10915000252083F82B2019460248BDE8384010F03E
:1091600013BD00BF34D3050810B50021044601200B
:1091700014F080FB207010BD38B500240472451E29
:10918000E1B2022014F076FB0134082C05F8010F3F
:10919000F6D138BD38B5002405460480214628465E
:1091A000013430F0D7F9082CF8D1002185F8E2100D
:1091B000A5F8E410A5F8E610A5F8E810A5F8EA105F
:1091C000A5F8EC10A5F8EE10A5F8F010A5F8F2102F
:1091D0002846BDE8384030F07FB900BF2DE9F04F98
:1091E000002087B00C461D460121924612F09CFFDC
:1091F000002D63D005EB0A03DFF8D094DFF8D0B47C
:10920000039355461CE0002D00F0C581D9F81430B9
:10921000AB4264D0D9F81030AB4200F09780D9E966
:109220000631AB4252D8A94200F26F81691A20463A
:109230003EF080FC039B01359D4204F500743DD057
:10924000D9F82060AE42DED8D9F83080AE1B4FEAA4
:10925000D60AD8F830300AF1020A9A4506F0070615
:1092600003D3D8F838309A4509D9414650463EF0E4
:109270002FFC8046002800F04D81C9F8300098F896
:109280000430002B40F0E280D8F82870002F00F066
:10929000DF81D8F83030D8F80C20AAEB030A06EBAF
:1092A000CA0A4346204602EB4A224FF40071B847EF
:1092B000039B01359D4204F50074C1D1002108468D
:1092C00012F032FF002007B0BDE8F08FA942ADD9FF
:1092D0004FF40072002120464CF0CEF8AAE752224B
:1092E00061204123002622706270A070722284F8EF
:1092F000E70184F8E631D9F82800E3704FF0FF3336
:10930000314684F8E42184F8E521C4F8E8014FF4FB
:10931000F07284F8EC3184F8ED3184F8EE3184F8A1
:10932000EF31201D4CF0A8F855216FF05502C4F81C
:10933000F061C4F8F461C4F8F86184F8FC6184F861
:10934000FD6184F8FE1184F8FF2173E74FF4007289
:10935000002120464CF090F8D44BD54F03CBEB23A3
:10936000022223704FF0080C9026F8234FF0580E7D
:10937000C4F80300227484F80DC0C4F8071084F800
:1093800001E0A6706375D9F81010D9F80830D9F843
:109390001C602273591A21624FF0FF3100233F20D5
:1093A000A1763E21A273E372E3736374A374E37442
:1093B0002375A375E3756376E3766377A377E37725
:1093C0002076217784F82C2007CFD9F8187084F8FC
:1093D0002830F61B84F8293084F82A3084F82B30A2
:1093E00084F82D3084F82E3084F82F3084F8313012
:1093F00084F8323084F8333080236662C4F8470042
:1094000004F1470684F8403029209423A94F84F8BA
:1094100046C084F8420084F843300E200D234FF0FC
:10942000010C84F8440084F8453084F830C0716041
:1094300003CF33465527AA269A60C4F85200C4F8D1
:10944000561084F8FE7184F8FF61F3E64FF4007261
:10945000002120464CF010F8D8F84030002E61D1A1
:1094600004F12007002B77D0D8F830309249112230
:10947000CDE900662046FFF7C1FDD8F840301A6CF0
:1094800004F1400A002A79D01B6B8C49CDE90066B3
:1094900038461122FFF7B2FDD8F84460002E3FF4A1
:1094A000C9AE4FF4E078CDE904450CE00024CDE9E5
:1094B00000C4FFF7A3FDB66CBA46A8F120080EB3AE
:1094C000B8F11F0F1ED93468356B96F804E01122ED
:1094D0002B46214650460AF1200706F11C0CBEF12E
:1094E000000FE3D172793369019342F021022B46D8
:1094F000CDF800C0FFF782FDB66CBA46A8F120088F
:10950000002EDDD1DDE9044594E6E91A20463EF05F
:1095100011FB8FE6231F04F5FE7243F804BF9A4245
:10952000FBD187E6002BD8F844200CBF012302238F
:10953000C3EB0613002A3FF47DAE966C013B002E70
:109540003FF478AE013BB66CF9D1002E3FF472AE19
:10955000A2464FF40078A6E7CDE900663346D9F875
:109560000C1008222046FFF749FDD8F84460002E71
:109570003FF460AEBA464FF4F07894E7CDE9006668
:109580003346384611224D49FFF738FDD8F844607C
:10959000002E86D14EE64FF40072294620464BF04D
:1095A0006BFF80220C2384F8BE2184F8C231D9F8E5
:1095B0001000434BD9F8086084F8B85183FB00329F
:1095C000C117C1EB2232B2F5806F84F8B95184F82B
:1095D000BA5184F8BB5184F8BC5184F8BD51C4F829
:1095E000C601C4F8CA6142DBFF2384F8BF3184F8A6
:1095F000C13184F8C031324B711E83FB0132CE176A
:10960000C6EB2232B2F5806F29DA2E4B84F8C521E1
:1096100083FB01030B442C48C6EB6313C3EB831697
:1096200080FB0370891B1844DE17921022F03F0262
:109630000131C6EBE0100A43034484F8C42184F8E6
:10964000C3315522AA2384F8FE2184F8FF31F1E5C5
:1096500039464FF4007220464BF00EFFEAE5FF2337
:1096600084F8C33184F8C53184F8C431E9E7154B77
:1096700084F8C12183FB00730344134FC1EB6313D0
:1096800087FB0317C3EB831C9110A0EB0C02F818A7
:10969000DF1721F03F010132C7EBE0100A4303441A
:1096A00084F8C02184F8BF31A5E700BF48D305087E
:1096B00054D3050864D3050840D3050844D30508EE
:1096C00097554541832008828180808038BA0020E8
:1096D000DEADBEEF08B501201CF074FB174A93689D
:1096E00003F00C03042B1ED0082B18D151685368CB
:1096F000490203F03F0319D452681148B0FBF3F05C
:10970000C2F3881300FB03F00C4B0E4A5B68C3F3F3
:10971000014301335B00B0FBF3F0106008BD094B5F
:10972000074A1A6008BD074B186008BDB0FBF3F08C
:109730005368C3F3881300FB03F0E5E700380240E9
:109740000024F40040A9002010B5044C04480A4647
:1097500021461BF023F8204610BD00BF3C17002017
:1097600070D3050810B5044C04480A4621461BF086
:1097700015F8204610BD00BF3C17002080D3050817
:1097800010B5044C04480A4621461BF007F8204651
:1097900010BD00BF3C1700208CD305080A4608B551
:1097A000054920B105481AF0F9FF034808BD0448EF
:1097B0001AF0F4FF004808BD3C170020B8D3050894
:1097C000A0D305082DE9F04F87B0A94A0290406860
:1097D000038823F040031B041B0C0380038823F041
:1097E00038031B0490424FEA134300F03F8102F517
:1097F000806290420CBF3022382213430380029BC8
:1098000002889B6842F04002028013B11A689B886C
:109810005383838940F2E93302E0002B00F090810A
:109820000289013B12F0020F9BB2F6D06B238381B9
:1098300040F2E93302E0002B00F082810289013B13
:1098400012F0010F9BB2F6D08389838940F2E9338D
:1098500002E0002B00F071810289013B12F0020F3F
:109860009BB2F6D08023838140F2E93302E0002BE3
:1098700000F063810289013B12F0010F9BB2F6D028
:109880008389029B9B6813B11A689B881383062304
:10989000784CDFF8EC81DFF8ECA1774D774E04933C
:1098A0009623DFF8E4C101934FF0100EDAF804308C
:1098B000C3F30803002B40F0B280EFF31183002BB9
:1098C00040F0AD802068AA6823689842FAD13368D6
:1098D0009A42F7D8D8F800704FF47A7101FB07F379
:1098E0009B1AB3FBF7F301FB00304FF47A774FF08C
:1098F0000109DAF80430C3F30803002B70D1EFF349
:109900001183002B6CD12368A96822689342FAD195
:1099100032689142F7D8D8F8002007FB02FBABEB86
:109920000101B1FBF2F107FB03131B1AB3F57A7FB8
:10993000DFD3019B013B0193B8D1029B9B6813B11C
:109940001A689B885383029B586840F2E9338289E6
:1099500002E0002B00F085800289013B12F0020F2B
:109960009BB2F6D0F523838140F2E93301E0002B6E
:1099700077D00289013B12F0010F9BB2F7D08389A7
:10998000838940F2E93301E0002B67D00289013B73
:1099900012F0020F9BB2F7D0FF23838140F2E9332C
:1099A00001E0002B5AD00289013B12F0010F9BB25B
:1099B000F7D08389DBB20393029B9A6812B11368D4
:1099C00091881983039B682B60D0049B013B13F0A3
:1099D000FF0304937FF464AF184607B0BDE8F08F2F
:1099E000EFF311818EF31288D5F808B02B68DB03F2
:1099F00044BFCCF80090D5F808B02368DCF800200C
:109A0000C9B281F31188D8F80010134407FB01F2A2
:109A1000A2EB0B02B2FBF1F207FB032385E7EFF3A6
:109A200011838EF31288AF682A68D20303D501220E
:109A3000CCF80020AF682068DCF80090DBB283F33C
:109A40001188D8F800104FF47A72484402FB01F3F1
:109A5000DB1BB3FBF1F302FB003046E739F068FD96
:109A6000AAE739F065FD029B586889E73022C4E611
:109A7000003800406CB3002010E000E074B3002018
:109A800070B3002000ED00E068B3002012B113684D
:109A900092885A83029B586840F2E933828901E038
:109AA000002B45D00289013B12F0020F9BB2F7D088
:109AB0008C23838140F2E93301E0002B38D0028906
:109AC000013B12F0010F9BB2F7D08389838940F2EA
:109AD000E9330289013B12F0020F9BB215D1002B32
:109AE000F7D139F025FD029B9B6813B11A689B885A
:109AF0001383059B142B04D3182B17D9543B062B27
:109B000014D9002007B0BDE8F08FFF23838140F215
:109B1000E93301E0002BE4D00289013B12F0010F90
:109B20009BB2F7D08389DBB20593DCE7032054E7CF
:109B300039F0FEFC029B5868C8E739F0F9FCA0E652
:109B400039F0F6FC029B58687FE600BFF0B58769E4
:109B500083B0064617B13B68BA885A837069DFF84C
:109B6000A8E08389C3244FF47A734FF0060C6D4646
:109B70004FF6FF710EF1010E03E0013B9BB28B42E9
:109B800020D002899207F8D5A3B283814FF47A736B
:109B900002E0A3B28B4215D00289D20703F1FF3451
:109BA000F7D5828992B20DB12A700135BCF1000F50
:109BB0000BD00CF1FF3CFF24BEF1000FE1D09EF86A
:109BC0000040D7E739F0B4FCB76917B13B68BA88F1
:109BD0001A839DF805009DF801509DF802109DF82C
:109BE00003409DF804209DF8063041EA052143EA30
:109BF000002342EA04220120A6F85010A6F85220C1
:109C0000A6F8543003B0F0BDA85505082DE9F84F6B
:109C1000037C02681F2B86BF203B516811682022FD
:109C200002FA03F30B4214BF012300230BB9BDE872
:109C3000F88F4569DFF88891044614F0E5FD4FF48C
:109C4000867303FB059306465A7C002A30D1574998
:109C50005A6809781768C1B9D3F8801058890A681A
:109C600022F001020A60BB8923EA0003BB81504B4A
:109C70001B78002B30D1237C21681F2B11D8202288
:109C800002FA03F38B60BDE8F88F5269136823F082
:109C900001031360BB8923F480731B041B0CBB817D
:109CA000E5E7203B202202FA03F3CB60BDE8F88F02
:109CB000D3F880603F485F8901229A7431685A68FE
:109CC0000368156821F001013160AA89013322EA95
:109CD0000702AA810360CEE74FF4867A0AFB05FAF1
:109CE00009EB0A05D5F8808040461CF003F80123F3
:109CF0006B74D5F884B014F087FD3B88CBF82C0149
:109D000023F080031B044FF0FF321B0C3B80FA62F0
:109D10003B880AF1340143F080033B8049443846D4
:109D20001CF0A8F8D5E915702B6CD5F850C0D5E912
:109D300017123B4303430B4313436A6E6F6FD8F80C
:109D400000001D491343AA6E1343AA6F3B43014011
:109D500013430B430022EA64C8F80030D5E91B30F6
:109D6000D8F81410D5F880206F6C21F00701034358
:109D70000B43A86C95F87C10C8F81430C8F804C0E0
:109D8000C8F80870C8F80C0051606B681168186852
:109D90006D8941F00101116083892B43838114F0A7
:109DA00033FD064B801B186065E700BF381F0010AD
:109DB000341F0010708300203F801CF0E01D001055
:109DC0003CC0002020B10078B0FA80F04009704714
:109DD0000120704708B520214BF065FB034618466B
:109DE00023B10278202A03F10103F8D008BD0379DA
:109DF00003F01803082B0AD002D82BB100207047BB
:109E0000102B14D0182BF9D1B0F80B007047104B61
:109E1000B0F80B0093F90030591C06BF0D4B1B78AE
:109E2000DBB203EB831300EB430080B270470A4BB5
:109E3000B0F80B0093F900305A1C06BF054B5B7855
:109E4000DBB203EB031300EB430080B2704700BFAB
:109E5000310E0020C0BD0020300E0020F0B5067984
:109E600006F0E003402B09D144794FF0FF35002381
:109E7000012006F00706A3420BD1F0BD602B08BFFE
:109E800045794FF001040CBF04FA05F54FF0FF359A
:109E9000EDE7042E0CD8DFE806F0030D18242E00A1
:109EA00030B1C85CD75C784028420CBF012000204C
:109EB0000133E0E70028FBD0C856D756A0EB070CCB
:109EC000DCF1000040EB0C00F2E70028F0D031F8A4
:109ED000130032F81370784028420CBF0120002094
:109EE000E6E70028E4D031F9130032F91370C71BFC
:109EF00078427841DCE70028DAD051F8230052F8A4
:109F00002370784028420CBF01200020D0E7024B8C
:109F10000146186839F0B6BBAC53002038B5064D81
:109F2000441E14F8011F286819B9BDE8384039F0FB
:109F300021BB39F0A7FBF4E7AC5300200048EDE764
:109F40005812060808B5FFF7E9FFBDE80840F5E735
:109F500010B504460348FFF7E1FF2046BDE8104076
:109F6000F0E700BF70D2050808B532B1C30600D5CE
:109F700019B11046FFF7ECFF0022104608BD38B5B6
:109F8000074C084DAC4203D3074B00221A7038BD72
:109F90006288D4E9010149F04BFF1434F2E700BFB5
:109FA000900100086C0700081CA8002038B5074C79
:109FB000074DAC4203D3074B01221A7038BD6288AB
:109FC000D4E9011049F034FF1434F2E7900100089D
:109FD0006C0700081CA80020024A136823EA00004E
:109FE0001060704794D20020DFED2E7AB4EEE70ABD
:109FF000F1EE10FA4ADDDFED2C6A9FED2C7A01E0DC
:10A00000B0EE670AB4EEC70AF1EE10FA70EE667AA7
:10A01000F6DC9FED277AF4EEC77AF1EE10FA3ED522
:10A02000DFED216A9FED237A01E0F0EE407AF4EE55
:10A03000C77AF1EE10FA37EEA60AF6D4DFED1E7AF3
:10A04000B4EEE70AF1EE10FA14DDDFED167A37EE22
:10A05000C00A60EE006A9FED196A9FED197ADFED84
:10A06000197AA6EE867A20EE266AE6EE877AA6EEC2
:10A07000270A7047DFED147AB4EEE70AF1EE10FA22
:10A0800044BFDFED0B7A37EEC00AE2E79FED087AB6
:10A09000F0EE407AF4EEC77AF1EE10FAC0D4B0EEEA
:10A0A000670ACBE7DB0F4940DB0FC940E4CB164121
:10A0B000DB0F49C0E4CB16C1DB0FC93F92E741B9C2
:10A0C0009730083C15A82ABEDB0FC9BFF0EEC07A56
:10A0D000B0EEE07AB4EEE77AF1EE10FAB4BFB0EE8B
:10A0E000676AB0EE476AB5EE406AF1EE10FA46D004
:10A0F000B4EEE77AF1EE10FA8CBFF0EE675AF0EEAC
:10A10000475AC5EE866A9FED1F3A9FED1F6A9FED85
:10A110001F4A9FED1F5ADFED1F3ADFED1F4ADFEDAB
:10A120001F5AA6EEC36AE6EEA34AA6EE864AB7EE2B
:10A13000006AA6EE845AA6EEA46AE6EE855AC5EE3B
:10A14000866AB4EEE77AF1EE10FA48BFDFED147AD2
:10A15000F5EEC00A48BF77EEE66AF1EE10FA48BFA6
:10A16000DFED107AB5EEC00A48BF77EEE66AF1EE91
:10A1700010FA48BFF1EE666AB0EE660A7047DFED8E
:10A18000076ADEE739094E3DE3B59E3E88FA163E82
:10A1900045FE7F3F99FB243F69A2163EA7DFA83406
:10A1A000DB0FC93FDB0F4940DFED317A30EE277A14
:10A1B000FDEEC76A16EE903A2033402B02D99FED90
:10A1C0002D0A7047B4EEE70AF1EE10FA4DDD9FED6F
:10A1D0002A6ADFED2A6A01E0B0EE677AB4EEE67A29
:10A1E000F1EE10FA77EE467AF6DC9FED257AF4EE82
:10A1F000C77AF1EE10FA35D5DFED1F6A9FED217AAF
:10A2000001E0F0EE407AF4EEC77AF1EE10FA37EEA4
:10A21000A60AF6D4DFED167AB4EEE70AF1EE10FAEC
:10A220001BDCDFED197AB4EEE70AF1EE10FA44BF59
:10A23000DFED137A37EEC00A60EE006A9FED136A15
:10A240009FED137ADFED137AA6EE867A20EE266A6A
:10A25000E6EE877AA6EE270A7047DFED0F7A37EE33
:10A26000C00AE9E7B0EE670AD4E7F0EE477ABCE748
:10A27000DB0FC93F00000000DB0FC940E4CB1641F3
:10A28000DB0F49C0E4CB16C1DB0FC9BF92E741B970
:10A290009730083C15A82ABEDB0F494010B44C0982
:10A2A000012250F8243001F01F0102FA01F123EAE3
:10A2B000010340F824305DF8044B704710B44C099A
:10A2C000012250F8243001F01F0102FA01F10B4382
:10A2D00040F824305DF8044B704700BF4B0901F093
:10A2E0001F0150F82320012303FA01F1114214BF8A
:10A2F00018460020704700BF2DE9F043002489B0C4
:10A3000006460D461F46A04605E025290CD03046DE
:10A310000134A847039A531C039311780029F4D100
:10A32000204609B0BDE8F083931CCDE9033850788E
:10A33000302842D0A0F13003DBB2092B4FF00009E6
:10A3400045D96C282AD0642873D019D9732858D0DD
:10A3500063D9752840F0828007F1040C386805AB9A
:10A3600000220A216746FDF77BFF05AB049A0093A4
:10A3700029464B463046FDF749FE039A0444CAE796
:10A3800025283CD051D958286BD06328C2D13978C0
:10A390003046A84704370134039ABCE7039B5A1C94
:10A3A00003921B78642B52D016D8252B27D064D962
:10A3B000582B18D0632BEAD0ADE7D31C03939078C9
:10A3C000A0F13003DBB2092B4FF00109B9D804AA80
:10A3D00003A93DF001FCB4E7732B12D051D9752BC2
:10A3E0002DD0782B97D1A3F15802B2FA82F23868B7
:10A3F000520905AB10210437FDF732FFB5E72521DF
:10A4000085E73B68049A0093294600233046FDF710
:10A41000FDFD04370444039A7DE76E287FF47AAF8C
:10A42000039A3B6804371C6075E700283FF478AF57
:10A4300070E7386805A9FDF7DDFE043795E7386851
:10A4400005AB00220A21FDF70BFF04378DE73B1D0A
:10A45000386805A91F46FDF7CDFE86E778287FF40A
:10A4600059AFA0F15802B2FA82F23868520905AB2E
:10A470001021FDF7F5FE043777E7002B3FF450AFCE
:10A4800049E76E2BCDD046E710B5064C0B46024689
:10A4900005492068FFF730FF2068BDE8104039F01B
:10A4A00069B800BFAC530020418F000838B504469E
:10A4B0000D460848FFF732FD29462046FFF7E4FF26
:10A4C0000548FFF72BFD054B1B7813B1044B012208
:10A4D0001A7038BD75D20508990C06080855002079
:10A4E000095500200FB407B504A951F8040B0191D8
:10A4F000FFF7DCFFFFF722FD03B05DF804EB04B0CB
:10A50000704713460A4601460048EBE780D205082B
:10A510000048E7E799D205080FB407B504A951F838
:10A52000040B0191FFF7C2FF03B05DF804EB04B028
:10A5300070470FB407B504A951F8040B0191FFF758
:10A54000A3FFFFF7FBFC03B05DF804EB04B070471A
:10A550000FB407B504A951F8040B0191FFF794FF5C
:10A5600003B05DF804EB04B070472DE9F8430379BC
:10A5700003F0E001202928D002D849B1BDE8F883D2
:10A58000402945D06029F9D12448BDE8F843D0E7F7
:10A5900003F00703022B02D0042B08D06BB9B0F8EC
:10A5A0000720B0F805101E48BDE8F843C1E7D0F811
:10A5B00005201B48BDE8F843BBE7B0F90720B0F918
:10A5C00005101748BDE8F843B3E74579154E16481E
:10A5D000FFF7A4FC06EBC502002492F804800123D7
:10A5E000A04502D8BDE8F843A8E456F8357057F8FE
:10A5F00024204FEA84094AB113B90C48FFF78EFCB6
:10A6000057F809100A48FFF7A3FF00230134E7E7D2
:10A6100041790848BDE8F8438BE700BFE1D205085F
:10A62000A5D20508AC9B0508BCD20508CDD205080B
:10A63000A6060608D0D205082DE9F0411746027992
:10A6400002F0E003402B05460E462BD10024584F64
:10A65000DFF8808115E02B7903F00703022B15D07A
:10A66000032B19D0012B14BF315D31573846FFF74A
:10A670006FFF6B79013BA34202DD4046FFF74EFCC2
:10A6800001346B79A342E6DCBDE8F08136F81410A2
:10A690003846FFF75DFFECE736F914103846FFF750
:10A6A00057FFE6E702F00702042A5DD8DFE802F070
:10A6B000031D25272A003478202B3AD06DD8002B93
:10A6C000E2D1B5F80560B5F8078039482146FFF7B3
:10A6D0003FFFB44240DB44453EDC002FD4D042462D
:10A6E00031463448BDE8F04132E796F90040202B6E
:10A6F0001FD052D8002B3DD0C6E73488DCE7B6F92E
:10A700000040F4E7D6F80080202B444611D044D80E
:10A71000002BB9D141462648FFF71AFFD5F805109E
:10A72000884519D8002FAFD02348BDE8F0410FE786
:10A7300000246A79214B03EBC2010979A1420BDDA8
:10A7400053F8323053F82400BDE8F041FFF7E6BB80
:10A750001B48BDE8F041FBE6FFF7F0FB2246296805
:10A760001848BDE8F041D7E6202BE1D007D8002BF0
:10A770008AD11C46B5F90560B5F90780A5E7602BBD
:10A78000E6D0802B80D131780F4B1048002914BFC0
:10A7900031461946BDE8F041DAE6602BF1D16A791D
:10A7A0001441E307D4D50A48BDE8F041D0E600BF24
:10A7B000B9D20508D8060608FBD20508AC9B0508E7
:10A7C000F5FB050801D30508A2FD0508A606060845
:10A7D000F6D20508F9D205080CB407B510F0200030
:10A7E0000BD079B92320FFF792FB05A904980191BA
:10A7F000FFF74AFEFFF7A2FB012003B05DF804EB70
:10A8000002B070470020F8E70CB4C30607B500D5C6
:10A8100061B905A904980191FFF736FEFFF78EFB99
:10A82000012003B05DF804EB02B070470020F8E7A8
:10A830000EB400B584B005AB019053F8042B064963
:10A84000039301A8FFF758FD019B00221A7004B082
:10A850005DF804EB03B070470180000870B406682F
:10A860008E4217D90139751E002311F8014F0822B5
:10A87000634013F0800F4FEA430318BF83F0D50302
:10A88000013ADBB2F5D18D42EFD1721C0260337018
:10A8900070BC7047721C00230260337070BC70473C
:10A8A0000A44914215D010B40139541E11F8012FF9
:10A8B0000823504010F0800F4FEA400018BF80F08E
:10A8C000D500013BC0B2F5D1A142EFD15DF8044BF8
:10A8D000704770474840082310F0800F4FEA40004F
:10A8E00018BF80F0D500013BC0B2F5D1704700BF62
:10A8F0000A44914215D030B40139551E41F221026B
:10A9000011F8014F082380EA042004044CBF82EAB6
:10A9100040004000013B80B2F7D18D42F0D130BC05
:10A920007047704770B502221349144C144E4FF60D
:10A93000FF70FFF7DDFF22884AB1A518B54218D293
:10A94000052A16D92146FFF7D3FF2C46F3E7214607
:10A950000222FFF7CDFF0222A118FFF7C9FF094B22
:10A96000E41A094B1C8041F60F53C31A5842584150
:10A9700070BD0020FCE700BF004000080240000856
:10A9800000800008FA3F00081EA800200F4B2DE9A8
:10A990003048D3E9004554EA05020AD1034640F2A3
:10A9A000011200201880988098715A801881BDE8A3
:10A9B0003088074B1A6814EB020B45F1000C5A461D
:10A9C0006346FDF75FFB0120BDE83088B0680020DA
:10A9D0006CB3002030B403888278C478154DA3F599
:10A9E000FA6303F0030101EB4101013A02EB81023A
:10A9F0009B0835F812500279611E40F2B55404FBF1
:10AA000003132B4403EB430302EBC3034279847922
:10AA100009490089C3EB031302EB83032144C3EB11
:10AA2000031301EB83034FF47A720021C2FB03018D
:10AA300030BC70472055050880436D382DE9F0473C
:10AA400007468CB01E469246002A5CD11546144635
:10AA50000A88B2F5FA6F36D38B78581E0B2832D895
:10AA600091F803C00CF1FF301E282CD891F804E0B7
:10AA7000BEF1170F27D891F80590B9F13B0F22D8F6
:10AA800088793B281FD8B1F80880B8F57A7F1AD2A8
:10AA90004FF001085EBB09890491002CB4BF2D2141
:10AAA0002B21002CB8BF6442CDE90290CDE90514FA
:10AAB0000795CDE900CE38462A49FFF7B9FE404652
:10AAC0000CB0BDE8F08700232749ADF828304FF0DF
:10AAD000010C18468DF82A30ADF82C3099469E4668
:10AAE0001A4698460991634609A9002ED3D0CDE9AC
:10AAF0000290CDE900CE38461C49FFF799FE40464A
:10AB00000CB0BDE8F0871A4C84FB0234A318D417AC
:10AB1000C4EB6314C4EB0415A2EB85052DB2002D24
:10AB20000846B8BF6D42FFF755FF4FF47A72002315
:10AB30008046894648F0DEFE3C230AFB030A4FF4B8
:10AB40007A7200234046494648F0D4FE4FF47A71A9
:10AB500092B20023C1FB0A2309A8FDF793FA24B29D
:10AB600009A975E7F0D3050800000101D0D3050855
:10AB7000898888880378202B024600F10100F9D0EB
:10AB8000092BF7D02D2B00F0A4802B2B03BF53787B
:10AB9000B7EE000A0246B7EE000AA3F13001C8B2D0
:10ABA00009289FED577A10D8F2EE046A07EE901A42
:10ABB000F8EEE77A12F8013FE7EE267AA3F13001CA
:10ABC000C8B20928B0EE677AF0D92E2B63D003F013
:10ABD000DF03452B02D020EE070A704710B45178EE
:10ABE0002D294FD02B2979D0A1F13003092B02F167
:10ABF00001027AD80024002303EB830301EB430313
:10AC000012F8011FA1F130000928A3F13003F3D994
:10AC1000B3F59A7F1A4628BF4FF49A72072B6CD966
:10AC2000DFED386A1346F7EE007A083B072B67EE34
:10AC3000A67AFAD802F00702DAB1F2EE046A012A23
:10AC400067EEA67A15D0022A67EEA67A11D0032AFB
:10AC500067EEA67A0DD0042A67EEA67A09D0052AF7
:10AC600067EEA67A05D067EEA67A062A18BF67EEC9
:10AC7000A67A002C3BD087EE277A5DF8044B20EEB5
:10AC8000070A70479178A1F13003092B02F1020203
:10AC900030D80124AFE75378A3F13001C8B20928B6
:10ACA00002F1010293D8F2EE046AF0EE665A07EE62
:10ACB000901AF8EEE77A12F8013F87EEA66AA3F140
:10ACC0003001C8B2092866EEA56A37EE067AEED9D9
:10ACD0007DE75378BFEE000A02465EE79178A1F166
:10ACE0003003092B02F1020284D9F7EE007A27EE35
:10ACF000277AC2E7F7EE007ABDE7F7EE007A9BE726
:10AD00000000000020BCBE4CF8B5064615460846BB
:10AD1000B6FBF2F434B905FB14640C4B1B5D00F870
:10AD2000013BF8BDB4FBF2F75FB905FB1747074BD2
:10AD300005FB1464DA5D00F8012B1B5D00F8013B94
:10AD4000F8BD3846FFF7E0FFEFE700BF20D4050865
:10AD5000B5EEC00ADFED677A674AF1EE10FACCBFB4
:10AD600030EE270A30EE670ADFED647A20EE270A1C
:10AD70002DE9F047FDEEC07A88B017EE904A84EADC
:10AD8000E4760023A6EBE476CDE902330493A2FB3C
:10AD900006325FEAD208054641D105AF5848394628
:10ADA000554BA3FB0623DB0803EB8303A6EB43030E
:10ADB000002CC35C0B704FF00002ACBF20232D238E
:10ADC0004A7038468DF8083048F09EF80128394618
:10ADD00039D0022842D0032805BF302302A802A898
:10ADE0008DF809304AF050FB02A848F08DF803387E
:10ADF000C4B2224602A928464AF07CFB00232B5508
:10AE0000284648F081F82E22431C02A92A542144E6
:10AE1000E8184AF055FB284608B0BDE8F087394BE2
:10AE2000A3FB06235B0922D105AF35483946324AD8
:10AE3000A2FB0832D20802EB8202A8EB4202835C3A
:10AE400001F8013BACE7302302A88DF809308DF8FA
:10AE50000A308DF80B304AF017FBC5E7302302A803
:10AE60008DF809308DF80A304AF00EFBBCE7264A0F
:10AE7000A2FB06125FEA92190ED105AF20483946AF
:10AE80001D4AA2FB03C2D20802EB8202A3EB4203DB
:10AE9000C35C01F8013BCAE71C4AA2FB06125FEA49
:10AEA000523A0ED105AF16483946134AA2FB09C2E1
:10AEB000D20802EB8202A9EB4202825C01F8012B6C
:10AEC000DEE71348B6FBF0F058B905AF39460A2063
:10AED000BAFBF0F200FB12A20948825C01F8012BD8
:10AEE000E3E705AF39460A220193FFF70DFF019B07
:10AEF0000146ECE76F12033ACDCCCCCC00007A448B
:10AF000020D405081F85EB51D34D62105917B7D1D6
:10AF1000A086010002B370B48E1803E0121B14D196
:10AF2000B14215D010F8012BA2F14103192B11F8F1
:10AF3000013BA3F1410598BF2032192D03F12004F4
:10AF4000ECD9D21A01D1002BEAD1104670BC70475F
:10AF50000022104670BC70471046704770B504461A
:10AF600008460D4647F0D0FF064602E014F8013FC0
:10AF700043B1324629462046FFF7CCFF0028F5D1E1
:10AF8000204670BD1C46204670BD00BF4FF0FF320A
:10AF9000FFF7C0BFA0F16103192B98BF203870479D
:10AFA000A0F14103192B98BF20307047202805D00D
:10AFB000093804288CBF0020012070470120704709
:10AFC0002DE9F0411F46064603461C782046FFF750
:10AFD000EDFF1D4601330028F7D12B2C51D02D2C2D
:10AFE00024D0102A804628D04FF0FF33B3FBF2F371
:10AFF00002FB03FC6FEA0C0C5FFA8CFC01350020AD
:10B000000BE0303CE4B2944225DA98422E461DD83B
:10B010001AD002FB004015F8014B392CF1D944F04D
:10B020002004602C17D9573CE4B2ECE74FF001083C
:10B03000102A6C7805F10105D6D1302C23D06FF0A1
:10B0400070434FF00F0CD9E76445E2D907EA0808CE
:10B050004FF0FF30DFE701B10E60B8F1000F08D00C
:10B0600027B1B0F1004F28BF4FF000404042BDE88B
:10B07000F081002FFBD06FF00043984228BF1846A4
:10B08000F5E78046D4E76C782046FFF789FF7828FB
:10B0900005F1010605D035466FF070434FF00F0CF7
:10B0A000ACE7AC786FF0704302354FF00F0CA5E7BA
:10B0B00001230A22002183E770B50D461446FEF7EE
:10B0C00089FE0646A0B1FFF7F3FF40F6340398422D
:10B0D000A8BF1846B0F5617FB8BF4FF4617019235F
:10B0E000A0F5617090FBF3F0287023780133237092
:10B0F0003046FEF76FFE0646A0B1FFF7D9FF40F6D7
:10B1000034039842A8BF1846B0F5617FB8BF4FF42A
:10B1100061701923A0F5617090FBF3F068702378DB
:10B1200001332370304670BD613819288CBF002070
:10B1300001207047413819288CBF0020012070473A
:10B14000303809288CBF002001207047A0F130035F
:10B15000092B07D920F02000413819288CBF002086
:10B16000012070470120704707EE901AF8EE677AC9
:10B170009FED807A27EE800A20EE070AFDEEC07A66
:10B1800017EE903A2033402B7BD8DFED7B7AB4EE7C
:10B19000E70AF1EE10FA40F3E180B0EE407A9FED5D
:10B1A000776ADFED776A01E0B0EE677AB4EEE67AAF
:10B1B000F1EE10FA77EE467AF6DC9FED727AF4EE55
:10B1C000C77AF1EE10FA40F1CC809FED6C6ADFEDAA
:10B1D0006E6A01E0F0EE477AF4EEE67AF1EE10FAEC
:10B1E00037EE867AF6D4DFED697AB4EEE77AF1EEDF
:10B1F00010FA40F3A280DFED607A37EEC77A27EECF
:10B20000076ADFED635ADFED637ADFED636A9FED76
:10B21000635AE6EE257A67EE065AE6EE276AF7EEFF
:10B22000007AA5EEA67AF0EE675AE7EE055AE7EE49
:10B23000457A87EEA55ADFED557A30EE277AFDEE96
:10B24000C76A16EE903A2033402B1FD99FED547AEF
:10B25000F6EE006AB7EE006AF7EE004AC4EEA57A91
:10B2600080ED045A67EEA66A27EE866A27EE877A93
:10B27000C0ED006AC0ED026A80ED016A80ED037ADC
:10B280007047B7EE005AF0EE455AD4E7B4EEE70A3D
:10B29000F1EE10FA6BDD9FED396ADFED396A01E0FE
:10B2A000B0EE677AB4EEE67AF1EE10FA77EE467A0F
:10B2B000F6DC9FED347AF4EEC77AF1EE10FA53D54E
:10B2C0009FED2E6ADFED306A01E0F0EE477AF4EE92
:10B2D000E67AF1EE10FA37EE867AF6D4DFED2B7AC5
:10B2E000B4EEE77AF1EE10FA33DCDFED2E7AB4EE4D
:10B2F000E77AF1EE10FA44BFDFED227A37EEC77A33
:10B3000027EE076ADFED224ADFED226ADFED227ABF
:10B31000E6EE246A67EE064AE6EE267AB7EE006AA3
:10B32000A4EEA77AF6EE006A36EE476AF8EE007AE7
:10B3300027EE277A66EE266A8EE7DFED1A7AB4EEFC
:10B34000E77AF1EE10FA44BFDFED0E7A37EEC77AF6
:10B3500055E7DFED097A37EEC77AD1E7F0EE407AAC
:10B360002BE7B0EE677A3EE7B0EE677AB6E7F0EE2D
:10B37000477A9EE727D4D236DB0F4940DB0FC9401E
:10B38000E4CB1641DB0F49C0E4CB16C1DB0FC93F4C
:10B3900092E741B99730083C15A82ABEF304353F1F
:10B3A00000000000DB0FC9BF07EE901AF8EE677AC5
:10B3B0009FED837A27EE800A20EE070AFDEEC07A21
:10B3C00017EE903A2033402B00F28180DFED7D7A3A
:10B3D000B4EEE70AF1EE10FA40F3E680B0EE407A00
:10B3E0009FED796ADFED796A01E0B0EE677AB4EE3D
:10B3F000E67AF1EE10FA77EE467AF6DC9FED747A93
:10B40000F4EEC77AF1EE10FA40F1D1809FED6E6A4A
:10B41000DFED706A01E0F0EE477AF4EEE67AF1EEE5
:10B4200010FA37EE867AF6D4DFED6B7AB4EEE77A6F
:10B43000F1EE10FA40F3A780DFED627A37EEC77ABB
:10B4400027EE076ADFED655ADFED657ADFED656AA5
:10B450009FED655AE6EE257A67EE065AE6EE276A14
:10B46000F7EE007AA5EEA67AF0EE675AE7EE055AF7
:10B47000E7EE457A87EEA55ADFED577A30EE277A68
:10B48000FDEEC76A16EE903A2033402B24D99FED8B
:10B49000577AF6EE006AB7EE006AF7EE004AC4EE9D
:10B4A000A57A0023836143610362C36180ED045A7E
:10B4B00067EEA66A27EE866A27EE877AC0ED006AF5
:10B4C000C0ED026A80ED016A80ED037A7047B7EE45
:10B4D000005AF0EE455ACFE7B4EEE70AF1EE10FA63
:10B4E0006BDD9FED396ADFED396A01E0B0EE677A16
:10B4F000B4EEE67AF1EE10FA77EE467AF6DC9FEDDE
:10B50000347AF4EEC77AF1EE10FA53D59FED2E6A35
:10B51000DFED306A01E0F0EE477AF4EEE67AF1EE24
:10B5200010FA37EE867AF6D4DFED2B7AB4EEE77AAE
:10B53000F1EE10FA33DCDFED2E7AB4EEE77AF1EEBD
:10B5400010FA44BFDFED227A37EEC77A27EE076A9A
:10B55000DFED224ADFED226ADFED227AE6EE246A91
:10B5600067EE064AE6EE267AB7EE006AA4EEA77A00
:10B57000F6EE006A36EE476AF8EE007A27EE277A92
:10B5800066EE266A89E7DFED1A7AB4EEE77AF1EE25
:10B5900010FA44BFDFED0E7A37EEC77A50E7DFEDE1
:10B5A000097A37EEC77AD1E7F0EE407A26E7B0EEB7
:10B5B000677A39E7B0EE677AB6E7F0EE477A9EE74A
:10B5C00027D4D236DB0F4940DB0FC940E4CB16410C
:10B5D000DB0F49C0E4CB16C1DB0FC93F92E741B98D
:10B5E0009730083C15A82ABEF304353F0000000040
:10B5F000DB0FC9BF30B402681146531C036011F859
:10B60000024B0160D31C517803609378151D0560CF
:10B610001B0443EA0123D078234343EA006030BC93
:10B62000704700BF0368591C1A46016012F8021BDC
:10B630000260587841EA0020704700BF03685A1C36
:10B6400002601878704700BF70B5044608460E4681
:10B6500047F05AFC314605460246206848F0E8FBB0
:10B6600020682844206070BD38B50446006815463F
:10B6700048F0DEFB22682A44226038BD036810B41B
:10B680000A0E5C1C04601A7003680A0C5C1C0460DF
:10B690001A7003680A0A5C1C04601A7003685A1C5A
:10B6A000026019705DF8044B704700BF036810B466
:10B6B0000A0A5C1C04601A7003685A1C0260197044
:10B6C0005DF8044B704700BF03685A1C026010B459
:10B6D000197003680A0A5C1C04601A7003680A0C7B
:10B6E0005C1C04601A700368090E5A1C0260197011
:10B6F0005DF8044B704700BF03685A1C0260197064
:10B700000368090A5A1C02601970704770B54488B2
:10B710000546C4F30B0422460846002149F0ACFE5E
:10B720002969094A9142034602D3084A914204D347
:10B7300041B11846BDE8704008472246BDE8704058
:10B7400048F076BB70BD00BF6C070008E608000833
:10B7500038B5064C064DAC4206D26168204614341A
:10B76000FFF7D4FFAC42F8D338BD00BF900100080A
:10B770006C070008084B09498B4203D309E01433D6
:10B780008B4206D21A88C2F30B029042F7D11846B8
:10B790007047002318467047900100086C070008A6
:10B7A0002DE9F74F0F46019000213846FEF7DCFBEC
:10B7B000DFF8C4A0009000252E4B186837F0DAFEA1
:10B7C0000D242D4B019A6C43E3181B7903F01803E9
:10B7D000934203D0002A45D1182B43D10D2606FBF6
:10B7E00005A35444B3F80900FFF7C4FF814620467F
:10B7F000FEF7FDFAD9E901218046024401442046C2
:10B80000FEF72CFB80F00101009A8346C9B238464E
:10B81000FEF7AAFBFA06009002D5BBF1000F21D17A
:10B8200006FB05A6BB0636680FD5BBF1000F0CD191
:10B8300031461248FEF78CFED9F804105A464144AE
:10B840002046FEF7F9FEFEF779FB31460C48FEF77D
:10B850007FFED9F80810002241442046FEF7ECFE96
:10B86000FEF76CFB0135B5F5F97FA5D103B0BDE856
:10B87000F08F00BFAC53002068A005081BD305085B
:10B880001CD3050870B50546B0F80900FFF772FF34
:10B89000064B1E7804462846FEF7A9FA16B1A3689F
:10B8A000184470BD63681844FBE700BF1CA8002063
:10B8B00038B505460C46FFF7E5FF2A7902F0070385
:10B8C00002F0E002602A28D1022B0ED0042B18D0FF
:10B8D0003BB96A7901239340DBB2027814B1134378
:10B8E000037038BD22EA0303FAE76A790123934023
:10B8F0009BB2028814B113430380F2E722EA0303E8
:10B90000FAE76A79012303FA02F2036814B11343D8
:10B910000360E6E723EA0203FAE7042BE1D8DFE855
:10B9200003F00303050507000470DAE70480D8E795
:10B930000460D6E738B50D460446FFF7A3FF2A4654
:10B9400001462046BDE83840FEF776BE30B40649D1
:10B95000064B074C812042F62812002548711A80B8
:10B96000657130BC704700BFE4B30020D0BD00203B
:10B97000185F002008B5064B186838B137F08AFA0E
:10B98000044B9B7813B180F00100C0B208BD00BF2A
:10B99000D08600207C5D002008B53CF051F818F0FE
:10B9A000E3FE1B2037F04AF818B1232200238271EE
:10B9B000C3713AF03FFB18B1232200238271C37197
:10B9C000094B9B78012B01D0012008BD074B084A89
:10B9D00003F1200103F14C0013603BF02BFE054BFB
:10B9E000002083F8230008BD809F0020BC010020B8
:10B9F000B869002000ED00E008B5002103201AF02E
:10BA0000F1F972B648F09AF908B5FFF7B3FF0028CC
:10BA1000FBD1142012F0A8FF00BFFFF7ABFF0028F6
:10BA2000FAD0FFF7E9FF00BF03212DE900480446E3
:10BA300008461AF0D7F972B6114BD3E900BC5BEA9D
:10BA40000C030AD10024214604201AF0CBF9214628
:10BA500005201AF0C7F948F071F90A49086824B2BC
:10BA60004EF6602101FB04F41BEB00024CF10003D5
:10BA700012EB040B43EBE47C61465C46E4E700BF59
:10BA8000B06800206CB30020074A084B10781B7880
:10BA9000074A834296BFC31AC3F18003002012688D
:10BAA00018441044704700BF38490020B4480020B3
:10BAB000B0480020064A074B10781B7883428ABFA3
:10BAC000C3F18003C01AC018C0F17F00704700BFE7
:10BAD00038490020B4480020064808B54368DB68B0
:10BAE000984705480549064A002303700B70136008
:10BAF00008BD00BF20B4002038490020B448002011
:10BB0000B04800200348436813B19B6A03B118474B
:10BB10000148704720B40020B05505082DE9F047D2
:10BB200084B0FFF7EFFF8568ED0A1BD0DFF8408097
:10BB30000026C14604AFD8F80430AC196410D3F81D
:10BB400024A0E10210236A464846D0470F2809DDA9
:10BB50006B4653F8042B013208D19F42F9D1254698
:10BB6000B542E8DCE80204B0BDE8F087661CF7E700
:10BB700020B400202DE9F04F87B04FEA820A0491EB
:10BB8000CDE9013000220B46514453F8040B8B429F
:10BB90000244FAD1019B05922BB9424843681B68C5
:10BBA0009847002863D0FFF7ADFF43880393059BB8
:10BBB000002B4AD03C4B029A3A4E1B68DDF814B079
:10BBC00092440399B3FBF1F901FB193303EB0B0228
:10BBD0008A428CBFA1EB0309D946FFF793FF324B92
:10BBE000196883688B4248D973682E481B69984747
:10BBF0007168029C049D4F46AC4655F8043B3046A4
:10BC00001A468BB1D4F800E0D1F81480BB427146DB
:10BC10001FD2C04755F8042C236871681344236071
:10BC20000023BF1A45F8043C04345445E4D18B6921
:10BC3000304698471C4A13684B441360019AABEB9B
