:020000040800F2
:10000000F0FF001029680508E54D020835080208D0
:10001000C9680508C9680508C96805080000000026
:10002000000000000000000000000000F14D020888
:10003000ED4D020800000000E94D020801510308DF
:10004000C9680508C9680508C9680508C9680508B8
:10005000C9680508C9680508C9680508C9680508A8
:10006000C9680508C9680508C9680508050E0108BA
:10007000F50D0108E50D0108D50D0108C10D0108B8
:10008000AD0D0108990D0108C9680508C968050882
:10009000C9680508C9680508C9680508C968050868
:1000A000392102082542030869200208F5420308A5
:1000B00065410308A5400308D93F03089D160108C0
:1000C000A51601089116010899160108C9680508C6
:1000D000C96805087D51030871510308655103087B
:1000E000C9680508C9680508D59B0208991F020858
:1000F00009220208C91E02087D3D0308850D01087A
:10010000C9680508C9680508093F0308C9680508E2
:10011000595103084D51030811FB030899F90308CD
:10012000710D01085D0D0108490D0108350D01082B
:10013000210D0108C9680508C9680508C9680508CE
:10014000C9680508C9680508C9680508AD680208D6
:100150000D0D0108F90C0108E50C010841510308D7
:10016000851601088D160108C9680508C9680508C3
:10017000C9680508C9680508C9680508C968050887
:08018000C9680508C9680508FB
:08018800D06305000100000036
:10019000100201000C2200200822002000000000B4
:1001A000BC0700081F02100020220020102200209F
:1001B00000000000758500081C021000E0460020C9
:1001C000144C002000000000B1830008041202005B
:1001D000B44B0020244C002000000000BE070008A3
:1001E0000F020100B04B0020284C0020000000004E
:1001F000C007000810100200644B00202C4C0020A7
:1002000000000000C207000828101000544B002016
:10021000304C002000000000892001081900050072
:100220004C4B0020404C002000000000C407000898
:10023000F8210600444B0020484C0020000000003C
:10024000CA07000801200C005C440020504C00202C
:1002500000000000D00700080A702800C8430020F2
:100260005C4C0020000000002D2001080EB086012B
:1002700040420020844C002000000000792804083F
:10028000010104009C4100200C4E002000000000F1
:10029000000000000001040094410020104E0020E6
:1002A00000000000DC07000802010300904100206C
:1002B000144E002000000000D5BC04081A023C00C7
:1002C000B85000205452002000000000799200082D
:1002D00027000400944F00209052002000000000EE
:1002E000E007000838100100B84E002094520020AA
:1002F00000000000E407000814000300846C0020E4
:10030000F06C002000000000E80700080B301A0025
:10031000905C0020F46C002000000000EC07000856
:100320001F302400AC5C0020106D00200000000095
:10033000080800080502040018680020346D002039
:10034000000000002C08000803010A00EC5C0020FB
:10035000386D00200000000030080008130204007F
:10036000C45A0020446D0020000000003A08000834
:1003700022021401D8970020289A002000000000D3
:10038000C99400080C20CC00CC8700203C9B0020A6
:100390000000000099BC040801020500B08700209D
:1003A000089C002000000000E9A6020800020500E9
:1003B000A8870020109C0020000000000000000022
:1003C0001B0210007C870020189C00200000000009
:1003D000DD8300081E000600D4840020289C002035
:1003E00000000000400800081B100C00D87F00200F
:1003F000309C00200000000051BC02082102F000E7
:10040000587E00203C9C002000000000A5A90208A6
:1004100023121000688A00202C9D0020000000009C
:100420004808000805100600608A00203C9D002056
:10043000000000005808000837102800048700203A
:10044000449D0020000000005E0800080E0202002B
:100450005C8A00206C9D00200000000086080008D7
:10046000161006004C7E0020709D00200000000049
:10047000880800082F102200049A0020789D002090
:10048000000000008E08000823100E0024840020C5
:100490009C9D002000000000A3200108F551900061
:1004A0007C7D0020AC9D002000000000C9F7020800
:1004B00026100C00489E00203C9E002000000000FA
:1004C000319C02080A020A0028A700207CA900200B
:1004D000000000004D96030803000100FCA100206D
:1004E00088A90020000000000000000003123D0069
:1004F0003CA900208CA9002000000000B0080008E2
:1005000025102C015CA70020CCA9002000000000D1
:10051000000000001A000E00B8B2002000B4002055
:1005200000000000EE08000820320A008CB1002014
:1005300010B40020000000005928040815007000C5
:100540007CAF00201CB40020000000000000000070
:100550002A00600088B300208CB400200000000056
:10056000312804082C001000FCB40020ECB400205A
:1005700000000000212704082B00240030B50020D3
:100580000CB5002000000000F126040829207800A6
:1005900068AD002054B500200000000000000000FD
:1005A0000702020094B70020ECB700200000000012
:1005B000FC080008F6210C0090B60020F0B70020DF
:1005C000000000000009000802000C00A0B6002096
:1005D000FCB70020000000000000000006020C0034
:1005E0006CB7002008B80020000000001593000838
:1005F00008120F00BCB6002014B800200000000054
:1006000005850008F7010600B4B6002024B80020D4
:10061000000000000C0900081D020200B0B6002016
:100620002CB8002000000000120900080902010097
:10063000ECED002000EF002000000000140900088D
:10064000040080006CED002004EF0020000000009A
:1006500000000000130004004CED002084EF002097
:100660000000000018090008FD01240028ED00200A
:1006700088EF0020000000008514030818203000D7
:10068000F4EC0020ACEF00200000000029940008EA
:1006900006101A00D4DA0020DCEF00200000000071
:1006A000DD2C0408FB010100D0DA0020F8EF002067
:1006B000000000009D940008FC0109009CD9002066
:1006C000FCEF002000000000AD94000816023F007F
:1006D0005CD9002008F000200000000025840008FC
:1006E000340010008CD8002048F0002000000000EA
:1006F000B12C04081102080064D8002058F0002032
:10070000000000001C090008121204005CD8002040
:1007100060F00020000000002409000812201000F2
:100720004CD8002064F000200000000028090008D8
:100730000D004C00B0D4002074F000200000000038
:1007400061B90108F901040074D40020C0F0002050
:1007500000000000FD140308FA0102005CCE002036
:10076000C4F000200000000095860008020203008B
:1007700050B80020C8F00020000000000000000079
:100780000C0204003CB80020CCF000200000000067
:100790005D85000811000C00E5C20020D0F00020AB
:1007A00000000000E1B60108FE011400C0C20020F4
:0C07B000DCF0002000000000F1830008D5
:1007BC0000000000000000050000280100000401FA
:1007CC00F4011400E8036400040A000114001E0084
:1007DC009001000020030000000000000300000056
:1007EC00AE014A015E012C0164010300000001000E
:1007FC000A019A01001E0A0000000000000000001F
:10080C0000010000000500000102030000000000D0
:10081C000000000000000000000000000080070045
:10082C0000000000040101006C1600000000000034
:10083C0001000000000001000000000000000000AA
:10084C00000000000000000000000000200001017A
:10085C00000020003200C800D007960014003200BF
:10086C002800B00440060005500014000F000800DA
:10087C0064000100010005000A000000C40900002A
:10088C001900000000000000000000000000000043
:10089C00000000000000000000000000000000004C
:1008AC00000000000000000000000000000000003C
:1008BC00000000000000000000000000000000002C
:1008CC00000000000000000000000000000000001C
:1008DC00000000000000000000000000000000000C
:1008EC0001007E05EA05B4053200E803D0070000DC
:1008FC00023C0000000000000100000002020000A9
:10090C0000010000000000001800000048004438FE
:10091C000000000001010101FFFFFFFF00000001CA
:0C092C000000054147583400000800009E
:100938001A03000000000000000000000000000092
:10094800000000000000000000000000040309048B
:100958001201000200000040830420570002010237
:1009680003010000F1D00008F1850008ED850008BA
:10097800E985000811950008E5850008E18500086B
:100988008C830508854F020869310208C55A020898
:100998000000000000000000C9570208E5560208E0
:1009A800000000000000000000000000A12C020868
:1009B800898600087D860008B59A0008D19A000843
:1009C80035860008999A00087D9A00080068214C2D
:1009D8001F0000001C0000001F0000001E00000097
:1009E8001F0000001E0000001F0000001F00000084
:1009F8001E0000001F0000001E0000001F00000075
:100A0800FF01FF00000004010000000000000002D8
:100A180010000000070000000000000000000000B7
:100A28000102030406070809FFFFFFFF0100000099
:100A3800A517010800000000288E0508FFFFFFFF2A
:100A4800010100000001010100D6012D202D2D20FB
:100A58002D2D2D2D202D2D2D000000000000000033
:100A6800000000000000000000000000000000007E
:100A78000000000008A505080000000000000000B4
:100A880094A5050801000000FA000000010000001C
:100A98000100000001010000584400200000F4019A
:100AA80001000000564400200000F401010000008D
:100AB800544400200000F4010100000052440020CA
:100AC8000000F40101000000504400200000F4017F
:100AD800010000004E4400200000F4010100000065
:100AE8004C4400200000F40101000000B51E01087C
:100AF800791E0108A492050842440020053201002D
:100B080040440020E803D007010000003E440020D4
:100B1800E803D007010000003C440020E803D007A8
:100B2800010000003A4400201E00B80B010000003C
:100B38004844002005000F00010000004A4400203E
:100B480003000A0001000000384400201E00F401E0
:100B58000100000036440020140064000100000079
:100B6800444400203200E80301000000344400201F
:100B78000000C800010000000E44002000C8010069
:100B88000D440020005001000C440020005A0100D0
:100B98000A4400200200000030930508C40A060831
:100BA800CC0A0608EAEE00200100C4090000000093
:100BB800E8EE00200100C40900000000E6EE002075
:100BC8000100C40900000000E4EE00200100C4098F
:100BD80000000000E0EE00200100C4090000000051
:100BE800E2EE00200100C40900000000DEEE002053
:100BF8000100C40900000000DCEE00200100C40967
:100C080000000000B541002000C80100B4410020E8
:100C180000C80100B24100200100C8000100000026
:100C2800B04100203200307532000000AE41002093
:100C3800055A0500AB41002000FF0100AD4100202E
:100C480001000000F4030020A94100200300000077
:100C58005CB30508AA41002000FF0100AC41002058
:100C680001000000F4030020A84100200300000058
:100C78005CB305081D1E0108C11D01083C93050849
:100C88006C440020EE02CA08010000006A440020FB
:100C980000C80100640000006944002000C8010089
:100CA8006400000068440020020000001C9405084D
:100CB800A241002080C1803E05000000A041002024
:100CC80080C1803E050000009A41002080C1803E1E
:100CD800050000009841002080C1803E050000000A
:100CE8009341002000FF01008C4100206400F401C2
:100CF800010000008B410020040000002894050832
:100D08008A410020020000003C9405082F42002080
:100D18000D000000489405082C42002000640100E2
:100D28002A420020320010270A0000002942002031
:100D38000D00000048940508284200200D0000001E
:100D48004894050827420020020000008094050806
:100D580000000000000000008C940508D067002007
:100D68009CFF2C0100000000E8450020E0150C174E
:100D780000000000EA45002002000000C4940508B5
:100D8800784400200100FF7F010000007744002024
:100D980002000000D0940508314200200300000042
:100DA800E09405083042002003000000E0940508A4
:100DB800FC4300200000E80301000000FA43002083
:100DC8000000E80301000000F84300200000E803E9
:100DD80001000000F64300200000E80301000000C5
:100DE800F44300200000E80301000000F243002063
:100DF8000000E80301000000F14300200014010096
:100E0800F043002003000000F09405080844002087
:100E18000000F40101000000064400200000F40175
:100E280001000000044400200000F401010000005B
:100E3800024400200000F4010100000000440020EA
:100E48000000803E01000000FE4300200000803EBC
:100E58000100000021440020196401002044002002
:100E680002000000009505081E440020E803D00792
:100E78000A0000001C440020006401000A00000071
:100E880011440020006401001044002000640100A7
:100E980018440020006401000A00000017440020E4
:100EA800006401000A0000001644002000640100EC
:100EB8000A0000001B440020006401000A00000032
:100EC8001A440020006401000A00000019440020B0
:100ED800006401000A0000001544002001FF010021
:100EE8000A0000001444002001FF01000A0000006D
:100EF8001344002001FF01000A0000003A420020CC
:100F08000000F40101000000384200200000F40154
:100F180001000000364200200000F401010000003A
:100F2800344200200000F401010000003242002099
:100F38000000F401010000002B46002000C8010059
:100F48002A460020006401002946002000640100B0
:100F580028460020006401002746002000640100A4
:100F680026460020FF0801002546002001640100F4
:100F7800291D0108ED1C01080C95050824460020D0
:100F880000640100224600201400E803010000006C
:100F980020460020E80330750A0000001E460020A5
:100FA80000C801001D46002000C801001C460020A2
:100FB80000C801001B460020006401000A00000070
:100FC8003A4600200000D007010000003446002007
:100FD80000C801003346002000C801003246002046
:100FE80000C80100384600200000D00701000000BA
:100FF8003146002000C801003046002000C801002A
:101008002F46002000C80100364600200000D00707
:10101800010000002E46002000C801002D460020D7
:1010280000C801002C46002000C801000000000094
:10103800E11A01087C9505082542002039000000C6
:10104800189605082442002000C80100224200200A
:10105800E803D00701000000414733584634000038
:10106800A741002000030100A64100200003010061
:101078002D1A0108F119010800970508AD19010892
:101088006119010870970508691A0108812A010881
:10109800F0970508A4410020010301001D1F010865
:1010A800F11E0108009B0508F1180108B118010894
:1010B800709B0508F71A0108614701080C9C050890
:1010C8008926010800000000B49C05087D2E01084F
:1010D8007D1F0108509D0508491B010800000000FC
:1010E800D09D0508211C0108CD1B0108349E050868
:1010F800B11C0108751C0108D09E0508B5B401088B
:10110800651D0108509F05083344002001060100B1
:10111800911B01085D1B01084CA005081BB40108C0
:10112800E52A0108BCA00508FDB401087D2B0108CB
:10113800B8A105083244002001030100B11A0108D2
:10114800811A01088CA20508491F01080000000047
:10115800F0A2050831190108512A010854A305080D
:101168000000000000000000E0A30508991D010828
:10117800F52B010860A405088641002088136F1725
:10118800010000008841002088136F17000000004C
:101198004E5D002000000000000000004C5D0020B3
:1011A80000000000000000004A5D00200000000070
:1011B80000000000485D0020000000000000000062
:1011C800465D00200000000000000000445D002093
:1011D8000000000000000000780D00200000000062
:1011E800000000005C41002002000000E8A505089E
:1011F8008441002088136F17010000001068002048
:1012080088136F170000000045180108000000004F
:10121800F4A505081A4600200100000048A60508A4
:10122800126800200100000054A605080868002084
:10123800020000005CA60508000000000000000095
:1012480068A60508311801080000000004A7050871
:10125800000000000000000058A70508000000007A
:1012680000000000C8A705080C680020E0150C174E
:101278000000000001000000A00F0000B80B0000F3
:101288000102FFFF01000000685E0C00C132020885
:10129800AD310208615D020800000000292D020836
:1012A80019590208FD300208915802080000000090
:1012B80000000000E52C0208792C02086D2C0208B9
:1012C800954E0208B14E0208794E02085D4E02089A
:1012D800414E02087932020889310208A15C0208ED
:1012E80000000000FD2C020895580208D1300208C1
:1012F800F15702080000000000000000F12C02086D
:101308000403090412010002EF020140830456326B
:101318000002010203010000120100020202004063
:101328008304405700020102030100000902200063
:10133800010104C03209040000020806500507052F
:101348008102400000070501024000000902640014
:10135800030100C032090400000103000000092154
:10136800110100012226000705830308000A080B63
:101378000102020201000904010001020201000544
:101388002400100105240100020424020205240699
:101398000102070582030800FF09040200020A008F
:1013A8000000070501024000000705810240000017
:1013B80009024300020100C03209040000010202D0
:1013C8000100052400100105240100010424020283
:1013D8000524060001070582030800FF090401002F
:1013E800020A00000007050102400000070581020B
:1013F80040000000FF0000008CAF0508000000005E
:1014080000000000000000000000000000000000D4
:1014180000000000000000000000000000000000C4
:1014280000FFFF0000000000AA55050100000100B0
:1014380060AF050800000000000000000000000088
:101448000000000000000000000000000000000094
:101458000000000000000000FF1FFF1F0501090534
:10146800A101A10005010930093109320933093503
:101478000934094009381581257F750895088102C6
:10148800C0C0000009022200010100E03209040086
:1014980000010301020009211101000122260007B1
:1014A80005830308000A000000000000010203048D
:1014B8000102030406070809295A02082D590208DF
:1014C800855D0208652D0208DD320208752D0208C7
:1014D800912D02083D2D02082D2D02080000000064
:1014E800000000002D202D2D202D2D2D2D202D2DFF
:1014F8002D2D00000000000000000000000000008A
:10150800000000AA550B010000AA5507010000AA17
:10151800550902000000AA5503009F0001000000C1
:10152800C0120000C46C002000000000E86C00201D
:10153800000000000100000000000100E0010000C0
:10154800FFFFFFFF0801FFFFFF000000FFFF000093
:10155800FFFFFFFF9C6F0608000008020503030059
:10156800A46F06080100080205040300A075060818
:101578000200FE01011003000C0F0608030014020C
:1015880000030000AC6F060804001F0201000800F9
:10159800B46F060805001F02010108000000803F23
:1015A800FFFFFFFF0000803F000000000000000078
:1015B80000000000FFFFFFFFFF0000000100000027
:1015C800B80B00007D0000000000803F0000000014
:1015D80000000000000000000000803F0000000044
:1015E80000000000000000000000000000000000F3
:1015F80000000000000000000000000000000000E3
:101608000000803F00000000000000000000000013
:101618000100000000000000DCB700200800000006
:1016280000000000CCB7002008000000442E060887
:10163800707706087C770608887706089477060886
:10164800A07706082C1B0608A04906088448060847
:101658003477060858740608F4750608647706088F
:10166800687706086C770608502E0608AC770608D7
:10167800B0770608D4460608B47706081900C800EB
:10168800F401200308000000692C0208652C0208F8
:10169800612C0208552C0208512C02085D2C020806
:1016A800592C02080000400003000004010000005B
:1016B80000600240106002400000000000000000CE
:1016C800000B000000000000000000000000000007
:1016D8000060024028600240010000000000000095
:1016E800060C0000000000000000000000000000E0
:1016F800006002404060024002000000000000005C
:10170800100D0000000000000000000000000000B4
:101718000060024058600240030000000000000022
:10172800160E00000000000000000000000000008D
:1017380000600240706002400400000000000000E9
:10174800200F000000000000000000000000000062
:1017580000600240886002400500000000000000B0
:10176800261000000000000000000000000000003B
:1017780000600240A0600240060000000000000077
:101788003011000000000000000000000000000010
:1017980000600240B860024007000000000000003E
:1017A800362F0000000000000000000000000000CC
:1017B80000640240106402400000000000000000C5
:1017C80000380000000000000000000000000000D9
:1017D800006402402864024001000000000000008C
:1017E80006390000000000000000000000000000B2
:1017F8000064024040640240020000000000000053
:10180800103A000000000000000000000000000086
:101818000064024058640240030000000000000019
:10182800163B00000000000000000000000000005F
:1018380000640240706402400400000000000000E0
:10184800203C000000000000000000000000000034
:1018580000640240886402400500000000000000A7
:101868002644000000000000000000000000000006
:1018780000640240A064024006000000000000006E
:1018880030450000000000000000000000000000DB
:1018980000640240B8640240070000000000000035
:1018A80036460000000000000000000000000000B4
:1018B800387006082C31060800000000E9BC04084E
:1018C800A0860100040000000000000000000000E5
:1018D8000000000000000000000000000000000000
:1018E80000000000000000000000000000000000F0
:1018F80038700608C87706080000000059B70108C4
:10190800E8030000040000000000000000000000E0
:1019180000000000000000000000000000000000BF
:1019280000000000000000000000000000000000AF
:101938009C1206085047060800000000619E030834
:101948007D0000000600000000000000000000000C
:10195800000000000000000000000000000000007F
:10196800000000000000000000000000000000006F
:10197800886F06080000000000000000A915020892
:10198800E803000003000000000000000000000061
:10199800000000000000000000000000000000003F
:1019A800000000000000000000000000000000002F
:1019B800D07706080000000000000000E99804083D
:1019C80010270000030000000000000000000000D5
:1019D80000000000000000000000000000000000FF
:1019E80000000000000000000000000000000000EF
:1019F800A86F0608000000009124040899F801085F
:101A08005F760000050000000000000000000000F4
:101A180000000000000000000000000000000000BE
:101A280000000000000000000000000000000000AE
:101A3800EC7206080000000000000000E92202081D
:101A48001027000001000000000000000000000056
:101A5800000000000000000000000000000000007E
:101A6800000000000000000000000000000000006E
:101A7800DC77060800000000000000005BB70108E2
:101A8800E80300000500000000000000000000005E
:101A9800000000000000000000000000000000003E
:101AA800000000000000000000000000000000002E
:101AB800E877060800000000000000009DC4040844
:101AC800204E00000300000000000000000000009D
:101AD80000000000000000000000000000000000FE
:101AE80000000000000000000000000000000000EE
:101AF800F87706080000000000000000A1C20408F2
:101B0800204E00000300000000000000000000005C
:101B180000000000000000000000000000000000BD
:101B280000000000000000000000000000000000AD
:101B380008780608000000000000000029090208D3
:101B4800400D03000300000000000000000000003A
:101B5800000000000000000000000000000000007D
:101B6800000000000000000000000000000000006D
:101B7800F8700608000000000000000011F60108D7
:101B88001027000001000000000000000000000015
:101B9800000000000000000000000000000000003D
:101BA800000000000000000000000000000000002D
:101BB800642E06080000000000000000B1C70208FB
:101BC80010270000030000000000000000000000D3
:101BD80000000000000000000000000000000000FD
:101BE80000000000000000000000000000000000ED
:101BF8001878060800000000000000008DAF0108FA
:101C0800A0860100010000000000000000000000A4
:101C180000000000000000000000000000000000BC
:101C280000000000000000000000000000000000AC
:101C38008C6F060800000000000000002DDB010882
:101C480050C3000001000000000000000000000078
:101C5800000000000000000000000000000000007C
:101C6800000000000000000000000000000000006C
:101C7800C00E06080000000000000000219C0208B9
:101C8800A086010000000000000000000000000025
:101C9800000000000000000000000000000000003C
:101CA800000000000000000000000000000000002C
:101CB800F80D0608000000000000000031D80108F7
:101CC800A861000001000000000000000000000002
:101CD80000000000000000000000000000000000FC
:101CE80000000000000000000000000000000000EC
:101CF80020780608000000000000000025090308FD
:101D0800A0860100010000000000000000000000A3
:101D180000000000000000000000000000000000BB
:101D280000000000000000000000000000000000AB
:101D3800F47206080000000000000000E5B9010880
:101D4800A00F0000010000000000000000000000DB
:101D5800000000000000000000000000000000007B
:101D6800000000000000000000000000000000006B
:101D78002C7806080000000000000000CDF80208DA
:101D88001027000001000000000000000000000013
:101D9800000000000000000000000000000000003B
:101DA800000000000000000000000000000000002B
:101DB80020710608000000000000000019B60108A4
:101DC800A00F00000100000000000000000000005B
:101DD80000000000000000000000000000000000FB
:101DE80000000000000000000000000000000000EB
:101DF8002C1A0608000000000000000055F1020837
:101E08001A4100000100000000000000000000006E
:101E180000000000000000000000000000000000BA
:101E280000000000000000000000000000000000AA
:101E3800B80D0608000000000000000095350208F3
:101E48001027000001000000000000000000000052
:101E5800000000000000000000000000000000007A
:101E6800000000000000000000000000000000006A
:101E7800403106080000000000000000E94E01089B
:101E88001A410000010000000000000000000000EE
:101E9800000000000000000000000000000000003A
:101EA800000000000000000000000000000000002A
:101EB800387806080000000000000000FD3B02081A
:101EC800400D0300000000000000000000000000BA
:101ED80000000000000000000000000000000000FA
:101EE80000000000000000000000000000000000EA
:101EF80040780608000000000000000017B701083D
:101F0800400D030000000000000000000000000079
:101F180000000000000000000000000000000000B9
:101F280000000000000000000000000000000000A9
:101F38004878060800000000000000004903030874
:101F480050C3000003000000000000000000000073
:101F58000000000000000000000000000000000079
:101F68000000000000000000000000000000000069
:101F780054780608000000000000000015C204089C
:101F880040420F00000000000000000000000000B8
:101F98000000000000000000000000000000000039
:101FA8000000000000000000000000000000000029
:101FB800607806080000000000000000BDB90108B4
:101FC80050C30000000000000000000000000000F6
:101FD80000000000000000000000000000000000F9
:101FE80000000000000000000000000000000000E9
:041FF8000000803F26
:1080000003685A1C02601970704700BF2DE9F047E1
:10801000089C2578002B804689460CBF4FF0200A2B
:108020004FF0300A661C25B3002A26DD334601E0F6
:10803000024698B113F8011B501E0029F8D1971E73
:1080400060B13D46013D51464046C8476B1C002B80
:10805000F8DC257827EAE770013045B1041B294692
:108060004046C847301916F8015B002DF7D1BDE82E
:10807000F087002A03DC2846F9E70020EEE7571EC8
:10808000DFE700BF2DE9F04714461D4606464FF4D2
:108090007A720023204629464EF0FAF94D4BDFF85C
:1080A00048814D4A4D4F034488FB03101844D917AB
:1080B00082FB032CC1EB601088FB002887FB0327A1
:1080C0009C44474AC1EBEC2CC0EB001E82FB0C2900
:1080D000A3EB8E0E1F44434A86F806E0C1EB274708
:1080E0004FEAEC7E08EB000ACEEBA90E82FB07827A
:1080F0004FEAE0780EEB4E0EC8EB6A18ACEBCE0CF4
:10810000C8EB0818DFF8E4E086F804C0A0EB8800AC
:1081100070718EFB0303F817C0EBE21240F2B5500A
:1081200000FB1272C1EBE353B2F5896F4FEA83078C
:108130003CDA40F2DA239A4242DCB2F5B77FB4BFB0
:108140004FF0000E4FF0010E4FEA4E09DFF8A0800D
:1081500009EB0E0308EBC3031FFA8EFCD88A09EB68
:108160000E0108EBC10116310B2301E031F8020DBD
:10817000904218DD013BF9D1CE44012338F83E008E
:10818000B37007F5FA670132121ABC44F270A6F810
:1081900000C0204629464FF47A7200234EF078F949
:1081A0003281BDE8F0870133DBB2E9E74FF0030C21
:1081B000E64640F29650DFF838804FF00609CEE7E9
:1081C0004FF0020CDFF82880E64640F229404FF0DD
:1081D0000409C4E780BC92C7C5B3A29107452EC26B
:1081E000ABAAAA2A73B06D1689888888792D0311E5
:1081F000C08005080028F0B403DA2D230B7040423C
:108200000131092804464FF0010307DD03EB830326
:108210005B00B0FBF3F2092AF8D883B10F48A0FB4A
:108220000326B4FBF3F2092A02F1570C02F13007DE
:1082300009DD03FB1244F30801F801CBEFD1002361
:108240000B70F0BC704703FB1244F30801F8017B8C
:10825000E5D100230B70F0BC704700BFCDCCCCCC77
:10826000884270B44FF0010442D301FB04F4B0FB28
:10827000F4F58D42F9D2ECB142BB092D04FB150097
:1082800005F1570605F130020EDDB4FBF1F403F8F9
:10829000016B7CB1B0FBF4F5092D04FB150005F171
:1082A000570605F13002F0DCB4FBF1F403F8012BC2
:1082B000002CEFD100221A7070BC704703F8016BDC
:1082C000B4FBF1F4002CF5D0B0FBF4F5092D04FB60
:1082D000150005F1370605F13002EFDCB4FBF1F4CF
:1082E00003F8012B002CEFD100221A7070BC7047EC
:1082F0000546002AEAD1C0E790ED057A90ED004AE4
:10830000D0ED066AD0ED014AD0ED047A90ED035A23
:10831000D0ED025AA4EE007AB0EE406AB0EE470A01
:10832000B0EE667AA4EE867A67EEC07AA5EE407A61
:10833000E5EE867A80ED057AC0ED067A704700BFDB
:10834000D0ED057A90ED013AD0ED003AD0ED064A35
:1083500090ED024A90ED077A90ED035A90ED086A8D
:10836000D0ED045AC0ED067AF0EE406A27EE830A9B
:10837000C0ED056AA3EEA60A80ED087AA4EE240AF1
:10838000A5EE470AA5EEC60A80ED070A704700BFB2
:10839000D0ED007A90ED017A30EE670AE7EE007AD0
:1083A000B0EE670AC0ED007A704700BF704700BFAB
:1083B00030B414210022022401233F25C17005217D
:1083C000C57244704472027082718273837003724A
:1083D0008372C171C17330BC704700BF0023062196
:1083E0004FF47A720170C0E901230373704700BF34
:1083F00030B430211023312234254FF601744170FE
:10840000C371FF21012342710022C570048281746F
:108410000372037083710371837042818281C28110
:1084200030BC70472DE9F04F3149324B83B001F534
:10843000F07B019018274FF000092F4810220126E9
:1084400003E0203098420BD002799742F9D10268BC
:108450000C68A24209D02030984206F10106F3D1FF
:10846000203159453AD00F79E7E744794D79A54253
:10847000F1D19446019A214809EB490502EB050A1E
:1084800057558AF8016000F572751D4E624603E08B
:10849000A8421AD050F82C6FB242F9D10679A64200
:1084A000F6D1CF6806464FF0000C96468046F2683B
:1084B000BA4216D00CF1010CBCF1030F06F10C0608
:1084C000F5D14046A8427246E4D14FF0FF3C20313E
:1084D00059458AF802C009F10109C4D103B0BDE8C9
:1084E000F08F086932698242E4D14FFA8CFCEEE7E2
:1084F00020E1050808F6050848EC050808F6050817
:1085000000000140144BFF22F0B54FF0FF34C27061
:108510000271027242724273827303F10C0EA4461E
:10852000172716261525002202EB820281189E4588
:1085300085544E708F7081F803C00C710AD093F986
:108540000620DD791E7A5F7A93F90AC093F90B4011
:108550000633E9E7F0BD00BF2081050810B41F21F4
:10856000012403220023047041708270C3705DF8FF
:10857000044B704770B4034600F11001FF221A70DB
:108580005A7002338B42FAD10B4B4FF0FF3103F19B
:108590000F060C46002205E093F9044093F90510FC
:1085A00013F8032F00F8124000EB42059E42697059
:1085B000F2D170BC704700BF3481050830B41D692A
:1085C00095420AD314460A4621448D42996938BF20
:1085D0002A1B214430BC4EF0F9B930BC704700BFB3
:1085E000002070470120704701207047002070472D
:1085F0004FF40070024B10609B680B6000207047C6
:1086000078D40020013A30B4D2B28C1C04EB42047E
:108610000025020F092AD3B203F130028ABF373393
:108620000A700B704D7002318C424FEA0010F0D18D
:1086300030BC70470B4A0C4B10681B681A22C018DC
:108640000A8001D10948704710B5094B09491C68D7
:108650000822FFF7D7FF204604220749FFF7D2FF81
:10866000024810BDE8F7FF1FECF7FF1F880100204C
:10867000EAF7FF1F8A0100209A01002004230B80E3
:1086800000487047A401002012230B800048704767
:10869000A80100202C22022302704370704700BF03
:1086A00008307047704700BF816170472DE9F04F77
:1086B000DFF8DCC1754CDCF800502288B4F90AA060
:1086C000C2EB25135200C2EBE502B4F902505B4342
:1086D0006A43B4F904501B135D43AD1305EBE22567
:1086E000B5F5FA324FEAE57B85B04BF1FF33CDE9C2
:1086F0000023DDE900325343009AA561A2FB028901
:10870000CDE90201B4F908200199009809EB430969
:108710005143D31700FB0311A2FB00230B444FEA84
:10872000EA7B0AFB09F11F0308FB0B13AAFB0801F4
:1087300019444FEA102A4AEA016A16034FEA212B2C
:1087400047EA12571AEB0602E6884BEB070312F1D1
:10875000000A43F5004BAAFB060106FB0B114A1069
:10876000CB1752EA030100F08E80B4F91060009834
:1087700006FB09F1F71708FB0711A6FB0867394448
:10878000B4F90E808B4601994FEAE87908FB01F1B4
:1087900000FB0911A8FB00898944DCF804104FEAAA
:1087A0004947C1F5801C47EAD837B2464FEA4846E8
:1087B000B4F90C801AEB060A66464BEB070BF71769
:1087C0004FEAC806019600260096F907DDE9006722
:1087D0004FEACC7016EB0A0647EB0B0741EA5C0147
:1087E000801B61EB070140F6354C8946A0FB0C016C
:1087F0000CFB09114DF04CFEB4F91620B4F914A08D
:108800004E13470B47EAC14702FB06FCD31707FB91
:1088100003CCA2FB07236344564307FB0366A2FB7A
:1088200007233344560E46EAC31632184FEA6367ED
:1088300047EB010380460AFB01F14FEAEA7B08FBA4
:108840000B17AAFB08013944C60C46EA413612EB65
:1088500006084FEAE147B4F9122043EB07094FEA53
:10886000182141EA096113010B44029A0AB11B0A5B
:108870001360039B23B105EB850580352D121D6028
:1088800005B0BDE8F08F0023EFE700BF944B002058
:1088900050180020704770474FF4006303837047FF
:1088A0004FF40063038370474FF400630383704702
:1088B000F0B4037C456902681F2B37D9203B202187
:1088C000546899400C4223D010249C40D160D4605D
:1088D0005168D940CE074ED4EFF31183502282F372
:1088E00012882A6C1168C90709D45468002C52D127
:1088F000D5E909618E4243D1012285F86420DBB2BB
:1089000083F31188037C02681F2B194614D9203B7E
:10891000082150689940084200D0D1600421506875
:1089200001FA03F3184223D1F0BC704720241668E3
:108930009C4026420FD11946082310688B401842EC
:1089400000D093600423106803FA01F10842EBD0D1
:108950009160F0BC7047102199409460916011685B
:10896000D940CC07B8D5012101FA03F39360B3E7EE
:10897000D360F0BC7047012101FA03F3D360ABE789
:10898000AF690F44D7600ED82E69711A5160AC627E
:10899000002185F86410116841F00101DBB211601B
:1089A00083F31188AEE7711A5160AE62F0E700BF41
:1089B000F0B4714B71491A780B789A4240F07E817D
:1089C0006F4B1A78002A00F0D4806E4B19786E4BEA
:1089D000002940F0DB801868B3F83261048824F085
:1089E00080042404240C048093F83041C462058878
:1089F00045F08005058041628489012A44EA060425
:108A00008481A3F8321100F0B480D3F83401B3F8B4
:108A10006662048824F080042404240C048093F803
:108A20006442C462058845F08005058041628489FE
:108A3000022A44EA06048481A3F8661200F09980B1
:108A4000D3F86802B3F89A63048824F080042404FD
:108A5000240C048093F89843C462058845F080058F
:108A6000058041628489032A44EA06048481A3F8CC
:108A70009A137ED0D3F89C03B3F8CE64048824F014
:108A800080042404240C048093F8CC44C462058838
:108A900045F08005058041628489042A44EA060481
:108AA0008481A3F8CE1464D0D3F8D004B3F802665E
:108AB000048824F080042404240C048093F80046E5
:108AC000C462058845F08005058041628489052AD5
:108AD00044EA06048481A3F802164AD0D3F80406B7
:108AE000B3F83667048824F080042404240C04803E
:108AF00093F83447C462058845F0800505804162DB
:108B00008489062A44EA06048481A3F8361730D003
:108B1000D3F83807B3F86A68048824F08004240482
:108B2000240C048093F86848C462058845F08005E9
:108B3000058041628489072A44EA06048481A3F8F7
:108B40006A1816D0D3F86C28B3F89E59108820F014
:108B500080000004000C108093F89C09D0621488F7
:108B600044F0800414805162908928439081A3F8D6
:108B70009E19F0BC704700BF08A1002009A1002089
:108B8000983700109437001050E300205C68198972
:108B900061602568186845F0010540F20D312560D7
:108BA000A0F848108489012A44F480748481E0D0BC
:108BB000D3F83841B3F83C51D3F8340165602568E7
:108BC00045F001052560A0F848108489022A44F484
:108BD00080748481CDD0D3F86C42B3F87052D3F84E
:108BE00068026560256845F001052560A0F8481019
:108BF0008489032A44F480748481BAD0D3F8A043D2
:108C0000B3F8A453D3F89C036560256845F00105CB
:108C10002560A0F848108489042A44F48074848173
:108C2000A7D0D3F8D444B3F8D854D3F8D0046560AF
:108C3000256845F001052560A0F848108489052ABB
:108C400044F48074848194D0D3F80846B3F80C5669
:108C5000D3F804066560256845F001052560A0F895
:108C600048108489062A44F48074848181D0D3F822
:108C70003C47B3F84057D3F838076560256845F09E
:108C800001052560A0F848108489072A44F48074FF
:108C900084813FF46EAFD3F87028B3F87408D3F82A
:108CA0006C385060106840F001001060A3F8481064
:108CB0009A8942F480729A81F0BC70475C00E61891
:108CC000484D15F83660032E3FF67AAEDFE806F021
:108CD0004D261C02E01805EBC0004468661E012CFE
:108CE00046603FF646AF013303F00303D8B2824239
:108CF00008703FF465AE03EB4303DB00EA18022083
:108D00000021E854516034E7E11805EBC1014868DF
:108D1000461E01284E603FF62CAF0DE0E118C90059
:108D200068184668771E012E47603FF622AF02277B
:108D30004FF0FF366F544660E618F600AF192A4828
:108D4000397B00680139C9B2397389B34FF47A723B
:108D50002344B2FBF0F200FB02F0B0F57A7F05EBA2
:108D6000C30518BF01326A602AE670B11F490126A7
:108D700000220F890132002F18BF0026824201F520
:108D80008671F6D1002E3FF41BAE174A126842F2EC
:108D90001076E018B6FBF2F102FB1162012605F82D
:108DA000306002B13144234405EBC305696007E636
:108DB000BF68B7FBF0F100FB11700327AF5500B19E
:108DC00001311C44013305EBC40503F00303934256
:108DD00069603FF4F5AD00293FF4F2AD01396960F7
:108DE000EEE500BF0CA100201C0E0020F0DA0020F0
:108DF00010B5027C01681F2A4FF020030ED94C6881
:108E0000203A93401C4208D00B4A4068002414705A
:108E1000026822F001020260CB6010BD0C68934032
:108E20001C42FAD0044A406800241470026822F000
:108E3000010202608B60F0E7E4C2002010B5027C02
:108E400001681F2A4FF020030ED94C68203A934046
:108E50001C4208D00B4A406800241470026822F0BB
:108E600001020260CB6010BD0C6893401C42FAD036
:108E7000044A406800241470026822F00102026073
:108E80008B60F0E79B8A00202DE9F041C400231895
:108E90009B00B749CA585268958AADB2EFB2FE0737
:108EA0000B4461D4BE0737D5BFF35F8F1D7EEDB293
:108EB000012D00F0BB80AF4E138BBFF35F8F2318E3
:108EC00001EB83031D7E022D00F0CE80231801EB01
:108ED00083031D7E032D05D19B7E1BB1737A002B6E
:108EE00040F01A81938896F908C043F48063938018
:108EF000231801EB83031B7E013363450AD1B37A48
:108F000000257572002B40F08A80204401EB800020
:108F100000234375BDE8F081964E17F0040F96F9D3
:108F200008C04DD117F0400700F0B280178A1D6AC3
:108F3000FFB205F80C705FFA8CF56F1C93F818E01F
:108F40007BB2DF1CBE4533729C4600F009812718B6
:108F500001EB87073F7EBB42CAD105F1020C4FFAF5
:108F60008CFC86F808C0C3E71588824E25F400659E
:108F70002D042D0C1580158845F4806515809D7E87
:108F800000273772002D3DD0757A002D37D0231879
:108F900001EB830301251B7E7572022B03D113881D
:108FA00043F400631380231801EB83039B7D43F09C
:108FB00001031382204401EB8000037EBDE8F081B1
:108FC0009F7E757A4FF0010E86F80AE0002F5CD084
:108FD000002D78D1231801EB83035B7E002B00F07A
:108FE000A48013880CF1010C4FFA8CFC43F400733D
:108FF00086F808C013801388DF05FCD478E7DB7D92
:10900000FF2BC4D0231801EB83039D7D05F0FE05E3
:109010001582DB7DFF2BCDD0FF233372CAE7938807
:1090200023F440731B041B0C93806EE79B7E514E10
:10903000002B3FF441AF737A002B3FF43DAF138810
:1090400023F480631B041B0C1380BFF35F8F138B0F
:109050001388B57243F400731380938896F908C09F
:1090600043F48063938043E79B7E002B3FF42EAF55
:10907000737A002B3FF42AAF138896F908C023F4C3
:1090800080631B041B0C138016E0002DA2D0A8E700
:109090002D067FF52DAFBCF1FF3F6DD0DD6915F8D2
:1090A0000C5015820CF1010C1D7E4FFA8CF39D4281
:1090B0009C4633727FF41CAF938823F480631B04B7
:1090C0001B0C938014E71F7ED3F820805FFA8CF589
:1090D000AE44022F4FFA8EFE17882DD927F48067F1
:1090E0003F043F0C1780178AFFB208F80C701788EE
:1090F000D3F820C047F400731380138ADBB20CF856
:109100000E30938805F1020C4FFA8CFC43F4806317
:1091100086F808C093806EE7938896F908C023F418
:1091200080631B041B0C9380E2E61388012543F443
:109130008073138075725EE747F400771780178A93
:10914000FFB208F80C70178AD3F8208005F1030CE1
:109150004FFA8CFCFBB286F808C008F80E304AE7DC
:10916000978827F480673F043F0C9780EFE600BFA5
:1091700000B7002050180020DD7D15829D7E3772DB
:109180001DB91B7E002B7FF415AF938823F48063F9
:109190001B041B0C93800DE713B506230C466A468F
:1091A00028210C302CF07CFDF0B19DF801309DF8A9
:1091B000002042EA032204219DF8033012B292FB00
:1091C000F1F222809DF8022042EA032212B29DF8B9
:1091D000043092FBF1F262809DF8052043EA0223FD
:1091E0001BB293FBF1F3A38002B010BD13B50623AD
:1091F0000C466A4603210C302CF052FDA0B19DF8BC
:1092000000209DF8013043EA022323809DF80220CC
:109210009DF8033043EA0223A3809DF804209DF8C3
:10922000053043EA0223638002B010BD07B5062370
:109230006A46F7212CF034FD9DF801309DF80010AE
:109240000B4A1B0143EA01339DF8021043EA111354
:1092500053609DF804309DF803101B0143EA01336D
:109260009DF8051043EA1113136003B05DF804FB89
:10927000501800202CF0FEBE38B51D4B1B7804465C
:1092800000F1250593B104221A4920304EF002FF67
:109290002846142218494EF0FDFE012384F83A3086
:1092A000164B1B7873B984F83B3038BD284614221E
:1092B00013494EF0EFFE012384F83A300F4B1B7830
:1092C000002BF0D00F4B186859689A68DD68E5608C
:1092D00020606160A260DD69186959699A69A261BC
:1092E0000123E5612061616184F83B3038BD00BF36
:1092F000ACB6002060B6002048B60020ADB6002015
:10930000F001060868B60020014B18682BF092BFE8
:109310000052002010B400232A242B2101220471C2
:10932000417182710360C3715DF8044B704700BFE7
:109330002DE9F84FDDE90A6489461746002120220D
:10934000984605464EF068FE5EB1D6E90032718956
:10935000EB81C3F30F432B82C2F30F43EA822B83CB
:10936000698248464CF09EFB17F0100B10D1431E4B
:1093700070B119F803202E2A18BF09EB030104D19C
:109380004AE011F8016D2E2E3ED013F1FF33F8D2D2
:1093900008280246CA46A8BF08224FF0000B4FF02B
:1093A00020336B602B60C5F807304946284605F12D
:1093B00008064DF00BFB5A46514630464DF006FB71
:1093C0006B1EE81D13F8012FA2F1610119299CBF42
:1093D000203A1A708342F5D105F10B0116F8013BD2
:1093E000A3F16102192A9CBF203B06F8013CB1425F
:1093F000F4D11823C8F30F42EF722B73A5F81A802B
:10940000AA82EC61BDE8F88FC01A00F1FF3BBBF106
:10941000030FA8BF4FF0030B082B03F1010AA8BFED
:109420000823CA441A46BAE738B5302200214EF064
:10943000F3FD0346642440F2DC5040F21A4140F24E
:109440006C7240F202251C745882132419209982F0
:10945000DA8240F2753140F643021D839C760E2578
:109460000A241877D9831E2002211A84012283F846
:109470002E00197283F82C1083F8225083F82D40A7
:109480009A7383F8252083F82B2019460248BDE8FB
:1094900038403AF07BBA00BFF801060810B5002149
:1094A000044601202BF066F9207010BD38B5002469
:1094B0000472451EE1B202202BF05CF90134082C45
:1094C00005F8010FF6D138BD38B5002405460480F3
:1094D00021462846013427F025FC082CF8D100212C
:1094E00085F8E210A5F8E410A5F8E610A5F8E81054
:1094F000A5F8EA10A5F8EC10A5F8EE10A5F8F01004
:10950000A5F8F2102846BDE8384027F0CDBB00BFD3
:109510002DE9F04F002087B00C461D4601219246F0
:109520002CF014F9002D63D005EB0A03DFF8D0947A
:10953000DFF8D0B4039355461CE0002D00F0C58140
:10954000D9F81430AB4264D0D9F81030AB4200F0F7
:109550009780D9E90631AB4252D8A94200F26F8117
:10956000691A204648F0F0FE039B01359D4204F540
:1095700000743DD0D9F82060AE42DED8D9F83080F2
:10958000AE1B4FEAD60AD8F830300AF1020A9A45E3
:1095900006F0070603D3D8F838309A4509D9414672
:1095A000504648F09FFE8046002800F04D81C9F8E3
:1095B000300098F80430002B40F0E280D8F8287092
:1095C000002F00F0DF81D8F83030D8F80C20AAEB5B
:1095D000030A06EBCA0A4346204602EB4A224FF42E
:1095E0000071B847039B01359D4204F50074C1D159
:1095F000002108462CF0AAF8002007B0BDE8F08F43
:10960000A942ADD94FF40072002120464EF004FD6E
:10961000AAE7522261204123002622706270A070C6
:10962000722284F8E70184F8E631D9F82800E37063
:109630004FF0FF33314684F8E42184F8E521C4F883
:10964000E8014FF4F07284F8EC3184F8ED3184F8DD
:10965000EE3184F8EF31201D4EF0DEFC55216FF025
:109660005502C4F8F061C4F8F461C4F8F86184F8F4
:10967000FC6184F8FD6184F8FE1184F8FF2173E732
:109680004FF40072002120464EF0C6FCD44BD54F5B
:1096900003CBEB23022223704FF0080C9026F82313
:1096A0004FF0580EC4F80300227484F80DC0C4F8BB
:1096B000071084F801E0A6706375D9F81010D9F886
:1096C0000830D9F81C602273591A21624FF0FF311B
:1096D00000233F20A1763E21A273E372E3736374FB
:1096E000A374E3742375A375E3756376E3766377F8
:1096F000A377E3772076217784F82C2007CFD9F859
:10970000187084F82830F61B84F8293084F82A3041
:1097100084F82B3084F82D3084F82E3084F82F30E4
:1097200084F8313084F8323084F833308023666234
:10973000C4F8470004F1470684F8403029209423F8
:10974000A94F84F846C084F8420084F843300E20C4
:109750000D234FF0010C84F8440084F8453084F860
:1097600030C0716003CF33465527AA269A60C4F8EB
:109770005200C4F8561084F8FE7184F8FF61F3E6D5
:109780004FF40072002120464EF046FCD8F84030DD
:10979000002E61D104F12007002B77D0D8F83030AB
:1097A00092491122CDE900662046FFF7C1FDD8F8A5
:1097B00040301A6C04F1400A002A79D01B6B8C49A6
:1097C000CDE9006638461122FFF7B2FDD8F84460B3
:1097D000002E3FF4C9AE4FF4E078CDE904450CE02B
:1097E0000024CDE900C4FFF7A3FDB66CBA46A8F18A
:1097F00020080EB3B8F11F0F1ED93468356B96F8E8
:1098000004E011222B46214650460AF1200706F1BA
:109810001C0CBEF1000FE3D172793369019342F061
:1098200021022B46CDF800C0FFF782FDB66CBA4688
:10983000A8F12008002EDDD1DDE9044594E6E91AFF
:10984000204648F081FD8FE6231F04F5FE7243F8A1
:1098500004BF9A42FBD187E6002BD8F844200CBF06
:1098600001230223C3EB0613002A3FF47DAE966C5E
:10987000013B002E3FF478AE013BB66CF9D1002ECF
:109880003FF472AEA2464FF40078A6E7CDE9006639
:109890003346D9F80C1008222046FFF749FDD8F8C6
:1098A0004460002E3FF460AEBA464FF4F07894E77F
:1098B000CDE900663346384611224D49FFF738FDA1
:1098C000D8F84460002E86D14EE64FF40072294647
:1098D00020464EF0A1FB80220C2384F8BE2184F8A0
:1098E000C231D9F81000434BD9F8086084F8B85158
:1098F00083FB0032C117C1EB2232B2F5806F84F8CE
:10990000B95184F8BA5184F8BB5184F8BC5184F839
:10991000BD51C4F8C601C4F8CA6142DBFF2384F814
:10992000BF3184F8C13184F8C031324B711E83FBE2
:109930000132CE17C6EB2232B2F5806F29DA2E4BF8
:1099400084F8C52183FB01030B442C48C6EB631349
:10995000C3EB831680FB0370891B1844DE1792103B
:1099600022F03F020131C6EBE0100A43034484F8C1
:10997000C42184F8C3315522AA2384F8FE2184F837
:10998000FF31F1E539464FF4007220464EF044FBBA
:10999000EAE5FF2384F8C33184F8C53184F8C43183
:1099A000E9E7154B84F8C12183FB00730344134F8F
:1099B000C1EB631387FB0317C3EB831C9110A0EB70
:1099C0000C02F818DF1721F03F010132C7EBE0105D
:1099D0000A43034484F8C02184F8BF31A5E700BFDF
:1099E0000C020608180206082802060804020608E7
:1099F00008020608975545418320088281808080AF
:109A000078D40020DEADBEEF08B501201CF006FDC5
:109A1000174A936803F00C03042B1ED0082B18D1AF
:109A200051685368490203F03F0319D45268114842
:109A3000B0FBF3F0C2F3881300FB03F00C4B0E4AAB
:109A40005B68C3F3014301335B00B0FBF3F01060CC
:109A500008BD094B074A1A6008BD074B186008BDCE
:109A6000B0FBF3F05368C3F3881300FB03F0E5E7A2
:109A7000003802400024F40058B8002010B5044C0F
:109A800004480A4621461BF0B5F9204610BD00BF28
:109A90005C1800203402060810B5044C04480A463D
:109AA00021461BF0A7F9204610BD00BF5C1800201E
:109AB0004402060810B5044C04480A4621461BF02F
:109AC00099F9204610BD00BF5C180020500206081E
:109AD0000A4608B5054920B105481BF08BF9034833
:109AE00008BD04481BF086F9004808BD5C1800203A
:109AF0007C0206086402060808B5838940F2E9334F
:109B000000E0A3B10289013B12F0020F9BB2F8D032
:109B100089B2818140F2E93300E043B10289013B1F
:109B200012F0010F9BB2F8D08089C0B208BD2CF0B2
:109B300089F8C0B208BD00BF38B5054640683B4A49
:109B4000038823F040031B041B0C0380038823F0CD
:109B500038031B0490424FEA134305D002F580629C
:109B6000904201D043F0080303800388AA6843F0C1
:109B70004003038012B1136892885A83838940F2AC
:109B8000E93301E0002B43D00289013B12F0020FC0
:109B90009BB2F7D0F523838140F2E93301E0002B3B
:109BA00036D00289013B12F0010F9BB2F7D08389B6
:109BB000838940F2E93300E00BB30289013B12F0E4
:109BC000020F9BB2F8D0FF23838140F2E93300E01B
:109BD000ABB10289013B12F0010F9BB2F8D084892E
:109BE000E4B2AB6813B11A689B881383712C19D047
:109BF00008D9AC2C14D0AF2C0ED1092038BD2CF0D4
:109C000021F8EEE7122C0FD0702C07D1052038BDBB
:109C10002CF018F86868CBE7732C03D0002038BD0F
:109C2000072038BD062038BD082038BD0038004068
:109C30002DE9F04F87B0A94A02904068038823F0CD
:109C400040031B041B0C0380038823F038031B0410
:109C500090424FEA134300F03F8102F58062904248
:109C60000CBF3022382213430380029B02889B687A
:109C700042F04002028013B11A689B8853838389A3
:109C800040F2E93302E0002B00F090810289013BB1
:109C900012F0020F9BB2F6D06B23838140F2E933BE
:109CA00002E0002B00F082810289013B12F0010FDB
:109CB0009BB2F6D08389838940F2E93302E0002B1E
:109CC00000F071810289013B12F0020F9BB2F6D0C5
:109CD0008023838140F2E93302E0002B00F06381AE
:109CE0000289013B12F0010F9BB2F6D08389029BDF
:109CF0009B6813B11A689B8813830623784CDFF89E
:109D0000EC81DFF8ECA1774D774E04939623DFF8D2
:109D1000E4C101934FF0100EDAF80430C3F30803E6
:109D2000002B40F0B280EFF31183002B40F0AD80A8
:109D30002068AA6823689842FAD133689A42F7D813
:109D4000D8F800704FF47A7101FB07F39B1AB3FB4C
:109D5000F7F301FB00304FF47A774FF00109DAF89E
:109D60000430C3F30803002B70D1EFF31183002BF1
:109D70006CD12368A96822689342FAD13268914273
:109D8000F7D8D8F8002007FB02FBABEB0101B1FBD1
:109D9000F2F107FB03131B1AB3F57A7FDFD3019BA4
:109DA000013B0193B8D1029B9B6813B11A689B8851
:109DB0005383029B586840F2E933828902E0002B0A
:109DC00000F085800289013B12F0020F9BB2F6D0B1
:109DD000F523838140F2E93301E0002B77D002893B
:109DE000013B12F0010F9BB2F7D08389838940F2C7
:109DF000E93301E0002B67D00289013B12F0020F2A
:109E00009BB2F7D0FF23838140F2E93301E0002BBE
:109E10005AD00289013B12F0010F9BB2F7D083891F
:109E2000DBB20393029B9A6812B11368918819837D
:109E3000039B682B60D0049B013B13F0FF0304934A
:109E40007FF464AF184607B0BDE8F08FEFF31181DF
:109E50008EF31288D5F808B02B68DB0344BFCCF82A
:109E60000090D5F808B02368DCF80020C9B281F36F
:109E70001188D8F80010134407FB01F2A2EB0B0283
:109E8000B2FBF1F207FB032385E7EFF311838EF3B7
:109E90001288AF682A68D20303D50122CCF80020CB
:109EA000AF682068DCF80090DBB283F31188D8F843
:109EB00000104FF47A72484402FB01F3DB1BB3FB42
:109EC000F1F302FB003046E72BF0BCFEAAE72BF0D3
:109ED000B9FE029B586889E73022C4E6003800408A
:109EE0006CC2002010E000E074C2002070C20020AC
:109EF00000ED00E068C2002012B1136892885A8316
:109F0000029B586840F2E933828901E0002B45D07A
:109F10000289013B12F0020F9BB2F7D08C238381A0
:109F200040F2E93301E0002B38D00289013B12F006
:109F3000010F9BB2F7D08389838940F2E93302890C
:109F4000013B12F0020F9BB215D1002BF7D12BF081
:109F500079FE029B9B6813B11A689B881383059B4B
:109F6000142B04D3182B17D9543B062B14D90020DB
:109F700007B0BDE8F08FFF23838140F2E93301E0B1
:109F8000002BE4D00289013B12F0010F9BB2F7D005
:109F90008389DBB20593DCE7032054E72BF052FE04
:109FA000029B5868C8E72BF04DFEA0E62BF04AFE56
:109FB000029B58687FE600BFF0B5876983B006460C
:109FC00017B13B68BA885A837069DFF8A8E08389C3
:109FD000C3244FF47A734FF0060C6D464FF6FF71B1
:109FE0000EF1010E03E0013B9BB28B4220D00289AF
:109FF0009207F8D5A3B283814FF47A7302E0A3B23B
:10A000008B4215D00289D20703F1FF34F7D582893C
:10A0100092B20DB12A700135BCF1000F0BD00CF1DA
:10A02000FF3CFF24BEF1000FE1D09EF80040D7E7CF
:10A030002BF008FEB76917B13B68BA881A839DF800
:10A0400005009DF801509DF802109DF803409DF811
:10A0500004209DF8063041EA052143EA002342EA44
:10A0600004220120A6F85010A6F85220A6F8543079
:10A0700003B0F0BD4881050810B500F10C040022C2
:10A08000212120462BF010FFFC22202120462BF01E
:10A090000BFF4022242120462BF006FF0C22232117
:10A0A00020462BF001FF0022222120462BF0FCFE4F
:10A0B00064202AF0A9FD012010BD10B500F10C04A8
:10A0C0007022002120462BF0EFFE202201212046A5
:10A0D0002BF0EAFE0022022120462BF0E5FE642050
:10A0E0002AF092FD012010BD3122F4212BF0DCBEBC
:10A0F0002DE9F04F90F8583087B0072B039000F00F
:10A1000014861823CDE90433039BBE4CBE4EDFF802
:10A110000483BE4F1033184680226B2102932BF02C
:10A12000C3FE6423DFF8F0E2B94801934FF0100951
:10A13000DEF80430C3F30803002B40F0A584EFF3EE
:10A140001183002B40F0A0842568826823689D421B
:10A15000FAD13B689A42F7D8D6F800C04FF47A712A
:10A1600001FB0CF39B1AB3FBFCF301FB05354FF429
:10A170007A7C4FF0010ADEF80430C3F30803002BA9
:10A1800040F06384EFF31183002B40F05E8423687A
:10A19000816822689342FAD13A689142F7D83268CE
:10A1A0000CFB02FBABEB0101B1FBF2F10CFB031367
:10A1B0005B1BB3F57A7FDED3019B013B0193B7D1E3
:10A1C000072268210298DFF84C82904F2BF06CFE3A
:10A1D0006423DFF844E28E4801934FF01009DEF863
:10A1E0000430C3F30803002B40F09284EFF3118393
:10A1F000002B40F08D842568826823689D42FAD147
:10A200003B689A42F7D8D6F800C04FF47A7101FB48
:10A210000CF39B1AB3FBFCF301FB05354FF47A7C7E
:10A220004FF0010ADEF80430C3F30803002B40F0BE
:10A23000EE83EFF31183002B40F0E98323688168FC
:10A2400022689342FAD13A689142F7D832680CFBFF
:10A2500002FBABEB0101B1FBF2F10CFB03135B1B47
:10A26000B3F57A7FDED3019B013B0193B7D11A4648
:10A270006B210298DFF89C81644F2BF015FE64235C
:10A28000DFF894E1624801934FF01009DEF80430E2
:10A29000C3F30803002B40F01984EFF31183002B64
:10A2A00040F014842568826823689D42FAD13B6897
:10A2B0009A42F7D8D6F800C04FF47A7101FB0CF33C
:10A2C0009B1AB3FBFCF301FB05354FF47A7C4FF08E
:10A2D000010ADEF80430C3F30803002B40F0798351
:10A2E000EFF31183002B40F07483236881682268A8
:10A2F0009342FAD13A689142F7D832680CFB02FBDC
:10A30000ABEB0101B1FBF2F10CFB03135B1BB3F5EB
:10A310007A7FDED3019B013B0193B7D101226B21F0
:10A320000298DFF8F080394F2BF0BEFD0F23DFF8E5
:10A33000E8E0374801934FF01009DEF80430C3F32A
:10A340000803002B40F0CD84EFF31183002B40F085
:10A35000C8842568826823689D42FAD13B689A4286
:10A36000F7D8D6F800C04FF47A7101FB0CF39B1AB2
:10A37000B3FBFCF301FB05354FF47A7C4FF0010A87
:10A38000DEF80430C3F30803002B40F00483EFF33E
:10A390001183002B40F0FF8223688168226893427A
:10A3A000FAD13A689142F7D832680CFB02FBABEB6A
:10A3B0000101B1FBF2F10CFB03135B1BB3F57A7FD8
:10A3C000DED3019B013B0193B7D1059A0298DFF8D8
:10A3D00044800E4F1B212BF067FD0F23DFF838E080
:10A3E0000B4801934FF01009DEF80430C3F3080363
:10A3F000002B40F05484EFF31183002B40F04F8486
:10A400000CE000BF6CC2002070C2002074C20020AB
:10A4100010E000E068C2002000ED00E025688268DE
:10A4200023689D42FAD13B689A42F7D8D6F800C01B
:10A430004FF47A7101FB0CF39B1AB3FBFCF301FBA5
:10A4400005354FF47A7C4FF0010ADEF80430C3F38F
:10A450000803002B40F08182EFF31183002B40F0C2
:10A460007C822368816822689342FAD13A689142DB
:10A47000F7D832680CFB02FBABEB0101B1FBF2F148
:10A480000CFB03135B1BB3F57A7FDED3019B013B0F
:10A490000193A9D1049A0298DFF81483C24F1C21BA
:10A4A0002BF002FD0F23DFF80CE3C04801934FF0BF
:10A4B0001009DEF80430C3F30803002B40F0CE830C
:10A4C000EFF31183002B40F0C9832568826823686D
:10A4D0009D42FAD13B689A42F7D8D6F800C04FF4B3
:10A4E0007A7101FB0CF39B1AB3FBFCF301FB0535FE
:10A4F0004FF47A7C4FF0010ADEF80430C3F308030E
:10A50000002B40F00C82EFF31183002B40F0078208
:10A510002368816822689342FAD13A689142F7D859
:10A5200032680CFB02FBABEB0101B1FBF2F10CFB5F
:10A5300003135B1BB3F57A7FDED3019B013B0193D1
:10A54000B7D1039A92F85B30032B00F2EC8392F8B8
:10A550005E20012A0BD0022A40F0E583039B93F88A
:10A56000633003F0FB03022B0CBF002207221A21E9
:10A570000298DFF83C828C4F2BF096FC0F23DFF81B
:10A5800034E28A4801934FF01009DEF80430C3F337
:10A590000803002B40F02083EFF31183002B40F0E1
:10A5A0001B832568826823689D42FAD13B689A42E2
:10A5B000F7D8D6F800C04FF47A7101FB0CF39B1A60
:10A5C000B3FBFCF301FB05354FF47A7C4FF0010A35
:10A5D000DEF80430C3F30803002B40F08281EFF370
:10A5E0001183002B40F07D812368816822689342AB
:10A5F000FAD13A689142F7D832680CFB02FBABEB18
:10A600000101B1FBF2F10CFB03135B1BB3F57A7F85
:10A61000DED3019B013B0193B7D1039B029893F8D2
:10A620006020DFF88C81604F19212BF03DFC642302
:10A63000DFF880E15D4801934FF01009DEF8043047
:10A64000C3F30803002B40F0E882EFF31183002BE3
:10A6500040F0E3822568826823689D42FAD13B6816
:10A660009A42F7D8D6F800C04FF47A7101FB0CF388
:10A670009B1AB3FBFCF301FB05354FF47A7C4FF0DA
:10A68000010ADEF80430C3F30803002B40F00B810D
:10A69000EFF31183002B40F0068123688168226864
:10A6A0009342FAD13A689142F7D832680CFB02FB28
:10A6B000ABEB0101B1FBF2F10CFB03135B1BB3F538
:10A6C0007A7FDED3019B013B0193B7D10298DFF87B
:10A6D000E080354F102237212BF0E6FB0F23DFF807
:10A6E000D4E0324801934FF01009DEF80430C3F390
:10A6F0000803002B40F04F82EFF31183002B40F052
:10A700004A822568826823689D42FAD13B689A4252
:10A71000F7D8D6F800C04FF47A7101FB0CF39B1AFE
:10A72000B3FBFCF301FB05354FF47A7C4FF0010AD3
:10A73000DEF80430C3F30803002B40F09680EFF3FB
:10A740001183002B40F09180236881682268934236
:10A75000FAD13A689142F7D832680CFB02FBABEBB6
:10A760000101B1FBF2F10CFB03135B1BB3F57A7F24
:10A77000DED3019B013B0193B7D10F23DFF834E017
:10A780000A48DFF82C80084F01934FF01009DEF8DB
:10A790000430C3F30803002B40F0DC81EFF3118396
:10A7A000002B40F0D78107E074C2002010E000E0E9
:10A7B00068C2002000ED00E02568826823689D42A1
:10A7C000FAD13B689A42F7D8D6F800C04FF47A71B4
:10A7D00001FB0CF39B1AB3FBFCF301FB05354FF4B3
:10A7E0007A7C4FF0010ADEF80430C3F30803F3B9B2
:10A7F000EFF31183DBB92368816822689342FAD1B1
:10A800003A689142F7D832680CFB02FBABEB0101CE
:10A81000B1FBF2F10CFB03135B1BB3F57A7FE2D3C0
:10A82000019B013B0193B2D107B0BDE8F08FEFF37C
:10A83000118189F31288D0F808B00368DB0344BFA4
:10A84000C8F800A0D0F808B02368D8F80020C9B232
:10A8500081F31188316813440CFB01F2A2EB0B0267
:10A86000B2FBF1F20CFB0323D6E7EFF3118189F37E
:10A870001288D0F808B00368DB0344BFC8F800A012
:10A88000D0F808B02368D8F80020C9B281F3118845
:10A89000316813440CFB01F2A2EB0B02B2FBF1F2A4
:10A8A0000CFB032361E7EFF3118189F31288D0F8E1
:10A8B00008B00368DB0344BFC8F800A0D0F808B0B4
:10A8C0002368D8F80020C9B281F311883168134495
:10A8D0000CFB01F2A2EB0B02B2FBF1F20CFB032327
:10A8E000ECE6EFF3118189F31288D0F808B0036821
:10A8F000DB0344BFC8F800A0D0F808B02368D8F83C
:10A900000020C9B281F31188316813440CFB01F2B5
:10A91000A2EB0B02B2FBF1F20CFB032375E6EFF3A3
:10A92000118189F31288D0F808B00368DB0344BFB3
:10A93000C8F800A0D0F808B02368D8F80020C9B241
:10A9400081F31188316813440CFB01F2A2EB0B0276
:10A95000B2FBF1F20CFB0323EBE5EFF3118189F37A
:10A960001288D0F808B00368DB0344BFC8F800A021
:10A97000D0F808B02368D8F80020C9B281F3118854
:10A98000316813440CFB01F2A2EB0B02B2FBF1F2B3
:10A990000CFB032376E5EFF3118189F31288D0F8DD
:10A9A00008B00368DB0344BFC8F800A0D0F808B0C3
:10A9B0002368D8F80020C9B281F3118831681344A4
:10A9C0000CFB01F2A2EB0B02B2FBF1F20CFB032336
:10A9D000F3E4EFF3118189F31288D0F808B003682B
:10A9E000DB0344BFC8F800A0D0F808B02368D8F84B
:10A9F0000020C9B281F31188316813440CFB01F2C5
:10AA0000A2EB0B02B2FBF1F20CFB03237EE4EFF3AB
:10AA1000118189F31288D0F808B00368DB0344BFC2
:10AA2000C8F800A0D0F808B02368D8F80020C9B250
:10AA300081F31188316813440CFB01F2A2EB0B0285
:10AA4000B2FBF1F20CFB032309E4EFF3118189F36C
:10AA50001288D0F808B00368DB0344BFC8F800A030
:10AA6000D0F808B02368D8F80020C9B281F3118863
:10AA7000316813440CFB01F2A2EB0B02B2FBF1F2C2
:10AA80000CFB0323FFF794BBEFF3118389F31288C8
:10AA9000D0F808C00268D20304D50122C8F800200B
:10AAA000D0F808C02568D8F800A0DBB283F311887D
:10AAB00031684FF47A72554402FB01F3A3EB0C03A7
:10AAC000B3FBF1F302FB0535FFF751BBEFF3118345
:10AAD00089F31288D0F808C00268D20304D5012295
:10AAE000C8F80020D0F808C02568D8F800A0DBB26C
:10AAF00083F3118831684FF47A72554402FB01F3F5
:10AB0000A3EB0C03B3FBF1F302FB0535FFF7DDBB51
:10AB1000EFF3118389F31288D0F808C00268D203DA
:10AB200004D50122C8F80020D0F808C02568D8F85C
:10AB300000A0DBB283F3118831684FF47A72554478
:10AB400002FB01F3A3EB0C03B3FBF1F302FB0535AE
:10AB5000FFF764BBEFF3118389F31288D0F808C0C4
:10AB60000268D20304D50122C8F80020D0F808C03A
:10AB70002568D8F800A0DBB283F3118831684FF460
:10AB80007A72554402FB01F3A3EB0C03B3FBF1F320
:10AB900002FB053523E6EFF3118389F31288D0F821
:10ABA00008C00268D20304D50122C8F80020D0F8FA
:10ABB00008C02568D8F800A0DBB283F3118831689B
:10ABC0004FF47A72554402FB01F3A3EB0C03B3FB81
:10ABD000F1F302FB0535A7E5EFF3118389F3128842
:10ABE000D0F808C00268D20304D50122C8F80020BA
:10ABF000D0F808C02568D8F800A0DBB283F311882C
:10AC000031684FF47A72554402FB01F3A3EB0C0355
:10AC1000B3FBF1F302FB0535D6E4EFF3118389F3BF
:10AC20001288D0F808C00268D20304D50122C8F8FF
:10AC30000020D0F808C02568D8F800A0DBB283F364
:10AC4000118831684FF47A72554402FB01F3A3EB8B
:10AC50000C03B3FBF1F302FB05350EE5EFF31183B3
:10AC600089F31288D0F808C00268D20304D5012203
:10AC7000C8F80020D0F808C02568D8F800A0DBB2DA
:10AC800083F3118831684FF47A72554402FB01F363
:10AC9000A3EB0C03B3FBF1F302FB053528E4EFF360
:10ACA000118389F31288D0F808C00268D20304D552
:10ACB0000122C8F80020D0F808C02568D8F800A004
:10ACC000DBB283F3118831684FF47A72554402FB8A
:10ACD00001F3A3EB0C03B3FBF1F302FB0535FFF724
:10ACE000B0BBEFF3118389F31288D0F808C0026873
:10ACF000D20304D50122C8F80020D0F808C0256886
:10AD0000D8F800A0DBB283F3118831684FF47A726F
:10AD1000554402FB01F3A3EB0C03B3FBF1F302FB7D
:10AD20000535FFF729BB019A21E490F85D3023B97E
:10AD30001023CDE90433FFF7E7B910211823CDE93B
:10AD40000413FFF7E1B900BF42697B49138823F080
:10AD500040032DE9F04F1B041B0C1380138883B0B4
:10AD600023F038031B048A4201904FEA134300F09A
:10AD7000D88001F580618A420CBF282130210B4325
:10AD80001380138843F04003138029F08DFE04469E
:10AD900029F08AFE8442FBD0019C2046FFF7A8F9E7
:10ADA000A36913B11A689B885383019B586940F2C9
:10ADB000E933828902E0002B00F0B8800289013B70
:10ADC00012F0020F9BB2F6D06A23838140F2E9337E
:10ADD00002E0002B00F0AA800289013B12F0010F73
:10ADE0009BB2F6D08389838940F2E93302E0002BDD
:10ADF00000F099800289013B12F0020F9BB2F6D05D
:10AE00001023838140F2E93302E0002B00F08B80B5
:10AE10000289013B12F0010F9BB2F6D08389019B9E
:10AE20009B6913B11A689B8813836423434CDFF832
:10AE30001891DFF81881424DDFF814A1414E0093BC
:10AE400029F032FE4FF47A774FF0100C4FF0010EDC
:10AE5000D8F80430C3F30803002B43D1EFF3118378
:10AE6000002B3FD12368A96822689342FAD1326847
:10AE70009142F7D8D9F8002007FB02FBABEB0101A8
:10AE8000B1FBF2F107FB03131B1AB3F57A7FDFD393
:10AE9000009B013B0093D3D1019B27495A6913883A
:10AEA00023F040031B041B0C1380138823F038038A
:10AEB0001B048A424FEA134305D001F580618A42A0
:10AEC00001D043F008031380138843F0400313803C
:10AED00029F0EAFD044629F0E7FD8442FBD003B0E7
:10AEE000BDE8F08FEFF311818CF31288D5F808B02C
:10AEF0002B68DB0344BFCAF800E0D5F808B023682C
:10AF0000DAF80020C9B281F31188D9F8001013448F
:10AF100007FB01F2A2EB0B02B2FBF1F207FB0323EA
:10AF2000B2E728212BE72AF08DFE78E72AF08AFE87
:10AF3000019B586957E700BF003800406CC20020F1
:10AF400010E000E074C2002070C2002000ED00E0BC
:10AF500068C200202DE9F84F037C02681F2B86BFD2
:10AF6000203B51681168202202FA03F30B4214BF00
:10AF7000012300230BB9BDE8F88F4569DFF88891FC
:10AF8000044629F091FD4FF4867303FB05930646B2
:10AF90005A7C002A30D157495A6809781768C1B9D4
:10AFA000D3F8801058890A6822F001020A60BB8930
:10AFB00023EA0003BB81504B1B78002B30D1237C4C
:10AFC00021681F2B11D8202202FA03F38B60BDE801
:10AFD000F88F5269136823F001031360BB8923F4CF
:10AFE00080731B041B0CBB81E5E7203B202202FA87
:10AFF00003F3CB60BDE8F88FD3F880603F485F89EA
:10B0000001229A7431685A680368156821F00101B9
:10B010003160AA89013322EA0702AA810360CEE7E0
:10B020004FF4867A0AFB05FA09EB0A05D5F8808009
:10B0300040461BF08BF901236B74D5F884B029F0DE
:10B0400033FD3B88CBF82C0123F080031B044FF029
:10B05000FF321B0C3B80FA623B880AF1340143F05B
:10B0600080033B80494438461BF030FAD5E915701F
:10B070002B6CD5F850C0D5E917123B4303430B4363
:10B0800013436A6E6F6FD8F800001D491343AA6E10
:10B090001343AA6F3B43014013430B430022EA646E
:10B0A000C8F80030D5E91B30D8F81410D5F8802046
:10B0B0006F6C21F0070103430B43A86C95F87C10DB
:10B0C000C8F81430C8F804C0C8F80870C8F80C00F4
:10B0D00051606B68116818686D8941F00101116059
:10B0E00083892B43838129F0DFFC064B801B18608A
:10B0F00065E700BF94370010903700106CA1002066
:10B100003F801CF0C80E0010F0DA002020B100785B
:10B11000B0FA80F0400970470120704708B520213F
:10B120004CF091FF0346184623B10278202A03F120
:10B130000103F8D008BD037903F01803082B0AD0E7
:10B1400002D82BB100207047102B14D0182BF9D146
:10B15000B0F80B007047104BB0F80B0093F90030BB
:10B16000591C06BF0D4B1B78DBB203EB831300EBBE
:10B17000430080B270470A4BB0F80B0093F90030DF
:10B180005A1C06BF054B5B78DBB203EB031300EBE5
:10B19000430080B2704700BFA50D00204CD80020AE
:10B1A000A40D0020F0B5067906F0E003402B09D18C
:10B1B00044794FF0FF350023012006F00706A34233
:10B1C0000BD1F0BD602B08BF45794FF001040CBFD7
:10B1D00004FA05F54FF0FF35EDE7042E0CD8DFE853
:10B1E00006F0030D18242E0030B1C85CD75C7840FF
:10B1F00028420CBF012000200133E0E70028FBD0EB
:10B20000C856D756A0EB070CDCF1000040EB0C0051
:10B21000F2E70028F0D031F8130032F813707840CC
:10B2200028420CBF01200020E6E70028E4D031F9D5
:10B23000130032F91370C71B78427841DCE700280D
:10B24000DAD051F8230052F82370784028420CBF1E
:10B2500001200020D0E7024B014618682AF00ABFFF
:10B26000F450002038B5064D441E14F8011F28681C
:10B2700019B9BDE838402AF075BE2AF0FBFEF4E7A4
:10B28000F45000200048EDE7FA3D060808B5FFF746
:10B29000E9FFBDE80840F5E710B504460348FFF7AD
:10B2A000E1FF2046BDE81040F0E700BF3801060886
:10B2B00008B532B1C30600D519B11046FFF7ECFF4F
:10B2C0000022104608BD38B5074C084DAC4203D3E8
:10B2D000074B00221A7038BD6288D4E901014BF097
:10B2E00075FB1434F2E700BF90010008BC070008AA
:10B2F000549E0020024A136823EA00001060704741
:10B300004CED0020DFED2E7AB4EEE70AF1EE10FAF4
:10B310004ADDDFED2C6A9FED2C7A01E0B0EE670A82
:10B32000B4EEC70AF1EE10FA70EE667AF6DC9FED25
:10B33000277AF4EEC77AF1EE10FA3ED5DFED216AF6
:10B340009FED237A01E0F0EE407AF4EEC77AF1EE59
:10B3500010FA37EEA60AF6D4DFED1E7AB4EEE70A4D
:10B36000F1EE10FA14DDDFED167A37EEC00A60EE6A
:10B37000006A9FED196A9FED197ADFED197AA6EE42
:10B38000867A20EE266AE6EE877AA6EE270A7047CE
:10B39000DFED147AB4EEE70AF1EE10FA44BFDFED08
:10B3A0000B7A37EEC00AE2E79FED087AF0EE407ABA
:10B3B000F4EEC77AF1EE10FAC0D4B0EE670ACBE72C
:10B3C000DB0F4940DB0FC940E4CB1641DB0F49C01E
:10B3D000E4CB16C1DB0FC93F92E741B99730083C77
:10B3E00015A82ABEDB0FC9BFF0EEC07AB0EEE07A36
:10B3F000B4EEE77AF1EE10FAB4BFB0EE676AB0EEE1
:10B40000476AB5EE406AF1EE10FA46D0B4EEE77A3C
:10B41000F1EE10FA8CBFF0EE675AF0EE475AC5EE27
:10B42000866A9FED1F3A9FED1F6A9FED1F4A9FEDB1
:10B430001F5ADFED1F3ADFED1F4ADFED1F5AA6EE60
:10B44000C36AE6EEA34AA6EE864AB7EE006AA6EE07
:10B45000845AA6EEA46AE6EE855AC5EE866AB4EE74
:10B46000E77AF1EE10FA48BFDFED147AF5EEC00A84
:10B4700048BF77EEE66AF1EE10FA48BFDFED107ACA
:10B48000B5EEC00A48BF77EEE66AF1EE10FA48BFA3
:10B49000F1EE666AB0EE660A7047DFED076ADEE736
:10B4A00039094E3DE3B59E3E88FA163E45FE7F3F84
:10B4B00099FB243F69A2163EA7DFA834DB0FC93FE2
:10B4C000DB0F4940DFED317A30EE277AFDEEC76AB7
:10B4D00016EE903A2033402B02D99FED2D0A70478B
:10B4E000B4EEE70AF1EE10FA4DDD9FED2A6ADFEDCA
:10B4F0002A6A01E0B0EE677AB4EEE67AF1EE10FA6D
:10B5000077EE467AF6DC9FED257AF4EEC77AF1EE17
:10B5100010FA35D5DFED1F6A9FED217A01E0F0EEDC
:10B52000407AF4EEC77AF1EE10FA37EEA60AF6D4B6
:10B53000DFED167AB4EEE70AF1EE10FA1BDCDFED70
:10B54000197AB4EEE70AF1EE10FA44BFDFED137A90
:10B5500037EEC00A60EE006A9FED136A9FED137A22
:10B56000DFED137AA6EE867A20EE266AE6EE877A7B
:10B57000A6EE270A7047DFED0F7A37EEC00AE9E73B
:10B58000B0EE670AD4E7F0EE477ABCE7DB0FC93FBD
:10B5900000000000DB0FC940E4CB1641DB0F49C0BF
:10B5A000E4CB16C1DB0FC9BF92E741B99730083C25
:10B5B00015A82ABEDB0F494010B44C09012250F8EF
:10B5C000243001F01F0102FA01F123EA010340F8DF
:10B5D00024305DF8044B704710B44C09012250F838
:10B5E000243001F01F0102FA01F10B4340F824302E
:10B5F0005DF8044B704700BF4B0901F01F0150F884
:10B600002320012303FA01F1114214BF1846002040
:10B61000704700BF2DE9F043002489B006460D466F
:10B620001F46A04605E025290CD030460134A84726
:10B63000039A531C039311780029F4D1204609B0D2
:10B64000BDE8F083931CCDE903385078302842D010
:10B65000A0F13003DBB2092B4FF0000945D96C286B
:10B660002AD0642873D019D9732858D063D9752883
:10B6700040F0828007F1040C386805AB00220A21F3
:10B680006746FCF7EDFD05AB049A009329464B464F
:10B690003046FCF7BBFC039A0444CAE725283CD09B
:10B6A00051D958286BD06328C2D139783046A84781
:10B6B00004370134039ABCE7039B5A1C03921B789E
:10B6C000642B52D016D8252B27D064D9582B18D0EC
:10B6D000632BEAD0ADE7D31C03939078A0F130033D
:10B6E000DBB2092B4FF00109B9D804AA03A946F02F
:10B6F0007DFEB4E7732B12D051D9752B2DD0782B4A
:10B7000097D1A3F15802B2FA82F23868520905AB18
:10B7100010210437FCF7A4FDB5E7252185E73B6838
:10B72000049A0093294600233046FCF76FFC043747
:10B730000444039A7DE76E287FF47AAF039A3B684E
:10B7400004371C6075E700283FF478AF70E738686D
:10B7500005A9FCF74FFD043795E7386805AB0022D3
:10B760000A21FCF77DFD04378DE73B1D386805A9EC
:10B770001F46FCF73FFD86E778287FF459AFA0F11C
:10B780005802B2FA82F23868520905AB1021FCF770
:10B7900067FD043777E7002B3FF450AF49E76E2B86
:10B7A000CDD046E710B5064C0B4602460549206849
:10B7B000FFF730FF2068BDE810402AF0D3BB00BF80
:10B7C000F45000207592000838B504460D4608482C
:10B7D000FFF748FD29462046FFF7E4FF0548FFF73D
:10B7E00041FD054B1B7813B1044B01221A7038BD83
:10B7F0003D010608473806085052002051520020EB
:10B800000FB407B504A951F8040B0191FFF7DCFF51
:10B81000FFF738FD03B05DF804EB04B07047134642
:10B820000A4601460048EBE7480106080048E7E7FA
:10B83000610106080FB407B504A951F8040B019182
:10B84000FFF7C2FF03B05DF804EB04B070470FB41C
:10B8500007B504A951F8040B0191FFF7A3FFFFF707
:10B8600011FD03B05DF804EB04B070470FB407B5E9
:10B8700004A951F8040B0191FFF794FF03B05DF8A0
:10B8800004EB04B070472DE9F843037903F0E001BD
:10B89000202928D002D849B1BDE8F883402945D0F5
:10B8A0006029F9D12448BDE8F843D0E703F0070345
:10B8B000022B02D0042B08D06BB9B0F80720B0F8E7
:10B8C00005101E48BDE8F843C1E7D0F805201B4825
:10B8D000BDE8F843BBE7B0F90720B0F905101748F9
:10B8E000BDE8F843B3E74579154E1648FFF7BAFCB3
:10B8F00006EBC502002492F804800123A04502D87B
:10B90000BDE8F843BEE456F8357057F824204FEAF6
:10B9100084094AB113B90C48FFF7A4FC57F8091081
:10B920000A48FFF7A3FF00230134E7E741790848FD
:10B93000BDE8F8438BE700BFA90106086D010608C2
:10B94000B0BB0508840106089501060854320608B4
:10B95000980106082DE9F0411746027902F0E0034C
:10B96000402B05460E462BD10024584FDFF880812E
:10B9700015E02B7903F00703022B15D0032B19D008
:10B98000012B14BF315D31573846FFF76FFF6B79DC
:10B99000013BA34202DD4046FFF764FC01346B79B2
:10B9A000A342E6DCBDE8F08136F814103846FFF714
:10B9B0005DFFECE736F914103846FFF757FFE6E76E
:10B9C00002F00702042A5DD8DFE802F0031D2527F4
:10B9D0002A003478202B3AD06DD8002BE2D1B5F86C
:10B9E0000560B5F8078039482146FFF73FFFB442AC
:10B9F00040DB44453EDC002FD4D04246314634483B
:10BA0000BDE8F04132E796F90040202B1FD052D814
:10BA1000002B3DD0C6E73488DCE7B6F90040F4E7F8
:10BA2000D6F80080202B444611D044D8002BB9D141
:10BA300041462648FFF71AFFD5F80510884519D862
:10BA4000002FAFD02348BDE8F0410FE700246A790A
:10BA5000214B03EBC2010979A1420BDD53F83230CF
:10BA600053F82400BDE8F041FFF7FCBB1B48BDE8DC
:10BA7000F041FBE6FFF706FC224629681848BDE8BE
:10BA8000F041D7E6202BE1D007D8002B8AD11C4605
:10BA9000B5F90560B5F90780A5E7602BE6D0802BE6
:10BAA00080D131780F4B1048002914BF3146194618
:10BAB000BDE8F041DAE6602BF1D16A791441E30781
:10BAC000D4D50A48BDE8F041D0E600BF81010608A0
