:020000040800F2
:10000000F0FF0010B1630508FD310108652F0308FA
:10001000516405085164050851640508000000009A
:10002000000000000000000000000000093201088C
:10003000053201080000000001320108C92F030841
:1000400051640508516405085164050851640508A8
:1000500051640508516405083DD1040869D20408BB
:100060002DD20408F1D10408B5D10408D90701083C
:10007000C9070108B9070108A90701089507010880
:10008000810701086D0701085164050851640508DE
:1000900051640508516405085164050879D10408C4
:1000A000F11603088D1C0308211603085D1D0308C3
:1000B000CD1B03080D1B0308411A0308C10D0108DD
:1000C000C90D0108B50D0108BD0D010851640508F1
:1000D00051640508CD3D0308313D0308953C0308F4
:1000E00001D1040851640508ED7F0108511503088A
:1000F000C117030881140308A11803085907010850
:100100005164050851640508711903085164050814
:100110005164050851640508F1DB030879DA030826
:1001200045070108310701081D07010809070108F3
:10013000F506010851640508516405085164050875
:10014000516405085164050851640508C54C01084F
:10015000E1060108CD060108B9060108F93B0308CC
:10016000A90D0108B10D0108516405085164050885
:100170005164050851640508516405085164050877
:080180005164050851640508F3
:08018800585F050001000000B2
:1001900010020100902100208C21002000000000AE
:1001A000800700081F021000A421002094210020D5
:1001B000000000006985000814000300D05A0020E8
:1001C0003C5B002000000000840700080B301A0090
:1001D000D84A0020405B002000000000880700088B
:1001E0001F302400F44A00205C5B00200000000067
:1001F000A40700080502040064560020805B00206C
:1002000000000000C807000803010A00344B00206A
:10021000845B002000000000CC07000813020400EB
:100220000C490020905B002000000000D607000869
:100230001C021000087200202C7600200000000034
:10024000B183000810100200747500203C76002075
:1002500000000000DA070008281010006475002074
:1002600040760020000000003D89010819000500CB
:100270005C7500205076002000000000DC070008BC
:10028000F821060054750020587600200000000078
:10029000E207000801200C00946E00206076002028
:1002A00000000000E80700080A702800006E002027
:1002B0006C76002000000000E18801080EB0860185
:1002C000786C00209476002000000000CD0F040818
:1002D00001010400D46B00201C7800200000000005
:1002E0000000000000010400CC6B002020780020FA
:1002F00000000000F407000802010300C86B0020A2
:10030000247800200000000009970208220214014E
:100310008C920020DC940020000000002195000851
:100320000C20CC0080820020F0950020000000000E
:10033000CD9602080102050064820020BC960020D0
:1003400000000000D92A0208000205005C8200209B
:10035000C496002000000000000000001B021000F6
:1003600030820020CC96002000000000DD830008D1
:100370001E000600887F0020DC96002000000000A0
:10038000F80700081B100C008C7A0020E49600206F
:10039000000000003D4002082102F0000C7900201E
:1003A000F096002000000000952D02082312100096
:1003B0001C850020E09700200000000000080008D5
:1003C0000510060014850020F097002000000000B2
:1003D0001008000837102800B8810020F897002086
:1003E00000000000160800080E0202001085002020
:1003F00020980020000000003E08000816100600AB
:100400000079002024980020000000004008000827
:100410002F102200B89400202C980020000000002B
:100420004608000823100E00D87E002050980020B7
:100430000000000057890108F55190003078002035
:100440006098002000000000B57B020826100C0018
:10045000FC980020F09800200000000021200208F5
:1004600007020200C89A00200C9B00200000000038
:100470006808000802000C0088990020109B0020EA
:10048000000000000000000006020C00A09A0020FE
:100490001C9B0020000000007993000808120F0048
:1004A000F0990020289B002000000000F98400083B
:1004B000F7010600E4990020389B002000000000AE
:1004C0006A0800081D020200E0990020409B0020FD
:1004D00000000000700800081A023C00289D00205F
:1004E000589F002000000000DD9200082700040053
:1004F000249D0020949F0020000000007208000846
:1005000038100100609B0020989F00200000000030
:10051000760800080A020A0008A800205CAA002049
:100520000000000025740308F6210C006CA20020D6
:1005300068AA0020000000007808000803000100FD
:10054000DCA2002074AA00200000000000000000CF
:1005500003123D001CAA002078AA00200000000021
:100560008408000825102C013CA80020B8AA00200F
:1005700000000000000000001A000E0098B30020E8
:10058000E0B4002000000000C208000820320A0089
:100590006CB20020F0B4002000000000AD0F040891
:1005A000150070005CB00020FCB4002000000000CA
:1005B000000000002A00600068B400206CB5002034
:1005C00000000000850F04082C001000DCB500209E
:1005D000CCB5002000000000150D04082B002400FD
:1005E00010B60020ECB5002000000000E50C040867
:1005F0002920780048AE002034B60020000000001A
:10060000000000000D003C0004E20020B0E20020E9
:100610000000000039FD02080902010070E100201D
:10062000ECE2002000000000D00800080400800078
:10063000F0E00020F0E200200000000000000000D8
:1006400013000400D0E0002070E300200000000050
:10065000D4080008FD012400ACE0002074E3002071
:100660000000000051F302081820300078E000205C
:1006700098E30020000000008194000806101A0092
:1006800058CE0020C8E30020000000002910040814
:10069000FB01010054CE0020E4E300200000000034
:1006A000F5940008FC01090020CD0020E8E30020BB
:1006B000000000000595000816023F00E0CC002075
:1006C000F4E300200000000019840008340010004A
:1006D00010CC002034E4002000000000FD0F0408CE
:1006E00011020800E8CB002044E4002000000000D4
:1006F000D808000812120400E0CB00204CE40020CF
:1007000000000000E008000812201000D0CB0020FC
:1007100050E4002000000000E4080008F901040093
:1007200044C8002060E40020000000007DA104080F
:10073000FA0102002CC2002064E400200000000046
:10074000658600080202030098B7002068E40020D4
:1007500000000000000000000C02040084B700202C
:100760006CE400200000000051850008FE01140028
:10077000F8C1002070E4002000000000F1830008B0
:100780000000000003000000AE014A015E012C01E0
:1007900064000200000001000A019A01001E0A0024
:1007A0000000000000000000000100000005000043
:1007B0000102030000000000000000000000000033
:1007C000000000000080070000000000040101009C
:1007D0006C16000000000000013500050000280133
:1007E00000000401F4011400E8036400040A00019D
:1007F00014001E0090010000000001000000000035
:1008000000000000000000000000000000000000E8
:1008100020000101000020003200C800D00796002F
:10082000140032002800B0044006000550001400F7
:100830000F00080064000100010005000A0000002C
:10084000C4090000190000000000000000000000C2
:100850000000000000000000000000000000000098
:100860000000000000000000023C24010000000025
:100870000000200300000000000000000100000054
:100880000202000000000000000000000000000064
:100890000000000000000000000000000000000058
:1008A0000000000000000000000000000000000048
:1008B0000000000000000000000000000000000038
:1008C00001007E05EA05B4053200E803D007000008
:1008D000280000000804443000000000010101016C
:1008E000FFFFFFFF00000001000005424646340004
:0408F00000080000FC
:1008F4001A030000000000000000000000000000D7
:1009040000000000000000000000000004030904CF
:10091400120100020000004083042057000201027B
:100924000301000031C80008C1850008BD85000826
:10093400B985000869950008B5850008B1850008E7
:10094400187F05089D33010859150108DD3E01088B
:100954000000000000000000E13B0108FD3A01082E
:1009640000000000000000000000000091100108D9
:10097400598600084D8600080D9B0008299B000835
:1009840005860008F19A0008D59A00080068214CF1
:100994001F0000001C0000001F0000001E000000DB
:1009A4001F0000001E0000001F0000001F000000C8
:1009B4001E0000001F0000001E0000001F000000B9
:1009C400FF01FF000000040100000000000000021D
:1009D40010000000070000000000000000000000FC
:1009E40001020304060708090403090412010002B2
:1009F400EF020140830456320002010203010000A9
:100A04001201000202020040830440570002010266
:100A14000301000009022000010104C0320904009E
:100A24000002080650050705810240000007050181
:100A34000240000009026400030100C032090400FE
:100A44000001030000000921110100012226000712
:100A540005830308000A080B0102020201000904CD
:100A64000100010202010005240010010524010017
:100A74000204240202052406010207058203080079
:100A8400FF09040200020A000000070501024000F9
:100A9400000705810240000009024300020100C072
:100AA40032090400000102020100052400100105BE
:100AB4002401000104240202052406000107058222
:100AC400030800FF09040100020A000000070501F1
:100AD400024000000705810240000000FF00000002
:100AE400608905080000000000000000000000000C
:100AF40000000000000000000000000000000000F2
:100B0400000000000000000000FFFF0000000000E3
:100B1400AA55050100000100348905080000000001
:100B240000000000000000000000000000000000C1
:100B340000000000000000000000000000000000B1
:100B4400FF1FFF1F05010905A101A10005010930CF
:100B54000931093209330935093409400938158145
:100B6400257F750895088102C0C000000902220093
:100B7400010100E03209040000010301020009211F
:100B8400110100012226000705830308000A000062
:100B9400000000000102030401020304060708091F
:100BA400413E0108453D01089D41010855110108D8
:100BB400CD16010865110108811101082D110108E4
:100BC4001D11010800000000000000002D202D2D43
:100BD400202D2D2D2D202D2D2D2D00000000000069
:100BE4000000000000000000000000AA550B0100F6
:100BF40000AA5507010000AA550902000000AA55E1
:100C040003009F0001000000C0120000105B0020E0
:100C140000000000345B0020000000000100000020
:100C24005980010800000000888A0508FFFFFFFFC3
:100C3400D601010100010101002D202D2D202D2DB3
:100C44002D2D202D2D2D000000000000000000009F
:100C54000000000000000000000000000000000090
:100C64005CA105080000000000000000E8A10508E0
:100C740001000000FA000000010000000100000073
:100C840001010000906E00200000F401010000004A
:100C94008E6E00200000F401010000008C6E002024
:100CA4000000F401010000008A6E00200000F4013D
:100CB40001000000886E00200000F4010100000023
:100CC400866E00200000F40101000000846E002004
:100CD4000000F40101000000698701082D87010864
:100CE400F88E05087A6E002005320100786E002027
:100CF400E803D00701000000766E0020E803D00767
:100D040001000000746E0020E803D0070100000019
:100D1400726E00201E00B80B01000000806E0020DF
:100D240005000F0001000000826E002003000A008D
:100D340001000000706E00201E00F401010000009C
:100D44006E6E002014006400010000007C6E002020
:100D54003200E803010000006C6E00200000C800AF
:100D640001000000466E002000C80100456E00200E
:100D740000500100446E0020005A0100426E002021
:100D840002000000848F050898050608A0050608DF
:100D94009AE200200100C4090000000098E200204B
:100DA4000100C4090000000096E200200100C4090B
:100DB4000000000094E200200100C40900000000CB
:100DC40090E200200100C4090000000092E200202B
:100DD4000100C409000000008EE200200100C409E3
:100DE400000000008CE200200100C40900000000A3
:100DF400ED6B002000C80100EC6B002000C801006E
:100E0400EA6B00200100C80001000000E86B00202C
:100E14003200307532000000E66B0020055A0500F0
:100E2400E36B002000FF0100E56B002001000000DF
:100E340020060020E16B00200300000000A8050844
:100E4400E26B002000FF0100E46B002001000000C1
:100E540020060020E06B00200300000000A8050825
:100E6400D186010875860108908F0508A46E0020BC
:100E7400EE02CA0801000000A26E002000C80100B2
:100E840064000000A16E002000C80100640000009E
:100E9400A06E00200200000070900508DA6B0020AC
:100EA40080C1803E05000000D86B002080C1803ED8
:100EB40005000000D26B002080C1803E05000000C8
:100EC400D06B002080C1803E05000000CB6B002069
:100ED40000FF0100C46B00206400F4010100000065
:100EE400C36B0020040000007C900508C26B002046
:100EF4000200000090900508676C00200D000000BF
:100F04009C900508646C002000640100626C002061
:100F1400320010270A000000616C00200D00000060
:100F24009C900508606C00200D0000009C90050852
:100F34005F6C002002000000D4900508000000004F
:100F440000000000E09005081C5600209CFF2C01C6
:100F5400000000000E710020E0150C1700000000D6
:100F6400107100200200000018910508B06E0020E6
:100F74000100FF7F01000000AF6E002002000000AE
:100F840024910508696C00200300000034910508D1
:100F9400686C00200300000034910508346E0020C2
:100FA4000000E80301000000326E00200000E803A6
:100FB40001000000306E00200000E8030100000082
:100FC4002E6E00200000E803010000002C6E0020BB
:100FD4000000E803010000002A6E00200000E8037E
:100FE40001000000296E002000140100286E00207A
:100FF4000300000044910508406E00200000F40145
:10100400010000003E6E00200000F4010100000019
:101014003C6E00200000F401010000003A6E002044
:101024000000F40101000000386E00200000803E42
:1010340001000000366E00200000803E0100000028
:10104400596E002019640100586E0020020000004F
:1010540054910508566E0020E803D0070A000000EA
:10106400546E0020006401000A000000496E002054
:1010740000640100486E002000640100506E0020EE
:10108400006401000A0000004F6E002000640100AB
:101094000A0000004E6E0020006401000A000000F7
:1010A400536E0020006401000A000000526E00200C
:1010B400006401000A000000516E00200064010079
:1010C4000A0000004D6E002001FF01000A0000002C
:1010D4004C6E002001FF01000A0000004B6E00204E
:1010E40001FF01000A000000726C00200000F401FE
:1010F40001000000706C00200000F40101000000F9
:101104006E6C00200000F401010000006C6C0020F3
:101114000000F401010000006A6C00200000F401EA
:10112400010000005371002000C80100527100202A
:10113400006401005171002000640100507100201E
:10114400006401004F710020006401004E71002012
:10115400FF0801004D71002001640100DD850108D4
:10116400A1850108609105084C710020006401000C
:101174004A7100201400E8030100000048710020B7
:10118400E80330750A0000004671002000C8010021
:101194004571002000C801004471002000C801000E
:1011A40043710020006401000A0000006271002005
:1011B4000000D007010000005C71002000C801009D
:1011C4005B71002000C801005A71002000C80100B2
:1011D400607100200000D007010000005971002058
:1011E40000C801005871002000C801005771002098
:1011F40000C801005E7100200000D007010000005B
:101204005671002000C801005571002000C801007B
:101214005471002000C801000000000095830108FB
:10122400D09105085D6C0020390000006C9205081F
:101234005C6C002000C801005A6C0020E803D00751
:101244000100000042455441464C49474854463445
:1012540000000000DF6B002000030100DE6B0020B3
:1012640000030100E1820108A582010854930508E6
:101274006182010815820108C49305081D830108D1
:1012840009A2010844940508DC6B00200103010055
:10129400D1870108A587010854970508A58101088D
:1012A40065810108C4970508AB830108C5B101082D
:1012B40060980508159E01080000000008990508BB
:1012C40005A6010831880108A4990508FD830108D1
:1012D40000000000249A0508D584010881840108CF
:1012E400889A05086585010829850108249B050855
:1012F400BD1E020819860108A49B05086B6E002018
:10130400010601004584010811840108A09C050818
:10131400231E02086DA20108109D0508051F02087E
:1013240005A301080C9E05086A6E00200103010054
:101334006583010835830108E09E0508FD870108DF
:1013440000000000449F0508E5810108D9A10108B7
:10135400A89F0508000000000000000034A0050854
:101364004D8601087DA30108B4A00508BE6B0020CA
:1013740088136F1701000000C06B002088136F17DB
:1013840000000000964B0020000000000000000058
:10139400944B00200000000000000000924B00204D
:1013A4000000000000000000904B0020000000003E
:1013B400000000008E4B0020000000000000000030
:1013C4008C4B00200000000000000000A00400205E
:1013D4000000000000000000946B002002000000E8
:1013E4003CA20508BC6B002088136F1701000000A5
:1013F4005C56002088136F1700000000F980010874
:101404000000000048A2050842710020010000000D
:101414009CA205085E56002001000000A8A2050851
:101424005456002002000000B0A20508000000008D
:1014340000000000BCA20508E580010800000000CF
:1014440058A305080000000000000000ACA3050834
:1014540000000000000000001CA4050858560020ED
:10146400E0150C170000000001000000000001005E
:10147400E0010000FFFFFFFF0801FFFFFF00000085
:1014840000000000FC9A002008000000000000009A
:10149400EC9A002008000000D41B0608CC200608A3
:1014A400D8200608E4200608F0200608FC200608D8
:1014B4000016060890470608744606089020060899
:1014C4001C7206083C1F0608C0200608C420060833
:1014D400C8200608E01B0608082106080C21060897
:1014E400DC440608102106081900C800F401200392
:1014F400685E0C00B11601089D15010879410108C8
:101504000000000019110108313D0108ED14010823
:10151400A93C01080000000000000000D5100108EB
:10152400691001085D100108AD320108C9320108D3
:10153400913201087532010859320108691601080F
:1015440079150108B940010800000000ED100108F8
:10155400AD3C0108C1140108093C01080000000069
:1015640000000000E110010801000000A00F0000CD
:10157400B80B00000102FFFF010000000000803FE3
:10158400FFFFFFFF0000803F00000000000000009C
:1015940000000000FFFFFFFFFF000000B80B000089
:1015A400010000007D0000000000803F00000000FA
:1015B40000000000000000000000803F0000000068
:1015C4000000000000000000000000000000000017
:1015D4000000000000000000000000000000000007
:1015E4000000803F00000000000000000000000038
:1015F40001000000FFFF0000FFFFFFFF746D0608FD
:1016040000000802050303007C6D060801000802BF
:1016140005040300382F06080200FE010110030030
:10162400E00906080300140200030000846D0608A4
:1016340004001F02010008008C6D060805001F024B
:1016440001010800080000005910010855100108A4
:101654005110010845100108411001084D100108FE
:1016640049100108010000000060024010600240BF
:101674000000000000000000000B0000000000005B
:1016840000000000000000000060024028600240EA
:101694000100000000000000060C00000000000033
:1016A40000000000000000000060024040600240B2
:1016B4000200000000000000100D00000000000007
:1016C400000000000000000000600240586002407A
:1016D4000300000000000000160E000000000000DF
:1016E4000000000000000000006002407060024042
:1016F4000400000000000000200F000000000000B3
:101704000000000000000000006002408860024009
:10171400050000000000000026100000000000008A
:10172400000000000000000000600240A0600240D1
:10173400060000000000000030110000000000005E
:10174400000000000000000000600240B860024099
:101754000700000000000000362F00000000000019
:101764000000000000000000006402401064024019
:10177400000000000000000000380000000000002D
:1017840000000000000000000064024028640240E1
:101794000100000000000000063900000000000005
:1017A40000000000000000000064024040640240A9
:1017B4000200000000000000103A000000000000D9
:1017C4000000000000000000006402405864024071
:1017D4000300000000000000163B000000000000B1
:1017E4000000000000000000006402407064024039
:1017F4000400000000000000203C00000000000085
:101804000000000000000000006402408864024000
:101814000500000000000000264400000000000055
:10182400000000000000000000640240A0640240C8
:101834000600000000000000304500000000000029
:10184400000000000000000000640240B864024090
:101854000700000000000000364600000000000001
:101864000000000000000000106E0608BC1E060800
:10187400000000001D970208A0860100040000007B
:101884000000000000000000000000000000000054
:101894000000000000000000000000000000000044
:1018A4000000000000000000106E060830720608F8
:1018B40000000000EDF10208E8030000040000004D
:1018C4000000000000000000000000000000000014
:1018D4000000000000000000000000000000000004
:1018E4000000000000000000700D060858450608BE
:1018F400000000009D7C03087D000000060000003D
:1019040000000000000000000000000000000000D3
:1019140000000000000000000000000000000000C3
:101924000000000000000000606D060800000000D8
:1019340000000000D5330308E803000003000000A2
:101944000000000000000000000000000000000093
:101954000000000000000000000000000000000083
:1019640000000000000000003872060800000000BB
:1019740000000000957B040810270000030000000D
:101984000000000000000000000000000000000053
:101994000000000000000000000000000000000043
:1019A4000000000000000000806D06080000000038
:1019B4007509040829FE02085F760000050000008E
:1019C4000000000000000000000000000000000013
:1019D4000000000000000000000000000000000003
:1019E4000000000000000000BC70060800000000B9
:1019F40000000000255E030810270000010000001D
:101A040000000000000000000000000000000000D2
:101A140000000000000000000000000000000000C2
:101A240000000000000000004472060800000000EE
:101A340000000000F1F10208E803000005000000C6
:101A44000000000000000000000000000000000092
:101A54000000000000000000000000000000000082
:101A640000000000000000005072060800000000A2
:101A740000000000E99E0208204E00000300000060
:101A84000000000000000000000000000000000052
:101A94000000000000000000000000000000000042
:101AA4000000000000000000607206080000000052
:101AB40000000000ED9C0208204E0000030000001E
:101AC4000000000000000000000000000000000012
:101AD4000000000000000000000000000000000002
:101AE4000000000000000000707206080000000002
:101AF4000000000069380308400D030003000000E3
:101B040000000000000000000000000000000000D1
:101B140000000000000000000000000000000000C1
:101B24000000000000000000681F0608000000001C
:101B34000000000019310308102700000100000014
:101B44000000000000000000000000000000000091
:101B54000000000000000000000000000000000081
:101B64000000000000000000F41B06080000000054
:101B740000000000A14B0208102700000300000031
:101B84000000000000000000000000000000000051
:101B94000000000000000000000000000000000041
:101BA4000000000000000000807206080000000031
:101BB4000000000095190208A08601000100000041
:101BC4000000000000000000000000000000000011
:101BD4000000000000000000000000000000000001
:101BE4000000000000000000646D06080000000012
:101BF4000000000059F8020850C300000100000072
:101C040000000000000000000000000000000000D0
:101C140000000000000000000000000000000000C0
:101C24000000000000000000CC08060800000000CE
:101C34000000000071F50208A86100000100000026
:101C44000000000000000000000000000000000090
:101C54000000000000000000000000000000000080
:101C64000000000000000000887206080000000068
:101C7400000000000D8D0208A08601000100000094
:101C84000000000000000000000000000000000050
:101C94000000000000000000000000000000000040
:101CA4000000000000000000881F0608000000007B
:101CB400000000001D3F0308A00F00000100000009
:101CC4000000000000000000000000000000000010
:101CD4000000000000000000000000000000000000
:101CE40000000000000000009472060800000000DC
:101CF40000000000B57C020810270000010000006D
:101D040000000000000000000000000000000000CF
:101D140000000000000000000000000000000000BF
:101D2400000000000000000000150608000000008C
:101D340000000000497502081A410000010000007B
:101D4400000000000000000000000000000000008F
:101D5400000000000000000000000000000000007F
:101D640000000000000000008C08060800000000CD
:101D74000000000085190108102700000100000080
:101D8400000000000000000000000000000000004F
:101D9400000000000000000000000000000000003F
:101DA4000000000000000000D01E06080000000033
:101DB4000000000045B901081A41000001000000BC
:101DC400000000000000000000000000000000000F
:101DD40000000000000000000000000000000000FF
:101DE4000000000000000000A072060800000000CF
:101DF40000000000ED1F0108400D0300000000007A
:101E040000000000000000000000000000000000CE
:101E140000000000000000000000000000000000BE
:101E24000000000000000000A87206080000000086
:101E340000000000A9F10208400D030000000000AA
:101E4400000000000000000000000000000000008E
:101E5400000000000000000000000000000000007E
:101E64000000000000000000B0720608000000003E
:101E7400000000003187020850C300000300000086
:101E8400000000000000000000000000000000004E
:101E9400000000000000000000000000000000003E
:101EA4000000000000000000BC72060800000000F2
:101EB40000000000619C020840420F000000000086
:101EC400000000000000000000000000000000000E
:101ED40000000000000000000000000000000000FE
:101EE4000000000000000000C872060800000000A6
:101EF40000000000FD5D030850C300000000000066
:101F040000000000000000000000000000000000CD
:101F140000000000000000000000000000000000BD
:0C1F240000000000000000000000803FF2
:1080000003685A1C02601970704700BF2DE9F047E1
:10801000089C2578002B804689460CBF4FF0200A2B
:108020004FF0300A661C25B3002A26DD334601E0F6
:10803000024698B113F8011B501E0029F8D1971E73
:1080400060B13D46013D51464046C8476B1C002B80
:10805000F8DC257827EAE770013045B1041B294692
:108060004046C847301916F8015B002DF7D1BDE82E
:10807000F087002A03DC2846F9E70020EEE7571EC8
:10808000DFE700BF2DE9F04714461D4606464FF4D2
:108090007A720023204629464DF0BEFF4D4BDFF893
:1080A00048814D4A4D4F034488FB03101844D917AB
:1080B00082FB032CC1EB601088FB002887FB0327A1
:1080C0009C44474AC1EBEC2CC0EB001E82FB0C2900
:1080D000A3EB8E0E1F44434A86F806E0C1EB274708
:1080E0004FEAEC7E08EB000ACEEBA90E82FB07827A
:1080F0004FEAE0780EEB4E0EC8EB6A18ACEBCE0CF4
:10810000C8EB0818DFF8E4E086F804C0A0EB8800AC
:1081100070718EFB0303F817C0EBE21240F2B5500A
:1081200000FB1272C1EBE353B2F5896F4FEA83078C
:108130003CDA40F2DA239A4242DCB2F5B77FB4BFB0
:108140004FF0000E4FF0010E4FEA4E09DFF8A0800D
:1081500009EB0E0308EBC3031FFA8EFCD88A09EB68
:108160000E0108EBC10116310B2301E031F8020DBD
:10817000904218DD013BF9D1CE44012338F83E008E
:10818000B37007F5FA670132121ABC44F270A6F810
:1081900000C0204629464FF47A7200234DF03CFF80
:1081A0003281BDE8F0870133DBB2E9E74FF0030C21
:1081B000E64640F29650DFF838804FF00609CEE7E9
:1081C0004FF0020CDFF82880E64640F229404FF0DD
:1081D0000409C4E780BC92C7C5B3A29107452EC26B
:1081E000ABAAAA2A73B06D1689888888792D0311E5
:1081F000487C05080028F0B403DA2D230B704042B8
:108200000131092804464FF0010307DD03EB830326
:108210005B00B0FBF3F2092AF8D883B10F48A0FB4A
:108220000326B4FBF3F2092A02F1570C02F13007DE
:1082300009DD03FB1244F30801F801CBEFD1002361
:108240000B70F0BC704703FB1244F30801F8017B8C
:10825000E5D100230B70F0BC704700BFCDCCCCCC77
:10826000884270B44FF0010442D301FB04F4B0FB28
:10827000F4F58D42F9D2ECB142BB092D04FB150097
:1082800005F1570605F130020EDDB4FBF1F403F8F9
:10829000016B7CB1B0FBF4F5092D04FB150005F171
:1082A000570605F13002F0DCB4FBF1F403F8012BC2
:1082B000002CEFD100221A7070BC704703F8016BDC
:1082C000B4FBF1F4002CF5D0B0FBF4F5092D04FB60
:1082D000150005F1370605F13002EFDCB4FBF1F4CF
:1082E00003F8012B002CEFD100221A7070BC7047EC
:1082F0000546002AEAD1C0E790ED057A90ED004AE4
:10830000D0ED066AD0ED014AD0ED047A90ED035A23
:10831000D0ED025AA4EE007AB0EE406AB0EE470A01
:10832000B0EE667AA4EE867A67EEC07AA5EE407A61
:10833000E5EE867A80ED057AC0ED067A704700BFDB
:10834000D0ED057A90ED013AD0ED003AD0ED064A35
:1083500090ED024A90ED077A90ED035A90ED086A8D
:10836000D0ED045AC0ED067AF0EE406A27EE830A9B
:10837000C0ED056AA3EEA60A80ED087AA4EE240AF1
:10838000A5EE470AA5EEC60A80ED070A704700BFB2
:10839000D0ED007A90ED017A30EE670AE7EE007AD0
:1083A000B0EE670AC0ED007A704700BF704700BFAB
:1083B00030B414220023342503240221C270012288
:1083C0008571C4710370C3728373C373417041724A
:1083D00082700272827230BC704700BF0023062197
:1083E0004FF47A720170C0E901230373704700BF34
:1083F00030B43223012231254FF60174FF2143703E
:1084000000234571048281740272027002714381FB
:108410008381C38130BC70472DE9F04F3149324B25
:1084200083B001F5C07B019028274FF000092F4849
:108430001022012603E0203098420BD002799742A7
:10844000F9D102680C68A24209D02030984206F1A6
:108450000106F3D1203159453AD00F79E7E7447945
:108460004D79A542F1D19446019A214809EB49057D
:1084700002EB050A57558AF8016000F572751D4E2A
:10848000624603E0A8421AD050F82C6FB242F9D1EC
:108490000679A642F6D1CF6806464FF0000C964604
:1084A0008046F268BA4216D00CF1010CBCF1030F01
:1084B00006F10C06F5D14046A8427246E4D14FF0D1
:1084C000FF3C203159458AF802C009F10109C4D1A5
:1084D00003B0BDE8F08F086932698242E4D14FFAF7
:1084E0008CFCEEE758BF050878F00508B8E60508EB
:1084F00078F0050800000140144BFF22F0B54FF062
:10850000FF34C2700271027242724273827303F1CD
:108510000C0EA446172716261525002202EB820210
:1085200081189E4585544E708F7081F803C00C7180
:108530000AD093F90620DD791E7A5F7A93F90AC092
:1085400093F90B400633E9E7F0BD00BFA87C0508AE
:1085500010B42C2101240222002304704170827087
:10856000C3705DF8044B7047034600F11001FF2211
:108570001A705A7002338B42FAD1027042708270C4
:10858000C270027142718272C272704730B41D694A
:1085900095420AD314460A4621448D42996938BF50
:1085A0002A1B214430BC4DF0D5BF30BC704700BF02
:1085B000002070470120704701207047002070475D
:1085C0004FF40070024B10609B680B6000207047F6
:1085D00048C80020013A30B4D2B28C1C04EB4204EB
:1085E0000025020F092AD3B203F130028ABF3733C4
:1085F0000A700B704D7002318C424FEA0010F0D1BE
:1086000030BC70470B4A0C4B10681B681A22C0180C
:108610000A8001D10948704710B5094B09491C6807
:108620000822FFF7D7FF204604220749FFF7D2FFB1
:10863000024810BDE8F7FF1FECF7FF1F880100207C
:10864000EAF7FF1F8A0100209A01002004230B8013
:1086500000487047A401002012230B800048704797
:10866000A80100201F22032302704370704700BF3F
:1086700008307047704700BF816170476D4B2DE92E
:10868000F04F1C686C4BB3F80AE0B3F804809A8989
:108690004FEA0E2AB4EB0A044FEA1E6B4FF00005B6
:1086A00087B065EB0B05CDE900450746009C1889AE
:1086B000019EA0FB044500FB0655E00940EA456029
:1086C0004FEA08448C46E9114FEA184510EB0408BC
:1086D000D888009C41EB0509CDE90489A0FB04453D
:1086E000B3F8028000FB0655200A40EA05604FEA15
:1086F000C83429124FEA584510EB040841EB05092C
:108700000099A2FB010102FB06114FEAD05A4AEA86
:10871000412A1AF5FA634FEAE15B4BF10004B3F525
:10872000FA6FCDE9023474F10003424E64DA052495
:10873000AAFB040104FB0B1100FB0BF40AFB014430
:10874000DDE90423A0FB0A0121444D104FEA300467
:10875000121B4FEA900463EB050344EA8174B8EB03
:108760000408CDE90423DDE9023434484FEAA105C9
:1087700069EB05094FF0FF31834274EB010326DA00
:1087800040F6AC501AEB00024FF000014BEB010336
:1087900002FB03F1A2FB022303EB4103D400DD0043
:1087A000101B45EA527563EB0501DDE90445241809
:1087B0004D41CDE904450B24A2FB040104FB031148
:1087C00049104FEA3000B8EB000869EB0109DDE918
:1087D00000325343009ADDE90201A2FB02AB0BEB2E
:1087E000430B4FEADA7242EA4B02801A4FEAEB730C
:1087F00061EB0301CDE9020197B17168A1FB082388
:1088000001FB0933540D5D1544EAC324DDE904235B
:10881000A21A65EB03031D46D30B43EA45433B60B5
:10882000BCF1000F02D0029BCCF8003007B0BDE8CD
:10883000F08F00BFC8170020A475002024FAFFFFA6
:108840002DE9F04FDFF8DCC1754CDCF808502288C8
:10885000B4F90AA0C2EB25135200C2EBE502B4F949
:1088600002505B436A43B4F904501B135D43AD13DC
:1088700005EBE225B5F5FA324FEAE57B85B04BF121
:10888000FF33CDE90023DDE900325343009AA561AF
:10889000A2FB0289CDE90201B4F9082001990098F0
:1088A00009EB43095143D31700FB0311A2FB00233B
:1088B0000B444FEAEA7B0AFB09F11F0308FB0B1389
:1088C000AAFB080119444FEA102A4AEA016A160372
:1088D0004FEA212B47EA12571AEB0602E6884BEBC8
:1088E000070312F1000A43F5004BAAFB060106FB41
:1088F0000B114A10CB1752EA030100F08E80B4F935
:108900001060009806FB09F1F71708FB0711A6FB9A
:1089100008673944B4F90E808B4601994FEAE8792B
:1089200008FB01F100FB0911A8FB00898944DCF870
:108930000C104FEA4947C1F5801C47EAD837B246C8
:108940004FEA4846B4F90C801AEB060A66464BEB30
:10895000070BF7174FEAC806019600260096F9079D
:10896000DDE900674FEACC7016EB0A0647EB0B0710
:1089700041EA5C01801B61EB070140F6354C8946FA
:10898000A0FB0C010CFB09114DF046FBB4F91620BD
:10899000B4F914A04E13470B47EAC14702FB06FC8B
:1089A000D31707FB03CCA2FB07236344564307FB03
:1089B0000366A2FB07233344560E46EAC316321859
:1089C0004FEA636747EB010380460AFB01F14FEA78
:1089D000EA7B08FB0B17AAFB08013944C60C46EAE0
:1089E000413612EB06084FEAE147B4F9122043EB97
:1089F00007094FEA182141EA096113010B44029A61
:108A00000AB11B0A1360039B23B105EB8505803572
:108A10002D121D6005B0BDE8F08F0023EFE700BF09
:108A2000B8750020C8170020704770474FF40063E6
:108A300003837047012380F850307047F0B4037C03
:108A4000456902681F2B37D9203B20215468994083
:108A50000C4223D010249C40D160D4605168D9408E
:108A6000CE074ED4EFF31183502282F312882A6C82
:108A70001168C90709D45468002C52D1D5E909619D
:108A80008E4243D1012285F86420DBB283F3118842
:108A9000037C02681F2B194614D9203B082150681B
:108AA0009940084200D0D1600421506801FA03F3D4
:108AB000184223D1F0BC7047202416689C402642FF
:108AC0000FD11946082310688B40184200D09360DC
:108AD0000423106803FA01F10842EBD09160F0BC66
:108AE000704710219940946091601168D940CC077B
:108AF000B8D5012101FA03F39360B3E7D360F0BC6A
:108B00007047012101FA03F3D360ABE7AF690F446B
:108B1000D7600ED82E69711A5160AC62002185F8B9
:108B20006410116841F00101DBB2116083F3118818
:108B3000AEE7711A5160AE62F0E700BFF0B4714B5E
:108B400071491A780B789A4240F07E816F4B1A78FF
:108B5000002A00F0D4806E4B19786E4B002940F04B
:108B6000DB801868B3F83261048824F080042404A0
:108B7000240C048093F83041C462058845F08005D8
:108B8000058041628489012A44EA06048481A3F8AD
:108B9000321100F0B480D3F83401B3F8666204886F
:108BA00024F080042404240C048093F86442C462FA
:108BB000058845F08005058041628489022A44EADF
:108BC00006048481A3F8661200F09980D3F8680245
:108BD000B3F89A63048824F080042404240C0480ED
:108BE00093F89843C462058845F08005058041628A
:108BF0008489032A44EA06048481A3F89A137ED068
:108C0000D3F89C03B3F8CE64048824F080042404D1
:108C1000240C048093F8CC44C462058845F0800598
:108C2000058041628489042A44EA06048481A3F809
:108C3000CE1464D0D3F8D004B3F80266048824F0CC
:108C400080042404240C048093F80046C462058840
:108C500045F08005058041628489052A44EA0604BE
:108C60008481A3F802164AD0D3F80406B3F8366715
:108C7000048824F080042404240C048093F83447EE
:108C8000C462058845F08005058041628489062A12
:108C900044EA06048481A3F8361730D0D3F83807A5
:108CA000B3F86A68048824F080042404240C048047
:108CB00093F86848C462058845F0800505804162E4
:108CC0008489072A44EA06048481A3F86A1816D026
:108CD000D3F86C28B3F89E59108820F08000000467
:108CE000000C108093F89C09D062148844F0800432
:108CF00014805162908928439081A3F89E19F0BC9A
:108D0000704700BFD0A10020D1A10020B8330010CF
:108D1000B4330010D4D600205C68198961602568DE
:108D2000186845F0010540F20D312560A0F84810A3
:108D30008489012A44F480748481E0D0D3F83841D6
:108D4000B3F83C51D3F834016560256845F001055E
:108D50002560A0F848108489022A44F48074848134
:108D6000CDD0D3F86C42B3F87052D3F86802656086
:108D7000256845F001052560A0F848108489032A7C
:108D800044F480748481BAD0D3F8A043B3F8A453D8
:108D9000D3F89C036560256845F001052560A0F8BF
:108DA00048108489042A44F480748481A7D0D3F8BD
:108DB000D444B3F8D854D3F8D0046560256845F09E
:108DC00001052560A0F848108489052A44F48074C0
:108DD000848194D0D3F80846B3F80C56D3F804062F
:108DE0006560256845F001052560A0F84810848974
:108DF000062A44F48074848181D0D3F83C47B3F8C8
:108E00004057D3F838076560256845F001052560AF
:108E1000A0F848108489072A44F4807484813FF4C0
:108E20006EAFD3F87028B3F87408D3F86C3850607C
:108E3000106840F001001060A3F848109A8942F4CD
:108E400080729A81F0BC70475C00E618484D15F8B6
:108E50003660032E3FF67AAEDFE806F04D261C02A0
:108E6000E01805EBC0004468661E012C46603FF622
:108E700046AF013303F00303D8B2824208703FF4D7
:108E800065AE03EB4303DB00EA1802200021E8543F
:108E9000516034E7E11805EBC1014868461E01281E
:108EA0004E603FF62CAF0DE0E118C9006818466827
:108EB000771E012E47603FF622AF02274FF0FF36A4
:108EC0006F544660E618F600AF192A48397B0068EF
:108ED0000139C9B2397389B34FF47A722344B2FBB2
:108EE000F0F200FB02F0B0F57A7F05EBC30518BF86
:108EF00001326A602AE670B11F49012600220F89FB
:108F00000132002F18BF0026824201F58671F6D18A
:108F1000002E3FF41BAE174A126842F21076E0189A
:108F2000B6FBF2F102FB1162012605F8306002B1D6
:108F30003144234405EBC305696007E6BF68B7FB0E
:108F4000F0F100FB11700327AF5500B101311C4453
:108F5000013305EBC40503F00303934269603FF45A
:108F6000F5AD00293FF4F2AD01396960EEE500BFCF
:108F7000D4A100203C0E002074CE002010B5027C4D
:108F800001681F2A4FF020030ED94C68203A934005
:108F90001C4208D00B4A406800241470026822F07A
:108FA00001020260CB6010BD0C6893401C42FAD0F5
:108FB000044A406800241470026822F00102026032
:108FC0008B60F0E74F8500202DE9F041C4002318A5
:108FD0009B00B749CA585268958AADB2EFB2FE07F6
:108FE0000B4461D4BE0737D5BFF35F8F1D7EEDB252
:108FF000012D00F0BB80AF4E138BBFF35F8F2318A2
:1090000001EB83031D7E022D00F0CE80231801EBBF
:1090100083031D7E032D05D19B7E1BB1737C002B2A
:1090200040F01A81938896F910C043F480639380CE
:10903000231801EB83031B7E013363450AD1B37C04
:1090400000257574002B40F08A80204401EB8000DD
:1090500000234375BDE8F081964E17F0040F96F992
:1090600010C04DD117F0400700F0B280178A1D6A7A
:10907000FFB205F80C705FFA8CF56F1C93F818E0DE
:109080007BB2DF1CBE4533749C4600F00981271873
:1090900001EB87073F7EBB42CAD105F1020C4FFAB4
:1090A0008CFC86F810C0C3E71588824E25F4006555
:1090B0002D042D0C1580158845F4806515809D7E46
:1090C00000273774002D3DD0757C002D37D0231834
:1090D00001EB830301251B7E7574022B03D11388DA
:1090E00043F400631380231801EB83039B7D43F05B
:1090F00001031382204401EB8000037EBDE8F08170
:109100009F7E757C4FF0010E86F812E0002F5CD038
:10911000002D78D1231801EB83035B7E002B00F038
:10912000A48013880CF1010C4FFA8CFC43F40073FB
:1091300086F810C013801388DF05FCD478E7DB7D48
:10914000FF2BC4D0231801EB83039D7D05F0FE05A2
:109150001582DB7DFF2BCDD0FF233374CAE79388C4
:1091600023F440731B041B0C93806EE79B7E514ECF
:10917000002B3FF441AF737C002B3FF43DAF1388CD
:1091800023F480631B041B0C1380BFF35F8F138BCE
:109190001388B57443F400731380938896F910C054
:1091A00043F48063938043E79B7E002B3FF42EAF14
:1091B000737C002B3FF42AAF138896F910C023F478
:1091C00080631B041B0C138016E0002DA2D0A8E7BF
:1091D0002D067FF52DAFBCF1FF3F6DD0DD6915F891
:1091E0000C5015820CF1010C1D7E4FFA8CF39D4240
:1091F0009C4633747FF41CAF938823F480631B0474
:109200001B0C938014E71F7ED3F820805FFA8CF547
:10921000AE44022F4FFA8EFE17882DD927F48067AF
:109220003F043F0C1780178AFFB208F80C701788AC
:10923000D3F820C047F400731380138ADBB20CF814
:109240000E30938805F1020C4FFA8CFC43F48063D6
:1092500086F810C093806EE7938896F910C023F4C7
:1092600080631B041B0C9380E2E61388012543F402
:109270008073138075745EE747F400771780178A50
:10928000FFB208F80C70178AD3F8208005F1030CA0
:109290004FFA8CFCFBB286F810C008F80E304AE793
:1092A000978827F480673F043F0C9780EFE600BF64
:1092B000349A0020C8170020DD7D15829D7E37740A
:1092C0001DB91B7E002B7FF415AF938823F48063B8
:1092D0001B041B0C93800DE744F096BC38B51D4B66
:1092E0001B78044600F1250593B104221A49203069
:1092F0004EF094FC2846142218494EF08FFC0123AE
:1093000084F83A30164B1B7873B984F83B3038BD7B
:109310002846142213494EF081FC012384F83A3088
:109320000F4B1B78002BF0D00F4B186859689A68C8
:10933000DD68E56020606160A260DD6918695969D7
:109340009A69A2610123E5612061616184F83B3083
:1093500038BD00BFDD990020AC9900209499002011
:10936000DE99002060FC0508B4990020014B1868C4
:109370002AF0D0BD049F00200023012282710360E7
:1093800003714371C37170472DE9F84FDDE90A6439
:109390008946174600212022984605464EF000FCDB
:1093A0005EB1D6E900327189EB81C3F30F432B82A2
:1093B000C2F30F43EA822B83698248464CF036F9A8
:1093C00017F0100B10D1431E70B119F803202E2A8C
:1093D00018BF09EB030104D14AE011F8016D2E2EEC
:1093E0003ED013F1FF33F8D208280246CA46A8BF80
:1093F00008224FF0000B4FF020336B602B60C5F854
:1094000007304946284605F108064DF0A3F85A46AC
:10941000514630464DF09EF86B1EE81D13F8012FA3
:10942000A2F1610119299CBF203A1A708342F5D13B
:1094300005F10B0116F8013BA3F16102192A9CBF4B
:10944000203B06F8013CB142F4D11823C8F30F4287
:10945000EF722B73A5F81A80AA82EC61BDE8F88F31
:10946000C01A00F1FF3BBBF1030FA8BF4FF0030B85
:10947000082B03F1010AA8BF0823CA441A46BAE719
:1094800038B5302200214EF08BFB0346642440F2B5
:10949000DC5040F21A4140F26C7240F202251C741A
:1094A0005882132419209982DA8240F2753140F6ED
:1094B00043021D839C760E250A241877D9831E202B
:1094C00002211A84012283F82E00197283F82C10CD
:1094D00083F8225083F82D409A7383F8252083F86F
:1094E0002B2019460248BDE8384038F0F9BB00BFD0
:1094F00070FC050810B500210446012028F06EFE1E
:10950000207010BD38B500240472451EE1B202205F
:1095100028F064FE0134082C05F8010FF6D138BD9F
:1095200038B50024054604802146284601341FF042
:10953000EDFD082CF8D1002185F8E210A5F8E41023
:10954000A5F8E610A5F8E810A5F8EA10A5F8EC10C3
:10955000A5F8EE10A5F8F010A5F8F2102846BDE821
:1095600038401FF095BD00BF2DE9F04F002087B0B7
:109570000C461D460121924627F00CFC002D63D0BD
:1095800005EB0A03DFF8D094DFF8D0B40393554617
:109590001CE0002D00F0C581D9F81430AB4264D036
:1095A000D9F81030AB4200F09780D9E90631AB42D0
:1095B00052D8A94200F26F81691A204648F032FD64
:1095C000039B01359D4204F500743DD0D9F820601D
:1095D000AE42DED8D9F83080AE1B4FEAD60AD8F8B2
:1095E00030300AF1020A9A4506F0070603D3D8F88C
:1095F00038309A4509D94146504648F0E3FC804648
:10960000002800F04D81C9F8300098F80430002B94
:1096100040F0E280D8F82870002F00F0DF81D8F801
:109620003030D8F80C20AAEB030A06EBCA0A4346EE
:10963000204602EB4A224FF40071B847039B0135E4
:109640009D4204F50074C1D10021084627F0A2FB19
:10965000002007B0BDE8F08FA942ADD94FF40072E9
:10966000002120464EF09CFAAAE7522261204123B5
:10967000002622706270A070722284F8E70184F8DC
:10968000E631D9F82800E3704FF0FF33314684F813
:10969000E42184F8E521C4F8E8014FF4F07284F87D
:1096A000EC3184F8ED3184F8EE3184F8EF31201D8F
:1096B0004EF076FA55216FF05502C4F8F061C4F807
:1096C000F461C4F8F86184F8FC6184F8FD6184F801
:1096D000FE1184F8FF2173E74FF400720021204649
:1096E0004EF05EFAD44BD54F03CBEB23022223700E
:1096F0004FF0080C9026F8234FF0580EC4F80300E2
:10970000227484F80DC0C4F8071084F801E0A67034
:109710006375D9F81010D9F80830D9F81C60227395
:10972000591A21624FF0FF3100233F20A1763E21DC
:10973000A273E372E3736374A374E3742375A37574
:10974000E3756376E3766377A377E3772076217713
:1097500084F82C2007CFD9F8187084F82830F61B2D
:1097600084F8293084F82A3084F82B3084F82D309E
:1097700084F82E3084F82F3084F8313084F8323079
:1097800084F8333080236662C4F8470004F147064A
:1097900084F8403029209423A94F84F846C084F8E7
:1097A000420084F843300E200D234FF0010C84F862
:1097B000440084F8453084F830C0716003CF3346EC
:1097C0005527AA269A60C4F85200C4F8561084F8A7
:1097D000FE7184F8FF61F3E64FF400720021204629
:1097E0004EF0DEF9D8F84030002E61D104F12007A8
:1097F000002B77D0D8F8303092491122CDE900669D
:109800002046FFF7C1FDD8F840301A6C04F1400A39
:10981000002A79D01B6B8C49CDE9006638461122AD
:10982000FFF7B2FDD8F84460002E3FF4C9AE4FF404
:10983000E078CDE904450CE00024CDE900C4FFF751
:10984000A3FDB66CBA46A8F120080EB3B8F11F0FFD
:109850001ED93468356B96F804E011222B46214658
:1098600050460AF1200706F11C0CBEF1000FE3D1AF
:1098700072793369019342F021022B46CDF800C082
:10988000FFF782FDB66CBA46A8F12008002EDDD1A4
:10989000DDE9044594E6E91A204648F0C3FB8FE66B
:1098A000231F04F5FE7243F804BF9A42FBD187E6FA
:1098B000002BD8F844200CBF01230223C3EB06136E
:1098C000002A3FF47DAE966C013B002E3FF478AE4B
:1098D000013BB66CF9D1002E3FF472AEA2464FF4B4
:1098E0000078A6E7CDE900663346D9F80C100822C7
:1098F0002046FFF749FDD8F84460002E3FF460AEE3
:10990000BA464FF4F07894E7CDE90066334638461E
:1099100011224D49FFF738FDD8F84460002E86D15A
:109920004EE64FF40072294620464EF039F9802267
:109930000C2384F8BE2184F8C231D9F81000434BBF
:10994000D9F8086084F8B85183FB0032C117C1EB25
:109950002232B2F5806F84F8B95184F8BA5184F894
:10996000BB5184F8BC5184F8BD51C4F8C601C4F899
:10997000CA6142DBFF2384F8BF3184F8C13184F827
:10998000C031324B711E83FB0132CE17C6EB22323F
:10999000B2F5806F29DA2E4B84F8C52183FB0103D1
:1099A0000B442C48C6EB6313C3EB831680FB037098
:1099B000891B1844DE17921022F03F020131C6EBDA
:1099C000E0100A43034484F8C42184F8C3315522CB
:1099D000AA2384F8FE2184F8FF31F1E539464FF4DB
:1099E000007220464EF0DCF8EAE5FF2384F8C3312C
:1099F00084F8C53184F8C431E9E7154B84F8C121F6
:109A000083FB00730344134FC1EB631387FB0317FE
:109A1000C3EB831C9110A0EB0C02F818DF1721F0A8
:109A20003F010132C7EBE0100A43034484F8C02130
:109A300084F8BF31A5E700BF84FC050890FC050849
:109A4000A0FC05087CFC050880FC050897554541ED
:109A5000832008828180808048C80020DEADBEEF70
:109A600008B501200AF0E6FE174A936803F00C03DC
:109A7000042B1ED0082B18D151685368490203F0FB
:109A80003F0319D452681148B0FBF3F0C2F38813B6
:109A900000FB03F00C4B0E4A5B68C3F30143013338
:109AA0005B00B0FBF3F0106008BD094B074A1A6079
:109AB00008BD074B186008BDB0FBF3F05368C3F353
:109AC000881300FB03F0E5E7003802400024F400AF
:109AD000A0B7002010B5044C04480A46214609F0FE
:109AE00095FB204610BD00BFDC170020ACFC05082C
:109AF00010B5044C04480A46214609F087FB20466D
:109B000010BD00BFDC170020BCFC050810B5044CDC
:109B100004480A46214609F079FB204610BD00BFE3
:109B2000DC170020C8FC05080A4608B5054920B125
:109B3000054809F06BFB034808BD044809F066FBC3
:109B4000004808BDDC170020F4FC0508DCFC050813
:109B5000F8B584894FF6FF764FF47A7433B319B3AE
:109B60000F78013101E0B44218D00589013CAD07FE
:109B7000A4B2F8D5BCB284814FF47A7402E0BCB2CE
:109B8000B4420BD00589ED0704F1FF37F7D585897D
:109B9000ADB20AB115700132013BDFE743F0F4FDCD
:109BA000003018BF0120F8BDFF27DEE70120F8BD17
:109BB00030B5437F83B004461BB90120637703B0FF
:109BC00030BD0523ADF80430056800BFA86843F038
:109BD00079FA6A4601A902236868FFF7B9FFA86805
:109BE00043F076FA00BF9DF8013003F0010383F0E3
:109BF0000100637703B030BDF8B5074C05460F464A
:109C0000266803E023689B1BBB4204D82846FFF765
:109C1000CFFF0028F6D0F8BDA4C10020F0B5077F23
:109C200083B004464FF0030C0020009016461D46FA
:109C30008DF804008DF800C06FB30B0E8DF8013065
:109C40000DF10203080C0A0A9970187006212046CB
:109C50005A70FFF7D1FFE0B1236800BF986843F066
:109C600031FA237F2268002B14BF052304236946A1
:109C700050680022FFF76CFF2368324600215868C5
:109C80002B46FFF765FF2368986843F021FA00BF71
:109C9000284603B0F0BD0DF10103D3E7F0B58769A5
:109CA00083B0064617B13B68BA885A837069DFF8FB
:109CB000A8E08389C3244FF47A734FF0060C6D46F5
:109CC0004FF6FF710EF1010E03E0013B9BB28B4298
:109CD00020D002899207F8D5A3B283814FF47A731A
:109CE00002E0A3B28B4215D00289D20703F1FF3400
:109CF000F7D5828992B20DB12A700135BCF1000FFF
:109D00000BD00CF1FF3CFF24BEF1000FE1D09EF818
:109D10000040D7E743F038FDB76917B13B68BA8810
:109D20001A839DF805009DF801509DF802109DF8DA
:109D300003409DF804209DF8063041EA052143EADE
:109D4000002342EA04220120A6F85010A6F852206F
:109D5000A6F8543003B0F0BDBC7C05082DE9F04FE7
:109D600087B0A94A02904068038823F040031B048F
:109D70001B0C0380038823F038031B0490424FEA36
:109D8000134300F03F8102F5806290420CBF302205
:109D9000382213430380029B02889B6842F04002F2
:109DA000028013B11A689B885383838940F2E93398
:109DB00002E0002B00F090810289013B12F0020FBB
:109DC0009BB2F6D06B23838140F2E93302E0002B93
:109DD00000F082810289013B12F0010F9BB2F6D0A4
:109DE0008389838940F2E93302E0002B00F071811E
:109DF0000289013B12F0020F9BB2F6D080238381CF
:109E000040F2E93302E0002B00F063810289013B5C
:109E100012F0010F9BB2F6D08389029B9B6813B1AD
:109E20001A689B8813830623784CDFF8EC81DFF8EF
:109E3000ECA1774D774E04939623DFF8E4C10193AC
:109E40004FF0100EDAF80430C3F30803002B40F093
:109E5000B280EFF31183002B40F0AD802068AA6838
:109E600023689842FAD133689A42F7D8D8F800703C
:109E70004FF47A7101FB07F39B1AB3FBF7F301FB75
:109E800000304FF47A774FF00109DAF80430C3F369
:109E90000803002B70D1EFF31183002B6CD12368E2
:109EA000A96822689342FAD132689142F7D8D8F86B
:109EB000002007FB02FBABEB0101B1FBF2F107FB5A
:109EC00003131B1AB3F57A7FDFD3019B013B019388
:109ED000B8D1029B9B6813B11A689B885383029B7D
:109EE000586840F2E933828902E0002B00F0858057
:109EF0000289013B12F0020F9BB2F6D0F523838159
:109F000040F2E93301E0002B77D00289013B12F0E7
:109F1000010F9BB2F7D08389838940F2E93301E0D6
:109F2000002B67D00289013B12F0020F9BB2F7D0E1
:109F3000FF23838140F2E93301E0002B5AD00289EC
:109F4000013B12F0010F9BB2F7D08389DBB2039380
:109F5000029B9A6812B1136891881983039B682B3E
:109F600060D0049B013B13F0FF0304937FF464AFC4
:109F7000184607B0BDE8F08FEFF311818EF3128819
:109F8000D5F808B02B68DB0344BFCCF80090D5F8B7
:109F900008B02368DCF80020C9B281F31188D8F832
:109FA0000010134407FB01F2A2EB0B02B2FBF1F22B
:109FB00007FB032385E7EFF311838EF31288AF6865
:109FC0002A68D20303D50122CCF80020AF682068AC
:109FD000DCF80090DBB283F31188D8F800104FF45E
:109FE0007A72484402FB01F3DB1BB3FBF1F302FB83
:109FF000003046E743F0C8FBAAE743F0C5FB029BED
:10A00000586889E73022C4E600380040A4C1002027
:10A0100010E000E0ACC10020A8C1002000ED00E08D
:10A02000A0C1002012B1136892885A83029B58681D
:10A0300040F2E933828901E0002B45D00289013BDF
:10A0400012F0020F9BB2F7D08C23838140F2E933E8
:10A0500001E0002B38D00289013B12F0010F9BB2C6
:10A06000F7D08389838940F2E9330289013B12F0FA
:10A07000020F9BB215D1002BF7D143F085FB029B59
:10A080009B6813B11A689B881383059B142B04D318
:10A09000182B17D9543B062B14D9002007B0BDE864
:10A0A000F08FFF23838140F2E93301E0002BE4D0FD
:10A0B0000289013B12F0010F9BB2F7D08389DBB21A
:10A0C0000593DCE7032054E743F05EFB029B5868EE
:10A0D000C8E743F059FBA0E643F056FB029B5868E3
:10A0E0007FE610B500F10C0400222121204643F048
:10A0F000A5FCFC222021204643F0A0FC4022242184
:10A10000204643F09BFC0C222321204643F096FC82
:10A1100000222221204643F091FC642028F07EFE9C
:10A12000012010BD10B500F10C0401220B212046C6
:10A1300043F084FC20B11D220921204643F07EFC1F
:10A1400000F0010010BD10B500F10C0470220021D8
:10A15000204643F073FC20220121204643F06EFC90
:10A1600000220221204643F069FC642028F056FEBC
:10A17000012010BD0122482143F060BC012258217A
:10A1800043F05CBC3122F42143F058BC13B50623E4
:10A190000C466A4628210C3043F024FBF0B19DF8B0
:10A1A00001309DF8002042EA032204219DF803308B
:10A1B00012B292FBF1F222809DF8022042EA0322C1
:10A1C00012B29DF8043092FBF1F262809DF80520F6
:10A1D00043EA02231BB293FBF1F3A38002B010BD4C
:10A1E0007FB5002500F10C060C460D804D808D805A
:10A1F00001230DF107020621304643F0F3FA10B9AE
:10A20000002004B070BD9DF807305B07F8D5062329
:10A2100002AA2946304643F0E5FA0028F0D09DF81E
:10A2200009209DF8083043EA022323809DF80B2083
:10A230009DF80A3043EA022363809DF80D209DF8C3
:10A240000C3043EA0223A380DBE713B506230C4658
:10A250006A4603210C3043F0C5FAA0B19DF80020F6
:10A260009DF8013043EA022323809DF802209DF8E7
:10A27000033043EA0223A3809DF804209DF80530B3
:10A2800043EA0223638002B010BD07B5032301AA8D
:10A29000002143F0A7FA9DF805309DF804001B0249
:10A2A00043EA00439DF80600184303B05DF804FB41
:10A2B00008B5FFF7EAFF014B586008BDC81700203A
:10A2C00008B5FFF7E2FF014B186008BDC817002072
:10A2D00007B506236A46F72143F084FA9DF801305A
:10A2E0009DF800100B4A1B0143EA01339DF8021050
:10A2F00043EA1113D3609DF804309DF803101B014D
:10A3000043EA01339DF8051043EA1113936003B04B
:10A310005DF804FBC817002070B582B00446062320
:10A320000C306A463B2143F05DFAA8B19DF8040069
:10A330009DF800609DF801109DF802509DF80320E3
:10A340009DF8053041EA062143EA002342EA05224E
:10A350006183A283E383012002B070BD2DE9F84F31
:10A36000037C02681F2B86BF203B516811682022A6
:10A3700002FA03F30B4214BF012300230BB9BDE81B
:10A38000F88F4569DFF87092044628F097FC4FF487
:10A39000867303FB059306465A7C002A30D1854913
:10A3A0005A6809781768C1B9D3F8801058890A68C3
:10A3B00022F001020A60BB8923EA0003BB817E4BC5
:10A3C0001B78002B30D1237C21681F2B11D8202231
:10A3D00002FA03F38B60BDE8F88F5269136823F02B
:10A3E00001031360BB8923F480731B041B0CBB8126
:10A3F000E5E7203B202202FA03F3CB60BDE8F88FAB
:10A40000D3F880606D485F8901229A7431685A6878
:10A410000368156821F001013160AA89013322EA3D
:10A420000702AA810360CEE74FF4867303FB05930E
:10A43000634AD3F88080D8F8003023F00103C8F8CD
:10A4400000300023C8F800309045C8F80430C8F840
:10A450000830C8F80C30C8F810304FF02103C8F8A5
:10A46000143000F08780574B98457ED0564B984566
:10A4700000F08480554B984500F08580544B9845FA
:10A4800000F08680534B984500F08680524B9845EB
:10A4900000F08680514B984500F0868040460AF0D7
:10A4A000D1F84FF4867A0AFB05FA09EB0A05012375
:10A4B0006B74D5F884B028F001FC3B88CBF82C01F4
:10A4C00023F080031B044FF0FF321B0C3B80FA6229
:10A4D0003B880AF1340143F080033B80494438460D
:10A4E0000AF000FAD5E915702B6CD5F850C0D5E903
:10A4F00017123B4303430B4313436A6E6F6FD8F845
:10A50000000037491343AA6E1343AA6F3B4301402F
:10A5100013430B430022EA64C8F80030D5E91B302E
:10A52000D8F81410D5F880206F6C21F00701034390
:10A530000B43A86C95F87C10C8F81430C8F804C018
:10A54000C8F80870C8F80C0051606B68116818688A
:10A550006D8941F00101116083892B43838128F0CB
:10A56000ADFB204B801B18602DE74FF4746243F85D
:10A57000202C96E71C4B3D229A6092E74FF4741210
:10A5800043F8382C8DE74FF0746243F8502C88E77D
:10A59000164A43F8642C84E7154A43F87C2C80E77C
:10A5A000144A43F8942C7CE74FF03D5243F8AC2C0E
:10A5B00077E700BFB4330010B033001034A200209E
:10A5C0001060024028600240406002405860024033
:10A5D0007060024088600240A0600240B8600240A3
:10A5E0003F801CF05C320010006002403D00002003
:10A5F000400F002000003D2074CE002020B10078E4
:10A60000B0FA80F0400970470120704708B520215A
:10A610004DF0DDFA0346184623B10278202A03F1F3
:10A620000103F8D008BD037903F01803082B0AD002
:10A6300002D82BB100207047102B14D0182BF9D161
:10A64000B0F80B007047104BB0F80B0093F90030D6
:10A65000591C06BF0D4B1B78DBB203EB831300EBD9
:10A66000430080B270470A4BB0F80B0093F90030FA
:10A670005A1C06BF054B5B78DBB203EB031300EB00
:10A68000430080B2704700BF8D0E0020D0CB002069
:10A690008C0E0020F0B5067906F0E003402B09D1BE
:10A6A00044794FF0FF350023012006F00706A3424E
:10A6B0000BD1F0BD602B08BF45794FF001040CBFF2
:10A6C00004FA05F54FF0FF35EDE7042E0CD8DFE86E
:10A6D00006F0030D18242E0030B1C85CD75C78401A
:10A6E00028420CBF012000200133E0E70028FBD006
:10A6F000C856D756A0EB070CDCF1000040EB0C006D
:10A70000F2E70028F0D031F8130032F813707840E7
:10A7100028420CBF01200020E6E70028E4D031F9F0
:10A72000130032F91370C71B78427841DCE7002828
:10A73000DAD051F8230052F82370784028420CBF39
:10A7400001200020D0E7024B0146186843F05CBAB4
:10A75000F89D002038B5064D441E14F8011F2868E6
:10A7600019B9BDE8384043F0C7B943F04DFAF4E7F2
:10A77000F89D00200048EDE7E83B060808B5FFF724
:10A78000E9FFBDE80840F5E710B504460348FFF7C8
:10A79000E1FF2046BDE81040F0E700BFA8FB050838
:10A7A00008B532B1C30600D519B11046FFF7ECFF6A
:10A7B0000022104608BD38B5074C084DAC4203D303
:10A7C000074B00221A7038BD6288D4E901014BF0B2
:10A7D000C1FE1434F2E700BF9001000880070008B2
:10A7E000ACB6002038B5074C074DAC4203D3074B3D
:10A7F00001221A7038BD6288D4E901104BF0AAFE1C
:10A800001434F2E79001000880070008ACB600207D
:10A81000024A136823EA000010607047D0E000206D
:10A82000DFED2E7AB4EEE70AF1EE10FA4ADDDFED45
:10A830002C6A9FED2C7A01E0B0EE670AB4EEC70AED
:10A84000F1EE10FA70EE667AF6DC9FED277AF4EE00
:10A85000C77AF1EE10FA3ED5DFED216A9FED237A3B
:10A8600001E0F0EE407AF4EEC77AF1EE10FA37EE3E
:10A87000A60AF6D4DFED1E7AB4EEE70AF1EE10FA7E
:10A8800014DDDFED167A37EEC00A60EE006A9FED48
:10A89000196A9FED197ADFED197AA6EE867A20EE15
:10A8A000266AE6EE877AA6EE270A7047DFED147A6D
:10A8B000B4EEE70AF1EE10FA44BFDFED0B7A37EEA3
:10A8C000C00AE2E79FED087AF0EE407AF4EEC77A2C
:10A8D000F1EE10FAC0D4B0EE670ACBE7DB0F4940C7
:10A8E000DB0FC940E4CB1641DB0F49C0E4CB16C1F6
:10A8F000DB0FC93F92E741B99730083C15A82ABE43
:10A90000DB0FC9BFF0EEC07AB0EEE07AB4EEE77AC2
:10A91000F1EE10FAB4BFB0EE676AB0EE476AB5EE7A
:10A92000406AF1EE10FA46D0B4EEE77AF1EE10FA92
:10A930008CBFF0EE675AF0EE475AC5EE866A9FED7F
:10A940001F3A9FED1F6A9FED1F4A9FED1F5ADFEDD3
:10A950001F3ADFED1F4ADFED1F5AA6EEC36AE6EE8F
:10A96000A34AA6EE864AB7EE006AA6EE845AA6EE81
:10A97000A46AE6EE855AC5EE866AB4EEE77AF1EE91
:10A9800010FA48BFDFED147AF5EEC00A48BF77EE43
:10A99000E66AF1EE10FA48BFDFED107AB5EEC00AB4
:10A9A00048BF77EEE66AF1EE10FA48BFF1EE666A4C
:10A9B000B0EE660A7047DFED076ADEE739094E3D03
:10A9C000E3B59E3E88FA163E45FE7F3F99FB243F45
:10A9D00069A2163EA7DFA834DB0FC93FDB0F494051
:10A9E000DFED317A30EE277AFDEEC76A16EE903A47
:10A9F0002033402B02D99FED2D0A7047B4EEE70AB1
:10AA0000F1EE10FA4DDD9FED2A6ADFED2A6A01E0D2
:10AA1000B0EE677AB4EEE67AF1EE10FA77EE467AA7
:10AA2000F6DC9FED257AF4EEC77AF1EE10FA35D513
:10AA3000DFED1F6A9FED217A01E0F0EE407AF4EE3F
:10AA4000C77AF1EE10FA37EEA60AF6D4DFED167AE1
:10AA5000B4EEE70AF1EE10FA1BDCDFED197AB4EE82
:10AA6000E70AF1EE10FA44BFDFED137A37EEC00AC1
:10AA700060EE006A9FED136A9FED137ADFED137AA3
:10AA8000A6EE867A20EE266AE6EE877AA6EE270AFA
:10AA90007047DFED0F7A37EEC00AE9E7B0EE670ADC
:10AAA000D4E7F0EE477ABCE7DB0FC93F00000000B7
:10AAB000DB0FC940E4CB1641DB0F49C0E4CB16C124
:10AAC000DB0FC9BF92E741B99730083C15A82ABEF1
:10AAD000DB0F494010B44C09012250F8243001F03A
:10AAE0001F0102FA01F123EA010340F824305DF866
:10AAF000044B704710B44C09012250F8243001F087
:10AB00001F0102FA01F10B4340F824305DF8044BB9
:10AB1000704700BF4B0901F01F0150F823200123AB
:10AB200003FA01F1114214BF18460020704700BF1C
:10AB30002DE9F043002489B006460D461F46A04685
:10AB400005E025290CD030460134A847039A531C50
:10AB5000039311780029F4D1204609B0BDE8F083B1
:10AB6000931CCDE903385078302842D0A0F130034F
:10AB7000DBB2092B4FF0000945D96C282AD0642894
:10AB800073D019D9732858D063D9752840F08280C2
:10AB900007F1040C386805AB00220A216746FDF76F
:10ABA0005FFB05AB049A009329464B463046FDF700
:10ABB0002DFA039A0444CAE725283CD051D95828D5
:10ABC0006BD06328C2D139783046A84704370134A6
:10ABD000039ABCE7039B5A1C03921B78642B52D048
:10ABE00016D8252B27D064D9582B18D0632BEAD040
:10ABF000ADE7D31C03939078A0F13003DBB2092BAF
:10AC00004FF00109B9D804AA03A947F05DFAB4E7E7
:10AC1000732B12D051D9752B2DD0782B97D1A3F14E
:10AC20005802B2FA82F23868520905AB1021043793
:10AC3000FDF716FBB5E7252185E73B68049A0093ED
:10AC4000294600233046FDF7E1F904370444039A0E
:10AC50007DE76E287FF47AAF039A3B6804371C6067
:10AC600075E700283FF478AF70E7386805A9FDF76D
:10AC7000C1FA043795E7386805AB00220A21FDF7D1
:10AC8000EFFA04378DE73B1D386805A91F46FDF72D
:10AC9000B1FA86E778287FF459AFA0F15802B2FAEA
:10ACA00082F23868520905AB1021FDF7D9FA043752
:10ACB00077E7002B3FF450AF49E76E2BCDD046E746
:10ACC00010B5064C0B46024605492068FFF730FFD9
:10ACD0002068BDE8104042F00FBF00BFF89D002083
:10ACE000D992000838B504460D460848FFF732FDF2
:10ACF00029462046FFF7E4FF0548FFF72BFD054BEB
:10AD00001B7813B1044B01221A7038BDADFB050846
:10AD100029360608549F0020559F00200FB407B520
:10AD200004A951F8040B0191FFF7DCFFFFF722FDA6
:10AD300003B05DF804EB04B0704713460A460146C1
:10AD40000048EBE7B8FB05080048E7E7D1FB05083A
:10AD50000FB407B504A951F8040B0191FFF7C2FF26
:10AD600003B05DF804EB04B070470FB407B504A955
:10AD700051F8040B0191FFF7A3FFFFF7FBFC03B0B1
:10AD80005DF804EB04B070470FB407B504A951F89F
:10AD9000040B0191FFF794FF03B05DF804EB04B0DE
:10ADA00070472DE9F843037903F0E001202928D00A
:10ADB00002D849B1BDE8F883402945D06029F9D1CE
:10ADC0002448BDE8F843D0E703F00703022B02D084
:10ADD000042B08D06BB9B0F80720B0F805101E4856
:10ADE000BDE8F843C1E7D0F805201B48BDE8F843AB
:10ADF000BBE7B0F90720B0F905101748BDE8F843E4
:10AE0000B3E74579154E1648FFF7A4FC06EBC502DB
:10AE1000002492F804800123A04502D8BDE8F8433D
:10AE2000A8E456F8357057F824204FEA84094AB14F
:10AE300013B90C48FFF78EFC57F809100A48FFF7C2
:10AE4000A3FF00230134E7E741790848BDE8F84350
:10AE50008BE700BF19FC0508DDFB050830C70508B6
:10AE6000F4FB050805FC05083630060808FC050853
:10AE70002DE9F0411746027902F0E003402B054628
:10AE80000E462BD10024584FDFF8808115E02B7936
:10AE900003F00703022B15D0032B19D0012B14BF8D
:10AEA000315D31573846FFF76FFF6B79013BA342A5
:10AEB00002DD4046FFF74EFC01346B79A342E6DC2D
:10AEC000BDE8F08136F814103846FFF75DFFECE777
:10AED00036F914103846FFF757FFE6E702F007028D
:10AEE000042A5DD8DFE802F0031D25272A00347804
:10AEF000202B3AD06DD8002BE2D1B5F80560B5F81B
:10AF0000078039482146FFF73FFFB44240DB444504
:10AF10003EDC002FD4D0424631463448BDE8F041F3
:10AF200032E796F90040202B1FD052D8002B3DD09D
:10AF3000C6E73488DCE7B6F90040F4E7D6F80080CD
:10AF4000202B444611D044D8002BB9D14146264885
:10AF5000FFF71AFFD5F80510884519D8002FAFD094
:10AF60002348BDE8F0410FE700246A79214B03EB49
:10AF7000C2010979A1420BDD53F8323053F82400A5
:10AF8000BDE8F041FFF7E6BB1B48BDE8F041FBE63A
:10AF9000FFF7F0FB224629681848BDE8F041D7E6E4
:10AFA000202BE1D007D8002B8AD11C46B5F90560CB
:10AFB000B5F90780A5E7602BE6D0802B80D13178EA
:10AFC0000F4B1048002914BF31461946BDE8F04127
:10AFD000DAE6602BF1D16A791441E307D4D50A4847
:10AFE000BDE8F041D0E600BFF1FB05086830060877
:10AFF00033FC050830C705080318060839FC0508A6
:10B00000BC190608363006082EFC050831FC050878
:10B010000CB407B510F020000BD079B92320FFF74E
:10B0200092FB05A904980191FFF74AFEFFF7A2FBE6
:10B03000012003B05DF804EB02B070470020F8E790
:10B040000CB4C30607B500D561B905A904980191F0
:10B05000FFF736FEFFF78EFB012003B05DF804EB2F
:10B0600002B070470020F8E70EB400B584B005AB1D
:10B07000019053F8042B0649039301A8FFF758FDEC
:10B08000019B00221A7004B05DF804EB03B0704716
:10B090000180000870B406688E4217D90139751E08
:10B0A000002311F8014F0822634013F0800F4FEA8C
:10B0B000430318BF83F0D503013ADBB2F5D18D42CB
:10B0C000EFD1721C0260337070BC7047721C002399
:10B0D0000260337070BC70470A44914215D010B4BE
:10B0E0000139541E11F8012F0823504010F0800F31
:10B0F0004FEA400018BF80F0D500013BC0B2F5D147
:10B10000A142EFD15DF8044B7047704748400823D7
:10B1100010F0800F4FEA400018BF80F0D500013BCF
:10B12000C0B2F5D1704700BF0A44914215D030B487
:10B130000139551E41F2210211F8014F082380EA1E
:10B14000042004044CBF82EA40004000013B80B26E
:10B15000F7D18D42F0D130BC7047704770B50222F4
:10B160001349144C144E4FF6FF70FFF7DDFF228891
:10B170004AB1A518B54218D2052A16D92146FFF7BB
:10B18000D3FF2C46F3E721460222FFF7CDFF022230
:10B19000A118FFF7C9FF094BE41A094B1C8041F6BF
:10B1A0000F53C31A5842584170BD0020FCE700BF3E
:10B1B000004000080240000800800008FA3F000834
:10B1C000AEB600200F4B2DE93048D3E9004554EAD4
:10B1D00005020AD1034640F201120020188098802F
:10B1E00098715A801881BDE83088074B1A6814EBB3
:10B1F000020B45F1000C5A466346FCF743FF012061
:10B20000BDE8308878540020A4C1002030B4038801
:10B210008278C478154DA3F5FA6303F0030101EBBE
:10B220004101013A02EB81029B0835F81250027984
:10B23000611E40F2B55404FB03132B4403EB43039C
:10B2400002EBC3034279847909490089C3EB0313F4
:10B2500002EB83032144C3EB031301EB83034FF49D
:10B260007A720021C2FB030130BC7047487C05089C
:10B2700080436D382DE9F04707468CB01E46924654
:10B28000002A5CD1154614460A88B2F5FA6F36D307
:10B290008B78581E0B2832D891F803C00CF1FF3080
:10B2A0001E282CD891F804E0BEF1170F27D891F88A
:10B2B0000590B9F13B0F22D888793B281FD8B1F807
:10B2C0000880B8F57A7F1AD24FF001085EBB098971
:10B2D0000491002CB4BF2D212B21002CB8BF644257
:10B2E000CDE90290CDE905140795CDE900CE3846A9
:10B2F0002A49FFF7B9FE40460CB0BDE8F0870023AD
:10B300002749ADF828304FF0010C18468DF82A3047
:10B31000ADF82C3099469E461A46984609916346E8
:10B3200009A9002ED3D0CDE90290CDE900CE384650
:10B330001C49FFF799FE40460CB0BDE8F0871A4C57
:10B3400084FB0234A318D417C4EB6314C4EB0415B4
:10B35000A2EB85052DB2002D0846B8BF6D42FFF760
:10B3600055FF4FF47A720023804689464AF054FE16
:10B370003C230AFB030A4FF47A72002340464946F5
:10B380004AF04AFE4FF47A7192B20023C1FB0A23BD
:10B3900009A8FCF777FE24B209A975E72CFD05087A
:10B3A000000001010CFD0508898888880378202B9E
:10B3B000024600F10100F9D0092BF7D02D2B00F047
:10B3C000A4802B2B03BF5378B7EE000A0246B7EEDA
:10B3D000000AA3F13001C8B209289FED577A10D8AE
:10B3E000F2EE046A07EE901AF8EEE77A12F8013FDF
:10B3F000E7EE267AA3F13001C8B20928B0EE677AE9
:10B40000F0D92E2B63D003F0DF03452B02D020EEC2
:10B41000070A704710B451782D294FD02B2979D0C5
:10B42000A1F13003092B02F101027AD80024002394
:10B4300003EB830301EB430312F8011FA1F130007A
:10B440000928A3F13003F3D9B3F59A7F1A4628BF30
:10B450004FF49A72072B6CD9DFED386A1346F7EE7A
:10B46000007A083B072B67EEA67AFAD802F00702AB
:10B47000DAB1F2EE046A012A67EEA67A15D0022A42
:10B4800067EEA67A11D0032A67EEA67A0DD0042AB9
:10B4900067EEA67A09D0052A67EEA67A05D067EE90
:10B4A000A67A062A18BF67EEA67A002C3BD087EE54
:10B4B000277A5DF8044B20EE070A70479178A1F1D6
:10B4C0003003092B02F1020230D80124AFE7537890
:10B4D000A3F13001C8B2092802F1010293D8F2EEBB
:10B4E000046AF0EE665A07EE901AF8EEE77A12F860
:10B4F000013F87EEA66AA3F13001C8B2092866EEC3
:10B50000A56A37EE067AEED97DE75378BFEE000ADA
:10B5100002465EE79178A1F13003092B02F10202A5
:10B5200084D9F7EE007A27EE277AC2E7F7EE007AA1
:10B53000BDE7F7EE007A9BE70000000020BCBE4CA0
:10B54000F8B5064615460846B6FBF2F434B905FBD5
:10B5500014640C4B1B5D00F8013BF8BDB4FBF2F723
:10B560005FB905FB1747074B05FB1464DA5D00F86C
:10B57000012B1B5D00F8013BF8BD3846FFF7E0FFEB
:10B58000EFE700BF5CFD0508B5EEC00ADFED677AA6
:10B59000674AF1EE10FACCBF30EE270A30EE670AA8
:10B5A000DFED647A20EE270A2DE9F047FDEEC07A40
:10B5B00088B017EE904A84EAE4760023A6EBE4769E
:10B5C000CDE902330493A2FB06325FEAD2080546B6
:10B5D00041D105AF58483946554BA3FB0623DB083C
:10B5E00003EB8303A6EB4303002CC35C0B704FF00B
:10B5F0000002ACBF20232D234A7038468DF8083056
:10B600004AF014F80128394639D0022842D00328DC
:10B6100005BF302302A802A88DF809304CF0C8FA03
:10B6200002A84AF003F80338C4B2224602A9284609
:10B630004CF0F4FA00232B55284649F0F7FF2E2250
:10B64000431C02A92A542144E8184CF0CDFA28469C
:10B6500008B0BDE8F087394BA3FB06235B0922D174
:10B6600005AF35483946324AA2FB0832D20802EB10
:10B670008202A8EB4202835C01F8013BACE7302375
:10B6800002A88DF809308DF80A308DF80B304CF097
:10B690008FFAC5E7302302A88DF809308DF80A30FB
:10B6A0004CF086FABCE7264AA2FB06125FEA921922
:10B6B0000ED105AF204839461D4AA2FB03C2D2086D
:10B6C00002EB8202A3EB4203C35C01F8013BCAE731
:10B6D0001C4AA2FB06125FEA523A0ED105AF164889
:10B6E0003946134AA2FB09C2D20802EB8202A9EB37
:10B6F0004202825C01F8012BDEE71348B6FBF0F052
:10B7000058B905AF39460A20BAFBF0F200FB12A285
:10B710000948825C01F8012BE3E705AF39460A22AC
:10B720000193FFF70DFF019B0146ECE76F12033A0F
:10B73000CDCCCCCC00007A445CFD05081F85EB51D4
:10B74000D34D62105917B7D1A086010002B370B46F
:10B750008E1803E0121B14D1B14215D010F8012B42
:10B76000A2F14103192B11F8013BA3F1410598BF48
:10B770002032192D03F12004ECD9D21A01D1002B6B
:10B78000EAD1104670BC70470022104670BC70476A
:10B790001046704770B5044608460D4649F046FF0E
:10B7A000064602E014F8013F43B1324629462046DE
:10B7B000FFF7CCFF0028F5D1204670BD1C4620467F
:10B7C00070BD00BF4FF0FF32FFF7C0BFA0F16103B3
:10B7D000192B98BF20387047A0F14103192B98BF4F
:10B7E00020307047202805D0093804288CBF00205D
:10B7F00001207047012070472DE9F0411F460646A1
:10B8000003461C782046FFF7EDFF1D460133002854
:10B81000F7D12B2C51D02D2C24D0102A804628D0A3
:10B820004FF0FF33B3FBF2F302FB03FC6FEA0C0CA7
:10B830005FFA8CFC013500200BE0303CE4B294420E
:10B8400025DA98422E461DD81AD002FB004015F882
:10B85000014B392CF1D944F02004602C17D9573C06
:10B86000E4B2ECE74FF00108102A6C7805F101050D
:10B87000D6D1302C23D06FF070434FF00F0CD9E7A6
:10B880006445E2D907EA08084FF0FF30DFE701B16D
:10B890000E60B8F1000F08D027B1B0F1004F28BFFB
:10B8A0004FF000404042BDE8F081002FFBD06FF028
:10B8B0000043984228BF1846F5E78046D4E76C78E5
:10B8C0002046FFF789FF782805F1010605D03546A7
:10B8D0006FF070434FF00F0CACE7AC786FF0704333
:10B8E00002354FF00F0CA5E701230A22002183E760
:10B8F00070B50D461446FEF789FE0646A0B1FFF767
:10B90000F3FF40F634039842A8BF1846B0F5617FB4
:10B91000B8BF4FF461701923A0F5617090FBF3F08C
:10B9200028702378013323703046FEF76FFE0646F9
:10B93000A0B1FFF7D9FF40F634039842A8BF1846DC
:10B94000B0F5617FB8BF4FF461701923A0F5617045
:10B9500090FBF3F06870237801332370304670BD9C
:10B96000613819288CBF0020012070474138192800
:10B970008CBF002001207047303809288CBF002080
:10B9800001207047A0F13003092B07D920F02000D7
:10B99000413819288CBF00200120704701207047D2
:10B9A00007EE901AF8EE677A9FED807A27EE800A0C
:10B9B00020EE070AFDEEC07A17EE903A2033402BB6
:10B9C0007BD8DFED7B7AB4EEE70AF1EE10FA40F3B4
:10B9D000E180B0EE407A9FED776ADFED776A01E0B3
:10B9E000B0EE677AB4EEE67AF1EE10FA77EE467AC8
:10B9F000F6DC9FED727AF4EEC77AF1EE10FA40F1C0
:10BA0000CC809FED6C6ADFED6E6A01E0F0EE477A64
:10BA1000F4EEE67AF1EE10FA37EE867AF6D4DFED40
:10BA2000697AB4EEE77AF1EE10FA40F3A280DFED26
:10BA3000607A37EEC77A27EE076ADFED635ADFEDEB
:10BA4000637ADFED636A9FED635AE6EE257A67EE6F
:10BA5000065AE6EE276AF7EE007AA5EEA67AF0EE31
:10BA6000675AE7EE055AE7EE457A87EEA55ADFED0D
:10BA7000557A30EE277AFDEEC76A16EE903A2033FB
:10BA8000402B1FD99FED547AF6EE006AB7EE006A9C
:10BA9000F7EE004AC4EEA57A80ED045A67EEA66A76
:10BAA00027EE866A27EE877AC0ED006AC0ED026A4B
:10BAB00080ED016A80ED037A7047B7EE005AF0EE30
:10BAC000455AD4E7B4EEE70AF1EE10FA6BDD9FEDCC
:10BAD000396ADFED396A01E0B0EE677AB4EEE67AF2
:10BAE000F1EE10FA77EE467AF6DC9FED347AF4EE5A
:10BAF000C77AF1EE10FA53D59FED2E6ADFED306A6A
:10BB000001E0F0EE477AF4EEE67AF1EE10FA37EE65
:10BB1000867AF6D4DFED2B7AB4EEE77AF1EE10FAFE
:10BB200033DCDFED2E7AB4EEE77AF1EE10FA44BFA3
:10BB3000DFED227A37EEC77A27EE076ADFED224A79
:10BB4000DFED226ADFED227AE6EE246A67EE064A2E
:10BB5000E6EE267AB7EE006AA4EEA77AF6EE006A61
:10BB600036EE476AF8EE007A27EE277A66EE266A06
:10BB70008EE7DFED1A7AB4EEE77AF1EE10FA44BF01
:10BB8000DFED0E7A37EEC77A55E7DFED097A37EE4B
:10BB9000C77AD1E7F0EE407A2BE7B0EE677A3EE75E
