:020000040800F2
:10000000F0FF0120F5F6040879E0030821610108FA
:100010006DF704086DF704086DF704080000000090
:100020000000000000000000000000007FE0030866
:100030007DE00308000000007BE003081D5A010872
:100040006DF704086DF704086DF704086DF70408F0
:100050006DF704086DF70408B9950108F9960108D1
:10006000B99601087996010839960108AD0801088A
:100070009D0801088D0801087D080108690801082C
:1000800055080108410801086DF704080000000048
:10009000000000000000000000000000F9950108C9
:1000A000494101083545010879400108B946010870
:1000B00075440108B5430108E94201080524010817
:1000C0000B240108F9230108FF2301086DF7040838
:1000D0006DF70408F95A01085D5A01080000000094
:1000E000799501086DF704088924040800000000D0
:1000F0000000000000000000000000002D080108C2
:10010000000000006DF70408194201086DF70408AB
:1001100000000000000000000000000000000000DF
:100120001908010805080108F1070108DD070108A1
:10013000C9070108000000000000000000000000E6
:10014000000000000000000000000000E9F00308CB
:10015000B5070108A10701088D0701086DF704081C
:10016000ED230108F3230108000000000000000057
:10017000000000000000000000000000000000007F
:10018000000000006DF704080000000000000000FF
:080190006DF704086DF7040887
:080198008CF2040001000000DC
:1001A00002020300981600209416002000000000B0
:1001B0000000000010020100A01600209C16002084
:1001C000000000002C0700081F021000B4160020D9
:1001D000A416002000000000D78700081A023C0087
:1001E00050180020101B002000000000B7930008EA
:1001F000270004004C1800204C1B002000000000C9
:100200002E07000838100100E0160020501B0020C7
:10021000000000003207000807020200182F00202B
:100220009C2F0020000000003407000803123D004E
:100230003C2F0020A02F00200000000036070008FF
:1002400002000C00F02E0020E02F00200000000033
:100250000000000006020C00E42E0020EC2F00201D
:10026000000000009793000808120F00682E00207D
:10027000F82F002000000000B5870008F7010600F5
:100280005C2E0020083000200000000074070008E9
:100290001D0202003C2E0020103000200000000053
:1002A0007A0700080A020A00A02400201430002067
:1002B00000000000C51202080300010070270020A2
:1002C00020300020000000000000000025102C015C
:1002D000B4240020243000200000000000000000B2
:1002E0002C001000A84800209848002000000000C2
:1002F0005FC502082B002400DC480020B84800201D
:100300000000000031C50208292078009C47002029
:10031000004900200000000000000000281010002C
:1003200088490020784900200000000069AA0208DE
:10033000F6210C00D846002098490020000000005B
:100340007C0700081C02100008430020E849002038
:1003500000000000698600081010020048440020D8
:10036000F849002000000000880700081900050077
:1003700040440020FC490020000000008A070008DB
:10038000F821060038440020044A00200000000044
:100390009007000801200C004C500020A4590020B8
:1003A00000000000980700080A702800C04E0020D6
:1003B000B0590020000000000DAA02080EB086010E
:1003C000384D0020D8590020000000000D760408A8
:1003D00001010400FC4C0020605B002000000000D4
:1003E0000000000000010400F44C0020645B0020C9
:1003F00000000000A407000802010300F04C0020E8
:10040000685B002000000000650C02082202140155
:10041000FC5600206C5B002000000000C194000826
:100420000C20CC00084F0020805C00200000000061
:10043000ED12020800020500E05400204C5D00208F
:1004400000000000000000001B021000B454002057
:10045000545D002000000000938600081E00060086
:1004600038520020645D002000000000A80700084A
:1004700023121000645600206C5D00200000000074
:10048000B007000837102800FC4F00207C5D0020DA
:1004900000000000C00700080E02020060560020A5
:1004A000A45D002000000000E80700081610060008
:1004B000DC4A0020A85D002000000000EA070008D8
:1004C0002F10220068590020B05D002000000000BD
:1004D000F00700080510060068500020D45D0020D9
:1004E000000000001208000812201000184D002023
:1004F000DC5D0020000000001808000823100E003A
:100500001C510020EC5D00200000000081AA0208C0
:10051000F55190000C4A0020FC5D00200000000016
:1005200015A6030826100C00985E00208C5E0020A3
:1005300000000000C14B030814000300306F0020CE
:100540002070002000000000280800080B301A006E
:100550006060002024700020000000002C080008CB
:100560001F3024007C60002040700020000000004C
:100570004808000805020400C46A002064700020D6
:10058000000000006C08000803010A00BC6800209D
:1005900068700020000000007008000813020400CA
:1005A000CC5E002074700020000000007A08000873
:1005B0000D002C007C9B002080A600200000000085
:1005C000C5A6010809020100E89A0020ACA6002097
:1005D000000000008008000804008000689A0020E5
:1005E000B0A600200000000000000000F901040097
:1005F000DC99002030A7002000000000A52601089B
:1006000013000400D899002034A700200000000047
:1006100084080008FD012400B499002038A70020B8
:10062000000000002D2601081820300080990020CD
:100630005CA70020000000005194000806101A007A
:10064000488700208CA700200000000005750408E2
:10065000FB01010084860020A8A700200000000004
:1006600071950008FC01090050850020ACA700200E
:10067000000000008195000816023F001085002050
:10068000B8A7002000000000D38600083400100046
:1006900040840020F8A7002000000000D97404085E
:1006A000110208001884002008A8002000000000A3
:1006B00088080008121204001084002010A80020EE
:1006C0000000000090080008FE011400887A002055
:1006D00014A8002000000000A58600081A000E00E3
:1006E00048B0002090B100200000000094080008ED
:1006F00020320A0010AF0020A0B10020000000004E
:10070000B9740408150070005CA90020ACB1002089
:1007100000000000000000002A00600030B100204E
:0C0720001CB2002000000000E575040879
:10072C000000200300000000013C0000000000005D
:10073C0000000000000000000000000000000000AD
:10074C00000000000000000000000000000000009D
:10075C00000000000000000000000000000000008D
:10076C0000000000000001003D000100000000003E
:10077C000000000001000000020200000005000063
:10078C00280100000401F40114000000E8036400D7
:10079C00040A000114001E0090010000000001007A
:1007AC00000000000000000000000000000000003D
:1007BC000000000020003200C800D0079600140092
:1007CC0032002800B00440060005500014000F0051
:1007DC00080064000100000005000A000000C409C4
:1007EC0000001900000000000000000000000000E4
:1007FC0000000000000000000000000000000000ED
:10080C0000000000000020000301000000000001B7
:10081C000000055245564E00000800000300000081
:10082C00AE014A015E012C016400020000000100CF
:10083C000A019A01001E0A000000000000000000DE
:10084C000001000000050000010203000000000090
:10085C000000000000000000000000000080070005
:10086C0000000000040101006C16000000000000F4
:10087C00010000002A000000002040302A00000087
:10088C0001010101FFFFFFFF7E05EA05B4053200FF
:06089C00E803D007000094
:1008A200FFFFFFFF7CB605080000080205030300F6
:1008B20084B6050801000802050403009CCC050863
:1008C2000200FE01011003008CB6050803001402A9
:1008D2000003000094B6050804001F02010008008E
:1008E2009CB6050805001F02010108000000000077
:1008F200000000000102030406070809685E0C00FC
:10090200FFFFFF0001000000A00F0000B80B000075
:100912000102FFFF01000000DDC503080FC4030848
:1009220035E603080000000039C1030815E3030897
:100932004DC5030899E20308000000000000000012
:10094200F9C003084FC50308D1C303087DE50308B6
:100952000000000011C103089BE2030821C503083F
:1009620007E20308000000000000000005C10308C0
:100972000000803F000000000000000000000000B6
:10098200FFFFFFFF000000008C2F00200800000086
:10099200000000007C2F0020080000002000000062
:1009A2000000803FFFFFFFFF20CB05082CCB05088E
:1009B20038CB050844CB050850CB05085CCB0508AD
:1009C20070E50508E88F0508EC8E0508B0CA050831
:1009D200ECBE05080CC8050814CB050818CB0508A1
:1009E2001CCB050868CB05086CCB050870CB050845
:1009F200308D050874CB05081900C800F4012003E6
:100A0200FFFFFFFFD6010000B80B0000010000004D
:100A120000010101000000000000000000000000D1
:100A2200A854050800000000000000003455050825
:100A320001000000FA0000000100000001000000B7
:100A420001010100485000200000F40101000000F3
:100A5200465000200000F401010000004450002034
:100A62000000F40101000000425000200000F401E7
:100A720001000000405000200000F40101000000CD
:100A82003E5000200000F401010000003C50002014
:100A92000000F4010100000039570308F55603086D
:100AA2007843050832500020053201003050002002
:100AB200E803D007010000002E500020E803D00711
:100AC200010000002C500020E803D00701000000C4
:100AD2002A5000201E00B80B0100000038500020F0
:100AE20005000F00010000003A50002003000A0038
:100AF20001000000285000201E00F4010100000047
:100B02002650002014006400010000003450002030
:100B12003200E80301000000245000200000C80059
:100B220001000000064F002000C80100054F002010
:100B320000500100044F0020005A0100024F002023
:100B4200020000000444050894D005089CD0050862
:100B52002A9D00200100C40900000000289D0020F9
:100B62000100C40900000000269D00200100C40904
:100B720000000000249D00200100C40900000000C4
:100B8200209D00200100C40900000000229D0020D9
:100B92000100C409000000001E9D00200100C409DC
:100BA200000000001C9D00200100C409000000009C
:100BB200114D002000C80100104D002000C80100A6
:100BC2000E4D00200100C800010000000C4D002065
:100BD20032003075320000000B4D0020055A05002E
:100BE200084D002000FF01000A4D00200100000016
:100BF20040040020064D002003000000BC5C0508F4
:100C0200074D002000FF0100094D002001000000F7
:100C120040040020054D002003000000BC5C0508D4
:100C2200895603081D560308104405085C5000202D
:100C3200EE02CA08010000005A50002000C801005C
:100C4200640000005950002000C801006400000048
:100C52005850002002000000F0440508024D002018
:100C620080C1803E05000000004D002080C1803E12
:100C720005000000FA4C002080C1803E0500000003
:100C8200F84C002080C1803E05000000F34C00209B
:100C920000FF0100EC4C00206400F40101000000A0
:100CA200EB4C002004000000FC440508EA4C002044
:100CB20002000000104505080000000000000000CE
:100CC2001C4505087C6A00209CFF2C0100000000E6
:100CD20020590020E0150C170000000015550020D7
:100CE20002000000544505086E5000200100FF7FFD
:100CF2000100000067500020020000006045050866
:100D02002A4D00200300000070450508294D0020EF
:100D12000300000070450508F44E00200000E803BF
:100D220001000000F24E00200000E8030100000074
:100D3200F04E00200000E80301000000EE4E00200B
:100D42000000E80301000000EC4E00200000E80370
:100D520001000000EA4E00200000E803010000004C
:100D6200E94E002000140100E84E002003000000BC
:100D720080450508004F00200000F401010000003A
:100D8200FE4E00200000F40101000000FC4E002095
:100D92000000F40101000000FA4E00200000F401FE
:100DA20001000000F84E00200000803E010000001B
:100DB200F64E00200000803E01000000E74F0020B8
:100DC20019640100E64F002002000000904505086A
:100DD200E44F0020E803D0070A000000E24F0020A1
:100DE200006401000A000000D74F002000640100E7
:100DF200D64F002000640100DE4F00200064010095
:100E02000A000000DD4F0020006401000A0000001B
:100E1200DC4F0020006401000A000000E14F0020C6
:100E2200006401000A000000E04F0020006401009D
:100E32000A000000DF4F0020006401000A000000E9
:100E4200DB4F002001FF01000A000000DA4F002002
:100E520001FF01000A000000D94F002001FF01003C
:100E62000A000000344D00200000F40101000000DF
:100E7200324D00200000F40101000000304D00203E
:100E82000000F401010000002E4D00200000F401DA
:100E9200010000002C4D00200000F40101000000C0
:100EA2002755002000C801002655002000640100DB
:100EB2002555002000640100245500200064010033
:100EC200235500200064010022550020FF08010084
:100ED2002155002001640100895503084D5503087E
:100EE2009C45050820550020006401001E55002085
:100EF2001400E803010000001C550020E8033075CF
:100F02000A0000001A55002000C8010019550020EF
:100F120000C801001855002000C801001755002024
:100F2200006401000A000000365500200000D007CE
:100F3200010000003055002000C801002F5500209C
:100F420000C801002E55002000C8010034550020C1
:100F52000000D007010000002D55002000C801004C
:100F62002C55002000C801002B55002000C80100AC
:100F7200325500200000D007010000002A55002051
:100F820000C801002955002000C801002855002092
:100F920000C8010000000000955303080C46050834
:100FA200284D002039000000A8460508144D0020F5
:100FB20000C80100124D0020E803D0070100000024
:100FC2005245564F4E414E4F000000000953030850
:100FD200D552030890470508955203084D5203085D
:100FE20000480508ED6A030885990308804805084A
:100FF200044D002001030100A95703087D5703088F
:10100200904B0508ED510308A1510308004C050857
:1010120029B40308000000009C4C05080560030881
:1010220009580308384D0508AB53030800000000B7
:10103200A84D0508815403082D5403080C4E0508D9
:1010420011550308D5540308A84E0508CDBE030860
:10105200C5550308284F0508F94F00200106010075
:10106200F1530308BD5303082450050833BE030897
:10107200D59003089450050811BF03086D91030829
:1010820090510508F84F002001030100695303083D
:101092003D53030864520508D557030800000000B9
:1010A200C852050839520308E5A503082C53050860
:1010B200000000000000000090530508F5550308E9
:1010C200E591030800540508010100007950030866
:1010D200000000008C5605080000803F0000803FA1
:1010E200FFFFFFFF0101012D202D2D202D2D2D2D84
:1010F200202D2D2D00000000000000000000000047
:101102000000000000000000E64C002088136F176A
:1011120001000000E84C002088136F170000000057
:101122006E9D002000000000000000006C9D002069
:1011320000000000000000006A9D00200000000086
:1011420000000000689D0020000000000000000078
:10115200669D00200000000000000000649D002049
:101162000000000000000000FC0C00200000000055
:1011720000000000BC4C002002000000685E050870
:10118200E44C002088136F1701000000BC6A0020A5
:1011920088136F170000000031510308000000009F
:1011A200745E05081655002001000000C85E05089F
:1011B200BE6A002001000000D45E0508B46A002067
:1011C20002000000DC5E05080000000000000000D4
:1011D200E85E05081951030800000000845F050855
:1011E2000000000000000000D85F050800000000B9
:1011F2000000000048600508B86A0020E0150C17DE
:10120200000000000403090412010002EF02014081
:10121200830456320002010203010000120100029F
:101222000202004083044057000201020301000051
:1012320009026400030100C0320904000001030036
:10124200000009211101000122260007058303087D
:10125200000A080B01020202010009040100010256
:1012620002010005240010010524010002042402E9
:10127200020524060102070582030800FF09040291
:1012820000020A0000000705010240000007058174
:101292000240000009024300020100C032090400BA
:1012A20000010202010005240010010524010001D1
:1012B200042402020524060001070582030800FF38
:1012C20009040100020A00000007050102400000B3
:1012D2000705810240000000FF0000001C610508B4
:1012E20000000000000000000000000000000000FC
:1012F20000000000000000000000000000000000EC
:101302000000000000FFFF0000000000AA550501D8
:1013120000000100F060050800000000000000006D
:1013220000000000000000000000000000000000BB
:10133200000000000000000000000000FF1FFF1F6F
:1013420005010905A101A100050109300931093290
:10135200093309350934094009381581257F750893
:1013620095088102C0C0000009022200010100E0CC
:1013720032090400000103010200092111010001E8
:101382002226000705830308000A0000000000006F
:1013920001020304010203040607080923E4030807
:1013A20027E3030857E603086FC1030887C403084D
:1013B2007FC103089BC1030849C103083BC103085D
:1013C20000000000000000002D202D2D202D2D2DCD
:1013D2002D202D2D2D2D000000000000000000000A
:1013E20000000000000000AA550B010000AA5507EA
:1013F200010000AA550902000000AA5503009F003F
:1014020001000000C0120000F46F00200000000084
:10141200187000200000000000000401000000001D
:10142200000000021000000007000000C1C0030815
:10143200BFC00308BDC00308B7C00308B5C0030896
:10144200BBC00308B9C00308D1C00308C3C0030866
:1014520065CD030879CD030851CD03083DCD0308BE
:1014620027CD030801000000006002401060024026
:101472000000000000000000000B0000000000005F
:1014820000000000000000000060024028600240EE
:101492000100000000000000060C00000000000037
:1014A20000000000000000000060024040600240B6
:1014B2000200000000000000100D0000000000000B
:1014C200000000000000000000600240586002407E
:1014D2000300000000000000160E000000000000E3
:1014E2000000000000000000006002407060024046
:1014F2000400000000000000200F000000000000B7
:10150200000000000000000000600240886002400D
:10151200050000000000000026100000000000008E
:10152200000000000000000000600240A0600240D5
:101532000600000000000000301100000000000062
:10154200000000000000000000600240B86002409D
:101552000700000000000000362F0000000000001D
:10156200000000000000000000640240106402401D
:101572000000000000000000003800000000000031
:1015820000000000000000000064024028640240E5
:101592000100000000000000063900000000000009
:1015A20000000000000000000064024040640240AD
:1015B2000200000000000000103A000000000000DD
:1015C2000000000000000000006402405864024075
:1015D2000300000000000000163B000000000000B5
:1015E200000000000000000000640240706402403D
:1015F2000400000000000000203C00000000000089
:101602000000000000000000006402408864024004
:101612000500000000000000264400000000000059
:10162200000000000000000000640240A0640240CC
:10163200060000000000000030450000000000002D
:10164200000000000000000000640240B864024094
:101652000700000000000000364600000000000005
:10166200000000000000000028B70508A4E80508F3
:1016720000000000750C0208A086010004000000B2
:101682000000000000000000000000000000000058
:101692000000000000000000000000000000000048
:1016A200000000000000000028B7050838E905081E
:1016B20000000000C9240108E80300000400000043
:1016C2000000000000000000000000000000000018
:1016D2000000000000000000000000000000000008
:1016E200000000000000000028D70508B48D05089E
:1016F20000000000AD5202087D000000060000005C
:1017020000000000000000000000000000000000D7
:1017120000000000000000000000000000000000C7
:10172200000000000000000058B60508000000009C
:1017320000000000E1510108E8030000030000007E
:101742000000000000000000000000000000000097
:101752000000000000000000000000000000000087
:10176200000000000000000040E905080000000041
:10177200000000007DC704081027000003000000DD
:101782000000000000000000000000000000000057
:101792000000000000000000000000000000000047
:1017A200000000000000000088B6050800000000EC
:1017B200D5C10208856101085F76000005000000BE
:1017C2000000000000000000000000000000000017
:1017D2000000000000000000000000000000000007
:1017E200000000000000000064BD050800000000C9
:1017F20000000000859C0108102700000100000085
:1018020000000000000000000000000000000000D6
:1018120000000000000000000000000000000000C6
:1018220000000000000000004CE905080000000074
:1018320000000000CD240108E803000005000000BC
:101842000000000000000000000000000000000096
:101852000000000000000000000000000000000086
:10186200000000000000000058E905080000000028
:1018720000000000FD4A0208204E000003000000A4
:101882000000000000000000000000000000000056
:101892000000000000000000000000000000000046
:1018A200000000000000000068E9050800000000D8
:1018B20000000000E9480208204E0000030000007A
:1018C2000000000000000000000000000000000016
:1018D2000000000000000000000000000000000006
:1018E200000000000000000078E905080000000088
:1018F2000000000069360108400D030003000000EB
:1019020000000000000000000000000000000000D5
:1019120000000000000000000000000000000000C5
:101922000000000000000000ECB705080000000005
:1019320000000000B1DC01081027000001000000D7
:101942000000000000000000000000000000000095
:101952000000000000000000000000000000000085
:10196200000000000000000070B605080000000042
:1019720000000000017703081027000003000000A8
:101982000000000000000000000000000000000055
:101992000000000000000000000000000000000045
:1019A20000000000000000005CB605080000000016
:1019B200000000009D29010850C300000100000042
:1019C2000000000000000000000000000000000015
:1019D2000000000000000000000000000000000005
:1019E2000000000000000000D8D20508000000003E
:1019F20000000000B5260108A861000001000000F7
:101A020000000000000000000000000000000000D4
:101A120000000000000000000000000000000000C4
:101A2200000000000000000088E905080000000036
:101A320000000000FDB80308A086010001000000BC
:101A42000000000000000000000000000000000094
:101A52000000000000000000000000000000000084
:101A620000000000000000006CBD0508000000003E
:101A72000000000031BA0108A00F000001000000C0
:101A82000000000000000000000000000000000054
:101A92000000000000000000000000000000000044
:101AA2000000000000000000F4B70508000000007C
:101AB20000000000919F03081A410000010000008D
:101AC2000000000000000000000000000000000014
:101AD2000000000000000000000000000000000004
:101AE2000000000000000000CCBD0508000000005E
:101AF2000000000089C80308102700000100000050
:101B020000000000000000000000000000000000D3
:101B120000000000000000000000000000000000C3
:101B22000000000000000000B0E80508000000000E
:101B32000000000081D602081A41000001000000E6
:101B42000000000000000000000000000000000093
:101B52000000000000000000000000000000000083
:101B6200000000000000000094E9050800000000E9
:101B720000000000ADCE0308400D0300000000008D
:101B82000000000000000000000000000000000053
:101B92000000000000000000000000000000000043
:101BA20000000000000000009CE9050800000000A1
:101BB2000000000083A60108400D030000000000A1
:101BC2000000000000000000000000000000000013
:101BD2000000000000000000000000000000000003
:101BE2000000000000000000A4E905080000000059
:101BF2000000000011A8030850C300000300000009
:101C020000000000000000000000000000000000D2
:101C120000000000000000000000000000000000C2
:101C22000000000000000000B0E90508000000000C
:101C3200000000005D48020840420F000000000062
:101C42000000000000000000000000000000000092
:101C52000000000000000000000000000000000082
:101C62000000000000000000BCE9050800000000C0
:101C72000000000009BA010850C300000000000083
:101C82000000000000000000000000000000000052
:101C92000000000000000000000000000000000042
:101CA20000000000000000000000803F7CB2002025
:101CB2007D0000000000803F0000000000000000E6
:101CC200000000000000803F000000000000000053
:101CD2000000000000000000000000000000000002
:101CE2000000000000000000000000000000803F33
:101CF20000000000000000000000000001000000E1
:1080000020B10078B0FA80F0400970470120704735
:10801000037903F01803082B0AD002D82BB10020F3
:108020007047102B14D0182BF9D1B0F80B00704703
:108030000F4BB0F80B0093F90030591C06BF0D4BE5
:108040001B78DBB203EB831300EB430080B2704775
:10805000094BB0F80B0093F900305A1C06BF054BD2
:108060005B78DBB203EB031300EB430080B2704795
:10807000F8010020184D0020F9010020F0B5067924
:1080800006F0E003402B09D144794FF0FF3500237F
:10809000012006F00706A3420BD1F0BD602B08BFFC
:1080A00045794FF001040CBF04FA05F54FF0FF3598
:1080B000EDE7042E0CD8DFE806F0030D18242E009F
:1080C00030B1C85CD75C784028420CBF012000204A
:1080D0000133E0E70028FBD0C856D756A0EB070CC9
:1080E000DCF1000040EB0C00F2E70028F0D031F8A2
:1080F000130032F81370784028420CBF0120002092
:10810000E6E70028E4D031F9130032F91370C71BF9
:1081100078427841DCE70028DAD051F8230052F8A1
:108120002370784028420CBF01200020D0E703686C
:108130005A1C0260197070472DE9F047089C257899
:10814000002B804689460CBF4FF0200A4FF0300AC2
:10815000661C25B3002A26DD334601E0024698B1AD
:1081600013F8011B501E0029F8D1971E60B13D463F
:10817000013D51464046C8476B1C002BF8DC257872
:1081800027EAE770013045B1041B29464046C8473D
:10819000301916F8015B002DF7D1BDE8F087002AF1
:1081A00003DC2846F9E70020EEE7571EDFE72DE95C
:1081B000F04714461D4606464FF47A7200232046C7
:1081C000294647F0CBF84E4BDFF848814D4A4E4FD9
:1081D000034488FB03101844D91782FB032CC1EB1E
:1081E000601088FB002887FB03279C44474AC1EBAB
:1081F000EC2CC0EB001E82FB0C29A3EB8E0E1F445F
:10820000434A86F806E0C1EB27474FEAEC7E08EBCD
:10821000000ACEEBA90E82FB07824FEAE0780EEB54
:108220004E0EC8EB6A18ACEBCE0CC8EB0818DFF8A2
:10823000E8E086F804C0A0EB880070718EFB0303B1
:10824000F817C0EBE21240F2B55000FB1272C1EB1E
:10825000E353B2F5896F4FEA83073CDA40F2DA2341
:108260009A4242DCB2F5B77FB4BF4FF0000E4FF038
:10827000010E4FEA4E09DFF8A48009EB0E0308EB6C
:10828000C3031FFA8EFCD88A09EB0E0108EBC1016B
:1082900016310B2301E031F8020D904218DD013B4D
:1082A000F9D1CE44012338F83E00B37007F5FA67E0
:1082B0000132121ABC44F270A6F800C020462946CA
:1082C0004FF47A72002347F049F83281BDE8F08715
:1082D0000133DBB2E9E74FF0030CE64640F296507B
:1082E000DFF838804FF00609CEE74FF0020CDFF8D8
:1082F0002C80E64640F229404FF00409C4E700BF55
:1083000080BC92C7C5B3A29107452EC2ABAAAA2AC8
:1083100073B06D1689888888792D03115C0F050864
:108320000378202B024600F10100F9D0092BF7D089
:108330002D2B00F0A4802B2B03BF5378B7EE000A3F
:108340000246B7EE000AA3F13001C8B209289FED3A
:10835000577A10D8F2EE046A07EE901AF8EEE77A30
:1083600012F8013FE7EE267AA3F13001C8B20928DE
:10837000B0EE677AF0D92E2B63D003F0DF03452BE4
:1083800002D020EE070A704710B451782D294FD043
:108390002B2979D0A1F13003092B02F101027AD8FF
:1083A0000024002303EB830301EB430312F8011FB6
:1083B000A1F130000928A3F13003F3D9B3F59A7F76
:1083C0001A4628BF4FF49A72072B6CD9DFED386A32
:1083D0001346F7EE007A083B072B67EEA67AFAD829
:1083E00002F00702DAB1F2EE046A012A67EEA67A19
:1083F00015D0022A67EEA67A11D0032A67EEA67A74
:108400000DD0042A67EEA67A09D0052A67EEA67A6F
:1084100005D067EEA67A062A18BF67EEA67A002C6A
:108420003BD087EE277A5DF8044B20EE070A7047B1
:108430009178A1F13003092B02F1020230D8012416
:10844000AFE75378A3F13001C8B2092802F1010265
:1084500093D8F2EE046AF0EE665A07EE901AF8EE40
:10846000E77A12F8013F87EEA66AA3F13001C8B29D
:10847000092866EEA56A37EE067AEED97DE75378CD
:10848000BFEE000A02465EE79178A1F13003092BA6
:1084900002F1020284D9F7EE007A27EE277AC2E7CA
:1084A000F7EE007ABDE7F7EE007A9BE700000000E8
:1084B00020BCBE4C0028F0B403DA2D230B704042E0
:1084C0000131092804464FF0010307DD03EB830364
:1084D0005B00B0FBF3F2092AF8D883B10F48A0FB88
:1084E0000326B4FBF3F2092A02F1570C02F130071C
:1084F00009DD03FB1244F30801F801CBEFD100239F
:108500000B70F0BC704703FB1244F30801F8017BC9
:10851000E5D100230B70F0BC704700BFCDCCCCCCB4
:10852000884270B44FF0010442D301FB04F4B0FB65
:10853000F4F58D42F9D2ECB142BB092D04FB1500D4
:1085400005F1570605F130020EDDB4FBF1F403F836
:10855000016B7CB1B0FBF4F5092D04FB150005F1AE
:10856000570605F13002F0DCB4FBF1F403F8012BFF
:10857000002CEFD100221A7070BC704703F8016B19
:10858000B4FBF1F4002CF5D0B0FBF4F5092D04FB9D
:10859000150005F1370605F13002EFDCB4FBF1F40C
:1085A00003F8012B002CEFD100221A7070BC704729
:1085B0000546002AEAD1C0E790ED057A90ED004A21
:1085C000D0ED066AD0ED014AD0ED047A90ED035A61
:1085D000D0ED025AA4EE007AB0EE406AB0EE470A3F
:1085E000B0EE667AA4EE867A67EEC07AA5EE407A9F
:1085F000E5EE867A80ED057AC0ED067A7047D0ED1B
:10860000057A90ED013AD0ED003AD0ED064A90EDB2
:10861000024A90ED077A90ED035A90ED086AD0ED8A
:10862000045AC0ED067AF0EE406A27EE830AC0EDE8
:10863000056AA3EEA60A80ED087AA4EE240AA5EE48
:10864000470AA5EEC60A80ED070A7047D0ED007A0A
:1086500090ED017A30EE670AE7EE007AB0EE670A35
:10866000C0ED007A7047704730B42C2300221F25DC
:1086700004240121C37002238571C4710172027048
:10868000C2728273C273437083704372837230BC50
:108690007047002306214FF47A720170C0E901236C
:1086A0000373704730B41623172215254FF6017453
:1086B000FF214370427101230022C570048281743E
:1086C000037203700371837042818281C28130BC66
:1086D00070472DE9F04F3249324B83B001F5C07B32
:1086E00001902A274FF000092F481022012603E0AD
:1086F000203098420BD002799742F9D102680C6879
:10870000A24209D02030984206F10106F3D120316F
:1087100059453AD00F79E7E744794D79A542F1D12F
:108720009446019A214809EB490502EB050A575581
:108730008AF8016000F572751D4E624603E0A8429A
:108740001AD050F82C6FB242F9D10679A642F6D170
:10875000CF6806464FF0000C96468046F268BA4253
:1087600016D00CF1010CBCF1030F06F10C06F5D18B
:108770004046A8427246E4D14FF0FF3C20315945B3
:108780008AF802C009F10109C4D103B0BDE8F08F35
:10879000086932698242E4D14FFA8CFCEEE700BFEF
:1087A0009C780508246B050864610508246B05089E
:1087B00000000140FF2310B42E212D242F224471EC
:1087C0008171C271C3700371037243724373837307
:1087D0005DF8044B7047034600F11001FF221A7048
:1087E0005A7002339942FAD1027042708270C2709C
:1087F00070476D4B2DE9F04F1C686C4BB3F80AE0E5
:10880000B3F804809A894FEA0E2AB4EB0A044FEABF
:108810001E6B4FF0000587B065EB0B05CDE90045F9
:108820000746009C1889019EA0FB044500FB0655E5
:10883000E00940EA45604FEA08448C46E9114FEAF6
:10884000184510EB0408D888009C41EB0509CDE9D8
:108850000489A0FB0445B3F8028000FB0655200AFA
:1088600040EA05604FEAC83429124FEA584510EB38
:10887000040841EB05090099A2FB010102FB061166
:108880004FEAD05A4AEA412A1AF5FA634FEAE15B05
:108890004BF10004B3F5FA6FCDE9023474F1000333
:1088A000414E64DA0524AAFB040104FB0B1100FB12
:1088B0000BF40AFB0144DDE90423A0FB0A01214477
:1088C0004D104FEA3004121B4FEA900463EB05038E
:1088D00044EA8174B8EB0408CDE90423DDE90234ED
:1088E00033484FEAA10569EB05094FF0FF31834298
:1088F00074EB010326DA40F6AC501AEB00024FF09D
:1089000000014BEB010302FB03F1A2FB022303EB8B
:108910004103D400DD00101B45EA527563EB0501ED
:10892000DDE9044524184D41CDE904450B24A2FBA3
:10893000040104FB031149104FEA3000B8EB0008B2
:1089400069EB0109DDE900325343009ADDE90201D8
:10895000A2FB02AB0BEB430B4FEADA7242EA4B028B
:10896000801A4FEAEB7361EB0301CDE9020197B185
:108970007168A1FB082301FB0933540D5D1544EA1E
:10898000C324DDE90423A21A65EB03031D46D30BC0
:1089900043EA45433B60BCF1000F02D0029BCCF898
:1089A000003007B0BDE8F08FF8150020A046002089
:1089B00024FAFFFF4FF40063038370474FF4006312
:1089C000038370470122482111F0D0B801225821B9
:1089D00011F0CCB8012380F850307047F0B4037C1C
:1089E000456902681F2B37D9203B202154689940E4
:1089F0000C4223D010249C40D160D4605168D940EF
:108A0000CE074ED4EFF31183502282F312882A6CE2
:108A10001168C90709D45468002C52D1D5E90961FD
:108A20008E4243D1012285F86420DBB283F31188A2
:108A3000037C02681F2B194614D9203B082150687B
:108A40009940084200D0D1600421506801FA03F334
:108A5000184223D1F0BC7047202416689C4026425F
:108A60000FD11946082310688B40184200D093603C
:108A70000423106803FA01F10842EBD09160F0BCC6
:108A8000704710219940946091601168D940CC07DB
:108A9000B8D5012101FA03F39360B3E7D360F0BCCA
:108AA0007047012101FA03F3D360ABE7AF690F44CC
:108AB000D7600ED82E69711A5160AC62002185F81A
:108AC0006410116841F00101DBB2116083F3118879
:108AD000AEE7711A5160AE62F0E7F0B4704B7149C5
:108AE0001A780B789A4240F07D816F4B1A78002AF1
:108AF00000F0D4806D4B19786D4B002940F0DA807E
:108B00001868B3F83261048824F080042404240C2B
:108B1000048093F83041C462058845F080050580E3
:108B200041628489012A44EA06048481A3F832114F
:108B300000F0B480D3F83401B3F86662048824F0FE
:108B400080042404240C048093F86442C4620588E1
:108B500045F08005058041628489022A44EA0604C2
:108B60008481A3F8661200F09980D3F86802B3F804
:108B70009A63048824F080042404240C048093F86D
:108B80009843C462058845F0800505804162848968
:108B9000032A44EA06048481A3F89A137ED0D3F80A
:108BA0009C03B3F8CE64048824F080042404240CCD
:108BB000048093F8CC44C462058845F080050580A4
:108BC00041628489042A44EA06048481A3F8CE140D
:108BD00064D0D3F8D004B3F80266048824F080048B
:108BE0002404240C048093F80046C462058845F0F0
:108BF0008005058041628489052A44EA060484814F
:108C0000A3F802164AD0D3F80406B3F836670488EE
:108C100024F080042404240C048093F83447C462B4
:108C2000058845F08005058041628489062A44EA6A
:108C300006048481A3F8361730D0D3F83807B3F888
:108C40006A68048824F080042404240C048093F8C7
:108C50006848C462058845F08005058041628489C2
:108C6000072A44EA06048481A3F86A1816D0D3F8C8
:108C70006C28B3F89E59108820F080000004000C86
:108C8000108093F89C09D062148844F0800414800A
:108C90005162908928439081A3F89E19F0BC7047D7
:108CA000F81E0020F91E0020D88F002075870020B4
:108CB000DC8F00205C68198961602568186845F0C0
:108CC000010540F20D312560A0F848108489012A81
:108CD00044F480748481E1D0D3F83841B3F83C5136
:108CE000D3F834016560256845F001052560A0F8DA
:108CF00048108489022A44F480748481CED0D3F849
:108D00006C42B3F87052D3F868026560256845F08C
:108D100001052560A0F848108489032A44F4807472
:108D20008481BBD0D3F8A043B3F8A453D3F89C03F9
:108D30006560256845F001052560A0F84810848924
:108D4000042A44F480748481A8D0D3F8D444B3F8BE
:108D5000D854D3F8D0046560256845F00105256036
:108D6000A0F848108489052A44F48074848195D041
:108D7000D3F80846B3F80C56D3F8040665602568A6
:108D800045F001052560A0F848108489062A44F4BE
:108D90008074848182D0D3F83C47B3F84057D3F82D
:108DA00038076560256845F001052560A0F8481082
:108DB0008489072A44F4807484813FF46FAFD3F828
:108DC0007028B3F87408D3F86C385060106840F01D
:108DD00001001060A3F848109A8942F480729A81C9
:108DE000F0BC70475C00E618484D15F83660032E5D
:108DF0003FF67BAEDFE806F04D261C02E01805EBDF
:108E0000C0004468661E012C46603FF647AF013340
:108E100003F00303D8B2824208703FF466AE03EB5E
:108E20004303DB00EA1802200021E854516035E7D3
:108E3000E11805EBC1014868461E01284E603FF667
:108E40002DAF0DE0E118C90068184668771E012EA5
:108E500047603FF623AF02274FF0FF366F5446605E
:108E6000E618F600AF192A48397B00680139C9B203
:108E7000397389B34FF47A722344B2FBF0F200FBEA
:108E800002F0B0F57A7F05EBC30518BF01326A60C6
:108E90002BE670B11F49012600220F890132002FF5
:108EA00018BF0026824201F58671F6D1002E3FF4EC
:108EB0001CAE174A126842F21076E018B6FBF2F1C7
:108EC00002FB1162012605F8306002B131442344EF
:108ED00005EBC305696008E6BF68B7FBF0F100FB6E
:108EE00011700327AF5500B101311C44013305EB6C
:108EF000C40503F00303934269603FF4F6AD002913
:108F00003FF4F3AD01396960EFE500BFFC1E0020BE
:108F1000A8150020788700202DE9F041C40023180F
:108F20009B00B749CA585268958AADB2EFB2FE07A6
:108F30000B4461D4BE0737D5BFF35F8F1D7EEDB202
:108F4000012D00F0BB80AF4E138BBFF35F8F231852
:108F500001EB83031D7E022D00F0CE80231801EB70
:108F600083031D7E032D05D19B7E1BB1737A002BDD
:108F700040F01A81938896F908C043F48063938087
:108F8000231801EB83031B7E013363450AD1B37AB7
:108F900000257572002B40F08A80204401EB800090
:108FA00000234375BDE8F081964E17F0040F96F943
:108FB00008C04DD117F0400700F0B280178A1D6A33
:108FC000FFB205F80C705FFA8CF56F1C93F818E08F
:108FD0007BB2DF1CBE4533729C4600F00981271826
:108FE00001EB87073F7EBB42CAD105F1020C4FFA65
:108FF0008CFC86F808C0C3E71588824E25F400650E
:109000002D042D0C1580158845F4806515809D7EF6
:1090100000273772002D3DD0757A002D37D02318E8
:1090200001EB830301251B7E7572022B03D113888C
:1090300043F400631380231801EB83039B7D43F00B
:1090400001031382204401EB8000037EBDE8F08120
:109050009F7E757A4FF0010E86F80AE0002F5CD0F3
:10906000002D78D1231801EB83035B7E002B00F0E9
:10907000A48013880CF1010C4FFA8CFC43F40073AC
:1090800086F808C013801388DF05FCD478E7DB7D01
:10909000FF2BC4D0231801EB83039D7D05F0FE0553
:1090A0001582DB7DFF2BCDD0FF233372CAE7938877
:1090B00023F440731B041B0C93806EE79B7E514E80
:1090C000002B3FF441AF737A002B3FF43DAF138880
:1090D00023F480631B041B0C1380BFF35F8F138B7F
:1090E0001388B57243F400731380938896F908C00F
:1090F00043F48063938043E79B7E002B3FF42EAFC5
:10910000737A002B3FF42AAF138896F908C023F432
:1091100080631B041B0C138016E0002DA2D0A8E76F
:109120002D067FF52DAFBCF1FF3F6DD0DD6915F841
:109130000C5015820CF1010C1D7E4FFA8CF39D42F0
:109140009C4633727FF41CAF938823F480631B0426
:109150001B0C938014E71F7ED3F820805FFA8CF5F8
:10916000AE44022F4FFA8EFE17882DD927F4806760
:109170003F043F0C1780178AFFB208F80C7017885D
:10918000D3F820C047F400731380138ADBB20CF8C5
:109190000E30938805F1020C4FFA8CFC43F4806387
:1091A00086F808C093806EE7938896F908C023F488
:1091B00080631B041B0C9380E2E61388012543F4B3
:1091C0008073138075725EE747F400771780178A03
:1091D000FFB208F80C70178AD3F8208005F1030C51
:1091E0004FFA8CFCFBB286F808C008F80E304AE74C
:1091F000978827F480673F043F0C9780EFE600BF15
:10920000782E0020F8150020DD7D15829D7E3772B6
:109210001DB91B7E002B7FF415AF938823F4806368
:109220001B041B0C93800DE707B5032301AA002143
:1092300010F0CEFB9DF805309DF804001B0243EAB8
:1092400000439DF80600184303B05DF804FB08B521
:10925000FFF7EAFF014B586008BD00BFF81500207A
:1092600008B5FFF7E1FF014B186008BDF8150020B5
:1092700010F09EBC2DE9F04385B0B2F1FF3F894666
:1092800090461946BDF830500D9F23D0060900F0D6
:109290000F044036CDE900423346154A2846B84708
:1092A000A8B1424699F80510D9F8000010F05CFA10
:1092B00068B10388DAB20392C3F303221B0B029254
:1092C000CDE900430B4A334600212846B84705B094
:1092D000BDE8F0836B06FAD40309074A00F00F00DB
:1092E0000C9040332846BC4605B0BDE8F0436047CB
:1092F0001C7A05082E7A0508577A05082DE9FF47DC
:10930000B2F1FF3F0546894692461F46BDF8304000
:109310000D9E20D001F10108CDE900823946036895
:10932000134A2046B04752465FFA89F1287910F077
:1093300063FA00B100880F4AC3B20393C0F303235A
:10934000000B0293CDE900802B6839462046B047D8
:1093500004B0BDE8F0876306FAD44B1C0C93036895
:10936000054A39462046B44604B0BDE8F047604798
:109370006B7A0508787A05089C7A050808B52021DB
:1093800047F0B0FD0346184623B10278202A03F1C6
:109390000103F8D008BD002310B4012218242421B1
:1093A0000472417203704370C370C3728270827220
:1093B0005DF8044B704738B51C4B1B78044600F130
:1093C000250593B104221A49203047F0B2FD284602
:1093D0001422184947F0ADFD012384F83A30164BAA
:1093E0001B7873B984F83B3038BD284614221349E2
:1093F00047F09FFD012384F83A300F4B1B78002B78
:10940000F0D00F4B186859689A68DD68E5602060F5
:109410006160A260DD69186959699A69A2610123D6
:10942000E5612061616184F83B3038BD641C002037
:109430002C1C0020141C0020651C0020D88B050863
:10944000341C0020014B186831F096BCB419002080
:1094500038B53022002147F02EFD0346642440F247
:10946000DC5040F21A4140F26C7240F202251C744A
:109470005882132419209982DA8240F2753140F61D
:1094800043021D839C760E2502241877D9830A2077
:109490001E211A84012283F82D0083F82E1083F8F0
:1094A000225083F82C409A7383F8252083F82B20D0
:1094B00019460248BDE838402AF0E2B8E48B0508B6
:1094C00038B500240546048021462846013431F091
:1094D00089FD082CF8D1002185F8E210A5F8E410E8
:1094E000A5F8E610A5F8E810A5F8EA10A5F8EC1024
:1094F000A5F8EE10A5F8F010A5F8F2102846BDE882
:10950000384031F031BD2DE9F341134D134F0023A5
:1095100005F80B3F044600EB8106B44203D1104826
:1095200002B0BDE8F0813946284647F0CCFC214620
:10953000684647F0E4FC4FF000082021684647F0F9
:10954000D1FC28B96946284647F0BDFC0434E4E75D
:1095500080F80080F1E700BFF815002022BA050866
:1095600003160020014B18680CF06ABBBC1A0020DF
:1095700010B50021044601200BF038FA207010BD10
:1095800038B500240472451EE1B202200BF02EFA19
:109590000134082C05F8010FF6D138BD38B5054661
:1095A00040683B4A038823F040031B041B0C0380E4
:1095B000038823F038031B0490424FEA134305D07D
:1095C00002F58062904201D043F0080303800388D3
:1095D000AA6843F04003038012B1136892885A834B
:1095E000838940F2E93301E0002B43D00289013B3B
:1095F00012F0020F9BB2F7D0F523838140F2E933DA
:1096000001E0002B36D00289013B12F0010F9BB222
:10961000F7D08389838940F2E93300E00BB30289F4
:10962000013B12F0020F9BB2F8D0FF23838140F27E
:10963000E93300E0ABB10289013B12F0010F9BB2AC
:10964000F8D08489E4B2AB6813B11A689B8813839D
:10965000712C19D008D9AC2C14D0AF2C0ED1092004
:1096600038BD10F059F9EEE7122C0FD0702C07D14D
:10967000052038BD10F050F96868CBE7732C03D093
:10968000002038BD072038BD062038BD082038BD71
:1096900000380040F0B5876983B0064617B13B68D3
:1096A000BA885A837069DFF8A8E08389C3244FF42D
:1096B0007A734FF0060C6D464FF6FF710EF1010EF6
:1096C00003E0013B9BB28B4220D002899207F8D580
:1096D000A3B283814FF47A7302E0A3B28B4215D018
:1096E0000289D20703F1FF34F7D5828992B20DB116
:1096F0002A700135BCF1000F0BD00CF1FF3CFF24A8
:10970000BEF1000FE1D09EF80040D7E710F004F959
:10971000B76917B13B68BA881A839DF805009DF8B0
:1097200001509DF802109DF803409DF804209DF81B
:10973000063041EA052143EA002342EA04220120DF
:10974000A6F85010A6F85220A6F8543003B0F0BD89
:10975000BC0F050808B5012035F0B6FA174A936822
:1097600003F00C03042B1ED0082B18D1516853684A
:10977000490203F03F0319D452681148B0FBF3F0DB
:10978000C2F3881300FB03F00C4B0E4A5B68C3F373
:10979000014301335B00B0FBF3F0106008BD094BDF
:1097A000074A1A6008BD074B186008BDB0FBF3F00C
:1097B0005368C3F3881300FB03F0E5E70038024069
:1097C0000024F400787000202DE9F84F037C026833
:1097D0001F2B86BF203B51681168202202FA03F339
:1097E0000B4214BF012300230BB9BDE8F88F456974
:1097F000DFF8709204460BF0ADFF4FF4867303FB65
:10980000059306465A7C002A30D185495A68097862
:109810001768C1B9D3F8801058890A6822F001028C
:109820000A60BB8923EA0003BB817E4B1B78002BB7
:1098300030D1237C21681F2B11D8202202FA03F398
:109840008B60BDE8F88F5269136823F00103136041
:10985000BB8923F480731B041B0CBB81E5E7203B11
:10986000202202FA03F3CB60BDE8F88FD3F88060C2
:109870006D485F8901229A7431685A6803681568D7
:1098800021F001013160AA89013322EA0702AA818D
:109890000360CEE74FF4867303FB0593634AD3F866
:1098A0008080D8F8003023F00103C8F8003000238E
:1098B000C8F800309045C8F80430C8F80830C8F837
:1098C0000C30C8F810304FF02103C8F8143000F005
:1098D0008780574B98457ED0564B984500F0848042
:1098E000554B984500F08580544B984500F0868094
:1098F000534B984500F08680524B984500F0868087
:10990000514B984500F08680404635F0F7F84FF40B
:10991000867A0AFB05FA09EB0A0501236B74D5F870
:1099200084B00BF017FF3B88CBF82C0123F08003A9
:109930001B044FF0FF321B0C3B80FA623B880AF19C
:10994000340143F080033B804944384635F0DCF96C
:10995000D5E915702B6CD5F850C0D5E917123B43EB
:1099600003430B4313436A6E6F6FD8F80000374907
:109970001343AA6E1343AA6F3B43014013430B43A7
:109980000022EA64C8F80030D5E91B30D8F814107A
:10999000D5F880206F6C21F0070103430B43A86CBE
:1099A00095F87C10C8F81430C8F804C0C8F80870DE
:1099B000C8F80C0051606B68116818686D8941F037
:1099C0000101116083892B4383810BF0C3FE204B7F
:1099D000801B18602DE74FF4746243F8202C96E743
:1099E0001C4B3D229A6092E74FF4741243F8382CD6
:1099F0008DE74FF0746243F8502C88E7164A43F81D
:109A0000642C84E7154A43F87C2C80E7144A43F819
:109A1000942C7CE74FF03D5243F8AC2C77E700BF25
:109A20007587002074870020601F002010600240AE
:109A3000286002404060024058600240706002406E
:109A400088600240A0600240B86002403F801CF085
:109A5000B8170020006002403D000020400F0020A9
:109A600000003D207887002073B50446184623097E
:109A70001646069D403304F00F0439B10139CDE993
:109A80000041064A3146A84702B070BD044A069418
:109A90003146AC4602B0BDE870406047AB7A05087D
:109AA000BB7A0508024B0146186810F081B800BF68
:109AB000B019002038B5064D441E14F8011F28685F
:109AC00019B9BDE8384010F065B810F071F8F4E746
:109AD000B01900200048EDE7B287050808B5FFF788
:109AE000E9FFBDE80840F5E710B504460348FFF775
:109AF000E1FF2046BDE81040F0E700BFCD7A050841
:109B000008B532B1C30600D519B11046FFF7ECFF16
:109B10000022104608BD38B5074C084DAC4203D3AF
:109B2000074B00221A7038BD6288D4E9010147F062
:109B30009EF91434F2E700BFA00100082C070008CA
:109B40003C18002038B5074C074DAC4203D3074BF7
:109B500001221A7038BD6288D4E9011047F087F9F4
:109B60001434F2E7A00100082C0700083C1800207C
:109B7000024A136823EA000010607047D899002059
:109B8000DFED2B7AB4EEE70AF1EE10FA4ADDDFEDF5
:109B9000296A9FED297A01E0B0EE670AB4EEC70AA0
:109BA000F1EE10FA70EE667AF6DC9FED247AF4EEB0
:109BB000C77AF1EE10FA38D5DFED1E6A9FED207AF4
:109BC00001E0F0EE407AF4EEC77AF1EE10FA37EEEB
:109BD000A60AF6D4DFED1B7AB4EEE70AF1EE10FA2E
:109BE00014DDDFED137A37EEC00A60EE006A9FEDF8
:109BF000166A9FED167ADFED167AA6EE867A20EECB
:109C0000266AE6EE877AA6EE270A7047DFED117A1C
:109C1000B4EEE70AF1EE10FA44BFDFED087A37EE52
:109C2000C00AE2E7F0EE407ABFE7B0EE670AD1E79C
:109C3000DB0F4940DB0FC940E4CB1641DB0F49C0C5
:109C4000E4CB16C1DB0FC93F92E741B99730083C1E
:109C500015A82ABEDB0FC9BFF0EEC07AB0EEE07ADD
:109C6000B4EEE77AF1EE10FAB4BFB0EE676AB0EE88
:109C7000476AB5EE406AF1EE10FA46D0B4EEE77AE4
:109C8000F1EE10FA8CBFF0EE675AF0EE475AC5EECF
:109C9000866A9FED1F3A9FED1F6A9FED1F4A9FED59
:109CA0001F5ADFED1F3ADFED1F4ADFED1F5AA6EE08
:109CB000C36AE6EEA34AA6EE864AB7EE006AA6EEAF
:109CC000845AA6EEA46AE6EE855AC5EE866AB4EE1C
:109CD000E77AF1EE10FA48BFDFED147AF5EEC00A2C
:109CE00048BF77EEE66AF1EE10FA48BFDFED107A72
:109CF000B5EEC00A48BF77EEE66AF1EE10FA48BF4B
:109D0000F1EE666AB0EE660A7047DFED076ADEE7DD
:109D100039094E3DE3B59E3E88FA163E45FE7F3F2B
:109D200099FB243F69A2163EA7DFA834DB0FC93F89
:109D3000DB0F4940DFED317A30EE277AFDEEC76A5E
:109D400016EE903A2033402B02D99FED2D0A704732
:109D5000B4EEE70AF1EE10FA4DDD9FED2A6ADFED71
:109D60002A6A01E0B0EE677AB4EEE67AF1EE10FA14
:109D700077EE467AF6DC9FED257AF4EEC77AF1EEBF
:109D800010FA35D5DFED1F6A9FED217A01E0F0EE84
:109D9000407AF4EEC77AF1EE10FA37EEA60AF6D45E
:109DA000DFED167AB4EEE70AF1EE10FA1BDCDFED18
:109DB000197AB4EEE70AF1EE10FA44BFDFED137A38
:109DC00037EEC00A60EE006A9FED136A9FED137ACA
:109DD000DFED137AA6EE867A20EE266AE6EE877A23
:109DE000A6EE270A7047DFED0F7A37EEC00AE9E7E3
:109DF000B0EE670AD4E7F0EE477ABCE7DB0FC93F65
:109E000000000000DB0FC940E4CB1641DB0F49C066
:109E1000E4CB16C1DB0FC9BF92E741B99730083CCC
:109E200015A82ABEDB0F494010B44C09012250F896
:109E3000243001F01F0102FA01F123EA010340F886
:109E400024305DF8044B704710B44C09012250F8DF
:109E5000243001F01F0102FA01F10B4340F82430D5
:109E60005DF8044B70474B0901F01F0150F82320A7
:109E7000012303FA01F1114214BF18460020704774
:109E80002DE9F043002489B006460D461F46A04642
:109E900005E025290CD030460134A847039A531C0D
:109EA000039311780029F4D1204609B0BDE8F0836E
:109EB000931CCDE903385078302842D0A0F130030C
:109EC000DBB2092B4FF0000945D96C282AD0642851
:109ED00073D019D9732858D063D9752840F082807F
:109EE00007F1040C386805AB00220A216746FEF72B
:109EF00017FB05AB049A009329464B463046FEF704
:109F00001BF9039A0444CAE725283CD051D95828A4
:109F10006BD06328C2D139783046A8470437013462
:109F2000039ABCE7039B5A1C03921B78642B52D004
:109F300016D8252B27D064D9582B18D0632BEAD0FC
:109F4000ADE7D31C03939078A0F13003DBB2092B6B
:109F50004FF00109B9D804AA03A93AF0D1F9B4E73E
:109F6000732B12D051D9752B2DD0782B97D1A3F10B
:109F70005802B2FA82F23868520905AB1021043750
:109F8000FEF7CEFAB5E7252185E73B68049A0093F2
:109F9000294600233046FEF7CFF804370444039ADD
:109FA0007DE76E287FF47AAF039A3B6804371C6024
:109FB00075E700283FF478AF70E7386805A9FEF729
:109FC00079FA043795E7386805AB00220A21FEF7D5
:109FD000A7FA04378DE73B1D386805A91F46FEF731
:109FE00069FA86E778287FF459AFA0F15802B2FAEF
:109FF00082F23868520905AB1021FEF791FA043756
:10A0000077E7002B3FF450AF49E76E2BCDD046E702
:10A0100010B5064C0B46024605492068FFF730FF95
:10A020002068BDE810400FF0B5BD00BFB01900209A
:10A03000719200080CB4C30607B500D561B905A933
:10A0400004980191FFF7E4FFFFF744FD012003B0FE
:10A050005DF804EB02B070470020F8E770B50646E3
:10A0600044F086FC154D044698B111220021284683
:10A0700046F021FF22461249304646F048FFD0B153
:10A08000102C2246314628BF1022284646F051FFA8
:10A0900001242B78094A002B08BF0121084B1CBF63
:10A0A000002113460120074AFFF7C4FF2CB10648E0
:10A0B000BDE8704012E50124EBE770BD685900204F
:10A0C0009DE20508D27A0508DF7A05080CB407B5C9
:10A0D00010F020000BD079B92320FFF7E3FC05A98D
:10A0E00004980191FFF794FFFFF7F4FC012003B0FF
:10A0F0005DF804EB02B070470020F8E72DE9F04F5F
:10A1000087B00E4692460021119A254F9946054682
:10A11000FFF7F6FC86EA0A0A6FEA0A038046002483
:10A120000593204613F054FD109B184231D0059B37
:10A130001C4ADFF874B0034014BF4FF0010A4FF01F
:10A14000000A039310EA060304934FF00C0303FB89
:10A15000042351469B68029314BF3A465A46009323
:10A1600028464B46FFF7B2FF039BB3FA83F1424602
:10A1700049092846FFF7C4FC049A029B00938046D5
:10A180004B46002A14BF5A463A4651462846FFF726
:10A1900051FF0134182CC4D107B0BDE8F08F00BFC7
:10A1A00024820508B8410508277B05082DE9F04FF2
:10A1B00089B00C46079200211A468146FFF7A0FCA1
:10A1C0000026079D8346B2464FF019084FF4617789
:10A1D000079B43B329460622204646F039FE002855
:10A1E0005A4614BF0121002148460CBF4FF0010A16
:10A1F0004FF0000AFFF784FC6B791A4A18FB0373CF
:10A2000005932B7918FB03730493EB780393AB78D6
:10A2100002936B7801932B78009383463346514623
:10A220004846FFF753FF63790E4A18FB0373059303
:10A23000237918FB03730493E3780393A3780293C1
:10A240006378019314F8063B009351463346484621
:10A250000136FFF7EFFE0A2E05F10605B8D109B069
:10A26000BDE8F08F2E7B05082DE9F04F8A468DB0B2
:10A27000164600211A460546FFF742FC364F814636
:10A280000024C4EBC4030AEB03021068918892799E
:10A29000089040F30748ADF824108DF82620B8F157
:10A2A000000F54D0002E55D033440AA918689A885C
:10A2B0000A909B79ADF82C2008A807228DF82E3043
:10A2C00046F0C6FD00284A4614BF01210021284659
:10A2D0000CBF4FF0010B4FF0000BFFF711FC9DF886
:10A2E0002E3006939DF92D3005939DF92C30049363
:10A2F0009DF82B3003939DF92A3002939DF8293065
:10A3000001939DF828300093814623463A465946EA
:10A310002846FFF7DBFE9DF8263006939DF9253091
:10A3200005939DF9243004939DF82330CDE90283F1
:10A330009DF8213001939DF8203000933A46234642
:10A34000594628460134FFF775FE102C99D10DB0FF
:10A35000BDE8F08FB346DEE7477B05082DE9F04FF7
:10A360008946174689B01A4600210646FFF7C8FB02
:10A370004D4683463C464FF00008002F7ED02146D4
:10A380000C22284646F064FD00285A4614BF0121DD
:10A39000002130460CBF4FF0010A4FF0000AFFF7D2
:10A3A000AFFB94F90B30049394F90A300393B4F99A
:10A3B00008300293B4F906300193B4F904300093E5
:10A3C00083464346394A51463046FFF77FFE95F9AA
:10A3D0000B30049395F90A300393B5F908300293D2
:10A3E000B5F906300193B5F9043000932F4A43467E
:10A3F0005146304608F10108FFF71CFEB8F1080F7E
:10A4000005F10C0504F10C04B7D10024DFF8A0A07D
:10A410002546AFB34FF00008012303FA08FB3A5971
:10A4200059F8043053403BEA030314BF01230023CF
:10A4300012EA0B0F079307D0CDF800802B46524647
:10A4400007993046FFF742FE59F804301BEA030F24
:10A4500007D0CDF800802B46524607993046FFF7CB
:10A46000E9FD08F10108B8F10E0FD5D10135082D2D
:10A4700004F10C04CDD109B0BDE8F08FBA46A6E7CF
:10A48000B846012359F8042003FA08F3134207D011
:10A49000CDF800802B46524601213046FFF7CAFD19
:10A4A00008F10108B8F10E0FEBD1DFE7647B050876
:10A4B0007C7B05082DE9F04F8A4685B016460021C1
:10A4C0001A460746FFF71CFBDFF87890834655468F
:10A4D0000024002E34D006EB8403194604222846BB
:10A4E000039346F0B5FC00285A4614BF0121002111
:10A4F00038460CBF4FF001084FF00008FFF700FB93
:10A50000039B5B88019336F82430009383462346EF
:10A510004A4641463846FFF7D9FD6B8801933AF821
:10A52000243000934A462346414638460134FFF71B
:10A5300081FD042C05F10405CBD105B0BDE8F08FF9
:10A54000B046EAE7917B05082DE9F04F93468BB0C2
:10A550000C461A4600218146FFF7D2FA5D46099063
:10A5600000264FF019084FF46177BBF1000F50D06F
:10A5700029460A22204646F06BFC0028099A14BF9F
:10A580000121002148460CBF4FF0010A4FF0000A9C
:10A59000FFF7B6FA2B890793EB8806932B7905937F
:10A5A000EB780493AB78099018FB037303936B78F3
:10A5B000194A18FB037302932B7801936B7900936C
:10A5C000514633464846FFF781FD23890793E388C8
:10A5D000069323790593E3780493A3780E4A18FB36
:10A5E00003730393637818FB037302932378019337
:10A5F000637900935146334648460136FFF71AFD0A
:10A600001E2E04F10A0405F10A05AED10BB0BDE817
:10A61000F08FDA46D9E700BFA27B05082DE9F04F9D
:10A62000174689B01A460C4600218146FFF768FAA2
:10A63000334EDFF8D4B007F1280382463D46079336
:10A6400094F9022000232F49591891F906109142DC
:10A6500051D00833282BF6D1079B08359D4204F1D1
:10A660000804EDD109B0BDE8F08F29460822204644
:10A6700046F0EEFB0028524614BF01210021484657
:10A680000CBF4FF001084FF00008FFF739FA6A7964
:10A6900095F9023056F822200492AA7956F8222021
:10A6A00003922A7956F822200292EA7856F822205C
:10A6B00001922A88009282465A4641464846FFF750
:10A6C00005FD627994F9023056F822200492A279AD
:10A6D00056F822200392227956F822200292E2783C
:10A6E00056F8222001922288009241465A46484656
:10A6F000FFF7A0FCB0E7002FB7D1B846E1E700BFF5
:10A70000D8570508A89B0020C67B05082DE9F04F07
:10A71000904687B00C461A4600210746FFF7F0F92D
:10A72000454682460026B8F1000F6AD02946062227
:10A73000204646F08DFB0028524614BF012100211F
:10A7400038460CBF4FF001094FF00009FFF7D8F968
:10A75000824628781FF0FEFA834668791FF0FAFADD
:10A76000BBF1000F1CD0AB78EA789BF808E095F8B5
:10A7700001B04FF461714FF0190C1CFB03131CFB6B
:10A780000212297900B1007ACDE90410CDE9023234
:10A79000CDE900EB33461C4A49463846FFF796FCA4
:10A7A00020781FF0D7FA834660791FF0D3FABBF107
:10A7B000000F1CD0A378E2789BF808E094F801B071
:10A7C0004FF461714FF0190C1CFB03131CFB0212B8
:10A7D000217900B1007ACDE90410CDE90232CDE94A
:10A7E00000EB3346084A49463846FFF723FC01365A
:10A7F000142E04F1060405F1060594D107B0BDE856
:10A80000F08FC146CCE700BFE37B050838B50446AE
:10A810000D460848FFF74EF929462046FFF7F8FB9A
:10A820000548FFF747F9054B1B7813B1044B01228C
:10A830001A7038BDFC7B0508237B05080C1B002023
:10A840000D1B00200FB407B504A951F8040B0191AA
:10A85000FFF7DCFFFFF73EF903B05DF804EB04B04F
:10A8600070470148EEE700BF077C05080FB407B545
:10A8700004A951F8040B0191FFF7C8FF03B05DF87C
:10A8800004EB04B070470FB407B504A951F8040BEA
:10A890000191FFF7BDFBFFF71DF903B05DF804EB75
:10A8A00004B0704713B51A4B1A4C012818BF1C4648
:10A8B0000DF107020123752120460FF089F800B33E
:10A8C0009DF807101448FFF7DEFF01230DF1070282
:10A8D0001A2120460FF07CF8A8B19DF807100F4808
:10A8E000FFF7D1FF01230DF107021B2120460FF0D6
:10A8F0006FF850B19DF807100948FFF7C4FF02B088
:10A9000010BD0146DEE70146E9E70146F4E700BF76
:10A91000843C0020F4350020137C0508267C0508C3
:10A92000397C050838B50B4C207910F0FD0505D1B0
:10A930000948FFF7A8FF2846FFF7B4FF2379013B3A
:10A94000012B06D80548FFF79EFF0120BDE83840DF
:10A95000A8E738BDC04E00204C7C0508577C050890
:10A96000034B044A04491B681268096803488AE7D4
:10A97000187AFF1F147AFF1F107AFF1F627C0508E8
:10A9800038B5044643F0F4FF0546E0B1104B1B78A0
:10A9900083B1104843F0ECFFA842024604D121469F
:10A9A0000C4846F0B4FA50B10A4A0B490B48BDE8CE
:10A9B000384047E704222146064846F0BAFA084BD9
:10A9C000012283F82C2003490648BDE838405AE7A5
:10A9D000641C00202C1C0020767C0508867C050861
:10A9E000F8150020B07C050838B5044643F0C0FFD8
:10A9F0000546E0B1104B1B7883B1104843F0B8FF17
:10AA0000A842024604D121460C4846F080FA50B1D3
:10AA10000A4A0B490B48BDE8384013E71422214687
:10AA2000064846F086FA084B012283F82C20034999
:10AA30000648BDE8384026E7641C0020141C0020AE
:10AA4000C37C0508867C0508F8150020CE7C050827
:10AA50000FB407B504A951F8040B0191FFF7D8FA18
:10AA600003B05DF804EB04B0704738B50A4B03EB54
:10AA7000C0040D4694F89421084803EB8203996EB4
:10AA8000FFF7E6FF94F89A3123B1691C0448BDE84A
:10AA90003840DDE738BD00BF5C0F0508A8B90508E0
:10AAA0004C80050870B5364C3648FFF703F894F82B
:10AAB0002530012B5ED13448344EFFF70FF894F85F
:10AAC0002C300BB1238D13B194F8263043B9B6F86E
:10AAD00098502F48FEF7EEFF8DBB2E48FEF7FEFF85
:10AAE0002D482E4DFEF7E6FF94F82B3005EB83033F
:10AAF000D3F86C02FFF7C7FEB6F894102848FFF7AA
:10AB0000A7FF94F826302BBB2648FEF7E7FF264820
:10AB1000FEF7D0FF94F82C3005EB8305D5F87402CE
:10AB2000FFF7B1FEB6F896102048FFF791FF94F8B2
:10AB30002C309BB91E48BDE87040FEF7CFBF4FF4E4
:10AB40007A72B5FBF2F102FB115292B21948FFF78B
:10AB50009AFEC5E71848FEF7C1FFD8E7238D23B951
:10AB60001648BDE87040FEF7B9BF1548BDE8704013
:10AB7000FEF7B4BF1348BDE87040FEF7AFBF00BF9B
:10AB800080990020DC7C0508F27C0508D49B00201D
:10AB9000F97C0508147D0508267D05085C0F05086D
:10ABA0003C7D0508597D0508697D0508847D0508FB
:10ABB000A77D05081E7D0508607D05085A7D0508EE
:10ABC000617D0508AC7D05087FB50A4B04930A4BEF
:10ABD00003930A4B02930A4B01930A4B00930A4AD0
:10ABE0000A4B0B490B48FFF733FF07B05DF804EB46
:10ABF000FEF770BFF07D0508F57D0508FF7D0508AF
:10AC0000087E0508147E0508D88B05081F4D002016
:10AC1000BA7D0508C57D05082DE9F04F6C4BDA7843
:10AC200093B09846002A00F0A7806A48FEF756FFC6
:10AC30000025DFF8D4A1DFF8D4B10795A94608A90B
:10AC4000E8B21AF049F99DF82830002B6ED0022D99
:10AC500040F09F809DED117AB5EE407AF1EE10FA4A
:10AC600000F08E80DFED5C6AC6EE877AFDEEE77A53
:10AC7000F8EEE77AFDEEE77A17EE906A9AF8004070
:10AC8000089B012C7ED996FBF4F41A460221534806
:10AC9000FFF7DEFE0D9A002A00F0908041F2883026
:10ACA00002FB04004FF47A73B0FBF3F00F9B002B10
:10ACB00000F0868041F2883103FB04114FF47A7C66
:10ACC000B1FBFCF1062D03D0079F0F448144079789
:10ACD00098F803C0BCF1000F74D04FF47A7C0E9F3B
:10ACE000B7FBFCFCCDF810C04FF00A0C91FBFCFE4A
:10ACF0000CFB1E11CDE902E190FBFCF10CFB1100F5
:10AD0000CDE9001021463648FFF7BDFD022D08D1E0
:10AD10009AF80030012B04D9324609995846FFF7BA
:10AD2000B2FD304B03EB851300229A630135192DD8
:10AD300085D198F80330E3B12B4B2C4819682C4B84
:10AD40001A684FF47A73B1FBF3F32A495209096880
:10AD5000FFF799FD0798079B0A2293FBF2F302FB8A
:10AD6000130799FBF2F1009702FB11922248FFF7BB
:10AD70008AFD13B0BDE8F08F2048FEF7AFFE57E71D
:10AD800000267BE7099A1E480221FFF761FE344640
:10AD900080E7109C5CB107EE904ADFED0F6AF8EE99
:10ADA000677A86EEA77AFDEEC77A17EE904A089A80
:10ADB0000A482946FFF74CFE00266BE7104675E768
:10ADC00019467FE721460F48FFF75DFD9EE700BF6C
:10ADD000184D00201A7E0508002474496F7E05086E
:10ADE000917E0508600F0020B0260020C57E050872
:10ADF000A8260020B4260020E57E0508657E05080B
:10AE00007E7E0508C17E050838440020B57E050811
:10AE10002DE9F04F014691B006468648864DFFF772
:10AE200032FD864B8649C3F800D000232B70854B3A
:10AE3000097840241C7006220123304617F0E2F9FD
:10AE40000A200AF047FD2B78DBB20C2B40F2ED8094
:10AE50009DF80C90B9F1FE0F2ED0B9F1FF0F15BF80
:10AE60000F241524002601269C4240F0DE80611E3E
:10AE7000C9B2684635F0ACF910AB1C4414F8413C3B
:10AE8000834240F0CE8006F1FF38B8F1010F9DF803
:10AE90000D4013D904F01F07650961374C466A4815
:10AEA000FEF708FE022E71D0013D042D6AD8DFE8BE
:10AEB00005F00A5D616965000226D5E79DF80E7010
:10AEC0009DF80F50EBE76148FEF708FE6048DFF899
:10AED000D491DFF8D4B1FEF7EDFD00254FF0030A61
:10AEE0001DF8051048460135FFF7B2FD0C2D55D170
:10AEF000FEF7F0FD022E5BD06422B4FBF2F102FB00
:10AF000011423B46D2B2C9B25248FFF7BCFC5FFACD
:10AF100088F8B8F1010F7BD84F4A504B9DF81010BC
:10AF20004F48504D00290CBF11461946FFF7ABFCA6
:10AF30009DF811104C4B4D4800290CBF294619466D
:10AF4000FFF7A1FC022E63D19DF812404848FEF79E
:10AF5000B1FD9CB3FF2C41D00A22B4FBF2F102FBFD
:10AF60001142D2B24348FFF78EFC2AE04248FEF776
:10AF7000B5FDABE74148FEF7B1FDA7E74048FEF756
:10AF8000ADFDA3E73F48FEF7A9FD9FE700230DF1C4
:10AF90001F008DF83F30FEF7A1FD97E795FBFAF310
:10AFA00003EB43039D429BD15846FEF783FD97E791
:10AFB0003A4621463448FFF766FCA8E72846FEF7E4
:10AFC0008DFD9DF813403148FEF774FD54B1FF2C00
:10AFD00021D021462E48FFF756FC06E02D48FEF70B
:10AFE0007DFDEEE71F48FEF779FD1E4D1E4E294FF1
:10AFF00000240DEB04031A7D8AB1FF2A14BF3246E8
:10B000003A46214624480134FFF73DFC042CF0D198
:10B0100011B0BDE8F08F1F48FEF760FDE5E72A4656
:10B02000EFE71E48FFF70EFCF2E71D48FEF756FD5E
:10B03000EEE700BF337F05087E5F0020705F0020D1
:10B04000615F00207F5F0020447F05084F7F050877
:10B050007D7F0508947F05081C7F0508137F050880
:10B06000CB7F0508237F05085EBB0508E27F050846
:10B07000E97F0508FD7F0508567F05085E7F050806
:10B08000667F0508757F0508B07F050805800508FF
:10B090004D800508277F05081580050820800508D4
:10B0A000308005088F7F05089DE205082DE9F041F5
:10B0B000037903F0E00120292CD002D851B1BDE87A
:10B0C000F08140294AD06029F9D12748BDE8F041F4
:10B0D000FFF7D9BB03F00703022B02D0042B09D0E2
:10B0E0007BB9B0F80720B0F805102048BDE8F04162
:10B0F000FFF7C9BBD0F805201C48BDE8F041FFF7B9
:10B10000C2BBB0F90720B0F905101848BDE8F041FE
:10B11000FFF7B9BB4679164D164805EBC605FEF795
:10B12000C9FC95F8847200240123A74203D8BDE826
:10B13000F041FEF7CFBCD5F8806256F824204FEAE4
:10B1400084084AB113B90C48FEF7B4FC56F808104D
:10B150000A48FFF77DFC00230134E6E741790848FF
:10B16000BDE8F041FFF78FBB758005083980050801
:10B170005C0F05085080050861800508A8B905081E
:10B18000648005082DE9F0411746027902F0E003DA
:10B19000402B05460E462BD100245B4FDFF88C81F7
:10B1A00015E02B7903F00703022B15D0032B19D0E0
:10B1B000012B14BF315D31573846FFF749FC6B79DD
:10B1C000013BA34202DD4046FEF774FC01346B797B
:10B1D000A342E6DCBDE8F08136F814103846FFF7EC
:10B1E00037FCECE736F914103846FFF731FCE6E798
:10B1F00002F00702042A61D8DFE802F0031D2527C8
:10B200002A003478202B3BD073D8002BE2D1B5F83C
:10B210000560B5F807803C482146FFF719FCB442A9
:10B2200043DB444541DC002FD4D042463146374809
:10B23000BDE8F0410CE496F90040202B20D058D80E
:10B24000002B41D0C6E73488DCE7B6F90040F4E7CC
:10B25000D6F80080202B444612D04AD8002BB9D112
:10B2600041462948FFF7F4FBD5F8051088451CD85E
:10B27000002FAFD02648BDE8F041FFF7E9BB00241E
:10B280006A79244B03EBC20393F88422A2420CDDBB
:10B29000D3F8803253F82400BDE8F041FEF70ABC31
:10B2A0001D48BDE8F041FFF7D3BBFEF713FC224673
:10B2B00029681A48BDE8F041FFF7D8BA202BDED044
:10B2C00007D8002B86D11C46B5F90560B5F9078073
:10B2D000A1E7602BE4D0802B7FF47CAF3178104B5A
:10B2E0001048002914BF31461946BDE8F041FFF768
:10B2F000AFBB602BEFD16A791441E307D0D50A4880
:10B30000BDE8F041FFF7A4BB4D8005085D7B050853
:10B310008F8005085C0F0508F2E005089580050898
:10B320009DE20508A8B905088A8005088D800508F2
:10B330000EB400B584B005AB019053F8042B064958
:10B34000039301A8FEF79CFD019B00221A7004B034
:10B350005DF804EB03B070472F8100080246531CD0
:10B36000084605D1034A11681279016002717047DD
:10B370000149DDE7A67A05084D800508F8B5084FB4
:10B380004D1E064601F11F0415F8012F30463946BF
:10B39000FFF7CEFFA54206F10206F5D1F8BD00BFCA
:10B3A0008F7F0508F7B50C4D0C4F002305F82D3F96
:10B3B000044600EB4106B44202D1094803B0F0BD97
:10B3C000394634F8022B6846FFF7B2FF6946284633
:10B3D00045F079FDEFE700BFF81500204C80050827
:10B3E00025160020F7B50C4D0C4F002305F8563FED
:10B3F000044600EB4106B44202D1094803B0F0BD57
:10B40000394634F8022B6846FFF792FF6946284612
:10B4100045F059FDEFE700BFF8150020AF800508A3
:10B420004E16002070B406688E4217D90139751E79
:10B43000002311F8014F0822634013F0800F4FEAF8
:10B44000430318BF83F0D503013ADBB2F5D18D4237
:10B45000EFD1721C0260337070BC7047721C002305
:10B460000260337070BC70470A44914215D010B42A
:10B470000139541E11F8012F0823504010F0800F9D
:10B480004FEA400018BF80F0D500013BC0B2F5D1B3
:10B49000A142EFD15DF8044B704770474840082344
:10B4A00010F0800F4FEA400018BF80F0D500013B3C
:10B4B000C0B2F5D170470A44914215D030B4013979
:10B4C000551E41F2210211F8014F082380EA0420A1
:10B4D00004044CBF82EA40004000013B80B2F7D137
:10B4E0008D42F0D130BC7047704770B502221449CC
:10B4F000144C154E4FF6FF70FFF7DDFF22884AB15E
:10B50000A518B54219D2052A17D92146FFF7D3FF4E
:10B510002C46F3E721460222FFF7CDFF0222A118B5
:10B52000FFF7C9FF094BE41A094BA3F8804041F625
:10B530000F53C31A5842584170BD0020FCE700BFAA
:10B54000004000080240000800800008FA3F0008A0
:10B55000F81500200F4B2DE93048D3E9004554EA97
:10B5600005020AD1034640F201120020188098809B
:10B5700098715A801881BDE83088074B1A6814EB1F
:10B58000020B45F1000C5A466346FCF710FE012001
:10B59000BDE83088086A0020347A002030B403887F
:10B5A0008278C478154DA3F5FA6303F0030101EB2B
:10B5B0004101013A02EB81029B0835F812500279F1
:10B5C000611E40F2B55404FB03132B4403EB430309
:10B5D00002EBC3034279847909490089C3EB031361
:10B5E00002EB83032144C3EB031301EB83034FF40A
:10B5F0007A720021C2FB030130BC70475C0F050862
:10B6000080436D382DE9F04707468CB01E469246C0
:10B61000002A5CD1154614460A88B2F5FA6F36D373
:10B620008B78581E0B2832D891F803C00CF1FF30EC
:10B630001E282CD891F804E0BEF1170F27D891F8F6
:10B640000590B9F13B0F22D888793B281FD8B1F873
:10B650000880B8F57A7F1AD24FF001085EBB0989DD
:10B660000491002CB4BF2D212B21002CB8BF6442C3
:10B67000CDE90290CDE905140795CDE900CE384615
:10B680002A49FFF755FE40460CB0BDE8F08700237D
:10B690002749ADF828304FF0010C18468DF82A30B4
:10B6A000ADF82C3099469E461A4698460991634655
:10B6B00009A9002ED3D0CDE90290CDE900CE3846BD
:10B6C0001C49FFF735FE40460CB0BDE8F0871A4C28
:10B6D00084FB0234A318D417C4EB6314C4EB041521
:10B6E000A2EB85052DB2002D0846B8BF6D42FFF7CD
:10B6F00055FF4FF47A7200238046894643F02EFEB0
:10B700003C230AFB030A4FF47A7200234046494661
:10B7100043F024FE4FF47A7192B20023C1FB0A2356
:10B7200009A8FCF744FD24B209A975E7108C0508A7
:10B7300000000101F08B0508898888882DE9F04F09
:10B74000834B84491A688448844BB2FBF3F297B068
:10B75000FFF77EF9824B834FDFF8A482BD680FCBE1
:10B760000AAE86E80F00C5F381057F4B0593012DD6
:10B770007E4BC8BF7C68069316AB03EB8503C8BF3E
:10B78000C4F38054012D53F8301CD8BF784A79484F
:10B79000C4BF16AB03EB8404A8F58066C8BF54F899
:10B7A000442CFFF755F919F061F84FF47A72724B97
:10B7B000B0FBF2F102FB1102B3F900300A2089B2AA
:10B7C00092B2B2FBF0F26D48FFF75DF86C4A6D493A
:10B7D0006D48FFF73DF9FEF77DF96C4B6C4A6D48FB
:10B7E000D21A6D4BB3F88010FFF74DF86B4BD3F8BE
:10B7F0000090002406F5846A58F82470A30007B36B
:10B800000125A54015EA090F19D0EA0617D0644AA8
:10B8100053F80A30125D53F822B014B16148FEF7B4
:10B8200049F95A4639466048FFF712F9022D06D108
:10B830005E4B93F8251011B15D48FFF709F901340B
:10B84000DAE7FEF747F95B4B5B4819684FF47A7308
:10B85000B1FBF3F1FFF7FCF807A8FFF77BFE58B147
:10B86000564A07A93B46B2F900200EA8FFF7CAFEC8
:10B870000EA95348FFF7ECF8FEF72CF95149D1F81F
:10B880009C20002A54D007EE902ADFED4F6AB8EED4
:10B89000E77AC6EE877AFDEEE77ACDED037A4B4B79
:10B8A0001B885BB107EE903ADFED476AF8EE677AE6
:10B8B00086EEA77AFDEEC77A17EE903AC96959B1BC
:10B8C00007EE901ADFED406AF8EEE77A86EEA77A87
:10B8D000FDEEC77A17EE901A3D483E4F0088642867
:10B8E000CDE900310146039B3B48A8BF6421FEF728
:10B8F000CAFF3A4B3A4A1B783A49127809883A48C3
:10B9000006EB83060125D6F83434384EFEF7BBFF2C
:10B91000374B38481988FEF7B6FF3748FEF7CAF8A4
:10B92000364B1C6834B9FEF7D5F817B0BDE8F08F78
:10B930000392B4E794FAA4F3B3FA83F305FA03F29B
:10B9400056F82310384624EA0204FFF781F8E9E7A5
:10B9500078700020B4800508B980050840420F00C7
:10B960004C13050800380240CC800508D18005083A
:10B97000B4870508D6800508D86A0020DE8005084F
:10B98000F0FF012000080000FF80050800400008CB
:10B990000080000823810508F815002014600020AD
:10B9A00008030020618005084D81050824690020F6
:10B9B00053810508347A002057810508605600201D
:10B9C00071810508600F00200024744974AE0020C6
:10B9D000A01E0020CE82050884810508CC6D0020C1
:10B9E0000E69002008690020CA810508685705080B
:10B9F000561B0020F181050800820508406F0020D9
:10BA00005C130508F8B5064615460846B6FBF2F481
:10BA100034B905FB14640C4B1B5D00F8013BF8BD09
:10BA2000B4FBF2F75FB905FB1747074B05FB14643E
:10BA3000DA5D00F8012B1B5D00F8013BF8BD3846CC
:10BA4000FFF7E0FFEFE700BF408C0508B5EEC00A46
:10BA5000DFED677A674AF1EE10FACCBF30EE270AC5
:10BA600030EE670ADFED647A20EE270A2DE9F04711
:10BA7000FDEEC07A88B017EE904A84EAE47600239F
:10BA8000A6EBE476CDE902330493A2FB06325FEA2B
:10BA9000D208054641D105AF58483946554BA3FB5E
:10BAA0000623DB0803EB8303A6EB4303002CC35CF4
:10BAB0000B704FF00002ACBF20232D234A70384694
:10BAC0008DF8083042F054FF0128394639D0022859
:10BAD00042D0032805BF302302A802A88DF8093000
:10BAE00045F0F1F902A842F043FF0338C4B2224600
:10BAF00002A9284645F01DFA00232B55284642F09E
:10BB000037FF2E22431C02A92A542144E81845F08D
:10BB1000F6F9284608B0BDE8F087394BA3FB0623A9
:10BB20005B0922D105AF35483946324AA2FB0832BB
:10BB3000D20802EB8202A8EB4202835C01F8013BCF
:10BB4000ACE7302302A88DF809308DF80A308DF863
:10BB50000B3045F0B8F9C5E7302302A88DF809305D
:10BB60008DF80A3045F0AFF9BCE7264AA2FB061271
:10BB70005FEA92190ED105AF204839461D4AA2FB53
:10BB800003C2D20802EB8202A3EB4203C35C01F8BA
:10BB9000013BCAE71C4AA2FB06125FEA523A0ED1E9
:10BBA00005AF16483946134AA2FB09C2D20802EB78
:10BBB0008202A9EB4202825C01F8012BDEE7134806
:10BBC000B6FBF0F058B905AF39460A20BAFBF0F2DF
:10BBD00000FB12A20948825C01F8012BE3E705AFE4
:10BBE00039460A220193FFF70DFF019B0146ECE75E
:10BBF0006F12033ACDCCCCCC00007A44408C0508BF
:10BC00001F85EB51D34D62105917B7D1A0860100A3
:10BC10002DE9F04F2DED088BDFF8288195B0074610
:10BC200091469A460D461446002695ED008AB5EEDB
:10BC3000408AF1EE10FA7DD0D5ED019A95ED029A89
:10BC4000D5ED038AB9F1000F49D0D4ED00BA94EDD7
:10BC500001BAD4ED02AA94ED03AAB4EE6B8AF1EE18
:10BC600010FA6CD1F4EE4B9AF1EE10FA67D1B4EE03
:10BC70006A9AF1EE10FA62D1F4EE4A8AF1EE10FA05
:10BC80000CBF0121002152468B46384681F001014C
:10BC9000FDF736FFB0EE6B0A824611A8FFF7D6FE1D
:10BCA000B0EE4B0A07900EA8FFF7D0FEB0EE6A0A7E
:10BCB00006900BA8FFF7CAFEB0EE4A0A059008A846
:10BCC000FFF7C4FE0599069A079B03900291019223
:10BCD00000934246334659463846FEF7F7F9B0EE30
:10BCE000480A11A8FFF7B2FEB0EE690A83460EA813
:10BCF000FFF7ACFEB0EE490A06900BA8FFF7A6FED0
:10BD0000B0EE680A059008A8FFF7A0FE069B059A0A
:10BD100003900292CDE900B34246334600213846F3
:10BD20000136FEF787F9082E05F1100504F110041D
:10BD30007FF47BAF15B0BDEC088BBDE8F08F002120
:10BD4000A1E700BF1682050802B370B48E1803E0A5
:10BD5000121B14D1B14215D010F8012BA2F14103EE
:10BD6000192B11F8013BA3F1410598BF2032192D81
:10BD700003F12004ECD9D21A01D1002BEAD11046EC
:10BD800070BC70470022104670BC70471046704768
:10BD900038B5052216490446FFF7D6FF58B9154AAB
:10BDA00013781BB901211170134A13701348BDE8B1
:10BDB0003840FDF793BE032211492046FFF7C4FF28
:10BDC00080B90C4C0C4D227842B12B7833B10D4820
