:020000040800F2
:10000000F0FF0010D5450508ED7E0208192D010806
:100010007546050875460508754605080000000088
:10002000000000000000000000000000F97E02084F
:10003000F57E020800000000F17E02087D2D010817
:100040007546050875460508754605087546050890
:100050007546050875460508CDFA0308F9FB03083F
:10006000BDFB030881FB030845FB030889EF00087B
:1000700079EF000869EF000859EF000845EF000824
:1000800031EF00081DEF00087546050875460508A4
:1000900075460508754605087546050809FB0308F9
:1000A00089140108251A0108B9130108011B010868
:1000B00065190108A5180108D91701087546050832
:1000C0007546050875460508754605087546050810
:1000D00075460508E53A010875460508493A0108DC
:1000E00091FA03087546050869C80208E912010873
:1000F00059150108191201083916010809EF0008FD
:10010000754605087546050809170108754605086E
:10011000754605087546050835440208BD420208C3
:10012000F5EE0008E1EE0008CDEE0008B9EE00089B
:10013000A5EE0008754605087546050875460508CC
:10014000754605087546050875460508D5B70208C1
:1001500091EE00087DEE000869EE0008AD39010857
:10016000754605087546050875460508754605086F
:10017000754605087546050875460508754605085F
:080180007546050875460508E7
:080188007C41050001000000AC
:1001900010020100701C00206C1C002000000000F8
:1001A000440700081F021000841C0020741C00205B
:1001B000000000008D8500081A023C00481D002048
:1001C000CC21002000000000E58B0008270004007F
:1001D000441D0020082200200000000046070008FF
:1001E00038100100A01C00200C220020000000009C
:1001F0004A07000802000C008C2200208C230020FB
:100200000000000000000000F70106003C23002071
:1002100098230020000000004C0700081D02020087
:1002200038230020A023002000000000520700080F
:100230000A020A00102C0020642E0020000000009A
:10024000A1DA0108F6210C0074260020702E00208F
:10025000000000005407000803000100E42600200D
:100260007C2E0020000000000000000003123D0072
:10027000242E0020802E00200000000060070008CF
:1002800025102C01442C0020C02E0020000000006E
:100290000000000003010A0064420020F842002030
:1002A000000000009E070008130204001C38002014
:1002B0000443002000000000A80700082C001000E4
:1002C0009C5B00208C5B00200000000009E5020818
:1002D0002B002400D05B0020AC5B0020000000005D
:1002E000D9E4020829207800905A0020F45B00200D
:1002F0000000000000000000281010007C5C0020BE
:100300006C5C00200000000019CA02081C021000EA
:10031000405700208C5C002000000000B1830008E2
:1003200014000300F45900209C5C00200000000031
:10033000AC0700081010020064580020A05C0020E8
:1003400000000000B0070008190005005C580020FC
:10035000A45C002000000000B2070008F82106009D
:1003600054580020AC5C002000000000B8070008D2
:1003700001200C00D8700020EC7700200000000065
:10038000BE0700080C20CC00C06F0020F8770020CA
:1003900000000000C97301080A702800786F00206F
:1003A000C478002000000000BDC902080EB086011C
:1003B000F06D0020EC780020000000006DC90408FA
:1003C00001010400486D0020747A00200000000044
:1003D0000000000000010400406D0020787A002039
:1003E00000000000CA070008020103003C6D002065
:1003F0007C7A00200000000005740108220214012C
:1004000024750020807A002000000000218D000863
:1004100001020500546D0020947B002000000000C4
:100420005166030800020500187400209C7B002020
:1004300000000000000000001B021000F873002004
:10044000A47B002000000000DD8300081E000600E1
:100450007C710020B47B002000000000CE07000863
:100460001B100C00385E0020BC7B00200000000048
:10047000FD7303082102F000BC5C0020C87B002053
:1004800000000000D97203082312100040870020EA
:10049000CC87002000000000D40700083710280097
:1004A0007C870020DC87002000000000E4070008B3
:1004B0000E0202003887002004880020000000009F
:1004C0000C080008161006005C7F00200888002039
:1004D000000000000E0800082F102200A88700204E
:1004E0001088002000000000140800080510060015
:1004F000DC8000203488002000000000360800085E
:1005000023100E00608100203C88002000000000C5
:1005100031CA0208F5519000847E00204C880020EA
:1005200000000000097203080B301A00687E0020EA
:1005300008890020000000003C0800081F3024004B
:10054000407E002024890020000000005808000898
:10055000050204002C8100204889002000000000D2
:100560007C0800080D00340044B40020BCB4002016
:1005700000000000557501080902010040B3002089
:10058000F0B4002000000000800800080400800093
:10059000C0B20020F4B40020000000000000000001
:1005A00013000400ACB2002074B50020000000006D
:1005B00084080008FD01240088B2002078B50020DE
:1005C00000000000FDF400081820300054B20020A4
:1005D0009CB5002000000000818C000806101A0065
:1005E00034A00020CCB5002000000000C9C90408D8
:1005F000FB01010030A00020E8B500200000000051
:10060000F58C0008FC010900FC9E0020ECB50020E0
:1006100000000000058D000816023F00BC9E00206F
:10062000F8B500200000000021840008340010000C
:10063000EC9D002038B60020000000009DC9040891
:1006400011020800C49D002048B6002000000000F0
:100650008808000812120400BC9D002050B600203B
:10066000000000009008000812201000AC9D00203F
:1006700054B600200000000094080008FF11060096
:10068000409A002064B60020000000007185000838
:1006900008120F004C9A00206CB6002000000000E9
:1006A00001850008F90104003C9A00207CB6002076
:1006B0000000000029C90308020203009C890020F1
:1006C00080B6002000000000000000000C020400C2
:1006D0005889002084B600200000000059850008D9
:1006E000FE0114002494002088B6002000000000C1
:1006F000F18300081A000E0020CD002060CE0020FB
:1007000000000000A408000820320A00F4CB0020FA
:1007100070CE0020000000004DC9040815007000D4
:10072000E4C900207CCE0020000000000000000092
:100730002A006000E8CD0020ECCE00200000000080
:0407400025C90408BB
:100744000000200300000000180001000000000069
:100754000000000001000000020200000000000090
:100764000000000000000000000000000000000085
:100774000000000000000000000000000000000075
:100784000000000000000000000000000000000065
:1007940000000000000000000100040101006C16CC
:1007A4000000000000000135030000000005000007
:1007B400280100000401F4011400E8036400040AA1
:1007C400000114001E00BC01000000000100000034
:1007D4000000000000000000000000000000000015
:1007E40020003200C800D007960014003200280010
:1007F400B00440060005500014000F000800640017
:100804000100000005000A000000C40900001900EE
:1008140000000000000000000000000000000000D4
:1008240000000000000000000000000000000000C4
:100834000000200003010000AE014A015E012C010A
:1008440064010200000001000A019A01001E0A006E
:10085400000000000000000000010000000500008E
:10086400010203000000000000000000000000007E
:1008740000000000008007000000000013000000DA
:10088400080044300000000001010101FFFFFFFFE8
:10089400000000010000054B495732000008000029
:0E08A4007E05EA05B4053200E803D007000027
:1008B2001A03000000000000000000000000000019
:1008C2000000000000000000000000000403090412
:1008D20012010002000000408304205700020102BE
:1008E200030100003D8E0008258E0008158E0008C9
:1008F200B1850008C18D0008698D0008AD8500082A
:100902004C020020119D02080175020851A802083C
:10091200000000000000000055A5020871A40208B2
:100922000000000000000000000000003970020812
:10093200398600082D860008998E0008B58E0008B9
:10094200E58500087D8E0008618E0008FF01FF002A
:10095200000004010000000000000002100000007E
:100962000700000000000000000000000102030474
:1009720006070809008002021F00000053544D20A0
:100982002020202050726F647574202020202020A7
:1009920020202020302E303101000000A00F000066
:1009A200B80B00000102FFFF010000000000000080
:1009B2007C23002008000000000000006C230020BF
:1009C200080000005976020845750208EDAA0208DF
:1009D20000000000C1700208A5A602089574020872
:1009E2001DA6020800000000000000007D70020841
:1009F2000D6F0208016F0208219C02083D9C02084B
:100A0200059C0208E99B0208CD9B020811760208A8
:100A1200217502082DAA0208000000009570020844
:100A220021A60208697402087DA5020800000000E0
:100A320000000000897002088CD7050898D70508C5
:100A4200A4D70508B0D70508BCD70508C8D705083C
:100A5200C4F20508A00C0608D00B06081CD705082E
:100A62003C36060888D5050880D7050884D70508CE
:100A720088D70508D4D70508D8D70508DCD70508D4
:100A8200380A0608E0D705081900C800F401200357
:100A92000000803FFFFFFFFF0000803F00000000DA
:100AA2000000000000000000FFFFFFFFFF00000049
:100AB2000403090412010002EF02014083045632CA
:100AC20000020102030100001201000202020040C2
:100AD20083044057000201020301000009022000C2
:100AE200010104C03209040000020806500507058E
:100AF2008102400000070501024000000902640073
:100B0200030100C0320904000001030000000921B2
:100B1200110100012226000705830308000A080BC1
:100B220001020202010009040100010202010005A2
:100B320024001001052401000204240202052406F7
:100B42000102070582030800FF09040200020A00ED
:100B52000000070501024000000705810240000075
:100B620009024300020100C032090400000102022E
:100B720001000524001001052401000104240202E1
:100B82000524060001070582030800FF090401008D
:100B9200020A000000070501024000000705810269
:100BA20040000000FF000000246E05080000000065
:100BB2000000000000000000000000000000000033
:100BC2000000000000000000000000000000000023
:100BD20000FFFF0000000000F86D050800000000A3
:100BE2000000000000000000000000000000000003
:100BF20000000000000000000000000000000000F3
:100C0200AA5505010000000005010905A101A10086
:100C1200050109300931093209330935093409401E
:100C220009381581257F750895088102C0C000002A
:100C320009022200010100E032090400000103015F
:100C42000200092111010001222600070583030881
:100C5200000A000000000000010203040102030474
:100C620006070809B5A70208B9A6020811AB0208CF
:100C7200FD700208757602080D71020829710208DA
:100C8200D5700208C57002080000000000000000D4
:100C92002D202D2D202D2D2D2D202D2D2D2D000003
:100CA200000000000000000000000000000000AA98
:100CB200550B010000AA5507010000AA55090200C0
:100CC2000000AA5503009F0001000000C0120000AE
:100CD200D6010000B80B0000010000000001010174
:100CE2000001010000000100E001FF014569030865
:100CF2000000000024710508FFFFFFFF080101FF4B
:100D0200FF2D202D2D202D2D2D2D202D2D2D0000C0
:100D120000000000000000000000000000000000D1
:100D220000000000000000008085050800000000AF
:100D3200000000000C86050801000000FA00000017
:100D42000100000001000000D67000200000F40144
:100D520001000000D47000200000F4010100000036
:100D6200D27000200000F40101000000D0700020C9
:100D72000000F40101000000CE7000200000F40128
:100D820001000000CC7000200000F401010000000E
:100D9200CA7000200000F40101000000797003080D
:100DA2003D70030838730508C07000200532010049
:100DB200BE700020E803D00701000000BC700020D4
:100DC200E803D00701000000BA700020E803D00752
:100DD20001000000B87000201E00B80B01000000E6
:100DE200C670002005000F0001000000C87000203E
:100DF20003000A0001000000B67000201E00F4018A
:100E020001000000B4700020140064000100000022
:100E1200C27000203200E80301000000B27000201E
:100E22000000C80001000000BE6F002000C80100E1
:100E3200BD6F002000500100BC6F0020005A01006D
:100E4200BA6F002002000000C4730508D0E2050852
:100E5200D8E20508C68000200100C4090000000095
:100E6200C48000200100C40900000000C2800020EC
:100E72000100C40900000000C08000200100C40974
:100E820000000000BC8000200100C4090000000036
:100E9200BE8000200100C40900000000BA800020CA
:100EA2000100C40900000000B88000200100C4094C
:100EB20000000000676D002000C80100666D002080
:100EC20000C80100646D00200100C800010000009C
:100ED200626D00203200307532000000616D00202A
:100EE200055A05005E6D002000FF0100606D0020C4
:100EF20001000000240700205C6D002003000000B8
:100F0200DCAE05085D6D002000FF01005F6D002072
:100F120001000000240700205B6D00200300000098
:100F2200DCAE0508E16F0308856F0308D07305087E
:100F3200E8700020EE02CA0801000000E6700020FE
:100F420000C8010064000000E570002000C8010034
:100F520064000000E470002002000000B074050884
:100F62004E6D002080C1803E050000004C6D0020C7
:100F720080C1803E05000000466D002080C1803E99
:100F820005000000446D002080C1803E0500000085
:100F92003F6D002000FF0100386D00206400F40165
:100FA20001000000376D002004000000BC74050839
:100FB200366D002002000000D0740508E16D0020AB
:100FC2000D000000DC740508DE6D002000640100E5
:100FD200DC6D0020320010270A000000DB6D0020CB
:100FE2000D000000DC740508DA6D00200D00000021
:100FF200DC740508D96D0020020000001475050894
:10100200000000000000000020750508A842002032
:101012009CFF2C010000000048770020E0150C170F
:10102200000000002474002002000000587505082A
:10103200F47000200100FF7F01000000F370002027
:101042000200000064750508E36D00200300000043
:1010520074750508E26D0020030000007475050830
:10106200AC6F00200000E80301000000AA6F00201E
:101072000000E80301000000A86F00200000E80360
:1010820001000000A66F00200000E803010000003C
:10109200A46F00200000E80301000000A26F0020FE
:1010A2000000E80301000000A16F0020001401000D
:1010B200A06F00200300000084750508B86F0020AF
:1010C2000000F40101000000B66F00200000F401EE
:1010D20001000000B46F00200000F40101000000D4
:1010E200B26F00200000F40101000000B06F002088
:1010F2000000803E01000000AE6F00200000803E34
:10110200010000009F700020196401009E70002001
:1011120002000000947505089C700020E803D007C7
:101122000A0000009A700020006401000A0000001A
:101132008F700020006401008E70002000640100A6
:1011420096700020006401000A00000095700020E3
:10115200006401000A000000947000200064010095
:101162000A00000099700020006401000A000000DB
:1011720098700020006401000A00000097700020AF
:10118200006401000A0000009370002001FF0100CA
:101192000A0000009270002001FF01000A00000016
:1011A2009170002001FF01000A000000EC6D002098
:1011B2000000F40101000000EA6D00200000F401CB
:1011C20001000000E86D00200000F40101000000B1
:1011D200E66D00200000F40101000000E46D002033
:1011E2000000F401010000003574002000C8010075
:1011F2003474002000640100337400200064010094
:101202003274002000640100317400200064010087
:1012120030740020FF0801002F74002001640100D7
:10122200F16E0308B56E0308A07505082E74002040
:10123200006401002C7400201400E8030100000087
:101242002A740020E80330750A0000002974002087
:1012520000C801002874002000C801002774002083
:1012620000C8010026740020006401000A0000008A
:10127200447400200000D007010000003E740020EA
:1012820000C801003D74002000C801003C74002029
:1012920000C80100427400200000D00701000000D5
:1012A2003B74002000C801003A74002000C801000D
:1012B2003974002000C80100407400200000D007EB
:1012C200010000003874002000C8010037740020BB
:1012D20000C801003674002000C8010000000000B0
:1012E200AD6C030810760508D76D002039000000A8
:1012F200AC760508D66D002000C80100D46D002030
:10130200E803D007010000004B49574946345632E2
:10131200000000005A6D002000030100596D0020FA
:1013220000030100016C0308C56B030894770508EC
:10133200816B0308356B0308047805083D6C0308CC
:101342001992030884780508506D002001030100FA
:10135200E1700308B5700308887B0508B96A0308C1
:101362006D6A0308F87B0508C36C0308A1B403087F
:10137200947C0508D5A50308000000003C7D050803
:10138200A993030841710308D87D0508216D03085C
:1013920000000000487E0508E96D0308956D03080A
:1013A200AC7E0508796E03083D6E0308487F050888
:1013B200B1C703082D6F0308C87F0508B17000206C
:1013C20001060100616D0308356D0308C48005083C
:1013D20015C703087D92030834810508F5C7030881
:1013E2001593030830820508B07000200103010044
:1013F200816C0308556C0308048305080D7103080A
:101402000000000068830508056B0308E9910308E2
:10141200CC83050800000000000000005884050885
:101422005D6F03088D930308D8840508326D002090
:1014320088136F1701000000346D002088136F17A6
:1014420000000000F2400020000000000000000048
:10145200F04000200000000000000000EE400020EC
:101462000000000000000000EC400020000000002E
:1014720000000000EA400020000000000000000020
:10148200E84000200000000000000000A405002049
:101492000000000000000000096D002002000000B2
:1014A20060860508306D002088136F170100000068
:1014B200E842002088136F1700000000FD6903084E
:1014C200000000006C860508257400200100000061
:1014D200C0860508EA42002001000000CC8605080B
:1014E200E042002002000000D4860508000000004F
:1014F20000000000E0860508E5690308000000001E
:101502007C8705080000000000000000D087050865
:10151200000000000000000040880508E4420020AE
:10152200E0150C1700000000FFFF0000FFFFFFFFA7
:101532009431060800000802050303009C310608E6
:10154200010008020504030088DA05080200FE0112
:101552000110030010E70508030014020003000055
:10156200A431060804001F0201000800AC3106087D
:1015720005001F020101080001010000FF1FFF1FFB
:10158200FFFFFFFFDC880020000000000089002030
:10159200000000000100000008000000FD6E0208CB
:1015A200F96E0208F56E0208E96E0208E56E02089D
:1015B200F16E0208ED6E0208797C0208FD7A0208DB
:1015C200A97C0208A1950208A9B102081D96020889
:1015D200257002081170020809700208010000005B
:1015E20000600240106002400000000000000000A5
:1015F200000B0000000000000000000000000000DE
:10160200006002402860024001000000000000006B
:10161200060C0000000000000000000000000000B6
:101622000060024040600240020000000000000032
:10163200100D00000000000000000000000000008B
:1016420000600240586002400300000000000000F9
:10165200160E000000000000000000000000000064
:1016620000600240706002400400000000000000C0
:10167200200F000000000000000000000000000039
:101682000060024088600240050000000000000087
:101692002610000000000000000000000000000012
:1016A20000600240A060024006000000000000004E
:1016B20030110000000000000000000000000000E7
:1016C20000600240B8600240070000000000000015
:1016D200362F0000000000000000000000000000A3
:1016E200006402401064024000000000000000009C
:1016F20000380000000000000000000000000000B0
:101702000064024028640240010000000000000062
:101712000639000000000000000000000000000088
:101722000064024040640240020000000000000029
:10173200103A00000000000000000000000000005D
:1017420000640240586402400300000000000000F0
:10175200163B000000000000000000000000000036
:1017620000640240706402400400000000000000B7
:10177200203C00000000000000000000000000000B
:10178200006402408864024005000000000000007E
:1017920026440000000000000000000000000000DD
:1017A20000640240A0640240060000000000000045
:1017B20030450000000000000000000000000000B2
:1017C20000640240B864024007000000000000000C
:1017D200364600000000000000000000000000008B
:1017E20030320608103B0608000000001974010898
:1017F200A0860100040000000000000000000000BC
:1018020000000000000000000000000000000000D6
:1018120000000000000000000000000000000000C6
:1018220030320608583B06080000000075F5000833
:10183200E8030000040000000000000000000000B7
:101842000000000000000000000000000000000096
:101852000000000000000000000000000000000086
:1018620084EA0508B40A06080000000001E3010842
:101872007D000000060000000000000000000000E3
:101882000000000000000000000000000000000056
:101892000000000000000000000000000000000046
:1018A2007C310608000000000000000089310108B8
:1018B200E803000003000000000000000000000038
:1018C2000000000000000000000000000000000016
:1018D2000000000000000000000000000000000006
:1018E200603B0608000000000000000085130508A8
:1018F20010270000030000000000000000000000AC
:1019020000000000000000000000000000000000D5
:1019120000000000000000000000000000000000C5
:10192200A03106080000000085E10208E9FB00087A
:101932005F760000050000000000000000000000CB
:101942000000000000000000000000000000000095
:101952000000000000000000000000000000000085
:10196200DC34060800000000000000001D6C0108C5
:10197200102700000100000000000000000000002D
:101982000000000000000000000000000000000055
:101992000000000000000000000000000000000045
:1019A2006C3B060800000000000000009DF30008E8
:1019B200E803000005000000000000000000000035
:1019C2000000000000000000000000000000000015
:1019D2000000000000000000000000000000000005
:1019E200783B06080000000000000000D57C0108DA
:1019F200204E000003000000000000000000000074
:101A020000000000000000000000000000000000D4
:101A120000000000000000000000000000000000C4
:101A2200883B06080000000000000000D97A010887
:101A3200204E000003000000000000000000000033
:101A42000000000000000000000000000000000094
:101A52000000000000000000000000000000000084
:101A6200983B060800000000000000001D36010837
:101A7200400D030003000000000000000000000011
:101A82000000000000000000000000000000000054
:101A92000000000000000000000000000000000044
:101AA200D4D505080000000000000000CD2E01087A
:101AB20010270000010000000000000000000000EC
:101AC2000000000000000000000000000000000014
:101AD2000000000000000000000000000000000004
:101AE2008831060800000000000000003D7F030866
:101AF20010270000030000000000000000000000AA
:101B020000000000000000000000000000000000D3
:101B120000000000000000000000000000000000C3
:101B2200FCE5050800000000000000009DF200082E
:101B3200A861000001000000000000000000000099
:101B42000000000000000000000000000000000093
:101B52000000000000000000000000000000000083
:101B6200FCD505080000000000000000353C01081B
:101B7200A00F0000010000000000000000000000B3
:101B82000000000000000000000000000000000053
:101B92000000000000000000000000000000000043
:101BA200A83B06080000000000000000E9AF03089F
:101BB20010270000010000000000000000000000EB
:101BC2000000000000000000000000000000000013
:101BD2000000000000000000000000000000000003
:101BE200C4F105080000000000000000157304089D
:101BF2001A41000001000000000000000000000087
:101C020000000000000000000000000000000000D2
:101C120000000000000000000000000000000000C2
:101C2200BCE5050800000000000000006D29040862
:101C3200102700000100000000000000000000006A
:101C42000000000000000000000000000000000092
:101C52000000000000000000000000000000000082
:101C62001C3B0608000000000000000029BB03081E
:101C72001A41000001000000000000000000000006
:101C82000000000000000000000000000000000052
:101C92000000000000000000000000000000000042
:101CA200B43B06080000000000000000152F0408E5
:101CB200400D0300000000000000000000000000D2
:101CC2000000000000000000000000000000000012
:101CD2000000000000000000000000000000000002
:101CE200BC3B0608000000000000000059F200089A
:101CF200400D030000000000000000000000000092
:101D020000000000000000000000000000000000D1
:101D120000000000000000000000000000000000C1
:101D2200C43B06080000000000000000719C03088C
:101D320050C300000300000000000000000000008B
:101D42000000000000000000000000000000000091
:101D52000000000000000000000000000000000081
:101D6200D03B060800000000000000004D7A010888
:101D720040420F00000000000000000000000000D0
:101D82000000000000000000000000000000000051
:101D92000000000000000000000000000000000041
:101DA200DC3B060800000000000000005578010836
:101DB20050C300000000000000000000000000000E
:101DC2000000000000000000000000000000000011
:101DD2000000000000000000000000000000000001
:101DE2000000803F7D0000000000803F00000000F6
:101DF20000000000000000000000803F0000000022
:101E020000000000000000000000000000000000D0
:101E120000000000000000000000000000000000C0
:101E22000000803F000000000000000000000000F1
:041E320001000000AB
:1080000003685A1C02601970704700BF2DE9F047E1
:10801000089C2578002B804689460CBF4FF0200A2B
:108020004FF0300A661C25B3002A26DD334601E0F6
:10803000024698B113F8011B501E0029F8D1971E73
:1080400060B13D46013D51464046C8476B1C002B80
:10805000F8DC257827EAE770013045B1041B294692
:108060004046C847301916F8015B002DF7D1BDE82E
:10807000F087002A03DC2846F9E70020EEE7571EC8
:10808000DFE700BF2DE9F04714461D4606464FF4D2
:108090007A720023204629464CF0D0F84D4BDFF889
:1080A00048814D4A4D4F034488FB03101844D917AB
:1080B00082FB032CC1EB601088FB002887FB0327A1
:1080C0009C44474AC1EBEC2CC0EB001E82FB0C2900
:1080D000A3EB8E0E1F44434A86F806E0C1EB274708
:1080E0004FEAEC7E08EB000ACEEBA90E82FB07827A
:1080F0004FEAE0780EEB4E0EC8EB6A18ACEBCE0CF4
:10810000C8EB0818DFF8E4E086F804C0A0EB8800AC
:1081100070718EFB0303F817C0EBE21240F2B5500A
:1081200000FB1272C1EBE353B2F5896F4FEA83078C
:108130003CDA40F2DA239A4242DCB2F5B77FB4BFB0
:108140004FF0000E4FF0010E4FEA4E09DFF8A0800D
:1081500009EB0E0308EBC3031FFA8EFCD88A09EB68
:108160000E0108EBC10116310B2301E031F8020DBD
:10817000904218DD013BF9D1CE44012338F83E008E
:10818000B37007F5FA670132121ABC44F270A6F810
:1081900000C0204629464FF47A7200234CF04EF876
:1081A0003281BDE8F0870133DBB2E9E74FF0030C21
:1081B000E64640F29650DFF838804FF00609CEE7E9
:1081C0004FF0020CDFF82880E64640F229404FF0DD
:1081D0000409C4E780BC92C7C5B3A29107452EC26B
:1081E000ABAAAA2A73B06D1689888888792D0311E5
:1081F000605E05080028F0B403DA2D230B704042BE
:108200000131092804464FF0010307DD03EB830326
:108210005B00B0FBF3F2092AF8D883B10F48A0FB4A
:108220000326B4FBF3F2092A02F1570C02F13007DE
:1082300009DD03FB1244F30801F801CBEFD1002361
:108240000B70F0BC704703FB1244F30801F8017B8C
:10825000E5D100230B70F0BC704700BFCDCCCCCC77
:10826000884270B44FF0010442D301FB04F4B0FB28
:10827000F4F58D42F9D2ECB142BB092D04FB150097
:1082800005F1570605F130020EDDB4FBF1F403F8F9
:10829000016B7CB1B0FBF4F5092D04FB150005F171
:1082A000570605F13002F0DCB4FBF1F403F8012BC2
:1082B000002CEFD100221A7070BC704703F8016BDC
:1082C000B4FBF1F4002CF5D0B0FBF4F5092D04FB60
:1082D000150005F1370605F13002EFDCB4FBF1F4CF
:1082E00003F8012B002CEFD100221A7070BC7047EC
:1082F0000546002AEAD1C0E790ED057A90ED004AE4
:10830000D0ED066AD0ED014AD0ED047A90ED035A23
:10831000D0ED025AA4EE007AB0EE406AB0EE470A01
:10832000B0EE667AA4EE867A67EEC07AA5EE407A61
:10833000E5EE867A80ED057AC0ED067A704700BFDB
:10834000D0ED057A90ED013AD0ED003AD0ED064A35
:1083500090ED024A90ED077A90ED035A90ED086A8D
:10836000D0ED045AC0ED067AF0EE406A27EE830A9B
:10837000C0ED056AA3EEA60A80ED087AA4EE240AF1
:10838000A5EE470AA5EEC60A80ED070A704700BFB2
:10839000D0ED007A90ED017A30EE670AE7EE007AD0
:1083A000B0EE670AC0ED007A704700BF704700BFAB
:1083B00030B414220023342503240221C270012288
:1083C0008571C4710370C3728373C373417041724A
:1083D00082700272827230BC704700BF0023062197
:1083E0004FF47A720170C0E901230373704700BF34
:1083F00030B43123332232254FF60174FF2143700C
:10840000427101230022C5700482817403720370DB
:108410000371837042818281C28130BC704700BF8A
:108420002DE9F04F3149324B83B001F1A00B01909F
:1084300013274FF000092F481022012603E02030B7
:1084400098420BD002799742F9D102680C68A24297
:1084500009D02030984206F10106F3D12031594568
:108460003AD00F79E7E744794D79A542F1D19446A6
:10847000019A214809EB490502EB050A57558AF88C
:10848000016000F572751D4E624603E0A8421AD0E5
:1084900050F82C6FB242F9D10679A642F6D1CF68D6
:1084A00006464FF0000C96468046F268BA4216D057
:1084B0000CF1010CBCF1030F06F10C06F5D140469E
:1084C000A8427246E4D14FF0FF3C203159458AF86A
:1084D00002C009F10109C4D103B0BDE8F08F0869F9
:1084E00032698242E4D14FFA8CFCEEE764C705089A
:1084F000E0B9050820B00508E0B905080000014012
:10850000144BFF22F0B54FF0FF34C27002710272BB
:1085100042724273827303F10C0EA446172716268B
:108520001525002202EB820281189E4585544E706B
:108530008F7081F803C00C710AD093F90620DD79A1
:108540001E7A5F7A93F90AC093F90B400633E9E784
:10855000F0BD00BFC05E050810B41F210124032236
:108560000023047041708270C3705DF8044B704743
:10857000002310B42C21022401224470C1704271E6
:108580008370037103705DF8044B7047034600F17C
:108590001001FF221A705A7002339942FAD1027008
:1085A0004270027142718272C2727047002070473D
:1085B00000207047013A30B4D2B28C1C04EB420464
:1085C0000025020F092AD3B203F130028ABF3733E4
:1085D0000A700B704D7002318C424FEA0010F0D1DE
:1085E00030BC70470B4A0C4B10681B681A22C0182D
:1085F0000A8001D10948704710B5094B09491C6828
:108600000822FFF7D7FF204604220749FFF7D2FFD1
:10861000024810BDE8F7FF1FECF7FF1F880100209C
:10862000EAF7FF1F8A0100209A01002004230B8033
:1086300000487047A401002012230B8000487047B7
:10864000A80100204FF4006303837047012380F8E2
:1086500050307047F0B4037C456902681F2B37D94E
:10866000203B2021546899400C4223D010249C4088
:10867000D160D4605168D940CE074ED4EFF3118356
:10868000502282F312882A6C1168C90709D45468F1
:10869000002C52D1D5E909618E4243D1012285F8DF
:1086A0006420DBB283F31188037C02681F2B194618
:1086B00014D9203B082150689940084200D0D1606D
:1086C0000421506801FA03F3184223D1F0BC70472B
:1086D000202416689C4026420FD1194608231068B2
:1086E0008B40184200D093600423106803FA01F114
:1086F0000842EBD09160F0BC704710219940946023
:1087000091601168D940CC07B8D5012101FA03F373
:108710009360B3E7D360F0BC7047012101FA03F323
:10872000D360ABE7AF690F44D7600ED82E69711ADA
:108730005160AC62002185F86410116841F00101BC
:10874000DBB2116083F31188AEE7711A5160AE623B
:10875000F0E700BFF0B4714B71491A780B789A4278
:1087600040F07E816F4B1A78002A00F0D4806E4B67
:1087700019786E4B002940F0DB801868B3F832613D
:10878000048824F080042404240C048093F83041ED
:10879000C462058845F08005058041628489012A0C
:1087A00044EA06048481A3F8321100F0B480D3F8BF
:1087B0003401B3F86662048824F080042404240C95
:1087C000048093F86442C462058845F08005058002
:1087D00041628489022A44EA06048481A3F866126D
:1087E00000F09980D3F86802B3F89A63048824F003
:1087F00080042404240C048093F89843C462058800
:1088000045F08005058041628489032A44EA060414
:108810008481A3F89A137ED0D3F89C03B3F8CE6476
:10882000048824F080042404240C048093F8CC44AD
:10883000C462058845F08005058041628489042A68
:1088400044EA06048481A3F8CE1464D0D3F8D0049B
:10885000B3F80266048824F080042404240C048005
:1088600093F80046C462058845F0800505804162A2
:108870008489052A44EA06048481A3F802164AD0B2
:10888000D3F80406B3F83667048824F0800424047F
:10889000240C048093F83447C462058845F08005B1
:1088A000058041628489062A44EA06048481A3F88B
:1088B000361730D0D3F83807B3F86A68048824F044
:1088C00080042404240C048093F86848C46205885A
:1088D00045F08005058041628489072A44EA060440
:1088E0008481A3F86A1816D0D3F86C28B3F89E597F
:1088F000108820F080000004000C108093F89C0980
:10890000D062148844F08004148051629089284316
:108910009081A3F89E19F0BC704700BFD8250020B5
:10892000D92500206C19001068190010B0A800208B
:108930005C68198961602568186845F0010540F296
:108940000D312560A0F848108489012A44F4807410
:108950008481E0D0D3F83841B3F83C51D3F83401E6
:108960006560256845F001052560A0F848108489F8
:10897000022A44F480748481CDD0D3F86C42B3F8D9
:108980007052D3F868026560256845F001052560DE
:10899000A0F848108489032A44F480748481BAD0F2
:1089A000D3F8A043B3F8A453D3F89C0365602568BB
:1089B00045F001052560A0F848108489042A44F494
:1089C00080748481A7D0D3F8D444B3F8D854D3F8B2
:1089D000D0046560256845F001052560A0F84810C1
:1089E0008489052A44F48074848194D0D3F808469D
:1089F000B3F80C56D3F804066560256845F0010508
:108A00002560A0F848108489062A44F48074848183
:108A100081D0D3F83C47B3F84057D3F838076560A6
:108A2000256845F001052560A0F848108489072ACB
:108A300044F4807484813FF46EAFD3F87028B3F8A7
:108A40007408D3F86C385060106840F00100106072
:108A5000A3F848109A8942F480729A81F0BC70475A
:108A60005C00E618484D15F83660032E3FF67AAEE6
:108A7000DFE806F04D261C02E01805EBC000446854
:108A8000661E012C46603FF646AF013303F0030338
:108A9000D8B2824208703FF465AE03EB4303DB00BB
:108AA000EA1802200021E854516034E7E11805EB90
:108AB000C1014868461E01284E603FF62CAF0DE00C
:108AC000E118C90068184668771E012E47603FF616
:108AD00022AF02274FF0FF366F544660E618F600CB
:108AE000AF192A48397B00680139C9B2397389B393
:108AF0004FF47A722344B2FBF0F200FB02F0B0F5BF
:108B00007A7F05EBC30518BF01326A602AE670B1AF
:108B10001F49012600220F890132002F18BF0026AD
:108B2000824201F58671F6D1002E3FF41BAE174A42
:108B3000126842F21076E018B6FBF2F102FB116205
:108B4000012605F8306002B13144234405EBC3052A
:108B5000696007E6BF68B7FBF0F100FB11700327FF
:108B6000AF5500B101311C44013305EBC40503F0DE
:108B70000303934269603FF4F5AD00293FF4F2AD81
:108B800001396960EEE500BFDC250020BC1600203D
:108B900050A0002010B5027C01681F2A4FF020036E
:108BA0000ED94C68203A93401C4208D00B4A4068CA
:108BB00000241470026822F001020260CB6010BD34
:108BC0000C6893401C42FAD0044A40680024147098
:108BD000026822F0010202608B60F0E74D60002025
:108BE00037F0A6BA38B51D4B1B78044600F12505B1
:108BF00093B104221A4920304DF01CF92846142262
:108C000018494DF017F9012384F83A30164B1B78B8
:108C100073B984F83B3038BD2846142213494DF00F
:108C200009F9012384F83A300F4B1B78002BF0D060
:108C30000F4B186859689A68DD68E56020606160CC
:108C4000A260DD69186959699A69A2610123E56129
:108C50002061616184F83B3038BD00BFE122002013
:108C6000B022002098220020E2220020BCC8050883
:108C7000B8220020014B18680AF0D8BF78210020E4
:108C800038B5302200214DF097F80346642440F2B5
:108C9000DC5040F21A4140F26C7240F202251C7422
:108CA0005882132419209982DA8240F2753140F6F5
:108CB00043021D839C760E250A241877D9831E2033
:108CC00002211A84012283F82E00197283F82C10D5
:108CD00083F8225083F82D409A7383F8252083F877
:108CE0002B2019460248BDE838402BF0FFBD00BFDD
:108CF000C8C8050810B500210446012009F040F954
:108D0000207010BD38B500240472451EE1B2022067
:108D100009F036F90134082C05F8010FF6D138BDF9
:108D200038B500240546048021462846013431F038
:108D30005DFA082CF8D1002185F8E210A5F8E410BE
:108D4000A5F8E610A5F8E810A5F8EA10A5F8EC10CB
:108D5000A5F8EE10A5F8F010A5F8F2102846BDE829
:108D6000384031F005BA00BF2DE9F0410D46012130
:108D70001C460846164607F0D9FEC4B105EB442848
:108D80000E4F01E020F0CEFB3A680023146929461B
:108D90001A463046A0470028F4D120F0C3FB002833
:108DA000FBD005F50075454506F10106ECD1002123
:108DB000012007F0BBFE0020BDE8F081489A0020AA
:108DC0002DE9F0410D4601211C460846164607F0E4
:108DD000ADFEACB10E4F05EB44283A680023946811
:108DE00029461A463046A0470028F6D020F09AFBC4
:108DF0000028FBD005F50075454506F10106ECD1CC
:108E00000021012007F092FE0020BDE8F08100BFA4
:108E1000489A002008B520F085FB80F00100404210
:108E200040B208BD38B514460D4620F06DFB4FF436
:108E3000007302682A600020236038BD002108B555
:108E4000084607F073FE40F0C9FA20F06BFB0028DB
:108E5000FBD00121002007F069FE002008BD00BF03
:108E600010B5044C04480A46214620F089FE2046ED
:108E700010BD00BF10170020D4C8050810B5044C61
:108E800004480A46214620F07BFE204610BD00BF64
:108E900010170020E4C8050810B5044C04480A4621
:108EA000214620F06DFE204610BD00BF10170020A7
:108EB000F0C805080A4608B5054920B1054820F064
:108EC0005FFE034808BD044820F05AFE004808BD74
:108ED000101700201CC9050804C905082DE9F04F2A
:108EE00087B0A94A02904068038823F040031B041E
:108EF0001B0C0380038823F038031B0490424FEAC5
:108F0000134300F03F8102F5806290420CBF302293
:108F1000382213430380029B02889B6842F0400280
:108F2000028013B11A689B885383838940F2E93326
:108F300002E0002B00F090810289013B12F0020F49
:108F40009BB2F6D06B23838140F2E93302E0002B21
:108F500000F082810289013B12F0010F9BB2F6D032
:108F60008389838940F2E93302E0002B00F07181AC
:108F70000289013B12F0020F9BB2F6D0802383815D
:108F800040F2E93302E0002B00F063810289013BEB
:108F900012F0010F9BB2F6D08389029B9B6813B13C
:108FA0001A689B8813830623784CDFF8EC81DFF87E
:108FB000ECA1774D774E04939623DFF8E4C101933B
:108FC0004FF0100EDAF80430C3F30803002B40F022
:108FD000B280EFF31183002B40F0AD802068AA68C7
:108FE00023689842FAD133689A42F7D8D8F80070CB
:108FF0004FF47A7101FB07F39B1AB3FBF7F301FB04
:1090000000304FF47A774FF00109DAF80430C3F3F7
:109010000803002B70D1EFF31183002B6CD1236870
:10902000A96822689342FAD132689142F7D8D8F8F9
:10903000002007FB02FBABEB0101B1FBF2F107FBE8
:1090400003131B1AB3F57A7FDFD3019B013B019316
:10905000B8D1029B9B6813B11A689B885383029B0B
:10906000586840F2E933828902E0002B00F08580E5
:109070000289013B12F0020F9BB2F6D0F5238381E7
:1090800040F2E93301E0002B77D00289013B12F076
:10909000010F9BB2F7D08389838940F2E93301E065
:1090A000002B67D00289013B12F0020F9BB2F7D070
:1090B000FF23838140F2E93301E0002B5AD002897B
:1090C000013B12F0010F9BB2F7D08389DBB203930F
:1090D000029B9A6812B1136891881983039B682BCD
:1090E00060D0049B013B13F0FF0304937FF464AF53
:1090F000184607B0BDE8F08FEFF311818EF31288A8
:10910000D5F808B02B68DB0344BFCCF80090D5F845
:1091100008B02368DCF80020C9B281F31188D8F8C0
:109120000010134407FB01F2A2EB0B02B2FBF1F2B9
:1091300007FB032385E7EFF311838EF31288AF68F3
:109140002A68D20303D50122CCF80020AF6820683A
:10915000DCF80090DBB283F31188D8F800104FF4EC
:109160007A72484402FB01F3DB1BB3FBF1F302FB11
:10917000003046E736F0ACFFAAE736F0A9FF029BC5
:10918000586889E73022C4E600380040D0930020B8
:1091900010E000E0D8930020D493002000ED00E020
:1091A000CC93002012B1136892885A83029B5868AE
:1091B00040F2E933828901E0002B45D00289013B6E
:1091C00012F0020F9BB2F7D08C23838140F2E93377
:1091D00001E0002B38D00289013B12F0010F9BB255
:1091E000F7D08389838940F2E9330289013B12F089
:1091F000020F9BB215D1002BF7D136F069FF029B0D
:109200009B6813B11A689B881383059B142B04D3A6
:10921000182B17D9543B062B14D9002007B0BDE8F2
:10922000F08FFF23838140F2E93301E0002BE4D08B
:109230000289013B12F0010F9BB2F7D08389DBB2A8
:109240000593DCE7032054E736F042FF029B5868A1
:10925000C8E736F03DFFA0E636F03AFF029B5868BB
:109260007FE600BFF0B5876983B0064617B13B685B
:10927000BA885A837069DFF8A8E08389C3244FF461
:109280007A734FF0060C6D464FF6FF710EF1010E2A
:1092900003E0013B9BB28B4220D002899207F8D5B4
:1092A000A3B283814FF47A7302E0A3B28B4215D04C
:1092B0000289D20703F1FF34F7D5828992B20DB14A
:1092C0002A700135BCF1000F0BD00CF1FF3CFF24DC
:1092D000BEF1000FE1D09EF80040D7E736F0F8FE6F
:1092E000B76917B13B68BA881A839DF805009DF8E5
:1092F00001509DF802109DF803409DF804209DF850
:10930000063041EA052143EA002342EA0422012013
:10931000A6F85010A6F85220A6F8543003B0F0BDBD
:10932000D45E0508037B022B01D000207047F0B506
:10933000436983B013B11A689B885383044600695C
:1093400040F2E933828901E0002B5DD00289013BC4
:1093500012F0020F9BB2F7D0BB23838140F2E933B6
:1093600001E0002B50D00289013B12F0010F9BB2AB
:10937000F7D083898389038999074FF005076E46E3
:109380004FF47A724FF0FF0C4FF6FF7506D4531E60
:109390009BB2D2B11A4603899907F8D5A0F80CC040
:1093A0004FF47A7302E08BB2AB420ED00289D2073F
:1093B00003F1FF31F7D5828992B20EB132700136D6
:1093C0007A1E27B117461A46E5E736F081FE636933
:1093D00013B11A689B8813839DF804009DF8006000
:1093E0009DF801109DF802509DF803209DF805306E
:1093F00041EA062143EA002342EA05220120618373
:10940000A283E38303B0F0BD36F062FE2069B1E7CA
:1094100008B5012021F096FF174A936803F00C036A
:10942000042B1ED0082B18D151685368490203F051
:109430003F0319D452681148B0FBF3F0C2F388130C
:1094400000FB03F00C4B0E4A5B68C3F3014301338E
:109450005B00B0FBF3F0106008BD094B074A1A60CF
:1094600008BD074B186008BDB0FBF3F05368C3F3A9
:10947000881300FB03F0E5E7003802400024F40005
:10948000A48900202DE9F84F037C02681F2B86BFBA
:10949000203B51681168202202FA03F30B4214BFEB
:1094A000012300230BB9BDE8F88F4569DFF88891E7
:1094B000044609F0DDFA4FF4867303FB0593064674
:1094C0005A7C002A30D157495A6809781768C1B9BF
:1094D000D3F8801058890A6822F001020A60BB891B
:1094E00023EA0003BB81504B1B78002B30D1237C37
:1094F00021681F2B11D8202202FA03F38B60BDE8EC
:10950000F88F5269136823F001031360BB8923F4B9
:1095100080731B041B0CBB81E5E7203B202202FA71
:1095200003F3CB60BDE8F88FD3F880603F485F89D4
:1095300001229A7431685A680368156821F00101A4
:109540003160AA89013322EA0702AA810360CEE7CB
:109550004FF4867A0AFB05FA09EB0A05D5F88080F4
:10956000404621F0B9FD01236B74D5F884B009F0B1
:109570007FFA3B88CBF82C0123F080031B044FF0CB
:10958000FF321B0C3B80FA623B880AF1340143F046
:1095900080033B804944384621F02CFFD5E9157003
:1095A0002B6CD5F850C0D5E917123B4303430B434E
:1095B00013436A6E6F6FD8F800001D491343AA6EFB
:1095C0001343AA6F3B43014013430B430022EA6459
:1095D000C8F80030D5E91B30D8F81410D5F8802031
:1095E0006F6C21F0070103430B43A86C95F87C10C6
:1095F000C8F81430C8F804C0C8F80870C8F80C00DF
:1096000051606B68116818686D8941F00101116043
:1096100083892B43838109F02BFA064B801B18604A
:1096200065E700BF68190010641900103C2600208F
:109630003F801CF09C17001050A0002020B1007843
:10964000B0FA80F0400970470120704708B520212A
:109650004CF0C9FB0346184623B10278202A03F1D7
:109660000103F8D008BD037903F01803082B0AD0D2
:1096700002D82BB100207047102B14D0182BF9D131
:10968000B0F80B007047104BB0F80B0093F90030A6
:10969000591C06BF0D4B1B78DBB203EB831300EBA9
:1096A000430080B270470A4BB0F80B0093F90030CA
:1096B0005A1C06BF054B5B78DBB203EB031300EBD0
:1096C000430080B2704700BF010E0020AC9D002017
:1096D000000E0020F0B5067906F0E003402B09D11A
:1096E00044794FF0FF350023012006F00706A3421E
:1096F0000BD1F0BD602B08BF45794FF001040CBFC2
:1097000004FA05F54FF0FF35EDE7042E0CD8DFE83D
:1097100006F0030D18242E0030B1C85CD75C7840E9
:1097200028420CBF012000200133E0E70028FBD0D5
:10973000C856D756A0EB070CDCF1000040EB0C003C
:10974000F2E70028F0D031F8130032F813707840B7
:1097500028420CBF01200020E6E70028E4D031F9C0
:10976000130032F91370C71B78427841DCE70028F8
:10977000DAD051F8230052F82370784028420CBF09
:1097800001200020D0E7024B0146186836F0D0BC1B
:109790006C20002038B5064D441E14F8011F2868BF
:1097A00019B9BDE8384036F0B5BC36F0C1FCF4E775
:1097B0006C2000200048EDE78700060808B5FFF799
:1097C000E9FFBDE80840F5E710B504460348FFF798
:1097D000E1FF2046BDE81040F0E700BF04C80508DF
:1097E00008B532B1C30600D519B11046FFF7ECFF3A
:1097F0000022104608BD38B5074C084DAC4203D3D3
:10980000074B00221A7038BD6288D4E901014AF082
:10981000AFFF1434F2E700BF9001000844070008CE
:10982000BC7C002038B5074C074DAC4203D3074B36
:1098300001221A7038BD6288D4E901104AF098FFFD
:109840001434F2E79001000844070008BC7C0020B3
:10985000024A136823EA000010607047ACB200208F
:10986000DFED2E7AB4EEE70AF1EE10FA4ADDDFED15
:109870002C6A9FED2C7A01E0B0EE670AB4EEC70ABD
:10988000F1EE10FA70EE667AF6DC9FED277AF4EED0
:10989000C77AF1EE10FA3ED5DFED216A9FED237A0B
:1098A00001E0F0EE407AF4EEC77AF1EE10FA37EE0E
:1098B000A60AF6D4DFED1E7AB4EEE70AF1EE10FA4E
:1098C00014DDDFED167A37EEC00A60EE006A9FED18
:1098D000196A9FED197ADFED197AA6EE867A20EEE5
:1098E000266AE6EE877AA6EE270A7047DFED147A3D
:1098F000B4EEE70AF1EE10FA44BFDFED0B7A37EE73
:10990000C00AE2E79FED087AF0EE407AF4EEC77AFB
:10991000F1EE10FAC0D4B0EE670ACBE7DB0F494096
:10992000DB0FC940E4CB1641DB0F49C0E4CB16C1C5
:10993000DB0FC93F92E741B99730083C15A82ABE12
:10994000DB0FC9BFF0EEC07AB0EEE07AB4EEE77A92
:10995000F1EE10FAB4BFB0EE676AB0EE476AB5EE4A
:10996000406AF1EE10FA46D0B4EEE77AF1EE10FA62
:109970008CBFF0EE675AF0EE475AC5EE866A9FED4F
:109980001F3A9FED1F6A9FED1F4A9FED1F5ADFEDA3
:109990001F3ADFED1F4ADFED1F5AA6EEC36AE6EE5F
:1099A000A34AA6EE864AB7EE006AA6EE845AA6EE51
:1099B000A46AE6EE855AC5EE866AB4EEE77AF1EE61
:1099C00010FA48BFDFED147AF5EEC00A48BF77EE13
:1099D000E66AF1EE10FA48BFDFED107AB5EEC00A84
:1099E00048BF77EEE66AF1EE10FA48BFF1EE666A1C
:1099F000B0EE660A7047DFED076ADEE739094E3DD3
:109A0000E3B59E3E88FA163E45FE7F3F99FB243F14
:109A100069A2163EA7DFA834DB0FC93FDB0F494020
:109A2000DFED317A30EE277AFDEEC76A16EE903A16
:109A30002033402B02D99FED2D0A7047B4EEE70A80
:109A4000F1EE10FA4DDD9FED2A6ADFED2A6A01E0A2
:109A5000B0EE677AB4EEE67AF1EE10FA77EE467A77
:109A6000F6DC9FED257AF4EEC77AF1EE10FA35D5E3
:109A7000DFED1F6A9FED217A01E0F0EE407AF4EE0F
:109A8000C77AF1EE10FA37EEA60AF6D4DFED167AB1
:109A9000B4EEE70AF1EE10FA1BDCDFED197AB4EE52
:109AA000E70AF1EE10FA44BFDFED137A37EEC00A91
:109AB00060EE006A9FED136A9FED137ADFED137A73
:109AC000A6EE867A20EE266AE6EE877AA6EE270ACA
:109AD0007047DFED0F7A37EEC00AE9E7B0EE670AAC
:109AE000D4E7F0EE477ABCE7DB0FC93F0000000087
:109AF000DB0FC940E4CB1641DB0F49C0E4CB16C1F4
:109B0000DB0FC9BF92E741B99730083C15A82ABEC0
:109B1000DB0F494010B44C09012250F8243001F009
:109B20001F0102FA01F123EA010340F824305DF835
:109B3000044B704710B44C09012250F8243001F056
:109B40001F0102FA01F10B4340F824305DF8044B89
:109B5000704700BF4B0901F01F0150F8232001237B
:109B600003FA01F1114214BF18460020704700BFEC
:109B70002DE9F043002489B006460D461F46A04655
:109B800005E025290CD030460134A847039A531C20
:109B9000039311780029F4D1204609B0BDE8F08381
:109BA000931CCDE903385078302842D0A0F130031F
:109BB000DBB2092B4FF0000945D96C282AD0642864
:109BC00073D019D9732858D063D9752840F0828092
:109BD00007F1040C386805AB00220A216746FEF73E
:109BE0003FFB05AB049A009329464B463046FEF7EF
:109BF0000DFA039A0444CAE725283CD051D95828C5
:109C00006BD06328C2D139783046A8470437013475
:109C1000039ABCE7039B5A1C03921B78642B52D017
:109C200016D8252B27D064D9582B18D0632BEAD00F
:109C3000ADE7D31C03939078A0F13003DBB2092B7E
:109C40004FF00109B9D804AA03A93FF02BFEB4E7ED
:109C5000732B12D051D9752B2DD0782B97D1A3F11E
:109C60005802B2FA82F23868520905AB1021043763
:109C7000FEF7F6FAB5E7252185E73B68049A0093DD
:109C8000294600233046FEF7C1F904370444039AFD
:109C90007DE76E287FF47AAF039A3B6804371C6037
:109CA00075E700283FF478AF70E7386805A9FEF73C
:109CB000A1FA043795E7386805AB00220A21FEF7C0
:109CC000CFFA04378DE73B1D386805A91F46FEF71C
:109CD00091FA86E778287FF459AFA0F15802B2FADA
:109CE00082F23868520905AB1021FEF7B9FA043741
:109CF00077E7002B3FF450AF49E76E2BCDD046E716
:109D000010B5064C0B46024605492068FFF730FFA8
:109D10002068BDE8104036F0FDB900BF6C2000207F
:109D2000E18B000838B504460D460848FFF732FDC0
:109D300029462046FFF7E4FF0548FFF72BFD054BBA
:109D40001B7813B1044B01221A7038BD09C80508ED
:109D5000A9F90508C8210020C92100200FB407B5C2
:109D600004A951F8040B0191FFF7DCFFFFF722FD76
:109D700003B05DF804EB04B0704713460A46014691
:109D80000048EBE714C805080048E7E72DC80508B8
:109D90000FB407B504A951F8040B0191FFF7C2FFF6
:109DA00003B05DF804EB04B070470FB407B504A925
:109DB00051F8040B0191FFF7A3FFFFF7FBFC03B081
:109DC0005DF804EB04B070470FB407B504A951F86F
:109DD000040B0191FFF794FF03B05DF804EB04B0AE
:109DE00070472DE9F843037903F0E001202928D0DA
:109DF00002D849B1BDE8F883402945D06029F9D19E
:109E00002448BDE8F843D0E703F00703022B02D053
:109E1000042B08D06BB9B0F80720B0F805101E4825
:109E2000BDE8F843C1E7D0F805201B48BDE8F8437A
:109E3000BBE7B0F90720B0F905101748BDE8F843B3
:109E4000B3E74579154E1648FFF7A4FC06EBC502AB
:109E5000002492F804800123A04502D8BDE8F8430D
:109E6000A8E456F8357057F824204FEA84094AB11F
:109E700013B90C48FFF78EFC57F809100A48FFF792
:109E8000A3FF00230134E7E741790848BDE8F84320
:109E90008BE700BF75C8050839C80508C08E0508DE
:109EA00050C8050861C8050818F5050864C8050804
:109EB0002DE9F0411746027902F0E003402B0546F8
:109EC0000E462BD10024584FDFF8808115E02B7906
:109ED00003F00703022B15D0032B19D0012B14BF5D
:109EE000315D31573846FFF76FFF6B79013BA34275
:109EF00002DD4046FFF74EFC01346B79A342E6DCFD
:109F0000BDE8F08136F814103846FFF75DFFECE746
:109F100036F914103846FFF757FFE6E702F007025C
:109F2000042A5DD8DFE802F0031D25272A003478D3
:109F3000202B3AD06DD8002BE2D1B5F80560B5F8EA
:109F4000078039482146FFF73FFFB44240DB4445D4
:109F50003EDC002FD4D0424631463448BDE8F041C3
:109F600032E796F90040202B1FD052D8002B3DD06D
:109F7000C6E73488DCE7B6F90040F4E7D6F800809D
:109F8000202B444611D044D8002BB9D14146264855
:109F9000FFF71AFFD5F80510884519D8002FAFD064
:109FA0002348BDE8F0410FE700246A79214B03EB19
:109FB000C2010979A1420BDD53F8323053F8240075
:109FC000BDE8F041FFF7E6BB1B48BDE8F041FBE60A
:109FD000FFF7F0FB224629681848BDE8F041D7E6B4
:109FE000202BE1D007D8002B8AD11C46B5F905609B
:109FF000B5F90780A5E7602BE6D0802B80D13178BA
:10A000000F4B1048002914BF31461946BDE8F041F6
:10A01000DAE6602BF1D16A791441E307D4D50A4816
:10A02000BDE8F041D0E600BF4DC805084AF5050877
:10A030008FC80508C08E0508CD37060895C80508E5
:10A040002538060818F505088AC805088DC80508CA
:10A050000CB407B510F020000BD079B92320FFF71E
:10A0600092FB05A904980191FFF74AFEFFF7A2FBB6
:10A07000012003B05DF804EB02B070470020F8E760
:10A080000CB4C30607B500D561B905A904980191C0
:10A09000FFF736FEFFF78EFB012003B05DF804EBFF
:10A0A00002B070470020F8E70EB400B584B005ABED
:10A0B000019053F8042B0649039301A8FFF758FDBC
:10A0C000019B00221A7004B05DF804EB03B07047E6
:10A0D0000180000870B406688E4217D90139751ED8
:10A0E000002311F8014F0822634013F0800F4FEA5C
:10A0F000430318BF83F0D503013ADBB2F5D18D429B
:10A10000EFD1721C0260337070BC7047721C002368
:10A110000260337070BC70470A44914215D010B48D
:10A120000139541E11F8012F0823504010F0800F00
:10A130004FEA400018BF80F0D500013BC0B2F5D116
:10A14000A142EFD15DF8044B7047704748400823A7
:10A1500010F0800F4FEA400018BF80F0D500013B9F
:10A16000C0B2F5D1704700BF0A44914215D030B457
:10A170000139551E41F2210211F8014F082380EAEE
:10A18000042004044CBF82EA40004000013B80B23E
:10A19000F7D18D42F0D130BC7047704770B50222C4
:10A1A0001349144C144E4FF6FF70FFF7DDFF228861
:10A1B0004AB1A518B54218D2052A16D92146FFF78B
:10A1C000D3FF2C46F3E721460222FFF7CDFF022200
:10A1D000A118FFF7C9FF094BE41A094B1C8041F68F
:10A1E0000F53C31A5842584170BD0020FCE700BF0E
:10A1F000004000080240000800800008FA3F000804
:10A20000327D00200F4B2DE93048D3E9004554EA58
:10A2100005020AD1034640F20112002018809880FE
:10A2200098715A801881BDE83088074B1A6814EB82
:10A23000020B45F1000C5A466346FDF723FF01204F
:10A24000BDE8308888800020D093002030B4038897
:10A250008278C478154DA3F5FA6303F0030101EB8E
:10A260004101013A02EB81029B0835F81250027954
:10A27000611E40F2B55404FB03132B4403EB43036C
:10A2800002EBC3034279847909490089C3EB0313C4
:10A2900002EB83032144C3EB031301EB83034FF46D
:10A2A0007A720021C2FB030130BC7047605E050872
:10A2B00080436D382DE9F04707468CB01E46924624
:10A2C000002A5CD1154614460A88B2F5FA6F36D3D7
:10A2D0008B78581E0B2832D891F803C00CF1FF3050
:10A2E0001E282CD891F804E0BEF1170F27D891F85A
:10A2F0000590B9F13B0F22D888793B281FD8B1F8D7
:10A300000880B8F57A7F1AD24FF001085EBB098940
:10A310000491002CB4BF2D212B21002CB8BF644226
:10A32000CDE90290CDE905140795CDE900CE384678
:10A330002A49FFF7B9FE40460CB0BDE8F08700237C
:10A340002749ADF828304FF0010C18468DF82A3017
:10A35000ADF82C3099469E461A46984609916346B8
:10A3600009A9002ED3D0CDE90290CDE900CE384620
:10A370001C49FFF799FE40460CB0BDE8F0871A4C27
:10A3800084FB0234A318D417C4EB6314C4EB041584
:10A39000A2EB85052DB2002D0846B8BF6D42FFF730
:10A3A00055FF4FF47A7200238046894649F046FFF4
:10A3B0003C230AFB030A4FF47A72002340464946C5
:10A3C00049F03CFF4FF47A7192B20023C1FB0A239B
:10A3D00009A8FDF757FE24B209A975E754C9050875
:10A3E0000000010134C90508898888880378202B7A
:10A3F000024600F10100F9D0092BF7D02D2B00F017
:10A40000A4802B2B03BF5378B7EE000A0246B7EEA9
:10A41000000AA3F13001C8B209289FED577A10D87D
:10A42000F2EE046A07EE901AF8EEE77A12F8013FAE
:10A43000E7EE267AA3F13001C8B20928B0EE677AB8
:10A44000F0D92E2B63D003F0DF03452B02D020EE92
:10A45000070A704710B451782D294FD02B2979D095
:10A46000A1F13003092B02F101027AD80024002364
:10A4700003EB830301EB430312F8011FA1F130004A
:10A480000928A3F13003F3D9B3F59A7F1A4628BF00
:10A490004FF49A72072B6CD9DFED386A1346F7EE4A
:10A4A000007A083B072B67EEA67AFAD802F007027B
:10A4B000DAB1F2EE046A012A67EEA67A15D0022A12
:10A4C00067EEA67A11D0032A67EEA67A0DD0042A89
:10A4D00067EEA67A09D0052A67EEA67A05D067EE60
:10A4E000A67A062A18BF67EEA67A002C3BD087EE24
:10A4F000277A5DF8044B20EE070A70479178A1F1A6
:10A500003003092B02F1020230D80124AFE753785F
:10A51000A3F13001C8B2092802F1010293D8F2EE8A
:10A52000046AF0EE665A07EE901AF8EEE77A12F82F
:10A53000013F87EEA66AA3F13001C8B2092866EE92
:10A54000A56A37EE067AEED97DE75378BFEE000AAA
:10A5500002465EE79178A1F13003092B02F1020275
:10A5600084D9F7EE007A27EE277AC2E7F7EE007A71
:10A57000BDE7F7EE007A9BE70000000020BCBE4C70
:10A58000F8B5064615460846B6FBF2F434B905FBA5
:10A5900014640C4B1B5D00F8013BF8BDB4FBF2F7F3
:10A5A0005FB905FB1747074B05FB1464DA5D00F83C
:10A5B000012B1B5D00F8013BF8BD3846FFF7E0FFBB
:10A5C000EFE700BF84C90508B5EEC00ADFED677A82
:10A5D000674AF1EE10FACCBF30EE270A30EE670A78
:10A5E000DFED647A20EE270A2DE9F047FDEEC07A10
:10A5F00088B017EE904A84EAE4760023A6EBE4766E
:10A60000CDE902330493A2FB06325FEAD208054685
:10A6100041D105AF58483946554BA3FB0623DB080B
:10A6200003EB8303A6EB4303002CC35C0B704FF0DA
:10A630000002ACBF20232D234A7038468DF8083025
:10A6400049F006F90128394639D0022842D00328BA
:10A6500005BF302302A802A88DF809304BF0B4FBE7
:10A6600002A849F0F5F80338C4B2224602A92846E8
:10A670004BF0E0FB00232B55284649F0E9F82E2249
:10A68000431C02A92A542144E8184BF0B9FB284680
:10A6900008B0BDE8F087394BA3FB06235B0922D144
:10A6A00005AF35483946324AA2FB0832D20802EBE0
:10A6B0008202A8EB4202835C01F8013BACE7302345
:10A6C00002A88DF809308DF80A308DF80B304BF068
:10A6D0007BFBC5E7302302A88DF809308DF80A30DE
:10A6E0004BF072FBBCE7264AA2FB06125FEA921906
:10A6F0000ED105AF204839461D4AA2FB03C2D2083D
:10A7000002EB8202A3EB4203C35C01F8013BCAE700
:10A710001C4AA2FB06125FEA523A0ED105AF164858
:10A720003946134AA2FB09C2D20802EB8202A9EB06
:10A730004202825C01F8012BDEE71348B6FBF0F021
:10A7400058B905AF39460A20BAFBF0F200FB12A255
:10A750000948825C01F8012BE3E705AF39460A227C
:10A760000193FFF70DFF019B0146ECE76F12033ADF
:10A77000CDCCCCCC00007A4484C905081F85EB51B0
:10A78000D34D62105917B7D1A086010002B370B43F
:10A790008E1803E0121B14D1B14215D010F8012B12
:10A7A000A2F14103192B11F8013BA3F1410598BF18
:10A7B0002032192D03F12004ECD9D21A01D1002B3B
:10A7C000EAD1104670BC70470022104670BC70473A
:10A7D0001046704770B5044608460D4649F038F8F3
:10A7E000064602E014F8013F43B1324629462046AE
:10A7F000FFF7CCFF0028F5D1204670BD1C4620464F
:10A8000070BD00BF4FF0FF32FFF7C0BFA0F1610382
:10A81000192B98BF20387047A0F14103192B98BF1E
:10A8200020307047202805D0093804288CBF00202C
:10A8300001207047012070472DE9F0411F46064670
:10A8400003461C782046FFF7EDFF1D460133002824
:10A85000F7D12B2C51D02D2C24D0102A804628D073
:10A860004FF0FF33B3FBF2F302FB03FC6FEA0C0C77
:10A870005FFA8CFC013500200BE0303CE4B29442DE
:10A8800025DA98422E461DD81AD002FB004015F852
:10A89000014B392CF1D944F02004602C17D9573CD6
:10A8A000E4B2ECE74FF00108102A6C7805F10105DD
:10A8B000D6D1302C23D06FF070434FF00F0CD9E776
:10A8C0006445E2D907EA08084FF0FF30DFE701B13D
:10A8D0000E60B8F1000F08D027B1B0F1004F28BFCB
:10A8E0004FF000404042BDE8F081002FFBD06FF0F8
:10A8F0000043984228BF1846F5E78046D4E76C78B5
:10A900002046FFF789FF782805F1010605D0354676
:10A910006FF070434FF00F0CACE7AC786FF0704302
:10A9200002354FF00F0CA5E701230A22002183E72F
:10A9300070B50D461446FEF789FE0646A0B1FFF736
:10A94000F3FF40F634039842A8BF1846B0F5617F84
:10A95000B8BF4FF461701923A0F5617090FBF3F05C
:10A9600028702378013323703046FEF76FFE0646C9
:10A97000A0B1FFF7D9FF40F634039842A8BF1846AC
:10A98000B0F5617FB8BF4FF461701923A0F5617015
:10A9900090FBF3F06870237801332370304670BD6C
:10A9A000613819288CBF00200120704741381928D0
:10A9B0008CBF002001207047303809288CBF002050
:10A9C00001207047A0F13003092B07D920F02000A7
:10A9D000413819288CBF00200120704701207047A2
:10A9E00007EE901AF8EE677A9FED807A27EE800ADC
:10A9F00020EE070AFDEEC07A17EE903A2033402B86
:10AA00007BD8DFED7B7AB4EEE70AF1EE10FA40F383
:10AA1000E180B0EE407A9FED776ADFED776A01E082
:10AA2000B0EE677AB4EEE67AF1EE10FA77EE467A97
:10AA3000F6DC9FED727AF4EEC77AF1EE10FA40F18F
:10AA4000CC809FED6C6ADFED6E6A01E0F0EE477A34
:10AA5000F4EEE67AF1EE10FA37EE867AF6D4DFED10
:10AA6000697AB4EEE77AF1EE10FA40F3A280DFEDF6
:10AA7000607A37EEC77A27EE076ADFED635ADFEDBB
:10AA8000637ADFED636A9FED635AE6EE257A67EE3F
:10AA9000065AE6EE276AF7EE007AA5EEA67AF0EE01
:10AAA000675AE7EE055AE7EE457A87EEA55ADFEDDD
:10AAB000557A30EE277AFDEEC76A16EE903A2033CB
:10AAC000402B1FD99FED547AF6EE006AB7EE006A6C
:10AAD000F7EE004AC4EEA57A80ED045A67EEA66A46
:10AAE00027EE866A27EE877AC0ED006AC0ED026A1B
:10AAF00080ED016A80ED037A7047B7EE005AF0EE00
:10AB0000455AD4E7B4EEE70AF1EE10FA6BDD9FED9B
:10AB1000396ADFED396A01E0B0EE677AB4EEE67AC1
:10AB2000F1EE10FA77EE467AF6DC9FED347AF4EE29
:10AB3000C77AF1EE10FA53D59FED2E6ADFED306A39
:10AB400001E0F0EE477AF4EEE67AF1EE10FA37EE35
:10AB5000867AF6D4DFED2B7AB4EEE77AF1EE10FACE
:10AB600033DCDFED2E7AB4EEE77AF1EE10FA44BF73
:10AB7000DFED227A37EEC77A27EE076ADFED224A49
:10AB8000DFED226ADFED227AE6EE246A67EE064AFE
:10AB9000E6EE267AB7EE006AA4EEA77AF6EE006A31
:10ABA00036EE476AF8EE007A27EE277A66EE266AD6
:10ABB0008EE7DFED1A7AB4EEE77AF1EE10FA44BFD1
:10ABC000DFED0E7A37EEC77A55E7DFED097A37EE1B
:10ABD000C77AD1E7F0EE407A2BE7B0EE677A3EE72E
:10ABE000B0EE677AB6E7F0EE477A9EE727D4D23622
:10ABF000DB0F4940DB0FC940E4CB1641DB0F49C0F6
:10AC0000E4CB16C1DB0FC93F92E741B99730083C4E
:10AC100015A82ABEF304353F00000000DB0FC9BFB2
:10AC200007EE901AF8EE677A9FED837A27EE800A96
:10AC300020EE070AFDEEC07A17EE903A2033402B43
:10AC400000F28180DFED7D7AB4EEE70AF1EE10FAD2
:10AC500040F3E680B0EE407A9FED796ADFED796AE5
:10AC600001E0B0EE677AB4EEE67AF1EE10FA77EE34
:10AC7000467AF6DC9FED747AF4EEC77AF1EE10FABC
:10AC800040F1D1809FED6E6ADFED706A01E0F0EE79
:10AC9000477AF4EEE67AF1EE10FA37EE867AF6D4D9
:10ACA000DFED6B7AB4EEE77AF1EE10FA40F3A780AD
:10ACB000DFED627A37EEC77A27EE076ADFED655A75
:10ACC000DFED657ADFED656A9FED655AE6EE257A80
:10ACD00067EE065AE6EE276AF7EE007AA5EEA67A48
:10ACE000F0EE675AE7EE055AE7EE457A87EEA55A89
:10ACF000DFED577A30EE277AFDEEC76A16EE903A0E
:10AD00002033402B24D99FED577AF6EE006AB7EE38
:10AD1000006AF7EE004AC4EEA57A0023836143611E
:10AD20000362C36180ED045A67EEA66A27EE866A65
:10AD300027EE877AC0ED006AC0ED026A80ED016AF5
:10AD400080ED037A7047B7EE005AF0EE455ACFE730
:10AD5000B4EEE70AF1EE10FA6BDD9FED396ADFED34
:10AD6000396A01E0B0EE677AB4EEE67AF1EE10FAF5
:10AD700077EE467AF6DC9FED347AF4EEC77AF1EEA0
:10AD800010FA53D59FED2E6ADFED306A01E0F0EE48
:10AD9000477AF4EEE67AF1EE10FA37EE867AF6D4D8
:10ADA000DFED2B7AB4EEE77AF1EE10FA33DCDFED6B
:10ADB0002E7AB4EEE77AF1EE10FA44BFDFED227A94
:10ADC00037EEC77A27EE076ADFED224ADFED226A07
:10ADD000DFED227AE6EE246A67EE064AE6EE267A90
:10ADE000B7EE006AA4EEA77AF6EE006A36EE476A7E
:10ADF000F8EE007A27EE277A66EE266A89E7DFED1D
:10AE00001A7AB4EEE77AF1EE10FA44BFDFED0E7A6B
:10AE100037EEC77A50E7DFED097A37EEC77AD1E728
:10AE2000F0EE407A26E7B0EE677A39E7B0EE677A5F
:10AE3000B6E7F0EE477A9EE727D4D236DB0F4940DB
:10AE4000DB0FC940E4CB1641DB0F49C0E4CB16C190
:10AE5000DB0FC93F92E741B99730083C15A82ABEDD
:10AE6000F304353F00000000DB0FC9BF30B40268B7
:10AE70001146531C036011F8024B0160D31C51783A
:10AE800003609378151D05601B0443EA0123D07805
:10AE9000234343EA006030BC704700BF0368591C7D
:10AEA0001A46016012F8021B0260587841EA00203D
:10AEB000704700BF03685A1C02601878704700BFD3
:10AEC00070B5044608460E4648F0C2FC31460546B9
:10AED0000246206849F04CFC20682844206070BD80
:10AEE00038B504460068154649F042FC22682A44F9
:10AEF000226038BD036810B40A0E5C1C04601A702E
:10AF000003680A0C5C1C04601A7003680A0A5C1C63
:10AF100004601A7003685A1C026019705DF8044BD3
:10AF2000704700BF036810B40A0A5C1C04601A7002
:10AF300003685A1C026019705DF8044B704700BF2B
:10AF400003685A1C026010B4197003680A0A5C1C7A
:10AF500004601A7003680A0C5C1C04601A700368B1
:10AF6000090E5A1C026019705DF8044B704700BF4F
:10AF700003685A1C026019700368090A5A1C0260AF
:10AF80001970704770B544880546C4F30B04224617
:10AF9000084600214AF010FF2969094A91420346F8
:10AFA00002D3084A914204D341B11846BDE870402B
:10AFB00008472246BDE8704049F0DABB70BD00BFCB
:10AFC00044070008B208000838B5064C064DAC42EC
:10AFD00006D2616820461434FFF7D4FFAC42F8D3A0
:10AFE00038BD00BF9001000844070008084B09491C
:10AFF0008B4203D309E014338B4206D21A88C2F382
:10B000000B029042F7D1184670470023184670474C
:10B0100090010008440700082DE9F74F0F46019002
:10B0200000213846FEF7DCFBDFF8C4A000900025C5
:10B030002E4B186835F06EF80D242D4B019A6C4399
:10B04000E3181B7903F01803934203D0002A45D17B
:10B05000182B43D10D2606FB05A35444B3F8090071
:10B06000FFF7C4FF81462046FEF7FDFAD9E901212A
:10B070008046024401442046FEF72CFB80F001018B
:10B08000009A8346C9B23846FEF7AAFBFA0600903A
:10B0900002D5BBF1000F21D106FB05A6BB06366821
:10B0A0000FD5BBF1000F0CD131461248FEF78CFED4
:10B0B000D9F804105A4641442046FEF7F9FEFEF73F
:10B0C00079FB31460C48FEF77FFED9F808100022C4
:10B0D00041442046FEF7ECFEFEF76CFB013540F2E2
:10B0E000F3139D42A4D103B0BDE8F08F6C20002083
:10B0F00090930508AFC80508B0C8050870B50546A7
:10B10000B0F80900FFF772FF064B1E780446284688
:10B11000FEF7A9FA16B1A368184470BD6368184415
:10B12000FBE700BFBC7C002038B505460C46FFF7A6
:10B13000E5FF2A7902F0070302F0E002602A28D135
:10B14000022B0ED0042B18D03BB96A79012393400F
:10B15000DBB2027814B11343037038BD22EA030353
:10B16000FAE76A79012393409BB2028814B1134332
:10B170000380F2E722EA0303FAE76A79012303FA7C
:10B1800002F2036814B113430360E6E723EA020303
:10B19000FAE7042BE1D8DFE803F003030505070015
:10B1A0000470DAE70480D8E70460D6E738B50D46C6
:10B1B0000446FFF7A3FF2A4601462046BDE8384073
:10B1C000FEF776BE08B5064B186838B134F056FC69
:10B1D000044B9B7813B180F00100C0B208BD00BFE2
:10B1E000482300201C38002008B53EF0AFF81CF0C2
:10B1F00059FE1B2034F016FA18B123220023827165
:10B20000C3713CF0F9FC18B1232200238271C37191
:10B210000B4B9B78022B03D10A4B5B79012B01D09E
:10B22000012008BD084B094A03F1200103F14C003D
:10B2300013603DF083FE064B002083F8230008BD19
:10B24000DC800020409A0020BC0100200042002049
:10B2500000ED00E008B50021032020F083F872B66D
:10B2600049F010FA08B5FFF7ADFF0028FBD1142014
:10B2700007F0AEFC00BFFFF7A5FF0028FAD0FFF7EC
:10B28000E9FF00BF0388174A23F040031B041B0C8F
:10B290000380038823F038031B0490424FEA1343D2
:10B2A0001DD002F58062904219D0B1F5807FA8BF11
:10B2B0004FF480710229B8BF0221002991FAA1F14F
:10B2C000B1FA81F108BF4FF0FF31013943EAC10102
:10B2D00089B20180038843F0400303807047490826
:10B2E000E3E700BF003800401378A3B11D2812DC4B
:10B2F00070B41E24084E14FB0101151A281931449C
:10B3000001E0824205D001F8013F12F8013F002B15
:10B31000F7D170BC70477047435E00202DE9F84FAD
:10B32000DFF8C88298F8003003B1FEE7A94FAA4AB7
:10B330007B6812881C88A94E24F04004240401254F
:10B34000240C88F800501C801D8825F038052D0439
:10B35000B3424FEA154500F0DD81A14CA34200F055
:10B36000D981B2F5807FA8BF4FF48072022AB8BF9E
:10B370000222002A92FAA2F2B2FA82F208BF4FF039
:10B38000FF32013A45EAC20292B21A801C88BA68BA
:10B3900044F040041C8012B1146892886283914A80
:10B3A0008B46998901211170044640F2E93202E08E
:10B3B000002A00F0B1811989013A11F0020F92B20E
:10B3C000F6D000229A8140F2E93202E0002A00F031
:10B3D000A3811989013A11F0010F92B2F6D09A892E
:10B3E0009A8940F2E93202E0002A00F0AE81198920
:10B3F000013A11F0020F92B2F6D000229A8140F287
:10B40000E93202E0002A00F0A0811989013A11F026
:10B41000010F92B2F6D09A899A8940F2E93202E09D
:10B42000002A00F08D811989013A11F0020F92B2C1
:10B43000F6D009229A8140F2E93202E0002A00F0B7
:10B440007F811989013A11F0010F92B2F6D09A89E1
:10B450009A8940F2E93202E0002A00F06C811989F1
:10B46000013A11F0020F92B2F6D0A4B29C8140F2E0
:10B47000E93202E0002A00F05E811989013A11F0F8
:10B48000010F92B2F6D09A89574E0BF1FF3B00257F
:10B490004FF00A0A4FF00B099A8940F2E93202E0B4
:10B4A000002A00F018811989013A11F0020F92B2B6
:10B4B000F6D0A3F80CA040F2E93202E0002A00F036
:10B4C0000A811989013A11F0010F92B2F6D09A89D6
:10B4D0009A8940F2E93202E0002A00F006811989D7
:10B4E000013A11F0020F92B2F6D0AAB29A8140F25C
:10B4F000E93202E0002A00F0F8801989013A11F0DF
:10B50000010F92B2F6D09A899A891BF8014F40F246
:10B51000E93202E0002A00F0ED801989013A11F0C9
:10B52000020F92B2F6D0A3F80C9040F2E93202E09A
:10B53000002A00F0DF801989013A11F0010F92B260
:10B54000F6D09A899A8940F2E93202E0002A00F0A6
:10B55000C7801989013A11F0020F92B2F6D0A4B255
:10B560009C8140F2E93202E0002A00F0B98019899A
:10B57000013A11F0010F92B2F6D09A89326832B1D5
:10B58000116892884869024214BF4A830A830135D0
:10B59000362D81D19A8940F2E93202E0002A00F08A
:10B5A000C5801989013A11F0020F92B2F6D0082233
:10B5B0009A8140F2E93202E0002A00F0B78019894E
:10B5C000013A11F0010F92B2F6D09A899A8940F2AD
:10B5D000E93210E04C890020700E00200038004055
:10B5E000003C00401E7400209C9300201D7400202D
:10B5F000002A00F096801989013A11F0020F92B2E8
:10B60000F6D0A0229A8140F2E93202E0002A00F04E
:10B6100088801989013A11F0010F92B2F6D09A8907
:10B62000A02500249A8940F2E93201E0002A66D080
:10B630001989013A11F0020F92B2F7D09D8140F2C0
:10B64000E93201E0002A5AD01989013A11F0010FBC
:10B6500092B2F7D09A899A8940F2E93201E0002A41
:10B6600052D01989013A11F0020F92B2F7D09C81A1
:10B6700040F2E93201E0002A46D01989013A11F07E
:10B68000010F92B2F7D09889C0B28206CAD4BA68C4
:10B6900012B1116892880A831A882E4922F040025A
:10B6A0001204120C1A801A8822F0380212048B42FB
:10B6B0004FEA124205D001F580618B4218BF42F07B
:10B6C00008021A801A88002142F040021A8088F885
:10B6D0000010BDE8F88F184634F0FAFC7B68F7E6F6
:10B6E000184634F0F5FC7B6848E7184634F0F0FC67
:10B6F0007B6809E7184634F0EBFC7B6822E71846C4
:10B7000034F0E6FC7B68A6E7184634F0E1FC7B6881
:10B71000C0B2BAE7520824E6184634F0D9FC7B6878
:10B720005EE6184634F0D4FC7B6879E7184634F0BE
:10B73000CFFC7B684AE7184634F0CAFC7B68A3E676
:10B74000184634F0C5FC7B6882E6184634F0C0FC2D
:10B750007B6861E60038004030B5214D6B6883B0EE
:10B760009A8940F2E93200E06AB31C89013A14F088
:10B77000020F92B2F8D080B2988140F2E93200E034
:10B780000AB31889013A10F0010F92B2F8D09A89E1
:10B790009A8940F2E93200E0E2B11889013A10F0EA
:10B7A000020F92B2F8D089B2998140F2E93200E0FA
:10B7B00082B11989013A11F0010F92B2F8D098893B
:10B7C000C0B203B030BD1846019134F081FC6B6803
:10B7D0000199DDE7184634F07BFCC0B2F1E700BF09
:10B7E0004C89002008B5838940F2E93300E0A3B119
:10B7F0000289013B12F0020F9BB2F8D089B281811D
:10B8000040F2E93300E043B10289013B12F0010F3D
:10B810009BB2F8D08089C0B208BD34F059FCC0B2E8
:10B8200008BD00BF2DE9F84FDFF8D882B14BD8F83A
:10B8300004001B880288B04922F040021204120C56
:10B840000280028822F03802120488424FEA124233
:10B8500000F0B48201F58061884200F0AF82B3F558
:10B86000807FA8BF4FF48073022BB8BF0223002B48
:10B8700093FAA3F3B3FA83F308BF4FF0FF33013B0E
:10B8800042EAC3039BB203800388D8F8082043F040
:10B890004003038012B1136892885A83838940F26F
:10B8A000E93302E0002B00F0C5820289013B12F06F
:10B8B000020F9BB2F6D00523838140F2E93302E008
:10B8C000002B00F0B7820289013B12F0010F9BB2FE
:10B8D000F6D08389838940F2E93302E0002B00F03F
:10B8E000A4820289013B12F0020F9BB2F6D0002322
:10B8F000838140F2E93302E0002B00F09682028956
:10B90000013B12F0010F9BB2F6D08389838940F28C
:10B91000E93302E0002B00F0A1820289013B12F022
:10B92000020F9BB2F6D00623838140F2E93302E096
:10B93000002B00F093820289013B12F0010F9BB2B1
:10B94000F6D08389838940F2E93302E0002B00F0CE
:10B9500080820289013B12F0020F9BB2F6D00023D5
:10B96000838140F2E93302E0002B00F07282028909
:10B97000013B12F0010F9BB2F6D0838983895F4BA4
:10B9800093F8FF4040F2E93344F0010402E0002B59
:10B9900000F05A820289013B12F0020F9BB2F6D0EE
:10B9A0000423838140F2E93302E0002B00F04C8253
:10B9B0000289013B12F0010F9BB2F6D08389838983
:10B9C00040F2E93302E0002B00F039820289013BAA
:10B9D00012F0020F9BB2F6D0A4B2848140F2E93398
:10B9E00002E0002B00F02B820289013B12F0010FD4
:10B9F0009BB2F6D08389424E3388002B4BD0DFF8C0
:10BA00000891DFF808A14F4607254FF0200B1AF8E0
:10BA1000014F8389FF2C40F2E93303D1A4E1002BCD
:10BA200000F0D3810189013B11F0020F9BB2F6D0E7
:10BA3000858140F2E93302E0002B00F0C6810189E4
:10BA4000013B11F0010F9BB2F6D08389838940F24C
:10BA5000E93302E0002B00F0B3810189013B11F0D2
:10BA6000020F9BB2F6D0A4B2848140F2E93302E027
:10BA7000002B00F0A5810189013B11F0010F9BB261
:10BA8000F6D083899AF8003007F8013B3188A7EB9C
:10BA900009039942BBDC838940F2E93302E0002BC1
:10BAA00000F0F0810289013B12F0020F9BB2F6D048
:10BAB0000723838140F2E93302E0002B00F0E281AA
:10BAC0000289013B12F0010F9BB2F6D08389838972
:10BAD00040F2E93302E0002B00F0CF810289013B04
:10BAE00012F0020F9BB2F6D0FF23838140F2E933BC
:10BAF00011E000BF700E0020003800401017002039
:10BB0000C00500204C89002010180020435E002052
:10BB1000002B00F0B2810289013B12F0010F9BB2B1
:10BB2000F6D08389AE4B93F8FF40838940F2E93326
:10BB300002E0002B00F09C810289013B12F0020F11
:10BB40009BB2F6D00423838140F2E93302E0002B5C
:10BB500000F08E810289013B12F0010F9BB2F6D0FA
:10BB60008389838940F2E93302E0002B00F07B8176
:10BB70000289013B12F0020F9BB2F6D0A4B284817D
:10BB800040F2E93302E0002B00F06D810289013BB5
:10BB900012F0010F9BB2F6D083893388002B00F09E
:10BBA000BF80DFF844920024FF27072503E001341B
:10BBB000A34240F3B58019F80420FF2AF7D1838906
:10BBC0004FEA242A40F2E93302E0002B00F02881FA
:10BBD0000289013B12F0020F9BB2F6D0052383814C
:10BBE00040F2E93302E0002B00F01A810289013BA8
:10BBF00012F0010F9BB2F6D08389838940F2E933BA
:10BC000002E0002B00F007810289013B12F0020FD5
:10BC10009BB2F6D01FFA8AFAA0F80CA040F2E933E2
:10BC200002E0002B00F0F7800289013B12F0010FC7
:10BC30009BB2F6D0838983895FFA84FA40F2E933B4
:10BC400002E0002B00F0E2800289013B12F0020FBB
:10BC50009BB2F6D00623838140F2E93302E0002B49
:10BC600000F0D4800289013B12F0010F9BB2F6D0A4
:10BC70008389838940F2E93302E0002B00F0C18020
:10BC80000289013B12F0020F9BB2F6D01FFA8AFA2A
:10BC9000A0F80CA040F2E93302E0002B00F0B180E4
