:020000040800F2
:100000000000012045520508C5520508A1F7020865
:1000100005F80208C5520508C55205080000000091
:10002000000000000000000000000000C5520508AC
:10003000C552050800000000C552050851F8020825
:10004000C5520508C5520508C5520508C552050820
:10005000C5520508C55205089D500308C95103083B
:100060008D5103085151030815510308F905010882
:10007000E9050108D9050108C9050108B505010808
:10008000A10501088D050108C5520508C5520508DE
:10009000C5520508C5520508C5520508D9500308C0
:1000A000F9DE000881DF0008E9DE0008A9DF0008AA
:1000B00071DF000861DF000851DF00080906010850
:1000C0002D060108C5520508C5520508C552050888
:1000D000C552050891DA0008C552050885DA0008FE
:1000E00061500308C5520508C5520508D9DE00084D
:1000F00009DF0008C552050831DF0008790501084D
:10010000C5520508C552050841DF0008C55205085B
:10011000C552050879DA0008C5520508D702020859
:1001200065050108510501083D050108290501087B
:10013000150501080000000000000000000000009C
:10014000000000000000000000000000170D020881
:1001500001050108ED040108D90401086DDA000861
:10016000C5520508C5520508C5520508C5520508FF
:10017000C5520508C5520508000000000000000037
:10018000C5520508C5520508C5520508C5520508DF
:10019000C5520508C552050800000000C5520508F3
:1001A000000000000000000000000000C55205082B
:1001B000C5520508C55205080000000000000000F7
:1001C000000000000000000000000000000000002F
:1001D000000000000000000000000000C5520508FB
:0801E000944D05000100000030
:1001E80010020100102001200C2001200000000056
:1001F800C40700081F0210002C2001201C20012029
:100208000000000081840008030001006847012005
:1002180078470120000000000000000010100200D4
:10022800704701207C47012000000000C607000835
:1002380025102C017844012080470120000000008F
:10024800000000001900050014440120AC480120FA
:1002580000000000C80700081A000E00B040012086
:10026800B448012000000000CE070008F82106006D
:100278001C430120C448012000000000DC070008DE
:1002880020320A0024430120CC480120000000004D
:1002980051140108150070002C420120D848012093
:1002A80000000000000000002A0060005043012008
:1002B8004849012000000000BD0C01080B301A005D
:1002C80068530120645E012000000000E407000874
:1002D8001F30240030530120805E01200000000000
:1002E8000008000805020400605C0120A45E0120EB
:1002F800000000002408000803010A00E052012061
:10030800A85E0120000000002808000801200C0059
:1003180020660120AC6E01200000000032080008B1
:100328000A702800C0640120B86E01200000000097
:10033800218A03080EB0860138630120E06E01208F
:1003480000000000711401080101040090620120FE
:100358006870012000000000000000000001040097
:10036800886201206C700120000000003E0800082F
:100378000201030084620120707001200000000067
:10038800A9F5040822021401F06A01207470012002
:1003980000000000D98E00080C20CC000865012060
:1003A800887101200000000069F5040801020500B9
:1003B8009C62012054720120000000008140020864
:1003C800000205006C6901205C7201200000000039
:1003D800000000001B02100038690120647201202F
:1003E800000000001D8300081E000600BC660120F6
:1003F8007472012000000000420800081B100C0065
:100408003C6001207C720120000000006D4B020856
:100418002102F000C05E0120887201200000000067
:10042800514A02081A023C007874012050770120D2
:1004380000000000918C000827000400747401205B
:100448008C770120000000004808000838100100DF
:100458009473012090770120000000004C080008E8
:100468002C001000288101201881012000000000C4
:1004780011A603082B0024005C810120388101208B
:1004880000000000E1A50308292078001C80012055
:10049800808101200000000000000000F6210C000F
:1004A800887F0120F8810120000000005008000822
:1004B8001C021000307C012048820120000000004E
:1004C800F582000828101000F87E012058820120CB
:1004D80000000000798A030823121000808B012095
:1004E8000C8C0120000000005C08000805100600C4
:1004F800788B01201C8C0120000000006C0800088B
:1005080037102800BC8B0120248C0120000000003B
:10051800720800080E020200708B01204C8C01202A
:10052800000000009A08000816100600E883012061
:10053800508C0120000000009C0800082F102200A9
:10054800E88B0120588C012000000000A208000858
:10055800F5519000188301207C8C012000000000D8
:100568008149020826100C00188D01200C8D0120ED
:10057800000000003D44040814000300C087012067
:10058800508D012000000000C408000823100E0050
:1005980020A70120A4A8012000000000918A0308D8
:1005A8000D003400B0A60120B4A80120000000000E
:1005B80065FE030804008000F4A50120E8A80120D6
:1005C800000000000000000013000400D4A5012072
:1005D80068A9012000000000C808000818203000A1
:1005E800A0A501206CA9012000000000358E00089C
:1005F80006101A0084A501209CA901200000000013
:10060800D1140108FB01010080A50120B8A901202F
:1006180000000000A98E0008FC0109004CA401207C
:10062800BCA9012000000000B98E000816023F0096
:100638000CA40120C8A90120000000006183000863
:10064800340010003CA3012008AA0120000000008B
:10065800A11401081102080014A3012018AA0120FE
:1006680000000000CC080008121204000CA30120AE
:1006780020AA012000000000D40800081220100061
:10068800FCA2012024AA012000000000D8080008CC
:10069800FD01210018A0012034AA0120000000005B
:1006A800A9AC0208F9010400C49C012058AA012041
:1006B800000000003920030813020400C09C012038
:1006C8005CAA012000000000E8080008FA01020006
:1006D800689A012060AA012000000000F98400083F
:1006E800020203007C91012064AA0120000000009E
:1006F800000000000C0204006891012068AA012093
:100708000000000071840008FE011400A09301207D
:100718006CAA0120000000003183000807020200D3
:100728001CB20120A0B2012000000000EC08000863
:1007380003123D0040B20120A4B2012000000000D5
:10074800EE08000802000C00F0B10120E4B201201C
:10075800000000000000000006021000E0B10120C7
:10076800F0B20120000000002D8D000808121400CE
:1007780068AE012000B30120000000004184000899
:10078800F701060060AE012014B30120000000004C
:100798002C0900081D0202005CAE01201CB30120D8
:1007A80000000000320900080A020A00CCAD01204E
:0C07B80020B301200000000045F80408F8
:1007C400000000050000280100007E05EA05B405CC
:1007D4003200E803D00700000401F4011400000013
:1007E400AE014A015E012C01640101000000010018
:1007F4000A019A01001E0A00000000000000000027
:1008040000010000000500000102030000000000D8
:10081400000000000000000000000000008007004D
:1008240000000000040101006C1600000000E80351
:100834006400040A000114001E00EB000000000024
:100844000100000020030000000000000000000080
:10085400010000000202000000000000000000008F
:100864000000000000000000200003010000200040
:100874003200C800D0079600140032002800B004EB
:1008840040060005500014000F0008006400010039
:10089400010005000A000000C4090000190000005E
:1008A4000000000000000000000000000000000044
:1008B4000000000000000000000000000000000034
:1008C40003000000080044300000000001010101A1
:1008D400FFFFFFFF000000010000055950463700EC
:1008E4000008000000000118013C000000000000A6
:1008F40000000000000000000000000000000000F4
:1009040000000000000000000000000000000000E3
:1009140000000000000000000000000000000000D3
:1009240000000000000001002E0001004E0C000039
:1009340079F301085DE80108A51A02080000000027
:1009440000000000A50C0208A10B02080000000032
:10095400000000000000000029DA01081DDA010887
:1009640011DA010805DA010821EC0008DD84000829
:10097400D9840008D5840008258F0008D184000894
:10098400CD84000894730508FF01FF000068214C22
:100994001F0000001C0000001F0000001E000000DB
:1009A4001F0000001E0000001F0000001F000000C8
:1009B4001E0000001F0000001E0000001F000000B9
:1009C4000000000004010000000700000000000017
:1009D4000000000000020000100000000000000001
:1009E4000000000007000000B00100000200000049
:1009F40009000000FFFFFFFF7D0000000000803FB2
:100A04000000000000000000000000000000803F23
:100A140000000000000000000000000000000000D2
:100A240000000000000000000000000000000000C2
:100A3400000000000000803F0000000000000000F3
:100A44000000000001000000FFFFFFFF0000803FE6
:100A54000000000000000000000000000000803FD3
:100A640000C20100000008000A0600020000004065
:100A74000100000009026400030100C032090400FF
:100A840000010300000009211101000122260007D2
:100A940005830308000A080B01020202010009048D
:100AA40001000102020100052400100105240100D7
:100AB4000204240202052406010207058203080039
:100AC400FF09040200020A000000070501024000B9
:100AD40000070581024000000FF40108A7E801089F
:100AE400A91C02080000000089DA0108E7DA0108FD
:100AF400B5DA01080000000000000000000000005A
:100B040071DA01087DDA010865DA010859DA0108A9
:100B14001A030000000000000000000000000000B4
:100B240000000000000000000000000004030904AD
:100B34000A0600020000004001000000090720002E
:100B4400010104C03209040000020806500507052B
:100B54008102400000070501024000000902200054
:100B6400010104C03209040000020806500507050B
:100B74008102400000070501024000000902200034
:100B8400010104C0320904000002080650050705EB
:100B94008102000200070501020002000A060002A9
:100BA400000000400100000009022200010100E0F1
:100BB40032090400000103010200092111010001AE
:100BC4002226000705830308000A00000A06000223
:100BD400000000400100000009074300020104C0B6
:100BE400320904000001020201000524001001057D
:100BF40024010001042402020524060001070582E1
:100C0400030800FF09040100020A000000070501AF
:100C14000240000007058102400000000902430071
:100C2400020100C03209040000010202010005248F
:100C34000010010524010001042402020524060019
:100C4400010705820308001009040100020A0000DC
:100C540000070501020002000705810200020000EE
:100C640009024300020100C032090400000102022B
:100C740001000524001001052401000104240202DE
:100C84000524060001070582030800100904010079
:100C9400020A000000070501024000000705810266
:100CA40040000000D881050800000000000000009A
:100CB4000000000000000000000000000000000030
:100CC40000000000000000000000000000FFFF0022
:100CD40000000000AA5505010000010012010002F5
:100CE4000000004083042A570002010203010000AF
:100CF4001201000202000040830440570002010276
:100D04000301000012010002EF0201408304563285
:100D14000002010203010000AC810508000000008C
:100D240000000000000000000000000000000000BF
:100D340000000000000000000000000000000000AF
:100D4400FF1FFF1F05010905A101A10005010930CD
:100D54000931093209330935093409400938158143
:100D6400257F750895088102C0C000000921110182
:100D740000012226002D202D2D202D2D2D2D202D5E
:100D84002D2D2D00000000000000000000000000D8
:100D940000000000AA550B010000AA55070100003D
:100DA400AA550902000000AA5503009F0100000093
:100DB400C012000000000100E0010100C14002086F
:100DC4000000000038830508FFFFFFFF08FF010152
:100DD400FFFF2D202D2D202D2D2D2D202D2D2D00EF
:100DE40000000000000000000000000000000000FF
:100DF400000000000000000000000000509B0508F7
:100E04000000000000000000DC9B05080100000059
:100E1400FA00000001000000010000001E6601202D
:100E24000000F401010000001C6601200000F40130
:100E3400010000001A6601200000F4010100000016
:100E4400186601200000F40101000000166601206C
:100E54000000F40101000000146601200000F40108
:100E640001000000126601200000F40101000000EE
:100E740009480208CD470208EC88050808660120E5
:100E84000532010006660120E803D00701000000D6
:100E940004660120E803D007010000000266012077
:100EA400E803D00701000000006601201E00B80B13
:100EB400010000000E66012005000F000100000083
:100EC4001066012003000A0001000000FE650120F5
:100ED4001E00F40101000000FC6501201400640000
:100EE400010000000A6601203200E803010000004E
:100EF400FA6501200000C800010000000665012019
:100F040000C80100056501200050010004650120AE
:100F1400005A0100026501200200000078890508DA
:100F240004F805080CF805084EA701200100C409BF
:100F3400000000004CA701200100C40900000000CB
:100F44004AA701200100C4090000000048A70120AD
:100F54000100C4090000000044A701200100C409E5
:100F64000000000046A701200100C40900000000A1
:100F740042A701200100C4090000000040A701208D
:100F84000100C40900000000AF62012000C8010094
:100F9400AE62012000C80100AC6201200100C8005B
:100FA40001000000AA620120320030753200000006
:100FB400A9620120055A0500A662012000FF010074
:100FC400A862012001000000F0050120A4620120B4
:100FD4000300000010D20508A562012000FF0100F3
:100FE400A762012001000000F0050120A362012096
:100FF4000300000010D205087147020815470208D3
:101004008489050830660120EE02CA080100000048
:101014002E66012000C80100640000002D66012036
:1010240000C80100640000002C66012002000000DA
:10103400648A05089662012080C1803E0500000094
:101044009462012080C1803E050000008E62012070
:1010540080C1803E050000008C62012080C1803E7A
:10106400050000008762012000FF0100806201206A
:101074006400F401010000007F620120040000000C
:10108400708A05087E62012002000000848A050837
:10109400296301200D000000908A050826630120C1
:1010A4000064010024630120320010270A000000BC
:1010B400236301200D000000908A050822630120AB
:1010C4000D000000908A0508216301200200000041
:1010D400C88A05080000000000000000D48A050842
:1010E400185C01209CFF2C0100000000146D0120FD
:1010F400E0150C1700000000F16901200200000057
:101104000C8B05083C6601200100FF7F01000000F4
:101114003B66012002000000188B05082B630120A8
:1011240003000000288B05082A6301200300000047
:10113400288B0508F46401200000E8030100000086
:10114400F26401200000E80301000000F0640120C3
:101154000000E80301000000EE6401200000E80341
:1011640001000000EC6401200000E803010000001D
:10117400EA6401200000E80301000000E9640120A2
:1011840000140100E864012003000000388B050806
:10119400006501200000F40101000000FE6401204C
:1011A4000000F40101000000FC6401200000F401CF
:1011B40001000000FA6401200000F40101000000B5
:1011C400F86401200000803E01000000F664012064
:1011D4000000803E01000000E76501201964010061
:1011E400E665012002000000488B0508E465012043
:1011F400E803D0070A000000E26501200064010052
:101204000A000000D765012000640100D6650120B2
:1012140000640100DE650120006401000A00000092
:10122400DD650120006401000A000000DC65012086
:10123400006401000A000000E1650120006401006F
:101244000A000000E0650120006401000A000000BB
:10125400DF650120006401000A000000DB65012055
:1012640001FF01000A000000DA65012001FF01000E
:101274000A000000D965012001FF01000A000000F6
:10128400346301200000F4010100000032630120F6
:101294000000F40101000000306301200000F401AB
:1012A400010000002E6301200000F4010100000091
:1012B4002C6301200000F40101000000036A0120F6
:1012C40000C80100026A012000640100016A0120D3
:1012D40000640100006A012000640100FF6901202C
:1012E40000640100FE690120FF080100FD6901207E
:1012F400016401008146020845460208548B050832
:10130400FC69012000640100FA6901201400E8036B
:1013140001000000F8690120E80330750A000000AC
:10132400F669012000C80100F569012000C8010028
:10133400F469012000C80100F36901200064010080
:101344000A000000126A01200000D007010000001A
:101354000C6A012000C801000B6A012000C80100CA
:101364000A6A012000C80100106A01200000D007A9
:1013740001000000096A012000C80100086A012078
:1013840000C80100076A012000C801000E6A01209C
:101394000000D00701000000066A012000C8010017
:1013A400056A012000C80100046A012000C8010088
:1013B4000000000031440208C48B05081F630120AB
:1013C40039000000608C05081E63012000C801007C
:1013D4001C630120E803D00701000000595550495F
:1013E40046370000A262012000030100A16201202F
:1013F400000301007D43020841430208488D0508AB
:10140400FD420208B1420208B88D0508B94302083A
:1014140029750208388E050898620120010301002D
:1014240071480208454802084891050835420208F7
:10143400E9410208B891050847440208C994020822
:1014440054920508B58A020800000000FC920508C1
:10145400BD780208D148020898930508A1440208FF
:101464000000000018940508794502082545020883
:101474007C94050809460208CD450208189505081C
:10148400F5AA0208BD46020898950508F9650120E9
:1014940001060100E9440208B544020894960508CF
:1014A4005BAA02088D7502080497050839AB020887
:1014B4002576020800980508F8650120010301005B
:1014C40001440208D1430208D49805089D48020843
:1014D400000000003899050881420208F9740208E6
:1014E4009C9905080000000000000000289A0508E7
:1014F400ED4602089D760208A89A05087A62012042
:1015040088136F17010000007C62012088136F1795
:101514000000000092A7012000000000000000006D
:1015240090A7012000000000000000008EA7012009
:1015340000000000000000008CA701200000000053
:10154400000000008AA70120000000000000000045
:1015540088A7012000000000000000008004012092
:1015640000000000000000005062012002000000A2
:10157400309C05087862012088136F170100000071
:10158400585C012088136F1700000000794102089D
:10159400000000003C9C0508F269012001000000E5
:1015A400909C05085A5C0120010000009C9C0508E1
:1015B400505C012002000000A49C0508000000000B
:1015C40000000000B09C0508614102080000000012
:1015D4004C9D05080000000000000000A09D0508C7
:1015E4000000000000000000109E0508545C01206B
:1015F400E0150C1700000000685E0C00FF010000FD
:10160400A00F0000B80B00000102FFFF0100000062
:10161400FFFF0000FFFFFFFFE0550608000008027F
:1016240005030400E8550608010008020504040047
:10163400D46806080200FE01011003004CFC0508F2
:101644000300140200030000F055060804001F0202
:1016540001000800F855060805001F0201010800F2
:10166400D6010000B80B00000100000000010101D8
:101674000001010021E80108F9D90108E9E701089E
:10168400FDE70108B1D90108D5E70108BFE7010862
:1016940071D8010855D8010811D8010800000000CC
:1016A40005D80108F1D70108DDD7010800000000C2
:1016B400000000000000000000000000D1D7010875
:1016C40000000000C5D7010899FE0108C1D7010830
:1016D40041D7010829D7010801000000FFFFFFFFDF
:1016E400248D012000000000488D0120000000002E
:1016F4000100000010000100006002401060024080
:101704000000000000000000000B000000000000CA
:101714000000000000000000006002402860024059
:101724000100000000000000060C000000000000A2
:101734000000000000000000006002404060024021
:101744000200000000000000100D00000000000076
:1017540000000000000000000060024058600240E9
:101764000300000000000000160E0000000000004E
:1017740000000000000000000060024070600240B1
:101784000400000000000000200F00000000000022
:101794000000000000000000006002408860024079
:1017A40005000000000000002610000000000000FA
:1017B400000000000000000000600240A060024041
:1017C40006000000000000003011000000000000CE
:1017D400000000000000000000600240B860024009
:1017E4000700000000000000362F00000000000089
:1017F4000000000000000000006402401064024089
:10180400000000000000000000380000000000009C
:101814000000000000000000006402402864024050
:101824000100000000000000063900000000000074
:101834000000000000000000006402404064024018
:101844000200000000000000103A00000000000048
:1018540000000000000000000064024058640240E0
:101864000300000000000000163B00000000000020
:1018740000000000000000000064024070640240A8
:101884000400000000000000203C000000000000F4
:101894000000000000000000006402408864024070
:1018A40005000000000000002644000000000000C5
:1018B400000000000000000000640240A064024038
:1018C4000600000000000000304500000000000099
:1018D400000000000000000000640240B864024000
:1018E4000700000000000000364600000000000071
:1018F40000000000000000007C560608286106086D
:1019040000000000BDF50408A086010004000000EA
:1019140000000000000000000000000000000000C3
:1019240000000000000000000000000000000000B3
:1019340000000000000000007C560608CC61060888
:10194400000000006DAC0208E80300000400000081
:101954000000000000000000000000000000000083
:101964000000000000000000000000000000000073
:101974000000000000000000DCFF0508C82A06087B
:1019840000000000E9AE01087D0000000600000030
:101994000000000000000000000000000000000043
:1019A4000000000000000000000000000000000033
:1019B4000000000000000000CC55060800000000F4
:1019C40000000000B5C00208E803000003000000A6
:1019D4000000000000000000000000000000000003
:1019E40000000000000000000000000000000000F3
:1019F4000000000000000000D461060800000000A0
:101A040000000000556101081027000003000000D9
:101A140000000000000000000000000000000000C2
:101A240000000000000000000000000000000000B2
:101A34000000000000000000EC5506080000000053
:101A44007DA2030875CC02085F7600000500000043
:101A54000000000000000000000000000000000082
:101A64000000000000000000000000000000000072
:101A740000000000000000003059060800000000CB
:101A8400000000003D1803081027000001000000BA
:101A94000000000000000000000000000000000042
:101AA4000000000000000000000000000000000032
:101AB4000000000000000000E061060800000000D3
:101AC4000000000071AC0208E803000005000000FB
:101AD4000000000000000000000000000000000002
:101AE40000000000000000000000000000000000F2
:101AF4000000000000000000EC6106080000000087
:101B04000000000029200508204E0000030000000A
:101B140000000000000000000000000000000000C1
:101B240000000000000000000000000000000000B1
:101B34000000000000000000FC6106080000000036
:101B440000000000151E0508204E000003000000E0
:101B54000000000000000000000000000000000081
:101B64000000000000000000000000000000000071
:101B740000000000000000000C62060800000000E5
:101B8400000000006DB10208400D030003000000D6
:101B94000000000000000000000000000000000041
:101BA4000000000000000000000000000000000031
:101BB40000000000000000003C5706080000000080
:101BC400000000000D1704081027000001000000A9
:101BD4000000000000000000000000000000000001
:101BE40000000000000000000000000000000000F1
:101BF4000000000000000000EC08060800000000DF
:101C040000000000D956020810270000030000005D
:101C140000000000000000000000000000000000C0
:101C240000000000000000000000000000000000B0
:101C340000000000000000001C6206080000000014
:101C44000000000069DB0308A08601000100000019
:101C54000000000000000000000000000000000080
:101C64000000000000000000000000000000000070
:101C74000000000000000000D0550608000000002D
:101C84000000000021B0020850C300000100000061
:101C94000000000000000000000000000000000040
:101CA4000000000000000000000000000000000030
:101CB400000000000000000038FB050800000000E0
:101CC4000000000025AD0208A8610000010000002A
:101CD4000000000000000000000000000000000000
:101CE40000000000000000000000000000000000F0
:101CF400000000000000000024620608000000004C
:101D040000000000F9950208A0860100010000000F
:101D140000000000000000000000000000000000BF
:101D240000000000000000000000000000000000AF
:101D34000000000000000000385906080000000000
:101D44000000000051F90208A00F0000010000008B
:101D5400000000000000000000000000000000007F
:101D6400000000000000000000000000000000006F
:101D740000000000000000003062060800000000BF
:101D84000000000009900208102700000100000074
:101D9400000000000000000000000000000000003F
:101DA400000000000000000000000000000000002F
:101DB40000000000000000006C070608000000009E
:101DC40000000000898D04081A4100000100000091
:101DD40000000000000000000000000000000000FF
:101DE40000000000000000000000000000000000EF
:101DF4000000000000000000F8FA050800000000E0
:101E04000000000011E40108102700000100000098
:101E140000000000000000000000000000000000BE
:101E240000000000000000000000000000000000AE
:101E340000000000000000003C61060800000000F3
:101E440000000000DD9D02081A41000001000000AE
:101E5400000000000000000000000000000000007E
:101E6400000000000000000000000000000000006E
:101E740000000000000000003C62060800000000B2
:101E84000000000095EA0108400D03000000000076
:101E9400000000000000000000000000000000003E
:101EA400000000000000000000000000000000002E
:101EB400000000000000000044620608000000006A
:101EC4000000000023FE0308400D03000000000092
:101ED40000000000000000000000000000000000FE
:101EE40000000000000000000000000000000000EE
:101EF40000000000000000004C6206080000000022
:101F0400000000002D7F020850C300000300000001
:101F140000000000000000000000000000000000BD
:101F240000000000000000000000000000000000AD
:101F340000000000000000005862060800000000D5
:101F4400000000008D1D050840420F000000000045
:101F5400000000000000000000000000000000007D
:101F6400000000000000000000000000000000006D
:101F74000000000000000000646206080000000089
:101F840000000000B913040850C300000000000062
:101F9400000000000000000000000000000000003D
:101FA400000000000000000000000000000000002D
:101FB40000000000000000000000803F000000005E
:101FC40090B20120080000000000000080B201204F
:101FD400080000006CF705085C67060868670608D7
:101FE40074670608806706088C6706086C0806088C
:101FF400F42C0608D82B0608206706089C5A060805
:10200400505C0608506706085467060858670608B7
:10201400986706089C670608A06706084C2A060805
:10202400A46706081900C800F40120030017012062
:10203400000000000000000000000000000000009C
:10204400000000000000000000000000000000008C
:10205400000000000000000000000000000000007C
:10206400000000000000000000000000000000006C
:10207400000000000000000000000000000000005C
:10208400000000000000000000000000000000004C
:1020940044070020000000000000000001000000D0
:0C20A4000000803F0000803F2000000092
:1080000003685A1C02601970704700BF2DE9F047E1
:10801000089C002B8846074621780CBF4FF02009AA
:108020004FF03009651C29B3002A27DD2B4601E0FB
:108030000246A8B113F8016B501E002EF8D1961E0F
:1080400070B1B2460AF1FF3A49463846C0470AF1D4
:108050000103002BF6DC26EAE6702178013039B105
:10806000041B3846C047281915F8011B0029F8D110
:10807000BDE8F087002A03DC0846F9E70020EFE7B7
:10808000561EDEE72DE9F84F14461D4606464FF40E
:108090007A720023204629464E4F4CF007FF4E4B84
:1080A0004E4A40F2B55C0344DFF83CA182FB030179
:1080B000D81787FB03784A4F1944984487FB037EFF
:1080C000C0EB6111C0EBE8279E4482FB01824FEABE
:1080D000E179C0EB2E4E8AFB078A0A44C1EB011BF3
:1080E000C9EB62193F4AA3EB8B0BC9EB091982FB61
:1080F0000E824FEAE77886F806B0A1EB8901DFF837
:10810000EC90C8EBAA08717189FB03134FEAEE717A
:1081100008EB4808C1EBE212A7EBC8080CFB12E21F
:10812000C0EBE35386F80480B2F5896F4FEA830011
:108130003CDA40F2DA239A4242DCB2F5B77FDFF84C
:10814000B080B4BF4FF0000E4FF0010E4FEA4E0961
:108150001FFA8EFC09EB0E0308EBC303DF8A09EB61
:108160000E010B2308EBC101163101E031F8027D4D
:10817000974218DD013BF9D1CE44012338F83E7017
:1081800000F5FA6E0132B3702046F444D71B29463D
:108190004FF47A720023A6F800C0F7704CF086FE08
:1081A0003281BDE8F88F0133DBB2E9E74FF0030C11
:1081B00040F29657DFF838804FF00609E646CEE7E2
:1081C0004FF0020C40F22947DFF824804FF00409F9
:1081D000E646C4E7C5B3A29180BC92C78988888867
:1081E00007452EC273B06D16ABAAAA2A792D0311CA
:1081F000C87005080028F0B504DA2D23404201318B
:1082000001F8013C092804464FF0010307DD03EBA8
:1082100083035B00B0FBF3F2092AF8D883B10E4860
:10822000A0FB0356B4FBF3F2092A02F1570C02F14A
:10823000300708DD03FB1244F30801F801CBEFD14E
:1082400000230B70F0BD03FB1244F30801F8017B1F
:10825000E6D100230B70F0BDCDCCCCCC884270B4FD
:108260004FF0010442D301FB04F4B0FBF4F58D425E
:10827000F9D2ECB142BB092D04FB150005F15706FC
:1082800005F130020EDD03F8016BB4FBF1F47CB1B3
:10829000B0FBF4F5092D04FB150005F1570605F1B7
:1082A0003002F0DC03F8012BB4FBF1F4002CEFD129
:1082B000002270BC1A707047B4FBF1F403F8016B34
:1082C000002CF5D0B0FBF4F5092D04FB150005F1E9
:1082D000370605F13002EFDC03F8012BB4FBF1F4B3
:1082E000002CEFD1002270BC1A7070470546002A9E
:1082F000EAD1C0E70023022101220370C372837315
:10830000C3734170C171417282700272827230B463
:1083100014253424C570847130BC704700230621B5
:108320004FF47A7201700373C0E90123704700BFF4
:1083300031233222FF2143700123427100228174D4
:10834000037203700371837042818281C28130B4F1
:1083500030254FF47F44C570048230BC704700BFA5
:108360003249334B2DE9F04F804683B038274FF028
:10837000000A01F5907B2F481022012603E02030EF
:1083800098420AD002799742F9D102680C68A24259
:1083900008D0203001369842F4D1203159453AD0E6
:1083A0000F79E8E744794D79A542F2D10AEB4A0901
:1083B0009646214808F80970C144DFF880C000F5EE
:1083C000727589F801607246664603E0A84219D0CA
:1083D00050F82C6FB242F9D10679A642F6D1CF6897
:1083E00006464FF0000C96460190F268BA4215D04E
:1083F0000CF1010C0C36BCF1030FF6D1019872465A
:10840000A842E5D14FF0FF3C203189F802C00AF1C3
:10841000010A5945C4D103B0BDE8F08F086932693B
:108420008242E5D14FFA8CFCEEE700BF08800508D8
:10843000B4DF0508F4D50508B4DF050800000140E5
:10844000152216233B21027025224370FF23C1729F
:108450000273037243728374C374C37003714373F2
:10846000837330B417253A248570847230BC70470A
:1084700001231E2100224170C27003708370704777
:10848000FF22034600F110011A70023303F8012C99
:108490008B42F9D1027042700271427102724272D3
:1084A0008272C272704700BF30B41D6995420AD310
:1084B00014460A4621448D42996938BF2A1B21443B
:1084C00030BC4DF037BA30BC704700BF0020704759
:1084D000012070470120704700207047054B0020A5
:1084E00010B49B684FF4007414800B605DF8044B6B
:1084F000704700BFC89C01201F22032302704370F5
:10850000704700BF08307047704700BF81617047F7
:1085100040F2E93300E09BB18268013B12F0020FA8
:108520009BB2F8D0017340F2E93300E043B18268B6
:10853000013B12F0010F9BB2F8D0C068C0B2704787
:10854000094A904203D0094B98420BD10223084AB2
:10855000D82101FB03239A89013292B29A8198892A
:10856000C0B27047FF20704700300140003C00401F
:108570007CAE01206B4B8C462DE9F04F1C6800252A
:10858000694B87B00746B3F80AE018894FEA0E2A0C
:10859000B3F804804FEA1E6B9A89B4EB0A0465EBCA
:1085A0000B05CDE90045009C019EA0FB044500FBA6
:1085B0000655E0094FEA084440EA4560E9114FEAF0
:1085C000184510EB0408D888009C41EB0509A0FB76
:1085D0000445CDE9048900FB0655B3F80280200A62
:1085E0004FEAC83440EA056029124FEA584510EBBB
:1085F000040841EB05090099A2FB010102FB0611E9
:108600004FEAD05A474E4AEA412A4FEAE15B1AF54F
:10861000FA634BF10004B3F5FA6FCDE9023474F15B
:10862000000362DA0524AAFB040104FB0B1100FB22
:108630000BF40AFB0144A0FB0A012144DDE90423F9
:108640004D104FEA3004121B4FEA9004374863EB99
:10865000050344EA81748D104FF0FF31B8EB040834
:10866000CDE90423DDE9023469EB0509834274EBAB
:10867000010325DA40F6AC5000211AEB00024BEB67
:10868000010302FB03F1A2FB022303EB4103D4002D
:10869000DD00101B45EA527563EB0501DDE9044579
:1086A00024184D41CDE904450B24A2FB040104FB31
:1086B000031149104FEA3000B8EB000869EB0109DB
:1086C000DDE90032DDE902015343009AA2FB02AB6F
:1086D0000BEB430B4FEADA724FEAEB7342EA4B02C1
:1086E000801A61EB0301CDE9020197B17168A1FB2A
:1086F000082301FB0933540D5D1544EAC324DDE969
:108700000423A21A65EB03031D46D30B43EA45433A
:108710003B60BCF1000F02D0029BCCF8003007B0E8
:10872000BDE8F08F60170120347F012024FAFFFF9D
:108730002DE9F04FDFF8D8C185B0744CDCF8085053
:108740002288B4F90AA0C2EB251352005B43C2EBA6
:10875000E502B4F902501B136A43B4F904505D43B7
:10876000AD1305EBE225B5F5FA324FEAE57BA561DD
:108770004BF1FF334FEAEA7BCDE90023DDE900321C
:10878000CDE902015343009A0199A2FB0289B4F991
:108790000820009809EB43095143D31700FB03114C
:1087A000A2FB00230B440AFB09F116031F0308FB7D
:1087B0000B13AAFB080147EA125719444FEA102A83
:1087C0004AEA016A4FEA212B1AEB0602E6884BEBD4
:1087D000070312F1000A43F5004BAAFB060106FB52
:1087E0000B114A10CB1752EA030100F08C80B4F948
:1087F0001060009806FB09F1F71708FB0711A6FBAC
:108800000867B4F90E8039444FEAE879B2468B46DE
:10881000019908FB01F100FB0911A8FB00898944BB
:10882000DCF80C104FEA4846C1F5801C4FEA494776
:108830001AEB060A47EAD8376646B4F90C804FEAC5
:10884000CC704BEB070BF7174FEAC806F9070196F8
:10885000002641EA5C0140F6354C0096DDE90067F0
:1088600016EB0A0647EB0B07801B61EB07018946F5
:10887000A0FB0C010CFB09114CF018FBB4F91620FD
:108880004E13B4F914A0470B804602FB06FCD31725
:1088900047EAC1474FEAEA7B07FB03CCA2FB072369
:1088A0006344564307FB0366A2FB07233344560E7B
:1088B00046EAC3165F16321847EB01030AFB01F1C3
:1088C00008FB0B17AAFB08013944C60C46EA4136DF
:1088D000CF1412EB0608B4F9122043EB07094FEA54
:1088E0001821130141EA09610B44029A0AB11B0ADB
:1088F0001360039B23B105EB850580352D121D60A8
:1089000005B0BDE8F08F0023EFE700BF487F0120EE
:108910006017012070477047012380F8543070477A
:108920004FF4006383837047034610B4D0F8FC40D3
:10893000D968406964B1D3F814218C1A013A005DFA
:1089400008BF0A465DF8044BC0B2C3F81421704753
:108950001A6A805C01328A4228BF2246C0B25DF8A2
:10896000044B1A62704700BFD0F8003113B190F881
:1089700094017047D0E90903181AB0FA80F0400951
:10898000704700BFD0E909120369914238BFC91886
:10899000013B8A1AD0F8001131B1D0F88011096872
:1089A00049680A449A4201D2981A704700207047D9
:1089B000D0F8FC306BB1D0F88431D0F814211B68AA
:1089C0005B689A4201D8981A7047C068801A1844A8
:1089D0007047D0E907239A4203D2C0681044C01AF6
:1089E0007047D01A704700BFF0B4C76982B006461E
:1089F0001FB1BB883A681B049361726903206D46FE
:108A00003B4C536823F48053536040F2E93301E058
:108A1000013B54D091688907FAD5002C4CD034F82A
:108A2000023B938140F2E93301E0013B47D091687A
:108A3000C907FAD5D3680DB125F8023B0138E4D156
:108A4000516840F2E93341F48051516001E0013B4B
:108A500035D091688807FAD5002C41D0237813735C
:108A600040F2E93301E0013B3CD09168C907FAD5F7
:108A7000D368F76905B12B7017B13B68BA889A6162
:108A80009DF8014001209DF803309DF802109DF8EB
:108A9000042041EA04219DF8054042EA03229DF8A2
:108AA0000630A6F8541043EA0423A6F85620A6F888
:108AB000583002B0F0BC70474FF6FF73B1E70D4974
:108AC0008A4203D00C4B9A42D6D102230B4AD821BA
:108AD00001FB03239A89013292B29A819B89CBE7E9
:108AE000FF23BCE70349F7698A42EBD1EEE700BFF9
:108AF0002871050800300140003C00407CAE012098
:108B000013B506230C466A4628210C302CF0CEFE05
:108B1000F0B19DF8013004219DF8002042EA0322C3
:108B20009DF8033012B292FBF1F222809DF80220F0
:108B300042EA03229DF8043012B292FBF1F2628005
:108B40009DF8052043EA02231BB293FBF1F3A380B7
:108B500002B010BD7FB5002500F10C060C460123C4
:108B60000D800DF107024D8030468D8006212CF0DE
:108B70009DFE10B9002004B070BD9DF807305B0762
:108B8000F8D5062302AA294630462CF08FFE00288D
:108B9000F0D09DF809209DF8083043EA02239DF8A3
:108BA0000B2023809DF80A3043EA02239DF80D2014
:108BB00063809DF80C3043EA0223A380DBE713B502
:108BC00006230C466A4603210C302CF06FFEA0B140
:108BD0009DF800209DF8013043EA02239DF8022011
:108BE00023809DF8033043EA02239DF80420A380EC
:108BF0009DF8053043EA0223638002B010BD07B53B
:108C0000032301AA00212CF051FE9DF805309DF8A8
:108C100004001B0243EA00439DF80600184303B01A
:108C20005DF804FB08B5FFF7EAFF014B586008BD8B
:108C30006017012008B5FFF7E2FF014B186008BD7F
:108C40006017012007B506236A46F7212CF02EFE97
:108C50009DF801309DF800101B010B4A43EA0133D7
:108C60009DF8021043EA11139DF80310D3609DF89C
:108C700004301B0143EA01339DF8051043EA111348
:108C8000936003B05DF804FB601701202DF0FCBA7F
:108C90001D4B1B7870B5044600F1250593B10422E5
:108CA0001A4920304EF0CAF92846142218494EF0CD
:108CB000C5F9012384F83A30164B1B7873B984F850
:108CC0003B3070BD2846142213494EF0B7F90123FA
:108CD00084F83A300F4B1B78002BF0D00F4A012359
:108CE000166855689068D16826606560A060E1608C
:108CF000D16916695569906984F83B3026616561D0
:108D0000A061E16170BD00BF08830120D082012015
:108D1000B88201200983012054F30508D88201207C
:108D2000014B186826F010BEFC7601200123282193
:108D30002922017042708370C37070472DE9F84F8B
:108D40000A9E8946174600212022984605460B9C1C
:108D50004EF07EF85EB17189D6E900236982C2F3D4
:108D60000F40EA81C3F30F42EB8228822A834846F0
:108D70004BF0A6FB17F0100A0FD1431E68B119F88B
:108D800003202E2A4DD009EB030103E011F8016DF9
:108D90002E2E3ED013F1FF33F8D208280246CB46E0
:108DA0004FF0000AA8BF08224FF0203305F1080653
:108DB000494628466B602B60C5F807304CF0BAFD79
:108DC0005246594630464CF0B5FD6A1EE81D12F871
:108DD000013FA3F16101203B192998BF1370824222
:108DE000F5D105F10B0116F8013BA3F16102203B1F
:108DF000192A98BF06F8013CB142F4D1C8F30F42DA
:108E00001823EF72A5F81A80AA82EC612B73BDE8D3
:108E1000F88FC01A00F1FF3ABAF1030FA8BF4FF064
:108E2000030A082B03F1010BA8BF0823CB441A4601
:108E3000BAE700BF38B5302200214EF009F840F201
:108E4000DC540346642140F21A4040F26C7240F256
:108E5000022519745C82132119249882DA8240F267
:108E6000753040F643021D8399760E250A211C7742
:108E7000D8831E2402201A84012283F82D10187230
:108E8000194683F82C0083F8225083F82E409A73F9
:108E900083F8252083F82B200248BDE8384035F0C0
:108EA000A7BC00BF5CF3050810B5044600210120F3
:108EB00022F008FD207010BD38B50023451E1C4669
:108EC0000372E1B20134022022F0FCFC082C05F808
:108ED000010FF6D138BD00BF38B5002305461C464A
:108EE00003802146013428461FF0F2FB082CF8D1FC
:108EF0000023284685F8E2301946A5F8E430A5F8A5
:108F0000E630A5F8E830A5F8EA30A5F8EC30A5F889
:108F1000EE30A5F8F030A5F8F230BDE838401FF08B
:108F20009BBB00BF2DE9F04F1E4685B00C460020CC
:108F30000121154622F0E0F8002E61D07319DFF808
:108F400070B3D54E02931CE0002D00F0DD81DBF8FC
:108F50001430AB4265D0DBF81030AB4200F09B80A0
:108F6000DBE90631AB4253D88D42C0F07881691AF3
:108F7000204642F0CFFF0135029B04F500749D426C
:108F80003ED0DBF82070AF42DED8EF1BDBF830803C
:108F90004FEAD70AD8F8303007F007070AF1020A7B
:108FA0009A4503D3D8F838309A4509D941465046F6
:108FB00042F07EFF8046002800F05681CBF830005A
:108FC00098F80430002B40F0E980D8F82890B9F1E7
:108FD000000F00F0F781D8F830104346D8F80C2085
:108FE0002046AAEB010A4FF40071013504F5007424
:108FF00007EBCA0A02EB4A22C847029B9D42C0D136
:109000000021084622F078F8002005B0BDE8F08F76
:109010008D42ACD24FF40072002120464DF018FF73
:10902000A9E7722300274FF0FF3C4FF0520E612258
:10903000412084F8E431394684F8E531DBF8283002
:10904000A27084F8E7214FF4F072E07084F8E60132
:10905000201D84F800E084F801E084F8ECC1C4F835
:10906000E83184F8EDC184F8EEC184F8EFC14DF029
:10907000EFFE55216FF05502C4F8F071C4F8F47199
:10908000C4F8F87184F8FC7184F8FD7184F8FE115D
:1090900084F8FF216FE74FF40072002120467F4FD4
:1090A0004DF0D6FE5821EB2002226170F82120708D
:1090B0004FF0080C61753F21902384F80DC0217694
:1090C0004FF0FF3EA370002322744FF080082273FC
:1090D000A273E372E3736374A374E3742375A375DB
:1090E000E3756376E3766377A377E37784F81AE032
:1090F0004FF0010E03CF3E27C4F80300C4F8071059
:10910000DBF80810DBF810002777081ADBF81C10D2
:10911000634F2062DBF8180084F82C200E22091A15
:1091200084F8283084F8293029206162942184F859
:109130002A3084F82B3084F82D3084F82E3084F8CF
:109140002F3084F8313084F8323084F833300D23F6
:1091500084F846C004F1470C84F8420084F84310B8
:1091600084F8442084F845304E4B84F830E04FF0CA
:10917000AA0E84F840804FF0550807CFC4F8470086
:10918000CCF80410CCF8082084F8FE8184F8FFE1C4
:1091900003CBC4F85200C4F85610ECE64FF400724A
:1091A000002120464DF054FED8F84030002F63D106
:1091B00004F120020392002B00F08980D8F83030AF
:1091C000112201972046009704F140093649FFF724
:1091D000B5FDD8F840301A6C002A00F08A801B6B6D
:1091E000112201974FF4E07A039800972F49FFF777
:1091F000A5FDD8F8448018F1000318BF0123002B07
:109200003FF4B9AE474603940CE00024AAF1200ACB
:10921000C146CDE900C4FFF791FDBF6CEFB1BAF1D3
:109220001F0F1AD997F804E01122484609F12008C7
:10923000396807F11C0C3B6BBEF1000FE5D17A7960
:10924000AAF1200A3C69C14642F02102CDE900C4DE
:10925000FFF774FDBF6C002FE1D1039C8BE6E91A88
:10926000204642F057FE86E6231F04F5FE7243F8BF
:10927000046F9A42FBD17EE6002BD8F8448014BFDD
:1092800002230123B8F1000FC3EB071714BF01231A
:1092900000232AD042460EE0DEADBEEF70F3050893
:1092A0007CF305088CF3050868F305086CF30508E2
:1092B000C89C012033B1926C013F131C18BF0123DD
:1092C000002FF7DC9046A1464FF4007A97E7DBF8D1
:1092D0000C103B460197082200972046DDF80C90C1
:1092E0004FF4F07AFFF72AFD83E7A1464FF4007AA6
:1092F00085E701973B460097112203984FF4E07AE7
:109300004749FFF71BFD74E74FF4007229462046DA
:109310004DF09EFD80220C2384F8B85184F8BE21C4
:1093200084F8C2313F4BDBF81020DBF8080083FBE8
:1093300002314FEAE27C84F8B951CCEB213184F858
:10934000BA5184F8BB51B1F5806F84F8BC5184F8F0
:10935000BD51C4F8C621C4F8CA0142DBFF2384F81A
:10936000BF3184F8C13184F8C031421E2D4BD7176C
:1093700083FB0231C7EB2131B1F5806F29DA2A4B2B
:1093800084F8C511891083FB0203284821F03F01AE
:109390001344C7EB6313C3EB831780FB03C0D21BDB
:1093A0001844DF170132C7EBE0100A43034484F886
:1093B000C42184F8C3315522AA2384F8FE2184F8FD
:1093C000FF31D8E549464FF4007220464DF040FD8C
:1093D000D1E5FF2384F8C33184F8C53184F8C43162
:1093E000E9E7114B84F8C111891083FB02730F4F19
:1093F00021F03F011344CCEB6313C3EB831C87FBC9
:1094000003E7A2EB0C021F444FEAE37C0132CCEBF2
:10941000E7170A433B4484F8C02184F8BF31A4E72E
:109420006CF3050897554541832008828180808030
:1094300010B500F10C040022212120462CF060FD23
:10944000FC22202120462CF05BFD402224212046D6
:109450002CF056FD0C22232120462CF051FD002239
:10946000222120462CF04CFD642026F0F5F8012046
:1094700010BD10B500F10C0401220B2120462CF088
:109480003FFD20B11D22092120462CF039FD00F0BE
:10949000010010BD10B500F10C047022002120461F
:1094A0002CF02EFD2022012120462CF029FD002247
:1094B000022120462CF024FD642026F0CDF8012066
:1094C00010BD012248212CF01BBD012258212CF097
:1094D00017BD3122F4212CF013BD00BF0269C3680F
:1094E0002DE9F04712EA030927D00E4605464FF052
:1094F00000474FF00008B9FA89F327FA03F21B3B43
:10950000D2432A6109EA0209042B13D8DFE803F0E9
:10951000322920170300736A002B34D1EB6A1FFA3B
:1095200083FA346A34B12368204651469847646808
:10953000002CF8D1B9F1000FDDD1BDE8F08730681B
:10954000696B036889B29847B9F1000FD3D1F4E78A
:109550007068A96B036889B29847B9F1000FCAD146
:10956000EBE7B068E96B036889B29847B9F1000F7F
:10957000C1D1E2E7F068296C036889B29847B9F174
:10958000000FB8D1D9E703F1FF3AC6F824801FFADB
:109590008AFAC6E72DE9F04F8BB090F8653002905B
:1095A000002B40F01785029BC3495B691A688B4208
:1095B00022F040021A6000F00885C04A934200F091
:1095C000048538261D686B21029A4FF0100925F09A
:1095D0003805BB4C02F1100080223543DFF8F082E1
:1095E00003901D601D68B74E45F04005B64F1D60E5
:1095F0002CF05CF86423DFF8DCE2B4480193DEF879
:109600000430C3F30803002B40F00384EFF311830D
:10961000002B40F0FE832568826823689D42FAD1C2
:109620003B689A42F7D8D6F800C04FF47A7101FB34
:109630000CF39B1AB3FBFCF301FB05354FF47A7C6A
:109640004FF0010ADEF80430C3F30803002B40F0AA
:10965000A383EFF31183002B40F09E83236881687E
:1096600022689342FAD13A689142F7D832680CFBEB
:1096700002FBABEB0101B1FBF2F10CFB03135B1B33
:10968000B3F57A7FDED3019B013B0193B7D103226F
:10969000682103984FF010092CF008F8DFF83082A9
:1096A0006423DFF830E28948874F0193DEF8043005
:1096B000C3F30803002B40F08D83EFF31183002BDD
:1096C00040F088832568826823689D42FAD13B6810
:1096D0009A42F7D8D6F800C04FF47A7101FB0CF328
:1096E0009B1AB3FBFCF301FB05354FF47A7C4FF07A
:1096F000010ADEF80430C3F30803002B40F02E8388
:10970000EFF31183002B40F02983236881682268DE
:109710009342FAD13A689142F7D832680CFB02FBC7
:10972000ABEB0101B1FBF2F10CFB03135B1BB3F5D7
:109730007A7FDED3019B013B0193B7D101226B21DC
:1097400003984FF010092BF0B1FFDFF884810F234D
:10975000DFF880E15D485C4F0193DEF80430C3F32D
:109760000803002B40F0F183EFF31183002B40F04E
:10977000EC832568826823689D42FAD13B689A424F
:10978000F7D8D6F800C04FF47A7101FB0CF39B1A9E
:10979000B3FBFCF301FB05354FF47A7C4FF0010A73
:1097A000DEF80430C3F30803002B40F0B982EFF376
:1097B0001183002B40F0B4822368816822689342B1
:1097C000FAD13A689142F7D832680CFB02FBABEB56
:1097D0000101B1FBF2F10CFB03135B1BB3F57A7FC4
:1097E000DED3019B013B0193B7D118221B210398C3
:1097F0004FF010092BF05AFFDFF8D4800F23DFF869
:10980000D4E03248304F0193DEF80430C3F308034C
:10981000002B40F07B83EFF31183002B40F0768325
:109820002568826823689D42FAD13B689A42F7D83E
:10983000D6F800C04FF47A7101FB0CF39B1AB3FB0E
:10984000FCF301FB05354FF47A7C4FF0010ADEF89A
:109850000430C3F30803002B40F04482EFF311837C
:10986000002B40F03F822368816822689342FAD13E
:109870003A689142F7D832680CFB02FBABEB01016E
:10988000B1FBF2F10CFB03135B1BB3F57A7FDED364
:10989000019B013B0193B7D118221C2103984FF083
:1098A00010092BF003FFDFF828800F23DFF824E0F6
:1098B0000648054F01930FE000380040003C00408F
:1098C0004C930120509301205493012010E000E0BC
:1098D0004893012000ED00E0DEF80430C3F30803F4
:1098E000002B40F05183EFF31183002B40F04C83A9
:1098F0002568826823689D42FAD13B689A42F7D86E
:10990000D6F800C04FF47A7101FB0CF39B1AB3FB3D
:10991000FCF301FB05354FF47A7C4FF0010ADEF8C9
:109920000430C3F30803002B40F0BE81EFF3118332
:10993000002B40F0B9812368816822689342FAD1F4
:109940003A689142F7D832680CFB02FBABEB01019D
:10995000B1FBF2F10CFB03135B1BB3F57A7FDED393
:10996000019B013B0193B7D1029A92F85F30032B20
:1099700000F2298392F86220012A0BD0022A40F0DB
:109980002283029B93F8673003F0FB03022B0CBF8A
:10999000002207221A2103982BF088FE4FF01009AD
:1099A0000F23DFF8FCE2BA48DFF8F882B94F0193E1
:1099B000DEF80430C3F30803002B40F06982EFF3B4
:1099C0001183002B40F064822568826823689D42E1
:1099D000FAD13B689A42F7D8D6F800C04FF47A71B2
:1099E00001FB0CF39B1AB3FBFCF301FB05354FF4B1
:1099F0007A7C4FF0010ADEF80430C3F30803002B31
:109A000040F02881EFF31183002B40F0238123687D
:109A1000816822689342FAD13A689142F7D8326855
:109A20000CFB02FBABEB0101B1FBF2F10CFB0313EE
:109A30005B1BB3F57A7FDED3019B013B0193B7D16A
:109A4000029B192103984FF0100993F864202BF022
:109A50002DFEDFF850826423DFF844E28C488D4FFE
:109A60000193DEF80430C3F30803002B40F0F181CA
:109A7000EFF31183002B40F0EC81256882682368A6
:109A80009D42FAD13B689A42F7D8D6F800C04FF40D
:109A90007A7101FB0CF39B1AB3FBFCF301FB053558
:109AA0004FF47A7C4FF0010ADEF80430C3F3080368
:109AB000002B40F0B180EFF31183002B40F0AC801D
:109AC0002368816822689342FAD13A689142F7D8B4
:109AD00032680CFB02FBABEB0101B1FBF2F10CFBBA
:109AE00003135B1BB3F57A7FDED3019B013B01932C
:109AF000B7D11022372103984FF010092BF0D6FD73
:109B0000DFF8A0810F23DFF898E16148614F0193EE
:109B1000DEF80430C3F30803002B40F0D881EFF3E4
:109B20001183002B40F0D3812568826823689D4211
:109B3000FAD13B689A42F7D8D6F800C04FF47A7150
:109B400001FB0CF39B1AB3FBFCF301FB05354FF44F
:109B50007A7C4FF0010ADEF80430C3F30803002BCF
:109B60003CD1EFF31183002B38D123688168226840
:109B70009342FAD13A689142F7D832680CFB02FB63
:109B8000ABEB0101B1FBF2F10CFB03135B1BB3F573
:109B90007A7FE0D3019B013B0193B9D101223821A7
:109BA00003982BF083FD029B3B495B691A688B424B
:109BB00022F040021A6000F00B82384A934200F013
:109BC000078218211A6822F038020A431A601A68BC
:109BD00042F040021A600BB0BDE8F08FEFF3118144
:109BE00089F31288D0F808B00368DB0303D5C8F8FE
:109BF00000A0D0F808B02368C9B2D8F8002081F3DB
:109C00001188316813440CFB01F2A2EB0B02B2FB8A
:109C1000F1F20CFB0323B9E7EFF3118189F312880A
:109C2000D0F808B00368DB0303D5C8F800A0D0F86B
:109C300008B02368C9B2D8F8002081F311883168D0
:109C400013440CFB01F2A2EB0B02B2FBF1F20CFB92
:109C5000032346E7EFF3118189F31288D0F808B0A7
:109C60000368DB0303D5C8F800A0D0F808B0236868
:109C7000C9B2D8F8002081F31188316813440CFB75
:109C800001F2A2EB0B02B2FBF1F20CFB0323CFE6D5
:109C900010E000E05493012000380040003C0040F8
:109CA00000ED00E048930120EFF3118189F3128861
:109CB000D0F808B00368DB0303D5C8F800A0D0F8DB
:109CC00008B02368C9B2D8F8002081F31188316840
:109CD00013440CFB01F2A2EB0B02B2FBF1F20CFB02
:109CE000032339E6EFF3118189F31288D0F808B025
:109CF0000368DB0303D5C8F800A0D0F808B02368D8
:109D0000C9B2D8F8002081F31188316813440CFBE4
:109D100001F2A2EB0B02B2FBF1F20CFB0323B3E561
:109D2000EFF3118189F31288D0F808B00368DB03E0
:109D300003D5C8F800A0D0F808B02368C9B2D8F895
:109D4000002081F31188316813440CFB01F2A2EB6F
:109D50000B02B2FBF1F20CFB03233EE5EFF31181A2
:109D600089F31288D0F808B00368DB0303D5C8F87C
:109D700000A0D0F808B02368C9B2D8F8002081F359
:109D80001188316813440CFB01F2A2EB0B02B2FB09
:109D9000F1F20CFB0323C9E4EFF3118189F312887C
:109DA000D0F808B00368DB0303D5C8F800A0D0F8EA
:109DB00008B02368C9B2D8F8002081F3118831684F
:109DC00013440CFB01F2A2EB0B02B2FBF1F20CFB11
:109DD000032354E4EFF3118389F312888168026846
:109DE000D20303D50122C8F8002081682568DBB2C0
:109DF000D8F800A083F311884FF47A72D6F800C027
:109E0000554402FB0CF35B1AB3FBFCF302FB053574
:109E10006BE4EFF3118389F3128881680268D2033F
:109E200003D50122C8F8002081682568DBB2D8F884
:109E300000A083F311884FF47A72D6F800C055441D
:109E400002FB0CF35B1AB3FBFCF302FB0535FFF7D7
:109E5000F5BBEFF3118389F3128881680268D2039E
:109E600003D50122C8F8002081682568DBB2D8F844
:109E700000A083F311884FF47A72D6F800C05544DD
:109E800002FB0CF35B1AB3FBFCF302FB053507E6A0
:109E9000EFF3118389F3128881680268D20303D536
:109EA0000122C8F8002081682568DBB2D8F800A03C
:109EB00083F311884FF47A72D6F800C0554402FB40
:109EC0000CF35B1AB3FBFCF302FB05358FE5EFF3F4
:109ED000118389F3128881680268D20303D50122B5
:109EE000C8F8002081682568DBB2D8F800A083F3A9
:109EF00011884FF47A72D6F800C0554402FB0CF377
:109F00005B1AB3FBFCF302FB053520E6EFF311838C
:109F100089F3128881680268D20303D50122C8F848
:109F2000002081682568DBB2D8F800A083F311888F
:109F30004FF47A72D6F800C0554402FB0CF35B1A5A
:109F4000B3FBFCF302FB05357DE4EFF3118389F3EA
:109F5000128881680268D20303D50122C8F8002064
:109F600081682568DBB2D8F800A083F311884FF42C
:109F70007A72D6F800C0554402FB0CF35B1AB3FBAF
:109F8000FCF302FB053507E4EFF3118389F3128834
:109F900081680268D20303D50122C8F800208168D5
:109FA0002568DBB2D8F800A083F311884FF47A72E9
:109FB000D6F800C0554402FB0CF35B1AB3FBFCF36C
:109FC00002FB0535A7E4019AE4E43026FFF7FABA6C
:109FD0001021F7E51C0903F00F03013C032C7BD88B
:109FE000424A32F8140040FA03F2D10774D5012234
:109FF00002FA03F3013B18404AF0A8FF3C4B3D49ED
:10A000001B5D184411EBC00566D0AF8820263A4A84
:10A010000024B7FA87F3AE71029EC3F11F03EC71FF
:10A02000F2605A1C3FF4BFAA3246DFF8ECC0334E50
:10A030000C3251F8300006EB030E05A94CF8232032
:10A040002F4B059706939EF868700794CDE9084456
:10A0500015F0DEFB2B4BDA5DF02A0FD8AB8801221E
:10A06000B3FA83F3C3F11F0312FA03F33FF49BAA7D
:10A0700025490A6813430B60FFF795BAF021234A7C
:10A080003E44D955D36896F87820C3F3022351B2E1
:10A09000C3F107001E1D042828BF0420062E88BF18
:10A0A000DC1E4FF0FF33002903FA00F36FEA0303CD
:10A0B00003F0030303FA04F34FEA0313DBB210DBEC
:10A0C00002F01F06124801224C090144B24081F8F7
:10A0D000003340F82420C1E7074B029AD360FFF712
:10A0E00062BA02F00F020B498B54B7E7E8D50508B6
:10A0F000F0D505088891012019890008C870050865
:10A100000000111054AE0120003C014000ED00E0C1
:10A1100000E100E014ED00E014AE0120F8B5EFF32B
:10A120001184502383F31288D0F800311B6813F098
:10A13000010303D0E4B284F31188F8BD90F88921BB
:10A1400090F88A110A4302F02102212AF2D0D0E9C4
:10A150000912914245D095B247D94B1B9BB28162FF
:10A16000002590F8891180F894512029E2D1856961
:10A17000D54205EB0201DDD0B3FA83F56D09002D60
:10A18000D8D190F88821012AD4D006462122012076
:10A19000DFF864C0A6F87231D6F88071C6F88C5129
:10A1A00086F88921134AA6F8703186F88801384666
:10A1B000C6F86C113D65C7E90FC2D6F82021DFF85B
:10A1C0003CC02832C7F84CC018F03AFAD6F8203113
:10A1D00040221A6286F888519A6842F080029A609A
:10A1E000A8E7012380F89431A4E706691946731B98
:10A1F0009BB2B4E7E9DB01081FDC010883DB01083F
:10A20000426A10B48469A154426A04690132D0F8E8
:10A210000011A24228BF0022426241B9D0F8202199
:10A220005DF8044B136843F08003136070475DF8DA
:10A23000044B73E740699C3017F064BF426910B566
:10A240000832184C54F8220017F05CFF164B1A889D
:10A2500023460C2A0DD8DFE802F0070C0C0C130C77
:10A260000C0C190C0C0C1F002168CA6822F4007237
:10A27000CA60012283F83D2000220C4B1A7010BDE9
:10A280002168CA6822F48062CA60F2E72168CA685D
:10A2900022F40062CA60ECE72168CA6822F48052A6
:10A2A000CA60E6E7846901208069012074690120A1
:10A2B000F8B5D0F820310446DA69910615D5586A08
:10A2C000E36AC0B2002B00F0CB80216B9847D4F832
:10A2D00020311A6822F480721A609A6822F0010212
:10A2E0009A609A6942F008029A61DA69D20701D548
:10A2F00001221A62DA69970701D502221A62DA6925
:10A30000560701D504221A62DA69150701D5082219
:10A310001A62D4F80021FAB1D969490600D4F8BD0F
:10A32000D96904F590701E680F079D682CD18F06BF
:10A3300002D5B50600F1DA800F0602D5350600F128
:10A34000B980480602D5710600F18280002AE6D065
:10A350002046BDE8F840E1E6D9690806DCD594F866
:10A3600089112129D8D0D4E90901814200F09B80CC
:10A37000A069405C0131C0B298622569B1FBF5F07B
:10A3800005FB1011A162C7E715F0010502D116F413
:10A39000907FD1D0CF0701D5F7057BD48F074AD561
:10A3A000002D6CD10F0709D5B70665D508251D62AC
:10A3B000D4F88C5145F00805C4F88C51D4F88C5170
:10A3C000002DC3D08F0605D5B50603D515F0DCFBEF
:10A3D000D4F82031D4F88C21110708D49A6812F0EF
:10A3E000400204D1C4F88C21D4F80021AEE71A68E9
:10A3F000202122F490721A609A6822F001029A6079
:10A4000084F88A119A685206EED59A68D4F88411B5
:10A4100022F040029A600029E6D0414B08460B65C5
:10A4200017F04AFF0028DFD0D4F88401036D984765
:10A43000D4F800218AE74F07B4D5002DB2D0042705
:10A440001F62D4F88C7147F00207C4F88C71A9E739
:10A450001968202021F04001196084F8890175E70E
:10A46000E3696269D054E369E1680133B3FBF1F257
:10A4700001FB1233E3612AE7002D9FD096E7022704
:10A480001F62D4F88C7147F00407C4F88C714F0731
:10A4900088D5D4E701271F62D4F88C7147F00107F3
:10A4A000C4F88C717AE7A4F87221196821F0800150
:10A4B000196031E794F8891121297FF447AFB4F886
:10A4C000721189B2B9B1D4F82801D4F86C11B0F581
:10A4D000805F19D0481CC4F86C0109789962B4F8FF
:10A4E0007231013B9BB2A4F872312FE715F04CFB9F
:10A4F000D4F800212AE7196821F080011960196851
:10A5000041F04001196021E7D4F830010028E1D181
:10A5100031F8020BC0F308009862C4F86C11DEE752
:10A5200075DB0108037C01681F2B0AD9203B202220
:10A53000496802FA03F30B4214BF0123002353B905
:10A5400070472022096802FA03F30B4214BF01236B
:10A550000023002BF4D02DE9F04F466983B0044668
:10A56000DFF89882F50022F03BFB0746AB1908EBB9
:10A5700043135A7C02BB9B495A680978D2F8009071
:10A58000002938D05269136823F001031360D9F809
:10A590000C3023F48073C9F80C30934B1B78002BDC
:10A5A00037D1237C21681F2B1DD8202202FA03F308
:10A5B0008B6003B0BDE8F08FD3F8946001215A6836
:10A5C00099743168156821F0010188485F8931600C
:10A5D0000368EA680133216822EA07020360EA603F
:10A5E000237C1F2BE1D92022203B02FA03F3CB600E
:10A5F00003B0BDE8F08FD3F8941058890A6822F0B0
:10A6000001020A60D9F80C3023EA0003C9F80C30C3
:10A61000C3E7AB19764A5B0108EB030B5033DBF859
:10A62000940008EB030AC1B220F0FF001039A2FB2E
:10A630000131090917F07CFC0123DBF898208BF825
:10A640001130019222F0CCFAD9F800304FF0FF31EE
:10A65000019A43F08003C2F8CC01DBF88C20C9F8E2
:10A660000030C9F82C10102AD9F8003023F08003EC
:10A67000C9F8003052D072D9B2F5807F00F09180D5
:10A68000B2F5805F1FD1D9F82030DBF8441023F4F5
:10A690008053DBE91202C9F820301143D9F81C209D
:10A6A000DBF84030014322F47F421B0342EA1122CF
:10A6B00043F48053C9F81C20D9F8202022F420420A
:10A6C0001343C9F8203035440021494B524608EB6A
:10A6D0004515D5F89400A965C1B220F0FF001039E6
:10A6E000A3FB0131090917F0DDFBD5F8943041488F
:10A6F0005A6895F8901010406E686A890143306876
:10A700005960196841F001011960C3681343C360BF
:10A7100022F066FA384BC01B186042E7D9F82030A7
:10A72000DBF8441023F01003DBE91202C9F82030F3
:10A730001143D9F81820DBF84030014322F47F425E
:10A740001B0142EA112243F01003C9F81820D9F87E
:10A75000202022F0A0021343C9F82030B3E7012AD9
:10A76000B1D1D9F82030DBF8441023F00103DBE944
:10A770001202C9F820301143D9F81820DBF8403014
:10A78000014322F0FF0243F0010342EA1142C9F8FB
:10A790001820D9F8202022F00A021343C9F82030EB
:10A7A00091E7D9F82030DBF8441023F48073DBE91B
:10A7B0001202C9F820301143D9F81C20DBF84030D0
:10A7C000014322F0FF021B0242EA114243F480736C
:10A7D000C9F81C20D9F8202022F420621343C9F8BC
:10A7E000203070E71C3800201838002040AD0120D0
:10A7F000ABAAAAAA0000FFFF98280020203800205A
:10A8000020B10078B0FA80F040097047012070470D
:10A8100008B520214CF0EBFB034618461BB102782B
:10A820000133202AF9D008BD037903F01803082B5F
:10A830000AD002D82BB100207047102B15D0182B4E
:10A84000F9D1B0F80B007047104BB0F80B0093F93A
:10A850000030591C07D10E4B1B7803EB831300EB20
:10A86000430080B27047DBB2F7E70A4BB0F80B0049
:10A8700093F900305A1C07D1054B5B7803EB0313A7
:10A8800000EB430080B27047DBB2F7E7E10C012038
:10A89000FCA20120E00C0120F0B5067906F0E003EF
:10A8A000402B09D144794FF0FF350023012006F0F9
:10A8B0000706A3420BD1F0BD602B4FF0010403D17A
:10A8C000457904FA05F5F0E74FF0FF35EDE7042E82
:10A8D0000CD8DFE806F0030D18242E0030B1C85C58
:10A8E000D75C784028420CBF012000200133E0E70C
:10A8F0000028FBD0C856D756A0EB070CDCF10000AF
:10A9000040EB0C00F2E70028F0D031F8130032F8E9
:10A910001370784028420CBF01200020E6E7002891
:10A92000E4D031F9130032F91370C71B7842784133
:10A93000DCE70028DAD051F8230052F82370784081
:10A9400028420CBF01200020D0E7024B01461868C6
:10A950002BF09ABCF075012038B5441E054D14F853
:10A96000011F286819B9BDE838402BF005BC2BF051
:10A970008BFCF4E7F07501200048EDE76421060840
:10A9800008B5FFF7E9FFBDE80840F5E710B5044654
:10A990000348FFF7E1FF2046BDE81040F0E700BFA5
:10A9A0009CF2050808B532B1C30600D519B11046AE
:10A9B000FFF7ECFF0022104608BD38B5074C084DE4
:10A9C000AC4203D3074B00221A7038BD6288D4E929
:10A9D00001014AF0AFFF1434F2E700BFE8010008BC
:10A9E000C40700089477012038B5074C074DAC42E6
:10A9F00003D3074B01221A7038BD6288D4E90110D5
:10AA00004AF098FF1434F2E7E8010008C407000890
:10AA100094770120024A136823EA0000106070470F
:10AA2000D4A50120DFED2A7AB4EEE70AF1EE10FAA0
:10AA30004BDDDFED286A9FED287AB4EEC70A70EE91
:10AA4000667AF1EE10FAB0EE670AF6DC9FED237A33
:10AA5000F4EEC77AF1EE10FA34D5DFED1E6A9FED01
:10AA6000207AF4EEC77A37EEA60AF1EE10FAF0EE8D
:10AA7000407AF6D4DFED1B7AB4EEE70AF1EE10FA75
:10AA800014DDDFED137A37EEC00A60EE006A9FED49
:10AA9000166A9FED167ADFED167AA6EE867A20EE1C
:10AAA000266AE6EE877AA6EE270A7047DFED117A6E
:10AAB000B4EEE70AF1EE10FAE7D5DFED087A37EEEB
:10AAC000C00AE2E7B0EE670AD4E7F0EE407ABDE7ED
:10AAD000DB0F4940DB0FC940E4CB1641DB0F49C017
:10AAE000E4CB16C1DB0FC93F92E741B99730083C70
:10AAF00015A82ABEDB0FC9BFB0EEC07AF0EEE06A3F
:10AB000086FE876AB5EE406AF1EE10FA3DD0C6FEC9
:10AB1000C75AC5EE867ADFED1E2ADFED1E3ADFED5D
:10AB20001E4A9FED1E5A9FED1E3AB7EE006A9FED3A
:10AB30001D4ADFED1D5AE7EEE23AA7EE834AE7EE43
:10AB4000A34AA7EE846AA7EEA45AE7EE855AC5EE9B
:10AB5000867AF4EEC76AF1EE10FA03D59FED137A08
:10AB600077EE677AF5EEC00AF1EE10FA03D59FEDA5
:10AB7000107A77EE677AB5EEC00AF1EE10FA48BFA8
:10AB8000F1EE677AB0EE670A7047DFED077AE0E72B
:10AB900039094E3DE3B59E3E88FA163E45FE7F3F9D
:10ABA00099FB243F69A2163EA7DFA834DB0FC93FFB
:10ABB000DB0F4940DFED307A30EE277AFDEEC76AD1
:10ABC00016EE903A2033402B02D99FED2C0A7047A5
:10ABD000B4EEE70AF1EE10FA4BDD9FED296ADFEDE6
:10ABE000296AB4EEE67A77EE467AF1EE10FAB0EE24
:10ABF000677AF6DC9FED247AF4EEC77AF1EE10FA6C
:10AC000034D5DFED1F6A9FED217AF4EEC77A37EE77
:10AC1000A60AF1EE10FAF0EE407AF6D4DFED167ADD
:10AC2000B4EEE70AF1EE10FA1BDCDFED197AB4EEB0
:10AC3000E70AF1EE10FA03D5DFED137A37EEC00A1A
:10AC400060EE006A9FED136A9FED137ADFED137AD1
:10AC5000A6EE867A20EE266AE6EE877AA6EE270A28
:10AC60007047DFED0F7A37EEC00AE9E7B0EE670A0A
:10AC7000D4E7F0EE477ABDE7DB0FC93F00000000E4
:10AC8000DB0FC940E4CB1641DB0F49C0E4CB16C152
:10AC9000DB0FC9BF92E741B99730083C15A82ABE1F
:10ACA000DB0F494010B401224C0901F01F0150F89C
:10ACB000243002FA01F123EA010340F824305DF860
:10ACC000044B704710B401224C0901F01F0150F8E9
:10ACD000243002FA01F10B4340F824305DF8044BB4
:10ACE000704700BF01234A0901F01F0150F82220DC
:10ACF00003FA01F1114214BF18460020704700BF4B
:10AD00002DE9F043002489B006460D461F46A046B3
:10AD100005E025290CD030460134A847039A531C7E
:10AD2000039311780029F4D1204609B0BDE8F083DF
:10AD3000931CCDE903385378302B43D0A3F1300274
:10AD40004FF00009D2B2092A46D96C2B2BD0642BC4
:10AD50007AD019D9732B5DD06AD9752B40F08B80CE
:10AD600007F1040C386805AB00220A216746FDF79D
:10AD700075FA05A9049A4B46304600912946FDF71D
:10AD800045F9039A0444CAE7252B41D058D9582BDA
:10AD900074D0632BC2D13B1D3978304601341F4635
:10ADA000A847039ABBE7039B5A1C03921B78642BAA
:10ADB0005AD018D8252B2BD06DD9582B1AD0632BED
:10ADC000E9D0ACE7D31C4FF0010903939378A3F1CA
:10ADD0003002D2B2092AB8D8184604AA03A941F011
:10ADE000EBF80346B1E7732B14D058D9752B32D04A
:10ADF000782B94D1A3F1580207F1040C386805AB05
:10AE0000B2FA82F2102167465209FDF727FAB0E73D
:10AE1000252180E7386807F1040C049A002300908C
:10AE2000294630466746FDF7F1F8039A044476E771
:10AE30006E2B7FF473AF039A3B6804371C606EE798
:10AE4000002B3FF471AF69E73B1D386805A91F4629
:10AE5000FDF7D0F98DE7391D386805AB00220F46A4
:10AE60000A21FDF7FBF984E73B1D386805A91F4659
:10AE7000FDF7C0F97DE7782B7FF450AFA3F15802BE
:10AE8000391D386805ABB2FA82F20F46102152091B
:10AE9000FDF7E4F96DE7002B3FF446AF3FE76E2B7B
:10AEA000CAD03CE710B5064C0B460246054920685F
:10AEB000FFF726FF2068BDE810402BF05DB900BF0A
:10AEC000F07501208D8C000838B504460D46084801
:10AED000FFF742FD29462046FFF7E4FF0548FFF74C
:10AEE0003BFD054B1B7813B1044B01221A7038BD92
:10AEF000A1F20508CF1B06084C7701204D770120F1
:10AF00000FB407B504A951F8040B0191FFF7DCFF5A
:10AF1000FFF732FD03B05DF804EB04B07047134651
:10AF20000A4601460048EBE7ACF205080048E7E7AF
:10AF3000C5F205080FB407B504A951F8040B019137
:10AF4000FFF7C2FF03B05DF804EB04B070470FB425
:10AF500007B504A951F8040B0191FFF7A3FFFFF710
:10AF60000BFD03B05DF804EB04B070470FB407B5F8
:10AF700004A951F8040B0191FFF794FF03B05DF8A9
:10AF800004EB04B070472DE9F843037903F0E001C6
:10AF9000202928D002D849B1BDE8F883402945D0FE
:10AFA0006029F9D12448BDE8F843D0E703F007034E
:10AFB000022B02D0042B08D06BB9B0F80720B0F8F0
:10AFC00005101E48BDE8F843C1E7D0F805201B482E
:10AFD000BDE8F843BBE7B0F90720B0F90510174802
:10AFE000BDE8F843B3E745790024154E1548FFF74F
:10AFF000B3FC012306EBC50292F80480A04502D8F9
:10B00000BDE8F843B8E456F835704FEA840957F8BC
:10B0100024204AB113B90C48FFF79EFC57F80910D9
:10B020000A48FFF7A3FF00230134E7E74179084806
:10B03000BDE8F8438BE700BF0DF30508D1F2050822
:10B0400080A90508E8F20508F9F20508381606088F
:10B05000FCF205082DE9F0411746027905460E4637
:10B0600002F0E003402B2BD10024584FDFF8808101
:10B0700015E02B7903F00703022B15D0032B19D011
:10B08000012B384614BF315D3157FFF76FFF6B79E5
:10B09000013BA34202DD4046FFF75EFC01346B79C1
:10B0A000A342E6DCBDE8F08136F814103846FFF71D
:10B0B0005DFFECE736F914103846FFF757FFE6E777
:10B0C00002F00702042A5DD8DFE802F0031D2527FD
:10B0D0002A003478202B3AD06DD8002BE2D1B5F875
:10B0E0000560B5F8078021463848FFF73FFFB442B6
:10B0F00040DB44453EDC002FD4D042463146344844
:10B10000BDE8F04132E796F90040202B1FD052D81D
:10B11000002B3DD0C6E73488DCE7B6F90040F4E701
:10B12000D6F80080202B444611D044D8002BB9D14A
:10B1300041462648FFF71AFFD5F80510884519D86B
:10B14000002FAFD02348BDE8F0410FE700246A7913
:10B15000214B03EBC2010979A1420BDD53F83230D8
:10B1600053F82400BDE8F041FFF7F6BB1B48BDE8EB
:10B17000F041FBE6FFF700FC224629681848BDE8CD
:10B18000F041D7E6202BE1D007D8002B8AD11C460E
:10B19000B5F90560B5F90780A5E7602BE6D0802BEF
:10B1A00080D131780F4B1048002914BF3146194621
:10B1B000BDE8F041DAE6602BF1D16A791441E3078A
:10B1C000D4D50A48BDE8F041D0E600BFE5F2050855
:10B1D0006A16060827F3050880A90508D15D060848
:10B1E0002DF30508425E06083816060822F3050806
:10B1F00025F305080CB407B510F020000BD079B981
:10B200002320FFF7A2FB05A904980191FFF74AFE4E
:10B21000FFF7B2FB012003B05DF804EB02B070470A
:10B220000020F8E70CB4C30607B500D561B905A93D
:10B2300004980191FFF736FEFFF79EFB012003B053
:10B240005DF804EB02B070470020F8E70EB410B5CB
:10B2500085B0094907AC019001A854F8042B234696
:10B260000394FFF74DFD019B00221A7005B0BDE865
:10B27000104003B0704700BF0180000870B406683A
:10B280008E4219D94C1E751E002314F8011F082286
:10B290004B4002E0013ACBB207D059001B06F9D56A
:10B2A00081F0D503013ADBB2F7D1A542EDD1721C92
:10B2B0000260337070BC7047721C002302603370F0
:10B2C00070BC70470A44914217D0013910B4541E23
:10B2D00011F8012F0823504002E0013BD0B207D003
:10B2E00042000006F9D582F0D500013BC0B2F7D18B
:10B2F000A142EDD15DF8044B7047704748400823E8
:10B3000002E0013BD0B208D001064FEA4002F8D576
:10B3100082F0D500013BC0B2F6D170470A44914299
:10B320001BD0013930B4551E41F2210411F8012F10
:10B33000082380EA022002E0013B90B209D010F419
:10B34000004F4FEA4002F7D084EA4000013B80B250
:10B35000F5D18D42EAD130BC7047704770B5144CBE
:10B360000222144E4FF6FF701349FFF7D7FF2288D1
:10B370004AB1A518B54218D2052A16D921462C463D
:10B38000FFF7CCFFF3E721460222FFF7C7FF0222B7
:10B39000A118FFF7C3FF094BE41A094B1C8041F6C3
:10B3A0000F53C31A5842584170BD0020FCE700BF3C
:10B3B000024000080080000800400008FA3F000832
:10B3C00096770120104A2DE93048D2E9004554EA29
:10B3D00005020BD10346002240F2011110461A80EB
:10B3E0009A809A711A815980BDE83088074B1A6893
:10B3F00014EB020B45F1000C5A466346FCF742FE83
:10B400000120BDE8308800BFC08401204C9301209A
:10B410000288A2F5FA6270B402F003018478C3785E
:10B4200040F2B55601EB4101013C124D013B04EBEA
:10B4300081040179920806FB023235F81430048940
:10B4400000251344427980794FF47A7603EB430365
:10B4500001EBC3030849C3EB03130144204602EB8D
:10B460008303C3EB031301EB83032946C6FB0301EC
:10B4700070BC7047C870050880436D382DE9F047EF
:10B4800007468CB01E469246002A60D115461446E7
:10B490000A88B2F5FA6F37D38B78581E0B2833D849
:10B4A00091F803C00CF1FF301E282DD891F804E06C
:10B4B000BEF1170F28D891F80590B9F13B0F23D8AA
:10B4C00088793B2820D8B1F80880B8F57A7F1BD25C
:10B4D0004FF001086EBB002C0E890795B4BF2D21DB
:10B4E0002B21002CCDF800C0B8BF6442CDE9030683
:10B4F000CDE9051438462D49CDE901E9FFF7A6FE4F
:10B5000040460CB0BDE8F0870022DFF8ACA04FF059
:10B51000010C09A91046ADF828208DF82A206346B1
:10B52000ADF82C20914696469046CDF824A0002EEA
:10B53000D1D0CDF804E0CDF800C01D49CDE902908E
:10B540003846FFF783FE40460CB0BDE8F087194B44
:10B55000D417084683FB0A235344C4EB6314C4EB9B
:10B56000041524B2AAEB85052DB2002DB8BF6D429B
:10B57000FFF74EFF4FF47A7200238046894649F068
:10B5800095FC3C214FF47A7200230AFB010A4046E5
:10B59000494649F08BFC4FF47A7192B2002309A816
:10B5A000C1FB0A23FCF76EFD09A971E7B8F3050892
:10B5B00098F3050889888888000001010378092B21
:10B5C00001D0202B05D110F8013F202BFBD0092BF7
:10B5D000F9D02D2B00F0A9802B2B75D0B7EE000AE7
:10B5E000A3F13002D1B2092977D8F2EE046ADFED77
:10B5F0005F7A07EE102A10F8013FB8EEC77AA3F180
:10B600003002D1B2A7EEA67A0929F0EE477AF0D936
:10B610002E2B66D003F0DF03452B40F0838010B45F
:10B6200042782D2A00F096802B2A00F08380A2F128
:10B6300030030130092B00F284800024002303EB47
:10B64000830302EB430310F8012FA2F13001303BDA
:10B650000929F4D9B3F59A7F1A46B7EE007A28BFC4
:10B660004FF49A72072B09D91346DFED416A083B64
:10B6700027EE267A072BFAD802F00702DAB1F2EEAB
:10B68000046A012A27EE267A15D0022A27EE267AA6
:10B6900011D0032A27EE267A0DD0042A27EE267A27
:10B6A00009D0052A27EE267A05D027EE267A062A23
:10B6B00018BF27EE267A002C45D0C7EE877A5DF8B2
:10B6C000044B20EE270A70474378B7EE000A01309A
:10B6D000A3F13002D1B2092987D92E2BDFED237ACD
:10B6E00098D143780130A3F13002D1B2092991D821
:10B6F000B2EE047AF0EE475A06EE902A10F8013FB7
:10B70000B8EEE66AA3F13002D1B2C6EE076A0929A3
:10B7100027EE257A77EEA67AEED903F0DF03452BE4
:10B720003FF47DAF20EE270A70474378BFEE000A52
:10B73000013055E782780230A2F13003092B7FF601
:10B740007CAFB7EE007A67EE877A5DF8044B20EEA7
:10B75000270A704782780230A2F13003092B01D802
:10B7600001246BE7B7EE007AA7E700BF00000000F6
:10B7700020BCBE4CF8B5064615460846B6FBF2F4AA
:10B7800034B905FB14640C4B1B5D00F8013BF8BD9C
:10B79000B4FBF2F75FB905FB1747074B05FB1464D1
:10B7A000DA5D1B5D00F8012B00F8013BF8BD38465F
:10B7B000FFF7E0FFEFE700BFE8F30508B5EEC00ACA
:10B7C000DFED6D7A00236D4AF1EE10FA2DE9F047B6
:10B7D000C8BF30EE270A88B0D8BF30EE670ADFED69
:10B7E000687A0493054620EE270ACDE90233FDEE80
:10B7F000C07A17EE904A84EAE476A6EBE476A2FBE0
:10B8000006325FEAD20847D105AF5E4A39465B4B44
:10B81000002C4FF00000A3FB06434870A8BF202077
:10B820004FEAD303B8BF2D2003EB83038DF8080044
:10B830003846A6EB4303D35C0B7048F041FE012869
:10B840003ED0022848D003281ED0394602A84BF02B
:10B85000BFFB02A848F034FEC41E02A92846E4B289
:10B8600022464BF0EBFB002328462B5548F028FEE0
:10B8700002AB2E221919431C2A54E8184BF0C4FBC2
:10B88000284608B0BDE8F0873023394602A88DF875
:10B8900009304BF09DFBDCE73B4BA3FB06235B0928
:10B8A00024D105AF374A3946344BA3FB0803DB08E4
:10B8B00003EB8303A8EB4303D35C01F8013BA6E74A
:10B8C0003023394602A88DF809308DF80A308DF8FA
:10B8D0000B304BF07DFBBCE73023394602A88DF8D6
:10B8E00009308DF80A304BF073FBB2E7274AA2FB10
:10B8F00006125FEA92190ED105AF224A39461F4857
:10B90000A0FB03C0C00800EB8000A3EB4003D35CA6
:10B9100001F8013BC8E71E4AA2FB06125FEA523A51
:10B920000FD105AF174A39461448A0FB09C0C0081B
:10B9300000EB8000A9EB400912F8090001F8010BA7
:10B94000DDE71448B6FBF0F070B905AF38464FF0AC
:10B950000A0C01460B4ABAFBFCF00CFB10AA12F8C9
:10B960000A0001F8010BDFE705AF0A22019339460F
:10B97000FFF700FF019BEAE76F12033ACDCCCCCC76
:10B9800000007A44E8F305081F85EB51D34D62109F
:10B990005917B7D1A086010002B370B48E1803E026
:10B9A000121B14D1B14215D010F8012BA2F14103A2
:10B9B000192B11F8013BA3F1410598BF203203F187
:10B9C0002004192DECD9D21A01D1002BEAD110464E
:10B9D00070BC7047002270BC10467047104670471C
:10B9E00070B5044608460D4648F06AFD064602E07A
:10B9F00014F8013F43B1324629462046FFF7CCFFF9
:10BA00000028F5D1204670BD1C46204670BD00BF01
:10BA10004FF0FF32FFF7C0BFA0F16103192B98BFB1
