:020000040800F2
:10000000F0FF0010AD1605089D5C0308DD0802082E
:100010004D1705084D1705084D170508000000008D
:10002000000000000000000000000000A95C0308C0
:10003000A55C030800000000A15C0308F1D10108E1
:100040004D1705084D1705084D1705084D170508EC
:100050004D1705084D17050869170208951802087D
:10006000591802081D180208E1170208D5E4000813
:10007000C5E40008B5E40008A5E4000891E4000820
:100080007DE4000869E400084D1705084D170508D0
:100090004D1705084D1705084D170508A517020847
:1000A000B5B7010819BB0108A5B7010841BB010894
:1000B00059BA010899B90108CDB801082507010806
:1000C0002D070108150701081D0701084D17050830
:1000D0004D1705086DD2010861D2010855D20108FB
:1000E0002D1702084D170508A99C030895B70108AC
:1000F000C5B7010885B70108EDB7010855E4000848
:100100004D1705084D170508FDB701084D170508DF
:1001100049D201083DD2010845600108316001085B
:1001200041E400082DE4000819E4000805E4000893
:10013000F1E300084D1705084D1705084D17050890
:100140004D1705084D1705084D170508516D030893
:10015000DDE30008C9E30008B5E3000831D2010877
:10016000050701080D0701084D1705084D1705087B
:100170004D1705084D1705084D1705084D170508BB
:080180004D1705084D17050895
:08018800541205000100000003
:1001900010020100C01A0020BC1A0020000000005C
:1001A000580700081F021000D41A0020C41A0020AB
:1001B000000000003D85000807020200F821002031
:1001C0003C220020000000005C070008F6210C0023
:1001D000D02100204022002000000000600700081D
:1001E00002000C00C42100204C220020000000006E
:1001F0000000000006020C00B82100205822002058
:1002000000000000E98E000808120F003C210020C9
:100210006422002000000000F9840008F7010600B5
:100220003021002074220020000000006C0700082C
:100230001D0202002C2100207C2200200000000072
:10024000720700080A020A00B41E00208022002063
:1002500000000000E912010803000100581E002000
:100260008C220020000000000000000003123D006E
:10027000C820002090220020000000007407000821
:1002800025102C01E81E0020D022002000000000D4
:100290000000000010100200EC1D0020FC230020D4
:1002A00000000000B20700081A023C0028240020C9
:1002B00040290020000000004D8E000827000400A7
:1002C000182400207C29002000000000B40700084A
:1002D000381001000C2400208029002000000000BC
:1002E000B80700082C0010003C3600202C360020F7
:1002F00000000000F73902082B00240070360020AF
:100300004C36002000000000C9390208292078007E
:100310001835002094360020000000000000000086
:10032000281010001C3700200C37002000000000AF
:10033000813002081C021000283000202C370020D9
:1003400000000000B1830008140003007C3400208A
:100350003C37002000000000BA07000801200C0014
:10036000842C00204037002000000000BE07000859
:100370000A702800F02B00204C37002000000000FD
:10038000253002080EB08601682A0020743700204C
:1003900000000000757B040801010400C42900204E
:1003A000FC380020000000000000000000010400F4
:1003B000BC2900200039002000000000CA07000806
:1003C00002010300B82900200439002000000000C9
:1003D000D50F010822021401D84F002064520020DA
:1003E00000000000A58F00080C20CC00284E002043
:1003F0007853002000000000990F01080102050059
:10040000004E00204454002000000000E9D3020800
:1004100000020500F84D00204C54002000000000B0
:10042000000000001B021000CC4D0020545400209E
:1004300000000000DD8300081E000600244B0020A1
:100440006454002000000000D00700081B100C00BE
:100450002C3B00206C5400200000000021E9020821
:100460002102F000AC390020785400200000000088
:1004700075E2020823121000304F0020685500205A
:1004800000000000D807000837102800544D002055
:100490007855002000000000E80700080E02020066
:1004A0002C4F0020A055002000000000100800087C
:1004B000161006000C390020A45500200000000092
:1004C000120800082F10220040520020AC550020D6
:1004D0000000000018080008051006000C4A002063
:1004E000D0550020000000003A08000823100E003C
:1004F0006C4A0020D8550020000000009930020806
:10050000F551900014390020E8550020000000004B
:10051000F91903080B301A00C86900203C7100204B
:1005200000000000400800081F3024000061002087
:1005300058710020000000005C080008050204005B
:10054000506B00207C710020000000008008000833
:1005500003010A00286100208071002000000000D3
:100560008408000813020400AC5F00208C71002096
:10057000000000008E0800080D003C00F89C0020E0
:10058000A49D0020000000007D9D030809020100D9
:10059000649C0020E09D00200000000094080008FA
:1005A00004008000E49B0020E49D00200000000087
:1005B00000000000F9010400D09B0020649E002090
:1005C00000000000E59F010813000400CC9B002000
:1005D000689E00200000000098080008FD011E0031
:1005E000AC9B00206C9E0020000000006D9F010865
:1005F00018203000789B00208C9E00200000000016
:10060000058F000806101A0058890020BC9E0020A3
:1006100000000000D17B0408FB0101005489002088
:10062000D89E002000000000798F0008FC0109001E
:1006300020880020DC9E002000000000898F000838
:1006400016023F00E0870020E89E00200000000026
:10065000198400083400100010870020289F002013
:1006600000000000A57B040811020800E8860020B5
:10067000389F0020000000009C08000812120400AF
:10068000E0860020409F002000000000A408000831
:1006900012201000D0860020449F0020000000009F
:1006A000A8080008020203009C720020549F00204A
:1006B00000000000000000000C020400587200203E
:1006C000589F00200000000025850008FE0114004E
:1006D000687D00205C9F002000000000F18300087E
:1006E00019000500D8A40020ACA5002000000000DF
:1006F000B80800081A000E0064A40020B4A5002069
:1007000000000000BE080008F82106002CA300200D
:10071000C4A5002000000000CC08000820320A0018
:1007200034A30020CCA5002000000000557B040865
:10073000150070001CA10020D8A5002000000000BA
:10074000000000002A00600034A5002048A6002018
:08075000000000002D7B0408ED
:1007580000000000033C0000000000000100000051
:100768000202000023010000000000000000000059
:100778000000000000000000000000000000000071
:100788000000000000000000000000000000000061
:100798000000000000000000000000000000000051
:1007A8000000000000000000010000052003000018
:1007B800000003000000E8036400040A00011400BC
:1007C8001E00900100000000000001000000000071
:1007D8000000000000000000000000000000000011
:1007E80020003200C800D00796001400320028000C
:1007F800B00440060005500014000F000800640013
:100808000100000005000A000000C40900001900EA
:1008180000000000000000000000000000000000D0
:1008280000000000000000000000000000000000C0
:100838000000200003010000AE014A015E012C0106
:1008480064010100000001000A019A01001E0A006B
:10085800000000000000000000010000000500008A
:10086800010203000000000000000000000000007A
:1008780000000000008007000000000004010100E3
:100888006C160000000000000100000020000000BD
:10089800080040300000000001010101FFFFFFFFD8
:1008A80000000001000005464F5233000008000018
:1008B8000000280100007E05EA05B4053200E803BF
:0A08C800D00700000401F401140041
:1008D200FF01FF0000000401000000000000000210
:1008E20010000000070000000000000000000000EF
:1008F20001020304060708090000803F0000803F50
:10090200000000000000000000000000FFFFFFFFE9
:10091200FF000000000000002C2200200800000060
:10092200000000001C22002008000000DCA40508D2
:10093200E8A40508F4A4050800A505080CA5050807
:1009420018A5050874C705081CE805084CE7050842
:1009520060D30508B0AC0508D49E0508D0A40508EC
:10096200D4A40508D8A4050824A5050828A50508C7
:100972002CA50508BCE5050830A505081900C80026
:10098200F4012003FFFF0100A00F0000B80B0000DC
:100992000102FFFF0100000001000000A127020880
:1009A20000000000D43F0508FFFFFFFF0101010026
:1009B2000001010100D60100B80B00002D202D2DF1
:1009C200202D2D2D2D202D2D2D00000000000000AA
:1009D2000000000000000000000000000000000015
:1009E20000000000D85305080000000000000000CD
:1009F2006454050801000000FA0000000100000034
:100A02000100000001010000802C00200000F40120
:100A1200010000007E2C00200000F4010100000013
:100A22007C2C00200000F401010000007A2C002040
:100A32000000F40101000000782C00200000F40105
:100A420001000000762C00200000F40101000000EB
:100A5200742C00200000F40101000000B12E0208F5
:100A6200752E0208904105086A2C0020053201000B
:100A7200682C0020E803D00701000000662C00204B
:100A8200E803D00701000000642C0020E803D0072F
:100A920001000000622C00201E00B80B01000000C3
:100AA200702C002005000F0001000000722C0020B5
:100AB20003000A0001000000602C00201E00F40167
:100AC200010000005E2C0020140064000100000000
:100AD2006C2C00203200E803010000005C2C002096
:100AE2000000C80001000000362C002000C80100F0
:100AF200352C002000500100342C0020005A010047
:100B0200322C0020020000001C42050850B70508E4
:100B120058B705088E9D00200100C409000000009E
:100B22008C9D00200100C409000000008A9D002065
:100B32000100C40900000000889D00200100C409D2
:100B420000000000849D00200100C4090000000094
:100B5200869D00200100C40900000000829D002043
:100B62000100C40900000000809D00200100C409AA
:100B720000000000DD29002000C80100DC2900205F
:100B820000C80100DA2900200100C80001000000AD
:100B9200D82900203200307532000000D62900200A
:100BA200055A0500D329002000FF0100D5290020A5
:100BB20001000000C4030020D1290020030000002E
:100BC200505C0508D229002000FF0100D429002032
:100BD20001000000C4030020D0290020030000000F
:100BE200505C0508192E0208BD2D0208284205088E
:100BF200942C0020EE02CA0801000000922C002072
:100C020000C8010064000000912C002000C801000F
:100C120064000000902C0020020000000843050838
:100C2200CA29002080C1803E05000000C82900209A
:100C320080C1803E05000000C229002080C1803EA4
:100C420005000000C029002080C1803E0500000090
:100C5200BB29002000FF0100B42900206400F40138
:100C620001000000B329002004000000144305081D
:100C7200B22900200200000028430508572A00205C
:100C82000D00000034430508542A002000640100CE
:100C9200522A0020320010270A000000512A0020A8
:100CA2000D00000034430508502A00200D0000000A
:100CB200344305084F2A0020020000006C43050857
:100CC200000000000000000078430508086B0020C7
:100CD2009CFF2C0100000000482F0020E0150C179B
:100CE200000000004A2F002002000000B043050867
:100CF200A02C00200100FF7F010000009F2C00209B
:100D020002000000BC430508592A0020030000002D
:100D1200CC430508582A002003000000CC430508F4
:100D2200242C00200000E80301000000222C0020F7
:100D32000000E80301000000202C00200000E8036E
:100D4200010000001E2C00200000E803010000004A
:100D52001C2C00200000E803010000001A2C0020D7
:100D62000000E80301000000192C0020001401001B
:100D7200182C002003000000DC430508302C002062
:100D82000000F401010000002E2C00200000F401FC
:100D9200010000002C2C00200000F40101000000E2
:100DA2002A2C00200000F40101000000282C002061
:100DB2000000803E01000000262C00200000803E42
:100DC20001000000492C002019640100482C002079
:100DD20002000000EC430508462C0020E803D0077F
:100DE2000A000000442C0020006401000A000000F8
:100DF200392C002000640100382C0020006401001E
:100E0200402C0020006401000A0000003F2C00205A
:100E1200006401000A0000003E2C00200064010072
:100E22000A000000432C0020006401000A000000B8
:100E3200422C0020006401000A000000412C002026
:100E4200006401000A0000003D2C002001FF0100A7
:100E52000A0000003C2C002001FF01000A000000F3
:100E62003B2C002001FF01000A000000622A002042
:100E72000000F40101000000602A00200000F401DB
:100E8200010000005E2A00200000F40101000000C1
:100E92005C2A00200000F401010000005A2A002010
:100EA2000000F40101000000A32F002000C801008F
:100EB200A22F002000640100A12F00200064010085
:100EC200A02F0020006401009F2F00200064010079
:100ED2009E2F0020FF0801009D2F002001640100C9
:100EE200252D0208E92C0208F84305089C2F002052
:100EF200006401009A2F00201400E80301000000A2
:100F0200982F0020E80330750A000000962F002079
:100F120000C80100952F002000C80100942F002076
:100F220000C80100932F0020006401000A000000A5
:100F3200B22F00200000D00701000000AC2F0020DB
:100F420000C80100AB2F002000C80100AA2F00201A
:100F520000C80100B02F00200000D00701000000EF
:100F6200A92F002000C80100A82F002000C80100FE
:100F7200A72F002000C80100AE2F00200000D007DC
:100F820001000000A62F002000C80100A52F0020AC
:100F920000C80100A42F002000C8010000000000CA
:100FA200DD2A0208684405084D2A002039000000A5
:100FB200044505084C2A002000C801004A2A0020E6
:100FC200E803D0070100000046465F464F525449ED
:100FD2004E4946345F52455630330000CF29002037
:100FE20000030100CE29002000030100292A020883
:100FF200ED290208EC450508A92902085D29020825
:101002005C460508652A02083D3F0208DC460508E1
:10101200CC29002001030100192F0208ED2E02083D
:10102200E0490508ED280208AD280208504A0508E3
:10103200F32A0208593F0208EC4A0508F53A020869
:1010420000000000944B0508B13C0208792F020809
:10105200304C0508452B020800000000A04C050892
:101062001D2C0208C92B0208044D0508AD2C0208EC
:10107200712C0208A04D050815C50208612D020851
:10108200204E05085B2C0020010601008D2B020872
:10109200592B02081C4F05087BC40208194002089C
:1010A2008C4F05085DC50208B1400208885005084A
:1010B2005A2C002001030100AD2A02087D2A0208F1
:1010C2005C510508452F020800000000C0510508C8
:1010D2002D2902080D3F02082452050800000000D5
:1010E20000000000B0520508952D020829410208AF
:1010F20030530508AE29002088136F170100000045
:10110200B029002088136F17000000008A610020B8
:1011120000000000000000008861002000000000C4
:1011220000000000866100200000000000000000B6
:1011320084610020000000000000000082610020A5
:10114200000000000000000080610020000000009C
:1011520000000000BC0C00200000000000000000A5
:101162008429002002000000B8540508AC290020A0
:1011720088136F1701000000486B002088136F1757
:10118200000000004128020800000000C4540508C5
:10119200922F002001000000185505084A6B00201C
:1011A2000100000024550508406B002002000000E9
:1011B2002C55050800000000000000003855050805
:1011C2002D28020800000000D45505080000000088
:1011D2000000000028560508000000000000000082
:1011E20098560508446B0020E0150C17000000001B
:1011F20000000100E0010000FFFFFFFF080101FF06
:10120200FFFF00000403090412010002EF02014083
:10121200830456320002010203010000120100029F
:101222000202004083044057000201020301000051
:1012320009026400030100C0320904000001030036
:10124200000009211101000122260007058303087D
:10125200000A080B01020202010009040100010256
:1012620002010005240010010524010002042402E9
:10127200020524060102070582030800FF09040291
:1012820000020A0000000705010240000007058174
:101292000240000009024300020100C032090400BA
:1012A20000010202010005240010010524010001D1
:1012B200042402020524060001070582030800FF38
:1012C20009040100020A00000007050102400000B3
:1012D2000705810240000000FF000000845F05084E
:1012E20000000000000000000000000000000000FC
:1012F20000000000000000000000000000000000EC
:101302000000000000FFFF0000000000AA550501D8
:1013120000000100585F0508000000000000000006
:1013220000000000000000000000000000000000BB
:10133200000000000000000000000000FF1FFF1F6F
:1013420005010905A101A100050109300931093290
:10135200093309350934094009381581257F750893
:1013620095088102C0C0000009022200010100E0CC
:1013720032090400000103010200092111010001E8
:101382002226000705830308000A0000000000006F
:10139200010203040102030406070809E55F0308CA
:1013A200E95E030829620308653F0308A9420308AE
:1013B200753F0308913F03083D3F03082D3F030893
:1013C20000000000000000002D202D2D202D2D2DCD
:1013D2002D202D2D2D2D000000000000000000000A
:1013E20000000000000000AA550B010000AA5507EA
:1013F200010000AA550902000000AA5503009F003F
:1014020001000000C0120000107100200000000066
:101412003471002000000000894403082D420308B3
:101422000562030800000000293F0308D55E030897
:10143200F54303084D5E03080000000000000000B1
:10144200E53E0308F9430308ED410308456103083B
:1014520000000000FD3E0308515E0308C943030873
:10146200AD5D03080000000000000000F13E03082B
:1014720008000000493E0308453E0308413E0308B8
:10148200353E0308313E03083D3E0308393E03085A
:10149200BD3E0308B13E0308893E03089D3E030892
:1014A200753E0308613E03084D3E0308010000003B
:1014B20000600240106002400000000000000000D6
:1014C200000B00000000000000000000000000000F
:1014D200006002402860024001000000000000009D
:1014E200060C0000000000000000000000000000E8
:1014F2000060024040600240020000000000000064
:10150200100D0000000000000000000000000000BC
:10151200006002405860024003000000000000002A
:10152200160E000000000000000000000000000095
:1015320000600240706002400400000000000000F1
:10154200200F00000000000000000000000000006A
:1015520000600240886002400500000000000000B8
:101562002610000000000000000000000000000043
:1015720000600240A060024006000000000000007F
:101582003011000000000000000000000000000018
:1015920000600240B8600240070000000000000046
:1015A200362F0000000000000000000000000000D4
:1015B20000640240106402400000000000000000CD
:1015C20000380000000000000000000000000000E1
:1015D2000064024028640240010000000000000094
:1015E20006390000000000000000000000000000BA
:1015F200006402404064024002000000000000005B
:10160200103A00000000000000000000000000008E
:101612000064024058640240030000000000000021
:10162200163B000000000000000000000000000067
:1016320000640240706402400400000000000000E8
:10164200203C00000000000000000000000000003C
:1016520000640240886402400500000000000000AF
:10166200264400000000000000000000000000000E
:1016720000640240A0640240060000000000000076
:1016820030450000000000000000000000000000E3
:1016920000640240B864024007000000000000003D
:1016A20036460000000000000000000000000000BC
:1016B200A0D3050814D0050800000000F59C03081B
:1016C200A0860100040000000000000000000000ED
:1016D2000000000000000000000000000000000008
:1016E20000000000000000000000000000000000F8
:1016F200A0D30508A8D3050800000000099E010830
:10170200E8030000040000000000000000000000E8
:1017120000000000000000000000000000000000C7
:1017220000000000000000000000000000000000B7
:10173200FCBE0508B0D3050800000000991A010894
:101742007D00000006000000000000000000000014
:101752000000000000000000000000000000000087
:101762000000000000000000000000000000000077
:10177200B8D305080000000000000000BDC7010842
:10178200E803000003000000000000000000000069
:101792000000000000000000000000000000000047
:1017A2000000000000000000000000000000000037
:1017B200BCD3050800000000000000007DED040815
:1017C20010270000030000000000000000000000DD
:1017D2000000000000000000000000000000000007
:1017E20000000000000000000000000000000000F7
:1017F200E00C0608000000005937020841090208FF
:101802005F760000050000000000000000000000FC
:1018120000000000000000000000000000000000C6
:1018220000000000000000000000000000000000B6
:10183200ECAA05080000000000000000A91D020833
:10184200102700000100000000000000000000005E
:101852000000000000000000000000000000000086
:101862000000000000000000000000000000000076
:10187200C8D3050800000000000000000D9E01080A
:10188200E803000005000000000000000000000066
:101892000000000000000000000000000000000046
:1018A2000000000000000000000000000000000036
:1018B200D4D305080000000000000000B98B010825
:1018C200204E0000030000000000000000000000A5
:1018D2000000000000000000000000000000000006
:1018E20000000000000000000000000000000000F6
:1018F200E4D305080000000000000000A5890108EB
:10190200204E000003000000000000000000000064
:1019120000000000000000000000000000000000C5
:1019220000000000000000000000000000000000B5
:10193200F4D30508000000000000000011AE010809
:10194200400D030003000000000000000000000042
:101952000000000000000000000000000000000085
:101962000000000000000000000000000000000075
:1019720044D205080000000000000000C9BC0308B2
:10198200102700000100000000000000000000001D
:101992000000000000000000000000000000000045
:1019A2000000000000000000000000000000000035
:1019B200F4AA0508000000000000000051F402082B
:1019C20010270000030000000000000000000000DB
:1019D2000000000000000000000000000000000005
:1019E20000000000000000000000000000000000F5
:1019F20078BA05080000000000000000099D0108F7
:101A0200A8610000010000000000000000000000CA
:101A120000000000000000000000000000000000C4
:101A220000000000000000000000000000000000B4
:101A320004D405080000000000000000313903084A
:101A4200A08601000100000000000000000000006C
:101A52000000000000000000000000000000000084
:101A62000000000000000000000000000000000074
:101A720004AB050800000000000000002DD301089F
:101A8200A00F0000010000000000000000000000A4
:101A92000000000000000000000000000000000044
:101AA2000000000000000000000000000000000034
:101AB20010D40508000000000000000031340308C3
:101AC20010270000010000000000000000000000DC
:101AD2000000000000000000000000000000000004
:101AE20000000000000000000000000000000000F4
:101AF2004CAB05080000000000000000D9130308E9
:101B02001A41000001000000000000000000000077
:101B120000000000000000000000000000000000C3
:101B220000000000000000000000000000000000B3
:101B320088AB0508000000000000000045470308CC
:101B4200102700000100000000000000000000005B
:101B52000000000000000000000000000000000083
:101B62000000000000000000000000000000000073
:101B720028D0050800000000000000002D630208C4
:101B82001A410000010000000000000000000000F7
:101B92000000000000000000000000000000000043
:101BA2000000000000000000000000000000000033
:101BB2001CD4050800000000000000002D4D0308A1
:101BC200400D0300000000000000000000000000C3
:101BD2000000000000000000000000000000000003
:101BE20000000000000000000000000000000000F3
:101BF20024D405080000000000000000399D0308FD
:101C0200400D030000000000000000000000000082
:101C120000000000000000000000000000000000C2
:101C220000000000000000000000000000000000B2
:101C32002CD405080000000000000000E120030889
:101C420050C300000300000000000000000000007C
:101C52000000000000000000000000000000000082
:101C62000000000000000000000000000000000072
:101C720038D405080000000000000000198901089E
:101C820040420F00000000000000000000000000C1
:101C92000000000000000000000000000000000042
:101CA2000000000000000000000000000000000032
:101CB20044D405080000000000000000ED9E030867
:101CC20050C30000000000000000000000000000FF
:101CD2000000000000000000000000000000000002
:101CE20000000000000000000000000000000000F2
:101CF2000000803FFFFFFFFFD40C0608000008022F
:101D020005030300DC0C06080100080205040300B9
:101D120050A605080200FE010110030080BB050861
:101D22000300140200030000E40C060804001F0272
:101D320001000800EC0C060805001F020101080062
:101D42007D000000FFFFFFFF0000803F0000000059
:101D520000000000000000000000803F00000000C2
:101D62000000000000000000000000000000000071
:101D72000000000000000000000000000000000061
:101D82000000803F00000000000000000000000092
:041D9200010000004C
:1080000003685A1C02601970704700BF2DE9F047E1
:10801000089C2578002B804689460CBF4FF0200A2B
:108020004FF0300A661C25B3002A26DD334601E0F6
:10803000024698B113F8011B501E0029F8D1971E73
:1080400060B13D46013D51464046C8476B1C002B80
:10805000F8DC257827EAE770013045B1041B294692
:108060004046C847301916F8015B002DF7D1BDE82E
:10807000F087002A03DC2846F9E70020EEE7571EC8
:10808000DFE700BF2DE9F04714461D4606464FF4D2
:108090007A7200232046294649F03CF94D4BDFF81F
:1080A00048814D4A4D4F034488FB03101844D917AB
:1080B00082FB032CC1EB601088FB002887FB0327A1
:1080C0009C44474AC1EBEC2CC0EB001E82FB0C2900
:1080D000A3EB8E0E1F44434A86F806E0C1EB274708
:1080E0004FEAEC7E08EB000ACEEBA90E82FB07827A
:1080F0004FEAE0780EEB4E0EC8EB6A18ACEBCE0CF4
:10810000C8EB0818DFF8E4E086F804C0A0EB8800AC
:1081100070718EFB0303F817C0EBE21240F2B5500A
:1081200000FB1272C1EBE353B2F5896F4FEA83078C
:108130003CDA40F2DA239A4242DCB2F5B77FB4BFB0
:108140004FF0000E4FF0010E4FEA4E09DFF8A0800D
:1081500009EB0E0308EBC3031FFA8EFCD88A09EB68
:108160000E0108EBC10116310B2301E031F8020DBD
:10817000904218DD013BF9D1CE44012338F83E008E
:10818000B37007F5FA670132121ABC44F270A6F810
:1081900000C0204629464FF47A72002349F0BAF80D
:1081A0003281BDE8F0870133DBB2E9E74FF0030C21
:1081B000E64640F29650DFF838804FF00609CEE7E9
:1081C0004FF0020CDFF82880E64640F229404FF0DD
:1081D0000409C4E780BC92C7C5B3A29107452EC26B
:1081E000ABAAAA2A73B06D1689888888792D0311E5
:1081F000402F05080028F0B403DA2D230B7040420D
:108200000131092804464FF0010307DD03EB830326
:108210005B00B0FBF3F2092AF8D883B10F48A0FB4A
:108220000326B4FBF3F2092A02F1570C02F13007DE
:1082300009DD03FB1244F30801F801CBEFD1002361
:108240000B70F0BC704703FB1244F30801F8017B8C
:10825000E5D100230B70F0BC704700BFCDCCCCCC77
:10826000884270B44FF0010442D301FB04F4B0FB28
:10827000F4F58D42F9D2ECB142BB092D04FB150097
:1082800005F1570605F130020EDDB4FBF1F403F8F9
:10829000016B7CB1B0FBF4F5092D04FB150005F171
:1082A000570605F13002F0DCB4FBF1F403F8012BC2
:1082B000002CEFD100221A7070BC704703F8016BDC
:1082C000B4FBF1F4002CF5D0B0FBF4F5092D04FB60
:1082D000150005F1370605F13002EFDCB4FBF1F4CF
:1082E00003F8012B002CEFD100221A7070BC7047EC
:1082F0000546002AEAD1C0E790ED057A90ED004AE4
:10830000D0ED066AD0ED014AD0ED047A90ED035A23
:10831000D0ED025AA4EE007AB0EE406AB0EE470A01
:10832000B0EE667AA4EE867A67EEC07AA5EE407A61
:10833000E5EE867A80ED057AC0ED067A704700BFDB
:10834000D0ED057A90ED013AD0ED003AD0ED064A35
:1083500090ED024A90ED077A90ED035A90ED086A8D
:10836000D0ED045AC0ED067AF0EE406A27EE830A9B
:10837000C0ED056AA3EEA60A80ED087AA4EE240AF1
:10838000A5EE470AA5EEC60A80ED070A704700BFB2
:10839000D0ED007A90ED017A30EE670AE7EE007AD0
:1083A000B0EE670AC0ED007A704700BF704700BFAB
:1083B00030B414220023342503240221C270012288
:1083C0008571C4710370C3728373C373417041724A
:1083D00082700272827230BC704700BF0023062197
:1083E0004FF47A720170C0E901230373704700BF34
:1083F00030B43223012231254FF60174FF2143703E
:1084000000234571048281740272027002714381FB
:108410008381C38130BC70472DE9F04F3149324B25
:1084200083B001F1E00B019020274FF000092F48A5
:108430001022012603E0203098420BD002799742A7
:10844000F9D102680C68A24209D02030984206F1A6
:108450000106F3D1203159453AD00F79E7E7447945
:108460004D79A542F1D19446019A214809EB49057D
:1084700002EB050A57558AF8016000F572751D4E2A
:10848000624603E0A8421AD050F82C6FB242F9D1EC
:108490000679A642F6D1CF6806464FF0000C964604
:1084A0008046F268BA4216D00CF1010CBCF1030F01
:1084B00006F10C06F5D14046A8427246E4D14FF0D1
:1084C000FF3C203159458AF802C009F10109C4D1A5
:1084D00003B0BDE8F08F086932698242E4D14FFAF7
:1084E0008CFCEEE70C9C0508F46D05083464050867
:1084F000F46D05080000014030B41522162317253D
:108500002D242E21027043702F22FF238570447189
:108510008171C27143738373C370037103724372B9
:1085200030BC704710B42C210124022200230470B7
:1085300041708270C3705DF8044B704770B403469D
:1085400000F11001FF221A705A7002338B42FAD1E7
:108550000B4B4FF0FF3103F10F060C46002205E0F4
:1085600093F9044093F9051013F8032F00F8124013
:1085700000EB42059E426970F2D170BC704700BFAB
:10858000A02F0508012380F8503070474FF4006396
:10859000038370474FF40063038370474FF4006315
:1085A000038370474FF4006303837047F0B4037C88
:1085B000456902681F2B37D9203B20215468994018
:1085C0000C4223D010249C40D160D4605168D94023
:1085D000CE074ED4EFF31183502282F312882A6C17
:1085E0001168C90709D45468002C52D1D5E9096132
:1085F0008E4243D1012285F86420DBB283F31188D7
:10860000037C02681F2B194614D9203B08215068AF
:108610009940084200D0D1600421506801FA03F368
:10862000184223D1F0BC7047202416689C40264293
:108630000FD11946082310688B40184200D0936070
:108640000423106803FA01F10842EBD09160F0BCFA
:10865000704710219940946091601168D940CC070F
:10866000B8D5012101FA03F39360B3E7D360F0BCFE
:108670007047012101FA03F3D360ABE7AF690F4400
:10868000D7600ED82E69711A5160AC62002185F84E
:108690006410116841F00101DBB2116083F31188AD
:1086A000AEE7711A5160AE62F0E700BFF0B4714BF3
:1086B00071491A780B789A4240F07E816F4B1A7894
:1086C000002A00F0D4806E4B19786E4B002940F0E0
:1086D000DB801868B3F83261048824F08004240435
:1086E000240C048093F83041C462058845F080056D
:1086F000058041628489012A44EA06048481A3F842
:10870000321100F0B480D3F83401B3F86662048803
:1087100024F080042404240C048093F86442C4628E
:10872000058845F08005058041628489022A44EA73
:1087300006048481A3F8661200F09980D3F86802D9
:10874000B3F89A63048824F080042404240C048081
:1087500093F89843C462058845F08005058041621E
:108760008489032A44EA06048481A3F89A137ED0FC
:10877000D3F89C03B3F8CE64048824F08004240466
:10878000240C048093F8CC44C462058845F080052D
:10879000058041628489042A44EA06048481A3F89E
:1087A000CE1464D0D3F8D004B3F80266048824F061
:1087B00080042404240C048093F80046C4620588D5
:1087C00045F08005058041628489052A44EA060453
:1087D0008481A3F802164AD0D3F80406B3F83667AA
:1087E000048824F080042404240C048093F8344783
:1087F000C462058845F08005058041628489062AA7
:1088000044EA06048481A3F8361730D0D3F8380739
:10881000B3F86A68048824F080042404240C0480DB
:1088200093F86848C462058845F080050580416278
:108830008489072A44EA06048481A3F86A1816D0BA
:10884000D3F86C28B3F89E59108820F080000004FB
:10885000000C108093F89C09D062148844F08004C6
:1088600014805162908928439081A3F89E19F0BC2E
:10887000704700BF681D0020691D0020241F0010E4
:10888000201F0010D49100205C6819896160256860
:10889000186845F0010540F20D312560A0F8481038
:1088A0008489012A44F480748481E0D0D3F838416B
:1088B000B3F83C51D3F834016560256845F00105F3
:1088C0002560A0F848108489022A44F480748481C9
:1088D000CDD0D3F86C42B3F87052D3F8680265601B
:1088E000256845F001052560A0F848108489032A11
:1088F00044F480748481BAD0D3F8A043B3F8A4536D
:10890000D3F89C036560256845F001052560A0F853
:1089100048108489042A44F480748481A7D0D3F851
:10892000D444B3F8D854D3F8D0046560256845F032
:1089300001052560A0F848108489052A44F4807454
:10894000848194D0D3F80846B3F80C56D3F80406C3
:108950006560256845F001052560A0F84810848908
:10896000062A44F48074848181D0D3F83C47B3F85C
:108970004057D3F838076560256845F00105256044
:10898000A0F848108489072A44F4807484813FF455
:108990006EAFD3F87028B3F87408D3F86C38506011
:1089A000106840F001001060A3F848109A8942F462
:1089B00080729A81F0BC70475C00E618484D15F84B
:1089C0003660032E3FF67AAEDFE806F04D261C0235
:1089D000E01805EBC0004468661E012C46603FF6B7
:1089E00046AF013303F00303D8B2824208703FF46C
:1089F00065AE03EB4303DB00EA1802200021E854D4
:108A0000516034E7E11805EBC1014868461E0128B2
:108A10004E603FF62CAF0DE0E118C90068184668BB
:108A2000771E012E47603FF622AF02274FF0FF3638
:108A30006F544660E618F600AF192A48397B006883
:108A40000139C9B2397389B34FF47A722344B2FB46
:108A5000F0F200FB02F0B0F57A7F05EBC30518BF1A
:108A600001326A602AE670B11F49012600220F898F
:108A70000132002F18BF0026824201F58671F6D11F
:108A8000002E3FF41BAE174A126842F21076E0182F
:108A9000B6FBF2F102FB1162012605F8306002B16B
:108AA0003144234405EBC305696007E6BF68B7FBA3
:108AB000F0F100FB11700327AF5500B101311C44E8
:108AC000013305EBC40503F00303934269603FF4EF
:108AD000F5AD00293FF4F2AD01396960EEE500BF64
:108AE0006C1D0020F81500207489002010B5027C50
:108AF00001681F2A4FF020030ED94C68203A93409A
:108B00001C4208D00B4A406800241470026822F00E
:108B100001020260CB6010BD0C6893401C42FAD089
:108B2000044A406800241470026822F001020260C6
:108B30008B60F0E7453D00202DE9F041C40023188B
:108B40009B00B749CA585268958AADB2EFB2FE078A
:108B50000B4461D4BE0737D5BFF35F8F1D7EEDB2E6
:108B6000012D00F0BB80AF4E138BBFF35F8F231836
:108B700001EB83031D7E022D00F0CE80231801EB54
:108B800083031D7E032D05D19B7E1BB17378002BC3
:108B900040F01A81938896F900C043F48063938073
:108BA000231801EB83031B7E013363450AD1B3789D
:108BB00000257570002B40F08A80204401EB800076
:108BC00000234375BDE8F081964E17F0040F96F927
:108BD00000C04DD117F0400700F0B280178A1D6A1F
:108BE000FFB205F80C705FFA8CF56F1C93F818E073
:108BF0007BB2DF1CBE4533709C4600F0098127180C
:108C000001EB87073F7EBB42CAD105F1020C4FFA48
:108C10008CFC86F800C0C3E71588824E25F40065F9
:108C20002D042D0C1580158845F4806515809D7EDA
:108C300000273770002D3DD07578002D37D02318D0
:108C400001EB830301251B7E7570022B03D1138872
:108C500043F400631380231801EB83039B7D43F0EF
:108C600001031382204401EB8000037EBDE8F08104
:108C70009F7E75784FF0010E86F802E0002F5CD0E1
:108C8000002D78D1231801EB83035B7E002B00F0CD
:108C9000A48013880CF1010C4FFA8CFC43F4007390
:108CA00086F800C013801388DF05FCD478E7DB7DED
:108CB000FF2BC4D0231801EB83039D7D05F0FE0537
:108CC0001582DB7DFF2BCDD0FF233370CAE793885D
:108CD00023F440731B041B0C93806EE79B7E514E64
:108CE000002B3FF441AF7378002B3FF43DAF138866
:108CF00023F480631B041B0C1380BFF35F8F138B63
:108D00001388B57043F400731380938896F900C0FC
:108D100043F48063938043E79B7E002B3FF42EAFA8
:108D20007378002B3FF42AAF138896F900C023F420
:108D300080631B041B0C138016E0002DA2D0A8E753
:108D40002D067FF52DAFBCF1FF3F6DD0DD6915F825
:108D50000C5015820CF1010C1D7E4FFA8CF39D42D4
:108D60009C4633707FF41CAF938823F480631B040C
:108D70001B0C938014E71F7ED3F820805FFA8CF5DC
:108D8000AE44022F4FFA8EFE17882DD927F4806744
:108D90003F043F0C1780178AFFB208F80C70178841
:108DA000D3F820C047F400731380138ADBB20CF8A9
:108DB0000E30938805F1020C4FFA8CFC43F480636B
:108DC00086F800C093806EE7938896F900C023F47C
:108DD00080631B041B0C9380E2E61388012543F497
:108DE0008073138075705EE747F400771780178AE9
:108DF000FFB208F80C70178AD3F8208005F1030C35
:108E00004FFA8CFCFBB286F800C008F80E304AE737
:108E1000978827F480673F043F0C9780EFE600BFF8
:108E20004C21002050160020DD7D15829D7E37707C
:108E30001DB91B7E002B7FF415AF938823F480634C
:108E40001B041B0C93800DE718F018BF38B51D4BA1
:108E50001B78044600F1250593B104221A492030FD
:108E60004AF058F82846142218494AF053F80123CA
:108E700084F83A30164B1B7873B984F83B3038BD10
:108E80002846142213494AF045F8012384F83A3061
:108E90000F4B1B78002BF0D00F4B186859689A685D
:108EA000DD68E56020606160A260DD69186959696C
:108EB0009A69A2610123E5612061616184F83B3018
:108EC00038BD00BF497200201872002000720020D7
:108ED0004A720020A49D050820720020014B1868EA
:108EE00014F020BAEC28002010B40123002418212B
:108EF00039220460017242728372C3725DF8044BBE
:108F0000704700BF38B53022002149F0C5FF034645
:108F1000642440F2DC5040F21A4140F26C7240F29C
:108F200002251C745882132419209982DA8240F297
:108F3000753140F643021D839C760E250A2418776E
:108F4000D9831E2002211A84012283F82E0019726F
:108F500083F82C1083F8225083F82D409A7383F8FD
:108F6000252083F82B2019460248BDE8384022F01E
:108F70007BBA00BFB89D050810B50021044601204A
:108F800013F01EF8207010BD38B500240472451E81
:108F9000E1B2022013F014F80134082C05F8010F97
:108FA000F6D138BD38B50024054604802146284650
:108FB000013429F07DFC082CF8D1002185F8E2105D
:108FC000A5F8E410A5F8E610A5F8E810A5F8EA1051
:108FD000A5F8EC10A5F8EE10A5F8F010A5F8F21021
:108FE0002846BDE8384029F025BC00BF38B5054605
:108FF00040683B4A038823F040031B041B0C03809A
:10900000038823F038031B0490424FEA134305D032
:1090100002F58062904201D043F008030380038888
:10902000AA6843F04003038012B1136892885A8300
:10903000838940F2E93301E0002B43D00289013BF0
:1090400012F0020F9BB2F7D0F523838140F2E9338F
:1090500001E0002B36D00289013B12F0010F9BB2D8
:10906000F7D08389838940F2E93300E00BB30289AA
:10907000013B12F0020F9BB2F8D0FF23838140F234
:10908000E93300E0ABB10289013B12F0010F9BB262
:10909000F8D08489E4B2AB6813B11A689B88138353
:1090A000712C19D008D9AC2C14D0AF2C0ED10920BA
:1090B00038BD18F071FDEEE7122C0FD0702C07D1DF
:1090C000052038BD18F068FD6868CBE7732C03D025
:1090D000002038BD072038BD062038BD082038BD27
:1090E00000380040F0B5876983B0064617B13B6889
:1090F000BA885A837069DFF8A8E08389C3244FF4E3
:109100007A734FF0060C6D464FF6FF710EF1010EAB
:1091100003E0013B9BB28B4220D002899207F8D535
:10912000A3B283814FF47A7302E0A3B28B4215D0CD
:109130000289D20703F1FF34F7D5828992B20DB1CB
:109140002A700135BCF1000F0BD00CF1FF3CFF245D
:10915000BEF1000FE1D09EF80040D7E718F01CFDEB
:10916000B76917B13B68BA881A839DF805009DF866
:1091700001509DF802109DF803409DF804209DF8D1
:10918000063041EA052143EA002342EA0422012095
:10919000A6F85010A6F85220A6F8543003B0F0BD3F
:1091A000B42F05084268AC49138823F040032DE929
:1091B000F04F1B041B0C1380138887B023F0380377
:1091C0001B048A4202904FEA134300F0FF8001F52E
:1091D00080618A420CBF302138210B4313801388F1
:1091E00002989E4C9E4FDFF884A29E4D9E4E43F007
:1091F000400313806B21802218F0EAFC06230493BD
:109200009623DFF86CE201934FF01008DAF804308F
:10921000C3F30803002B40F0B080EFF31183002B61
:1092200040F0AB802068AA6823689842FAD133687E
:109230009A42F7D8D7F800C04FF47A7101FB0CF3CB
:109240009B1AB3FBFCF301FB00304FF47A7C4FF028
:109250000109DAF80430C3F30803002B6FD1EFF3F0
:109260001183002B6BD12368A96822689342FAD13D
:1092700032689142F7D83A680CFB02FBABEB010174
:10928000B1FBF2F10CFB03131B1AB3F57A7FE0D3A9
:10929000019B013B0193B9D1029B9B6813B11A68F2
:1092A0009B885383029B586840F2E933828902E02D
:1092B000002B00F086800289013B12F0020F9BB266
:1092C000F6D0F523838140F2E93301E0002B78D01A
:1092D0000289013B12F0010F9BB2F7D08389838989
:1092E00040F2E93301E0002B68D00289013B12F023
:1092F000020F9BB2F7D0FF23838140F2E93301E0F4
:10930000002B5BD00289013B12F0010F9BB2F7D01A
:109310008389DBB20393029B9B6813B11A68998817
:109320001183039A682A53D0049B013B13F0FF0377
:1093300004937FF465AF184607B0BDE8F08FEFF3F4
:10934000118188F31288D5F808B02B68DB0344BF7D
:10935000CEF80090D5F808B02368DEF80020C9B236
:1093600081F31188396813440CFB01F2A2EB0B0264
:10937000B2FBF1F20CFB032386E7EFF3118388F3D2
:109380001288D5F808C02A68D20304D50122CEF885
:109390000020D5F808C02068DEF80090DBB283F327
:1093A000118839684FF47A72484402FB01F3A3EB49
:1093B0000C03B3FBF1F302FB003046E718F0ECFBC3
:1093C000A9E718F0E9FB029B586888E7302104E719
:1093D00013B11A689B885383029B586840F2E933A3
:1093E000828901E0002B53D00289013B12F0020F69
:1093F0009BB2F7D08C23838140F2E93301E0002B4C
:1094000046D00289013B12F0010F9BB2F7D083894D
:10941000838940F2E9330289013B12F0020F9BB2CB
:1094200015D1002BF7D118F0B7FB029B9B6813B145
:109430001A689B881383059B142B04D3182B25D9FA
:10944000543B062B22D9002007B0BDE8F08FFF2344
:10945000838140F2E9330FE000380040147D0020A2
:10946000187D002010E000E01C7D002000ED00E0F1
:10947000107D0020002BD6D00289013B12F0010F95
:109480009BB2F7D08389DBB20593CEE7032053E785
:1094900018F082FB029B5868BAE700BF08B50120AC
:1094A0002DF00EFA174A936803F00C03042B1ED01C
:1094B000082B18D151685368490203F03F0319D4AF
:1094C00052681148B0FBF3F0C2F3881300FB03F0BD
:1094D0000C4B0E4A5B68C3F3014301335B00B0FBE6
:1094E000F3F0106008BD094B074A1A6008BD074B2E
:1094F000186008BDB0FBF3F05368C3F3881300FB9A
:1095000003F0E5E7003802400024F400A4720020D4
:109510002DE9F84F037C02681F2B86BF203B516862
:109520001168202202FA03F30B4214BF0123002327
:109530000BB9BDE8F88F4569DFF88891044613F050
:1095400003FD4FF4867303FB059306465A7C002AFD
:1095500030D157495A6809781768C1B9D3F88010D3
:1095600058890A6822F001020A60BB8923EA0003D5
:10957000BB81504B1B78002B30D1237C21681F2BE3
:1095800011D8202202FA03F38B60BDE8F88F5269EC
:10959000136823F001031360BB8923F480731B0459
:1095A0001B0CBB81E5E7203B202202FA03F3CB60D2
:1095B000BDE8F88FD3F880603F485F8901229A7434
:1095C00031685A680368156821F001013160AA8981
:1095D000013322EA0702AA810360CEE74FF4867ABC
:1095E0000AFB05FA09EB0A05D5F8808040462DF004
:1095F000FFF801236B74D5F884B013F0A5FC3B8809
:10960000CBF82C0123F080031B044FF0FF321B0C1E
:109610003B80FA623B880AF1340143F080033B80CF
:10962000494438462DF0A4F9D5E915702B6CD5F8CE
:1096300050C0D5E917123B4303430B4313436A6EF3
:109640006F6FD8F800001D491343AA6E1343AA6F29
:109650003B43014013430B430022EA64C8F8003047
:10966000D5E91B30D8F81410D5F880206F6C21F0A4
:10967000070103430B43A86C95F87C10C8F814301D
:10968000C8F804C0C8F80870C8F80C0051606B68CE
:10969000116818686D8941F00101116083892B43BD
:1096A000838113F051FC064B801B186065E700BFF7
:1096B000201F00101C1F0010CC1D00203F801CF03C
:1096C0001C0F00107489002020B10078B0FA80F0DF
:1096D000400970470120704708B5202149F0F3FB8D
:1096E0000346184623B10278202A03F10103F8D07B
:1096F00008BD037903F01803082B0AD002D82BB158
:1097000000207047102B14D0182BF9D1B0F80B00A3
:109710007047104BB0F80B0093F90030591C06BF8E
:109720000D4B1B78DBB203EB831300EB430080B2DD
:1097300070470A4BB0F80B0093F900305A1C06BF73
:10974000054B5B78DBB203EB031300EB430080B205
:10975000704700BF3C020020D08600203D02002060
:10976000F0B5067906F0E003402B09D144794FF0BB
:10977000FF350023012006F00706A3420BD1F0BD00
:10978000602B08BF45794FF001040CBF04FA05F5C2
:109790004FF0FF35EDE7042E0CD8DFE806F0030D9F
:1097A00018242E0030B1C85CD75C784028420CBF2A
:1097B000012000200133E0E70028FBD0C856D7562F
:1097C000A0EB070CDCF1000040EB0C00F2E70028F6
:1097D000F0D031F8130032F81370784028420CBFF3
:1097E00001200020E6E70028E4D031F9130032F927
:1097F0001370C71B78427841DCE70028DAD051F8B3
:10980000230052F82370784028420CBF012000202A
:10981000D0E7024B0146186818F030BAE027002064
:1098200038B5064D441E14F8011F286819B9BDE863
:10983000384018F015BA18F021FAF4E7E0270020B4
:109840000048EDE7EEDE050808B5FFF7E9FFBDE8E3
:109850000840F5E710B504460348FFF7E1FF20464E
:10986000BDE81040F0E700BFEC9C050808B532B138
:10987000C30600D519B11046FFF7ECFF00221046D1
:1098800008BD38B5074C084DAC4203D3074B002246
:109890001A7038BD6288D4E9010147F0D9FF143449
:1098A000F2E700BF90010008580700081C240020C0
:1098B00038B5074C074DAC4203D3074B01221A7051
:1098C00038BD6288D4E9011047F0C2FF1434F2E7D2
:1098D00090010008580700081C240020024A136861
:1098E00023EA000010607047CC9B0020DFED2E7A49
:1098F000B4EEE70AF1EE10FA4ADDDFED2C6A9FEDD7
:109900002C7A01E0B0EE670AB4EEC70AF1EE10FA65
:1099100070EE667AF6DC9FED277AF4EEC77AF1EE08
:1099200010FA3ED5DFED216A9FED237A01E0F0EEDB
:10993000407AF4EEC77AF1EE10FA37EEA60AF6D4C2
:10994000DFED1E7AB4EEE70AF1EE10FA14DDDFED7A
:10995000167A37EEC00A60EE006A9FED196A9FED35
:10996000197ADFED197AA6EE867A20EE266AE6EEFF
:10997000877AA6EE270A7047DFED147AB4EEE70A7D
:10998000F1EE10FA44BFDFED0B7A37EEC00AE2E7E2
:109990009FED087AF0EE407AF4EEC77AF1EE10FA15
:1099A000C0D4B0EE670ACBE7DB0F4940DB0FC940FC
:1099B000E4CB1641DB0F49C0E4CB16C1DB0FC93F36
:1099C00092E741B99730083C15A82ABEDB0FC9BF02
:1099D000F0EEC07AB0EEE07AB4EEE77AF1EE10FA8B
:1099E000B4BFB0EE676AB0EE476AB5EE406AF1EE1A
:1099F00010FA46D0B4EEE77AF1EE10FA8CBFF0EE32
:109A0000675AF0EE475AC5EE866A9FED1F3A9FED02
:109A10001F6A9FED1F4A9FED1F5ADFED1F3ADFEDD2
:109A20001F4ADFED1F5AA6EEC36AE6EEA34AA6EE72
:109A3000864AB7EE006AA6EE845AA6EEA46AE6EE5F
:109A4000855AC5EE866AB4EEE77AF1EE10FA48BFA1
:109A5000DFED147AF5EEC00A48BF77EEE66AF1EE64
:109A600010FA48BFDFED107AB5EEC00A48BF77EEB6
:109A7000E66AF1EE10FA48BFF1EE666AB0EE660AE9
:109A80007047DFED076ADEE739094E3DE3B59E3EDC
:109A900088FA163E45FE7F3F99FB243F69A2163E99
:109AA000A7DFA834DB0FC93FDB0F4940DFED317A78
:109AB00030EE277AFDEEC76A16EE903A2033402B3F
:109AC00002D99FED2D0A7047B4EEE70AF1EE10FAC5
:109AD0004DDD9FED2A6ADFED2A6A01E0B0EE677A7C
:109AE000B4EEE67AF1EE10FA77EE467AF6DC9FED08
:109AF000257AF4EEC77AF1EE10FA35D5DFED1F6A5C
:109B00009FED217A01E0F0EE407AF4EEC77AF1EEB3
:109B100010FA37EEA60AF6D4DFED167AB4EEE70AAD
:109B2000F1EE10FA1BDCDFED197AB4EEE70AF1EE84
:109B300010FA44BFDFED137A37EEC00A60EE006A18
:109B40009FED136A9FED137ADFED137AA6EE867A06
:109B500020EE266AE6EE877AA6EE270A7047DFED4A
:109B60000F7A37EEC00AE9E7B0EE670AD4E7F0EE05
:109B7000477ABCE7DB0FC93F00000000DB0FC9409C
:109B8000E4CB1641DB0F49C0E4CB16C1DB0FC9BFE4
:109B900092E741B99730083C15A82ABEDB0F49402F
:109BA000FDEEC07A17EE903A2033402B45D8DFED1A
:109BB0002D7AB4EEE70AF1EE10FA4DDDDFED2A6AF8
:109BC0009FED2A7A01E0B0EE670AB4EEC70AF1EE23
:109BD00010FA70EE667AF6DC9FED257AF4EEC77A1D
:109BE000F1EE10FA3BD5DFED206A9FED227A01E01D
:109BF000F0EE407AF4EEC77AF1EE10FA37EEA60AEC
:109C0000F6D4DFED1D7AB4EEE70AF1EE10FA17DDB7
:109C1000DFED147A37EEC00A60EE006A9FED176A36
:109C20009FED177ADFED177AA6EE867A20EE266A88
:109C3000E6EE877AA6EE270A70479FED130A704773
:109C4000DFED127AB4EEE70AF1EE10FA44BFDFED71
:109C5000087A37EEC00ADFE7F0EE407ABCE7B0EEF4
:109C6000670ACEE7DB0F4940DB0FC940E4CB164162
:109C7000DB0F49C0E4CB16C1DB0FC93F92E741B906
:109C80009730083C15A82ABE00000000DB0FC9BFB2
:109C900010B44C09012250F8243001F01F0102FADF
:109CA00001F123EA010340F824305DF8044B7047CA
:109CB00010B44C09012250F8243001F01F0102FABF
:109CC00001F10B4340F824305DF8044B704700BFAE
:109CD0004B0901F01F0150F82320012303FA01F181
:109CE000114214BF18460020704700BF2DE9F04311
:109CF000002489B006460D461F46A04605E02529EA
:109D00000CD030460134A847039A531C03931178B2
:109D10000029F4D1204609B0BDE8F083931CCDE9B9
:109D200003385078302842D0A0F13003DBB2092B41
:109D30004FF0000945D96C282AD0642873D019D96E
:109D4000732858D063D9752840F0828007F1040C3D
:109D5000386805AB00220A216746FEF781FA05AB99
:109D6000049A009329464B463046FEF74FF9039A72
:109D70000444CAE725283CD051D958286BD0632821
:109D8000C2D139783046A84704370134039ABCE77A
:109D9000039B5A1C03921B78642B52D016D8252B98
:109DA00027D064D9582B18D0632BEAD0ADE7D31C49
:109DB00003939078A0F13003DBB2092B4FF0010937
:109DC000B9D804AA03A936F053FAB4E7732B12D01A
:109DD00051D9752B2DD0782B97D1A3F15802B2FA17
:109DE00082F23868520905AB10210437FEF738FAC1
:109DF000B5E7252185E73B68049A009329460023AF
:109E00003046FEF703F904370444039A7DE76E28D1
:109E10007FF47AAF039A3B6804371C6075E700282B
:109E20003FF478AF70E7386805A9FEF7E3F9043727
:109E300095E7386805AB00220A21FEF711FA0437CE
:109E40008DE73B1D386805A91F46FEF7D3F986E765
:109E500078287FF459AFA0F15802B2FA82F238683C
:109E6000520905AB1021FEF7FBF9043777E7002B09
:109E70003FF450AF49E76E2BCDD046E710B5064C06
:109E80000B46024605492068FFF730FF2068BDE811
:109E9000104017F0E5BE00BFE0270020498E000803
:109EA00038B504460D460848FFF7BAFC2946204657
:109EB000FFF7E4FF0548FFF7B3FC054B1B7813B130
:109EC000044B01221A7038BDF19C050851D90508D0
:109ED0003C2900203D2900200FB407B504A951F802
:109EE000040B0191FFF7DCFFFFF7AAFC03B05DF85C
:109EF00004EB04B0704713460A4601460048EBE7FE
:109F0000FC9C05080048E7E7159D05080FB407B558
:109F100004A951F8040B0191FFF7C2FF03B05DF8EB
:109F200004EB04B070470FB407B504A951F8040B53
:109F30000191FFF7A3FFFFF783FC03B05DF804EB8B
:109F400004B070470FB407B504A951F8040B019190
:109F5000FFF794FF03B05DF804EB04B070472DE900
:109F6000F843037903F0E001202928D002D849B151
:109F7000BDE8F883402945D06029F9D12448BDE8DF
:109F8000F843D0E703F00703022B02D0042B08D0DC
:109F90006BB9B0F80720B0F805101E48BDE8F843CB
:109FA000C1E7D0F805201B48BDE8F843BBE7B0F98E
:109FB0000720B0F905101748BDE8F843B3E7457925
:109FC000154E1648FFF72CFC06EBC502002492F84C
:109FD00004800123A04502D8BDE8F84330E456F8D8
:109FE000357057F824204FEA84094AB113B90C4858
:109FF000FFF716FC57F809100A48FFF7A3FF0023E4
:10A000000134E7E741790848BDE8F8438BE700BF32
:10A010005D9D0508219D05089C7B0508389D050868
:10A02000499D05086FA605084C9D05082DE9F041DE
:10A030001746027902F0E003402B05460E462BD16D
:10A040000024584FDFF8808115E02B7903F00703D7
:10A05000022B15D0032B19D0012B14BF315D3157C2
:10A060003846FFF76FFF6B79013BA34202DD4046A4
:10A07000FFF7D6FB01346B79A342E6DCBDE8F08143
:10A0800036F814103846FFF75DFFECE736F9141088
:10A090003846FFF757FFE6E702F00702042A5DD8CB
:10A0A000DFE802F0031D25272A003478202B3AD060
:10A0B0006DD8002BE2D1B5F80560B5F807803948B6
:10A0C0002146FFF73FFFB44240DB44453EDC002F12
:10A0D000D4D0424631463448BDE8F04132E796F9E3
:10A0E0000040202B1FD052D8002B3DD0C6E734882B
:10A0F000DCE7B6F90040F4E7D6F80080202B4446B0
:10A1000011D044D8002BB9D141462648FFF71AFF99
:10A11000D5F80510884519D8002FAFD02348BDE8E1
:10A12000F0410FE700246A79214B03EBC201097962
:10A13000A1420BDD53F8323053F82400BDE8F04162
:10A14000FFF76EBB1B48BDE8F041FBE6FFF778FB6D
:10A15000224629681848BDE8F041D7E6202BE1D017
:10A1600007D8002B8AD11C46B5F90560B5F90780E0
:10A17000A5E7602BE6D0802B80D131780F4B1048BB
:10A18000002914BF31461946BDE8F041DAE6602BDC
:10A19000F1D16A791441E307D4D50A48BDE8F0410A
:10A1A000D0E600BF359D050896DC0508779D0508BB
:10A1B0009C7B05086AC905087D9D050825CB050817
:10A1C0006FA60508729D0508759D05080CB407B5B6
:10A1D00010F020000BD079B92320FFF71AFB05A956
:10A1E00004980191FFF74AFEFFF72AFB012003B014
:10A1F0005DF804EB02B070470020F8E70CB4C3062A
:10A2000007B500D561B905A904980191FFF736FE9D
:10A21000FFF716FB012003B05DF804EB02B07047B6
:10A220000020F8E70EB400B584B005AB019053F8F8
:10A23000042B0649039301A8FFF758FD019B002258
:10A240001A7004B05DF804EB03B070470180000899
:10A2500070B406688E4217D90139751E002311F8B3
:10A26000014F0822634013F0800F4FEA430318BFE9
:10A2700083F0D503013ADBB2F5D18D42EFD1721CE8
:10A280000260337070BC7047721C00230260337030
:10A2900070BC70470A44914215D010B40139541E65
:10A2A00011F8012F0823504010F0800F4FEA4000B2
:10A2B00018BF80F0D500013BC0B2F5D1A142EFD16B
:10A2C0005DF8044B704770474840082310F0800F3A
:10A2D0004FEA400018BF80F0D500013BC0B2F5D175
:10A2E000704700BF0A44914215D030B40139551E61
:10A2F00041F2210211F8014F082380EA04200404EE
:10A300004CBF82EA40004000013B80B2F7D18D4251
:10A31000F0D130BC7047704770B502221349144C1D
:10A32000144E4FF6FF70FFF7DDFF22884AB1A518E3
:10A33000B54218D2052A16D92146FFF7D3FF2C467D
:10A34000F3E721460222FFF7CDFF0222A118FFF713
:10A35000C9FF094BE41A094B1C8041F60F53C31A7D
:10A360005842584170BD0020FCE700BF0040000883
:10A370000240000800800008FA3F0008709F00209B
:10A380000F4B2DE93048D3E9004554EA05020AD1C4
:10A39000034640F2011200201880988098715A807C
:10A3A0001881BDE83088074B1A6814EB020B45F1A1
:10A3B000000C5A466346FDF765FE0120BDE8308873
:10A3C000986A0020147D002030B403888278C47815
:10A3D000154DA3F5FA6303F0030101EB4101013AC6
:10A3E00002EB81029B0835F812500279611E40F29F
:10A3F000B55404FB03132B4403EB430302EBC303E9
:10A400004279847909490089C3EB031302EB830382
:10A410002144C3EB031301EB83034FF47A72002151
:10A42000C2FB030130BC7047402F050880436D38E4
:10A430002DE9F04707468CB01E469246002A5CD1B3
:10A44000154614460A88B2F5FA6F36D38B78581E33
:10A450000B2832D891F803C00CF1FF301E282CD8FD
:10A4600091F804E0BEF1170F27D891F80590B9F1E3
:10A470003B0F22D888793B281FD8B1F80880B8F55F
:10A480007A7F1AD24FF001085EBB09890491002C33
:10A49000B4BF2D212B21002CB8BF6442CDE902901E
:10A4A000CDE905140795CDE900CE38462A49FFF7D6
:10A4B000B9FE40460CB0BDE8F08700232749ADF84F
:10A4C00028304FF0010C18468DF82A30ADF82C30AA
:10A4D00099469E461A4698460991634609A9002E58
:10A4E000D3D0CDE90290CDE900CE38461C49FFF724
:10A4F00099FE40460CB0BDE8F0871A4C84FB02344C
:10A50000A318D417C4EB6314C4EB0415A2EB8505A0
:10A510002DB2002D0846B8BF6D42FFF755FF4FF42E
:10A520007A7200238046894646F0F4FE3C230AFBFB
:10A53000030A4FF47A7200234046494646F0EAFE89
:10A540004FF47A7192B20023C1FB0A2309A8FDF7E8
:10A5500099FD24B209A975E7E49D050800000101F1
:10A56000C49D0508898888880378202B024600F15D
:10A570000100F9D0092BF7D02D2B00F0A4802B2B54
:10A5800003BF5378B7EE000A0246B7EE000AA3F104
:10A590003001C8B209289FED577A10D8F2EE046A4C
:10A5A00007EE901AF8EEE77A12F8013FE7EE267A06
:10A5B000A3F13001C8B20928B0EE677AF0D92E2B8A
:10A5C00063D003F0DF03452B02D020EE070A70476B
:10A5D00010B451782D294FD02B2979D0A1F1300317
:10A5E000092B02F101027AD80024002303EB830334
:10A5F00001EB430312F8011FA1F130000928A3F178
:10A600003003F3D9B3F59A7F1A4628BF4FF49A72F4
:10A61000072B6CD9DFED386A1346F7EE007A083B5A
:10A62000072B67EEA67AFAD802F00702DAB1F2EE4B
:10A63000046A012A67EEA67A15D0022A67EEA67A86
:10A6400011D0032A67EEA67A0DD0042A67EEA67A07
:10A6500009D0052A67EEA67A05D067EEA67A062A03
:10A6600018BF67EEA67A002C3BD087EE277A5DF8FC
:10A67000044B20EE070A70479178A1F13003092BB3
:10A6800002F1020230D80124AFE75378A3F1300180
:10A69000C8B2092802F1010293D8F2EE046AF0EE82
:10A6A000665A07EE901AF8EEE77A12F8013F87EE45
:10A6B000A66AA3F13001C8B2092866EEA56A37EE92
:10A6C000067AEED97DE75378BFEE000A02465EE7D0
:10A6D0009178A1F13003092B02F1020284D9F7EE3F
:10A6E000007A27EE277AC2E7F7EE007ABDE7F7EEA9
:10A6F000007A9BE70000000020BCBE4CB5EEC00A0B
:10A70000DFED317AF1EE10FACCBF30EE270A30EEF1
:10A71000670ADFED2E7A20EE270A30B5FDEEC07A0B
:10A7200087B017EE904A054684EAE470002303A937
:10A73000A0EBE470CDE90033029337F04FFB002C1F
:10A74000ACBF20232D2303A88DF8003046F0ECF891
:10A75000012803A924D002282DD0032805BF3023C7
:10A76000684668468DF8013048F09EFB684646F022
:10A77000DBF80338C4B222466946284648F0CAFBD3
:10A7800000232B55284646F0CFF82E22431C2A548E
:10A790000DEB0401E81848F0A3FB284607B030BDD4
:10A7A000302368468DF801308DF802308DF8033083
:10A7B00048F07AFBDAE7302368468DF801308DF8EF
:10A7C000023048F071FBD1E76F12033A00007A447F
:10A7D000F8B5064615460846B6FBF2F434B905FB53
:10A7E00014640C4B1B5D00F8013BF8BDB4FBF2F7A1
:10A7F0005FB905FB1747074B05FB1464DA5D00F8EA
:10A80000012B1B5D00F8013BF8BD3846FFF7E0FF68
:10A81000EFE700BF149E050802B370B48E1803E082
:10A82000121B14D1B14215D010F8012BA2F1410333
:10A83000192B11F8013BA3F1410598BF2032192DC6
:10A8400003F12004ECD9D21A01D1002BEAD1104631
:10A8500070BC70470022104670BC704710467047AD
:10A8600070B5044608460D4646F05EF8064602E01E
:10A8700014F8013F43B1324629462046FFF7CCFF8A
:10A880000028F5D1204670BD1C46204670BD00BF93
:10A890004FF0FF32FFF7C0BFA0F16103192B98BF43
:10A8A00020387047A0F14103192B98BF2030704722
:10A8B000202805D0093804288CBF002001207047CB
:10A8C000012070472DE9F0411F46064603461C78DB
:10A8D0002046FFF7EDFF1D4601330028F7D12B2C52
:10A8E00051D02D2C24D0102A804628D04FF0FF3391
:10A8F000B3FBF2F302FB03FC6FEA0C0C5FFA8CFC77
:10A90000013500200BE0303CE4B2944225DA984255
:10A910002E461DD81AD002FB004015F8014B392CE9
:10A92000F1D944F02004602C17D9573CE4B2ECE78D
:10A930004FF00108102A6C7805F10105D6D1302CB2
:10A9400023D06FF070434FF00F0CD9E76445E2D984
:10A9500007EA08084FF0FF30DFE701B10E60B8F1F9
:10A96000000F08D027B1B0F1004F28BF4FF00040D2
:10A970004042BDE8F081002FFBD06FF000439842C9
:10A9800028BF1846F5E78046D4E76C782046FFF7E5
:10A9900089FF782805F1010605D035466FF0704330
:10A9A0004FF00F0CACE7AC786FF0704302354FF00E
:10A9B0000F0CA5E701230A22002183E770B50D469D
:10A9C0001446FEF789FE0646A0B1FFF7F3FF40F6F6
:10A9D00034039842A8BF1846B0F5617FB8BF4FF462
:10A9E00061701923A0F5617090FBF3F02870237853
:10A9F000013323703046FEF76FFE0646A0B1FFF725
:10AA0000D9FF40F634039842A8BF1846B0F5617FDD
:10AA1000B8BF4FF461701923A0F5617090FBF3F09B
:10AA20006870237801332370304670BD613819286F
:10AA30008CBF002001207047413819288CBF0020AE
:10AA400001207047303809288CBF00200120704752
:10AA5000A0F13003092B07D920F020004138192834
:10AA60008CBF0020012070470120704707EE901A2C
:10AA7000F8EE677A9FED807A27EE800A20EE070ACB
:10AA8000FDEEC07A17EE903A2033402B7BD8DFEDF5
:10AA90007B7AB4EEE70AF1EE10FA40F3E180B0EE13
:10AAA000407A9FED776ADFED776A01E0B0EE677A72
:10AAB000B4EEE67AF1EE10FA77EE467AF6DC9FED28
:10AAC000727AF4EEC77AF1EE10FA40F1CC809FED85
:10AAD0006C6ADFED6E6A01E0F0EE477AF4EEE67A3A
:10AAE000F1EE10FA37EE867AF6D4DFED697AB4EE3D
:10AAF000E77AF1EE10FA40F3A280DFED607A37EEEC
:10AB0000C77A27EE076ADFED635ADFED637ADFED80
:10AB1000636A9FED635AE6EE257A67EE065AE6EE23
:10AB2000276AF7EE007AA5EEA67AF0EE675AE7EE0E
:10AB3000055AE7EE457A87EEA55ADFED557A30EEF5
:10AB4000277AFDEEC76A16EE903A2033402B1FD9C4
:10AB50009FED547AF6EE006AB7EE006AF7EE004A0F
:10AB6000C4EEA57A80ED045A67EEA66A27EE866ADF
:10AB700027EE877AC0ED006AC0ED026A80ED016AB7
:10AB800080ED037A7047B7EE005AF0EE455AD4E7ED
:10AB9000B4EEE70AF1EE10FA6BDD9FED396ADFEDF6
:10ABA000396A01E0B0EE677AB4EEE67AF1EE10FAB7
:10ABB00077EE467AF6DC9FED347AF4EEC77AF1EE62
:10ABC00010FA53D59FED2E6ADFED306A01E0F0EE0A
:10ABD000477AF4EEE67AF1EE10FA37EE867AF6D49A
:10ABE000DFED2B7AB4EEE77AF1EE10FA33DCDFED2D
:10ABF0002E7AB4EEE77AF1EE10FA44BFDFED227A56
:10AC000037EEC77A27EE076ADFED224ADFED226AC8
:10AC1000DFED227AE6EE246A67EE064AE6EE267A51
:10AC2000B7EE006AA4EEA77AF6EE006A36EE476A3F
:10AC3000F8EE007A27EE277A66EE266A8EE7DFEDD9
:10AC40001A7AB4EEE77AF1EE10FA44BFDFED0E7A2D
:10AC500037EEC77A55E7DFED097A37EEC77AD1E7E5
:10AC6000F0EE407A2BE7B0EE677A3EE7B0EE677A17
:10AC7000B6E7F0EE477A9EE727D4D236DB0F49409D
:10AC8000DB0FC940E4CB1641DB0F49C0E4CB16C152
:10AC9000DB0FC93F92E741B99730083C15A82ABE9F
:10ACA000F304353F00000000DB0FC9BF07EE901A28
:10ACB000F8EE677A9FED837A27EE800A20EE070A86
:10ACC000FDEEC07A17EE903A2033402B00F28180DF
:10ACD000DFED7D7AB4EEE70AF1EE10FA40F3E6809C
:10ACE000B0EE407A9FED796ADFED796A01E0B0EE6F
:10ACF000677AB4EEE67AF1EE10FA77EE467AF6DC91
:10AD00009FED747AF4EEC77AF1EE10FA40F1D1803B
:10AD10009FED6E6ADFED706A01E0F0EE477AF4EEC7
:10AD2000E67AF1EE10FA37EE867AF6D4DFED6B7A3A
:10AD3000B4EEE77AF1EE10FA40F3A780DFED627A25
:10AD400037EEC77A27EE076ADFED655ADFED657AE1
:10AD5000DFED656A9FED655AE6EE257A67EE065AE5
:10AD6000E6EE276AF7EE007AA5EEA67AF0EE675ACD
:10AD7000E7EE055AE7EE457A87EEA55ADFED577AFA
:10AD800030EE277AFDEEC76A16EE903A2033402B5C
:10AD900024D99FED577AF6EE006AB7EE006AF7EE17
:10ADA000004AC4EEA57A0023836143610362C36154
:10ADB00080ED045A67EEA66A27EE866A27EE877A48
:10ADC000C0ED006AC0ED026A80ED016A80ED037A91
:10ADD0007047B7EE005AF0EE455ACFE7B4EEE70AF7
:10ADE000F1EE10FA6BDD9FED396ADFED396A01E0B3
:10ADF000B0EE677AB4EEE67AF1EE10FA77EE467AC4
:10AE0000F6DC9FED347AF4EEC77AF1EE10FA53D502
:10AE10009FED2E6ADFED306A01E0F0EE477AF4EE46
:10AE2000E67AF1EE10FA37EE867AF6D4DFED2B7A79
:10AE3000B4EEE77AF1EE10FA33DCDFED2E7AB4EE01
:10AE4000E77AF1EE10FA44BFDFED227A37EEC77AE7
:10AE500027EE076ADFED224ADFED226ADFED227A74
:10AE6000E6EE246A67EE064AE6EE267AB7EE006A58
:10AE7000A4EEA77AF6EE006A36EE476AF8EE007A9C
:10AE800027EE277A66EE266A89E7DFED1A7AB4EEB6
:10AE9000E77AF1EE10FA44BFDFED0E7A37EEC77AAB
:10AEA00050E7DFED097A37EEC77AD1E7F0EE407A66
:10AEB00026E7B0EE677A39E7B0EE677AB6E7F0EEEC
:10AEC000477A9EE727D4D236DB0F4940DB0FC940D3
:10AED000E4CB1641DB0F49C0E4CB16C1DB0FC93F01
:10AEE00092E741B99730083C15A82ABEF304353FD4
:10AEF00000000000DB0FC9BF30B402681146531CCC
:10AF0000036011F8024B0160D31C51780360937801
:10AF1000151D05601B0443EA0123D078234343EA4F
:10AF2000006030BC704700BF0368591C1A460160BE
:10AF300012F8021B0260587841EA0020704700BFF7
:10AF400003685A1C02601878704700BF70B5044649
:10AF500008460E4645F0E8FC3146054602462068A4
:10AF600046F076FC20682844206070BD38B5044661
:10AF70000068154646F06CFC22682A44226038BD01
:10AF8000036810B40A0E5C1C04601A7003680A0C93
:10AF90005C1C04601A7003680A0A5C1C04601A7066
:10AFA00003685A1C026019705DF8044B704700BFBB
:10AFB000036810B40A0A5C1C04601A7003685A1C07
:10AFC000026019705DF8044B704700BF03685A1C9B
:10AFD000026010B4197003680A0A5C1C04601A70DD
:10AFE00003680A0C5C1C04601A700368090E5A1C82
:10AFF000026019705DF8044B704700BF03685A1C6B
:10B00000026019700368090A5A1C026019707047BF
:10B0100070B544880546C4F30B0422460846002157
:10B0200047F03AFF2969094A9142034602D3084A88
:10B03000914204D341B11846BDE87040084722460A
:10B04000BDE8704046F004BC70BD00BF5807000862
:10B05000D208000838B5064C064DAC4206D26168ED
:10B0600020461434FFF7D4FFAC42F8D338BD00BFFC
:10B070009001000858070008084B09498B4203D388
:10B0800009E014338B4206D21A88C2F30B029042B5
:10B09000F7D1184670470023184670479001000802
:10B0A000580700082DE9F74F0F4601900021384658
:10B0B000FEF7DCFBDFF8C4A0009000252E4B1868DB
:10B0C00016F0CEFD0D242D4B019A6C43E3181B792D
:10B0D00003F01803934203D0002A45D1182B43D123
:10B0E0000D2606FB05A35444B3F80900FFF7C4FF7F
:10B0F00081462046FEF7FDFAD9E901218046024447
:10B1000001442046FEF72CFB80F00101009A8346A3
:10B11000C9B23846FEF7AAFBFA06009002D5BBF189
:10B12000000F21D106FB05A6BB0636680FD5BBF183
:10B13000000F0CD131461248FEF704FFD9F8041075
:10B140005A4641442046FEF771FFFEF779FB31462F
:10B150000C48FEF7F7FED9F80810002241442046BB
:10B16000FEF764FFFEF76CFB0135B5F5F87FA5D15E
:10B1700003B0BDE8F08F00BFE0270020588005082D
:10B18000979D0508989D050870B50546B0F809001B
:10B19000FFF772FF064B1E7804462846FEF7A9FA11
:10B1A00016B1A368184470BD63681844FBE700BF7C
:10B1B0001C24002038B505460C46FFF7E5FF2A7928
:10B1C00002F0070302F0E002602A28D1022B0ED021
:10B1D000042B18D03BB96A7901239340DBB2027883
:10B1E00014B11343037038BD22EA0303FAE76A7906
:10B1F000012393409BB2028814B113430380F2E70A
:10B2000022EA0303FAE76A79012303FA02F20368E8
:10B2100014B113430360E6E723EA0203FAE7042BC1
:10B22000E1D8DFE803F00303050507000470DAE75F
:10B230000480D8E70460D6E738B50D460446FFF72A
:10B24000A3FF2A4601462046BDE83840FEF7EEBE81
:10B25000064B1B78012B04D9054A136843F480235D
:10B260001360044B00225A71704700BFFC7100202C
:10B27000CC9B00200061002010B53E2015F0E8F8BE
:10B28000194C606018B1112200238271C371202112
:10B2900015F05AFA382015F0DBF8A06018B1112229
:10B2A00000238271C371202115F04EFA0A2011F09B
:10B2B0009DFEA06816F030FA38B1606816F02CFADE
:10B2C0000A4B50B101221A7010BD606816F024FAC2
:10B2D000064B28B903221A7010BD02221A7010BD45
:10B2E00004221A7010BD00BF50160020FC7100200F
:10B2F0001378A3B11D2812DC70B41E24084E14FB71
:10B300000101151A2819314401E0824205D001F8E3
:10B31000013F12F8013F002BF7D170BC7047704716
:10B32000373B00202DE9F84FDFF8C88298F800304D
:10B3300003B1FEE7A94FAA4A7B6812881C88A94E70
:10B3400024F0400424040125240C88F800501C80BB
:10B350001D8825F038052D04B3424FEA154500F04D
:10B36000DD81A14CA34200F0D981B2F5807FA8BF56
:10B370004FF48072022AB8BF0222002A92FAA2F287
:10B38000B2FA82F208BF4FF0FF32013A45EAC20238
:10B3900092B21A801C88BA6844F040041C8012B132
:10B3A000146892886283914A8B46998901211170B1
:10B3B000044640F2E93202E0002A00F0B181198926
:10B3C000013A11F0020F92B2F6D000229A8140F2B7
:10B3D000E93202E0002A00F0A3811989013A11F054
:10B3E000010F92B2F6D09A899A8940F2E93202E0CE
:10B3F000002A00F0AE811989013A11F0020F92B2D1
:10B40000F6D000229A8140F2E93202E0002A00F0F0
:10B41000A0811989013A11F0010F92B2F6D09A89F0
:10B420009A8940F2E93202E0002A00F08D81198900
:10B43000013A11F0020F92B2F6D009229A8140F23D
:10B44000E93202E0002A00F07F811989013A11F007
:10B45000010F92B2F6D09A899A8940F2E93202E05D
:10B46000002A00F06C811989013A11F0020F92B2A2
:10B47000F6D0A4B29C8140F2E93202E0002A00F04A
:10B480005E811989013A11F0010F92B2F6D09A89C2
:10B49000574E0BF1FF3B00254FF00A0A4FF00B0906
:10B4A0009A8940F2E93202E0002A00F018811989F5
:10B4B000013A11F0020F92B2F6D0A3F80CA040F2BC
:10B4C000E93202E0002A00F00A811989013A11F0FC
:10B4D000010F92B2F6D09A899A8940F2E93202E0DD
:10B4E000002A00F006811989013A11F0020F92B288
:10B4F000F6D0AAB29A8140F2E93202E0002A00F0C6
:10B50000F8801989013A11F0010F92B2F6D09A89A8
:10B510009A891BF8014F40F2E93202E0002A00F05C
:10B52000ED801989013A11F0020F92B2F6D0A3F81A
:10B530000C9040F2E93202E0002A00F0DF80198925
:10B54000013A11F0010F92B2F6D09A899A8940F22D
:10B55000E93202E0002A00F0C7801989013A11F0AF
:10B56000020F92B2F6D0A4B29C8140F2E93202E01E
:10B57000002A00F0B9801989013A11F0010F92B246
:10B58000F6D09A89326832B11168928848690242CD
:10B5900014BF4A830A830135362D81D19A8940F23E
:10B5A000E93202E0002A00F0C5801989013A11F061
:10B5B000020F92B2F6D008229A8140F2E93202E0FC
:10B5C000002A00F0B7801989013A11F0010F92B2F8
:10B5D000F6D09A899A8940F2E93210E04C72002044
:10B5E000280D002000380040003C0040054E00209F
:10B5F000E07C0020FD4D0020002A00F09680198993
:10B60000013A11F0020F92B2F6D0A0229A8140F2D4
:10B61000E93202E0002A00F088801989013A11F02D
:10B62000010F92B2F6D09A89A02500249A8940F29F
:10B63000E93201E0002A66D01989013A11F0020FBF
:10B6400092B2F7D09D8140F2E93201E0002A5AD04F
:10B650001989013A11F0010F92B2F7D09A899A89AB
:10B6600040F2E93201E0002A52D01989013A11F082
:10B67000020F92B2F7D09C8140F2E93201E0002A39
:10B6800046D01989013A11F0010F92B2F7D098898A
:10B69000C0B28206CAD4BA6812B1116892880A830D
:10B6A0001A882E4922F040021204120C1A801A88BD
:10B6B00022F0380212048B424FEA124205D001F503
:10B6C00080618B4218BF42F008021A801A8800215C
:10B6D00042F040021A8088F80010BDE8F88F184642
:10B6E00016F05AFA7B68F7E6184616F055FA7B68AA
:10B6F00048E7184616F050FA7B6809E7184616F036
:10B700004BFA7B6822E7184616F046FA7B68A6E7F4
:10B71000184616F041FA7B68C0B2BAE7520824E630
:10B72000184616F039FA7B685EE6184616F034FAC9
:10B730007B6879E7184616F02FFA7B684AE71846C7
:10B7400016F02AFA7B68A3E6184616F025FA7B68FD
:10B7500082E6184616F020FA7B6861E60038004061
:10B760000388174A23F040031B041B0C0380038843
:10B7700023F038031B0490424FEA13431DD002F517
:10B780008062904219D0B1F5807FA8BF4FF48071DC
:10B790000229B8BF0221002991FAA1F1B1FA81F181
:10B7A00008BF4FF0FF31013943EAC10189B201807E
:10B7B000038843F04003038070474908E3E700BF74
:10B7C000003800402DE9F04F85B0039090F86100FB
:10B7D000002840F01085039BC04C5869C04EDFF82C
:10B7E0000C83C04F10331D464FF480710293FFF756
:10B7F000B7FF284680226B2116F0EAF96423DFF8B0
:10B80000F0E2B94801934FF01009DEF80430C3F3B9
:10B810000803002B40F0E483EFF31183002B40F08A
:10B82000DF832568826823689D42FAD13B689A428B
:10B83000F7D8D6F800C04FF47A7101FB0CF39B1ACD
:10B84000B3FBFCF301FB05354FF47A7C4FF0010AA2
:10B85000DEF80430C3F30803002B40F0A383EFF3BA
:10B860001183002B40F09E832368816822689342F5
:10B87000FAD13A689142F7D832680CFB02FBABEB85
:10B880000101B1FBF2F10CFB03135B1BB3F57A7FF3
:10B89000DED3019B013B0193B7D1032268210298BB
:10B8A000DFF848828F4F16F093F96423DFF840E207
:10B8B0008D4801934FF01009DEF80430C3F30803FC
:10B8C000002B40F01184EFF31183002B40F00C8427
:10B8D0002568826823689D42FAD13B689A42F7D86E
:10B8E000D6F800C04FF47A7101FB0CF39B1AB3FB3E
:10B8F000FCF301FB05354FF47A7C4FF0010ADEF8CA
:10B900000430C3F30803002B40F02E83EFF31183C0
:10B91000002B40F029832368816822689342FAD182
:10B920003A689142F7D832680CFB02FBABEB01019D
:10B93000B1FBF2F10CFB03135B1BB3F57A7FDED393
:10B94000019B013B0193B7D101226B210298DFF8E3
:10B950009C81644F16F03CF90F23DFF894E16248B4
:10B9600001934FF01009DEF80430C3F30803002BF5
:10B9700040F09983EFF31183002B40F09483256806
:10B98000826823689D42FAD13B689A42F7D8D6F87C
:10B9900000C04FF47A7101FB0CF39B1AB3FBFCF36C
:10B9A00001FB05354FF47A7C4FF0010ADEF80430D4
:10B9B000C3F30803002B40F0B982EFF31183002B8F
:10B9C00040F0B4822368816822689342FAD13A68D1
:10B9D0009142F7D832680CFB02FBABEB0101B1FBE3
:10B9E000F2F10CFB03135B1BB3F57A7FDED3019BF3
:10B9F000013B0193B7D118221B210298DFF8EC809C
:10BA0000384F16F0E5F80F23DFF8E4E036480193ED
:10BA10004FF01009DEF80430C3F30803002B40F0A8
:10BA20002183EFF31183002B40F01C83256882688B
:10BA300023689D42FAD13B689A42F7D8D6F800C0F5
:10BA40004FF47A7101FB0CF39B1AB3FBFCF301FB7F
:10BA500005354FF47A7C4FF0010ADEF80430C3F369
:10BA60000803002B40F04482EFF31183002B40F0D9
:10BA70003F822368816822689342FAD13A689142F2
:10BA8000F7D832680CFB02FBABEB0101B1FBF2F122
:10BA90000CFB03135B1BB3F57A7FDED3019B013BE9
:10BAA0000193B7D118221C210298DFF840800D4F76
:10BAB00016F08EF80F23DFF838E00B4801934FF0B3
:10BAC0001009DEF80430C3F30803002B40F0A9820C
:10BAD000EFF31183002B40F0A4820BE0147D0020D3
:10BAE000187D00201C7D002010E000E0107D00206B
:10BAF00000ED00E02568826823689D42FAD13B682A
:10BB00009A42F7D8D6F800C04FF47A7101FB0CF3D3
:10BB10009B1AB3FBFCF301FB05354FF47A7C4FF025
:10BB2000010ADEF80430C3F30803002B40F0C281A1
:10BB3000EFF31183002B40F0BD81236881682268F8
:10BB40009342FAD13A689142F7D832680CFB02FB73
:10BB5000ABEB0101B1FBF2F10CFB03135B1BB3F583
:10BB60007A7FDED3019B013B0193AAD1039A92F81D
:10BB70005B30032B00F23D8392F85E20012A0BD04C
:10BB8000022A40F03683039B93F8633003F0FB03F3
:10BB9000022B0CBF002207221A210298DFF80C8327
:10BBA000BF4F16F015F80F23DFF804E3BD480193EB
:10BBB0004FF01009DEF80430C3F30803002B40F007
:10BBC000F782EFF31183002B40F0F2822568826840
:10BBD00023689D42FAD13B689A42F7D8D6F800C054
:10BBE0004FF47A7101FB0CF39B1AB3FBFCF301FBDE
:10BBF00005354FF47A7C4FF0010ADEF80430C3F3C8
:10BC00000803002B40F02E81EFF31183002B40F04E
:10BC100029812368816822689342FAD13A68914267
:10BC2000F7D832680CFB02FBABEB0101B1FBF2F180
:10BC30000CFB03135B1BB3F57A7FDED3019B013B47
:10BC40000193B7D1039B029893F86020DFF85C82E0
:10BC5000934F192115F0BCFF6423DFF854E291489B
:10BC600001934FF01009DEF80430C3F30803002BF2
:10BC700040F07D82EFF31183002B40F0788225683D
:10BC8000826823689D42FAD13B689A42F7D8D6F879
:10BC900000C04FF47A7101FB0CF39B1AB3FBFCF369
:10BCA00001FB05354FF47A7C4FF0010ADEF80430D1
:10BCB000C3F30803002B40F0B780EFF31183002B90
:10BCC00040F0B2802368816822689342FAD13A68D2
:10BCD0009142F7D832680CFB02FBABEB0101B1FBE0
:10BCE000F2F10CFB03135B1BB3F57A7FDED3019BF0
:10BCF000013B0193B7D1102237210298DFF8AC81C4
:10BD0000674F15F065FF0F23DFF8A4E16548019345
:10BD10004FF01009DEF80430C3F30803002B40F0A5
:10BD20000582EFF31183002B40F0008225688268C2
:10BD300023689D42FAD13B689A42F7D8D6F800C0F2
