:020000040800F2
:10000000F0FF001069540508C1A901083572010804
:10001000095505080955050809550508000000009F
:10002000000000000000000000000000CDA9010851
:10003000C9A9010800000000C5A9010899720108BA
:100040000955050809550508095505080955050804
:100050000955050809550508013404082D3504081B
:10006000F1340408B5340408793404087D03010828
:100070006D0301085D0301084D0301083903010800
:10008000250301081103010809550508095505084C
:100090000955050809550508095505083D340408A2
:1000A000A12901083D2F0108D12801080D300108C0
:1000B0007D2E0108BD2D0108F12C010865090108FC
:1000C0006D09010859090108610901080955050868
:1000D0000955050861810108C580010829800108CA
:1000E000C533040809550508E1F301080128010892
:1000F000712A010831270108512B0108FD0201086E
:100100000955050809550508212C01080955050858
:100110008D7F0108F17E0108D1D7030859D6030865
:10012000E9020108D5020108C1020108AD02010877
:1001300099020108095505080955050809550508DA
:1001400009550508095505080955050889C4010818
:1001500085020108710201085D02010809550508C0
:100160004D090108550901080955050809550508F3
:1001700009550508095505080955050809550508D3
:080180000955050809550508A1
:08018800105005000100000009
:1001900010020100302100202C210020000000006E
:1001A0006C0700081F0210004421002034210020A9
:1001B000000000006D8500081A023C008441002008
:1001C00008460020000000007D8F00082700040082
:1001D0008041002044460020000000006E07000817
:1001E000381001008C40002048460020000000002C
:1001F000720700080B301A00E058002084610020CC
:1002000000000000740700081F3024001850002070
:10021000A061002000000000900700080502040013
:10022000985B0020C461002000000000B4070008B3
:1002300003010A0040500020C861002000000000B7
:10024000B8070008130204007C4E0020D46100208F
:1002500000000000C20700080702020064730020CB
:10026000A873002000000000C607000802000C0070
:1002700058720020AC730020000000000000000055
:1002800006020C003C730020B87300200000000040
:100290001990000808120F00BC720020C4730020DF
:1002A00000000000FD840008F7010600B472002081
:1002B000D473002000000000C80700081D020200DF
:1002C000B0720020DC73002000000000CE070008A0
:1002D0001C021000187B00201C7F00200000000082
:1002E000B183000814000300687E00202C7F0020EA
:1002F00000000000D007000810100200CC7C002095
:10030000307F002000000000D407000828101000F3
:10031000BC7C0020347F002000000000CD57020884
:1003200019000500B47C0020447F0020000000007C
:10033000D6070008F8210600AC7C00204C7F002086
:1003400000000000DC07000801200C00E07600201F
:10035000547F002000000000E20700080A70280017
:100360004C760020607F00200000000071570208DA
:100370000EB08601C4740020887F002000000000B9
:10038000796A040801010400207400201081002013
:1003900000000000000000000001040018740020AC
:1003A0001481002000000000EE0700080201030095
:1003B00014740020188100200000000069F4010876
:1003C00022021401F4970020809A0020000000000F
:1003D000C99100080C20CC003C960020949B002082
:1003E000000000002DF40108010205000496002021
:1003F000609C002000000000C5F902080002050012
:10040000FC950020689C0020000000000000000017
:100410001B021000D0950020709C002000000000FE
:10042000D98300081E00060028930020809C00202D
:1004300000000000F40700081B100C00408300209F
:10044000889C002000000000090F03082102F00032
:10045000C0810020949C0020000000005D0803087B
:10046000231210004C970020849D00200000000003
:10047000FC0700080510060044970020949D00200A
:10048000000000000C0800083710280058950020D4
:100490009C9D002000000000120800080E020200CF
:1004A00040970020C49D0020000000003A0800088A
:1004B0001610060020810020C89D002000000000CA
:1004C0003C0800082F1022005C9A0020D09D0020DC
:1004D000000000004208000823100E007092002067
:1004E000F49D002000000000E5570208F55190003F
:1004F00028810020049E0020000000006D400308B9
:100500000A020A0004A7002058A9002000000000E9
:10051000F5700308F6210C0068A1002064A90020F2
:10052000000000006408000803000100D8A10020BA
:1005300070A90020000000000000000003123D0030
:1005400018A9002074A9002000000000700800080D
:1005500025102C0138A70020B4A9002000000000BD
:10056000000000001A000E007CB20020BCB3002086
:1005700000000000AE08000820320A0050B1002040
:10058000CCB3002000000000596A04081500700078
:1005900040AF0020D8B300200000000000000000A1
:1005A0002A00600044B3002048B40020000000008E
:1005B000316A04082C001000B8B40020A8B4002050
:1005C00000000000D56604082B002400ECB40020D5
:1005D000C8B4002000000000A566040829207800A7
:1005E0002CAD002010B5002000000000000000002D
:1005F0000D00440060E000201CE10020000000002D
:10060000850C010809020100CCDF002060E1002018
:1006100000000000BC080008040080004CDF00203F
:1006200064E100200000000000000000130004004E
:1006300038DF0020E4E1002000000000C0080008CE
:10064000FD01240014DF0020E8E10020000000008C
:100650006101040818203000E0DE00200CE20020D8
:10066000000000002991000806101A00C0CC0020EC
:100670003CE2002000000000D56A0408FB010100F4
:10068000BCCC002058E20020000000009D91000832
:10069000FC01090088CB00205CE200200000000083
:1006A000AD91000816023F0048CB002068E2002010
:1006B000000000001D8400083400100078CA0020EB
:1006C000A8E2002000000000A96A04081102080046
:1006D00050CA0020B8E2002000000000C408000852
:1006E0001212040048CA0020C0E2002000000000EE
:1006F000CC0800081220100038CA0020C4E20020F4
:1007000000000000D0080008F9010400ACC6002079
:10071000D4E2002000000000D9010408FA01020020
:1007200094C00020D8E20020000000009986000854
:1007300002020300D8B50020DCE200200000000027
:10074000000000000C02040094B50020E0E200204C
:100750000000000055850008FE01140060C0002064
:0C076000E4E2002000000000ED8300082F
:10076C000000200300000000AE014A015E012C01D4
:10077C0064010100000001000A019A01001E0A0038
:10078C000000000000000000000100000005000057
:10079C000102030000000000000000000000000047
:1007AC0000000000008007000000000004010100B0
:1007BC006C160000000000000100013C3D0100002F
:1007CC0000000000030000000005000028010000EC
:1007DC000401F4011400E8036400040A000114008D
:1007EC001E0090010000000000000100000000004D
:1007FC0000000000000000000000000000000000ED
:10080C0020000101000020003200C800D007960033
:10081C00140032002800B0044006000550001400FB
:10082C000F00080064000100010005000A00000030
:10083C00C4090000190000000000000000000000C6
:10084C00000000000000000000000000000000009C
:10085C00000000000000000000000000010000008B
:10086C000202000000000000000000000000000078
:10087C00000000000000000000000000000000006C
:10088C00000000000000000000000000000000005C
:10089C00000000000000000000000000000000004C
:1008AC0001007E05EA05B4053200E803D00700001C
:1008BC00130000000800403000000000010101019D
:1008CC00FFFFFFFF000000010000055649564100E4
:0408DC000008000010
:1008E0001A030000000000000000000000000000EB
:1008F00000000000000000000000000004030904E4
:10090000120100020000004083042057000201028F
:100910000301000029C40008F5850008F1850008DE
:10092000ED85000811920008E9850008E5850008BA
:10093000E06F050861AB010841900108A1B601080C
:100940000000000000000000A5B30108C1B20108CA
:10095000000000000000000000000000798B01088A
:100960008D86000881860008B5970008D197000899
:1009700039860008999700087D9700080068214C87
:100980001F0000001C0000001F0000001E000000EF
:100990001F0000001E0000001F0000001F000000DC
:1009A0001E0000001F0000001E0000001F000000CD
:1009B000FF01FF0000000401000000000000000231
:1009C0001000000007000000000000000000000010
:1009D000010203040607080999910108859001089E
:1009E0003DB9010800000000018C0108F5B40108C0
:1009F000D58F01086DB40108000000000000000060
:100A0000BD8B0108518B0108458B010871AA0108B3
:100A10008DAA010855AA010839AA01081DAA0108D2
:100A200051910108619001087DB8010800000000A3
:100A3000D58B010871B40108A98F0108CDB3010855
:100A40000000000000000000C98B01080100000048
:100A5000A00F0000B80B00000102FFFF0100000022
:100A60000403090412010002EF020140830456321C
:100A70000002010203010000120100020202004014
:100A80008304405700020102030100000902200014
:100A9000010104C0320904000002080650050705E0
:100AA00081024000000705010240000009026400C5
:100AB000030100C032090400000103000000092105
:100AC000110100012226000705830308000A080B14
:100AD00001020202010009040100010202010005F5
:100AE000240010010524010002042402020524064A
:100AF0000102070582030800FF09040200020A0040
:100B000000000705010240000007058102400000C7
:100B100009024300020100C0320904000001020280
:100B20000100052400100105240100010424020233
:100B30000524060001070582030800FF09040100DF
:100B4000020A0000000705010240000007058102BB
:100B500040000000FF000000D87F050800000000F2
:100B60000000000000000000000000000000000085
:100B70000000000000000000000000000000000075
:100B800000FFFF0000000000AA5505010000010061
:100B9000AC7F05080000000000000000000000001D
:100BA0000000000000000000000000000000000045
:100BB0000000000000000000FF1FFF1F05010905E5
:100BC000A101A100050109300931093209330935B4
:100BD0000934094009381581257F75089508810277
:100BE000C0C0000009022200010100E03209040037
:100BF0000001030102000921110100012226000762
:100C000005830308000A000000000000010203043D
:100C1000010203040607080905B6010809B5010821
:100C200061B901083D8C0108B59101084D8C01089E
:100C3000698C0108158C0108058C01080000000072
:100C4000000000002D202D2D202D2D2D2D202D2DAF
:100C50002D2D00000000000000000000000000003A
:100C6000000000AA550B010000AA5507010000AAC8
:100C7000550902000000AA5503009F000100000072
:100C8000C012000058610020000000007C610020BC
:100C90000000000000000000987300200800000021
:100CA00000000000887300200800000024FC0508F4
:100CB00030FC05083CFC050848FC050854FC050808
:100CC00060FC05089C1306083837060840360608FD
:100CD000B4FB05084461060820FA050818FC05085D
:100CE0001CFC050820FC05086CFC050870FC0508C8
:100CF00074FC0508A834060878FC05081900C8002B
:100D0000F401200301000000E94E02080000000089
:100D100094890508FFFFFFFFD6010000B80B000013
:100D20000101010000010101002D202D2D202D2D9C
:100D30002D2D202D2D2D00000000000000000000B2
:100D400000000000000000000000000000000000A3
:100D5000989D05080000000000000000249E050882
:100D600001000000FA000000010000000100000086
:100D700001010000DC7600200000F4010100000009
:100D8000DA7600200000F40101000000D87600208F
:100D90000000F40101000000D67600200000F401FC
:100DA00001000000D47600200000F40101000000E2
:100DB000D27600200000F40101000000D07600206F
:100DC0000000F40101000000F9550208BD550208B9
:100DD000408B0508C676002005320100C47600204D
:100DE000E803D00701000000C2760020E803D00726
:100DF00001000000C0760020E803D00701000000D9
:100E0000BE7600201E00B80B01000000CC7600204A
:100E100005000F0001000000CE76002003000A004C
:100E200001000000BC7600201E00F401010000005B
:100E3000BA7600201400640001000000C87600208B
:100E40003200E80301000000B87600200000C8006E
:100E5000010000009276002000C801009176002079
:100E60000050010090760020005A01008E7600208C
:100E700002000000CC8B05089C030608A4030608AA
:100E800006E100200100C4090000000004E1002088
:100E90000100C4090000000002E100200100C409B3
:100EA0000000000000E100200100C4090000000073
:100EB000FCE000200100C40900000000FEE000206A
:100EC0000100C40900000000FAE000200100C4098C
:100ED00000000000F8E000200100C409000000004C
:100EE0003974002000C801003874002000C80100D7
:100EF000367400200100C800010000003474002096
:100F0000320030753200000032740020055A0500AE
:100F10002F74002000FF0100317400200100000048
:100F2000200700202D7400200300000018A60508EB
:100F30002E74002000FF010030740020010000002A
:100F4000200700202C7400200300000018A60508CC
:100F50006155020805550208D88B0508F076002077
:100F6000EE02CA0801000000EE76002000C8010071
:100F700064000000ED76002000C80100640000005D
:100F8000EC76002002000000B88C050826740020D2
:100F900080C1803E050000002474002080C1803E96
:100FA000050000001E74002080C1803E0500000086
:100FB0001C74002080C1803E0500000017740020D2
:100FC00000FF0100107400206400F4010100000023
:100FD0000F74002004000000C48C05080E7400206B
:100FE00002000000D88C0508B37400200D0000003A
:100FF000E48C0508B074002000640100AE74002089
:10100000320010270A000000AD7400200D0000001F
:10101000E48C0508AC7400200D000000E48C050889
:10102000AB740020020000001C8D050800000000C9
:1010300000000000288D0508505B00209CFF2C015B
:10104000000000003A7A0020E0150C1700000000B4
:101050003C7A002002000000608D0508FC7600202C
:101060000100FF7F01000000FB760020020000006D
:101070006C8D0508B5740020030000007C8D050808
:10108000B4740020030000007C8D050880760020E9
:101090000000E803010000007E7600200000E80365
:1010A000010000007C7600200000E8030100000041
:1010B0007A7600200000E803010000007876002026
:1010C0000000E80301000000767600200000E8033D
:1010D00001000000757600200014010074760020E5
:1010E000030000008C8D05088C7600200000F401C0
:1010F000010000008A7600200000F40101000000D9
:10110000887600200000F4010100000086760020AF
:101110000000F40101000000847600200000803E01
:1011200001000000827600200000803E01000000E7
:10113000A576002019640100A476002002000000BA
:101140009C8D0508A2760020E803D0070A00000065
:10115000A0760020006401000A00000095760020BF
:101160000064010094760020006401009C76002059
:10117000006401000A0000009B760020006401006A
:101180000A0000009A760020006401000A000000B6
:101190009F760020006401000A0000009E76002077
:1011A000006401000A0000009D7600200064010038
:1011B0000A0000009976002001FF01000A000000EB
:1011C0009876002001FF01000A00000097760020B9
:1011D00001FF01000A000000BE7400200000F401BD
:1011E00001000000BC7400200000F40101000000B8
:1011F000BA7400200000F40101000000B87400205F
:101200000000F40101000000B67400200000F401A9
:10121000010000007F7A002000C801007E7A0020D3
:10122000006401007D7A0020006401007C7A0020C7
:10123000006401007B7A0020006401007A7A0020BB
:10124000FF080100797A0020016401006D54020852
:1012500031540208A88D0508787A00200064010046
:10126000767A00201400E80301000000747A002060
:10127000E80330750A000000727A002000C80100FF
:10128000717A002000C80100707A002000C80100B7
:101290006F7A0020006401000A0000008E7A0020AE
:1012A0000000D00701000000887A002000C801007B
:1012B000877A002000C80100867A002000C801005B
:1012C0008C7A00200000D00701000000857A002001
:1012D00000C80100847A002000C80100837A002041
:1012E00000C801008A7A00200000D0070100000039
:1012F000827A002000C80100817A002000C8010025
:10130000807A002000C80100000000002552020879
:10131000188E0508A974002039000000B48E050855
:10132000A874002000C80100A6740020E803D007BC
:101330000100000056495641463441494F00000023
:101340002B740020000301002A7400200003010018
:1013500071510208355102089C8F0508F1500208AE
:10136000A55002080C900508AD510208B975020895
:101370008C900508287400200103010061560208C2
:10138000355602089093050835500208F54F0208BB
:10139000009405083B520208D57502089C94050884
:1013A000C571020800000000449505082D7A020866
:1013B000C1560208E09505088D52020800000000A1
:1013C000609605086553020811530208C496050883
:1013D000F5530208B953020860970508EDEA0208C0
:1013E000A9540208E0970508B7760020010601001D
:1013F000D5520208A1520208DC98050853EA0208F7
:10140000957602084C99050835EB02082D770208FD
:10141000489A0508B676002001030100F55102083C
:10142000C55102081C9B05088D56020800000000EB
:10143000809B05087550020889750208E49B050821
:101440000000000000000000709C0508DD54020848
:10145000A5770208F09C05080A74002088136F170E
:10146000010000000C74002088136F1700000000BA
:10147000A25000200000000000000000A05000204A
:1014800000000000000000009E500020000000004E
:10149000000000009C500020000000000000000040
:1014A0009A5000200000000000000000985000202A
:1014B00000000000000000002805002000000000DF
:1014C00000000000E073002002000000789E050884
:1014D0000874002088136F1701000000905B002043
:1014E00088136F1700000000894F020800000000F9
:1014F000849E05086E7A002001000000D89E050831
:10150000925B002001000000E49E0508885B00203B
:1015100002000000EC9E0508000000000000000032
:10152000F89E0508754F020800000000949F05080A
:101530000000000000000000E89F05080000000017
:101540000000000058A005088C5B0020E0150C1777
:101550000000000000000100E0010000FFFFFFFFAD
:10156000080101FFFFFF00000000803FFFFFFFFFB9
:101570000000803F000000000000000000000000AC
:10158000FFFFFFFFFF000000FFFF0000FFFFFFFF66
:101590009C5C06080000080205030300A45C060822
:1015A0000100080205040300EC1E06080200FE010B
:1015B00001100300DC07060803001402000300000A
:1015C000AC5C060804001F0201000800B45C0608B9
:1015D00005001F02010108007D0000000000803F9F
:1015E0000000000000000000000000000000803F3C
:1015F00000000000000000000000000000000000EB
:1016000000000000000000000000000000000000DA
:10161000000000000000803F00000000000000000B
:10162000000000000100000008000000418B0108DC
:101630003D8B0108398B01082D8B0108298B01088E
:10164000358B0108318B0108010000000060024069
:10165000106002400000000000000000000B0000CD
:1016600000000000000000000000000000600240D8
:10167000286002400100000000000000060C00008D
:1016800000000000000000000000000000600240B8
:10169000406002400200000000000000100D000049
:1016A0000000000000000000000000000060024098
:1016B000586002400300000000000000160E000009
:1016C0000000000000000000000000000060024078
:1016D000706002400400000000000000200F0000C5
:1016E0000000000000000000000000000060024058
:1016F0008860024005000000000000002610000085
:101700000000000000000000000000000060024037
:10171000A060024006000000000000003011000040
:101720000000000000000000000000000060024017
:10173000B86002400700000000000000362F0000E3
:1017400000000000000000000000000000640240F3
:10175000106402400000000000000000003800009B
:1017600000000000000000000000000000640240D3
:10177000286402400100000000000000063900005B
:1017800000000000000000000000000000640240B3
:10179000406402400200000000000000103A000017
:1017A0000000000000000000000000000064024093
:1017B000586402400300000000000000163B0000D7
:1017C0000000000000000000000000000064024073
:1017D000706402400400000000000000203C000093
:1017E0000000000000000000000000000064024053
:1017F000886402400500000000000000264400004C
:101800000000000000000000000000000064024032
:10181000A064024006000000000000003045000007
:101820000000000000000000000000000064024012
:10183000B8640240070000000000000036460000C7
:10184000000000000000000000000000385D0608F5
:10185000281C0608000000007DF40108A086010095
:101860000400000000000000000000000000000074
:101870000000000000000000000000000000000068
:10188000000000000000000000000000385D0608B5
:101890006061060800000000850B0108E8030000F5
:1018A0000400000000000000000000000000000034
:1018B0000000000000000000000000000000000028
:1018C000000000000000000000000000500B0608AF
:1018D0002435060800000000557903087D0000004B
:1018E00006000000000000000000000000000000F2
:1018F00000000000000000000000000000000000E8
:10190000000000000000000000000000885C0608E5
:101910000000000000000000A5760108E8030000B8
:1019200003000000000000000000000000000000B4
:1019300000000000000000000000000000000000A7
:1019400000000000000000000000000068610608C0
:10195000000000000000000079CF040810270000FC
:101960000300000000000000000000000000000074
:101970000000000000000000000000000000000067
:10198000000000000000000000000000A85C060845
:1019900000000000896F02081D1101085F76000039
:1019A0000500000000000000000000000000000032
:1019B0000000000000000000000000000000000027
:1019C000000000000000000000000000E45F0608C6
:1019D0000000000000000000FD8101081027000049
:1019E00001000000000000000000000000000000F6
:1019F00000000000000000000000000000000000E7
:101A000000000000000000000000000074610608F3
:101A10000000000000000000890B0108E80300003E
:101A200005000000000000000000000000000000B1
:101A300000000000000000000000000000000000A6
:101A400000000000000000000000000080610608A7
:101A5000000000000000000049FC0108204E0000CA
:101A60000300000000000000000000000000000073
:101A70000000000000000000000000000000000066
:101A80000000000000000000000000009061060857
:101A900000000000000000004DFA0108204E000088
:101AA0000300000000000000000000000000000033
:101AB0000000000000000000000000000000000026
:101AC000000000000000000000000000A061060807
:101AD0000000000000000000617B0108400D0300D1
:101AE00003000000000000000000000000000000F3
:101AF00000000000000000000000000000000000E6
:101B00000000000000000000000000006CFA050862
:101B10000000000000000000E97301081027000029
:101B200001000000000000000000000000000000B4
:101B300000000000000000000000000000000000A5
:101B40000000000000000000000000006C19060802
:101B50000000000000000000391A030810270000F0
:101B60000300000000000000000000000000000072
:101B70000000000000000000000000000000000065
:101B8000000000000000000000000000B061060836
:101B90000000000000000000D9DB0208A086010060
:101BA0000100000000000000000000000000000034
:101BB0000000000000000000000000000000000025
:101BC000000000000000000000000000C806060839
:101BD0000000000000000000850A0108A861000064
:101BE00001000000000000000000000000000000F4
:101BF00000000000000000000000000000000000E5
:101C0000000000000000000000000000B8610608AD
:101C10000000000000000000A55F0308A08601008E
:101C200001000000000000000000000000000000B3
:101C300000000000000000000000000000000000A4
:101C400000000000000000000000000094FA0508F9
:101C5000000000000000000011400108A00F00007B
:101C60000100000000000000000000000000000073
:101C70000000000000000000000000000000000064
:101C8000000000000000000000000000C461060821
:101C90000000000000000000A55A03081027000003
:101CA0000100000000000000000000000000000033
:101CB0000000000000000000000000000000000024
:101CC0000000000000000000000000009C12060858
:101CD0000000000000000000513A03081A41000013
:101CE00001000000000000000000000000000000F3
:101CF00000000000000000000000000000000000E4
:101D00000000000000000000000000008806060837
:101D100000000000000000006D9401081027000082
:101D200001000000000000000000000000000000B2
:101D300000000000000000000000000000000000A3
:101D4000000000000000000000000000341C060835
:101D50000000000000000000FD8302081A4100009E
:101D60000100000000000000000000000000000072
:101D70000000000000000000000000000000000063
:101D8000000000000000000000000000D061060814
:101D90000000000000000000559A0108400D0300FB
:101DA0000000000000000000000000000000000033
:101DB0000000000000000000000000000000000023
:101DC000000000000000000000000000D8610608CC
:101DD0000000000000000000410A0108400D03005F
:101DE00000000000000000000000000000000000F3
:101DF00000000000000000000000000000000000E3
:101E0000000000000000000000000000E061060883
:101E100000000000000000005547030850C3000008
:101E200003000000000000000000000000000000AF
:101E300000000000000000000000000000000000A2
:101E4000000000000000000000000000EC61060837
:101E50000000000000000000C1F9010840420F002E
:101E60000000000000000000000000000000000072
:101E70000000000000000000000000000000000062
:101E8000000000000000000000000000F8610608EB
:101E90000000000000000000CD0C010850C300004D
:101EA0000000000000000000000000000000000032
:101EB0000000000000000000000000000000000022
:101EC0000000000000000000000000000000803F53
:1080000003685A1C02601970704700BF2DE9F047E1
:10801000089C2578002B804689460CBF4FF0200A2B
:108020004FF0300A661C25B3002A26DD334601E0F6
:10803000024698B113F8011B501E0029F8D1971E73
:1080400060B13D46013D51464046C8476B1C002B80
:10805000F8DC257827EAE770013045B1041B294692
:108060004046C847301916F8015B002DF7D1BDE82E
:10807000F087002A03DC2846F9E70020EEE7571EC8
:10808000DFE700BF2DE9F04714461D4606464FF4D2
:108090007A720023204629464DF01AF84D4BDFF83E
:1080A00048814D4A4D4F034488FB03101844D917AB
:1080B00082FB032CC1EB601088FB002887FB0327A1
:1080C0009C44474AC1EBEC2CC0EB001E82FB0C2900
:1080D000A3EB8E0E1F44434A86F806E0C1EB274708
:1080E0004FEAEC7E08EB000ACEEBA90E82FB07827A
:1080F0004FEAE0780EEB4E0EC8EB6A18ACEBCE0CF4
:10810000C8EB0818DFF8E4E086F804C0A0EB8800AC
:1081100070718EFB0303F817C0EBE21240F2B5500A
:1081200000FB1272C1EBE353B2F5896F4FEA83078C
:108130003CDA40F2DA239A4242DCB2F5B77FB4BFB0
:108140004FF0000E4FF0010E4FEA4E09DFF8A0800D
:1081500009EB0E0308EBC3031FFA8EFCD88A09EB68
:108160000E0108EBC10116310B2301E031F8020DBD
:10817000904218DD013BF9D1CE44012338F83E008E
:10818000B37007F5FA670132121ABC44F270A6F810
:1081900000C0204629464FF47A7200234CF098FF25
:1081A0003281BDE8F0870133DBB2E9E74FF0030C21
:1081B000E64640F29650DFF838804FF00609CEE7E9
:1081C0004FF0020CDFF82880E64640F229404FF0DD
:1081D0000409C4E780BC92C7C5B3A29107452EC26B
:1081E000ABAAAA2A73B06D1689888888792D0311E5
:1081F000006D05080028F0B403DA2D230B7040420F
:108200000131092804464FF0010307DD03EB830326
:108210005B00B0FBF3F2092AF8D883B10F48A0FB4A
:108220000326B4FBF3F2092A02F1570C02F13007DE
:1082300009DD03FB1244F30801F801CBEFD1002361
:108240000B70F0BC704703FB1244F30801F8017B8C
:10825000E5D100230B70F0BC704700BFCDCCCCCC77
:10826000884270B44FF0010442D301FB04F4B0FB28
:10827000F4F58D42F9D2ECB142BB092D04FB150097
:1082800005F1570605F130020EDDB4FBF1F403F8F9
:10829000016B7CB1B0FBF4F5092D04FB150005F171
:1082A000570605F13002F0DCB4FBF1F403F8012BC2
:1082B000002CEFD100221A7070BC704703F8016BDC
:1082C000B4FBF1F4002CF5D0B0FBF4F5092D04FB60
:1082D000150005F1370605F13002EFDCB4FBF1F4CF
:1082E00003F8012B002CEFD100221A7070BC7047EC
:1082F0000546002AEAD1C0E790ED057A90ED004AE4
:10830000D0ED066AD0ED014AD0ED047A90ED035A23
:10831000D0ED025AA4EE007AB0EE406AB0EE470A01
:10832000B0EE667AA4EE867A67EEC07AA5EE407A61
:10833000E5EE867A80ED057AC0ED067A704700BFDB
:10834000D0ED057A90ED013AD0ED003AD0ED064A35
:1083500090ED024A90ED077A90ED035A90ED086A8D
:10836000D0ED045AC0ED067AF0EE406A27EE830A9B
:10837000C0ED056AA3EEA60A80ED087AA4EE240AF1
:10838000A5EE470AA5EEC60A80ED070A704700BFB2
:10839000D0ED007A90ED017A30EE670AE7EE007AD0
:1083A000B0EE670AC0ED007A704700BF704700BFAB
:1083B00030B400220123142534240221C5708471B5
:1083C0000270C2728273C273417041728370C37152
:1083D0000372837230BC7047002306214FF47A7217
:1083E0000170C0E901230373704700BF30B432232A
:1083F000312210254FF47F44FF2143704271012345
:108400000022C5700482817403720370037183704B
:1084100042818281C28130BC704700BF2DE9F04F9C
:108420003149324B83B001F5907B01902F274FF0FB
:1084300000092F481022012603E0203098420BD07B
:1084400002799742F9D102680C68A24209D0203023
:10845000984206F10106F3D1203159453AD00F79FF
:10846000E7E744794D79A542F1D19446019A214834
:1084700009EB490502EB050A57558AF8016000F53A
:1084800072751D4E624603E0A8421AD050F82C6F58
:10849000B242F9D10679A642F6D1CF6806464FF02E
:1084A000000C96468046F268BA4216D00CF1010CD8
:1084B000BCF1030F06F10C06F5D14046A842724606
:1084C000E4D14FF0FF3C203159458AF802C009F150
:1084D0000109C4D103B0BDE8F08F08693269824256
:1084E000E4D14FFA8CFCEEE7F0D4050858E005081B
:1084F00098D6050858E0050800000140144BFF22FB
:10850000F0B54FF0FF34C2700271027242724273D2
:10851000827303F10C0EA44617271626232500228A
:1085200002EB820281189E4585544E708F7081F84F
:1085300003C00C710AD093F90620DD791E7A5F7AA8
:1085400093F90AC093F90B400633E9E7F0BD00BF89
:10855000606D050810B41F2101240322002304705C
:1085600041708270C3705DF8044B704770B403466D
:1085700000F11001FF221A705A7002338B42FAD1B7
:108580000E4B00224FF0FF3103F10C0600EB4205C9
:108590000C469E4200F8124069700CD093F90440DA
:1085A00093F9051013F8032F00EB42059E4200F8E3
:1085B00012406970F2D170BC704700BF746D05083D
:1085C00030B41D6995420AD314460A4621448D42AF
:1085D000996938BF2A1B214430BC4DF017B830BC14
:1085E000704700BF0020704701207047012070478E
:1085F000002070474FF40070024B10609B680B60C6
:1086000000207047B0C60020013A30B4D2B28C1CB2
:1086100004EB42040025020F092AD3B203F1300211
:108620008ABF37330A700B704D7002318C424FEAAB
:108630000010F0D130BC70470B4A0C4B10681B681F
:108640001A22C0180A8001D10948704710B5094B99
:1086500009491C680822FFF7D7FF20460422074972
:10866000FFF7D2FF024810BDE8F7FF1FECF7FF1F2E
:1086700088010020EAF7FF1F8A0100209A010020EC
:1086800004230B8000487047A401002012230B80B4
:1086900000487047A80100202C220223027043707A
:1086A000704700BF08307047704700BF8161704756
:1086B0004378007840EA032010FB01F04FF480710A
:1086C00090FBF1F000F30F0000B270474FF400632D
:1086D00003837047012380F850307047F0B4037C67
:1086E000456902681F2B37D9203B202154689940E7
:1086F0000C4223D010249C40D160D4605168D940F2
:10870000CE074ED4EFF31183502282F312882A6CE5
:108710001168C90709D45468002C52D1D5E9096100
:108720008E4243D1012285F86420DBB283F31188A5
:10873000037C02681F2B194614D9203B082150687E
:108740009940084200D0D1600421506801FA03F337
:10875000184223D1F0BC7047202416689C40264262
:108760000FD11946082310688B40184200D093603F
:108770000423106803FA01F10842EBD09160F0BCC9
:10878000704710219940946091601168D940CC07DE
:10879000B8D5012101FA03F39360B3E7D360F0BCCD
:1087A0007047012101FA03F3D360ABE7AF690F44CF
:1087B000D7600ED82E69711A5160AC62002185F81D
:1087C0006410116841F00101DBB2116083F311887C
:1087D000AEE7711A5160AE62F0E700BFF0B4714BC2
:1087E00071491A780B789A4240F07E816F4B1A7863
:1087F000002A00F0D4806E4B19786E4B002940F0AF
:10880000DB801868B3F83261048824F08004240403
:10881000240C048093F83041C462058845F080053B
:10882000058041628489012A44EA06048481A3F810
:10883000321100F0B480D3F83401B3F866620488D2
:1088400024F080042404240C048093F86442C4625D
:10885000058845F08005058041628489022A44EA42
:1088600006048481A3F8661200F09980D3F86802A8
:10887000B3F89A63048824F080042404240C048050
:1088800093F89843C462058845F0800505804162ED
:108890008489032A44EA06048481A3F89A137ED0CB
:1088A000D3F89C03B3F8CE64048824F08004240435
:1088B000240C048093F8CC44C462058845F08005FC
:1088C000058041628489042A44EA06048481A3F86D
:1088D000CE1464D0D3F8D004B3F80266048824F030
:1088E00080042404240C048093F80046C4620588A4
:1088F00045F08005058041628489052A44EA060422
:108900008481A3F802164AD0D3F80406B3F8366778
:10891000048824F080042404240C048093F8344751
:10892000C462058845F08005058041628489062A75
:1089300044EA06048481A3F8361730D0D3F8380708
:10894000B3F86A68048824F080042404240C0480AA
:1089500093F86848C462058845F080050580416247
:108960008489072A44EA06048481A3F86A1816D089
:10897000D3F86C28B3F89E59108820F080000004CA
:10898000000C108093F89C09D062148844F0800495
:1089900014805162908928439081A3F89E19F0BCFD
:1089A000704700BFCCA00020CDA00020A83500104B
:1089B000A43500103CD500205C68198961602568E9
:1089C000186845F0010540F20D312560A0F8481007
:1089D0008489012A44F480748481E0D0D3F838413A
:1089E000B3F83C51D3F834016560256845F00105C2
:1089F0002560A0F848108489022A44F48074848198
:108A0000CDD0D3F86C42B3F87052D3F868026560E9
:108A1000256845F001052560A0F848108489032ADF
:108A200044F480748481BAD0D3F8A043B3F8A4533B
:108A3000D3F89C036560256845F001052560A0F822
:108A400048108489042A44F480748481A7D0D3F820
:108A5000D444B3F8D854D3F8D0046560256845F001
:108A600001052560A0F848108489052A44F4807423
:108A7000848194D0D3F80846B3F80C56D3F8040692
:108A80006560256845F001052560A0F848108489D7
:108A9000062A44F48074848181D0D3F83C47B3F82B
:108AA0004057D3F838076560256845F00105256013
:108AB000A0F848108489072A44F4807484813FF424
:108AC0006EAFD3F87028B3F87408D3F86C385060E0
:108AD000106840F001001060A3F848109A8942F431
:108AE00080729A81F0BC70475C00E618484D15F81A
:108AF0003660032E3FF67AAEDFE806F04D261C0204
:108B0000E01805EBC0004468661E012C46603FF685
:108B100046AF013303F00303D8B2824208703FF43A
:108B200065AE03EB4303DB00EA1802200021E854A2
:108B3000516034E7E11805EBC1014868461E012881
:108B40004E603FF62CAF0DE0E118C900681846688A
:108B5000771E012E47603FF622AF02274FF0FF3607
:108B60006F544660E618F600AF192A48397B006852
:108B70000139C9B2397389B34FF47A722344B2FB15
:108B8000F0F200FB02F0B0F57A7F05EBC30518BFE9
:108B900001326A602AE670B11F49012600220F895E
:108BA0000132002F18BF0026824201F58671F6D1EE
:108BB000002E3FF41BAE174A126842F21076E018FE
:108BC000B6FBF2F102FB1162012605F8306002B13A
:108BD0003144234405EBC305696007E6BF68B7FB72
:108BE000F0F100FB11700327AF5500B101311C44B7
:108BF000013305EBC40503F00303934269603FF4BE
:108C0000F5AD00293FF4F2AD01396960EEE500BF32
:108C1000D0A00020800E0020DCCC002010B5027C0B
:108C200001681F2A4FF020030ED94C68203A934068
:108C30001C4208D00B4A406800241470026822F0DD
:108C400001020260CB6010BD0C6893401C42FAD058
:108C5000044A406800241470026822F00102026095
:108C60008B60F0E7598500202DE9F041C4002318FE
:108C70009B00B749CA585268958AADB2EFB2FE0759
:108C80000B4461D4BE0737D5BFF35F8F1D7EEDB2B5
:108C9000012D00F0BB80AF4E138BBFF35F8F231805
:108CA00001EB83031D7E022D00F0CE80231801EB23
:108CB00083031D7E032D05D19B7E1BB17378002B92
:108CC00040F01A81938896F900C043F48063938042
:108CD000231801EB83031B7E013363450AD1B3786C
:108CE00000257570002B40F08A80204401EB800045
:108CF00000234375BDE8F081964E17F0040F96F9F6
:108D000000C04DD117F0400700F0B280178A1D6AED
:108D1000FFB205F80C705FFA8CF56F1C93F818E041
:108D20007BB2DF1CBE4533709C4600F009812718DA
:108D300001EB87073F7EBB42CAD105F1020C4FFA17
:108D40008CFC86F800C0C3E71588824E25F40065C8
:108D50002D042D0C1580158845F4806515809D7EA9
:108D600000273770002D3DD07578002D37D023189F
:108D700001EB830301251B7E7570022B03D1138841
:108D800043F400631380231801EB83039B7D43F0BE
:108D900001031382204401EB8000037EBDE8F081D3
:108DA0009F7E75784FF0010E86F802E0002F5CD0B0
:108DB000002D78D1231801EB83035B7E002B00F09C
:108DC000A48013880CF1010C4FFA8CFC43F400735F
:108DD00086F800C013801388DF05FCD478E7DB7DBC
:108DE000FF2BC4D0231801EB83039D7D05F0FE0506
:108DF0001582DB7DFF2BCDD0FF233370CAE793882C
:108E000023F440731B041B0C93806EE79B7E514E32
:108E1000002B3FF441AF7378002B3FF43DAF138834
:108E200023F480631B041B0C1380BFF35F8F138B31
:108E30001388B57043F400731380938896F900C0CB
:108E400043F48063938043E79B7E002B3FF42EAF77
:108E50007378002B3FF42AAF138896F900C023F4EF
:108E600080631B041B0C138016E0002DA2D0A8E722
:108E70002D067FF52DAFBCF1FF3F6DD0DD6915F8F4
:108E80000C5015820CF1010C1D7E4FFA8CF39D42A3
:108E90009C4633707FF41CAF938823F480631B04DB
:108EA0001B0C938014E71F7ED3F820805FFA8CF5AB
:108EB000AE44022F4FFA8EFE17882DD927F4806713
:108EC0003F043F0C1780178AFFB208F80C70178810
:108ED000D3F820C047F400731380138ADBB20CF878
:108EE0000E30938805F1020C4FFA8CFC43F480633A
:108EF00086F800C093806EE7938896F900C023F44B
:108F000080631B041B0C9380E2E61388012543F465
:108F10008073138075705EE747F400771780178AB7
:108F2000FFB208F80C70178AD3F8208005F1030C03
:108F30004FFA8CFCFBB286F800C008F80E304AE706
:108F4000978827F480673F043F0C9780EFE600BFC7
:108F5000D072002078170020DD7D15829D7E37704D
:108F60001DB91B7E002B7FF415AF938823F480631B
:108F70001B041B0C93800DE73AF09ABF38B51D4BCC
:108F80001B78044600F1250593B104221A492030CC
:108F90004DF0A0FE2846142218494DF09BFE0123F7
:108FA00084F83A30164B1B7873B984F83B3038BDDF
:108FB0002846142213494DF08DFE012384F83A30DF
:108FC0000F4B1B78002BF0D00F4B186859689A682C
:108FD000DD68E56020606160A260DD69186959693B
:108FE0009A69A2610123E5612061616184F83B30E7
:108FF00038BD00BFAD7200207C720020647200207A
:10900000AE72002040EC050884720020014B186805
:1090100039F052BFB445002010B429212824012280
:109020000023047041708270C3705DF8044B704778
:109030002DE9F84FDDE90A64894617460021202210
:10904000984605464DF008FE5EB1D6E900327189BA
:10905000EB81C3F30F432B82C2F30F43EA822B83CE
:10906000698248464BF03EFB17F0100B10D1431EAF
:1090700070B119F803202E2A18BF09EB030104D19F
:109080004AE011F8016D2E2E3ED013F1FF33F8D2D5
:1090900008280246CA46A8BF08224FF0000B4FF02E
:1090A00020336B602B60C5F807304946284605F130
:1090B00008064CF0ABFA5A46514630464CF0A6FA38
:1090C0006B1EE81D13F8012FA2F1610119299CBF45
:1090D000203A1A708342F5D105F10B0116F8013BD5
:1090E000A3F16102192A9CBF203B06F8013CB14262
:1090F000F4D11823C8F30F42EF722B73A5F81A802E
:10910000AA82EC61BDE8F88FC01A00F1FF3BBBF109
:10911000030FA8BF4FF0030B082B03F1010AA8BFF0
:109120000823CA441A46BAE738B5302200214DF068
:1091300093FD0346642440F2DC5040F21A4140F2B1
:109140006C7240F202251C745882132419209982F3
:10915000DA8240F2753140F643021D839C760E257B
:109160000A241877D9831E2002211A84012283F849
:109170002E00197283F82C1083F8225083F82D40AA
:109180009A7383F8252083F82B2019460248BDE8FE
:10919000384025F03FBB00BF4CEC050810B500215E
:1091A000044601200AF072F9207010BD38B5002481
:1091B0000472451EE1B202200AF068F90134082C5D
:1091C00005F8010FF6D138BD38B5002405460480F6
:1091D0002146284601342BF0A5FE082CF8D10021A9
:1091E00085F8E210A5F8E410A5F8E610A5F8E81057
:1091F000A5F8EA10A5F8EC10A5F8EE10A5F8F01007
:10920000A5F8F2102846BDE838402BF04DBE00BF4F
:109210002DE9F04F002087B00C461D4601219246F3
:109220003AF0ACF8002D63D005EB0A03DFF8D094D8
:10923000DFF8D0B4039355461CE0002D00F0C58143
:10924000D9F81430AB4264D0D9F81030AB4200F0FA
:109250009780D9E90631AB4252D8A94200F26F811A
:10926000691A204647F04AFF039B01359D4204F5E9
:1092700000743DD0D9F82060AE42DED8D9F83080F5
:10928000AE1B4FEAD60AD8F830300AF1020A9A45E6
:1092900006F0070603D3D8F838309A4509D9414675
:1092A000504647F0FBFE8046002800F04D81C9F88B
:1092B000300098F80430002B40F0E280D8F8287095
:1092C000002F00F0DF81D8F83030D8F80C20AAEB5E
:1092D000030A06EBCA0A4346204602EB4A224FF431
:1092E0000071B847039B01359D4204F50074C1D15C
:1092F000002108463AF042F8002007B0BDE8F08FA0
:10930000A942ADD94FF40072002120464DF0A4FCD3
:10931000AAE7522261204123002622706270A070C9
:10932000722284F8E70184F8E631D9F82800E37066
:109330004FF0FF33314684F8E42184F8E521C4F886
:10934000E8014FF4F07284F8EC3184F8ED3184F8E0
:10935000EE3184F8EF31201D4DF07EFC55216FF089
:109360005502C4F8F061C4F8F461C4F8F86184F8F7
:10937000FC6184F8FD6184F8FE1184F8FF2173E735
:109380004FF40072002120464DF066FCD44BD54FBF
:1093900003CBEB23022223704FF0080C9026F82316
:1093A0004FF0580EC4F80300227484F80DC0C4F8BE
:1093B000071084F801E0A6706375D9F81010D9F889
:1093C0000830D9F81C602273591A21624FF0FF311E
:1093D00000233F20A1763E21A273E372E3736374FE
:1093E000A374E3742375A375E3756376E3766377FB
:1093F000A377E3772076217784F82C2007CFD9F85C
:10940000187084F82830F61B84F8293084F82A3044
:1094100084F82B3084F82D3084F82E3084F82F30E7
:1094200084F8313084F8323084F833308023666237
:10943000C4F8470004F1470684F8403029209423FB
:10944000A94F84F846C084F8420084F843300E20C7
:109450000D234FF0010C84F8440084F8453084F863
:1094600030C0716003CF33465527AA269A60C4F8EE
:109470005200C4F8561084F8FE7184F8FF61F3E6D8
:109480004FF40072002120464DF0E6FBD8F8403042
:10949000002E61D104F12007002B77D0D8F83030AE
:1094A00092491122CDE900662046FFF7C1FDD8F8A8
:1094B00040301A6C04F1400A002A79D01B6B8C49A9
:1094C000CDE9006638461122FFF7B2FDD8F84460B6
:1094D000002E3FF4C9AE4FF4E078CDE904450CE02E
:1094E0000024CDE900C4FFF7A3FDB66CBA46A8F18D
:1094F00020080EB3B8F11F0F1ED93468356B96F8EB
:1095000004E011222B46214650460AF1200706F1BD
:109510001C0CBEF1000FE3D172793369019342F064
:1095200021022B46CDF800C0FFF782FDB66CBA468B
:10953000A8F12008002EDDD1DDE9044594E6E91A02
:10954000204647F0DBFD8FE6231F04F5FE7243F84B
:1095500004BF9A42FBD187E6002BD8F844200CBF09
:1095600001230223C3EB0613002A3FF47DAE966C61
:10957000013B002E3FF478AE013BB66CF9D1002ED2
:109580003FF472AEA2464FF40078A6E7CDE900663C
:109590003346D9F80C1008222046FFF749FDD8F8C9
:1095A0004460002E3FF460AEBA464FF4F07894E782
:1095B000CDE900663346384611224D49FFF738FDA4
:1095C000D8F84460002E86D14EE64FF4007229464A
:1095D00020464DF041FB80220C2384F8BE2184F804
:1095E000C231D9F81000434BD9F8086084F8B8515B
:1095F00083FB0032C117C1EB2232B2F5806F84F8D1
:10960000B95184F8BA5184F8BB5184F8BC5184F83C
:10961000BD51C4F8C601C4F8CA6142DBFF2384F817
:10962000BF3184F8C13184F8C031324B711E83FBE5
:109630000132CE17C6EB2232B2F5806F29DA2E4BFB
:1096400084F8C52183FB01030B442C48C6EB63134C
:10965000C3EB831680FB0370891B1844DE1792103E
:1096600022F03F020131C6EBE0100A43034484F8C4
:10967000C42184F8C3315522AA2384F8FE2184F83A
:10968000FF31F1E539464FF4007220464DF0E4FA1F
:10969000EAE5FF2384F8C33184F8C53184F8C43186
:1096A000E9E7154B84F8C12183FB00730344134F92
:1096B000C1EB631387FB0317C3EB831C9110A0EB73
:1096C0000C02F818DF1721F03F010132C7EBE01060
:1096D0000A43034484F8C02184F8BF31A5E700BFE2
:1096E00060EC05086CEC05087CEC050858EC0508F6
:1096F0005CEC050897554541832008828180808075
:10970000B0C60020DEADBEEF08B5012012F074FC3B
:10971000174A936803F00C03042B1ED0082B18D1B2
:1097200051685368490203F03F0319D45268114845
:10973000B0FBF3F0C2F3881300FB03F00C4B0E4AAE
:109740005B68C3F3014301335B00B0FBF3F01060CF
:1097500008BD094B074A1A6008BD074B186008BDD1
:10976000B0FBF3F05368C3F3881300FB03F0E5E7A5
:10977000003802400024F400E0B5002010B5044C8D
:1097800004480A46214611F023F9204610BD00BFC7
:109790007C17002088EC050810B5044C04480A46E4
:1097A000214611F015F9204610BD00BF7C1700209E
:1097B00098EC050810B5044C04480A46214611F0FF
:1097C00007F9204610BD00BF7C170020A4EC050857
:1097D0000A4608B5054920B1054811F0F9F80348D3
:1097E00008BD044811F0F4F8004808BD7C170020BB
:1097F000D0EC0508B8EC0508F8B584894FF6FF767B
:109800004FF47A7433B319B30F78013101E0B442E5
:1098100018D00589013CAD07A4B2F8D5BCB284814B
:109820004FF47A7402E0BCB2B4420BD00589ED0764
:1098300004F1FF37F7D58589ADB20AB11570013251
:10984000013BDFE73AF002F9003018BF0120F8BD14
:10985000FF27DEE70120F8BD30B5437F83B0044623
:109860001BB90120637703B030BD0523ADF8043088
:10987000056800BFA86839F05BFD6A4601A90223AC
:109880006868FFF7B9FFA86839F058FD00BF9DF878
:10989000013003F0010383F00100637703B030BDB2
:1098A000F8B5074C05460F46266803E023689B1B66
:1098B000BB4204D82846FFF7CFFF0028F6D0F8BDFA
:1098C0000CC00020F0B5077F83B004464FF0030CB6
:1098D0000020009016461D468DF804008DF800C04B
:1098E0006FB30B0E8DF801300DF10203080C0A0A5C
:1098F00099701870062120465A70FFF7D1FFE0B129
:10990000236800BF986839F013FD237F2268002B7D
:1099100014BF05230423694650680022FFF76CFF3B
:1099200023683246002158682B46FFF765FF2368FD
:10993000986839F003FD00BF284603B0F0BD0DF173
:109940000103D3E7F0B5876983B0064617B13B68DA
:10995000BA885A837069DFF8A8E08389C3244FF47A
:109960007A734FF0060C6D464FF6FF710EF1010E43
:1099700003E0013B9BB28B4220D002899207F8D5CD
:10998000A3B283814FF47A7302E0A3B28B4215D065
:109990000289D20703F1FF34F7D5828992B20DB163
:1099A0002A700135BCF1000F0BD00CF1FF3CFF24F5
:1099B000BEF1000FE1D09EF80040D7E73AF046F83C
:1099C000B76917B13B68BA881A839DF805009DF8FE
:1099D00001509DF802109DF803409DF804209DF869
:1099E000063041EA052143EA002342EA042201202D
:1099F000A6F85010A6F85220A6F8543003B0F0BDD7
:109A0000846D05082DE9F04F87B0A94A029040689F
:109A1000038823F040031B041B0C0380038823F0FE
:109A200038031B0490424FEA134300F03F8102F5D4
:109A3000806290420CBF3022382213430380029B85
:109A400002889B6842F04002028013B11A689B882A
:109A50005383838940F2E93302E0002B00F09081C8
:109A60000289013B12F0020F9BB2F6D06B23838177
:109A700040F2E93302E0002B00F082810289013BD1
:109A800012F0010F9BB2F6D08389838940F2E9334B
:109A900002E0002B00F071810289013B12F0020FFD
:109AA0009BB2F6D08023838140F2E93302E0002BA1
:109AB00000F063810289013B12F0010F9BB2F6D0E6
:109AC0008389029B9B6813B11A689B8813830623C2
:109AD000784CDFF8EC81DFF8ECA1774D774E0493FA
:109AE0009623DFF8E4C101934FF0100EDAF804304A
:109AF000C3F30803002B40F0B280EFF31183002B77
:109B000040F0AD802068AA6823689842FAD1336893
:109B10009A42F7D8D8F800704FF47A7101FB07F336
:109B20009B1AB3FBF7F301FB00304FF47A774FF049
:109B30000109DAF80430C3F30803002B70D1EFF306
:109B40001183002B6CD12368A96822689342FAD153
:109B500032689142F7D8D8F8002007FB02FBABEB44
:109B60000101B1FBF2F107FB03131B1AB3F57A7F76
:109B7000DFD3019B013B0193B8D1029B9B6813B1DA
:109B80001A689B885383029B586840F2E9338289A4
:109B900002E0002B00F085800289013B12F0020FE9
:109BA0009BB2F6D0F523838140F2E93301E0002B2C
:109BB00077D00289013B12F0010F9BB2F7D0838965
:109BC000838940F2E93301E0002B67D00289013B31
:109BD00012F0020F9BB2F7D0FF23838140F2E933EA
:109BE00001E0002B5AD00289013B12F0010F9BB219
:109BF000F7D08389DBB20393029B9A6812B1136892
:109C000091881983039B682B60D0049B013B13F060
:109C1000FF0304937FF464AF184607B0BDE8F08FEC
:109C2000EFF311818EF31288D5F808B02B68DB03AF
:109C300044BFCCF80090D5F808B02368DCF80020C9
:109C4000C9B281F31188D8F80010134407FB01F260
:109C5000A2EB0B02B2FBF1F207FB032385E7EFF364
:109C600011838EF31288AF682A68D20303D50122CC
:109C7000CCF80020AF682068DCF80090DBB283F3FA
:109C80001188D8F800104FF47A72484402FB01F3AF
:109C9000DB1BB3FBF1F302FB003046E739F0D6FEE5
:109CA000AAE739F0D3FE029B586889E73022C4E660
:109CB000003800400CC0002010E000E014C000207C
:109CC00010C0002000ED00E008C0002012B11368B1
:109CD00092885A83029B586840F2E933828901E0F6
:109CE000002B45D00289013B12F0020F9BB2F7D046
:109CF0008C23838140F2E93301E0002B38D00289C4
:109D0000013B12F0010F9BB2F7D08389838940F2A7
:109D1000E9330289013B12F0020F9BB215D1002BEF
:109D2000F7D139F093FE029B9B6813B11A689B88A8
:109D30001383059B142B04D3182B17D9543B062BE4
:109D400014D9002007B0BDE8F08FFF23838140F2D3
:109D5000E93301E0002BE4D00289013B12F0010F4E
:109D60009BB2F7D08389DBB20593DCE7032054E78D
:109D700039F06CFE029B5868C8E739F067FEA0E630
:109D800039F064FE029B58687FE610B500F10C04C0
:109D900000222121204639F0A7FFFC222021204665
:109DA00039F0A2FF40222421204639F09DFF0C22E9
:109DB0002321204639F098FF00222221204639F045
:109DC00093FF64200DF092F9012010BD10B500F151
:109DD0000C0401220B21204639F086FF20B11D2200
:109DE0000921204639F080FF00F0010010BD10B5B8
:109DF00000F10C0470220021204639F075FF20226A
:109E00000121204639F070FF00220221204639F05E
:109E10006BFF64200DF06AF9012010BD13B5062315
:109E20000C466A4628210C3039F032FEF0B19DF81C
:109E300001309DF8002042EA032204219DF80330FE
:109E400012B292FBF1F222809DF8022042EA032234
:109E500012B29DF8043092FBF1F262809DF8052069
:109E600043EA02231BB293FBF1F3A38002B010BDBF
:109E70007FB5002500F10C060C460D804D808D80CD
:109E800001230DF107020621304639F001FE10B919
:109E9000002004B070BD9DF807305B07F8D506239D
:109EA00002AA2946304639F0F3FD0028F0D09DF88B
:109EB00009209DF8083043EA022323809DF80B20F7
:109EC0009DF80A3043EA022363809DF80D209DF837
:109ED0000C3043EA0223A380DBE713B506230C46CC
:109EE0006A4603210C3039F0D3FDA0B19DF8002063
:109EF0009DF8013043EA022323809DF802209DF85B
:109F0000033043EA0223A3809DF804209DF8053026
:109F100043EA0223638002B010BDF0B500F10C05E6
:109F200085B004460F4601230DF1070202212846A1
:109F300039F0AEFD18B90026304605B0F0BD9DF8E9
:109F40000730DB07F7D5062302AA0321284639F09C
:109F50009FFD01230DF107020921284639F098FDE4
:109F600006460028E7D011220A21284639F0BCFE17
:109F70009DF8073013F00C0FDDD1B4F91A1002A8C8
:109F8000FEF796FB40423880B4F91C100DF10A0030
:109F9000FEF78EFB40427880B4F91E1003A8FEF74E
:109FA00087FB4042B880C7E737B500F10C0405468F
:109FB00000220A21204639F097FE14200DF096F871
:109FC0000F220A21204639F08FFE0A200DF08EF86C
:109FD00001AA03231021204639F05AFD0A200DF072
:109FE00085F89DF8043080336B839DF8053080330D
:109FF000AB839DF806308033EB8300220A21204694
:10A0000039F072FE0A200DF071F80DF10302012300
:10A010000221204639F03CFD01230DF10302092104
:10A02000204639F035FD11220A21204639F05CFE28
:10A03000012003B030BD00BF70B582B004460623D6
:10A040000C306A463B2139F023FDA8B19DF804008D
:10A050009DF800609DF801109DF802509DF80320C6
:10A060009DF8053041EA062143EA002342EA052231
:10A070006183A283E383012002B070BD2DE9F84F14
:10A08000037C02681F2B86BF203B51681168202289
:10A0900002FA03F30B4214BF012300230BB9BDE8FE
:10A0A000F88F4569DFF87092044609F05FFF4FF4BE
:10A0B000867303FB059306465A7C002A30D18549F6
:10A0C0005A6809781768C1B9D3F8801058890A68A6
:10A0D00022F001020A60BB8923EA0003BB817E4BA8
:10A0E0001B78002B30D1237C21681F2B11D8202214
:10A0F00002FA03F38B60BDE8F88F5269136823F00E
:10A1000001031360BB8923F480731B041B0CBB8108
:10A11000E5E7203B202202FA03F3CB60BDE8F88F8D
:10A12000D3F880606D485F8901229A7431685A685B
:10A130000368156821F001013160AA89013322EA20
:10A140000702AA810360CEE74FF4867303FB0593F1
:10A15000634AD3F88080D8F8003023F00103C8F8B0
:10A1600000300023C8F800309045C8F80430C8F823
:10A170000830C8F80C30C8F810304FF02103C8F888
:10A18000143000F08780574B98457ED0564B984549
:10A1900000F08480554B984500F08580544B9845DD
:10A1A00000F08680534B984500F08680524B9845CE
:10A1B00000F08680514B984500F08680404611F0B3
:10A1C00023FE4FF4867A0AFB05FA09EB0A05012300
:10A1D0006B74D5F884B009F0C9FE3B88CBF82C012C
:10A1E00023F080031B044FF0FF321B0C3B80FA620C
:10A1F0003B880AF1340143F080033B8049443846F0
:10A2000011F052FFD5E915702B6CD5F850C0D5E987
:10A2100017123B4303430B4313436A6E6F6FD8F827
:10A22000000037491343AA6E1343AA6F3B43014012
:10A2300013430B430022EA64C8F80030D5E91B3011
:10A24000D8F81410D5F880206F6C21F00701034373
:10A250000B43A86C95F87C10C8F81430C8F804C0FB
:10A26000C8F80870C8F80C0051606B68116818686D
:10A270006D8941F00101116083892B43838109F0CD
:10A2800075FE204B801B18602DE74FF4746243F875
:10A29000202C96E71C4B3D229A6092E74FF47412F3
:10A2A00043F8382C8DE74FF0746243F8502C88E760
:10A2B000164A43F8642C84E7154A43F87C2C80E75F
:10A2C000144A43F8942C7CE74FF03D5243F8AC2CF1
:10A2D00077E700BFA4350010A035001030A10020A2
:10A2E0001060024028600240406002405860024016
:10A2F0007060024088600240A0600240B860024086
:10A300003F801CF0F01B0010006002403D00002068
:10A31000400F002000003D20DCCC002020B1007860
:10A32000B0FA80F0400970470120704708B520213D
:10A330004CF0A9FC0346184623B10278202A03F109
:10A340000103F8D008BD037903F01803082B0AD0E5
:10A3500002D82BB100207047102B14D0182BF9D144
:10A36000B0F80B007047104BB0F80B0093F90030B9
:10A37000591C06BF0D4B1B78DBB203EB831300EBBC
:10A38000430080B270470A4BB0F80B0093F90030DD
:10A390005A1C06BF054B5B78DBB203EB031300EBE3
:10A3A000430080B2704700BF310E002038CA002041
:10A3B000300E0020F0B5067906F0E003402B09D1FD
:10A3C00044794FF0FF350023012006F00706A34231
:10A3D0000BD1F0BD602B08BF45794FF001040CBFD5
:10A3E00004FA05F54FF0FF35EDE7042E0CD8DFE851
:10A3F00006F0030D18242E0030B1C85CD75C7840FD
:10A4000028420CBF012000200133E0E70028FBD0E8
:10A41000C856D756A0EB070CDCF1000040EB0C004F
:10A42000F2E70028F0D031F8130032F813707840CA
:10A4300028420CBF01200020E6E70028E4D031F9D3
:10A44000130032F91370C71B78427841DCE700280B
:10A45000DAD051F8230052F82370784028420CBF1C
:10A4600001200020D0E7024B0146186839F020BDDA
:10A47000A844002038B5064D441E14F8011F286872
:10A4800019B9BDE8384039F08BBC39F011FDF4E75B
:10A49000A84400200048EDE7922B060808B5FFF716
:10A4A000E9FFBDE80840F5E710B504460348FFF7AB
:10A4B000E1FF2046BDE81040F0E700BF88EB05084B
:10A4C00008B532B1C30600D519B11046FFF7ECFF4D
:10A4D0000022104608BD38B5074C084DAC4203D3E6
:10A4E000074B00221A7038BD6288D4E901014BF095
:10A4F0008DF81434F2E700BF900100086C070008E3
:10A50000E0AA002038B5074C074DAC4203D3074BF7
:10A5100001221A7038BD6288D4E901104BF076F838
:10A520001434F2E7900100086C070008E0AA00204C
:10A53000024A136823EA00001060704738DF0020E9
:10A54000DFED2E7AB4EEE70AF1EE10FA4ADDDFED28
:10A550002C6A9FED2C7A01E0B0EE670AB4EEC70AD0
:10A56000F1EE10FA70EE667AF6DC9FED277AF4EEE3
:10A57000C77AF1EE10FA3ED5DFED216A9FED237A1E
:10A5800001E0F0EE407AF4EEC77AF1EE10FA37EE21
:10A59000A60AF6D4DFED1E7AB4EEE70AF1EE10FA61
:10A5A00014DDDFED167A37EEC00A60EE006A9FED2B
:10A5B000196A9FED197ADFED197AA6EE867A20EEF8
:10A5C000266AE6EE877AA6EE270A7047DFED147A50
:10A5D000B4EEE70AF1EE10FA44BFDFED0B7A37EE86
:10A5E000C00AE2E79FED087AF0EE407AF4EEC77A0F
:10A5F000F1EE10FAC0D4B0EE670ACBE7DB0F4940AA
:10A60000DB0FC940E4CB1641DB0F49C0E4CB16C1D8
:10A61000DB0FC93F92E741B99730083C15A82ABE25
:10A62000DB0FC9BFF0EEC07AB0EEE07AB4EEE77AA5
:10A63000F1EE10FAB4BFB0EE676AB0EE476AB5EE5D
:10A64000406AF1EE10FA46D0B4EEE77AF1EE10FA75
:10A650008CBFF0EE675AF0EE475AC5EE866A9FED62
:10A660001F3A9FED1F6A9FED1F4A9FED1F5ADFEDB6
:10A670001F3ADFED1F4ADFED1F5AA6EEC36AE6EE72
:10A68000A34AA6EE864AB7EE006AA6EE845AA6EE64
:10A69000A46AE6EE855AC5EE866AB4EEE77AF1EE74
:10A6A00010FA48BFDFED147AF5EEC00A48BF77EE26
:10A6B000E66AF1EE10FA48BFDFED107AB5EEC00A97
:10A6C00048BF77EEE66AF1EE10FA48BFF1EE666A2F
:10A6D000B0EE660A7047DFED076ADEE739094E3DE6
:10A6E000E3B59E3E88FA163E45FE7F3F99FB243F28
:10A6F00069A2163EA7DFA834DB0FC93FDB0F494034
:10A70000DFED317A30EE277AFDEEC76A16EE903A29
:10A710002033402B02D99FED2D0A7047B4EEE70A93
:10A72000F1EE10FA4DDD9FED2A6ADFED2A6A01E0B5
:10A73000B0EE677AB4EEE67AF1EE10FA77EE467A8A
:10A74000F6DC9FED257AF4EEC77AF1EE10FA35D5F6
:10A75000DFED1F6A9FED217A01E0F0EE407AF4EE22
:10A76000C77AF1EE10FA37EEA60AF6D4DFED167AC4
:10A77000B4EEE70AF1EE10FA1BDCDFED197AB4EE65
:10A78000E70AF1EE10FA44BFDFED137A37EEC00AA4
:10A7900060EE006A9FED136A9FED137ADFED137A86
:10A7A000A6EE867A20EE266AE6EE877AA6EE270ADD
:10A7B0007047DFED0F7A37EEC00AE9E7B0EE670ABF
:10A7C000D4E7F0EE477ABCE7DB0FC93F000000009A
:10A7D000DB0FC940E4CB1641DB0F49C0E4CB16C107
:10A7E000DB0FC9BF92E741B99730083C15A82ABED4
:10A7F000DB0F494010B44C09012250F8243001F01D
:10A800001F0102FA01F123EA010340F824305DF848
:10A81000044B704710B44C09012250F8243001F069
:10A820001F0102FA01F10B4340F824305DF8044B9C
:10A83000704700BF4B0901F01F0150F8232001238E
:10A8400003FA01F1114214BF18460020704700BFFF
:10A850002DE9F043002489B006460D461F46A04668
:10A8600005E025290CD030460134A847039A531C33
:10A87000039311780029F4D1204609B0BDE8F08394
:10A88000931CCDE903385078302842D0A0F1300332
:10A89000DBB2092B4FF0000945D96C282AD0642877
:10A8A00073D019D9732858D063D9752840F08280A5
:10A8B00007F1040C386805AB00220A216746FDF752
:10A8C000CFFC05AB049A009329464B463046FDF772
:10A8D0009DFB039A0444CAE725283CD051D9582847
:10A8E0006BD06328C2D139783046A8470437013489
:10A8F000039ABCE7039B5A1C03921B78642B52D02B
:10A9000016D8252B27D064D9582B18D0632BEAD022
:10A91000ADE7D31C03939078A0F13003DBB2092B91
:10A920004FF00109B9D804AA03A946F039FCB4E7ED
:10A93000732B12D051D9752B2DD0782B97D1A3F131
:10A940005802B2FA82F23868520905AB1021043776
:10A95000FDF786FCB5E7252185E73B68049A00935F
:10A96000294600233046FDF751FB04370444039A7F
:10A970007DE76E287FF47AAF039A3B6804371C604A
:10A9800075E700283FF478AF70E7386805A9FDF750
:10A9900031FC043795E7386805AB00220A21FDF742
:10A9A0005FFC04378DE73B1D386805A91F46FDF79E
:10A9B00021FC86E778287FF459AFA0F15802B2FA5B
:10A9C00082F23868520905AB1021FDF749FC0437C3
:10A9D00077E7002B3FF450AF49E76E2BCDD046E729
:10A9E00010B5064C0B46024605492068FFF730FFBC
:10A9F0002068BDE8104039F0D3B900BFA84400205A
:10AA0000798F000838B504460D460848FFF732FD37
:10AA100029462046FFF7E4FF0548FFF72BFD054BCD
:10AA20001B7813B1044B01221A7038BD8DEB050859
:10AA3000D325060804460020054600200FB407B5BC
:10AA400004A951F8040B0191FFF7DCFFFFF722FD89
:10AA500003B05DF804EB04B0704713460A460146A4
:10AA60000048EBE798EB05080048E7E7B1EB05087D
:10AA70000FB407B504A951F8040B0191FFF7C2FF09
:10AA800003B05DF804EB04B070470FB407B504A938
:10AA900051F8040B0191FFF7A3FFFFF7FBFC03B094
:10AAA0005DF804EB04B070470FB407B504A951F882
:10AAB000040B0191FFF794FF03B05DF804EB04B0C1
:10AAC00070472DE9F843037903F0E001202928D0ED
:10AAD00002D849B1BDE8F883402945D06029F9D1B1
:10AAE0002448BDE8F843D0E703F00703022B02D067
:10AAF000042B08D06BB9B0F80720B0F805101E4839
:10AB0000BDE8F843C1E7D0F805201B48BDE8F8438D
:10AB1000BBE7B0F90720B0F905101748BDE8F843C6
:10AB2000B3E74579154E1648FFF7A4FC06EBC502BE
:10AB3000002492F804800123A04502D8BDE8F84320
:10AB4000A8E456F8357057F824204FEA84094AB132
:10AB500013B90C48FFF78EFC57F809100A48FFF7A5
:10AB6000A3FF00230134E7E741790848BDE8F84333
:10AB70008BE700BFF9EB0508BDEB0508E8B3050856
:10AB8000D4EB0508E5EB0508E01F0608E8EB05082F
:10AB90002DE9F0411746027902F0E003402B05460B
:10ABA0000E462BD10024584FDFF8808115E02B7919
:10ABB00003F00703022B15D0032B19D0012B14BF70
:10ABC000315D31573846FFF76FFF6B79013BA34288
:10ABD00002DD4046FFF74EFC01346B79A342E6DC10
:10ABE000BDE8F08136F814103846FFF75DFFECE75A
:10ABF00036F914103846FFF757FFE6E702F0070270
:10AC0000042A5DD8DFE802F0031D25272A003478E6
:10AC1000202B3AD06DD8002BE2D1B5F80560B5F8FD
:10AC2000078039482146FFF73FFFB44240DB4445E7
:10AC30003EDC002FD4D0424631463448BDE8F041D6
:10AC400032E796F90040202B1FD052D8002B3DD080
:10AC5000C6E73488DCE7B6F90040F4E7D6F80080B0
:10AC6000202B444611D044D8002BB9D14146264868
:10AC7000FFF71AFFD5F80510884519D8002FAFD077
:10AC80002348BDE8F0410FE700246A79214B03EB2C
:10AC9000C2010979A1420BDD53F8323053F8240088
:10ACA000BDE8F041FFF7E6BB1B48BDE8F041FBE61D
:10ACB000FFF7F0FB224629681848BDE8F041D7E6C7
:10ACC000202BE1D007D8002B8AD11C46B5F90560AE
:10ACD000B5F90780A5E7602BE6D0802B80D13178CD
:10ACE0000F4B1048002914BF31461946BDE8F0410A
:10ACF000DAE6602BF1D16A791441E307D4D50A482A
:10AD0000BDE8F041D0E600BFD1EB050812200608EF
:10AD100013EC0508E8B305089315060819EC0508B7
:10AD200043170608E01F06080EEC050811EC05089D
:10AD30000CB407B510F020000BD079B92320FFF731
:10AD400092FB05A904980191FFF74AFEFFF7A2FBC9
:10AD5000012003B05DF804EB02B070470020F8E773
:10AD60000CB4C30607B500D561B905A904980191D3
:10AD7000FFF736FEFFF78EFB012003B05DF804EB12
:10AD800002B070470020F8E70EB400B584B005AB00
:10AD9000019053F8042B0649039301A8FFF758FDCF
:10ADA000019B00221A7004B05DF804EB03B07047F9
:10ADB0000180000870B406688E4217D90139751EEB
:10ADC000002311F8014F0822634013F0800F4FEA6F
:10ADD000430318BF83F0D503013ADBB2F5D18D42AE
:10ADE000EFD1721C0260337070BC7047721C00237C
:10ADF0000260337070BC70470A44914215D010B4A1
:10AE00000139541E11F8012F0823504010F0800F13
:10AE10004FEA400018BF80F0D500013BC0B2F5D129
:10AE2000A142EFD15DF8044B7047704748400823BA
:10AE300010F0800F4FEA400018BF80F0D500013BB2
:10AE4000C0B2F5D1704700BF0A44914215D030B46A
:10AE50000139551E41F2210211F8014F082380EA01
:10AE6000042004044CBF82EA40004000013B80B251
:10AE7000F7D18D42F0D130BC7047704770B50222D7
:10AE80001349144C144E4FF6FF70FFF7DDFF228874
:10AE90004AB1A518B54218D2052A16D92146FFF79E
:10AEA000D3FF2C46F3E721460222FFF7CDFF022213
:10AEB000A118FFF7C9FF094BE41A094B1C8041F6A2
:10AEC0000F53C31A5842584170BD0020FCE700BF21
:10AED000004000080240000800800008FA3F000817
:10AEE000E2AA00200F4B2DE93048D3E9004554EA8F
:10AEF00005020AD1034640F2011200201880988012
:10AF000098715A801881BDE83088074B1A6814EB95
:10AF1000020B45F1000C5A466346FDF7B3F80120D9
:10AF2000BDE83088B05900200CC0002030B4038840
:10AF30008278C478154DA3F5FA6303F0030101EBA1
:10AF40004101013A02EB81029B0835F81250027967
:10AF5000611E40F2B55404FB03132B4403EB43037F
:10AF600002EBC3034279847909490089C3EB0313D7
:10AF700002EB83032144C3EB031301EB83034FF480
:10AF80007A720021C2FB030130BC7047006D0508D6
:10AF900080436D382DE9F04707468CB01E46924637
:10AFA000002A5CD1154614460A88B2F5FA6F36D3EA
:10AFB0008B78581E0B2832D891F803C00CF1FF3063
:10AFC0001E282CD891F804E0BEF1170F27D891F86D
:10AFD0000590B9F13B0F22D888793B281FD8B1F8EA
:10AFE0000880B8F57A7F1AD24FF001085EBB098954
:10AFF0000491002CB4BF2D212B21002CB8BF64423A
:10B00000CDE90290CDE905140795CDE900CE38468B
:10B010002A49FFF7B9FE40460CB0BDE8F08700238F
:10B020002749ADF828304FF0010C18468DF82A302A
:10B03000ADF82C3099469E461A46984609916346CB
:10B0400009A9002ED3D0CDE90290CDE900CE384633
:10B050001C49FFF799FE40460CB0BDE8F0871A4C3A
:10B0600084FB0234A318D417C4EB6314C4EB041597
:10B07000A2EB85052DB2002D0846B8BF6D42FFF743
:10B0800055FF4FF47A720023804689464AF020F833
:10B090003C230AFB030A4FF47A72002340464946D8
:10B0A0004AF016F84FF47A7192B20023C1FB0A23DA
:10B0B00009A8FCF7E7FF24B209A975E708ED050820
:10B0C00000000101E8EC0508898888880378202BB6
:10B0D000024600F10100F9D0092BF7D02D2B00F02A
:10B0E000A4802B2B03BF5378B7EE000A0246B7EEBD
:10B0F000000AA3F13001C8B209289FED577A10D891
:10B10000F2EE046A07EE901AF8EEE77A12F8013FC1
:10B11000E7EE267AA3F13001C8B20928B0EE677ACB
:10B12000F0D92E2B63D003F0DF03452B02D020EEA5
:10B13000070A704710B451782D294FD02B2979D0A8
:10B14000A1F13003092B02F101027AD80024002377
:10B1500003EB830301EB430312F8011FA1F130005D
:10B160000928A3F13003F3D9B3F59A7F1A4628BF13
:10B170004FF49A72072B6CD9DFED386A1346F7EE5D
:10B18000007A083B072B67EEA67AFAD802F007028E
:10B19000DAB1F2EE046A012A67EEA67A15D0022A25
:10B1A00067EEA67A11D0032A67EEA67A0DD0042A9C
:10B1B00067EEA67A09D0052A67EEA67A05D067EE73
:10B1C000A67A062A18BF67EEA67A002C3BD087EE37
:10B1D000277A5DF8044B20EE070A70479178A1F1B9
:10B1E0003003092B02F1020230D80124AFE7537873
:10B1F000A3F13001C8B2092802F1010293D8F2EE9E
:10B20000046AF0EE665A07EE901AF8EEE77A12F842
:10B21000013F87EEA66AA3F13001C8B2092866EEA5
:10B22000A56A37EE067AEED97DE75378BFEE000ABD
:10B2300002465EE79178A1F13003092B02F1020288
:10B2400084D9F7EE007A27EE277AC2E7F7EE007A84
:10B25000BDE7F7EE007A9BE70000000020BCBE4C83
:10B26000F8B5064615460846B6FBF2F434B905FBB8
:10B2700014640C4B1B5D00F8013BF8BDB4FBF2F706
:10B280005FB905FB1747074B05FB1464DA5D00F84F
:10B29000012B1B5D00F8013BF8BD3846FFF7E0FFCE
:10B2A000EFE700BF38ED0508B5EEC00ADFED677ABD
:10B2B000674AF1EE10FACCBF30EE270A30EE670A8B
:10B2C000DFED647A20EE270A2DE9F047FDEEC07A23
:10B2D00088B017EE904A84EAE4760023A6EBE47681
:10B2E000CDE902330493A2FB06325FEAD208054699
:10B2F00041D105AF58483946554BA3FB0623DB081F
:10B3000003EB8303A6EB4303002CC35C0B704FF0ED
:10B310000002ACBF20232D234A7038468DF8083038
:10B3200049F0E0F90128394639D0022842D00328F3
:10B3300005BF302302A802A88DF809304BF094FC19
:10B3400002A849F0CFF90338C4B2224602A9284620
:10B350004BF0C0FC00232B55284649F0C3F92E22A0
:10B36000431C02A92A542144E8184BF099FC2846B2
:10B3700008B0BDE8F087394BA3FB06235B0922D157
:10B3800005AF35483946324AA2FB0832D20802EBF3
:10B390008202A8EB4202835C01F8013BACE7302358
:10B3A00002A88DF809308DF80A308DF80B304BF07B
:10B3B0005BFCC5E7302302A88DF809308DF80A3010
:10B3C0004BF052FCBCE7264AA2FB06125FEA921938
:10B3D0000ED105AF204839461D4AA2FB03C2D20850
:10B3E00002EB8202A3EB4203C35C01F8013BCAE714
:10B3F0001C4AA2FB06125FEA523A0ED105AF16486C
:10B400003946134AA2FB09C2D20802EB8202A9EB19
:10B410004202825C01F8012BDEE71348B6FBF0F034
:10B4200058B905AF39460A20BAFBF0F200FB12A268
:10B430000948825C01F8012BE3E705AF39460A228F
:10B440000193FFF70DFF019B0146ECE76F12033AF2
:10B45000CDCCCCCC00007A4438ED05081F85EB51EB
:10B46000D34D62105917B7D1A086010002B370B452
:10B470008E1803E0121B14D1B14215D010F8012B25
:10B48000A2F14103192B11F8013BA3F1410598BF2B
:10B490002032192D03F12004ECD9D21A01D1002B4E
:10B4A000EAD1104670BC70470022104670BC70474D
:10B4B0001046704770B5044608460D4649F012F92B
:10B4C000064602E014F8013F43B1324629462046C1
:10B4D000FFF7CCFF0028F5D1204670BD1C46204662
:10B4E00070BD00BF4FF0FF32FFF7C0BFA0F1610396
:10B4F000192B98BF20387047A0F14103192B98BF32
:10B5000020307047202805D0093804288CBF00203F
:10B5100001207047012070472DE9F0411F46064683
:10B5200003461C782046FFF7EDFF1D460133002837
:10B53000F7D12B2C51D02D2C24D0102A804628D086
:10B540004FF0FF33B3FBF2F302FB03FC6FEA0C0C8A
:10B550005FFA8CFC013500200BE0303CE4B29442F1
:10B5600025DA98422E461DD81AD002FB004015F865
:10B57000014B392CF1D944F02004602C17D9573CE9
:10B58000E4B2ECE74FF00108102A6C7805F10105F0
:10B59000D6D1302C23D06FF070434FF00F0CD9E789
:10B5A0006445E2D907EA08084FF0FF30DFE701B150
:10B5B0000E60B8F1000F08D027B1B0F1004F28BFDE
:10B5C0004FF000404042BDE8F081002FFBD06FF00B
:10B5D0000043984228BF1846F5E78046D4E76C78C8
:10B5E0002046FFF789FF782805F1010605D035468A
:10B5F0006FF070434FF00F0CACE7AC786FF0704316
:10B6000002354FF00F0CA5E701230A22002183E742
:10B6100070B50D461446FEF789FE0646A0B1FFF749
:10B62000F3FF40F634039842A8BF1846B0F5617F97
:10B63000B8BF4FF461701923A0F5617090FBF3F06F
:10B6400028702378013323703046FEF76FFE0646DC
:10B65000A0B1FFF7D9FF40F634039842A8BF1846BF
:10B66000B0F5617FB8BF4FF461701923A0F5617028
:10B6700090FBF3F06870237801332370304670BD7F
:10B68000613819288CBF00200120704741381928E3
:10B690008CBF002001207047303809288CBF002063
:10B6A00001207047A0F13003092B07D920F02000BA
:10B6B000413819288CBF00200120704701207047B5
:10B6C00007EE901AF8EE677A9FED807A27EE800AEF
:10B6D00020EE070AFDEEC07A17EE903A2033402B99
:10B6E0007BD8DFED7B7AB4EEE70AF1EE10FA40F397
:10B6F000E180B0EE407A9FED776ADFED776A01E096
:10B70000B0EE677AB4EEE67AF1EE10FA77EE467AAA
:10B71000F6DC9FED727AF4EEC77AF1EE10FA40F1A2
:10B72000CC809FED6C6ADFED6E6A01E0F0EE477A47
:10B73000F4EEE67AF1EE10FA37EE867AF6D4DFED23
:10B74000697AB4EEE77AF1EE10FA40F3A280DFED09
:10B75000607A37EEC77A27EE076ADFED635ADFEDCE
:10B76000637ADFED636A9FED635AE6EE257A67EE52
:10B77000065AE6EE276AF7EE007AA5EEA67AF0EE14
:10B78000675AE7EE055AE7EE457A87EEA55ADFEDF0
:10B79000557A30EE277AFDEEC76A16EE903A2033DE
:10B7A000402B1FD99FED547AF6EE006AB7EE006A7F
:10B7B000F7EE004AC4EEA57A80ED045A67EEA66A59
:10B7C00027EE866A27EE877AC0ED006AC0ED026A2E
:10B7D00080ED016A80ED037A7047B7EE005AF0EE13
:10B7E000455AD4E7B4EEE70AF1EE10FA6BDD9FEDAF
:10B7F000396ADFED396A01E0B0EE677AB4EEE67AD5
:10B80000F1EE10FA77EE467AF6DC9FED347AF4EE3C
:10B81000C77AF1EE10FA53D59FED2E6ADFED306A4C
:10B8200001E0F0EE477AF4EEE67AF1EE10FA37EE48
:10B83000867AF6D4DFED2B7AB4EEE77AF1EE10FAE1
:10B8400033DCDFED2E7AB4EEE77AF1EE10FA44BF86
:10B85000DFED227A37EEC77A27EE076ADFED224A5C
:10B86000DFED226ADFED227AE6EE246A67EE064A11
:10B87000E6EE267AB7EE006AA4EEA77AF6EE006A44
:10B8800036EE476AF8EE007A27EE277A66EE266AE9
:10B890008EE7DFED1A7AB4EEE77AF1EE10FA44BFE4
:10B8A000DFED0E7A37EEC77A55E7DFED097A37EE2E
:10B8B000C77AD1E7F0EE407A2BE7B0EE677A3EE741
:10B8C000B0EE677AB6E7F0EE477A9EE727D4D23635
:10B8D000DB0F4940DB0FC940E4CB1641DB0F49C009
:10B8E000E4CB16C1DB0FC93F92E741B99730083C62
:10B8F00015A82ABEF304353F00000000DB0FC9BFC6
:10B9000007EE901AF8EE677A9FED837A27EE800AA9
:10B9100020EE070AFDEEC07A17EE903A2033402B56
:10B9200000F28180DFED7D7AB4EEE70AF1EE10FAE5
:10B9300040F3E680B0EE407A9FED796ADFED796AF8
:10B9400001E0B0EE677AB4EEE67AF1EE10FA77EE47
:10B95000467AF6DC9FED747AF4EEC77AF1EE10FACF
:10B9600040F1D1809FED6E6ADFED706A01E0F0EE8C
:10B97000477AF4EEE67AF1EE10FA37EE867AF6D4EC
:10B98000DFED6B7AB4EEE77AF1EE10FA40F3A780C0
:10B99000DFED627A37EEC77A27EE076ADFED655A88
:10B9A000DFED657ADFED656A9FED655AE6EE257A93
:10B9B00067EE065AE6EE276AF7EE007AA5EEA67A5B
:10B9C000F0EE675AE7EE055AE7EE457A87EEA55A9C
:10B9D000DFED577A30EE277AFDEEC76A16EE903A21
:10B9E0002033402B24D99FED577AF6EE006AB7EE4C
:10B9F000006AF7EE004AC4EEA57A00238361436132
:10BA00000362C36180ED045A67EEA66A27EE866A78
:10BA100027EE877AC0ED006AC0ED026A80ED016A08
:10BA200080ED037A7047B7EE005AF0EE455ACFE743
:10BA3000B4EEE70AF1EE10FA6BDD9FED396ADFED47
:10BA4000396A01E0B0EE677AB4EEE67AF1EE10FA08
:10BA500077EE467AF6DC9FED347AF4EEC77AF1EEB3
:10BA600010FA53D59FED2E6ADFED306A01E0F0EE5B
:10BA7000477AF4EEE67AF1EE10FA37EE867AF6D4EB
:10BA8000DFED2B7AB4EEE77AF1EE10FA33DCDFED7E
:10BA90002E7AB4EEE77AF1EE10FA44BFDFED227AA7
:10BAA00037EEC77A27EE076ADFED224ADFED226A1A
:10BAB000DFED227AE6EE246A67EE064AE6EE267AA3
:10BAC000B7EE006AA4EEA77AF6EE006A36EE476A91
:10BAD000F8EE007A27EE277A66EE266A89E7DFED30
:10BAE0001A7AB4EEE77AF1EE10FA44BFDFED0E7A7F
:10BAF00037EEC77A50E7DFED097A37EEC77AD1E73C
:10BB0000F0EE407A26E7B0EE677A39E7B0EE677A72
:10BB1000B6E7F0EE477A9EE727D4D236DB0F4940EE
:10BB2000DB0FC940E4CB1641DB0F49C0E4CB16C1A3
:10BB3000DB0FC93F92E741B99730083C15A82ABEF0
:10BB4000F304353F00000000DB0FC9BF30B40268CA
:10BB50001146531C036011F8024B0160D31C51784D
:10BB600003609378151D05601B0443EA0123D07818
:10BB7000234343EA006030BC704700BF0368591C90
:10BB80001A46016012F8021B0260587841EA002050
:10BB9000704700BF03685A1C02601878704700BFE6
:10BBA00070B5044608460E4648F09CFD31460546F1
:10BBB0000246206849F02AFD20682844206070BDB4
:10BBC00038B504460068154649F020FD22682A442D
:10BBD000226038BD036810B40A0E5C1C04601A7041
:10BBE00003680A0C5C1C04601A7003680A0A5C1C77
:10BBF00004601A7003685A1C026019705DF8044BE7
