:020000040800F2
:10000000000001208555050805560508217E0208D7
:10001000857E020805560508055605080000000003
:100020000000000000000000000000000556050868
:10003000055605080000000005560508D17E020897
:100040000556050805560508055605080556050810
:10005000055605080556050851B904087DBA040877
:1000600041BA040805BA0408C9B90408911C01087A
:10007000811C0108711C0108611C01084D1C01084C
:10008000391C0108251C01080556050805560508F8
:100090000556050805560508055605088DB90408D6
:1000A000E1DF000869E00008D1DF000891E0000806
:1000B00059E0000849E0000839E000080556050845
:1000C00005560508A11C0108C51C010805560508B0
:1000D0000556050879DB00086DDB000861DB0008C8
:1000E00015B904080556050805560508C1DF0008BE
:1000F000F1DF00080556050819E00008111C010889
:10010000055605080556050829E0000805560508A6
:1001100055DB000849DB0008055605087B5303083A
:10012000FD1B0108E91B0108D51B0108C11B0108C3
:10013000AD1B0108000000000000000000000000EE
:10014000000000000000000000000000BB5D03088C
:10015000991B0108851B0108711B01083DDB000884
:1001600005560508055605080556050805560508EF
:1001700005560508055605080000000000000000AF
:1001800005560508055605080556050805560508CF
:100190000556050805560508000000000556050827
:1001A00000000000000000000000000005560508E7
:1001B000055605080556050800000000000000006F
:1001C000000000000000000000000000000000002F
:1001D00000000000000000000000000005560508B7
:0801E000D450050001000000ED
:1001E80010020100BC1F0120B81F01200000000000
:1001F800B00700081F021000D81F0120C81F0120E7
:1002080000000000B584000807020200AC49012084
:10021800104A012000000000B207000803123D0048
:10022800D0490120144A012000000000B40700084A
:1002380002000C0080490120544A012000000000FF
:10024800000000000602100070490120604A0120E9
:10025800000000002589000808121400F845012054
:10026800704A01200000000041840008F7010600E0
:10027800F0450120844A012000000000F207000830
:100288001D020200EC4501208C4A012000000000FC
:10029800F80700080A020A00B0430120904A01202A
:1002A800000000008D3B0108030001008443012089
:1002B8009C4A01200000000000000000101002000D
:1002C8002C420120A04A012000000000FA07000883
:1002D80025102C01C4430120A44A0120000000007D
:1002E80000000000F6210C006C5B0120B85B0120C7
:1002F80000000000FC0700081C021000C453012085
:10030800085C012000000000F58200082810100099
:100318000C5B0120185C01200000000009C10108E5
:1003280014000300045B0120285C01200000000089
:100338000808000801200C00A85101202C5C0120AD
:10034800000000000C0800080A702800485001202E
:10035800385C012000000000B1C001080EB0860121
:10036800C04E0120605C01200000000075E7030812
:1003780001010400184E0120E85D01200000000082
:100388000000000000010400104E0120EC5D012077
:100398000000000018080008020103000C4E0120AC
:1003A800F05D012000000000F52901082202140177
:1003B80050550120F45D012000000000D58A000896
:1003C8000C20CC0090500120085F012000000000A4
:1003D800B529010801020500244E0120D45F01203F
:1003E80000000000DDB601080002050044540120A9
:1003F800DC5F012000000000000000001A023C0041
:100408000C60012038650120000000008988000880
:100418002700040008600120746501200000000026
:100428001C08000838100100F85F012078650120D9
:1004380000000000200800081B021000046D0120C5
:100448001C710120000000001D8300081E0006002A
:100458005C6A01202C7101200000000024080008BB
:100468001B100C00EC670120347101200000000013
:10047800D9E002082102F0006466012040710120E1
:100488000000000015CD020823121000287001207A
:1004980030720120000000002C080008051006003A
:1004A8002070012040720120000000003C08000874
:1004B800371028008C6C01204872012000000000D1
:1004C800420800080E0202001C7001207072012010
:1004D800000000006A08000816100600586601208F
:1004E80074720120000000006C0800082F10220020
:1004F800F87001207C7201200000000072080008DA
:10050800F551900088650120A072012000000000CC
:10051800051A03080B301A00007D0120E48701202A
:1005280000000000940800081F302400C87C012047
:100538000088012000000000B0080008050204003F
:10054800F08501202488012000000000D40800085C
:1005580003010A00787C012028880120000000009F
:10056800D808000819000500AC910120E891012085
:1005780000000000E20800081A000E007490012034
:10058800F091012000000000E8080008F8210600AA
:100598005C8F01200092012000000000F60800088E
:1005A80020320A00648F0120089201200000000018
:1005B80055E7030815007000248E012014920120CD
:1005C80000000000000000002A006000E890012000
:1005D80084920120000000002DE703082C00100081
:1005E800F4920120E492012000000000BDE4030819
:1005F8002B00240028930120049301200000000010
:100608008DE4030829207800108C01204C930120E8
:10061800000000000000000023100E00A4AB012021
:1006280028AD01200000000025C101080D003C0094
:1006380024AB012038AD012000000000F38A030834
:100648000400800068AA012074AD012000000000A9
:10065800000000001300040054AA0120F4AD01209A
:1006680000000000FC080008FD011E0034AA01205B
:10067800F8AD012000000000D5380208182030002D
:1006880000AA012018AE0120000000002D8A0008F1
:1006980006101A00E4A9012048AE0120000000005D
:1006A800D5E70308FB010100E0A9012064AE0120A1
:1006B80000000000A58A0008FC010900ACA8012080
:1006C80068AE012000000000B58A000816023F004D
:1006D8006CA8012074AE01200000000061830008AE
:1006E800340010009CA70120B4AE012000000000D7
:1006F800A5E703081102080074A70120C4AE012071
:100708000000000000090008121204006CA7012074
:10071800CCAE0120000000000809000812201000DB
:100728005CA70120D0AE0120000000000C090008E1
:10073800F9010400B4A30120E0AE0120000000008C
:10074800E988040813020400B0A30120E4AE0120E4
:10075800000000001C090008FA01020058A101204D
:10076800E8AE0120000000004D85000802020300E9
:100778006C980120ECAE0120000000000000000091
:100788000C02040058980120F0AE0120000000007F
:100798009D840008FE011400509E0120F4AE012043
:0807A80000000000318300088D
:1007B0000000023C000000000000000000000000FB
:1007C0000000000000000000000000000000000029
:1007D0000000000000000000000000000000000019
:1007E0000000000000000000000000000000000009
:1007F00001002401000000000000000500000000CE
:10080000010000000202000003000000E803640091
:10081000040A000114001E00FA000000200300007A
:1008200000000000000001000000000000000000C7
:100830000000000000000000000000002000010196
:10084000000020003200C800D007960014003200DB
:100850002800B00440060005500014000F000800F6
:1008600064000100010005000A000000C409000046
:10087000190000000000000000000000000000005F
:100880000000000000000000000000000000000068
:1008900000000000AE014A015E012C01640101006C
:1008A000000001000A019A01001E0A000000000079
:1008B000000000000001000000050000010203002C
:1008C0000000000000000000000000000000000028
:1008D0000080070000000000040101006C16000009
:1008E00000000000280100007E05EA05B405320082
:1008F000E803D00700000401F401140008004430AC
:100900000000000001010101FFFFFFFF00000001E6
:10091000000005434C5237000008000000000100B1
:10092000B9450308A53D0308496B03080000000012
:1009300000000000495D0308455C0308000000005A
:100940000000000000000000812F0308752F03083D
:10095000692F03085D2F0308F9FC000831850008A2
:100960002D85000829850008218B000825850008B1
:1009700021850008FC760508FF01FF000068214C76
:100980001F0000001C0000001F0000001E000000EF
:100990001F0000001E0000001F0000001F000000DC
:1009A0001E0000001F0000001E0000001F000000CD
:1009B000000000000401000000070000000000002B
:1009C0000000000000020000100000000000000015
:1009D0000000000007000000B0010000020000005D
:1009E000090000000000803F00000000000000003F
:1009F000000000000000803FFFFFFFFFBCFD050876
:100A0000C8FD0508D4FD0508E0FD0508ECFD050856
:100A1000F8FD050860120608DC3F0608E43E0608FB
:100A20000C280608E869060898F70508B0FD0508CF
:100A3000B4FD0508B8FD050804FE050808FE050814
:100A40000CFE05085C3D060810FE05081900C800EC
:100A5000F4012003E001010001B7010800000000DB
:100A600050880508FFFFFFFF000101010008010198
:100A70002D202D2D202D2D2D2D202D2D2D00000054
:100A80000000000000000000000000000000000066
:100A9000000000000000000098A105080000000010
:100AA0000000000024A2050801000000FA00000078
:100AB000010000000100000001010000A65101201A
:100AC0000000F40101000000A45101200000F40125
:100AD00001000000A25101200000F401010000000B
:100AE000A05101200000F401010000009E510120EE
:100AF0000000F401010000009C5101200000F401FD
:100B0000010000009A5101200000F40101000000E2
:100B100041BE010805BE0108408F05089051012023
:100B2000053201008E510120E803D00701000000CA
:100B30008C510120E803D007010000008A510120F8
:100B4000E803D00701000000885101201E00B80B07
:100B5000010000009651012005000F000100000077
:100B60009851012003000A00010000008651012075
:100B70001E00F401010000008451012014006400F3
:100B800001000000925101203200E8030100000042
:100B9000825101200000C800010000008E50012099
:100BA00000C801008D500120005001008C50012030
:100BB000005A01008A50012002000000CC8F050875
:100BC0000002060808020608D2AB01200100C40991
:100BD00000000000D0AB01200100C40900000000AB
:100BE000CEAB01200100C40900000000CCAB012005
:100BF0000100C40900000000C8AB01200100C409C5
:100C000000000000CAAB01200100C4090000000080
:100C1000C6AB01200100C40900000000C4AB0120E4
:100C20000100C40900000000374E012000C8010087
:100C3000364E012000C80100344E01200100C800DA
:100C400001000000324E01203200307532000000F9
:100C5000314E0120055A05002E4E012000FF0100F3
:100C6000304E012001000000A00201202C4E012086
:100C70000300000008AD05082D4E012000FF010013
:100C80002F4E012001000000A00201202B4E012068
:100C90000300000008AD0508A9BD01084DBD01080D
:100CA000D88F0508B8510120EE02CA0801000000E3
:100CB000B651012000C8010064000000B5510120B8
:100CC00000C8010064000000B451012002000000CF
:100CD000B89005081E4E012080C1803E050000002E
:100CE0001C4E012080C1803E05000000164E0120F0
:100CF00080C1803E05000000144E012080C1803E6E
:100D0000050000000F4E012000FF0100084E0120E9
:100D10006400F40101000000074E012004000000FF
:100D2000C4900508064E012002000000D890050876
:100D3000B14E01200D000000E4900508AE4E0120E8
:100D400000640100AC4E0120320010270A000000B0
:100D5000AB4E01200D000000E4900508AA4E0120D2
:100D60000D000000E4900508A94E012002000000DB
:100D70001C910508000000000000000028910508F3
:100D8000A88501209CFF2C01000000007457012061
:100D9000E0150C170000000069540120020000005B
:100DA00060910508C45101200100FF7F010000008F
:100DB000C3510120020000006C910508B34E0120D0
:100DC000030000007C910508B24E012003000000E2
:100DD0007C9105087C5001200000E8030100000020
:100DE0007A5001200000E803010000007850012043
:100DF0000000E80301000000765001200000E80335
:100E000001000000745001200000E8030100000010
:100E1000725001200000E803010000007150012021
:100E20000014010070500120030000008C9105089F
:100E3000885001200000F4010100000086500120CC
:100E40000000F40101000000845001200000F401C2
:100E500001000000825001200000F40101000000A8
:100E6000805001200000803E010000007E500120E3
:100E70000000803E010000006F5101201964010054
:100E80006E510120020000009C9105086C51012068
:100E9000E803D0070A0000006A5101200064010045
:100EA0000A0000005F510120006401005E51012032
:100EB0000064010066510120006401000A00000086
:100EC00065510120006401000A0000006451012006
:100ED000006401000A000000695101200064010063
:100EE0000A00000068510120006401000A000000AF
:100EF00067510120006401000A00000063510120D5
:100F000001FF01000A0000006251012001FF010001
:100F10000A0000006151012001FF01000A000000E9
:100F2000BC4E01200000F40101000000BA4E012077
:100F30000000F40101000000B84E01200000F4019F
:100F400001000000B64E01200000F4010100000085
:100F5000B44E01200000F401010000007B54012088
:100F600000C801007A540120006401007954012076
:100F700000640100785401200064010077540120CE
:100F80000064010076540120FF080100755401201F
:100F900001640100B9BC01087DBC0108A8910508E5
:100FA0007454012000640100725401201400E8030D
:100FB0000100000070540120E80330750A000000B1
:100FC0006E54012000C801006D54012000C80100CA
:100FD0006C54012000C801006B5401200064010022
:100FE0000A0000008A5401200000D0070100000020
:100FF0008454012000C801008354012000C801006E
:101000008254012000C80100885401200000D0074C
:10101000010000008154012000C80100805401201B
:1010200000C801007F54012000C80100865401203F
:101030000000D007010000007E54012000C801001C
:101040007D54012000C801007C54012000C801002B
:101050000000000071BA010818920508A74E01208F
:1010600039000000B4920508A64E012000C8010016
:10107000A44E0120E803D00701000000434C524178
:1010800043494E47463700002A4E01200003010025
:10109000294E012000030100BDB9010881B90108F2
:1010A0009C9305083DB90108F1B801080C940508A6
:1010B000F9B9010869DF01088C940508204E012068
:1010C00001030100A9BE01087DBE01089097050833
:1010D00075B8010829B801080098050887BA010801
:1010E00095F401089C98050839EE010800000000FD
:1010F000449905085DE3010809BF0108E099050866
:10110000D9BA010800000000609A0508B1BB0108C7
:101110005DBB0108C49A050841BC010805BC010873
:10112000609B0508F9350208F5BC0108E09B05083D
:10113000815101200106010021BB0108EDBA01081F
:10114000DC9C05085D350208CDDF01084C9D0508D3
:101150003D36020865E00108489E050880510120DF
:101160000103010041BA010811BA01081C9F0508DA
:10117000D5BE010800000000809F0508C1B8010825
:1011800039DF0108E49F05080000000000000000AE
:1011900070A0050825BD0108DDE00108F0A00508E4
:1011A000024E012088136F1701000000044E012039
:1011B00088136F170000000016AC0120000000002B
:1011C0000000000014AC012000000000000000003E
:1011D00012AC0120000000000000000010AC012053
:1011E00000000000000000000EAC01200000000024
:1011F000000000000CAC0120000000000000000016
:10120000040D01200000000000000000D84D012066
:101210000200000078A20508004E012088136F1715
:1012200001000000E885012088136F17000000000E
:10123000B9B701080000000084A205086A54012023
:1012400001000000D8A20508EA8501200100000085
:10125000E4A20508E085012002000000ECA20508D8
:101260000000000000000000F8A20508A1B7010876
:101270000000000094A3050800000000000000002A
:10128000E8A30508000000000000000058A40508BD
:10129000E4850120E0150C1700000000FF010000AC
:1012A000A00F0000B80B00000102FFFF01000000CA
:1012B0000100000000000100FFFFFFFFFFFF000032
:1012C0003073012000000000547301200000000072
:1012D00001FF000000C20100000008000A06000231
:1012E000000000400100000009026400030100C08A
:1012F000320904000001030000000921110100016E
:101300002226000705830308000A080B01020202D7
:10131000010009040100010202010005240010017E
:101320000524010002042402020524060102070527
:1013300082030800FF09040200020A0000000705FA
:101340000102400000070581024000004F460308EB
:10135000EF3D03084D6D030800000000E12F030876
:101360003F3003080D3003080000000000000000BB
:1013700000000000C92F0308D52F0308BD2F030864
:10138000B12F03081A030000000000000000000055
:10139000000000000000000000000000000000004D
:1013A000040309040A0600020000004001000000D6
:1013B00009072000010104C03209040000020806E8
:1013C00050050705810240000007050102400000AA
:1013D00009022000010104C03209040000020806CD
:1013E000500507058102400000070501024000008A
:1013F00009022000010104C03209040000020806AD
:1014000050050705810200020007050102000200E5
:101410000A0600020000004001000000090222004C
:10142000010100E03209040000010301020009216A
:10143000110100012226000705830308000A0000AD
:101440000A060002000000400100000009074300F6
:10145000020104C032090400000102020100052457
:1014600000100105240100010424020205240600E5
:1014700001070582030800FF09040100020A0000B9
:10148000000705010240000007058102400000003E
:1014900009024300020100C03209040000010202F7
:1014A00001000524001001052401000104240202AA
:1014B0000524060001070582030800100904010045
:1014C000020A000000070501020002000705810270
:1014D0000002000009024300020100C032090400BA
:1014E0000001020201000524001001052401000191
:1014F00004240202052406000107058203080010E7
:1015000009040100020A0000000705010240000072
:101510000705810240000000E8AE05080000000059
:1015200000000000000000000000000000000000BB
:1015300000000000000000000000000000000000AB
:1015400000FFFF0000000000AA5505010000010097
:10155000120100020000004083042A570002010229
:101560000301000012010002020000408304405702
:10157000000201020301000012010002EF0201401B
:10158000830456320002010203010000BCAE0508CC
:10159000000000000000000000000000000000004B
:1015A000000000000000000000000000000000003B
:1015B00000000000FF1FFF1F05010905A101A10098
:1015C0000501093009310932093309350934094067
:1015D00009381581257F750895088102C0C0000073
:1015E0000921110100012226002D202D2D202D2D55
:1015F0002D2D202D2D2D2D000000000000000000BD
:101600000000000000000000AA550B010000AA55D0
:1016100007010000AA550902000000AA5503009F17
:1016200001000000C0120000000000001C89012021
:1016300008000000000000000C89012008000000E4
:10164000693D0308512F0308313D0308453D030858
:10165000092F03081D3D0308073D0308C92D030892
:10166000AD2D0308692D0308000000005D2D03085F
:10167000492D0308352D030800000000000000007C
:101680000000000000000000292D030800000000F9
:101690001D2D03083D4F0308192D0308992C03083D
:1016A000812C0308D6010000B80B000001000000E7
:1016B0007D000000FFFFFFFF0000803F00000000F2
:1016C00000000000000000000000803F000000005B
:1016D000000000000000000000000000000000000A
:1016E00000000000000000000000000000000000FA
:1016F0000000803F0000000000000000000000002B
:1017000001000000FFFF0000FFFFFFFF406506082B
:1017100000000802050304004865060801000802ED
:101720000504040038FF05080200FE010110030053
:10173000480606080300140200030000506506086E
:1017400004001F02010008005865060805001F027A
:10175000010108001000010000600240106002401A
:101760000000000000000000000B0000000000006E
:1017700000000000000000000060024028600240FD
:101780000100000000000000060C00000000000046
:1017900000000000000000000060024040600240C5
:1017A0000200000000000000100D0000000000001A
:1017B000000000000000000000600240586002408D
:1017C0000300000000000000160E000000000000F2
:1017D0000000000000000000006002407060024055
:1017E0000400000000000000200F000000000000C6
:1017F000000000000000000000600240886002401D
:10180000050000000000000026100000000000009D
:10181000000000000000000000600240A0600240E4
:101820000600000000000000301100000000000071
:10183000000000000000000000600240B8600240AC
:101840000700000000000000362F0000000000002C
:10185000000000000000000000640240106402402C
:101860000000000000000000003800000000000040
:1018700000000000000000000064024028640240F4
:101880000100000000000000063900000000000018
:1018900000000000000000000064024040640240BC
:1018A0000200000000000000103A000000000000EC
:1018B0000000000000000000006402405864024084
:1018C0000300000000000000163B000000000000C4
:1018D000000000000000000000640240706402404C
:1018E0000400000000000000203C00000000000098
:1018F0000000000000000000006402408864024014
:101900000500000000000000264400000000000068
:10191000000000000000000000640240A0640240DB
:10192000060000000000000030450000000000003C
:10193000000000000000000000640240B8640240A3
:101940000700000000000000364600000000000014
:101950000000000000000000DC650608E425060821
:1019600000000000B98A0308A086010004000000FE
:101970000000000000000000000000000000000067
:101980000000000000000000000000000000000057
:101990000000000000000000DC650608446A06083C
:1019A0000000000099380208E8030000040000006D
:1019B0000000000000000000000000000000000027
:1019C0000000000000000000000000000000000017
:1019D0000000000000000000D8090608D83D0608F5
:1019E00000000000315A01087D00000006000000E0
:1019F00000000000000000000000000000000000E7
:101A000000000000000000000000000000000000D6
:101A100000000000000000002C6506080000000027
:101A200000000000ED4A0208E80300000300000087
:101A300000000000000000000000000000000000A6
:101A40000000000000000000000000000000000096
:101A500000000000000000004C6A060800000000C2
:101A600000000000955C040810270000030000003F
:101A70000000000000000000000000000000000066
:101A80000000000000000000000000000000000056
:101A900000000000000000004C6506080000000087
:101AA00011E10308655302085F760000050000009D
:101AB0000000000000000000000000000000000026
:101AC0000000000000000000000000000000000016
:101AD0000000000000000000886806080000000008
:101AE000000000001DB002081027000001000000E7
:101AF00000000000000000000000000000000000E6
:101B000000000000000000000000000000000000D5
:101B10000000000000000000586A060800000000F5
:101B2000000000009D380208E803000005000000E6
:101B300000000000000000000000000000000000A5
:101B40000000000000000000000000000000000095
:101B50000000000000000000646A060800000000A9
:101B600000000000213E0108204E0000030000009C
:101B70000000000000000000000000000000000065
:101B80000000000000000000000000000000000055
:101B90000000000000000000746A06080000000059
:101BA000000000000D3C0108204E00000300000072
:101BB0000000000000000000000000000000000025
:101BC0000000000000000000000000000000000015
:101BD0000000000000000000846A06080000000009
:101BE00000000000B53B0208400D030003000000A8
:101BF00000000000000000000000000000000000E5
:101C000000000000000000000000000000000000D4
:101C10000000000000000000E426060800000000AC
:101C2000000000001DAC03081027000001000000A8
:101C300000000000000000000000000000000000A4
:101C40000000000000000000000000000000000094
:101C5000000000000000000054140608000000000E
:101C60000000000031EC0208102700000300000013
:101C70000000000000000000000000000000000064
:101C80000000000000000000000000000000000054
:101C90000000000000000000946A06080000000038
:101CA00000000000D5300208A086010001000000FD
:101CB0000000000000000000000000000000000024
:101CC0000000000000000000000000000000000014
:101CD00000000000000000003405060800000000BD
:101CE00000000000A1370208A86100000100000008
:101CF00000000000000000000000000000000000E4
:101D000000000000000000000000000000000000D3
:101D100000000000000000009C6A060800000000AF
:101D200000000000C1F50108A086010001000000CC
:101D300000000000000000000000000000000000A3
:101D40000000000000000000000000000000000093
:101D5000000000000000000004270608000000004A
:101D6000000000002D800208A00F0000010000000C
:101D70000000000000000000000000000000000063
:101D80000000000000000000000000000000000053
:101D90000000000000000000A86A06080000000023
:101DA00000000000091B03081027000001000000CC
:101DB0000000000000000000000000000000000023
:101DC0000000000000000000000000000000000013
:101DD0000000000000000000601106080000000084
:101DE00000000000A91303081A41000001000000D0
:101DF00000000000000000000000000000000000E3
:101E000000000000000000000000000000000000D2
:101E10000000000000000000F404060800000000BC
:101E200000000000693903081027000001000000CD
:101E300000000000000000000000000000000000A2
:101E40000000000000000000000000000000000092
:101E50000000000000000000F82506080000000057
:101E60000000000069FD01081A41000001000000A7
:101E70000000000000000000000000000000000062
:101E80000000000000000000000000000000000052
:101E90000000000000000000B46A06080000000016
:101EA00000000000DD3F0308400D030000000000BB
:101EB0000000000000000000000000000000000022
:101EC0000000000000000000000000000000000012
:101ED0000000000000000000BC6A060800000000CE
:101EE000000000005D370208400D03000000000004
:101EF00000000000000000000000000000000000E2
:101F000000000000000000000000000000000000D1
:101F10000000000000000000C46A06080000000085
:101F200000000000F925030850C300000300000072
:101F300000000000000000000000000000000000A1
:101F40000000000000000000000000000000000091
:101F50000000000000000000D06A06080000000039
:101F600000000000598E030840420F0000000000EE
:101F70000000000000000000000000000000000061
:101F80000000000000000000000000000000000051
:101F90000000000000000000DC6A060800000000ED
:101FA00000000000558C030850C300000000000032
:101FB0000000000000000000000000000000000021
:101FC0000000000000000000000000000000000011
:101FD00000000000000000000000803FC01601204B
:101FE00000000000000000000000000000000000F1
:101FF00000000000000000000000000000000000E1
:1020000000000000000000000000000000000000D0
:1020100000000000000000000000000000000000C0
:1020200000000000000000000000000000000000B0
:1020300000000000000000000000000000000000A0
:1020400000000000010000000000803F0000803F11
:0C205000200000004835002000000000C7
:1080000003685A1C02601970704700BF2DE9F047E1
:10801000089C002B8846074621780CBF4FF02009AA
:108020004FF03009651C29B3002A27DD2B4601E0FB
:108030000246A8B113F8016B501E002EF8D1961E0F
:1080400070B1B2460AF1FF3A49463846C0470AF1D4
:108050000103002BF6DC26EAE6702178013039B105
:10806000041B3846C047281915F8011B0029F8D110
:10807000BDE8F087002A03DC0846F9E70020EFE7B7
:10808000561EDEE72DE9F84F14461D4606464FF40E
:108090007A720023204629464E4F4DF0A7F84E4BEA
:1080A0004E4A40F2B55C0344DFF83CA182FB030179
:1080B000D81787FB03784A4F1944984487FB037EFF
:1080C000C0EB6111C0EBE8279E4482FB01824FEABE
:1080D000E179C0EB2E4E8AFB078A0A44C1EB011BF3
:1080E000C9EB62193F4AA3EB8B0BC9EB091982FB61
:1080F0000E824FEAE77886F806B0A1EB8901DFF837
:10810000EC90C8EBAA08717189FB03134FEAEE717A
:1081100008EB4808C1EBE212A7EBC8080CFB12E21F
:10812000C0EBE35386F80480B2F5896F4FEA830011
:108130003CDA40F2DA239A4242DCB2F5B77FDFF84C
:10814000B080B4BF4FF0000E4FF0010E4FEA4E0961
:108150001FFA8EFC09EB0E0308EBC303DF8A09EB61
:108160000E010B2308EBC101163101E031F8027D4D
:10817000974218DD013BF9D1CE44012338F83E7017
:1081800000F5FA6E0132B3702046F444D71B29463D
:108190004FF47A720023A6F800C0F7704DF026F86D
:1081A0003281BDE8F88F0133DBB2E9E74FF0030C11
:1081B00040F29657DFF838804FF00609E646CEE7E2
:1081C0004FF0020C40F22947DFF824804FF00409F9
:1081D000E646C4E7C5B3A29180BC92C78988888867
:1081E00007452EC273B06D16ABAAAA2A792D0311CA
:1081F000087405080028F0B504DA2D234042013147
:1082000001F8013C092804464FF0010307DD03EBA8
:1082100083035B00B0FBF3F2092AF8D883B10E4860
:10822000A0FB0356B4FBF3F2092A02F1570C02F14A
:10823000300708DD03FB1244F30801F801CBEFD14E
:1082400000230B70F0BD03FB1244F30801F8017B1F
:10825000E6D100230B70F0BDCDCCCCCC884270B4FD
:108260004FF0010442D301FB04F4B0FBF4F58D425E
:10827000F9D2ECB142BB092D04FB150005F15706FC
:1082800005F130020EDD03F8016BB4FBF1F47CB1B3
:10829000B0FBF4F5092D04FB150005F1570605F1B7
:1082A0003002F0DC03F8012BB4FBF1F4002CEFD129
:1082B000002270BC1A707047B4FBF1F403F8016B34
:1082C000002CF5D0B0FBF4F5092D04FB150005F1E9
:1082D000370605F13002EFDC03F8012BB4FBF1F4B3
:1082E000002CEFD1002270BC1A7070470546002A9E
:1082F000EAD1C0E70022012302210270C272827318
:10830000C273417041728370C3710372837230B45F
:1083100014253424C570847130BC704700230621B5
:108320004FF47A7201700373C0E90123704700BFF4
:1083300032233122FF2143700123427100228174D4
:10834000037203700371837042818281C28130B4F1
:1083500033254FF60174C570048230BC704700BFEE
:108360003249334B2DE9F04F804683B023274FF03D
:10837000000A01F1C00B2F481022012603E0203033
:1083800098420AD002799742F9D102680C68A24259
:1083900008D0203001369842F4D1203159453AD0E6
:1083A0000F79E8E744794D79A542F2D10AEB4A0901
:1083B0009646214808F80970C144DFF880C000F5EE
:1083C000727589F801607246664603E0A84219D0CA
:1083D00050F82C6FB242F9D10679A642F6D1CF6897
:1083E00006464FF0000C96460190F268BA4215D04E
:1083F0000CF1010C0C36BCF1030FF6D1019872465A
:10840000A842E5D14FF0FF3C203189F802C00AF1C3
:10841000010A5945C4D103B0BDE8F08F086932693B
:108420008242E5D14FFA8CFCEEE700BF08B80508A0
:10843000A0EA0508E0E00508A0EA05080000014000
:10844000F0B5154B4FF0FF34FF21172703F10C0E49
:10845000A446162615250022C170017101724172D1
:10846000417381738174C17402EB8202734500EB26
:10847000020185544E708F7081F803C00C710AD0D0
:1084800093F9062006335D789E78DF7893F904C06F
:1084900093F90540E8E7F0BD6874050810B41F21A2
:1084A000012403220023047041708270C3705DF8C0
:1084B000044B7047FF22034600F1100170B41A709C
:1084C000023303F8012C8B42F9D10B4B4FF0FF31F3
:1084D000002203F10F060C4605E093F9044093F9DE
:1084E000051013F8032F00EB42059E4200F81240DE
:1084F0006970F2D170BC70477C74050830B41D6996
:1085000095420AD314460A4621448D42996938BFE0
:108510002A1B214430BC4DF0ADBB30BC704700BFBE
:1085200000207047012070470120704700207047ED
:10853000054B002010B49B684FF4007414800B604E
:108540005DF8044B704700BFB8A301202C22022322
:1085500002704370704700BF08307047704700BF1B
:108560008161704740F2E93300E09BB18268013BD2
:1085700012F0020F9BB2F8D0017340F2E93300E031
:1085800043B18268013B12F0010F9BB2F8D0C06882
:10859000C0B270470C4A904209D00C4B984211D09F
:1085A00003F58063984201D0FF2070470223084AF8
:1085B000D82101FB03239A89013292B29A819889CA
:1085C000C0B270470123F2E700300140003800409C
:1085D0000C4601204FF40063838370474FF400631F
:1085E00083837047012380F8543070474FF4006351
:1085F00083837047034610B4D0F8FC40D9684069C3
:1086000064B1D3F814218C1A013A005D08BF0A4600
:108610005DF8044BC0B2C3F8142170471A6A805C3D
:1086200001328A4228BF2246C0B25DF8044B1A626A
:10863000704700BFD0F8003113B190F89401704733
:10864000D0E90903181AB0FA80F04009704700BF5A
:10865000D0E909120369914238BFC918013B8A1A4F
:10866000D0F8001131B1D0F88011096849680A4486
:108670009A4201D2981A704700207047D0F8FC3017
:108680006BB1D0F88431D0F814211B685B689A4232
:1086900001D8981A7047C068801A18447047D0E90A
:1086A00007239A4203D2C0681044C01A7047D01AF8
:1086B000704700BFF0B4C76982B006461FB1BB88DF
:1086C0003A681B049361726903206D463E4C5368FF
:1086D00023F48053536040F2E93301E0013B54D06E
:1086E00091688907FAD5002C4CD034F8023B93816D
:1086F00040F2E93301E0013B47D09168C907FAD560
:10870000D3680DB125F8023B0138E4D1516840F23D
:10871000E93341F48051516001E0013B35D091686B
:108720008807FAD5002C47D02378137340F2E93339
:1087300001E0013B42D09168C907FAD5D368F769D7
:1087400005B12B7017B13B68BA889A619DF801405A
:1087500001209DF803309DF802109DF8042041EAA5
:1087600004219DF8054042EA03229DF80630A6F850
:10877000541043EA0423A6F85620A6F8583002B055
:10878000F0BC70474FF6FF73B1E710498A4207D03B
:108790000F4B9A420ED003F580639A42D2D1022346
:1087A0000C4AD82101FB03239A89013292B29A81A3
:1087B0009B89C7E70123F3E7FF23B6E70349F7697E
:1087C0008A42E5D1ECE700BF907405080030014013
:1087D000003800400C4601207FB5002500F10C0652
:1087E0000C4601230D800DF107024D8030468D802F
:1087F000062143F049FC10B9002004B070BD9DF87B
:1088000007305B07F8D5062302AA2946304643F015
:108810003BFC0028F0D09DF809209DF8083043EA81
:1088200002239DF80B2023809DF80A3043EA02239F
:108830009DF80D2063809DF80C3043EA0223A3804D
:10884000DBE713B506230C466A4603210C3043F0E0
:108850001BFCA0B19DF800209DF8013043EA0223E3
:108860009DF8022023809DF8033043EA02239DF8FF
:108870000420A3809DF8053043EA0223638002B000
:1088800010BD43F079BF00BF1D4B1B7870B5044687
:1088900000F1250593B104221A4920304EF06EFDF7
:1088A0002846142218494EF069FD012384F83A3015
:1088B000164B1B7873B984F83B3070BD28461422E0
:1088C00013494EF05BFD012384F83A300F4B1B78BF
:1088D000002BF0D00F4A0123166855689068D168C4
:1088E00026606560A060E160D1691669556990698C
:1088F00084F83B3026616561A061E16170BD00BF15
:1089000008890120D0880120B88801200989012028
:10891000ECF50508D8880120014B18681FF082BBD0
:10892000E46401200023012203608271037143711A
:10893000C37170472DE9F84F0A9E894617460021FA
:108940002022984605460B9C4EF022FC5EB17189B0
:10895000D6E900236982C2F30F40EA81C3F30F42D4
:10896000EB8228822A8348464BF04AFF17F0100A10
:108970000FD1431E68B119F803202E2A4DD009EB00
:10898000030103E011F8016D2E2E3ED013F1FF33E9
:10899000F8D208280246CB464FF0000AA8BF0822AA
:1089A0004FF0203305F10806494628466B602B60DE
:1089B000C5F807304DF05EF95246594630464DF045
:1089C00059F96A1EE81D12F8013FA3F16101203B2D
:1089D000192998BF13708242F5D105F10B0116F8E1
:1089E000013BA3F16102203B192A98BF06F8013C24
:1089F000B142F4D1C8F30F421823EF72A5F81A80E0
:108A0000AA82EC612B73BDE8F88FC01A00F1FF3A1F
:108A1000BAF1030FA8BF4FF0030A082B03F1010BB3
:108A2000A8BF0823CB441A46BAE700BF38B53022A6
:108A300000214EF0ADFB22250346642140F2DC54B8
:108A400040F21A4040F26C721D73197440F2022514
:108A500013215C829882192440F27530DA8240F644
:108A600043021D8399760E250A211C77D8831E2484
:108A700002201A84012283F82D101872194683F8F7
:108A80002C0083F8225083F82E409A7383F8252017
:108A900083F82B200248BDE8384036F001BD00BF06
:108AA000F8F5050810B50446002101201BF026FC4E
:108AB000207010BD38B50023451E1C460372E1B27C
:108AC000013402201BF01AFC082C05F8010FF6D126
:108AD00038BD00BF38B5002305461C46038021463B
:108AE0000134284615F0B6FF082CF8D1002328469B
:108AF00085F8E2301946A5F8E430A5F8E630A5F887
:108B0000E830A5F8EA30A5F8EC30A5F8EE30A5F885
:108B1000F030A5F8F230BDE8384015F05FBF00BF77
:108B20002DE9F04F1E4685B00C4600200121154668
:108B30001BF006F8002E61D07319DFF870B3D54E24
:108B400002931CE0002D00F0DD81DBF81430AB4215
:108B500065D0DBF81030AB4200F09B80DBE90631DA
:108B6000AB4253D88D42C0F07881691A204648F054
:108B700029FF0135029B04F500749D423ED0DBF8CD
:108B80002070AF42DED8EF1BDBF830804FEAD70A07
:108B9000D8F8303007F007070AF1020A9A4503D3E4
:108BA000D8F838309A4509D94146504648F0D8FEA1
:108BB0008046002800F05681CBF8300098F8043049
:108BC000002B40F0E980D8F82890B9F1000F00F0B0
:108BD000F781D8F830104346D8F80C202046AAEB8D
:108BE000010A4FF40071013504F5007407EBCA0A5D
:108BF00002EB4A22C847029B9D42C0D10021084691
:108C00001AF09EFF002005B0BDE8F08F8D42ACD277
:108C10004FF40072002120464EF0BAFAA9E7722301
:108C200000274FF0FF3C4FF0520E6122412084F8A4
:108C3000E431394684F8E531DBF82830A27084F855
:108C4000E7214FF4F072E07084F8E601201D84F80B
:108C500000E084F801E084F8ECC1C4F8E83184F85D
:108C6000EDC184F8EEC184F8EFC14EF091FA5521C0
:108C70006FF05502C4F8F071C4F8F471C4F8F871DB
:108C800084F8FC7184F8FD7184F8FE1184F8FF21EA
:108C90006FE74FF40072002120467F4F4EF078FAC4
:108CA0005821EB2002226170F82120704FF0080C4F
:108CB00061753F21902384F80DC021764FF0FF3E6F
:108CC000A370002322744FF080082273A273E37212
:108CD000E3736374A374E3742375A375E375637618
:108CE000E3766377A377E37784F81AE04FF0010E19
:108CF00003CF3E27C4F80300C4F80710DBF80810C0
:108D0000DBF810002777081ADBF81C10634F20628D
:108D1000DBF8180084F82C200E22091A84F8283079
:108D200084F8293029206162942184F82A3084F85B
:108D30002B3084F82D3084F82E3084F82F3084F8CE
:108D4000313084F8323084F833300D2384F846C053
:108D500004F1470C84F8420084F8431084F844205E
:108D600084F845304E4B84F830E04FF0AA0E84F87A
:108D700040804FF0550807CFC4F84700CCF80410E6
:108D8000CCF8082084F8FE8184F8FFE103CBC4F816
:108D90005200C4F85610ECE64FF400720021204651
:108DA0004EF0F6F9D8F84030002F63D104F12002DC
:108DB0000392002B00F08980D8F8303011220197FF
:108DC0002046009704F140093649FFF7B3FDD8F873
:108DD00040301A6C002A00F08A801B6B1122019728
:108DE0004FF4E07A039800972F49FFF7A3FDD8F8D6
:108DF000448018F1000318BF0123002B3FF4B9AEE3
:108E0000474603940CE00024AAF1200AC146CDE9AC
:108E100000C4FFF78FFDBF6CEFB1BAF11F0F1AD975
:108E200097F804E01122484609F12008396807F153
:108E30001C0C3B6BBEF1000FE5D17A79AAF1200A38
:108E40003C69C14642F02102CDE900C4FFF772FD42
:108E5000BF6C002FE1D1039C8BE6E91A204648F055
:108E6000B1FD86E6231F04F5FE7243F8046F9A42B3
:108E7000FBD17EE6002BD8F8448014BF02230123E7
:108E8000B8F1000FC3EB071714BF012300232AD04A
:108E900042460EE0DEADBEEF0CF6050818F60508FA
:108EA00028F6050804F6050808F60508B8A3012009
:108EB00033B1926C013F131C18BF0123002FF7DC64
:108EC0009046A1464FF4007A97E7DBF80C103B463A
:108ED0000197082200972046DDF80C904FF4F07AB5
:108EE000FFF728FD83E7A1464FF4007A85E7019755
:108EF0003B460097112203984FF4E07A4749FFF769
:108F000019FD74E74FF40072294620464EF040F9EF
:108F100080220C2384F8B85184F8BE2184F8C23131
:108F20003F4BDBF81020DBF8080083FB02314FEAEF
:108F3000E27C84F8B951CCEB213184F8BA5184F841
:108F4000BB51B1F5806F84F8BC5184F8BD51C4F8B1
:108F5000C621C4F8CA0142DBFF2384F8BF3184F87C
:108F6000C13184F8C031421E2D4BD71783FB02312B
:108F7000C7EB2131B1F5806F29DA2A4B84F8C5118E
:108F8000891083FB0203284821F03F011344C7EBFB
:108F90006313C3EB831780FB03C0D21B1844DF1796
:108FA0000132C7EBE0100A43034484F8C42184F87B
:108FB000C3315522AA2384F8FE2184F8FF31D8E575
:108FC00049464FF4007220464EF0E2F8D1E5FF2307
:108FD00084F8C33184F8C53184F8C431E9E7114B12
:108FE00084F8C111891083FB02730F4F21F03F01F8
:108FF0001344CCEB6313C3EB831C87FB03E7A2EBA7
:109000000C021F444FEAE37C0132CCEBE7170A4322
:109010003B4484F8C02184F8BF31A4E708F6050872
:1090200097554541832008828180808010B500F1EA
:109030000C0401220B21204643F044FA20B11D22EA
:109040000921204643F03EFA00F0010010BD10B5A2
:1090500000F10C0470220021204643F033FA202254
:109060000121204643F02EFA00220221204643F03F
:1090700029FA64201EF030FE012010BD2DE9F04FCA
:109080008DB090F865300390002B40F02A86039B4A
:1090900093F85C30072B00F01A861823CDE90433CF
:1090A000039B80226B21BF4C1033DFF804934FF0F9
:1090B0001008BD4E1846029343F004FA6423DFF80B
:1090C000F4C2BA48DFF8F0E20193DCF80430C3F3ED
:1090D0000803002B40F0BE84EFF31183002B40F017
:1090E000B9842568826823689D42FAD133689A4220
:1090F000F7D8D9F800704FF47A7101FB07F39B1A87
:10910000B3FBF7F301FB05354FF47A774FF0010A13
:10911000DCF80430C3F30803002B40F07B84EFF34A
:109120001183002B40F07684236881682268934283
:10913000FAD132689142F7D8D9F8002007FB02FB38
:10914000ABEB0101B1FBF2F107FB03135B1BB3F5C2
:109150007A7FDDD3019B013B0193B6D107226821C1
:1091600002984FF0100843F0ADF98F4E6423DFF8FA
:1091700044C28E48DFF840E20193DCF80430C3F3C8
:109180000803002B40F0A684EFF31183002B40F07E
:10919000A1842568826823689D42FAD133689A4287
:1091A000F7D8D9F800704FF47A7101FB07F39B1AD6
:1091B000B3FBF7F301FB05354FF47A774FF0010A63
:1091C000DCF80430C3F30803002B40F00384EFF312
:1091D0001183002B40F0FE8323688168226893424C
:1091E000FAD132689142F7D8D9F8002007FB02FB88
:1091F000ABEB0101B1FBF2F107FB03135B1BB3F512
:109200007A7FDDD3019B013B0193B6D11A466B21D6
:1092100002984FF0100843F055F9634E6423DFF8CD
:1092200094C16248DFF890E10193DCF80430C3F3A5
:109230000803002B40F02E84EFF31183002B40F045
:1092400029842568826823689D42FAD133689A424E
:10925000F7D8D9F800704FF47A7101FB07F39B1A25
:10926000B3FBF7F301FB05354FF47A774FF0010AB2
:10927000DCF80430C3F30803002B40F08C83EFF3D9
:109280001183002B40F08783236881682268934212
:10929000FAD132689142F7D8D9F8002007FB02FBD7
:1092A000ABEB0101B1FBF2F107FB03135B1BB3F561
:1092B0007A7FDDD3019B013B0193B6D101226B2163
:1092C00002984FF0100843F0FDF8374E0F23DFF8F7
:1092D000E4C03648DFF8E0E00193DCF80430C3F383
:1092E0000803002B40F0D184EFF31183002B40F0F2
:1092F000CC842568826823689D42FAD133689A42FB
:10930000F7D8D9F800704FF47A7101FB07F39B1A74
:10931000B3FBF7F301FB05354FF47A774FF0010A01
:10932000DCF80430C3F30803002B40F01583EFF39F
:109330001183002B40F010832368816822689342D8
:10934000FAD132689142F7D8D9F8002007FB02FB26
:10935000ABEB0101B1FBF2F107FB03135B1BB3F5B0
:109360007A7FDDD3019B013B0193B6D1049A1B2187
:1093700002984FF0100843F0A5F80B4E0F23DFF8CA
:1093800034C00A48DFF830E00193DCF80430C3F35E
:109390000803002B40F05984EFF31183002B40F0B9
:1093A00054840BE0FC9D0120049E012010E000E0AD
:1093B000009E012000ED00E0F89D012025688268F4
:1093C00023689D42FAD133689A42F7D8D9F80070E1
:1093D0004FF47A7101FB07F39B1AB3FBF7F301FB20
:1093E00005354FF47A774FF0010ADCF80430C3F307
:1093F0000803002B40F09182EFF31183002B40F023
:109400008C822368816822689342FAD13268914243
:10941000F7D8D9F8002007FB02FBABEB0101B1FB49
:10942000F2F107FB03135B1BB3F57A7FDDD3019BDE
:10943000013B0193A9D1059A1C2102984FF0100815
:1094400043F040F8C54E0F23DFF818C3C448DFF8D7
:1094500018E30193DCF80430C3F30803002B40F059
:10946000D583EFF31183002B40F0D0832568826809
:1094700023689D42FAD133689A42F7D8D9F8007030
:109480004FF47A7101FB07F39B1AB3FBF7F301FB6F
:1094900005354FF47A774FF0010ADCF80430C3F356
:1094A0000803002B40F01A82EFF31183002B40F0E9
:1094B00015822368816822689342FAD1326891420A
:1094C000F7D8D9F8002007FB02FBABEB0101B1FB99
:1094D000F2F107FB03135B1BB3F57A7FDDD3019B2E
:1094E000013B0193B6D1039A92F85F30032B00F24F
:1094F000EC8392F86220012A0BD0022A40F0E58327
:10950000039B93F8673003F0FB03022B0CBF002290
:1095100007221A21029842F0D5FF4FF010080F23BE
:10952000DFF840C28E48DFF840E28C4E0193DCF851
:109530000430C3F30803002B40F02A83EFF31183B8
:10954000002B40F025832568826823689D42FAD16C
:1095500033689A42F7D8D9F800704FF47A7101FB5A
:1095600007F39B1AB3FBF7F301FB05354FF47A774A
:109570004FF0010ADCF80430C3F30803002B40F07D
:109580008E81EFF31183002B40F08981236881687D
:1095900022689342FAD132689142F7D8D9F8002074
:1095A00007FB02FBABEB0101B1FBF2F107FB03137D
:1095B0005B1BB3F57A7FDDD3019B013B0193B6D1F1
:1095C000039B192102984FF0100893F8642042F091
:1095D00079FF624E6423DFF88CC16148DFF888E1CF
:1095E0000193DCF80430C3F30803002B40F0EF8252
:1095F000EFF31183002B40F0EA822568826823682C
:109600009D42FAD133689A42F7D8D9F800704FF4E6
:109610007A7101FB07F39B1AB3FBF7F301FB0535E6
:109620004FF47A774FF0010ADCF80430C3F30803F3
:10963000002B40F01581EFF31183002B40F01081D7
:109640002368816822689342FAD132689142F7D840
:10965000D9F8002007FB02FBABEB0101B1FBF2F1F3
:1096600007FB03135B1BB3F57A7FDDD3019B013B43
:109670000193B6D11022372102984FF0100842F022
:1096800021FF364E0F23DFF8DCC03548DFF8D8E085
:109690000193DCF80430C3F30803002B40F0598237
:1096A000EFF31183002B40F0548225688268236811
:1096B0009D42FAD133689A42F7D8D9F800704FF436
:1096C0007A7101FB07F39B1AB3FBF7F301FB053536
:1096D0004FF47A774FF0010ADCF80430C3F3080343
:1096E000002B40F09E80EFF31183002B40F0998017
:1096F0002368816822689342FAD132689142F7D890
:10970000D9F8002007FB02FBABEB0101B1FBF2F142
:1097100007FB03135B1BB3F57A7FDDD3019B013B92
:109720000193B6D10298012238214FF0100842F07F
:10973000C9FE0A4E0F23DFF82CC00948DFF828E0E5
:109740000193DCF80430C3F30803002B40F0E281FE
:10975000EFF31183002B40F0DD8107E0049E012030
:1097600010E000E000ED00E0F89D0120256882682F
:1097700023689D42FAD133689A42F7D8D9F800702D
:109780004FF47A7101FB07F39B1AB3FBF7F301FB6C
:1097900005354FF47A774FF0010ADCF80430C3F353
:1097A0000803FBB9EFF31183E3B9236881682268EA
:1097B0009342FAD132689142F7D8D9F8002007FBDA
:1097C00002FBABEB0101B1FBF2F107FB03135B1BE7
:1097D000B3F57A7FE1D3019B013B0193B1D10DB089
:1097E000BDE8F08FEFF3118188F31288D0F808B04C
:1097F0000368DB0303D5CEF800A0D0F808B02368D7
:10980000C9B2DEF8002081F31188D9F800101344A2
:1098100007FB01F2A2EB0B02B2FBF1F207FB032301
:10982000D5E7EFF3118188F31288D0F808B0036808
:10983000DB0303D5CEF800A0D0F808B02368C9B286
:10984000DEF8002081F31188D9F80010134407FBDB
:1098500001F2A2EB0B02B2FBF1F207FB032359E783
:10986000EFF3118188F31288D0F808B00368DB03A6
:1098700003D5CEF800A0D0F808B02368C9B2DEF84E
:10988000002081F31188D9F80010134407FB01F27E
:10989000A2EB0B02B2FBF1F207FB0323E2E6EFF3CC
:1098A000118188F31288D0F808B00368DB0303D570
:1098B000CEF800A0D0F808B02368C9B2DEF80020C6
:1098C00081F31188D9F80010134407FB01F2A2EBD1
:1098D0000B02B2FBF1F207FB032369E6EFF3118100
:1098E00088F31288D0F808B00368DB0303D5CEF8FC
:1098F00000A0D0F808B02368C9B2DEF8002081F3D8
:109900001188D9F80010134407FB01F2A2EB0B02F7
:10991000B2FBF1F207FB0323DDE5EFF3118188F3DE
:109920001288D0F808B00368DB0303D5CEF800A096
:10993000D0F808B02368C9B2DEF8002081F311889E
:10994000D9F80010134407FB01F2A2EB0B02B2FBA3
:10995000F1F207FB032366E5EFF3118188F3128828
:10996000D0F808B00368DB0303D5CEF800A0D0F828
:1099700008B02368C9B2DEF8002081F31188D9F855
:109980000010134407FB01F2A2EB0B02B2FBF1F251
:1099900007FB0323E2E4EFF3118188F31288D0F888
:1099A00008B00368DB0303D5CEF800A0D0F808B0F8
:1099B0002368C9B2DEF8002081F31188D9F80010BD
:1099C000134407FB01F2A2EB0B02B2FBF1F207FB1F
:1099D00003236BE4EFF3118188F31288D0F808B009
:1099E0000368DB0303D5CEF800A0D0F808B02368E5
:1099F000C9B2DEF8002081F31188D9F800101344B1
:109A000007FB01F2A2EB0B02B2FBF1F207FB03230F
:109A1000FFF7F4BBEFF3118188F31288D0F808B098
:109A20000368DB0303D5CEF800A0D0F808B02368A4
:109A3000C9B2DEF8002081F31188D9F80010134470
:109A400007FB01F2A2EB0B02B2FBF1F207FB0323CF
:109A5000FFF77CBBEFF3118388F3128881680268FB
:109A6000D20303D50122CEF8002081682568DBB23D
:109A7000DEF800A083F311884FF47A72D9F80070F1
:109A8000554402FB07F35B1AB3FBF7F302FB053502
:109A9000FFF73ABBEFF3118388F3128881680268FD
:109AA000D20303D50122CEF8002081682568DBB2FD
:109AB000DEF800A083F311884FF47A72D9F80070B1
:109AC000554402FB07F35B1AB3FBF7F302FB0535C2
:109AD000FFF7CABBEFF3118388F31288816802682D
:109AE000D20303D50122CEF8002081682568DBB2BD
:109AF000DEF800A083F311884FF47A72D9F8007071
:109B0000554402FB07F35B1AB3FBF7F302FB053581
:109B1000FFF752BBEFF3118388F312888168026864
:109B2000D20303D50122CEF8002081682568DBB27C
:109B3000DEF800A083F311884FF47A72D9F8007030
:109B4000554402FB07F35B1AB3FBF7F302FB053541
:109B50001FE6EFF3118388F3128881680268D2034D
:109B600003D50122CEF8002081682568DBB2DEF83B
:109B700000A083F311884FF47A72D9F8007055442D
:109B800002FB07F35B1AB3FBF7F302FB05359FE516
:109B9000EFF3118388F3128881680268D20303D53A
:109BA0000122CEF8002081682568DBB2DEF800A033
:109BB00083F311884FF47A72D9F80070554402FB90
:109BC00007F35B1AB3FBF7F302FB0535CEE4EFF3C3
:109BD000118388F3128881680268D20303D50122B9
:109BE000CEF8002081682568DBB2DEF800A083F3A0
:109BF00011884FF47A72D9F80070554402FB07F3CC
:109C00005B1AB3FBF7F302FB053509E5EFF31183AC
:109C100088F3128881680268D20303D50122CEF846
:109C2000002081682568DBB2DEF800A083F311888C
:109C30004FF47A72D9F80070554402FB07F35B1AAF
:109C4000B3FBF7F302FB053523E4EFF3118388F34D
:109C5000128881680268D20303D50122CEF8002061
:109C600081682568DBB2DEF800A083F311884FF429
:109C70007A72D9F80070554402FB07F35B1AB3FB04
:109C8000F7F302FB0535FFF7ACBBEFF3118388F365
:109C9000128881680268D20303D50122CEF8002021
:109CA00081682568DBB2DEF800A083F311884FF4E9
:109CB0007A72D9F80070554402FB07F35B1AB3FBC4
:109CC000F7F302FB0535FFF727BB019A21E4039B5D
:109CD00093F86130002B59D11023CDE90433FFF7FD
:109CE000DFB91C0903F00F03013C032C00F2828052
:109CF000454A32F8140040FA03F2D1077AD501221E
:109D000002FA03F3013B18404BF0C0FA3F4B4049C5
:109D10001B5D184411EBC0056CD0AF8820263D4A6E
:109D20000024B7FA87F3AE71039EC3F11F03EC71F1
:109D3000F2605A1C3FF4ABA93246DFF8F8C0364E49
:109D40000C3251F8300006EB030E07A94CF8232023
:109D5000324B079708939EF890700994CDE90A4416
:109D60002AF076FE2E4BDA5DF02A15D8AB88012258
:109D7000B3FA83F3C3F11F0312FA03F33FF487A985
:109D800028490A6813430B60FFF781B91823102193
:109D9000CDE90431FFF784B9F021234A3E44D95577
:109DA000D36896F8A020C3F3022351B2C3F1070091
:109DB0001E1D042828BF0420062E88BFDC1E4FF07D
:109DC000FF33002903FA00F36FEA030303F00303F0
:109DD00003FA04F34FEA0313DBB210DB02F01F06B1
:109DE000124801224C090144B24081F8003340F886
:109DF0002420BBE7074B039AD360FFF748B902F072
:109E00000F020B498B54B1E7D4E00508DCE00508EC
:109E1000389C0120E5850008087405080000111031
:109E2000E4450120003C014000ED00E000E100E0DD
:109E300014ED00E0A4450120436996491A688B425D
:109E400022F040022DE9F04F83B01A60019000F03B
:109E5000D780914A934200F0D38038211A6822F0CB
:109E600038020A431A601A6842F040021A601BF076
:109E70002FFA04461BF02CFA8442FBD0019C2046AA
:109E8000FFF7FCF8E2691AB1938812681B0493612A
:109E9000019B5A6940F2E93302E0002B00F0CA80CE
:109EA0009168013B11F0020F9BB2F6D06A2140F29B
:109EB000E933117302E0002B00F0D2809168013B7E
:109EC00011F0010F9BB2F6D0D368019B5A6940F2A2
:109ED000E93302E0002B00F095809168013B11F01E
:109EE000020F9BB2F6D0102140F2E933117302E069
:109EF000002B00F087809168013B11F0010F9BB2AD
:109F0000F6D0D368019BDB6913B11A689B88936113
:109F10006423624CDFF89891DFF89881604DDFF898
:109F200098A1604E00931BF0D3F94FF47A774FF06D
:109F3000100C4FF0010ED8F80430C3F30803002BC7
:109F40003DD1EFF31183002B39D12368A968226832
:109F50009342FAD132689142F7D8D9F8002007FB32
:109F600002FBABEB0101B1FBF2F107FB03131B1A80
:109F7000B3F57A7FDFD3009B013B0093D3D1019BE4
:109F800044495B691A688B4222F040021A6035D05E
:109F9000414A934232D010211A6822F038020A4313
:109FA0001A601A6842F040021A601BF091F90446E8
:109FB0001BF08EF98442FBD003B0BDE8F08FEFF3C5
:109FC00011818CF31288D5F808B02B68DB0303D518
:109FD000CAF800E0D5F808B02368C9B2DAF8002062
:109FE00081F31188D9F80010134407FB01F2A2EBAA
:109FF0000B02B2FBF1F207FB0323B8E70821CBE722
:10A0000030212BE728498A4208D0224B9A420FD0B0
:10A0100003F580639A427FF475AF0223234AD82167
:10A0200001FB03239A89013292B29A819B8969E7E5
:10A030000123F3E71C498A4208D0164B9A4224D0E8
:10A0400003F580639A427FF442AF02231749D82078
:10A0500000FB03139989013189B299819B8936E705
:10A06000114801998242496907D00A4B9A420ED0A1
:10A0700003F580639A4206D102230C48D8240A468D
:10A0800004FB0303E6E70A4621E70123DEE7012399
:10A09000F3E700BF00380040003C0040FC9D012079
:10A0A00010E000E0049E0120003001400C46012039
:10A0B000009E012000ED00E0F89D01200269C368C8
:10A0C0002DE9F04712EA030927D00E4605464FF066
:10A0D00000474FF00008B9FA89F327FA03F21B3B57
:10A0E000D2432A6109EA0209042B13D8DFE803F0FE
:10A0F000322920170300736A002B34D1EB6A1FFA50
:10A1000083FA346A34B1236820465146984764681C
:10A11000002CF8D1B9F1000FDDD1BDE8F08730682F
:10A12000696B036889B29847B9F1000FD3D1F4E79E
:10A130007068A96B036889B29847B9F1000FCAD15A
:10A14000EBE7B068E96B036889B29847B9F1000F93
:10A15000C1D1E2E7F068296C036889B29847B9F188
:10A16000000FB8D1D9E703F1FF3AC6F824801FFAEF
:10A170008AFAC6E7F8B5EFF31184502383F3128807
:10A18000D0F800311B6813F0010303D0E4B284F36C
:10A190001188F8BD90F8892190F88A110A4302F0DD
:10A1A0002102212AF2D0D0E90912914245D095B27C
:10A1B00047D94B1B9BB28162002590F8891180F82A
:10A1C00094512029E2D18569D54205EB0201DDD009
:10A1D000B3FA83F56D09002DD8D190F88821012AB2
:10A1E000D4D0064621220120DFF864C0A6F87231DF
:10A1F000D6F88071C6F88C5186F88921134AA6F8E2
:10A20000703186F888013846C6F86C113D65C7E99B
:10A210000FC2D6F82021DFF83CC02832C7F84CC066
:10A220002DF060FAD6F8203140221A6286F8885163
:10A230009A6842F080029A60A8E7012380F894317E
:10A24000A4E706691946731B9BB2B4E741310308C2
:10A2500077310308DB300308426A10B48469A154E3
:10A26000426A04690132D0F80011A24228BF0022DC
:10A27000426241B9D0F820215DF8044B136843F0E5
:10A280008003136070475DF8044B73E740699C30AE
:10A290002CF08ABF426910B50832184C54F82200DD
:10A2A0002CF082FF164B1A8823460C2A0DD8DFE8C3
:10A2B00002F0070C0C0C130C0C0C190C0C0C1F00EE
:10A2C0002168CA6822F40072CA60012283F83D2026
:10A2D00000220C4B1A7010BD2168CA6822F48062FB
:10A2E000CA60F2E72168CA6822F40062CA60ECE73B
:10A2F0002168CA6822F48052CA60E6E7A8570120A4
:10A30000A457012063700120F8B5D0F8203104462D
:10A31000DA69910615D5586AE36AC0B2002B00F0DD
:10A32000CB80216B9847D4F820311A6822F48072D0
:10A330001A609A6822F001029A609A6942F0080253
:10A340009A61DA69D20701D501221A62DA699707A0
:10A3500001D502221A62DA69560701D504221A626F
:10A36000DA69150701D508221A62D4F80021FAB17A
:10A37000D969490600D4F8BDD96904F590701E6802
:10A380000F079D682CD18F0602D5B50600F1DA8043
:10A390000F0602D5350600F1B980480602D57106D0
:10A3A00000F18280002AE6D02046BDE8F840E1E6D0
:10A3B000D9690806DCD594F889112129D8D0D4E9C7
:10A3C0000901814200F09B80A069405C0131C0B26C
:10A3D00098622569B1FBF5F005FB1011A162C7E792
:10A3E00015F0010502D116F4907FD1D0CF0701D529
:10A3F000F7057BD48F074AD5002D6CD10F0709D5FF
:10A40000B70665D508251D62D4F88C5145F00805BE
:10A41000C4F88C51D4F88C51002DC3D08F0605D5CB
:10A42000B50603D52AF0D0FCD4F82031D4F88C211D
:10A43000110708D49A6812F0400204D1C4F88C21A4
:10A44000D4F80021AEE71A68202122F490721A6035
:10A450009A6822F001029A6084F88A119A6852067A
:10A46000EED59A68D4F8841122F040029A6000294F
:10A47000E6D0414B08460B652CF070FF0028DFD07A
:10A48000D4F88401036D9847D4F800218AE74F0778
:10A49000B4D5002DB2D004271F62D4F88C7147F0D8
:10A4A0000207C4F88C71A9E71968202021F0400147
:10A4B000196084F8890175E7E3696269D054E3693A
:10A4C000E1680133B3FBF1F201FB1233E3612AE7E8
:10A4D000002D9FD096E702271F62D4F88C7147F0B9
:10A4E0000407C4F88C714F0788D5D4E701271F6291
:10A4F000D4F88C7147F00107C4F88C717AE7A4F89E
:10A500007221196821F08001196031E794F88911EE
:10A5100021297FF447AFB4F8721189B2B9B1D4F8E8
:10A520002801D4F86C11B0F5805F19D0481CC4F82C
:10A530006C0109789962B4F87231013B9BB2A4F8BE
:10A5400072312FE72AF040FCD4F800212AE719687D
:10A5500021F080011960196841F04001196021E77C
:10A56000D4F830010028E1D131F8020BC0F3080023
:10A570009862C4F86C11DEE7CD300308037C0168F3
:10A580001F2B0AD9203B2022496802FA03F30B4211
:10A5900014BF0123002353B970472022096802FA2F
:10A5A00003F30B4214BF01230023002BF4D02DE949
:10A5B000F04F466983B00446DFF89882F5001AF040
:10A5C00087FE0746AB1908EB43135A7C02BB9B4935
:10A5D0005A680978D2F80090002938D05269136877
:10A5E00023F001031360D9F80C3023F48073C9F809
:10A5F0000C30934B1B78002B37D1237C21681F2B09
:10A600001DD8202202FA03F38B6003B0BDE8F08F5F
:10A61000D3F8946001215A6899743168156821F063
:10A62000010188485F8931600368EA680133216865
:10A6300022EA07020360EA60237C1F2BE1D9202273
:10A64000203B02FA03F3CB6003B0BDE8F08FD3F8F0
:10A65000941058890A6822F001020A60D9F80C3077
:10A6600023EA0003C9F80C30C3E7AB19764A5B0153
:10A6700008EB030B5033DBF8940008EB030AC1B27C
:10A6800020F0FF001039A2FB013109092CF0A2FCD7
:10A690000123DBF898208BF8113001921AF018FE94
:10A6A000D9F800304FF0FF31019A43F08003C2F82F
:10A6B000CC01DBF88C20C9F80030C9F82C10102A26
:10A6C000D9F8003023F08003C9F8003052D072D995
:10A6D000B2F5807F00F09180B2F5805F1FD1D9F88C
:10A6E0002030DBF8441023F48053DBE91202C9F870
:10A6F00020301143D9F81C20DBF84030014322F40C
:10A700007F421B0342EA112243F48053C9F81C2004
:10A71000D9F8202022F420421343C9F820303544D0
:10A720000021494B524608EB4515D5F89400A96520
:10A73000C1B220F0FF001039A3FB013109092CF050
:10A7400003FCD5F8943041485A6895F890101040B1
:10A750006E686A89014330685960196841F00101E7
:10A760001960C3681343C3601AF0B2FD384BC01BB5
:10A77000186042E7D9F82030DBF8441023F01003CA
:10A78000DBE91202C9F820301143D9F81820DBF8B0
:10A790004030014322F47F421B0142EA112243F080
:10A7A0001003C9F81820D9F8202022F0A002134382
:10A7B000C9F82030B3E7012AB1D1D9F82030DBF84D
:10A7C000441023F00103DBE91202C9F820301143E1
:10A7D000D9F81820DBF84030014322F0FF0243F0A3
:10A7E000010342EA1142C9F81820D9F8202022F0CA
:10A7F0000A021343C9F8203091E7D9F82030DBF87A
:10A80000441023F48073DBE91202C9F820301143AD
:10A81000D9F81C20DBF84030014322F0FF021B0274
:10A8200042EA114243F48073C9F81C20D9F8202071
:10A8300022F420621343C9F8203070E7104B002047
:10A840000C4B002024420120ABAAAAAA0000FFFF63
:10A85000B0490020144B002020B10078B0FA80F0FD
:10A86000400970470120704708B520214CF05FFD7A
:10A87000034618461BB102780133202AF9D008BDDF
:10A88000037903F01803082B0AD002D82BB100205B
:10A890007047102B15D0182BF9D1B0F80B0070476A
:10A8A000104BB0F80B0093F90030591C07D10E4B38
:10A8B0001B7803EB831300EB430080B27047DBB2DD
:10A8C000F7E70A4BB0F80B0093F900305A1C07D198
:10A8D000054B5B7803EB031300EB430080B270473A
:10A8E000DBB2F7E7E50D01205CA70120E40D0120B4
:10A8F000F0B5067906F0E003402B09D144794FF01A
:10A90000FF350023012006F00706A3420BD1F0BD5E
:10A91000602B4FF0010403D1457904FA05F5F0E707
:10A920004FF0FF35EDE7042E0CD8DFE806F0030DFD
:10A9300018242E0030B1C85CD75C784028420CBF88
:10A94000012000200133E0E70028FBD0C856D7568D
:10A95000A0EB070CDCF1000040EB0C00F2E7002854
:10A96000F0D031F8130032F81370784028420CBF51
:10A9700001200020E6E70028E4D031F9130032F985
:10A980001370C71B78427841DCE70028DAD051F811
:10A99000230052F82370784028420CBF0120002089
:10A9A000D0E7024B0146186841F0E6BED8630120AB
:10A9B00038B5441E054D14F8011F286819B9BDE8C3
:10A9C000384041F051BE41F0D7FEF4E7D863012092
:10A9D0000048EDE75034060808B5FFF7E9FFBDE889
:10A9E0000840F5E710B504460348FFF7E1FF2046AD
:10A9F000BDE81040F0E700BF36F5050808B532B1F4
:10AA0000C30600D519B11046FFF7ECFF002210462F
:10AA100008BD38B5074C084DAC4203D3074B0022A4
:10AA20001A7038BD6288D4E901014BF023F914345F
:10AA3000F2E700BFE8010008B0070008C493012056
:10AA400038B5074C074DAC4203D3074B01221A70AF
:10AA500038BD6288D4E901104BF00CF91434F2E7E8
:10AA6000E8010008B0070008C4930120024A1368F7
:10AA700023EA00001060704754AA0120DFED2A7A13
:10AA8000B4EEE70AF1EE10FA4BDDDFED286A9FED38
:10AA9000287AB4EEC70A70EE667AF1EE10FAB0EEDC
:10AAA000670AF6DC9FED237AF4EEC77AF1EE10FA2E
:10AAB00034D5DFED1E6A9FED207AF4EEC77A37EECB
:10AAC000A60AF1EE10FAF0EE407AF6D4DFED1B7A2A
:10AAD000B4EEE70AF1EE10FA14DDDFED137A37EE8B
:10AAE000C00A60EE006A9FED166A9FED167ADFEDF0
:10AAF000167AA6EE867A20EE266AE6EE877AA6EE2B
:10AB0000270A7047DFED117AB4EEE70AF1EE10FA8A
:10AB1000E7D5DFED087A37EEC00AE2E7B0EE670A64
:10AB2000D4E7F0EE407ABDE7DB0F4940DB0FC940C8
:10AB3000E4CB1641DB0F49C0E4CB16C1DB0FC93FA4
:10AB400092E741B99730083C15A82ABEDB0FC9BF70
:10AB5000B0EEC07AF0EEE06A86FE876AB5EE406A33
:10AB6000F1EE10FA3DD0C6FEC75AC5EE867ADFED8B
:10AB70001E2ADFED1E3ADFED1E4A9FED1E5A9FEDA5
:10AB80001E3AB7EE006A9FED1D4ADFED1D5AE7EE53
:10AB9000E23AA7EE834AE7EEA34AA7EE846AA7EE5D
:10ABA000A45AE7EE855AC5EE867AF4EEC76AF1EE4E
:10ABB00010FA03D59FED137A77EE677AF5EEC00AA7
:10ABC000F1EE10FA03D59FED107A77EE677AB5EEC5
:10ABD000C00AF1EE10FA48BFF1EE677AB0EE670AEC
:10ABE0007047DFED077AE0E739094E3DE3B59E3E59
:10ABF00088FA163E45FE7F3F99FB243F69A2163E28
:10AC0000A7DFA834DB0FC93FDB0F4940DFED307A07
:10AC100030EE277AFDEEC76A16EE903A2033402BCD
:10AC200002D99FED2C0A7047B4EEE70AF1EE10FA54
:10AC30004BDD9FED296ADFED296AB4EEE67A77EE07
:10AC4000467AF1EE10FAB0EE677AF6DC9FED247AE0
:10AC5000F4EEC77AF1EE10FA34D5DFED1F6A9FEDFE
:10AC6000217AF4EEC77A37EEA60AF1EE10FAF0EE8A
:10AC7000407AF6D4DFED167AB4EEE70AF1EE10FA78
:10AC80001BDCDFED197AB4EEE70AF1EE10FA03D51A
:10AC9000DFED137A37EEC00A60EE006A9FED136AAB
:10ACA0009FED137ADFED137AA6EE867A20EE266A00
:10ACB000E6EE877AA6EE270A7047DFED0F7A37EEC9
:10ACC000C00AE9E7B0EE670AD4E7F0EE477ABDE7DD
:10ACD000DB0FC93F00000000DB0FC940E4CB164189
:10ACE000DB0F49C0E4CB16C1DB0FC9BF92E741B906
:10ACF0009730083C15A82ABEDB0F494010B401224A
:10AD00004C0901F01F0150F8243002FA01F123EA46
:10AD1000010340F824305DF8044B704710B4012261
:10AD20004C0901F01F0150F8243002FA01F10B43E5
:10AD300040F824305DF8044B704700BF01234A09F6
:10AD400001F01F0150F8222003FA01F1114214BF53
:10AD500018460020704700BF2DE9F043002489B059
:10AD600006460D461F46A04605E025290CD0304674
:10AD70000134A847039A531C039311780029F4D196
:10AD8000204609B0BDE8F083931CCDE90338537821
:10AD9000302B43D0A3F130024FF00009D2B2092A80
:10ADA00046D96C2B2BD0642B7AD019D9732B5DD05C
:10ADB0006AD9752B40F08B8007F1040C386805AB1D
:10ADC00000220A216746FDF749FA05A9049A4B4675
:10ADD000304600912946FDF719F9039A0444CAE761
:10ADE000252B41D058D9582B74D0632BC2D13B1D91
:10ADF0003978304601341F46A847039ABBE7039BC6
:10AE00005A1C03921B78642B5AD018D8252B2BD0B0
:10AE10006DD9582B1AD0632BE9D0ACE7D31C4FF077
:10AE2000010903939378A3F13002D2B2092AB8D86A
:10AE3000184604AA03A946F017FE0346B1E7732B90
:10AE400014D058D9752B32D0782B94D1A3F1580255
:10AE500007F1040C386805ABB2FA82F2102167469C
:10AE60005209FDF7FBF9B0E7252180E7386807F1C3
:10AE7000040C049A00230090294630466746FDF7EB
:10AE8000C5F8039A044476E76E2B7FF473AF039AF8
:10AE90003B6804371C606EE7002B3FF471AF69E735
:10AEA0003B1D386805A91F46FDF7A4F98DE7391D3C
:10AEB000386805AB00220F460A21FDF7CFF984E779
:10AEC0003B1D386805A91F46FDF794F97DE7782BEF
:10AED0007FF450AFA3F15802391D386805ABB2FAC0
:10AEE00082F20F4610215209FDF7B8F96DE7002BE9
:10AEF0003FF446AF3FE76E2BCAD03CE710B5064C97
:10AF00000B46024605492068FFF726FF2068BDE88A
:10AF1000104041F0A9BB00BFD8630120838800081E
:10AF200038B504460D460848FFF742FD294620463D
:10AF3000FFF7E4FF0548FFF73BFD054B1B7813B116
:10AF4000044B01221A7038BD3BF50508BB2E0608DC
:10AF500034650120356501200FB407B504A951F807
:10AF6000040B0191FFF7DCFFFFF732FD03B05DF842
:10AF700004EB04B0704713460A4601460048EBE76D
:10AF800046F505080048E7E75FF505080FB407B583
:10AF900004A951F8040B0191FFF7C2FF03B05DF85B
:10AFA00004EB04B070470FB407B504A951F8040BC3
:10AFB0000191FFF7A3FFFFF70BFD03B05DF804EB72
:10AFC00004B070470FB407B504A951F8040B019100
:10AFD000FFF794FF03B05DF804EB04B070472DE970
:10AFE000F843037903F0E001202928D002D849B1C1
:10AFF000BDE8F883402945D06029F9D12448BDE84F
:10B00000F843D0E703F00703022B02D0042B08D04B
:10B010006BB9B0F80720B0F805101E48BDE8F8433A
:10B02000C1E7D0F805201B48BDE8F843BBE7B0F9FD
:10B030000720B0F905101748BDE8F843B3E7457994
:10B040000024154E1548FFF7B3FC012306EBC5029B
:10B0500092F80480A04502D8BDE8F843B8E456F859
:10B0600035704FEA840957F824204AB113B90C48C7
:10B07000FFF79EFC57F809100A48FFF7A3FF0023CB
:10B080000134E7E741790848BDE8F8438BE700BFA2
:10B09000A7F505086BF5050828BF050882F5050822
:10B0A00093F505082429060896F505082DE9F041D1
:10B0B0001746027905460E4602F0E003402B2BD1DD
:10B0C0000024584FDFF8808115E02B7903F0070347
:10B0D000022B15D0032B19D0012B384614BF315D3C
:10B0E0003157FFF76FFF6B79013BA34202DD40460A
:10B0F000FFF75EFC01346B79A342E6DCBDE8F0812A
:10B1000036F814103846FFF75DFFECE736F91410F7
:10B110003846FFF757FFE6E702F00702042A5DD83A
:10B12000DFE802F0031D25272A003478202B3AD0CF
:10B130006DD8002BE2D1B5F80560B5F8078021463F
:10B140003848FFF73FFFB44240DB44453EDC002F68
:10B15000D4D0424631463448BDE8F04132E796F952
:10B160000040202B1FD052D8002B3DD0C6E734889A
:10B17000DCE7B6F90040F4E7D6F80080202B44461F
:10B1800011D044D8002BB9D141462648FFF71AFF09
:10B19000D5F80510884519D8002FAFD02348BDE851
:10B1A000F0410FE700246A79214B03EBC2010979D2
:10B1B000A1420BDD53F8323053F82400BDE8F041D2
:10B1C000FFF7F6BB1B48BDE8F041FBE6FFF700FCCC
:10B1D000224629681848BDE8F041D7E6202BE1D087
:10B1E00007D8002B8AD11C46B5F90560B5F9078050
:10B1F000A5E7602BE6D0802B80D131780F4B10482B
:10B20000002914BF31461946BDE8F041DAE6602B4B
:10B21000F1D16A791441E307D4D50A48BDE8F04179
:10B22000D0E600BF7FF5050856290608C1F50508D8
:10B2300028BF050825210608C7F505089621060838
:10B2400024290608BCF50508BFF505080CB407B5A8
:10B2500010F020000BD079B92320FFF7A2FB05A93D
:10B2600004980191FFF74AFEFFF7B2FB012003B0FB
:10B270005DF804EB02B070470020F8E70CB4C30699
:10B2800007B500D561B905A904980191FFF736FE0D
:10B29000FFF79EFB012003B05DF804EB02B070479E
:10B2A0000020F8E70EB410B585B0094907AC01904D
:10B2B00001A854F8042B23460394FFF74DFD019B8E
:10B2C00000221A7005B0BDE8104003B0704700BFFF
:10B2D0000180000870B406688E4219D94C1E751E94
:10B2E000002314F8011F08224B4002E0013ACBB2C0
:10B2F00007D059001B06F9D581F0D503013ADBB21E
:10B30000F7D1A542EDD1721C0260337070BC70475A
:10B31000721C00230260337070BC70470A44914273
:10B3200017D0013910B4541E11F8012F08235040D2
:10B3300002E0013BD0B207D042000006F9D582F00E
:10B34000D500013BC0B2F7D1A142EDD15DF8044B6D
:10B35000704770474840082302E0013BD0B208D054
:10B3600001064FEA4002F8D582F0D500013BC0B299
:10B37000F6D170470A4491421BD0013930B4551EB2
:10B3800041F2210411F8012F082380EA022002E093
:10B39000013B90B209D010F4004F4FEA4002F7D0C1
:10B3A00084EA4000013B80B2F5D18D42EAD130BC45
:10B3B0007047704770B5144C0222144E4FF6FF7060
:10B3C0001349FFF7D7FF22884AB1A518B54218D212
:10B3D000052A16D921462C46FFF7CCFFF3E7214674
:10B3E0000222FFF7C7FF0222A118FFF7C3FF094B94
:10B3F000E41A094B1C8041F60F53C31A58425841B6
:10B4000070BD0020FCE700BF02400008008000087B
:10B4100000400008FA3F0008C6930120104A2DE9B9
:10B420003048D2E9004554EA05020BD10346002218
:10B4300040F2011110461A809A809A711A8159803F
:10B44000BDE83088074B1A6814EB020B45F1000C7D
:10B450005A466346FCF716FE0120BDE8308800BF5F
:10B4600070690120FC9D01200288A2F5FA6270B487
:10B4700002F003018478C37840F2B55601EB410134
:10B48000013C124D013B04EB81040179920806FB5B
:10B49000023235F81430048900251344427980794A
:10B4A0004FF47A7603EB430301EBC3030849C3EB84
:10B4B00003130144204602EB8303C3EB031301EBA8
:10B4C00083032946C6FB030170BC70470874050856
:10B4D00080436D382DE9F04707468CB01E469246F2
:10B4E000002A60D1154614460A88B2F5FA6F37D3A0
:10B4F0008B78581E0B2833D891F803C00CF1FF301D
:10B500001E282DD891F804E0BEF1170F28D891F825
:10B510000590B9F13B0F23D888793B2820D8B1F8A2
:10B520000880B8F57A7F1BD24FF001086EBB002C63
:10B530000E890795B4BF2D212B21002CCDF800C01A
:10B54000B8BF6442CDE90306CDE9051438462D495C
:10B55000CDE901E9FFF7A6FE40460CB0BDE8F08753
:10B560000022DFF8ACA04FF0010C09A91046ADF89D
:10B5700028208DF82A206346ADF82C209146964667
:10B580009046CDF824A0002ED1D0CDF804E0CDF81F
:10B5900000C01D49CDE902903846FFF783FE4046C2
:10B5A0000CB0BDE8F087194BD417084683FB0A237B
:10B5B0005344C4EB6314C4EB041524B2AAEB850511
:10B5C0002DB2002DB8BF6D42FFF74EFF4FF47A72D7
:10B5D00000238046894649F009FE3C214FF47A72E7
:10B5E00000230AFB010A4046494649F0FFFD4FF49B
:10B5F0007A7192B2002309A8C1FB0A23FCF742FD2D
:10B6000009A971E754F6050834F605088988888881
:10B61000000001010378092B01D0202B05D110F87F
:10B62000013F202BFBD0092BF9D02D2B00F0A98056
:10B630002B2B75D0B7EE000AA3F13002D1B2092945
:10B6400077D8F2EE046ADFED5F7A07EE102A10F881
:10B65000013FB8EEC77AA3F13002D1B2A7EEA67AC5
:10B660000929F0EE477AF0D92E2B66D003F0DF03DC
:10B67000452B40F0838010B442782D2A00F096804C
:10B680002B2A00F08380A2F130030130092B00F255
:10B6900084800024002303EB830302EB430310F8B0
:10B6A000012FA2F13001303B0929F4D9B3F59A7F7B
:10B6B0001A46B7EE007A28BF4FF49A72072B09D9C1
:10B6C0001346DFED416A083B27EE267A072BFAD8AE
:10B6D00002F00702DAB1F2EE046A012A27EE267AB6
:10B6E00015D0022A27EE267A11D0032A27EE267AD1
:10B6F0000DD0042A27EE267A09D0052A27EE267ACD
:10B7000005D027EE267A062A18BF27EE267A002CC7
:10B7100045D0C7EE877A5DF8044B20EE270A7047C4
:10B720004378B7EE000A0130A3F13002D1B2092903
:10B7300087D92E2BDFED237A98D143780130A3F1FE
:10B740003002D1B2092991D8B2EE047AF0EE475A0C
:10B7500006EE902A10F8013FB8EEE66AA3F1300237
:10B76000D1B2C6EE076A092927EE257A77EEA67AC6
:10B77000EED903F0DF03452B3FF47DAF20EE270A1F
:10B7800070474378BFEE000A013055E782780230F7
:10B79000A2F13003092B7FF67CAFB7EE007A67EE9B
:10B7A000877A5DF8044B20EE270A704782780230D2
:10B7B000A2F13003092B01D801246BE7B7EE007A20
:10B7C000A7E700BF0000000020BCBE4CF8B506464D
:10B7D00015460846B6FBF2F434B905FB14640C4B6D
:10B7E0001B5D00F8013BF8BDB4FBF2F75FB905FB48
:10B7F0001747074B05FB1464DA5D1B5D00F8012B4E
:10B8000000F8013BF8BD3846FFF7E0FFEFE700BF67
:10B8100084F60508B5EEC00ADFED6D7A00236D4AA7
:10B82000F1EE10FA2DE9F047C8BF30EE270A88B0D4
:10B83000D8BF30EE670ADFED687A0493054620EE44
:10B84000270ACDE90233FDEEC07A17EE904A84EA6A
:10B85000E476A6EBE476A2FB06325FEAD20847D193
:10B8600005AF5E4A39465B4B002C4FF00000A3FB4E
:10B8700006434870A8BF20204FEAD303B8BF2D204D
:10B8800003EB83038DF808003846A6EB4303D35C33
:10B890000B7048F0B5FF01283ED0022848D003289D
:10B8A0001ED0394602A84BF033FD02A848F0A8FF8D
:10B8B000C41E02A92846E4B222464BF05FFD0023D5
:10B8C00028462B5548F09CFF02AB2E221919431C29
:10B8D0002A54E8184BF038FD284608B0BDE8F08738
:10B8E0003023394602A88DF809304BF011FDDCE712
:10B8F0003B4BA3FB06235B0924D105AF374A3946EE
:10B90000344BA3FB0803DB0803EB8303A8EB4303DF
:10B91000D35C01F8013BA6E73023394602A88DF835
:10B9200009308DF80A308DF80B304BF0F1FCBCE794
:10B930003023394602A88DF809308DF80A304BF0D3
:10B94000E7FCB2E7274AA2FB06125FEA92190ED182
:10B9500005AF224A39461F48A0FB03C0C00800EBD0
:10B960008000A3EB4003D35C01F8013BC8E71E4A0B
:10B97000A2FB06125FEA523A0FD105AF174A3946C9
:10B980001448A0FB09C0C00800EB8000A9EB4009E7
:10B9900012F8090001F8010BDDE71448B6FBF0F0DE
:10B9A00070B905AF38464FF00A0C01460B4ABAFB96
:10B9B000FCF00CFB10AA12F80A0001F8010BDFE7FB
:10B9C00005AF0A2201933946FFF700FF019BEAE722
:10B9D0006F12033ACDCCCCCC00007A4484F6050833
:10B9E0001F85EB51D34D62105917B7D1A0860100C6
:10B9F00002B370B48E1803E0121B14D1B14215D0FB
:10BA000010F8012BA2F14103192B11F8013BA3F10E
:10BA1000410598BF203203F12004192DECD9D21A28
:10BA200001D1002BEAD1104670BC7047002270BCD7
:10BA3000104670471046704770B5044608460D46DC
:10BA400048F0DEFE064602E014F8013F43B13246FC
:10BA500029462046FFF7CCFF0028F5D1204670BDCF
:10BA60001C46204670BD00BF4FF0FF32FFF7C0BF3D
:10BA7000A0F16103192B98BF20387047A0F1410352
