:020000040800F2
:10000000F0FF01200905050899C4020861F60108FE
:100010008105050881050508810505080000000027
:10002000000000000000000000000000A5C402085D
:10003000A1C40208000000009DC40208BDBF010861
:100040008105050881050508810505088105050864
:1000500081050508810505087D0A0208A90B02082B
:100060006D0B0208310B0208F50A0208B1EF000817
:10007000A1EF000891EF000881EF00086DEF000884
:1000800059EF000845EF0008810505080000000051
:10009000000000000000000000000000B90A020893
:1000A000E9A60108D5AA010819A6010859AC01085A
:1000B00015AA010855A9010889A8010881050508A4
:1000C00081050508810505088105050881050508E4
:1000D0008105050899C00108FDBF01080000000066
:1000E000410A0208810505083504030800000000E4
:1000F00000000000000000000000000031EF0008D8
:100100000000000081050508B9A701088105050860
:1001100000000000000000000000000000000000DF
:100120001DEF000809EF0008F5EE0008E1EE0008F9
:10013000CDEE0008000000000000000000000000FC
:10014000000000000000000000000000DDD40208F4
:10015000B9EE0008A5EE000891EE0008810505083B
:100160008105050881050508000000000000000069
:10017000000000000000000000000000000000007F
:1001800000000000810505080000000000000000DC
:08019000810505088105050841
:08019800A000050001000000B9
:1001A00010020100181B0020141B0020000000009A
:1001B000680700080D121400A01600201C1B002068
:1001C000000000006C0700081F021000401B002008
:1001D000301B002000000000898500082C00100062
:1001E0006437002054370020000000001B05010880
:1001F0002B002400983700207437002000000000F6
:10020000ED0401081902100020370020BC3700203F
:1002100000000000158400082920780034360020F2
:10022000CC37002000000000000000002810100063
:1002300054380020443800200000000051FB000822
:100240001C02100050300020643800200000000024
:10025000B1830008140003008834002074380020A3
:10026000000000008007000801200C001C1F002077
:100270007838002000000000840700080C20CC0023
:10028000041E00208438002000000000451F0208E2
:100290000A702800BC1D002050390020000000001A
:1002A000F5FA00080EB08601341C002078390020D1
:1002B00000000000E50C040801010400901B002070
:1002C000003B0020000000000000000000010400CE
:1002D000881B0020043B002000000000900700085D
:1002E00002010300841B0020083B002000000000E6
:1002F000811F02081A023C002C3B002044400020D1
:1003000000000000ED8B000827000400283B0020BF
:100310008040002000000000940700083810010011
:10032000183B0020844000200000000098070008CF
:10033000F6210C00B84D0020E44D00200000000024
:100340009C07000802000C00AC4D0020F04D00207E
:10035000000000000000000008120F009C4D00206B
:10036000FC4D00200000000019850008F701060080
:10037000944D00200C4E002000000000A80700084B
:100380001D020200744D0020144E002000000000E9
:10039000AE0700080A020A003C470020184E002061
:1003A000000000000122020803000100E8430020D1
:1003B000244E0020000000000000000003123D0059
:1003C00050490020284E002000000000B00700081F
:1003D00025102C0170470020684E0020000000000E
:1003E000000000001010020030430020944F002055
:1003F00000000000EE0700080B301A00E462002045
:10040000946A002000000000F00700081F3024005C
:10041000185A0020B06A0020000000000C080008F4
:1004200005020400A8640020D46A00200000000037
:100430003008000803010A00405A0020D86A002052
:10044000000000003408000813020400C458002013
:10045000E46A0020000000003E08000822021401A7
:1004600060820020B084002000000000298D000878
:1004700001020500B4740020C485002000000000C3
:100480008D5C030800020500AC740020CC850020C0
:1004900000000000000000001B0210009874002003
:1004A000D485002000000000D98300081E0006004B
:1004B000F0710020E48500200000000044080008DE
:1004C0001B100C008C6E0020EC850020000000004A
:1004D000E96F03082102F000E46C0020F885002099
:1004E000000000002969030823121000FC7400209A
:1004F000E8860020000000004C08000837102800A3
:1005000020740020F8860020000000005C0800082D
:100510000E020200F8740020208700200000000076
:100520008408000816100600446C00202487002070
:1005300000000000860800082F1022008C84002094
:100540002C870020000000008C0800080510060021
:10055000B07000205087002000000000AE080008A6
:1005600023100E0038710020588700200000000082
:1005700069FB0008F55190004C6C00206887002052
:1005800000000000B59B0308190005000C92002034
:10059000E092002000000000B40800081A000E00DD
:1005A00080910020E892002000000000BA080008B6
:1005B000F821060020900020F892002000000000A2
:1005C000C808000820320A002C9000200093002068
:1005D00000000000C50C040815007000708A00209F
:1005E0000C93002000000000000000002A006000C2
:1005F000689200207C930020000000009D0C0408FD
:100600000D002400B4D6002044D8002000000000D3
:10061000B90603080902010020D6002068D800208E
:1006200000000000D008000804008000A0D50020D1
:100630006CD800200000000000000000F901040058
:1006400024D50020ECD8002000000000C19801084B
:100650001300040020D50020F0D800200000000086
:10066000D408000818203000ECD40020F4D8002072
:1006700000000000898C000806101A00B4C2002097
:1006800024D9002000000000110E0408FB01010025
:10069000F0C1002040D9002000000000FD8C0008BF
:1006A000FC010900BCC0002044D90020000000006B
:1006B0000D8D000816023F007CC0002050D900209C
:1006C000000000003984000834001000ACBF002096
:1006D00090D9002000000000E50D04081102080078
:1006E00084BF0020A0D9002000000000D808000826
:1006F000121204007CBF0020A8D9002000000000D6
:10070000E0080008122010006CBF0020ACD90020C7
:1007100000000000E4080008FD012100B0B6002040
:10072000BCD9002000000000499801080202030023
:1007300094A80020E0D90020000000000000000084
:100740000C02040050A80020E4D9002000000000A2
:1007500071850008FE01140060B30020E8D9002074
:0807600000000000ED83000819
:100768000000000000000000000000000000000081
:10077800000000000000000003000000E80364001F
:10078800040A000114001E00B3000000200300004A
:10079800000000000000000001000000020200004C
:1007A8003F01000000000000000000000000000001
:1007B8000000000000000000000000000000000031
:1007C8000000000000000000000000000000000021
:1007D8000000000000000000000000000000000011
:1007E8000000000001000005AE014A015E012C0175
:1007F80064010100000001000A019A01001E0A00BC
:1008080000000000000000000001000000050000DA
:1008180001020300000000000000000000000000CA
:100828000000000000800700000000000401010033
:100838006C1600000000000001000000000001002C
:1008480000000000000000000000000000000000A0
:100858000000000020003200C800D00796001400F5
:1008680032002800B00440060005500014000F00B4
:10087800080064000100000005000A000000C40927
:100888000000190000000000000000000000000047
:100898000000000000000000000000000000000050
:1008A80000000000000020000301000000002801F3
:1008B80000007E05EA05B4053200E803D007000011
:1008C8000401F40114000000000000000004443298
:1008D8000000000001010101FFFFFFFF000000010F
:0C08E800000005433446530000080000E7
:1008F4000B250000F41E0508FF01FF0000000401A1
:1009040000000000000000021000000007000000CA
:1009140000000000000000000102030406070809AB
:100924000100000075F200080000000028210508FD
:10093400FFFFFFFF010101000001010100D60100DA
:10094400B80B00002D202D2D202D2D2D2D202D2DEB
:100954002D00000000000000000000000000000066
:10096400000000000000000000000000343505080D
:100974000000000000000000C03505080100000070
:10098400FA00000001000000010000000101010064
:100994001A1F00200000F40101000000181F0020AD
:1009A4000000F40101000000161F00200000F40103
:1009B40001000000141F00200000F40101000000E9
:1009C400121F00200000F40101000000101F00208D
:1009D4000000F401010000000E1F00200000F401DB
:1009E4000100000081F9000845F90008EC2205081F
:1009F400041F002005320100021F0020E803D00775
:100A040001000000001F0020E803D00701000000DF
:100A1400FE1E0020E803D00701000000FC1E002099
:100A24001E00B80B010000000A1F002005000F0083
:100A3400010000000C1F002003000A000100000058
:100A4400FA1E00201E00F40101000000F81E002020
:100A54001400640001000000061F00203200E803B7
:100A640001000000F61E00200000C8000100000084
:100A7400021E002000C80100011E002000500100D9
:100A8400001E0020005A0100FE1D0020020000008C
:100A940078230508208B0508288B0508666E00203E
:100AA4000100C40900000000646E00200100C409B4
:100AB40000000000626E00200100C4090000000074
:100AC400606E00200100C409000000005C6E00207C
:100AD4000100C409000000005E6E00200100C4098A
:100AE400000000005A6E00200100C409000000004C
:100AF400586E00200100C40900000000A91B00205A
:100B040000C80100A81B002000C80100A61B00208B
:100B14000100C80001000000A41B00203200307551
:100B240032000000A21B0020055A05009F1B002074
:100B340000FF0100A11B0020010000003C03002075
:100B44009D1B002003000000984C05089E1B0020FC
:100B540000FF0100A01B0020010000003C03002056
:100B64009C1B002003000000984C0508E9F80008CD
:100B74008DF80008842305082C1F0020EE02CA0803
:100B8400010000002A1F002000C8010064000000CA
:100B9400291F002000C8010064000000281F002055
:100BA4000200000064240508961B002080C1803EDA
:100BB40005000000941B002080C1803E0500000059
:100BC4008E1B002080C1803E050000008C1B00208D
:100BD40080C1803E05000000871B002000FF01004B
:100BE400801B00206400F401010000007F1B002032
:100BF40004000000702405087E1B00200200000091
:100C040084240508231C00200D00000090240508FE
:100C1400201C0020006401001E1C0020320010274C
:100C24000A0000001D1C00200D000000902405088F
:100C34001C1C00200D000000902405081B1C002033
:100C440002000000C82405080000000000000000A5
:100C5400D4240508606400209CFF2C0100000000DF
:100C64004C220020E0150C17000000004E2200204A
:100C7400020000000C250508381F00200100FF7F3A
:100C840001000000371F002002000000182505089D
:100C9400251C00200300000028250508241C002032
:100CA4000300000028250508F01D00200000E803CB
:100CB40001000000EE1D00200000E8030100000018
:100CC400EC1D00200000E80301000000EA1D0020E4
:100CD4000000E80301000000E81D00200000E80314
:100CE40001000000E61D00200000E80301000000F0
:100CF400E51D002000140100E41D00200300000095
:100D040038250508FC1D00200000F4010100000046
:100D1400FA1D00200000F40101000000F81D00206D
:100D24000000F40101000000F61D00200000F401A1
:100D340001000000F41D00200000803E01000000BE
:100D4400F21D00200000803E01000000E31E002090
:100D540019640100E21E0020020000004825050875
:100D6400E01E0020E803D0070A000000DE1E002079
:100D7400006401000A000000D31E0020006401008A
:100D8400D21E002000640100DA1E0020006401006D
:100D94000A000000D91E0020006401000A000000BF
:100DA400D81E0020006401000A000000DD1E00209F
:100DB400006401000A000000DC1E00200064010041
:100DC4000A000000DB1E0020006401000A0000008D
:100DD400D71E002001FF01000A000000D61E0020DB
:100DE40001FF01000A000000D51E002001FF0100E0
:100DF4000A0000002E1C00200000F4010100000085
:100E04002C1C00200000F401010000002A1C00201A
:100E14000000F40101000000281C00200000F4017F
:100E240001000000261C00200000F4010100000065
:100E3400A722002000C80100A622002000640100AF
:100E4400A522002000640100A42200200064010007
:100E5400A322002000640100A2220020FF08010058
:100E6400A122002001640100F9F70008BDF7000881
:100E740054250508A0220020006401009E220020C1
:100E84001400E803010000009C220020E8033075F0
:100E94000A0000009A22002000C8010099220020C4
:100EA40000C801009822002000C8010097220020F9
:100EB400006401000A000000B62200200000D007F0
:100EC40001000000B022002000C80100AF22002071
:100ED40000C80100AE22002000C80100B422002096
:100EE4000000D00701000000AD22002000C801006E
:100EF400AC22002000C80100AB22002000C8010081
:100F0400B22200200000D00701000000AA22002025
:100F140000C80100A922002000C80100A822002066
:100F240000C8010000000000B1F50008C425050850
:100F3400191C00203900000060260508181C002038
:100F440000C80100161C0020E803D00701000000BF
:100F54004352415A59424545463446530000000025
:100F64009B1B0020000301009A1B002000030100CA
:100F7400FDF40008C1F40008482705087DF40008C2
:100F840031F40008B827050839F50008610A01089A
:100F940038280508981B002001030100E9F900081E
:100FA400BDF900083C2B0508C1F3000881F30008D3
:100FB400AC2B0508C7F50008392B0108482C050897
:100FC4001906010800000000F02C0508D5070108E7
:100FD40049FA00088C2D050819F6000800000000E5
:100FE400FC2D0508F1F600089DF60008602E0508A2
:100FF40081F7000845F70008FC2E0508C990010890
:1010040035F800087C2F0508F51E002001060100B4
:1010140061F600082DF60008783005082B900108C9
:10102400C50A0108E8300508119101085D0B0108A3
:10103400E4310508F41E00200103010081F50008D5
:1010440051F50008B832050815FA00080000000040
:101054001C33050801F40008310A0108803305082F
:1010640000000000000000000C34050865F80008CA
:10107400D50B01088C3405087A1B002088136F17E0
:10108400010000007C1B002088136F170000000083
:10109400A25A00200000000000000000A05A002016
:1010A40000000000000000009E5A00200000000024
:1010B400000000009C5A0020000000000000000016
:1010C4009A5A00200000000000000000985A0020F6
:1010D4000000000000000000A40C0020000000003C
:1010E40000000000501B0020020000001436050818
:1010F400781B002088136F1701000000A0640020F3
:1011040088136F170000000015F3000800000000AA
:1011140020360508962200200100000074360508D8
:10112400A2640020010000008036050898640020B5
:1011340002000000883605080000000000000000DE
:101144009436050801F30008000000003037050854
:1011540000000000000000008437050800000000C3
:1011640000000000F43705089C640020E0150C170B
:101174000000000001000000A00F0000B80B0000F8
:101184000102FFFF010000000000803F0000803FDB
:10119400000000000000000000000000FFFFFFFF4F
:1011A400FF000000CCAD0508D8AD0508E4AD050886
:1011B400F0AD0508FCAD050808AE05087C9B0508E4
:1011C4006CD105080CD005086CB2050810FB0508A5
:1011D400C4A70508C0AD0508C4AD0508C8AD050819
:1011E40014AE050818AE05081CAE05087CCE05082B
:1011F40020AE05081900C800F40120030403090403
:1012040012010002EF02014083045632000201027F
:10121400030100001201000202020040830440574F
:10122400000201020301000009026400030100C07E
:10123400320904000001030000000921110100012A
:101244002226000705830308000A080B0102020294
:10125400010009040100010202010005240010013B
:1012640005240100020424020205240601020705E4
:1012740082030800FF09040200020A0000000705B7
:1012840001024000000705810240000009024300FA
:10129400020100C032090400000102020100052419
:1012A40000100105240100010424020205240600A3
:1012B40001070582030800FF09040100020A000077
:1012C40000070501024000000705810240000000FC
:1012D400FF00000090450508000000000000000029
:1012E40000000000000000000000000000000000FA
:1012F40000000000000000000000000000FFFF00EC
:1013040000000000AA55050100000100644505081D
:1013140000000000000000000000000000000000C9
:1013240000000000000000000000000000000000B9
:1013340000000000FF1FFF1F05010905A101A10016
:1013440005010930093109320933093509340940E5
:1013540009381581257F750895088102C0C00000F1
:1013640009022200010100E0320904000001030126
:101374000200092111010001222600070583030848
:10138400000A00000000000001020304010203043B
:1013940006070809E1C70208E5C6020825CA0208CB
:1013A40069A70208ADAA020879A7020895A702084E
:1013B40041A7020831A70208000000000000000055
:1013C4002D202D2D202D2D2D2D202D2D2D2D0000CA
:1013D400000000000000000000000000000000AA5F
:1013E400550B010000AA5507010000AA5509020087
:1013F4000000AA5503009F0001000000C012000075
:10140400686A0020000000008C6A002000000000D0
:1014140000000000306C0020080000000000000004
:10142400206C002008000000200000008DAC0208A1
:1014340031AA020801CA0208000000002DA7020810
:10144400D1C60208F9AB020849C602080000000030
:1014540000000000E9A60208FDAB0208F1A9020899
:1014640041C902080000000001A702084DC6020895
:10147400CDAB0208A9C5020800000000000000006E
:10148400F5A6020800000100E00100000000803F12
:101494000000803FFFFFFFFF080101FFFFFF000086
:1014A40068F60508000008020503030070F6050845
:1014B400010008020504030040AF05080200FE0114
:1014C40001100300688F05080300140200030000E4
:1014D40078F6050804001F020100080080F60508DC
:1014E40005001F0201010800FFFF0000FFFFFFFFCE
:1014F400DC9300207D000000FFFFFFFF0000803F21
:101504000000000000000000000000000000803F18
:1015140000000000000000000000000000000000C7
:1015240000000000000000000000000000000000B7
:10153400000000000000803F0000000000000000E8
:101544000000000001000000080000004DA6020891
:1015540049A6020845A6020839A6020835A60208CB
:1015640041A602083DA60208C1A60208B5A60208C3
:101574008DA60208A1A6020879A6020865A602089B
:1015840051A6020801000000006002401060024001
:101594000000000000000000000B0000000000003C
:1015A40000000000000000000060024028600240CB
:1015B4000100000000000000060C00000000000014
:1015C4000000000000000000006002404060024093
:1015D4000200000000000000100D000000000000E8
:1015E400000000000000000000600240586002405B
:1015F4000300000000000000160E000000000000C0
:101604000000000000000000006002407060024022
:101614000400000000000000200F00000000000093
:1016240000000000000000000060024088600240EA
:10163400050000000000000026100000000000006B
:10164400000000000000000000600240A0600240B2
:10165400060000000000000030110000000000003F
:10166400000000000000000000600240B86002407A
:101674000700000000000000362F000000000000FA
:1016840000000000000000000064024010640240FA
:10169400000000000000000000380000000000000E
:1016A40000000000000000000064024028640240C2
:1016B40001000000000000000639000000000000E6
:1016C400000000000000000000640240406402408A
:1016D4000200000000000000103A000000000000BA
:1016E4000000000000000000006402405864024052
:1016F4000300000000000000163B00000000000092
:101704000000000000000000006402407064024019
:101714000400000000000000203C00000000000065
:1017240000000000000000000064024088640240E1
:101734000500000000000000264400000000000036
:10174400000000000000000000640240A0640240A9
:10175400060000000000000030450000000000000A
:10176400000000000000000000640240B864024071
:1017740007000000000000003646000000000000E2
:10178400000000000000000004F7050834B9050853
:101794000000000081040308A0860100040000008A
:1017A4000000000000000000000000000000000035
:1017B4000000000000000000000000000000000025
:1017C400000000000000000004F705082CFB0508D9
:1017D40000000000E5960108E80300000400000092
:1017E40000000000000000000000000000000000F5
:1017F40000000000000000000000000000000000E5
:101804000000000000000000F8920508F8CE05086A
:1018140000000000F52902087D0000000600000019
:1018240000000000000000000000000000000000B4
:1018340000000000000000000000000000000000A4
:10184400000000000000000054F60508000000003D
:10185400000000001DB80108E803000003000000B8
:101864000000000000000000000000000000000074
:101874000000000000000000000000000000000064
:10188400000000000000000034FB05080000000018
:1018940000000000ED85040810270000030000008C
:1018A4000000000000000000000000000000000034
:1018B4000000000000000000000000000000000024
:1018C400000000000000000074F60508000000009D
:1018D40081020108C5F601085F76000005000000DA
:1018E40000000000000000000000000000000000F4
:1018F40000000000000000000000000000000000E4
:101904000000000000000000B0F90508000000001D
:1019140000000000410E0208102700000100000032
:1019240000000000000000000000000000000000B3
:1019340000000000000000000000000000000000A3
:10194400000000000000000040FB0508000000004B
:1019540000000000E9960108E8030000050000000B
:101964000000000000000000000000000000000073
:101974000000000000000000000000000000000063
:1019840000000000000000004CFB050800000000FF
:1019940000000000A90A0308204E00000300000014
:1019A4000000000000000000000000000000000033
:1019B4000000000000000000000000000000000023
:1019C40000000000000000005CFB050800000000AF
:1019D40000000000BD040308204E000003000000C6
:1019E40000000000000000000000000000000000F3
:1019F40000000000000000000000000000000000E3
:101A040000000000000000006CFB0508000000005E
:101A140000000000159C0108400D030003000000B5
:101A240000000000000000000000000000000000B2
:101A340000000000000000000000000000000000A2
:101A440000000000000000003CB105080000000098
:101A540000000000812C0308102700000100000092
:101A64000000000000000000000000000000000072
:101A74000000000000000000000000000000000062
:101A8400000000000000000048B905080000000044
:101A9400000000001D7B0308102700000300000065
:101AA4000000000000000000000000000000000032
:101AB4000000000000000000000000000000000022
:101AC4000000000000000000548E05080000000023
:101AD40000000000E5950108A86100000100000075
:101AE40000000000000000000000000000000000F2
:101AF40000000000000000000000000000000000E2
:101B0400000000000000000064B1050800000000AF
:101B140000000000E9C10108A00F0000010000005E
:101B240000000000000000000000000000000000B1
:101B340000000000000000000000000000000000A1
:101B440000000000000000007CFB0508000000000D
:101B540000000000B99C03081027000001000000E9
:101B64000000000000000000000000000000000071
:101B74000000000000000000000000000000000061
:101B840000000000000000007C9A0508000000002E
:101B940000000000499503081A41000001000000FC
:101BA4000000000000000000000000000000000031
:101BB4000000000000000000000000000000000021
:101BC4000000000000000000148E05080000000062
:101BD4000000000045AF02081027000001000000CB
:101BE40000000000000000000000000000000000F1
:101BF40000000000000000000000000000000000E1
:101C0400000000000000000040B9050800000000CA
:101C140000000000B93101081A4100000100000071
:101C240000000000000000000000000000000000B0
:101C340000000000000000000000000000000000A0
:101C4400000000000000000088FB05080000000000
:101C5400000000002DB50208400D03000000000044
:101C64000000000000000000000000000000000070
:101C74000000000000000000000000000000000060
:101C8400000000000000000090FB050800000000B8
:101C940000000000A1950108400D030000000000B1
:101CA4000000000000000000000000000000000030
:101CB4000000000000000000000000000000000020
:101CC400000000000000000098FB05080000000070
:101CD4000000000079A7030850C3000003000000BF
:101CE40000000000000000000000000000000000F0
:101CF40000000000000000000000000000000000E0
:101D04000000000000000000A4FB05080000000023
:101D140000000000750A030840420F0000000000A4
:101D240000000000000000000000000000000000AF
:101D3400000000000000000000000000000000009F
:101D44000000000000000000B0FB050800000000D7
:101D5400000000000908030850C300000000000050
:101D6400000000000000000000000000000000006F
:101D7400000000000000000000000000000000005F
:0C1D840000000000000000000000803F94
:1080000003685A1C02601970704700BF2DE9F047E1
:10801000089C2578002B804689460CBF4FF0200A2B
:108020004FF0300A661C25B3002A26DD334601E0F6
:10803000024698B113F8011B501E0029F8D1971E73
:1080400060B13D46013D51464046C8476B1C002B80
:10805000F8DC257827EAE770013045B1041B294692
:108060004046C847301916F8015B002DF7D1BDE82E
:10807000F087002A03DC2846F9E70020EEE7571EC8
:10808000DFE700BF2DE9F04714461D4606464FF4D2
:108090007A7200232046294648F06AF84D4BDFF8F3
:1080A00048814D4A4D4F034488FB03101844D917AB
:1080B00082FB032CC1EB601088FB002887FB0327A1
:1080C0009C44474AC1EBEC2CC0EB001E82FB0C2900
:1080D000A3EB8E0E1F44434A86F806E0C1EB274708
:1080E0004FEAEC7E08EB000ACEEBA90E82FB07827A
:1080F0004FEAE0780EEB4E0EC8EB6A18ACEBCE0CF4
:10810000C8EB0818DFF8E4E086F804C0A0EB8800AC
:1081100070718EFB0303F817C0EBE21240F2B5500A
:1081200000FB1272C1EBE353B2F5896F4FEA83078C
:108130003CDA40F2DA239A4242DCB2F5B77FB4BFB0
:108140004FF0000E4FF0010E4FEA4E09DFF8A0800D
:1081500009EB0E0308EBC3031FFA8EFCD88A09EB68
:108160000E0108EBC10116310B2301E031F8020DBD
:10817000904218DD013BF9D1CE44012338F83E008E
:10818000B37007F5FA670132121ABC44F270A6F810
:1081900000C0204629464FF47A72002347F0E8FFDA
:1081A0003281BDE8F0870133DBB2E9E74FF0030C21
:1081B000E64640F29650DFF838804FF00609CEE7E9
:1081C0004FF0020CDFF82880E64640F229404FF0DD
:1081D0000409C4E780BC92C7C5B3A29107452EC26B
:1081E000ABAAAA2A73B06D1689888888792D0311E5
:1081F000781D05080028F0B403DA2D230B704042E7
:108200000131092804464FF0010307DD03EB830326
:108210005B00B0FBF3F2092AF8D883B10F48A0FB4A
:108220000326B4FBF3F2092A02F1570C02F13007DE
:1082300009DD03FB1244F30801F801CBEFD1002361
:108240000B70F0BC704703FB1244F30801F8017B8C
:10825000E5D100230B70F0BC704700BFCDCCCCCC77
:10826000884270B44FF0010442D301FB04F4B0FB28
:10827000F4F58D42F9D2ECB142BB092D04FB150097
:1082800005F1570605F130020EDDB4FBF1F403F8F9
:10829000016B7CB1B0FBF4F5092D04FB150005F171
:1082A000570605F13002F0DCB4FBF1F403F8012BC2
:1082B000002CEFD100221A7070BC704703F8016BDC
:1082C000B4FBF1F4002CF5D0B0FBF4F5092D04FB60
:1082D000150005F1370605F13002EFDCB4FBF1F4CF
:1082E00003F8012B002CEFD100221A7070BC7047EC
:1082F0000546002AEAD1C0E790ED057A90ED004AE4
:10830000D0ED066AD0ED014AD0ED047A90ED035A23
:10831000D0ED025AA4EE007AB0EE406AB0EE470A01
:10832000B0EE667AA4EE867A67EEC07AA5EE407A61
:10833000E5EE867A80ED057AC0ED067A704700BFDB
:10834000D0ED057A90ED013AD0ED003AD0ED064A35
:1083500090ED024A90ED077A90ED035A90ED086A8D
:10836000D0ED045AC0ED067AF0EE406A27EE830A9B
:10837000C0ED056AA3EEA60A80ED087AA4EE240AF1
:10838000A5EE470AA5EEC60A80ED070A704700BFB2
:10839000D0ED007A90ED017A30EE670AE7EE007AD0
:1083A000B0EE670AC0ED007A704700BF704700BFAB
:1083B00030B400230221012214251124C5708471D8
:1083C0000370C3728373C3734170C1714172827051
:1083D0000272827230BC7047002306214FF47A7219
:1083E0000170C0E901230373704700BF30B420233C
:1083F000012221254FF47F44FF2143700023457162
:108400000482817402720270027143818381C3818C
:1084100030BC704730B40B221F2303251E242221B9
:10842000027043722922002385728473C172027321
:10843000437330BC704700BF2DE9F04F3149324BD8
:1084400083B001F5907B019013274FF000092F486E
:108450001022012603E0203098420BD00279974287
:10846000F9D102680C68A24209D02030984206F186
:108470000106F3D1203159453AD00F79E7E7447925
:108480004D79A542F1D19446019A214809EB49055D
:1084900002EB050A57558AF8016000F572751D4E0A
:1084A000624603E0A8421AD050F82C6FB242F9D1CC
:1084B0000679A642F6D1CF6806464FF0000C9646E4
:1084C0008046F268BA4216D00CF1010CBCF1030FE1
:1084D00006F10C06F5D14046A8427246E4D14FF0B1
:1084E000FF3C203159458AF802C009F10109C4D185
:1084F00003B0BDE8F08F086932698242E4D14FFAD7
:108500008CFCEEE788720508FC7D05083C740508C4
:10851000FC7D050800000140144BFF22F0B54FF030
:10852000FF34C2700271027242724273827303F1AD
:108530000C0EA446172716261525002202EB8202F0
:1085400081189E4585544E708F7081F803C00C7160
:108550000AD093F90620DD791E7A5F7A93F90AC072
:1085600093F90B400633E9E7F0BD00BFD81D0508BD
:1085700010B42C2101240222002304704170827067
:10858000C3705DF8044B7047034600F11001FF22F1
:108590001A705A7002339942FAD102704270827096
:1085A000C2707047C0B1B9B110B40C4B1B780B2B23
:1085B00001F1010114BF10241C2402380C440A7874
:1085C00011F8013C023143EA02238C4220F8023FB9
:1085D000F5D15DF8044B7047704700BF980100204B
:1085E000F8B55D21144835F0FBFD1449144B0D8896
:1085F0004A88DFF854C04C196E1C27792071D21BB1
:10860000104400B283FB0034C3179CF8005048802C
:10861000C3EBE403323306F00F029BB2032D0A8052
:108620008B8200D0F8BDA3EB8303DB00054A03F681
:10863000E8031380F8BD00BF84B300203816002083
:10864000ABAAAA2A94210020802100204FF40063C5
:1086500003837047012380F850307047F0B4037CE7
:10866000456902681F2B37D9203B20215468994067
:108670000C4223D010249C40D160D4605168D94072
:10868000CE074ED4EFF31183502282F312882A6C66
:108690001168C90709D45468002C52D1D5E9096181
:1086A0008E4243D1012285F86420DBB283F3118826
:1086B000037C02681F2B194614D9203B08215068FF
:1086C0009940084200D0D1600421506801FA03F3B8
:1086D000184223D1F0BC7047202416689C402642E3
:1086E0000FD11946082310688B40184200D09360C0
:1086F0000423106803FA01F10842EBD09160F0BC4A
:10870000704710219940946091601168D940CC075E
:10871000B8D5012101FA03F39360B3E7D360F0BC4D
:108720007047012101FA03F3D360ABE7AF690F444F
:10873000D7600ED82E69711A5160AC62002185F89D
:108740006410116841F00101DBB2116083F31188FC
:10875000AEE7711A5160AE62F0E700BFF0B4714B42
:1087600071491A780B789A4240F07E816F4B1A78E3
:10877000002A00F0D4806E4B19786E4B002940F02F
:10878000DB801868B3F83261048824F08004240484
:10879000240C048093F83041C462058845F08005BC
:1087A000058041628489012A44EA06048481A3F891
:1087B000321100F0B480D3F83401B3F86662048853
:1087C00024F080042404240C048093F86442C462DE
:1087D000058845F08005058041628489022A44EAC3
:1087E00006048481A3F8661200F09980D3F8680229
:1087F000B3F89A63048824F080042404240C0480D1
:1088000093F89843C462058845F08005058041626D
:108810008489032A44EA06048481A3F89A137ED04B
:10882000D3F89C03B3F8CE64048824F080042404B5
:10883000240C048093F8CC44C462058845F080057C
:10884000058041628489042A44EA06048481A3F8ED
:10885000CE1464D0D3F8D004B3F80266048824F0B0
:1088600080042404240C048093F80046C462058824
:1088700045F08005058041628489052A44EA0604A2
:108880008481A3F802164AD0D3F80406B3F83667F9
:10889000048824F080042404240C048093F83447D2
:1088A000C462058845F08005058041628489062AF6
:1088B00044EA06048481A3F8361730D0D3F8380789
:1088C000B3F86A68048824F080042404240C04802B
:1088D00093F86848C462058845F0800505804162C8
:1088E0008489072A44EA06048481A3F86A1816D00A
:1088F000D3F86C28B3F89E59108820F0800000044B
:10890000000C108093F89C09D062148844F0800415
:1089100014805162908928439081A3F89E19F0BC7D
:10892000704700BFBC420020BD42002044CB002065
:10893000E1C2002048CB00205C681989616025688D
:10894000186845F0010540F20D312560A0F8481087
:108950008489012A44F480748481E0D0D3F83841BA
:10896000B3F83C51D3F834016560256845F0010542
:108970002560A0F848108489022A44F48074848118
:10898000CDD0D3F86C42B3F87052D3F8680265606A
:10899000256845F001052560A0F848108489032A60
:1089A00044F480748481BAD0D3F8A043B3F8A453BC
:1089B000D3F89C036560256845F001052560A0F8A3
:1089C00048108489042A44F480748481A7D0D3F8A1
:1089D000D444B3F8D854D3F8D0046560256845F082
:1089E00001052560A0F848108489052A44F48074A4
:1089F000848194D0D3F80846B3F80C56D3F8040613
:108A00006560256845F001052560A0F84810848957
:108A1000062A44F48074848181D0D3F83C47B3F8AB
:108A20004057D3F838076560256845F00105256093
:108A3000A0F848108489072A44F4807484813FF4A4
:108A40006EAFD3F87028B3F87408D3F86C38506060
:108A5000106840F001001060A3F848109A8942F4B1
:108A600080729A81F0BC70475C00E618484D15F89A
:108A70003660032E3FF67AAEDFE806F04D261C0284
:108A8000E01805EBC0004468661E012C46603FF606
:108A900046AF013303F00303D8B2824208703FF4BB
:108AA00065AE03EB4303DB00EA1802200021E85423
:108AB000516034E7E11805EBC1014868461E012802
:108AC0004E603FF62CAF0DE0E118C900681846680B
:108AD000771E012E47603FF622AF02274FF0FF3688
:108AE0006F544660E618F600AF192A48397B0068D3
:108AF0000139C9B2397389B34FF47A722344B2FB96
:108B0000F0F200FB02F0B0F57A7F05EBC30518BF69
:108B100001326A602AE670B11F49012600220F89DE
:108B20000132002F18BF0026824201F58671F6D16E
:108B3000002E3FF41BAE174A126842F21076E0187E
:108B4000B6FBF2F102FB1162012605F8306002B1BA
:108B50003144234405EBC305696007E6BF68B7FBF2
:108B6000F0F100FB11700327AF5500B101311C4437
:108B7000013305EBC40503F00303934269603FF43E
:108B8000F5AD00293FF4F2AD01396960EEE500BFB3
:108B9000C04200209C0D0020E4C2002010B5027CE1
:108BA00001681F2A4FF020030ED94C68203A9340E9
:108BB0001C4208D00B4A406800241470026822F05E
:108BC00001020260CB6010BD0C6893401C42FAD0D9
:108BD000044A406800241470026822F00102026016
:108BE0008B60F0E72F75002035F072BC38B51D4B57
:108BF0001B78044600F1250593B104221A49203060
:108C000049F0A4F828461422184949F09FF8012396
:108C100084F83A30164B1B7873B984F83B3038BD72
:108C200028461422134949F091F8012384F83A3078
:108C30000F4B1B78002BF0D00F4B186859689A68BF
:108C4000DD68E56020606160A260DD6918695969CE
:108C50009A69A2610123E5612061616184F83B307A
:108C600038BD00BF1D6C0020EC6B0020D46B0020D1
:108C70001E6C0020B0890508F46B0020014B1868B9
:108C800013F0AEBAF03F002038B53022002149F091
:108C90001FF803462225642440F2DC5040F21A41BA
:108CA00040F26C721D731C7440F20225132458822A
:108CB0009982192040F27531DA8240F643021D8311
:108CC0009C760E2502241877D9830A201E211A8447
:108CD000012283F82D0083F82E1083F8225083F8A8
:108CE0002C409A7383F8252083F82B2019460248DC
:108CF000BDE838400FF09BBBC089050810B50021C6
:108D00000446012012F086F9207010BD38B5002409
:108D10000472451EE1B2022012F07CF90134082CE5
:108D200005F8010FF6D138BD38B50024054604809A
:108D300021462846013432F005F8082CF8D10021EC
:108D400085F8E210A5F8E410A5F8E610A5F8E810FB
:108D5000A5F8EA10A5F8EC10A5F8EE10A5F8F010AB
:108D6000A5F8F2102846BDE8384031F0ADBF00BF8D
:108D700008B5064B186817F059FE00B908BD12F087
:108D8000C9FF034B012298611A7708BD90B30020F8
:108D9000381600202DE9F04F87B0A94A02904068AC
:108DA000038823F040031B041B0C0380038823F07B
:108DB00038031B0490424FEA134300F03F8102F551
:108DC000806290420CBF3022382213430380029B02
:108DD00002889B6842F04002028013B11A689B88A7
:108DE0005383838940F2E93302E0002B00F0908145
:108DF0000289013B12F0020F9BB2F6D06B238381F4
:108E000040F2E93302E0002B00F082810289013B4D
:108E100012F0010F9BB2F6D08389838940F2E933C7
:108E200002E0002B00F071810289013B12F0020F79
:108E30009BB2F6D08023838140F2E93302E0002B1D
:108E400000F063810289013B12F0010F9BB2F6D062
:108E50008389029B9B6813B11A689B88138306233E
:108E6000784CDFF8EC81DFF8ECA1774D774E049376
:108E70009623DFF8E4C101934FF0100EDAF80430C6
:108E8000C3F30803002B40F0B280EFF31183002BF3
:108E900040F0AD802068AA6823689842FAD1336810
:108EA0009A42F7D8D8F800704FF47A7101FB07F3B3
:108EB0009B1AB3FBF7F301FB00304FF47A774FF0C6
:108EC0000109DAF80430C3F30803002B70D1EFF383
:108ED0001183002B6CD12368A96822689342FAD1D0
:108EE00032689142F7D8D8F8002007FB02FBABEBC1
:108EF0000101B1FBF2F107FB03131B1AB3F57A7FF3
:108F0000DFD3019B013B0193B8D1029B9B6813B156
:108F10001A689B885383029B586840F2E933828920
:108F200002E0002B00F085800289013B12F0020F65
:108F30009BB2F6D0F523838140F2E93301E0002BA8
:108F400077D00289013B12F0010F9BB2F7D08389E1
:108F5000838940F2E93301E0002B67D00289013BAD
:108F600012F0020F9BB2F7D0FF23838140F2E93366
:108F700001E0002B5AD00289013B12F0010F9BB295
:108F8000F7D08389DBB20393029B9A6812B113680E
:108F900091881983039B682B60D0049B013B13F0DD
:108FA000FF0304937FF464AF184607B0BDE8F08F69
:108FB000EFF311818EF31288D5F808B02B68DB032C
:108FC00044BFCCF80090D5F808B02368DCF8002046
:108FD000C9B281F31188D8F80010134407FB01F2DD
:108FE000A2EB0B02B2FBF1F207FB032385E7EFF3E1
:108FF00011838EF31288AF682A68D20303D5012249
:10900000CCF80020AF682068DCF80090DBB283F376
:109010001188D8F800104FF47A72484402FB01F32B
:10902000DB1BB3FBF1F302FB003046E735F0B6F88B
:10903000AAE735F0B3F8029B586889E73022C4E606
:10904000003800400CB3002010E000E014B3002012
:1090500010B3002000ED00E008B3002012B1136847
:1090600092885A83029B586840F2E933828901E072
:10907000002B45D00289013B12F0020F9BB2F7D0C2
:109080008C23838140F2E93301E0002B38D0028940
:10909000013B12F0010F9BB2F7D08389838940F224
:1090A000E9330289013B12F0020F9BB215D1002B6C
:1090B000F7D135F073F8029B9B6813B11A689B884F
:1090C0001383059B142B04D3182B17D9543B062B61
:1090D00014D9002007B0BDE8F08FFF23838140F250
:1090E000E93301E0002BE4D00289013B12F0010FCB
:1090F0009BB2F7D08389DBB20593DCE7032054E70A
:1091000035F04CF8029B5868C8E735F047F8A0E600
:1091100035F044F8029B58687FE600BFF0B58769D8
:1091200083B0064617B13B68BA885A837069DFF886
:10913000A8E08389C3244FF47A734FF0060C6D4680
:109140004FF6FF710EF1010E03E0013B9BB28B4223
:1091500020D002899207F8D5A3B283814FF47A73A5
:1091600002E0A3B28B4215D00289D20703F1FF348B
:10917000F7D5828992B20DB12A700135BCF1000F8A
:109180000BD00CF1FF3CFF24BEF1000FE1D09EF8A4
:109190000040D7E735F002F8B76917B13B68BA88E5
:1091A0001A839DF805009DF801509DF802109DF866
:1091B00003409DF804209DF8063041EA052143EA6A
:1091C000002342EA04220120A6F85010A6F85220FB
:1091D000A6F8543003B0F0BDEC1D050808B5012019
:1091E00023F06CFF174A936803F00C03042B1ED086
:1091F000082B18D151685368490203F03F0319D472
:1092000052681148B0FBF3F0C2F3881300FB03F07F
:109210000C4B0E4A5B68C3F3014301335B00B0FBA8
:10922000F3F0106008BD094B074A1A6008BD074BF0
:10923000186008BDB0FBF3F05368C3F3881300FB5C
:1092400003F0E5E7003802400024F4009CA8002069
:109250002DE9F84F037C02681F2B86BF203B516825
:109260001168202202FA03F30B4214BF01230023EA
:109270000BB9BDE8F88F4569DFF88891044612F014
:1092800049FD4FF4867303FB059306465A7C002A7A
:1092900030D157495A6809781768C1B9D3F8801096
:1092A00058890A6822F001020A60BB8923EA000398
:1092B000BB81504B1B78002B30D1237C21681F2BA6
:1092C00011D8202202FA03F38B60BDE8F88F5269AF
:1092D000136823F001031360BB8923F480731B041C
:1092E0001B0CBB81E5E7203B202202FA03F3CB6095
:1092F000BDE8F88FD3F880603F485F8901229A74F7
:1093000031685A680368156821F001013160AA8943
:10931000013322EA0702AA810360CEE74FF4867A7E
:109320000AFB05FA09EB0A05D5F88080404623F0D0
:109330005DFE01236B74D5F884B012F0EBFC3B8822
:10934000CBF82C0123F080031B044FF0FF321B0CE1
:109350003B80FA623B880AF1340143F080033B8092
:109360004944384623F0CAFED5E915702B6CD5F870
:1093700050C0D5E917123B4303430B4313436A6EB6
:109380006F6FD8F800001D491343AA6E1343AA6FEC
:109390003B43014013430B430022EA64C8F800300A
:1093A000D5E91B30D8F81410D5F880206F6C21F067
:1093B000070103430B43A86C95F87C10C8F81430E0
:1093C000C8F804C0C8F80870C8F80C0051606B6891
:1093D000116818686D8941F00101116083892B4380
:1093E000838112F097FC064B801B186065E700BF75
:1093F000E1C20020E0C20020244300203F801CF096
:1094000000880020E4C2002020B10078B0FA80F08B
:10941000400970470120704708B5202148F06FFCD3
:109420000346184623B10278202A03F10103F8D03D
:1094300008BD037903F01803082B0AD002D82BB11A
:1094400000207047102B14D0182BF9D1B0F80B0066
:109450007047104BB0F80B0093F90030591C06BF51
:109460000D4B1B78DBB203EB831300EB430080B2A0
:1094700070470A4BB0F80B0093F900305A1C06BF36
:10948000054B5B78DBB203EB031300EB430080B2C8
:10949000704700BF910D00206CBF0020900D002090
:1094A000F0B5067906F0E003402B09D144794FF07E
:1094B000FF350023012006F00706A3420BD1F0BDC3
:1094C000602B08BF45794FF001040CBF04FA05F585
:1094D0004FF0FF35EDE7042E0CD8DFE806F0030D62
:1094E00018242E0030B1C85CD75C784028420CBFED
:1094F000012000200133E0E70028FBD0C856D756F2
:10950000A0EB070CDCF1000040EB0C00F2E70028B8
:10951000F0D031F8130032F81370784028420CBFB5
:1095200001200020E6E70028E4D031F9130032F9E9
:109530001370C71B78427841DCE70028DAD051F875
:10954000230052F82370784028420CBF01200020ED
:10955000D0E7024B0146186834F0BABFE43E002061
:1095600038B5064D441E14F8011F286819B9BDE826
:10957000384034F0A0BF34F0ABFFF4E7E43E002005
:109580000048EDE730C5050808B5FFF7E9FFBDE87D
:109590000840F5E710B504460348FFF7E1FF204611
:1095A000BDE81040F0E700BFF888050808B532B103
:1095B000C30600D519B11046FFF7ECFF0022104694
:1095C00008BD38B5074C084DAC4203D3074B002209
:1095D0001A7038BD6288D4E9010147F053F8143499
:1095E000F2E700BFA0010008680700088488002097
:1095F00038B5074C074DAC4203D3074B01221A7014
:1096000038BD6288D4E9011047F03CF81434F2E721
:10961000A00100086807000884880020024A136837
:1096200023EA00001060704720D50020DFED2E7A7D
:10963000B4EEE70AF1EE10FA4ADDDFED2C6A9FED99
:109640002C7A01E0B0EE670AB4EEC70AF1EE10FA28
:1096500070EE667AF6DC9FED277AF4EEC77AF1EECB
:1096600010FA3ED5DFED216A9FED237A01E0F0EE9E
:10967000407AF4EEC77AF1EE10FA37EEA60AF6D485
:10968000DFED1E7AB4EEE70AF1EE10FA14DDDFED3D
:10969000167A37EEC00A60EE006A9FED196A9FEDF8
:1096A000197ADFED197AA6EE867A20EE266AE6EEC2
:1096B000877AA6EE270A7047DFED147AB4EEE70A40
:1096C000F1EE10FA44BFDFED0B7A37EEC00AE2E7A5
:1096D0009FED087AF0EE407AF4EEC77AF1EE10FAD8
:1096E000C0D4B0EE670ACBE7DB0F4940DB0FC940BF
:1096F000E4CB1641DB0F49C0E4CB16C1DB0FC93FF9
:1097000092E741B99730083C15A82ABEDB0FC9BFC4
:10971000F0EEC07AB0EEE07AB4EEE77AF1EE10FA4D
:10972000B4BFB0EE676AB0EE476AB5EE406AF1EEDC
:1097300010FA46D0B4EEE77AF1EE10FA8CBFF0EEF4
:10974000675AF0EE475AC5EE866A9FED1F3A9FEDC5
:109750001F6A9FED1F4A9FED1F5ADFED1F3ADFED95
:109760001F4ADFED1F5AA6EEC36AE6EEA34AA6EE35
:10977000864AB7EE006AA6EE845AA6EEA46AE6EE22
:10978000855AC5EE866AB4EEE77AF1EE10FA48BF64
:10979000DFED147AF5EEC00A48BF77EEE66AF1EE27
:1097A00010FA48BFDFED107AB5EEC00A48BF77EE79
:1097B000E66AF1EE10FA48BFF1EE666AB0EE660AAC
:1097C0007047DFED076ADEE739094E3DE3B59E3E9F
:1097D00088FA163E45FE7F3F99FB243F69A2163E5C
:1097E000A7DFA834DB0FC93FDB0F4940DFED317A3B
:1097F00030EE277AFDEEC76A16EE903A2033402B02
:1098000002D99FED2D0A7047B4EEE70AF1EE10FA87
:109810004DDD9FED2A6ADFED2A6A01E0B0EE677A3E
:10982000B4EEE67AF1EE10FA77EE467AF6DC9FEDCA
:10983000257AF4EEC77AF1EE10FA35D5DFED1F6A1E
:109840009FED217A01E0F0EE407AF4EEC77AF1EE76
:1098500010FA37EEA60AF6D4DFED167AB4EEE70A70
:10986000F1EE10FA1BDCDFED197AB4EEE70AF1EE47
:1098700010FA44BFDFED137A37EEC00A60EE006ADB
:109880009FED136A9FED137ADFED137AA6EE867AC9
:1098900020EE266AE6EE877AA6EE270A7047DFED0D
:1098A0000F7A37EEC00AE9E7B0EE670AD4E7F0EEC8
:1098B000477ABCE7DB0FC93F00000000DB0FC9405F
:1098C000E4CB1641DB0F49C0E4CB16C1DB0FC9BFA7
:1098D00092E741B99730083C15A82ABEDB0F4940F2
:1098E000FDEEC07A17EE903A2033402B45D8DFEDDD
:1098F0002D7AB4EEE70AF1EE10FA4DDDDFED2A6ABB
:109900009FED2A7A01E0B0EE670AB4EEC70AF1EEE5
:1099100010FA70EE667AF6DC9FED257AF4EEC77ADF
:10992000F1EE10FA3BD5DFED206A9FED227A01E0DF
:10993000F0EE407AF4EEC77AF1EE10FA37EEA60AAE
:10994000F6D4DFED1D7AB4EEE70AF1EE10FA17DD7A
:10995000DFED147A37EEC00A60EE006A9FED176AF9
:109960009FED177ADFED177AA6EE867A20EE266A4B
:10997000E6EE877AA6EE270A70479FED130A704736
:10998000DFED127AB4EEE70AF1EE10FA44BFDFED34
:10999000087A37EEC00ADFE7F0EE407ABCE7B0EEB7
:1099A000670ACEE7DB0F4940DB0FC940E4CB164125
:1099B000DB0F49C0E4CB16C1DB0FC93F92E741B9C9
:1099C0009730083C15A82ABE00000000DB0FC9BF75
:1099D00010B44C09012250F8243001F01F0102FAA2
:1099E00001F123EA010340F824305DF8044B70478D
:1099F00010B44C09012250F8243001F01F0102FA82
:109A000001F10B4340F824305DF8044B704700BF70
:109A10004B0901F01F0150F82320012303FA01F143
:109A2000114214BF18460020704700BF2DE9F043D3
:109A3000002489B006460D461F46A04605E02529AC
:109A40000CD030460134A847039A531C0393117875
:109A50000029F4D1204609B0BDE8F083931CCDE97C
:109A600003385078302842D0A0F13003DBB2092B04
:109A70004FF0000945D96C282AD0642873D019D931
:109A8000732858D063D9752840F0828007F1040C00
:109A9000386805AB00220A216746FEF7E1FB05ABFB
:109AA000049A009329464B463046FEF7AFFA039AD4
:109AB0000444CAE725283CD051D958286BD06328E4
:109AC000C2D139783046A84704370134039ABCE73D
:109AD000039B5A1C03921B78642B52D016D8252B5B
:109AE00027D064D9582B18D0632BEAD0ADE7D31C0C
:109AF00003939078A0F13003DBB2092B4FF00109FA
:109B0000B9D804AA03A942F0F5FEB4E7732B12D02A
:109B100051D9752B2DD0782B97D1A3F15802B2FAD9
:109B200082F23868520905AB10210437FEF798FB22
:109B3000B5E7252185E73B68049A00932946002371
:109B40003046FEF763FA04370444039A7DE76E2833
:109B50007FF47AAF039A3B6804371C6075E70028EE
:109B60003FF478AF70E7386805A9FEF743FB043788
:109B700095E7386805AB00220A21FEF771FB043730
:109B80008DE73B1D386805A91F46FEF733FB86E7C6
:109B900078287FF459AFA0F15802B2FA82F23868FF
:109BA000520905AB1021FEF75BFB043777E7002B6A
:109BB0003FF450AF49E76E2BCDD046E710B5064CC9
:109BC0000B46024605492068FFF730FF2068BDE8D4
:109BD000104034F070BC00BFE43E0020E98B000868
:109BE00038B504460D460848FFF7BAFC294620461A
:109BF000FFF7E4FF0548FFF7B3FC054B1B7813B1F3
:109C0000044B01221A7038BDFD880508FBC0050809
:109C100040400020414000200FB407B504A951F88E
:109C2000040B0191FFF7DCFFFFF7AAFC03B05DF81E
:109C300004EB04B0704713460A4601460048EBE7C0
:109C4000088905080048E7E7218905080FB407B52A
:109C500004A951F8040B0191FFF7C2FF03B05DF8AE
:109C600004EB04B070470FB407B504A951F8040B16
:109C70000191FFF7A3FFFFF783FC03B05DF804EB4E
:109C800004B070470FB407B504A951F8040B019153
:109C9000FFF794FF03B05DF804EB04B070472DE9C3
:109CA000F843037903F0E001202928D002D849B114
:109CB000BDE8F883402945D06029F9D12448BDE8A2
:109CC000F843D0E703F00703022B02D0042B08D09F
:109CD0006BB9B0F80720B0F805101E48BDE8F8438E
:109CE000C1E7D0F805201B48BDE8F843BBE7B0F951
:109CF0000720B0F905101748BDE8F843B3E74579E8
:109D0000154E1648FFF72CFC06EBC502002492F80E
:109D100004800123A04502D8BDE8F84330E456F89A
:109D2000357057F824204FEA84094AB113B90C481A
:109D3000FFF716FC57F809100A48FFF7A3FF0023A6
:109D40000134E7E741790848BDE8F8438BE700BFF5
:109D5000698905082D890508AC510508448905085D
:109D60005589050810BA0508588905082DE9F041FC
:109D70001746027902F0E003402B05460E462BD130
:109D80000024584FDFF8808115E02B7903F007039A
:109D9000022B15D0032B19D0012B14BF315D315785
:109DA0003846FFF76FFF6B79013BA34202DD404667
:109DB000FFF7D6FB01346B79A342E6DCBDE8F08106
:109DC00036F814103846FFF75DFFECE736F914104B
:109DD0003846FFF757FFE6E702F00702042A5DD88E
:109DE000DFE802F0031D25272A003478202B3AD023
:109DF0006DD8002BE2D1B5F80560B5F80780394879
:109E00002146FFF73FFFB44240DB44453EDC002FD4
:109E1000D4D0424631463448BDE8F04132E796F9A5
:109E20000040202B1FD052D8002B3DD0C6E73488ED
:109E3000DCE7B6F90040F4E7D6F80080202B444672
:109E400011D044D8002BB9D141462648FFF71AFF5C
:109E5000D5F80510884519D8002FAFD02348BDE8A4
:109E6000F0410FE700246A79214B03EBC201097925
:109E7000A1420BDD53F8323053F82400BDE8F04125
:109E8000FFF76EBB1B48BDE8F041FBE6FFF778FB30
:109E9000224629681848BDE8F041D7E6202BE1D0DA
:109EA00007D8002B8AD11C46B5F90560B5F90780A3
:109EB000A5E7602BE6D0802B80D131780F4B10487E
:109EC000002914BF31461946BDE8F041DAE6602B9F
:109ED000F1D16A791441E307D4D50A48BDE8F041CD
:109EE000D0E600BF418905085CBA050883890508EA
:109EF000AC51050823B40508898905088DB4050807
:109F000010BA05087E890508818905080CB407B5D3
:109F100010F020000BD079B92320FFF71AFB05A918
:109F200004980191FFF74AFEFFF72AFB012003B0D6
:109F30005DF804EB02B070470020F8E70CB4C306EC
:109F400007B500D561B905A904980191FFF736FE60
:109F5000FFF716FB012003B05DF804EB02B0704779
:109F60000020F8E70EB400B584B005AB019053F8BB
:109F7000042B0649039301A8FFF758FD019B00221B
:109F80001A7004B05DF804EB03B07047018000085C
:109F900070B406688E4217D90139751E002311F876
:109FA000014F0822634013F0800F4FEA430318BFAC
:109FB00083F0D503013ADBB2F5D18D42EFD1721CAB
:109FC0000260337070BC7047721C002302603370F3
:109FD00070BC70470A44914215D010B40139541E28
:109FE00011F8012F0823504010F0800F4FEA400075
:109FF00018BF80F0D500013BC0B2F5D1A142EFD12E
:10A000005DF8044B704770474840082310F0800FFC
:10A010004FEA400018BF80F0D500013BC0B2F5D137
:10A02000704700BF0A44914215D030B40139551E23
:10A0300041F2210211F8014F082380EA04200404B0
:10A040004CBF82EA40004000013B80B2F7D18D4214
:10A05000F0D130BC7047704770B502221349144CE0
:10A06000144E4FF6FF70FFF7DDFF22884AB1A518A6
:10A07000B54218D2052A16D92146FFF7D3FF2C4640
:10A08000F3E721460222FFF7CDFF0222A118FFF7D6
:10A09000C9FF094BE41A094B1C8041F60F53C31A40
:10A0A0005842584170BD0020FCE700BF0040000846
:10A0B0000240000800800008FA3F0008868800205F
:10A0C0000F4B2DE93048D3E9004554EA05020AD187
:10A0D000034640F2011200201880988098715A803F
:10A0E0001881BDE83088074B1A6814EB020B45F164
:10A0F000000C5A466346FDF7C5FF0120BDE83088D5
:10A10000F06300200CB3002030B403888278C47858
:10A11000154DA3F5FA6303F0030101EB4101013A88
:10A1200002EB81029B0835F812500279611E40F261
:10A13000B55404FB03132B4403EB430302EBC303AB
:10A140004279847909490089C3EB031302EB830345
:10A150002144C3EB031301EB83034FF47A72002114
:10A16000C2FB030130BC7047781D050880436D3881
:10A170002DE9F04707468CB01E469246002A5CD176
:10A18000154614460A88B2F5FA6F36D38B78581EF6
:10A190000B2832D891F803C00CF1FF301E282CD8C0
:10A1A00091F804E0BEF1170F27D891F80590B9F1A6
:10A1B0003B0F22D888793B281FD8B1F80880B8F522
:10A1C0007A7F1AD24FF001085EBB09890491002CF6
:10A1D000B4BF2D212B21002CB8BF6442CDE90290E1
:10A1E000CDE905140795CDE900CE38462A49FFF799
:10A1F000B9FE40460CB0BDE8F08700232749ADF812
:10A2000028304FF0010C18468DF82A30ADF82C306C
:10A2100099469E461A4698460991634609A9002E1A
:10A22000D3D0CDE90290CDE900CE38461C49FFF7E6
:10A2300099FE40460CB0BDE8F0871A4C84FB02340E
:10A24000A318D417C4EB6314C4EB0415A2EB850563
:10A250002DB2002D0846B8BF6D42FFF755FF4FF4F1
:10A260007A7200238046894645F082FF3C230AFB30
:10A27000030A4FF47A7200234046494645F078FFBE
:10A280004FF47A7192B20023C1FB0A2309A8FDF7AB
:10A29000F9FE24B209A975E7EC890508000001015F
:10A2A000CC890508898888880378202B024600F12C
:10A2B0000100F9D0092BF7D02D2B00F0A4802B2B17
:10A2C00003BF5378B7EE000A0246B7EE000AA3F1C7
:10A2D0003001C8B209289FED577A10D8F2EE046A0F
:10A2E00007EE901AF8EEE77A12F8013FE7EE267AC9
:10A2F000A3F13001C8B20928B0EE677AF0D92E2B4D
:10A3000063D003F0DF03452B02D020EE070A70472D
:10A3100010B451782D294FD02B2979D0A1F13003D9
:10A32000092B02F101027AD80024002303EB8303F6
:10A3300001EB430312F8011FA1F130000928A3F13A
:10A340003003F3D9B3F59A7F1A4628BF4FF49A72B7
:10A35000072B6CD9DFED386A1346F7EE007A083B1D
:10A36000072B67EEA67AFAD802F00702DAB1F2EE0E
:10A37000046A012A67EEA67A15D0022A67EEA67A49
:10A3800011D0032A67EEA67A0DD0042A67EEA67ACA
:10A3900009D0052A67EEA67A05D067EEA67A062AC6
:10A3A00018BF67EEA67A002C3BD087EE277A5DF8BF
:10A3B000044B20EE070A70479178A1F13003092B76
:10A3C00002F1020230D80124AFE75378A3F1300143
:10A3D000C8B2092802F1010293D8F2EE046AF0EE45
:10A3E000665A07EE901AF8EEE77A12F8013F87EE08
:10A3F000A66AA3F13001C8B2092866EEA56A37EE55
:10A40000067AEED97DE75378BFEE000A02465EE792
:10A410009178A1F13003092B02F1020284D9F7EE01
:10A42000007A27EE277AC2E7F7EE007ABDE7F7EE6B
:10A43000007A9BE70000000020BCBE4CB5EEC00ACD
:10A44000DFED317AF1EE10FACCBF30EE270A30EEB4
:10A45000670ADFED2E7A20EE270A30B5FDEEC07ACE
:10A4600087B017EE904A054684EAE470002303A9FA
:10A47000A0EBE470CDE90033029343F05BFF002CC6
:10A48000ACBF20232D2303A88DF8003045F07AF9C6
:10A49000012803A924D002282DD0032805BF30238A
:10A4A000684668468DF8013047F01AFC684645F06A
:10A4B00069F90338C4B222466946284647F046FC8B
:10A4C00000232B55284645F05DF92E22431C2A54C3
:10A4D0000DEB0401E81847F01FFC284607B030BD1B
:10A4E000302368468DF801308DF802308DF8033046
:10A4F00047F0F6FBDAE7302368468DF801308DF837
:10A50000023047F0EDFBD1E76F12033A00007A44C6
:10A51000F8B5064615460846B6FBF2F434B905FB15
:10A5200014640C4B1B5D00F8013BF8BDB4FBF2F763
:10A530005FB905FB1747074B05FB1464DA5D00F8AC
:10A54000012B1B5D00F8013BF8BD3846FFF7E0FF2B
:10A55000EFE700BF1C8A050802B370B48E1803E051
:10A56000121B14D1B14215D010F8012BA2F14103F6
:10A57000192B11F8013BA3F1410598BF2032192D89
:10A5800003F12004ECD9D21A01D1002BEAD11046F4
:10A5900070BC70470022104670BC70471046704770
:10A5A00070B5044608460D4645F0ECF8064602E054
:10A5B00014F8013F43B1324629462046FFF7CCFF4D
:10A5C0000028F5D1204670BD1C46204670BD00BF56
:10A5D0004FF0FF32FFF7C0BFA0F16103192B98BF06
:10A5E00020387047A0F14103192B98BF20307047E5
:10A5F000202805D0093804288CBF0020012070478E
:10A60000012070472DE9F0411F46064603461C789D
:10A610002046FFF7EDFF1D4601330028F7D12B2C14
:10A6200051D02D2C24D0102A804628D04FF0FF3353
:10A63000B3FBF2F302FB03FC6FEA0C0C5FFA8CFC39
:10A64000013500200BE0303CE4B2944225DA984218
:10A650002E461DD81AD002FB004015F8014B392CAC
:10A66000F1D944F02004602C17D9573CE4B2ECE750
:10A670004FF00108102A6C7805F10105D6D1302C75
:10A6800023D06FF070434FF00F0CD9E76445E2D947
:10A6900007EA08084FF0FF30DFE701B10E60B8F1BC
:10A6A000000F08D027B1B0F1004F28BF4FF0004095
:10A6B0004042BDE8F081002FFBD06FF0004398428C
:10A6C00028BF1846F5E78046D4E76C782046FFF7A8
:10A6D00089FF782805F1010605D035466FF07043F3
:10A6E0004FF00F0CACE7AC786FF0704302354FF0D1
:10A6F0000F0CA5E701230A22002183E770B50D4660
:10A700001446FEF789FE0646A0B1FFF7F3FF40F6B8
:10A7100034039842A8BF1846B0F5617FB8BF4FF424
:10A7200061701923A0F5617090FBF3F02870237815
:10A73000013323703046FEF76FFE0646A0B1FFF7E7
:10A74000D9FF40F634039842A8BF1846B0F5617FA0
:10A75000B8BF4FF461701923A0F5617090FBF3F05E
:10A760006870237801332370304670BD6138192832
:10A770008CBF002001207047413819288CBF002071
:10A7800001207047303809288CBF00200120704715
:10A79000A0F13003092B07D920F0200041381928F7
:10A7A0008CBF0020012070470120704707EE901AEF
:10A7B000F8EE677A9FED807A27EE800A20EE070A8E
:10A7C000FDEEC07A17EE903A2033402B7BD8DFEDB8
:10A7D0007B7AB4EEE70AF1EE10FA40F3E180B0EED6
:10A7E000407A9FED776ADFED776A01E0B0EE677A35
:10A7F000B4EEE67AF1EE10FA77EE467AF6DC9FEDEB
:10A80000727AF4EEC77AF1EE10FA40F1CC809FED47
:10A810006C6ADFED6E6A01E0F0EE477AF4EEE67AFC
:10A82000F1EE10FA37EE867AF6D4DFED697AB4EEFF
:10A83000E77AF1EE10FA40F3A280DFED607A37EEAE
:10A84000C77A27EE076ADFED635ADFED637ADFED43
:10A85000636A9FED635AE6EE257A67EE065AE6EEE6
:10A86000276AF7EE007AA5EEA67AF0EE675AE7EED1
:10A87000055AE7EE457A87EEA55ADFED557A30EEB8
:10A88000277AFDEEC76A16EE903A2033402B1FD987
:10A890009FED547AF6EE006AB7EE006AF7EE004AD2
:10A8A000C4EEA57A80ED045A67EEA66A27EE866AA2
:10A8B00027EE877AC0ED006AC0ED026A80ED016A7A
:10A8C00080ED037A7047B7EE005AF0EE455AD4E7B0
:10A8D000B4EEE70AF1EE10FA6BDD9FED396ADFEDB9
:10A8E000396A01E0B0EE677AB4EEE67AF1EE10FA7A
:10A8F00077EE467AF6DC9FED347AF4EEC77AF1EE25
:10A9000010FA53D59FED2E6ADFED306A01E0F0EECC
:10A91000477AF4EEE67AF1EE10FA37EE867AF6D45C
:10A92000DFED2B7AB4EEE77AF1EE10FA33DCDFEDEF
:10A930002E7AB4EEE77AF1EE10FA44BFDFED227A18
:10A9400037EEC77A27EE076ADFED224ADFED226A8B
:10A95000DFED227AE6EE246A67EE064AE6EE267A14
:10A96000B7EE006AA4EEA77AF6EE006A36EE476A02
:10A97000F8EE007A27EE277A66EE266A8EE7DFED9C
:10A980001A7AB4EEE77AF1EE10FA44BFDFED0E7AF0
:10A9900037EEC77A55E7DFED097A37EEC77AD1E7A8
:10A9A000F0EE407A2BE7B0EE677A3EE7B0EE677ADA
:10A9B000B6E7F0EE477A9EE727D4D236DB0F494060
:10A9C000DB0FC940E4CB1641DB0F49C0E4CB16C115
:10A9D000DB0FC93F92E741B99730083C15A82ABE62
:10A9E000F304353F00000000DB0FC9BF07EE901AEB
:10A9F000F8EE677A9FED837A27EE800A20EE070A49
:10AA0000FDEEC07A17EE903A2033402B00F28180A1
:10AA1000DFED7D7AB4EEE70AF1EE10FA40F3E6805E
:10AA2000B0EE407A9FED796ADFED796A01E0B0EE31
:10AA3000677AB4EEE67AF1EE10FA77EE467AF6DC53
:10AA40009FED747AF4EEC77AF1EE10FA40F1D180FE
:10AA50009FED6E6ADFED706A01E0F0EE477AF4EE8A
:10AA6000E67AF1EE10FA37EE867AF6D4DFED6B7AFD
:10AA7000B4EEE77AF1EE10FA40F3A780DFED627AE8
:10AA800037EEC77A27EE076ADFED655ADFED657AA4
:10AA9000DFED656A9FED655AE6EE257A67EE065AA8
:10AAA000E6EE276AF7EE007AA5EEA67AF0EE675A90
:10AAB000E7EE055AE7EE457A87EEA55ADFED577ABD
:10AAC00030EE277AFDEEC76A16EE903A2033402B1F
:10AAD00024D99FED577AF6EE006AB7EE006AF7EEDA
:10AAE000004AC4EEA57A0023836143610362C36117
:10AAF00080ED045A67EEA66A27EE866A27EE877A0B
:10AB0000C0ED006AC0ED026A80ED016A80ED037A53
:10AB10007047B7EE005AF0EE455ACFE7B4EEE70AB9
:10AB2000F1EE10FA6BDD9FED396ADFED396A01E075
:10AB3000B0EE677AB4EEE67AF1EE10FA77EE467A86
:10AB4000F6DC9FED347AF4EEC77AF1EE10FA53D5C5
:10AB50009FED2E6ADFED306A01E0F0EE477AF4EE09
:10AB6000E67AF1EE10FA37EE867AF6D4DFED2B7A3C
:10AB7000B4EEE77AF1EE10FA33DCDFED2E7AB4EEC4
:10AB8000E77AF1EE10FA44BFDFED227A37EEC77AAA
:10AB900027EE076ADFED224ADFED226ADFED227A37
:10ABA000E6EE246A67EE064AE6EE267AB7EE006A1B
:10ABB000A4EEA77AF6EE006A36EE476AF8EE007A5F
:10ABC00027EE277A66EE266A89E7DFED1A7AB4EE79
:10ABD000E77AF1EE10FA44BFDFED0E7A37EEC77A6E
:10ABE00050E7DFED097A37EEC77AD1E7F0EE407A29
:10ABF00026E7B0EE677A39E7B0EE677AB6E7F0EEAF
:10AC0000477A9EE727D4D236DB0F4940DB0FC94095
:10AC1000E4CB1641DB0F49C0E4CB16C1DB0FC93FC3
:10AC200092E741B99730083C15A82ABEF304353F96
:10AC300000000000DB0FC9BF30B402681146531C8E
:10AC4000036011F8024B0160D31C517803609378C4
:10AC5000151D05601B0443EA0123D078234343EA12
:10AC6000006030BC704700BF0368591C1A46016081
:10AC700012F8021B0260587841EA0020704700BFBA
:10AC800003685A1C02601878704700BF70B504460C
:10AC900008460E4644F076FD3146054602462068D9
:10ACA00045F0F0FC20682844206070BD38B50446AB
:10ACB0000068154645F0E6FC22682A44226038BD4B
:10ACC000036810B40A0E5C1C04601A7003680A0C56
:10ACD0005C1C04601A7003680A0A5C1C04601A7029
:10ACE00003685A1C026019705DF8044B704700BF7E
:10ACF000036810B40A0A5C1C04601A7003685A1CCA
:10AD0000026019705DF8044B704700BF03685A1C5D
:10AD1000026010B4197003680A0A5C1C04601A709F
:10AD200003680A0C5C1C04601A700368090E5A1C44
:10AD3000026019705DF8044B704700BF03685A1C2D
:10AD4000026019700368090A5A1C02601970704782
:10AD500070B544880546C4F30B042246084600211A
:10AD600046F0B6FF2969094A9142034602D3084AD0
:10AD7000914204D341B11846BDE8704008472246CD
:10AD8000BDE8704045F07EBC70BD00BF680700089C
:10AD9000F408000838B5064C064DAC4206D261688E
:10ADA00020461434FFF7D4FFAC42F8D338BD00BFBF
:10ADB000A001000868070008084B09498B4203D32B
:10ADC00009E014338B4206D21A88C2F30B02904278
:10ADD000F7D118467047002318467047A0010008B5
:10ADE000680700082DE9F74F0F460190002138460B
:10ADF000FEF7DCFBDFF8C4A0009000252E4B18689E
:10AE000033F059FB0D242D4B019A6C43E3181B7949
:10AE100003F01803934203D0002A45D1182B43D1E5
:10AE20000D2606FB05A35444B3F80900FFF7C4FF41
:10AE300081462046FEF7FDFAD9E901218046024409
:10AE400001442046FEF72CFB80F00101009A834666
:10AE5000C9B23846FEF7AAFBFA06009002D5BBF14C
:10AE6000000F21D106FB05A6BB0636680FD5BBF146
:10AE7000000F0CD131461248FEF704FFD9F8041038
:10AE80005A4641442046FEF771FFFEF779FB3146F2
:10AE90000C48FEF7F7FED9F808100022414420467E
:10AEA000FEF764FFFEF76CFB013540F2F3139D42A1
:10AEB000A4D103B0BDE8F08FE43E0020AC560508F5
:10AEC000A3890508A489050870B50546B0F80900EE
:10AED000FFF772FF064B1E7804462846FEF7A9FAD4
:10AEE00016B1A368184470BD63681844FBE700BF3F
:10AEF0008488002038B505460C46FFF7E5FF2A791F
:10AF000002F0070302F0E002602A28D1022B0ED0E3
:10AF1000042B18D03BB96A7901239340DBB2027845
:10AF200014B11343037038BD22EA0303FAE76A79C8
:10AF3000012393409BB2028814B113430380F2E7CC
:10AF400022EA0303FAE76A79012303FA02F20368AB
:10AF500014B113430360E6E723EA0203FAE7042B84
:10AF6000E1D8DFE803F00303050507000470DAE722
:10AF70000480D8E70460D6E738B50D460446FFF7ED
:10AF8000A3FF2A4601462046BDE83840FEF7EEBE44
:10AF900010B5184B0446D02C18681CD0C02C0DD10D
:10AFA000012115F01FFE144B186808B114F02AFB9C
:10AFB00021461248BDE8104033F054BA002115F084
:10AFC00011FE0D4B18680028F0D121460B48BDE852
:10AFD000104033F047BA012115F004FE064B186803
:10AFE0000028E5D014F014FB21460448BDE81040C9
:10AFF00033F038BA90B3002098B3002084B3002017
:10B000002DE9F043934C237F8BB0002B00F0B680EA
:10B010008146002540219048D4F81880257733F0E8
:10B02000DFF800F00303022B00F0EF8010F02106A0
:10B030001CD18A4FA37F3A780B2A00F09581002B10
:10B040000CBF05251525F020FFF7A2FF2B466A4609
:10B050004521814833F065F9A57F002D00F044813A
:10B060009DF80030552B00F00D813546C020FFF7CC
:10B070008FFF637F002B40F08780606D002800F019
:10B08000948015F0D3FC94F85830002B00F0AA807F
:10B09000002840F0A780724A84F858006F4B714E28
:10B0A0001B780B2B4FF00003736008BF0D21236248
:10B0B00018BF0021C6E902330F201370A377636322
:10B0C0001BF00EFEA37F002B77D0644F10F022FE02
:10B0D0007E680246D6F800C0E06D652101FB0CF1E8
:10B0E000101A88420AD9E16CE26563299ABFC1F15E
:10B0F000640189B2002100236187E364216EF36853
:10B10000511A994203D90123226684F83830D4E9D0
:10B110001001131A8B421ED9B3FBFCF6012E98BF07
:10B120004218A0202264FFF733FFE37F334403F08B
:10B130000F03E2180F2092F82010E3771BF0D0FDE8
:10B14000C020FFF725FFA36C1F2B77D87A68126801
:10B150000133C4E91123444B186800283ED0022D66
:10B1600000F0F680B4F86430B3F57A7F3FD2013353
:10B170002846A4F864300BB0BDE8F08303F0FF0567
:10B18000637F002B3FF479AF10F0C4FDE36BC01A6E
:10B19000B0F5FA7F7FF671AFD020FFF7F9FE606D52
:10B1A0000023637700287FF46CAF2D4A1378002BBF
:10B1B0007FF474AFA37F002B87D110F0ABFD236D1C
:10B1C0002A4AC01A904202D994F820303BBB284B3F
:10B1D000284A1B681268FA33934210D928460BB0EC
:10B1E000BDE8F0831E4A84F858001378DFE7204B4F
:10B1F000204A1B68126803F57A739342EED80CF06C
:10B200001FFD28460BB0BDE8F083A37F002B40F064
:10B210000181C020FFF7BCFE0025637F2AE7636B36
:10B22000002BD4D0144EA366A6F14C030FCB0125FE
:10B2300086E80F00A57710F0A3F9C8E70F4B7A68EE
:10B240001B7892686264032B85D10D4B00221A8013
:10B2500081E700BF3816002084B300209801002049
:10B26000FC8700205816002084350020400D030084
:10B27000803500200CB30020A4160020802100207F
:10B2800094210020DDF80120636B9A427FF4EDAE3B
:10B29000FDF7A6F97A68E36C5268C4F84080013380
:10B2A000C4E91126E364B9F1000F0DD00AAB53F8DD
:10B2B000232DC9F8002059689A68DB68C9F8041082
:10B2C000C9F80820C9F80C30E37F013303F00F03FD
:10B2D000E2180F2092F82010E3771BF001FDA37F06
:10B2E0000225002B7FF4C2AE9DF80030AA2B7FF41C
:10B2F000BDAE7868DDF801604068E36C6064C6F359
:10B30000031001309649974A666306F00F0C01332B
:10B3100000270928C4F8408028BF092001EB0C1140
:10B32000E36402F11006A76411F8013B1B1A02F84E
:10B33000013FB242F8D1E37F03F00F03E2180F2080
:10B3400092F82010E3771BF0CBFCC4F850808DE618
:10B3500094F866300022A4F8642013B914F058F968
:10B360003CE714F04FF939E7002B0CBF1B252525CE
:10B37000F020FFF70DFE2B466A4645217A4832F051
:10B38000D0FF9DF80030AA2B54D04FD9BB3B012BE6
:10B3900037D8A37F002B77D17968E26C4968616464
:10B3A0009DF80B10C4F840800132FF29C4E9123225
:10B3B0006CD00AAD04F1200655F81D0D6968AA6825
:10B3C000EB680FC64FF0FF33226BDDF80110CDF8AC
:10B3D0000520CDF80B300122E0206B60AB60EB6004
:10B3E0002B616B612B8361636277C4F85080C4F872
:10B3F0003C80FFF7CDFD6A46252305215A4832F0EF
:10B4000037FF0025637F002B7FF4BEAEC020FFF71F
:10B41000BFFD32E6E37F013303F00F03E2180F2094
:10B4200092F82010E3771BF05BFCF2E6562B01D07C
:10B43000582BE6D1DDF80520236B9A42E1D1DDF8E7
:10B440000120636B9A42DCD1FDF7CAF8E36C79689E
:10B450009DF800204968C4F8408001330025582A2F
:10B460006164C4E9125314D0637F002B7FF48CAE67
:10B47000E37F013303F00F03E2180F2092F820104E
:10B48000E3771BF02DFCBDE73546BBE70DF10B055F
:10B4900098E7B9F1000F16D00AAB53F81F0DC9F8A1
:10B4A00000009A685968C9F80820DA68C9F80410D9
:10B4B0001869C9F80C2059699A69C9F81000C9F8C7
:10B4C0001410C9F8182094F838300BB90225CBE7CE
:10B4D000264BA08A1B88618F7E788DF80B301A0A64
:10B4E0008DF80C20020A402E4FEA11238DF810200F
:10B4F0004FF0FF324FF0000528BF40268DF80F00B7
:10B500008DF813108DF81430AA21FE23CDF81920E0
:10B51000CDF81520CDF81D20CDF82120E020FC220B
:10B520008DF800108DF809508DF80A508DF80E50E6
:10B530008DF812508DF80D208DF81130FFF728FD91
:10B5400033466A460521084832F092FE152201234F
:10B5500084F83850C4F83C807A706377022513E68B
:10B56000F41D05085716002084B30020C86200208F
:10B570002DE9F0410646807B884613F01BFE054608
:10B58000002836D0474F307B33783B70002843D1BA
:10B59000454B464C1860F07A00286ED160653B78C8
:10B5A0000B2B53D00823424E88F8003028467E608B
:10B5B00040F056F906F1100040F01CF90021A36E8E
:10B5C000CBB9A3773B4B1A780AB903221A700F2024
:10B5D0001BF086FBC020FFF7DBFC10F09BFB7A68BA
:10B5E000E36C5268626401330022C4E912232064D0
:10B5F0000120BDE8F081304D636305F14C030FCBB2
:10B6000085E80F00E37F03F00F03E118012291F8B2
:10B610002010E377A277D5E713F0CCFD224C206011
:10B6200018B1052200238271C371012113F03EFF7E
:10B63000737B20681D4C1A1C18BF012284F86620F9
:10B640000028A8D053BB13F0DDFFA4E70E221B4B4C
:10B650001B4988F800201B4A09681B6812681A4EAB
:10B660007E604B4053402846236340F0F9F806F1D2
:10B67000100040F0BFF80D21A1E713F09BFD6065BD
:10B6800018B1272200238271C371202113F00EFF0D
:10B69000606D15F0CBF984F8580080E713F0B8FF1F
:10B6A00079E700BF9801002084350020381600207B
:10B6B000381F05088021002058160020107AFF1F2F
:10B6C000147AFF1F187AFF1FF41E05081378A3B120
:10B6D0001D2812DC70B41E24084E14FB0101151A3B
:10B6E0002819314401E0824205D001F8013F12F8E7
:10B6F000013F002BF7D170BC70477047976E002058
:10B700002DE9F84FDFF8B48298F8003003B1FEE776
:10B71000A54EA64BA64D1B8804467068028822F0F1
:10B7200040021204120C012788F80070028002887F
:10B7300022F038021204A8424FEA124200F0C981F6
:10B7400005F58065A84200F0C481B3F5807FA8BFED
:10B750004FF48073022BB8BF0223002B93FAA3F39C
:10B76000B3FA83F308BF4FF0FF33013B42EAC30350
:10B770009BB203800288B36842F04002028013B19A
:10B780001A689B8853838B4B828901221A700D465D
:10B7900040F2E93302E0002B00F09D810289013B79
:10B7A00012F0020F9BB2F6D00023838140F2E933FE
:10B7B00002E0002B00F08F810289013B12F0010FA3
:10B7C0009BB2F6D08389838940F2E93302E0002BF3
:10B7D00000F097810289013B12F0020F9BB2F6D074
:10B7E0000023838140F2E93302E0002B00F08981DD
:10B7F0000289013B12F0010F9BB2F6D08389838945
:10B8000040F2E93302E0002B00F077810289013B2E
:10B8100012F0020F9BB2F6D00923838140F2E93384
:10B8200002E0002B00F069810289013B12F0010F58
:10B830009BB2F6D08389838940F2E93302E0002B82
:10B8400000F057810289013B12F0020F9BB2F6D043
:10B85000A4B2848140F2E93302E0002B00F0498178
:10B860000289013B12F0010F9BB2F6D08389524F3F
:10B87000013D4FF000094FF00A0B4FF00B0A83898E
:10B8800040F2E93301E0002B6FD00289013B12F056
:10B89000020F9BB2F7D0A0F80CB040F2E93301E000
:10B8A000002B62D00289013B12F0010F9BB2F7D04E
:10B8B0008389838940F2E93301E0002B59D0028962
:10B8C000013B12F0020F9BB2F7D01FFA89F383817C
:10B8D00040F2E93301E0002B4BD00289013B12F02A
:10B8E000010F9BB2F7D08389838915F8014F40F28D
:10B8F000E93301E0002B40D00289013B12F0020F36
:10B900009BB2F7D0A0F80CA040F2E93301E0002B85
:10B9100033D00289013B12F0010F9BB2F7D083892B
:10B92000838940F2E93300E0E3B10289013B12F080
:10B93000020F9BB2F8D0A4B2848140F2E93300E058
:10B9400083B10289013B12F0010F9BB2F8D08389C9
:10B95000386809F1010913F045FEB9F1360F10D02E
:10B9600070688CE732F01AFCF2E732F017FC70686E
:10B970009FE732F013FC7068B6E732F00FFC706896
:10B98000CEE7736840F2E932998902E0002A00F0BC
:10B99000AB801989013A11F0020F92B2F6D0082259
:10B9A0009A8140F2E9320EE044A80020F00D002018
:10B9B00000380040B9740020D8B20020B1740020D3
:10B9C000002A00F091801989013A11F0010F92B21A
:10B9D000F6D09A899A8940F2E93201E0002A7ED0B5
:10B9E0001989013A11F0020F92B2F7D0A0229A8180
:10B9F00040F2E93201E0002A71D01989013A11F0D0
:10BA0000010F92B2F7D09A89A02500249A8940F2BA
:10BA1000E93201E0002A57D01989013A11F0020FEA
:10BA200092B2F7D09D8140F2E93201E0002A4BD07A
:10BA30001989013A11F0010F92B2F7D09A899A89C7
:10BA400040F2E93201E0002A38D01989013A11F0B8
:10BA5000020F92B2F7D09C8140F2E93200E06AB363
:10BA60001989013A11F0010F92B2F8D09889C0B249
:10BA70008206CBD4B26812B1116892880A831A8800
:10BA8000224922F040021204120C1A801A8822F075
:10BA9000380212048B424FEA124205D001F5806150
:10BAA0008B4218BF42F008021A801A88002142F027
:10BAB00040021A8088F80010BDE8F88F184632F06E
:10BAC0006DFB7368C0B2D3E7184632F067FB73684A
:10BAD000B5E75B0839E632F061FB706873E618463B
:10BAE00032F05CFB73688FE7184632F057FB7368DF
:10BAF00070E732F053FB7068B9E632F04FFB7068C4
:10BB000099E632F04BFB706879E600BF00380040E0
:10BB10000388174A23F040031B041B0C038003888F
:10BB200023F038031B0490424FEA13431DD002F563
:10BB30008062904219D0B1F5807FA8BF4FF4807128
:10BB40000229B8BF0221002991FAA1F1B1FA81F1CD
:10BB500008BF4FF0FF31013943EAC10189B20180CA
:10BB6000038843F04003038070474908E3E700BFC0
:10BB70000038004030B5214D6B6883B09A8940F29F
:10BB8000E93200E06AB31C89013A14F0020F92B264
:10BB9000F8D080B2988140F2E93200E00AB3188907
:10BBA000013A10F0010F92B2F8D09A899A8940F2C6
:10BBB000E93200E0E2B11889013A10F0020F92B2C6
:10BBC000F8D089B2998140F2E93200E082B1198956
:10BBD000013A11F0010F92B2F8D09889C0B203B0C7
:10BBE00030BD1846019132F0D9FA6B680199DDE752
:10BBF000184632F0D3FAC0B2F1E700BF44A80020E3
:10BC000008B5838940F2E93300E0A3B10289013B22
:10BC100012F0020F9BB2F8D089B2818140F2E93371
:10BC200000E043B10289013B12F0010F9BB2F8D052
:10BC30008089C0B208BD32F0B1FAC0B208BD00BF01
:10BC40002DE9F84FDFF8D882B14BD8F804001B88F3
:10BC50000288B04922F040021204120C02800288CD
:10BC600022F03802120488424FEA124200F0B482F5
:10BC700001F58061884200F0AF82B3F5807FA8BFF4
:10BC80004FF48073022BB8BF0223002B93FAA3F367
:10BC9000B3FA83F308BF4FF0FF33013B42EAC3031B
:10BCA0009BB203800388D8F8082043F04003038048
:10BCB00012B1136892885A83838940F2E93302E013
:10BCC000002B00F0C5820289013B12F0020F9BB2EB
:10BCD000F6D00523838140F2E93302E0002B00F027
:10BCE000B7820289013B12F0010F9BB2F6D0838923
:10BCF000838940F2E93302E0002B00F0A48202893C
:10BD0000013B12F0020F9BB2F6D00023838140F278
:10BD1000E93302E0002B00F096820289013B12F029
:10BD2000010F9BB2F6D08389838940F2E93302E0A8
:10BD3000002B00F0A1820289013B12F0020F9BB29E
